:020000040800F2
:1000000000C0002091430008591D00085B1D000836
:100010005D1D00085F1D0008611D00080000000054
:10002000000000000000000000000000631D000848
:10003000651D000800000000671D0008111F000872
:10004000D9430008D9430008D9430008D943000820
:10005000D9430008D9430008D9430008D943000810
:10006000D9430008D9430008D9430008D943000800
:10007000D9430008D9430008D9430008D9430008F0
:10008000D9430008D9430008D9430008D9430008E0
:10009000D9430008D9430008D9430008D9430008D0
:1000A000D9430008191F0008D9430008D9430008A4
:1000B000D9430008D9430008D9430008D9430008B0
:1000C000D9430008D9430008D9430008D9430008A0
:1000D000D9430008F5290008D9430008D94300088E
:1000E000D9430008D9430008D9430008D943000880
:1000F000D9430008D94300080000000000000000B8
:10010000000000000000000000000000D9430008CB
:10011000D9430008D9430008D9430008D94300084F
:10012000D9430008D9430008D9430008D94300083F
:10013000D94300080000000000000000D943000877
:10014000D9430008D9430008D9430008D94300081F
:10015000D9430008D943000800000000D943000833
:10016000D9430008D9430008000000000000000047
:10017000000000000000000000000000000000007F
:1001800000000000D9430008D9430008D943000803
:10019000000000000000000000000000000000005F
:1001A000000000000000000000000000000000004F
:1001B0000000000000000000D9430008000000001B
:1001C000000000000000000000000000000000002F
:1001D000000000000000000000000000D9430008FB
:1002000010B5054C237833B9044B13B10448AFF350
:1002100000800123237010BDF809002000000000B9
:1002200004A6000808B5034B1BB103490348AFF30C
:10023000008008BD00000000FC09002004A60008A2
:1002400081F0004102E000BF83F0004330B54FEA87
:1002500041044FEA430594EA050F08BF90EA020FF4
:100260001FBF54EA000C55EA020C7FEA645C7FEA87
:10027000655C00F0E2804FEA5454D4EB5555B8BFAA
:100280006D420CDD2C4480EA020281EA030382EA1B
:10029000000083EA010180EA020281EA0303362DAD
:1002A00088BF30BD11F0004F4FEA01314FF4801C80
:1002B0004CEA113102D0404261EB410113F0004F92
:1002C0004FEA03334CEA133302D0524263EB430349
:1002D00094EA050F00F0A780A4F10104D5F1200EE7
:1002E0000DDB02FA0EFC22FA05F2801841F1000142
:1002F00003FA0EF2801843FA05F359410EE0A5F116
:1003000020050EF1200E012A03FA0EFC28BF4CF046
:10031000020C43FA05F3C01851EBE37101F00045FC
:1003200007D54FF0000EDCF1000C7EEB00006EEB09
:100330000101B1F5801F1BD3B1F5001F0CD3490893
:100340005FEA30004FEA3C0C04F101044FEA4452EA
:1003500012F5800F80F09A80BCF1004F08BF5FEA71
:10036000500C50F1000041EB045141EA050130BD51
:100370005FEA4C0C404141EB0101013C28BFB1F563
:10038000801FE9D291F0000F04BF01460020B1FAAE
:1003900081F308BF2033A3F10B03B3F120020CDA81
:1003A0000C3208DD02F1140CC2F10C0201FA0CF05F
:1003B00021FA02F10CE002F11402D8BFC2F1200CC4
:1003C00001FA02F120FA0CFCDCBF41EA0C0190407A
:1003D000E41AA2BF01EB0451294330BD6FEA0404C3
:1003E0001F3C1CDA0C340EDC04F11404C4F12002AE
:1003F00020FA04F001FA02F340EA030021FA04F3C0
:1004000045EA030130BDC4F10C04C4F1200220FA16
:1004100002F001FA04F340EA0300294630BD21FA54
:1004200004F0294630BD94F0000F83F4801306BF1A
:1004300081F480110134013D4EE77FEA645C18BF0E
:100440007FEA655C29D094EA050F08BF90EA020FA5
:1004500005D054EA000C04BF1946104630BD91EA9D
:10046000030F1EBF0021002030BD5FEA545C05D1A0
:100470004000494128BF41F0004130BD14F58004DF
:100480003CBF01F5801130BD01F0004545F0FE4153
:1004900041F470014FF0000030BD7FEA645C1ABF88
:1004A000194610467FEA655C1CBF0B46024650EABF
:1004B000013406BF52EA033591EA030F41F40021EB
:1004C00030BD00BF90F0000F04BF0021704730B571
:1004D0004FF4806404F132044FF000054FF0000146
:1004E00050E700BF90F0000F04BF0021704730B507
:1004F0004FF4806404F1320410F0004548BF4042DC
:100500004FF000013EE700BF42004FEAE2014FEA30
:1005100031014FEA02701FBF12F07F4393F07F4F0B
:1005200081F06051704732F07F4208BF704793F00E
:100530007F4F04BF41F40021704730B54FF4607421
:1005400001F0004521F000411CE700BF50EA010224
:1005500008BF704730B54FF000050AE050EA0102CD
:1005600008BF704730B511F0004502D5404261EB3D
:1005700041014FF4806404F132045FEA915C3FF47E
:10058000D8AE4FF003025FEADC0C18BF03325FEA1B
:10059000DC0C18BF033202EBDC02C2F1200300FACC
:1005A00003FC20FA02F001FA03FE40EA0E0021FAF1
:1005B00002F11444BDE600BF70B54FF0FF0C4CF4DF
:1005C000E06C1CEA11541DBF1CEA135594EA0C0F91
:1005D00095EA0C0F00F0DEF82C4481EA030621EACC
:1005E0004C5123EA4C5350EA013518BF52EA033507
:1005F00041F4801143F4801338D0A0FB02CE4FF0B9
:100600000005E1FB02E506F00042E0FB03E54FF0E8
:100610000006E1FB03569CF0000F18BF4EF0010EE0
:10062000A4F1FF04B6F5007F64F5407404D25FEADC
:100630004E0E6D4146EB060642EAC62141EA55518F
:100640004FEAC52040EA5E504FEACE2EB4F1FD0CD1
:1006500088BFBCF5E06F1ED8BEF1004F08BF5FEA4F
:10066000500E50F1000041EB045170BD06F0004601
:1006700046EA010140EA020081EA0301B4EB5C04AE
:10068000C2BFD4EB0C0541EA045170BD41F48011A6
:100690004FF0000E013C00F3AB8014F1360FDEBFCB
:1006A000002001F0004170BDC4F10004203C35DAA7
:1006B0000C341BDC04F11404C4F1200500FA05F32A
:1006C00020FA04F001FA05F240EA020001F00042CB
:1006D00021F0004110EBD37021FA04F642EB060141
:1006E0005EEA430E08BF20EAD37070BDC4F10C046B
:1006F000C4F1200500FA04F320FA05F001FA04F22F
:1007000040EA020001F0004110EBD37041F100011A
:100710005EEA430E08BF20EAD37070BDC4F1200525
:1007200000FA05F24EEA020E20FA04F301FA05F28D
:1007300043EA020321FA04F001F0004121FA04F235
:1007400020EA020000EBD3705EEA430E08BF20EA05
:10075000D37070BD94F0000F0FD101F0004640003F
:1007600041EB010111F4801F08BF013CF7D041EAC1
:10077000060195F0000F18BF704703F000465200C5
:1007800043EB030313F4801F08BF013DF7D043EA96
:100790000603704794EA0C0F0CEA135518BF95EA4C
:1007A0000C0F0CD050EA410618BF52EA4306D1D1D3
:1007B00081EA030101F000414FF0000070BD50EAF2
:1007C000410606BF1046194652EA430619D094EA7C
:1007D0000C0F02D150EA013613D195EA0C0F05D166
:1007E00052EA03361CBF104619460AD181EA0301BA
:1007F00001F0004141F0FE4141F470014FF0000072
:1008000070BD41F0FE4141F4780170BD70B54FF00C
:10081000FF0C4CF4E06C1CEA11541DBF1CEA13558C
:1008200094EA0C0F95EA0C0F00F0A7F8A4EB05046E
:1008300081EA030E52EA03354FEA013100F0888065
:100840004FEA03334FF0805545EA131343EA12632E
:100850004FEA022245EA111545EA10654FEA0026E3
:100860000EF000419D4208BF964244F1FD0404F59C
:10087000407402D25B084FEA3202B61A65EB0305F8
:100880005B084FEA32024FF480104FF4002CB6EBB5
:10089000020E75EB030E22BFB61A754640EA0C0035
:1008A0005B084FEA3202B6EB020E75EB030E22BF75
:1008B000B61A754640EA5C005B084FEA3202B6EBB6
:1008C000020E75EB030E22BFB61A754640EA9C0075
:1008D0005B084FEA3202B6EB020E75EB030E22BF45
:1008E000B61A754640EADC0055EA060E18D04FEA03
:1008F000051545EA16754FEA06164FEAC30343EAA3
:1009000052734FEAC2025FEA1C1CC0D111F4801F6F
:100910000BD141EA00014FF000004FF0004CB6E768
:1009200011F4801F04BF01430020B4F1FD0C88BF07
:10093000BCF5E06F3FF6AFAEB5EB030C04BFB6EB12
:10094000020C5FEA500C50F1000041EB045170BD05
:100950000EF0004E4EEA113114EB5C04C2BFD4EB32
:100960000C0541EA045170BD41F480114FF0000EB6
:10097000013C90E645EA060E8DE60CEA135594EA32
:100980000C0F08BF95EA0C0F3FF43BAF94EA0C0F35
:100990000AD150EA01347FF434AF95EA0C0F7FF4AA
:1009A00025AF104619462CE795EA0C0F06D152EAFE
:1009B00003353FF4FDAE1046194622E750EA4106E2
:1009C00018BF52EA43067FF4C5AE50EA41047FF4F3
:1009D0000DAF52EA43057FF4EBAE12E74FF0FF3C58
:1009E00006E000BF4FF0010C02E000BF4FF0010C29
:1009F0004DF804CD4FEA410C7FEA6C5C4FEA430CA2
:100A000018BF7FEA6C5C1BD001B050EA410C0CBFF0
:100A100052EA430C91EA030F02BF90EA020F002052
:100A2000704710F1000F91EA030F58BF994208BFB9
:100A300090422CBFD8176FEAE37040F00100704776
:100A40004FEA410C7FEA6C5C02D150EA013C07D1CD
:100A50004FEA430C7FEA6C5CD6D152EA033CD3D018
:100A60005DF8040B704700BF8446104662468C4612
:100A70001946634600E000BF01B5FFF7B7FF002845
:100A800048BF10F1000F01BD4DF808EDFFF7F4FF6E
:100A90000CBF012000205DF808FB00BF4DF808EDF9
:100AA000FFF7EAFF34BF012000205DF808FB00BF1C
:100AB0004DF808EDFFF7E0FF94BF012000205DF83E
:100AC00008FB00BF4DF808EDFFF7CEFF94BF0120F3
:100AD00000205DF808FB00BF4DF808EDFFF7C4FFEC
:100AE00034BF012000205DF808FB00BF80F000400B
:100AF00002E000BF81F0004142001FBF5FEA4103F6
:100B000092EA030F7FEA226C7FEA236C6AD04FEAF5
:100B10001262D2EB1363C1BFD2184140484041403A
:100B2000B8BF5B42192B88BF704710F0004F40F4EC
:100B3000000020F07F4018BF404211F0004F41F408
:100B4000000121F07F4118BF494292EA030F3FD0D4
:100B5000A2F1010241FA03FC10EB0C00C3F12003E7
:100B600001FA03F100F0004302D5494260EB400076
:100B7000B0F5000F13D3B0F1807F06D340084FEAE1
:100B8000310102F10102FE2A51D2B1F1004F40EBD6
:100B9000C25008BF20F0010040EA0300704749003E
:100BA00040EB0000013A28BFB0F5000FEDD2B0FADB
:100BB00080FCACF1080CB2EB0C0200FA0CF0AABFFE
:100BC00000EBC25052421843BCBFD040184370479C
:100BD00092F0000F81F4000106BF80F400000132A2
:100BE000013BB5E74FEA41037FEA226C18BF7FEA79
:100BF000236C21D092EA030F04D092F0000F08BFBB
:100C00000846704790EA010F1CBF0020704712F0A1
:100C10007F4F04D1400028BF40F00040704712F1E0
:100C200000723CBF00F50000704700F0004343F045
:100C3000FE4040F4000070477FEA226216BF08467B
:100C40007FEA23630146420206BF5FEA412390EA3E
:100C5000010F40F4800070474FF0000304E000BF34
:100C600010F0004348BF40425FEA000C08BF7047E5
:100C700043F0964301464FF000001CE050EA0102A9
:100C800008BF70474FF000030AE000BF50EA0102BE
:100C900008BF704711F0004302D5404261EB4101AB
:100CA0005FEA010C02BF84460146002043F0B643D0
:100CB00008BFA3F18053A3F50003BCFA8CF2083AF5
:100CC000A3EBC25310DB01FA02FC634400FA02FCFE
:100CD000C2F12002BCF1004F20FA02F243EB020005
:100CE00008BF20F00100704702F1200201FA02FC67
:100CF000C2F1200250EA4C0021FA02F243EB02005A
:100D000008BF20EADC7070474FF0FF0C1CEAD0529D
:100D10001EBF1CEAD15392EA0C0F93EA0C0F6FD05E
:100D20001A4480EA010C400218BF5FEA41211ED03C
:100D30004FF0006343EA501043EA5111A0FB013128
:100D40000CF00040B1F5000F3EBF490041EAD371FD
:100D50005B0040EA010062F17F02FD2A1DD8B3F179
:100D6000004F40EBC25008BF20F00100704790F0E8
:100D7000000F0CF0004C08BF49024CEA502040EA3A
:100D800051207F3AC2BFD2F1FF0340EAC250704700
:100D900040F400004FF00003013A5DDC12F1190F3E
:100DA000DCBF00F000407047C2F10002410021FAB0
:100DB00002F1C2F1200200FA02FC5FEA310040F1C8
:100DC000000053EA4C0308BF20EADC70704792F041
:100DD000000F00F0004C02BF400010F4000F013A79
:100DE000F9D040EA0C0093F0000F01F0004C02BF74
:100DF000490011F4000F013BF9D041EA0C018FE7E3
:100E00000CEAD15392EA0C0F18BF93EA0C0F0AD0E8
:100E100030F0004C18BF31F0004CD8D180EA01000E
:100E200000F00040704790F0000F17BF90F0004FA7
:100E3000084691F0000F91F0004F14D092EA0C0F89
:100E400001D142020FD193EA0C0F03D14B0218BF1C
:100E5000084608D180EA010000F0004040F0FE4062
:100E600040F40000704740F0FE4040F440007047FE
:100E70004FF0FF0C1CEAD0521EBF1CEAD15392EA7D
:100E80000C0F93EA0C0F69D0A2EB030280EA010C6D
:100E900049024FEA402037D04FF0805343EA111106
:100EA00043EA10130CF000408B4238BF5B0042F164
:100EB0007D024FF4000C8B4224BF5B1A40EA0C0009
:100EC000B3EB510F24BFA3EB510340EA5C00B3EB3B
:100ED000910F24BFA3EB910340EA9C00B3EBD10F29
:100EE00024BFA3EBD10340EADC001B0118BF5FEA7B
:100EF0001C1CE0D1FD2A3FF650AF8B4240EBC250A4
:100F000008BF20F0010070470CF0004C4CEA502064
:100F10007F32C2BFD2F1FF0340EAC250704740F4B3
:100F200000004FF00003013A37E792F0000F00F0A5
:100F3000004C02BF400010F4000F013AF9D040EA23
:100F40000C0093F0000F01F0004C02BF490011F4B7
:100F5000000F013BF9D041EA0C0195E70CEAD153AF
:100F600092EA0C0F08D142027FF47DAF93EA0C0F96
:100F70007FF470AF084676E793EA0C0F04D14B027A
:100F80003FF44CAF08466EE730F0004C18BF31F02C
:100F9000004CCAD130F000427FF45CAF31F0004326
:100FA0007FF43CAF5FE700BF53B94AB9002908BFDF
:100FB00000281CBF4FF0FF314FF0FF3000F074B934
:100FC000ADF1080C6DE904CE00F006F8DDF804E0A0
:100FD000DDE9022304B070472DE9F047089E0D4675
:100FE00004468846002B4DD18A42944668D9B2FA0D
:100FF00082F252B101FA02F3C2F1200120FA01F1AA
:101000000CFA02FC41EA030894404FEA1C45210C0B
:10101000B8FBF5FE1FFA8CF705FB1E8341EA03437C
:101020000EFB07F199420BD91CEB03030EF1FF30C5
:1010300080F01E81994240F21B81AEF1020E6344A2
:101040005B1AA4B2B3FBF5F005FB103344EA03448A
:1010500000FB07F7A7420AD91CEB040400F1FF3399
:1010600080F00881A74240F2058164440238E41B05
:1010700040EA0E4000211EB1D4400023C6E90043DF
:10108000BDE8F0878B4208D9002E00F0EE800021E9
:10109000C6E900050846BDE8F087B3FA83F10029E8
:1010A0004AD1AB4202D3824200F2F980841A65EB46
:1010B000030301209846002EE2D0C6E90048DFE78E
:1010C00002B9FFDEB2FA82F2002A40F09180A1EB71
:1010D0000C054FEA1C471FFA8CFE0121B5FBF7F304
:1010E00007FB1350250C45EA00450EFB03F0A84210
:1010F00008D91CEB050503F1FF3802D2A84200F223
:10110000CB8043462D1AA4B2B5FBF7F007FB105570
:1011100044EA05440EFB00FEA64508D91CEB040476
:1011200000F1FF3502D2A64500F2BB802846A4EBB1
:101130000E0440EA03409EE7C1F120078B4022FAEB
:1011400007FC4CEA030C20FA07F405FA01F31C43F0
:10115000FD404FEA1C4900FA01F3B5FBF9F8200CF9
:101160001FFA8CFE09FB185540EA054508FB0EF0F6
:10117000A84202FA01F20BD91CEB050508F1FF3A6F
:1011800080F08880A84240F28580A8F1020865447A
:101190002D1AA4B2B5FBF9F009FB105544EA054538
:1011A00000FB0EFEAE4508D91CEB050500F1FF342F
:1011B0006CD2AE456AD90238654440EA0840A0FBCB
:1011C0000294A5EB0E05A542C846A64656D353D0B9
:1011D0005EB1B3EB080265EB0E0505FA07F722FADC
:1011E00001F3CD401F43C6E900750021BDE8F0873B
:1011F000C2F1200320FA03F10CFA02FC25FA03F3F2
:1012000095400D434FEA1C471FFA8CFEB3FBF7F1E4
:1012100007FB11302B0C43EA004301FB0EF0984210
:1012200004FA02F408D91CEB030301F1FF382FD2B2
:1012300098422DD9023963441B1AADB2B3FBF7F0C3
:1012400007FB103345EA034500FB0EF3AB4208D918
:101250001CEB050500F1FF3816D2AB4214D9023859
:101260006544ED1A40EA014138E73146304607E768
:101270008646E5E61846FAE64B45A9D2B9EB0208E0
:1012800064EB0C0E0138A3E74046EAE7204694E7FA
:101290004146D1E7D0467BE7023B654432E708464A
:1012A00009E76444023842E7704700BF00000000CD
:1012B000000000000000000000000000000000002E
:1012C000A2EB0300704700BF02780B78012A28BF09
:1012D0009A42F5D16DE9044540EA0104CDE902677F
:1012E0006FF0000C4FEA447212B380EA010414F06C
:1012F000070F6AD100F0070420F0070004F003058F
:1013000021F007014FEAC505F0E8042314F0040FAB
:10131000F1E804670CFA05F462EA040266EA0406DE
:101320000AD063EA0403624667EA0407664603E0FC
:10133000F0E80423F1E8046782FA4CF582EA060437
:10134000A4FA8CF46CBB83FA4CF583EA0705A5FA82
:101350008CF595B950E9022351E9026782FA4CF500
:1013600082EA0604A4FA8CF483FA4CF583EA0705B2
:10137000A5FA8CF52543DBD09CB92DBAB5FA85F4D6
:1013800024F0070427FA04F1DDE9026723FA04F3E5
:1013900003F0FF0001F0FF01FDE80445A0EB0100B0
:1013A000704724BAB4FA84F424F0070426FA04F14E
:1013B000DDE9026722FA04F202F0FF0001F0FF010A
:1013C000FDE80445A0EB0100704714F0030F3CD189
:1013D00010F0030428D150F8082B51F8083B82FA8A
:1013E0004CF582EA0305A5FA8CF55DB950F8042C9A
:1013F00051F8043C82FA4CF582EA0305A5FA8CF513
:10140000002DE8D02DBAB5FA85F424F0070423FAAC
:1014100004F122FA04F202F0FF0001F0FF01FDE8FE
:101420000445A0EB010070474FEAC40420F003001C
:1014300050F8082B21F0030151F8083B0CFA04F492
:1014400062EA040263EA0403C9E710F003041AD055
:10145000A1EB040120F00300E40750F8042B06D0B0
:101460000FD28B785FFAA2F4E41A06D12BB1CB78B5
:101470005FFAB2F4E41A00D11BB920465DF8104BB4
:10148000704701F1040150F8042BCC0721F003014F
:1014900051F8043B48D824D222F07F4482FA4CF51C
:1014A00094EA1325A5FA8CF50AD165B951F8043BE5
:1014B00084EA0204B4EB036F0ED150F8042BEBE77F
:1014C0004FEA132355E035F07F454DD10878FDE80C
:1014D0000445C0F1000070474FEA126203F0FF03B9
:1014E00047E002EA1C4482FA4CF594EA1345A5FA57
:1014F0008CF50AD165B951F8043B84EA0204B4EBD7
:10150000034F0CD150F8042BEBE74FEA134330E0C4
:1015100015EA1C4528D10B884FEA124229E04FEA10
:10152000124203EA1C4324E002F0FF0482FA4CF565
:1015300094EA1365A5FA8CF50AD165B951F8043B14
:1015400084EA0204B4EB032F09D150F8042BEBE733
:101550004FEA13630DE015F0FF0F05D10B684FEA5A
:10156000122223F07F4304E04FF00000FDE8044521
:10157000704712BA1BBA82FA4CF482EA0304A4FA46
:101580008CF5B5FA85F402FA04F203FA04F34FEA93
:101590001260FDE80445A0EB1360704700000000F6
:1015A000000000000000000000000000000000003B
:1015B000000000000000000000000000000000002B
:1015C00090F800F06DE9024520F007016FF0000C83
:1015D00010F0070491F820F040F049804FF000042B
:1015E0006FF00700D1E9002391F840F000F1080006
:1015F00082FA4CF2A4FA8CF283FA4CF3A2FA8CF33E
:101600004BBBD1E9022382FA4CF200F10800A4FAA4
:101610008CF283FA4CF3A2FA8CF3E3B9D1E90423F8
:1016200082FA4CF200F10800A4FA8CF283FA4CF32F
:10163000A2FA8CF37BB9D1E9062301F1200182FAE9
:101640004CF200F10800A4FA8CF283FA4CF3A2FAEF
:101650008CF3002BC6D0002A04BF04301A4612BAFD
:10166000B2FA82F2FDE8024500EBD2007047D1E900
:10167000002304F00305C4F100004FEAC50514F08F
:10168000040F91F840F00CFA05F562EA05021CBF60
:1016900063EA050362464FF00004A9E7000000007A
:1016A00001F0FF01102A2BDB10F0070F08D010F813
:1016B000013B013A8B422DD010F0070F42B3F6D117
:1016C000F0B441EA012141EA014122F007047FF030
:1016D00000070023F0E80256083C85EA010586EA87
:1016E000010685FA47F5A3FA87F586FA47F6A5FAC3
:1016F00087F68EB9EED1F0BC01F0FF0102F00702CF
:1017000032B110F8013B013A83EA010313B1F8D179
:101710000020704701387047002D06BF354603385A
:10172000073815F0010F07D1013015F4807F02BF93
:10173000013015F4C03F0130F0BC0138704700BFE4
:10174000844641EA000313F003036DD1403A41D3CC
:1017500051F8043B40F8043B51F8043B40F8043B8B
:1017600051F8043B40F8043B51F8043B40F8043B7B
:1017700051F8043B40F8043B51F8043B40F8043B6B
:1017800051F8043B40F8043B51F8043B40F8043B5B
:1017900051F8043B40F8043B51F8043B40F8043B4B
:1017A00051F8043B40F8043B51F8043B40F8043B3B
:1017B00051F8043B40F8043B51F8043B40F8043B2B
:1017C00051F8043B40F8043B51F8043B40F8043B1B
:1017D000403ABDD2303211D351F8043B40F8043BBB
:1017E00051F8043B40F8043B51F8043B40F8043BFB
:1017F00051F8043B40F8043B103AEDD20C3205D3CB
:1018000051F8043B40F8043B043AF9D2043208D0C2
:10181000D2071CBF11F8013B00F8013B01D30B8834
:1018200003806046704700BF082A13D38B078DD012
:1018300010F003038AD0C3F10403D21ADB071CBFE4
:1018400011F8013B00F8013B80D331F8023B20F84E
:10185000023B7BE7043AD9D3013A11F8013B00F887
:10186000013BF9D20B7803704B7843708B7883700F
:10187000604670474FEA410C7FEA6C5C02D150EA47
:10188000013C0AD14FEA430C7FEA6C5C02D152EA78
:10189000033C02D14FF0000070474FF00100704749
:1018A0004FEA410212F5001215D211D56FF4787388
:1018B000B3EB625212D94FEAC12343F0004343EA2B
:1018C000505311F0004F23FA02F018BF4042704706
:1018D0004FF00000704750EA013005D111F0004090
:1018E00008BF6FF0004070474FF00000704700BF26
:1018F00008B10020704708B50121024800F063FEDE
:1019000008BD00BF0000024008B50249024802F0CD
:101910001DFB08BD20A600082CA6000808B502493A
:10192000024802F013FB08BD20A6000860A60008CC
:1019300008B50249024802F009FB08BD20A60008CC
:1019400094A6000808B50249024802F0FFFA08BD53
:1019500020A60008CCA6000808B50249024802F0FB
:10196000F5FA08BD20A6000804A7000808B502493A
:10197000024802F0EBFA08BD20A6000838A70008CC
:1019800008B50249024802F0E1FA08BD20A60008A5
:1019900074A7000810B5174C0023012216492046F1
:1019A00002F0FDFB154A0021204602F013FC144A08
:1019B0000121204602F00EFC124A0221204602F0CC
:1019C00009FC114A0321204602F004FC0F4A0421BD
:1019D000204602F0FFFB0E4A0521204602F0FAFBEA
:1019E0000C4A0621204602F0F5FB204602F0F8FBE7
:1019F00010BD00BF140A0020F118000809190008E2
:101A00001D19000831190008451900085919000866
:101A10006D1900088119000808B500F0CDFF00F02D
:101A2000D5F94FF4FA71002000F048FA4FF4FA614A
:101A3000012000F043FA08BD08B502F04DFC02F0A9
:101A4000EFFBFFF7A7FF08BD08B500F03FF900F076
:101A50008BF94FF4E13000F08DFA08BD10B50F4C52
:101A600021460F4802F072FA21460E4802F06EFA43
:101A700021460D4802F06AFA21460C4802F066FA47
:101A800021460B4802F062FA21460A4802F05EFA4B
:101A90002146094802F05AFA10BD00BFB0A700085D
:101AA000B8A70008ECA700081CA800084CA800086C
:101AB00078A80008A0A80008CCA8000808B502F083
:101AC000A1FB08BD70477047BFF34F8F0549CA6837
:101AD00002F4E062044B1343CB60BFF34F8F00BFAF
:101AE000FDE700BF00ED00E00400FA0538B5094D40
:101AF0002B68094C2146002098472B68214601207D
:101B000098472B682146022098470449044802F070
:101B10001DFA38BD280000204943000800A900082C
:101B20000CA9000838B5094D2B68094C2146002046
:101B300098472B682146012098472B6821460220B0
:101B400098470449044802F001FA38BD28000020F3
:101B50000143000800A900082CA9000838B5032893
:101B60004FD8DFE800F00215283B2F4C23682F4D9B
:101B70002946002098472368294601209847236872
:101B80002B49022098472B492B4802F0DFF938BD3A
:101B9000254C2368254D2946002098472368244971
:101BA0000120984723682946022098472149234865
:101BB00002F0CCF9EBE71C4C23681D490020984744
:101BC00023681A4D29460120984723682946022098
:101BD000984718491A4802F0B9F9D8E7124D2B680E
:101BE000124C2146002098472B6821460120984737
:101BF0002B682146022098470E49124802F0A6F9A8
:101C0000C5E7094D2B680A4C2146002098472B68F0
:101C10002146012098472B68214602209847054914
:101C2000094802F093F9B2E7280000204943000870
:101C30000143000800A9000850A9000884A9000871
:101C4000B8A90008ECA9000824AA000870B5044649
:101C50000D4616460549064802F078F933462A46ED
:101C60002146044802F030FC002070BD00A90008A5
:101C700060AA000898AA00087047704708B5FFF7E7
:101C800022FF00F09DFE08BD08B50B4C6368984725
:101C900023689847E3689847A3689847074C21460C
:101CA000074802F053F92146064802F04FF9064B67
:101CB0001B689847FBE700BF0000002040AB00080E
:101CC00048AB000884AB00081000002008B500F005
:101CD00005FB1E4B4FF4AA721A6001211C4800F04C
:101CE00092FA1C4A136943F0030313610121084669
:101CF00000F0A8FA00F074FA0028FBD001231A467D
:101D00004821184600F04EFB0121022000F09AFA0B
:101D1000192000F053FA0128FAD1002000F01AFB34
:101D2000002000F0BFFA042000F0B4FA012000F017
:101D3000C1FA022000F056FB00F064FB0228FBD140
:101D4000002000F0B7FA00F0BBF908BD003C0240EB
:101D50001C004000007000407047FEE7FEE7FEE711
:101D6000FEE770477047704700B585B000230093C9
:101D7000019302930393684600F04CFB009B084AD2
:101D8000A2FB03239B0C074A136013684FF47A727B
:101D900002FB03F3044A136005B05DF804FB00BFC7
:101DA00083DE1B43440A0020400A002043684BB1F5
:101DB0004368013B43602BB9012343700378DBB2D6
:101DC000012B00D0704783684360FBE700230FE0DE
:101DD000154803EB43018A000244002151609160E1
:101DE000517003EB430C4FEA8C0281540133DBB298
:101DF000032BEDD90D4B1B680D4AA2FB03239B0956
:101E0000013BB3F1807F0AD24FF0E0225361094BCE
:101E1000F02183F823100023936107231361064BFD
:101E200001221A70704700BF500A00201C000020D9
:101E3000D34D621000ED00E04C0A002010B51A4BA3
:101E40001B683BB1184A1368013B136013B9174B69
:101E500001221A70002408E004EB440293001448A5
:101E60001844FFF7A3FF0134E4B2032CF4D9114B5B
:101E70001A6801321A601A686FF000439A4209D05A
:101E8000FFF720FE0C4A13780133DBB21370092BE5
:101E900004D810BD074B00221A60F1E71346002258
:101EA0001A70FFF70BFEF4E7840A0020800A002076
:101EB000500A0020480A00204D0A002010B50328CF
:101EC00014D84FF0010C8CF310880C4C00EB40033D
:101ED00004EB83035960996000225A7000EB4000C4
:101EE000800004F800C082F3108810BD044B054A3E
:101EF0000549064802F02AF8FEE700BF500A002014
:101F000048AC0008C8AB000808AC000814AC0008D6
:101F100008B5FFF793FF08BD08B50121054800F09B
:101F2000D3FB012800D008BD0121024800F0D8FBF6
:101F3000F9E700BF0000014070B50C4616460025C9
:101F400011E080210A4800F0B9FC0028F9D014F80B
:101F5000011B074800F0ABFC4021054800F0AEFC37
:101F60000028F9D00135B542EBDB304670BD00BF2B
:101F700000100140F0B583B007462C4B18680023D1
:101F800002221946806802F0B3FA0121284800F0C5
:101F90003AF901214FF4401000F035F901214FF4D6
:101FA000401000F030F9684600F003FB01268DF880
:101FB000076000248DF8044002238DF806304FF4AA
:101FC000C06300938DF805401A4D6946284600F01D
:101FD000A9FA07220921284600F002FB07220A215C
:101FE000284600F0FDFAA5F57045234622463946FD
:101FF000284600F079FB3146284600F032FC314695
:10200000284600F033FC32460B49284600F033FCEA
:102010003146284600F020FC032000F043FB224616
:102020002146252000F0FAFA03B0F0BD4C00002054
:10203000040044000000024005000C0008B5012027
:1020400000F038F91B4A136843F001031360194B81
:102050001B6813F0020FFAD0164B9A686FF3010257
:102060009A60144B9B6813F00C0FFAD1114B1A684D
:1020700022F0867222F480321A604FF080429A6019
:102080000D4A5A60D3F8A02002F4A042C3F8A02061
:10209000D3F8A02042F47022C3F8A0204FF41F020E
:1020A000DA60002000F006F9044B4FF000629A60FD
:1020B00008BD00BF003802400230030000ED00E020
:1020C00010B500F09FF901282DD0022836D018B1A4
:1020D000344B354A1A601BE0344BD3F8A03013F46C
:1020E000804F09D0314BD3F8A03013F4805F03D078
:1020F0002C4B2F4A1A6002E02A4B2B4A1A602B4BBA
:10210000D3F8A420C2F3024226490B68D3400B60E7
:10211000264B9B68C3F30313264AD15C214A1368FC
:10212000CB40136010BD1F491F4B0B601F4AD2F8F4
:10213000A420C2F3C242D3400B60E9E71B4B5A68AC
:102140005968C1F3881C5A6802F00F025B68C3F338
:102150000243194911F803E04FEA4C11B1EB0C00AE
:1021600064EB0404A30143EA90638101091A63EB61
:102170000403DB0043EA5173C90011EB0C0C43F17B
:10218000000359020EFB02F200234FEA4C2041EA01
:10219000DC51FEF709FF400840EAC170014B1860AE
:1021A000B6E700BF1C00002000127A000038024091
:1021B000006CDC0264AC00085CAC0008030C03F1AA
:1021C000804303F50E331A6800F01F00012303FA61
:1021D00000F030EA020301D0002070470120704770
:1021E00010B500241120FFF7E9FF012804D0B4F551
:1021F000405F01D20134F5E71120FFF7DFFF01282E
:1022000000D0002010BD01290ED0030C03F1804343
:1022100003F50E331A6800F01F00012101FA00F0E7
:1022200022EA000018607047030C03F1804303F5B5
:102230000E331A6800F01F0001FA00F01043186016
:1022400070470000042821D8DFE800F003090F15CB
:102250001B000F4B1A6861F300021A6070470C4BA9
:102260001A6861F310421A607047094B1A6861F3EB
:1022700018621A607047064B1A6F61F300021A6702
:102280007047034B5A6F61F300025A67704700BFF3
:1022900000380240024B9A6860F38C229A607047C3
:1022A00000380240024B9A6860F34F329A607047E0
:1022B00000380240012807D0074BD3F8A4206FF361
:1022C0000512C3F8A4207047034AD2F8A43043F0A3
:1022D0003003C2F8A43070470038024008B501202E
:1022E000FFF7E8FF194A136843F001031360174B27
:1022F0001B6813F0020FFAD0144B9A686FF30102B7
:102300009A60124B9B6813F00C0FFAD10F4B1A68AE
:1023100022F0867222F480321A604FF080429A6076
:102320000B4A5A60D3F8A02002F4A042C3F8A020C0
:10233000D3F8A02042F47022C3F8A0204FF41F026B
:10234000DA600020FFF7B6FF08BD00BF003802408A
:102350000230030010B504460120FFF7ABFF044B29
:102360009A6864F307129A600020FFF7A3FF10BD7C
:1023700000380240012809D002280CD008B1002002
:102380007047074B986E00F003007047044B986E3F
:10239000C0F381007047024B986EC0F30110704784
:1023A0000038024010B4844630B90D4CD4F8A00077
:1023B00040F48050C4F8A000094844686CF3965477
:1023C0004460446861F38E144460416862F3030121
:1023D0004160426863F31242426010BC704700BF24
:1023E0000038024010B504460120FFF763FF044B9C
:1023F0009A6864F301029A600020FFF75BFF10BD4A
:1024000000380240024B9868C0F38100704700BF5B
:102410000038024038B50446FFF7F4FF012837D0F2
:1024200002283FD010B1384B236018E0374BD3F867
:10243000A03013F4804F08D0344BD3F8A03013F4FD
:10244000805F02D0324B236001E02F4B23602F4B83
:10245000D3F8A420C2F302422368D34023602B4A5E
:102460009368C3F303132B49C95C2368CB406360B3
:102470009168C1F382212848415C23FA01F1E160AF
:102480009268C2F3423225498A5CD340A36038BDCA
:102490001D4B23601D4AD2F8A420C2F3C242D34090
:1024A0002360DCE7194B5A685968C1F3881C5A68E5
:1024B00002F00F025B68C3F30243194911F803E00D
:1024C0004FEA4C11B1EB0C0065EB0505AB0143EA9B
:1024D00090638101091A63EB0503DB0043EA517342
:1024E000C90011EB0C0C43F1000359020EFB02F280
:1024F00000234FEA4C2041EADC51FEF755FD40082D
:1025000040EAC1702060AAE700127A000038024059
:10251000006CDC028CAC000874AC00087CAC0008D9
:1025200084AC000830B50C88002302E06408013355
:102530009BB2002C3CD014F0010FF7D005684FEA95
:10254000430C032202FA0CF225EA02050560056835
:1025500091F806E00EFA0CFE45EA0E0505604568A6
:102560004FF0010E0EFA03FE25EA0E0545604568A0
:1025700091F804E00EFA03FE45EA0E054560856811
:1025800025EA02058560856891F807E00EFA0CFEE1
:1025900045EA0E058560C56825EA0202C260C26888
:1025A00091F805E00EFA0CFC42EA0C02C260BDE7AD
:1025B00030BD4FF6FF7303600023837103714371D5
:1025C0000123C3717047036931EA030301D000207E
:1025D0007047012070470AB181617047816270477E
:1025E00001F007039B009A40C9080BD0416A4FF0E5
:1025F0000F0C0CFA03F321EA03034362436A1A4304
:1026000042627047016A4FF00F0C0CFA03F321EAA3
:1026100003030362036A1A430262704700B51E4B4C
:10262000DB68C3F30223C3F1070CBCF1040F28BF1E
:102630004FF0040C03F1040EBEF1060F22D9033B48
:102640004FF0FF3E0EFA0CFC21EA0C0199400EFA05
:1026500003F322EA03031943002815DB0901C9B279
:1026600000F1604303F5614383F80013002807DBA2
:1026700000F01F02400901239340084A42F820302D
:102680005DF804FB0023DBE700F00F020901C9B28B
:10269000034B9954EAE700BF00ED00E000E100E0E1
:1026A00014ED00E0074AD36823F4E0631B041B0C1D
:1026B000000200F4E060034343F0BF6343F40033DF
:1026C000D360704700ED00E003690B4204D0C3689B
:1026D0000B4203D100207047002070470120704753
:1026E000C9430161704700002DE9F04184B00546FF
:1026F000884616461F466846FFF78CFE4E4B9D42A5
:102700002ED04E4B9D423FD04D4B9D4250D04D4B15
:102710009D4261D0039C04EB84046400B4FBF8F197
:10272000494BA3FB0123DB0803EB8303A1EB43032A
:10273000042B62D8444BA3FB0131C90889B2AB68B2
:1027400061F30F03AB60022E5DD0002E6AD1EB68FF
:102750006FF31C73EB60EB686FF30C33EB605AE0C4
:102760000020FFF707FE08B9029CD4E7012809D032
:10277000032833D0354BD3F8A03013F4805F30D129
:10278000334CC8E7009CC6E70120FFF7F3FD08B90A
:10279000039CC0E7012809D0032824D02B4BD3F891
:1027A000A03013F4805F21D1294CB4E7009CB2E73C
:1027B0000220FFF7DFFD08B9039CACE7012809D030
:1027C000032815D0214BD3F8A03013F4805F12D129
:1027D0001F4CA0E7009C9EE7029C9CE74FF400443E
:1027E00099E71C4C97E74FF4004494E7194C92E7A3
:1027F0004FF400448FE7174C8DE7134BA3FB0131D7
:10280000C90801319AE7EB6843F08053EB60EB684D
:102810006FF30C33EB602B6967F30D332B6104B05E
:10282000BDE8F081EB686FF31C73EB60EB6843F479
:102830008053EB60EFE700BF001001400044004010
:102840000048004000140140CDCCCCCC0038024000
:1028500000127A00006CDC02C36861F34D33C36080
:102860007047C36861F3C303C3607047C36861F313
:102870008203C3607047012A0DD04FEA114C50F813
:102880000C3001F01F01012202FA01F123EA0101DB
:1028900040F80C1070474FEA114C50F80C3001F022
:1028A0001F0102FA01F1194340F80C107047C1F3FF
:1028B000080141607047406880B2704703680B426E
:1028C00001D00120704700207047B1F5006F0BD098
:1028D000B1F5003F0CD0B1F5801F0DD011F01F0FE6
:1028E0000ED00368436870474FF40063036270477B
:1028F0004FF40033036270474FF480130362704754
:10290000C9430160704700000022944691421CD9DF
:1029100030B402E00132914213D90D4B1C685B6860
:102920009C42F7D00A4B1C68651C1D601C44247A2D
:1029300000F80C401C6804F07F041C600CF1010CD2
:10294000E8E70FFA8CF030BC704710B2704700BF58
:10295000F40C002070B506460D46002403E0305DFF
:1029600000F01AF80134A542F9D828B270BD000071
:1029700008B50548054B8366054B43664FF4007266
:10298000044900F0CDFF08BD880A00205529000841
:1029900009290008F40A002010B504464021054822
:1029A000FFF78CFF0028F9D021460248FFF77FFF90
:1029B00010BD00BF0010014008B5FFF7D9FF08BDEA
:1029C0000A4B1A685B689A4200D1704710B5074CF1
:1029D00023685A1C22602344197A054801F07AF8CA
:1029E000236803F07F03236010BD00BFF40C0020B8
:1029F000880A002008B520210F48FFF75FFF012853
:102A000000D008BD0C48FFF756FF0C4A536801334D
:102A100003F07F031268934209D0084B5A68511C97
:102A200059601A4410725A6802F07F025A602021DD
:102A30000148FFF74AFFE4E700100140F40C0020D2
:102A40000023042B0BDC1946054A52F8232012B14F
:102A500001331BB2F5E7024B43F821007047704782
:102A6000880D002000B583B08DF80710836E01211A
:102A70000DF10700984703B05DF804FB70B50546FB
:102A8000866EDEB108460A46002413783BB10D2B52
:102A900005D00A2B03D001320134A4B2F5E7242C6F
:102AA00009D92421B047AB6E032106489847242C4E
:102AB00006D9242070BD2146B047F8E70020F9E789
:102AC0002720F7E79CAC00080246002002E01354E0
:102AD000013080B20B5C002BF9D11354704784464F
:102AE000002318461CF8032072B110B4CC5C4CB122
:102AF000A24207D1013080B201339BB21CF80320FF
:102B0000002AF3D110BC70477047437803F00F03DD
:102B1000012B05D9072B05D9082B05D8C0687047AC
:102B2000C0687047C0687047C068704708B5C389FF
:102B30008289934200D308BD0269591CC181D15CCE
:102B4000FFF790FFF7E7C38903B9704710B5044654
:102B50000821FFF787FFE389013BE38110BD10B532
:102B600004460023A0F85430B0F850305BB1B0F800
:102B7000523053B3013B0E3304EB83032169586891
:102B8000FEF7A2FB00B3B4F852300E3304EB83031C
:102B900021695868FFF798FF20B1B4F8523001332B
:102BA000A4F85230B4F8503001339BB2A4F850303E
:102BB000052B02D90523A4F85030B4F85230042B69
:102BC00002D90023A4F8523010BD0423D3E770B516
:102BD000054600240AE000211170221D05EB820247
:102BE0005168013151600CE00134A4B2EB8EA34274
:102BF00016D92346221D05EB82025268117822293C
:102C0000E9D0043305EB83035E683046FEF7D8FC59
:102C100083B2013BF25C222AE6D10022F254E3E7C0
:102C200070BD0000002301E001331BB2042B0ADC5D
:102C3000064A52F823000028F6D090F8602012F0DF
:102C4000020FF1D000E00020704700BF880D002087
:102C500010B5846E6CB18C460B46002101E0013149
:102C600089B213F8012B002AF9D16046A04780B23F
:102C700010BD0020FCE7000010B5044690F860305D
:102C800013F0010F19D091B9236859682046FFF756
:102C9000DFFF0C492046FFF7DBFFA16859B1204652
:102CA000FFF7D6FF08492046FFF7D2FF10BD0749BE
:102CB000FFF7CEFFE8E70649F1E70649FFF7C8FF4F
:102CC000F4E700BFA4AC0008A8AC0008C0AE000840
:102CD000A0AC0008ACAC000810B5044603689968C5
:102CE0000069FEF7F1FA68B994F8603043F0010327
:102CF00084F8603006492046FFF7AAFF0023A3812D
:102D0000E38110BD03492046FFF7A2FFF6E700BFAD
:102D1000C4AC000824AE000808B5FFF783FF10B16B
:102D20000149FFF795FF08BD38AE00080B784BB19D
:102D30004A7802F00F02082A04D0026882B11278A1
:102D4000134210D090F8603013F0010F0ED14B7881
:102D500013F0100F01D0002070474FF0FF30704784
:102D60004FF0FF3070474FF0FF3070470020704742
:102D700000230B72082304E03032013BDBB2CA545B
:102D8000000928B100F00F02092AF5D95732F4E7FB
:102D9000C3F1080040B27047002304E00E4A30211E
:102DA000D1540133DBB2082BF8D9437803F00F0379
:102DB000012B05D9072B05D9082B05D8406870478A
:102DC000406870474068704710B5034C2146406822
:102DD000FFF7CEFF204610BD7C0D002010B4041E6E
:102DE00004DB22460023CB720B2011E06242F9E79C
:102DF000114B83FB023CD317C3EBAC039C4603EBA4
:102E00008303A2EB43030138C0B230330B54624654
:102E1000002AEDD1002C09DB1CB90138C0B23023E7
:102E20000B54C0F10B0040B210BC70470138C0B267
:102E30002D230B54F0E700BF6766666670B584B05B
:102E400004460E46194B01AD93E8070085E80700DC
:102E500017492046FFF7FCFE29463046FFF7BEFF24
:102E6000C0F10B0129442046FFF7F2FE114920462C
:102E7000FFF7EEFE002308E003F110026A444FF072
:102E8000300C02F80CCC01331BB20A2BF4DD01A983
:102E90003046FFF76DFF01A92046FFF7D9FE06492E
:102EA0002046FFF7D5FE04B070BD00BF58AE000845
:102EB00044AE000850AE0008C0AE000870B505462C
:102EC0000E460846FFF768FF01462846FFF7C0FE9A
:102ED000C0F1160424B2002C17DD20212846FFF78C
:102EE000C1FD013C24B2002CF7D1737803F00F032D
:102EF000012B0CD9072B14D9082B17D9092B1AD859
:102F00001F492846FFF7A4FE05E00424E5E71D4914
:102F10002846FFF79DFE1C492846FFF799FE072427
:102F200014E01A492846FFF793FEF4E718492846AB
:102F3000FFF78EFEEFE717492846FFF789FEEAE71D
:102F40002D212846FFF78EFD013C64B2002C06DBE4
:102F50003378234113F0010FF2D07821F1E70A49C9
:102F60002846FFF775FE3046FFF7CFFD014628469D
:102F7000FFF784FD08492846FFF76AFE70BD00BFD1
:102F80007CAE000864AE00088CAE00086CAE000891
:102F900074AE000884AE0008C0AE0008F8B506465E
:102FA000876D0F49FFF754FE002401E0013424B27D
:102FB000B6F85C309C4211DA07EB04156B7803F02D
:102FC0000F03012BF2D829463046FFF7AFFE002849
:102FD000ECD129463046FFF771FFE7E7F8BD00BFA7
:102FE00090AE000808B5FFF71DFE08B1FFF7D6FF49
:102FF00008BD0000F8B50646876D1049FFF728FEAA
:10300000002401E0013424B2B6F85C309C4214DAAA
:1030100007EB04156B7803F00F030E3303F00F0377
:10302000052BEFD829463046FFF780FE0028E9D16E
:1030300029463046FFF742FFE4E7F8BDA4AE00089A
:1030400008B5FFF7EFFD08B1FFF7D4FF08BD00009A
:10305000F8B50646876D0F49FFF7FAFD002401E039
:10306000013424B2B6F85C309C4211DA07EB041547
:103070006B7803F00F03082BF2D129463046FFF797
:1030800055FE0028ECD129463046FFF717FFE7E749
:10309000F8BD00BFB4AE000808B5FFF7C3FD08B126
:1030A000FFF7D6FF08BD0000F8B50646876D0F494B
:1030B000FFF7CEFD002401E0013424B2B6F85C3005
:1030C0009C4211DA07EB04156B7803F00F03092B10
:1030D000F2D129463046FFF729FE0028ECD12946D7
:1030E0003046FFF7EBFEE7E7F8BD00BFC4AE0008CF
:1030F00008B5FFF797FD08B1FFF7D6FF08BD08B583
:10310000FFF74CFF08BD000038B5054604E005494F
:103110002846FFF79DFD21464B1EDCB20029F6D163
:1031200038BD00BFD4AE000838B505468489C389D0
:10313000E41A24B205E020212846FFF793FC013C65
:1031400024B2002CF7DC297B2846FFF7DDFF38BDD1
:1031500010B50446002919DDB0F95420531EA0F81B
:103160005430B0F85230B0F850108B4238BF0B4694
:1031700059428A4201DCA4F854102046FFF7D4FFDC
:10318000B4F9543083B9A381E38110BD0029FCDA7E
:10319000B0F9543001331BB2A0F85430002BECDDF1
:1031A0000023A0F85430F0E7B4F8522005321A4456
:1031B0000C4981FB0231D317C3EB610303EB83039B
:1031C000D31A0E3304EB830359682069FFF77CFCA4
:1031D000A0810028D9D0E08121692046FFF738FD81
:1031E000D3E700BF6766666608B50121FFF7B0FF49
:1031F00008BD08B54FF0FF31FFF7AAFF08BD00007A
:103200002DE9F84F0546B0F834A0838943B102692F
:103210004FF0000802F80380876D4446C14624E061
:10322000FFF76DFF01212846FFF726FD5EE007EB63
:10323000081841462846FFF741FE4046FFF7ACFD1F
:1032400080463046FFF7A8FD01464046FFF747FCA1
:10325000824528BF82461FFA8AFA1FFA84F809F1CC
:1032600001091FFA89F9013424B2B5F85C309C4297
:103270001EDA07EB041631462846FFF757FD0028F3
:10328000F1D1D5F810B03046FFF786FD014658461B
:10329000FFF725FCAB899842E5D1B9F1000FDCD0EE
:1032A000B9F1010FC3D11A492846FFF7D1FCBEE797
:1032B000B9F1000F1AD0B9F1010F19D02C6907EB41
:1032C00008173846FFF768FD01462046FFF7FCFB6C
:1032D000A881B9F1010F0FD82A69AB890021D15417
:1032E000AB89EB8129692846FFF7B2FCBDE8F88F6E
:1032F0002846FFF719FFE1E739462846FFF7DEFDCC
:1033000001212846FFF7B8FCA5F80CA0E4E700BFB0
:10331000C0AE000870B504468389828E013A93429C
:1033200007DAC289934210D0934222D99B1A1BB26A
:1033300029E02D49FFF78CFC01212046FFF79CFC7A
:1033400021692046FFF784FC13E00269581CA08124
:10335000D1542269A3890020D054E3890133E38149
:1033600094F8603013F0010F00D12A212046FFF7B6
:1033700079FB70BD2069E2891A44851815F8015C53
:103380008554013B1BB2002BF4DC2269E389581CF5
:10339000E081D1542269A38901339BB2A38100212A
:1033A000D154E689013E36B205E02A212046FFF7D6
:1033B00059FB013636B2A589AE4207DA94F860307F
:1033C00013F0010FF1D02369995DEFE7E389ED1A5E
:1033D0002DB205E008212046FFF744FB013D2DB248
:1033E000002DF7DCC5E700BFD8AE000838B50446AD
:1033F000B1F1FF3F14BF00230123C2890AB901299B
:1034000055D0A089824203D0824205D01BB219E078
:10341000B1F1FF3FF8D14AE00129F7D1013AE28149
:10342000431E9BB2A38122690021D1540121204671
:10343000FFF76AFE3BE020691A44551E825C425544
:1034400001331BB2A089E289851AAB42F3DB013854
:10345000A081B1F1FF3F06D12269A3890021D15497
:10346000B4F90E500DE0013AE28108212046FFF741
:10347000F9FAF1E72369595D2046FFF7F3FA0135C0
:103480002DB2A3899D42F5DB20212046FFF7EAFA01
:10349000A589E389ED1AADB201352DB205E0082109
:1034A0002046FFF7DFFA013D2DB2002DF7DC38BDD5
:1034B00008B50121FFF79AFF08BD08B54FF0FF31AD
:1034C000FFF794FF08BD00002DE9F04385B0864664
:1034D000BDF9306000240094019402940394A44642
:1034E00006E0002042F82C000CF1010C0FFA8CFCD5
:1034F000B445F6DB4FF0000CE0466546012010E0D5
:1035000046451BDD42F8289008F1010828460024B2
:103510001CB31EF80C405C2C47D00CF1010C1FFAB8
:103520008CFC8C454BD2002DF1D167460EEB0C097B
:103530001EF80C409C4201D00128E1D09C4201D0F1
:10354000202CE4D10028E2D1002489F800407744FF
:103550007C78202CE1D00120DFE73DB11EF80C90F3
:10356000194F07EB44077F78B94509D01EF80C9036
:10357000154F17F81470B9450FD00134E4B2C7E7FE
:1035800005F10F076F4417F8109C0F4F17F81470D0
:10359000B945EBD1013DEDB2BBE76C1C10356D4474
:1035A00005F8107C04F00F05B3E70EEB0C0464780B
:1035B000002CB2D00CF1010C1FFA8CFCADE7404698
:1035C00005B0BDE8F08300BF2000002010B582B038
:1035D000044608230093202300F114028189006926
:1035E000FFF772FFE08602B010BD2DE9F04780467C
:1035F0008A4617469946B0F85C60836DD31AC3F3C8
:103600000F13F31A9EB2002406E04A46504601F01A
:1036100047F800B30134A4B2B4421BD207EB04153F
:1036200095F801C00CF00F0CBCF1090FF2D029463F
:103630004046FFF77BFB0028ECD12846FFF7ACFBA8
:103640000146B9F1000FE0D15046FDF73DFE0028DC
:10365000E0D100E000252846BDE8F08770B50446BB
:103660000023826DFFF7C1FFE0B1054610492046F7
:10367000FFF7EEFA2846FFF78FFB01462046FFF7DB
:10368000E7FA0C4E31462046FFF7E2FA2846FFF7EC
:103690003CFA01462046FFF7DBFA31462046FFF7A9
:1036A000D7FA70BD04492046FFF7D2FAF9E700BF08
:1036B000FCAE0008C0AE000810AF000838B50446E4
:1036C0000D46FFF7AFFA18B1012C02D0012C03DC34
:1036D00038BDFFF714FDFBE76968FFF7BFFFF7E7A9
:1036E00008B54B7803F00F03023B052B16D8DFE833
:1036F00003F003060A0D0D0F8B68186808BD8B6870
:10370000B3F90000FAE78B681878F7E78868F5E7FF
:103710008A68536823B110689847EFE70020EDE707
:103720000020EBE770B584B004460D46284B93E8C3
:10373000070004AB03E9070029462046FFF7D0FF46
:10374000064669682046FFF783FA22492046FFF7BC
:103750007FFA6B7803F00F03052B10D001A93046D8
:10376000FFF73CFBC0F10B0101AB19442046FFF70A
:103770006FFA19492046FFF76BFA002316E0174D40
:1037800029462046FFF764FA31462046FFF760FAE3
:1037900029462046FFF75CFA12E003F110026A4462
:1037A0004FF0300C02F80CCC01331BB20A2BF4DDC5
:1037B00001A93046FFF7DCFA01A92046FFF748FAD5
:1037C00007492046FFF744FA304604B070BD00BFF9
:1037D00058AE000824AF000850AE000828AF00081B
:1037E000C0AE000870B505460C464B7813F0400F8C
:1037F0000AD14B7803F00F03023B052B07D8DFE813
:1038000003F00B0E1114191D1249FFF721FA21467E
:103810002846FFF787FF70BDA3681A60F7E7A36823
:103820001A80F4E7A3681A70F1E71146A068FFF761
:103830004BF9ECE70849FFF70BFAE8E7A3689E6845
:10384000002EE4D0186810B11146B047DFE71046EB
:10385000B047DCE72CAF000848AF000870B504465D
:103860000D46FFF7DFF920B306460023826D21469F
:10387000FFF7BBFE014660B1437803F00F030E3340
:1038800003F00F03052B0AD82A463046FFF7AAFF9C
:1038900070BD09493046FFF7DBF90020F8E7214603
:1038A0003046FFF7D5F905493046FFF7D1F900203A
:1038B000EEE70020ECE700BF5CAF00086CAF00084B
:1038C00010B504460160886850B1037853B1E38EA7
:1038D000012B18D9A169FDF7F7FCB0B1002202E075
:1038E000012200E0012294F8603062F3000384F8C2
:1038F000603009492046FFF7ABF994F8603013F0C7
:10390000010F04D110BD0022EDE70122EBE70349CE
:103910002046FFF79DF9F5E738AE0008C4AC000873
:1039200010B5044600238381C381036090F86000D2
:1039300040F0010084F8600021611948A0FB022CCE
:103940004FEA9C0CA4F834C0A4F85430A4F85030CA
:10395000A4F8523009E003FB0CC0084403F10E0246
:1039600004EB8202506001331BB2042BF3DD0D4ADD
:10397000A2650D4B9B1A1B09A4F85C302046FFF78B
:103980005FF80023A26D09492046FFF72EFE01468D
:103990002046FFF795FF01212046FFF76DF910BD86
:1039A000ABAAAAAAA8B4000818B600087CAF000801
:1039B00070B504460D4690F8603043F0020380F87D
:1039C00060304B7813F00F0314D0012B23D04A78CA
:1039D00002F00F020E3202F00F02052A2AD9082B3C
:1039E0002CD0002694F860306FF3410384F86030E7
:1039F000304670BDFFF7EBF8AB6804F11401E08EC0
:103A0000984706466B7813F0200FEBD1014620460D
:103A1000FFF714FAE6E700F11403C28E00F01CFA77
:103A200006466B7813F0200FDCD101462046FFF7E5
:103A300005FAD7E7FFF776FE0026D3E7FFF740FF4A
:103A40000026CFE708B590F860206FF3820280F877
:103A50006020FFF75FFC08BD83895BB310B50446A7
:103A600002690021D15490F8603013F0010F1ED08C
:103A7000FFF775F82046FFF7A9FD0023E381A38136
:103A8000E38EB3B10C492046FFF7E2F80023A26DA4
:103A900061692046FFF7A9FD014618B12046FFF7EE
:103AA00087FF06E005492046FFF7D2F801E0FFF75F
:103AB00013F910BD704700BFC0AE000810AF00087A
:103AC00010B50446FFF7C8FF01212046FFF7D4F8E0
:103AD00010BD0000002965D02DE9F04706468A4652
:103AE000836B13F47F4F08D113F47F090AD113F0CD
:103AF0007F4F0ED14FF0180808E06FF0FF094FF02C
:103B0000000803E0DFF8A0904FF00808B76D00242C
:103B10000DE04FF07F494FF01008F7E7AB680BB1AD
:103B2000304698470023B36333E0013424B2B6F83B
:103B30005C309C422ADA07EB04156B7803F00F0324
:103B4000092BF2D129463046FFF7F0F80028ECD1D6
:103B50006B6803EA0901B26B9142E6D1FF2101FAD9
:103B600008F10B400AFA08F18B42DED10A43B26336
:103B7000B8F1000FD2D06B68A8F10800FF2202FA5A
:103B800000F00342CAD04FF0000ACEE7BAF1000FAE
:103B900001D1BDE8F0870023B36351463046FFF7FB
:103BA00051FFF6E7704700BF0000FFFF02460378B1
:103BB000302B05D0302B0AD0302B13D0002014E04E
:103BC000417878290AD05829F4D103200DE05178A2
:103BD000622905D04229EFD1012006E0032004E04C
:103BE000012002E0022000E01A46134613F8011BF0
:103BF00039B152782E2AF7D15A78002AF4D004200D
:103C00007047704703463038C0B2092810D9A3F175
:103C10006102D2B2052A07D9A3F14102D2B2052A24
:103C200005D8373BD8B27047573BD8B27047002011
:103C30007047000003460278272A03D018785C28D2
:103C400002D070470133F9E75878302838D0F8D3DC
:103C50007428F6D86228F4D3A0F16203122BF0D8AE
:103C600001A252F823F000BFB53C0008433C000815
:103C7000433C0008433C0008433C0008433C000828
:103C8000433C0008433C0008433C0008433C000818
:103C9000433C0008433C0008B93C0008433C000892
:103CA000433C0008433C0008C53C0008433C000876
:103CB000BD3C0008082070470A2070470920704763
:103CC000002070470D20BCE770B506460378222B14
:103CD00002D03546002409E00136FAE72846FFF70E
:103CE000A9FF3055013501350134A4B22B7843B119
:103CF0005C2BF3D0222B01D03355F4E7002333554E
:103D0000F1E73355304670BD2DE9F8430546037899
:103D10002D2B17D04FF0010900202844FFF746FF54
:103D20008046022815D0032816D001280ED0002383
:103D30000A27B9F1FF3F12D0002213441D4400248A
:103D4000264610E04FF0FF390120E6E702231F4628
:103D5000EFE701230827ECE702231027E9E7012218
:103D6000EBE701350124287858B12E28F9D007FB5C
:103D700006F6FFF747FF064404EB840464000135B0
:103D8000F1E7B8F1040F13D194B13046FCF764FFAA
:103D900005462046FCF760FF01462846FDF768F817
:103DA00004464846FCF75CFF2146FCF7ADFF01E006
:103DB00006FB09F0BDE8F88338B504461546002334
:103DC000826D0131FFF711FC30B101462046FFF74B
:103DD00087FC2860002038BD4FF0FF30FBE710B5AE
:103DE000864608461C4622B10B78242B2BD14B78F3
:103DF00063B30178272910D02D2916D0A1F1300CFA
:103E00005FFA8CFCBCF1090F0FD9242912D001B341
:103E1000FFF75AFF2060002010BD4378002BEBD045
:103E2000FFF708FF20600020F6E7FFF76DFF206036
:103E30000020F1E74378002BE9D022460146704686
:103E4000FFF7BAFFE8E74FF0FF30E5E74FF0FF304C
:103E5000E2E74FF0FF30DFE72DE9F0438DB0064693
:103E6000894615461F462022002104A800F0DAFAF0
:103E700099F8028008F00F08A84501DA05F1FF382B
:103E8000002400E001346B1EA34211DD04F1010C9B
:103E900004AB03EB8403002257F82C103046FFF7E5
:103EA0009EFF0028EED04FF0FF300DB0BDE8F0834C
:103EB000B8F1070F47D8DFE808F004080D131A22FD
:103EC0002C38D9F808309847EFE7D9F8083004982B
:103ED0009847EAE7D9F80830059904989847E4E745
:103EE000D9F80830069A059904989847DDE7D9F87B
:103EF0000840079B069A05990498A047D5E7D9F88A
:103F00000840089B0093079B069A05990498A047D0
:103F1000CBE7D9F80840099B0193089B0093079BC6
:103F2000069A05990498A047BFE7D9F808400A9B6C
:103F30000293099B0193089B0093079B069A05999E
:103F40000498A047B1E74FF0FF30AEE70FB400B5DB
:103F500083B004A951F8040B0191044B1B689847E6
:103F600003B05DF804EB04B0704700BF24000020EC
:103F700010B50446836800799847E37813F0070F7B
:103F800002D0238801332380E378B0EBD31F13D012
:103F90001A46C3F3C203013303F0070363F3C502F8
:103FA000E270022B0CD9D3B260F3C713E370DBB21B
:103FB0006FF3C503E37003E0E3786FF3C503E370C9
:103FC000E37803F00703052B00F2E480DFE813F049
:103FD0000600260050009C00E200C400E378C3F312
:103FE0008012B2EBD31F05D0A378082262F3071327
:103FF000A370D3E0A3786FF30713A370E3680BB14A
:104000002046984700232380A378012262F303030C
:10401000A370E37862F30203E370BFE0E378C3F3D5
:104020008012B2EBD31F10D0A378012262F30713E2
:10403000A37023690BB12046984700232380E378BF
:10404000022262F30203E370A8E02388C82B40F247
:10405000A580A378052262F30713A370236A0BB12E
:1040600020469847E378052262F30203E37095E067
:10407000E378C3F38012B2EBD31F0FD023883C2B1D
:1040800040F28C80A37803F00F03012B26D0022B83
:104090002FD0E3786FF30203E3707FE0A3786FF330
:1040A0000713A370E3680BB120469847A37803F089
:1040B0000F030F2B06D0A37803F00F02013262F337
:1040C0000303A37063690BB1204698470023238044
:1040D000E378032262F30203E3705FE0A378032234
:1040E00062F30713A370A369002BD2D02046984730
:1040F000CFE7A378042262F30713A370E369002BD0
:10410000C7D020469847C4E7E378C3F38012B2EBE8
:10411000D31F18D0A378012262F30713A370236979
:104120000BB12046984723883B2B07D800232380D8
:10413000E378022262F30203E3702FE0E3786FF387
:104140000203E3702AE023883C2B27D9E37801227D
:1041500062F30203E37021E0E378C3F38012B2EB71
:10416000D31F0DD0A378012262F30713A370236934
:104170000BB120469847E3786FF30203E3700DE03C
:10418000A378062262F30713A370636A33B1204653
:10419000984703E0E3786FF30203E37010BDF8B5CE
:1041A00004460E4617461D462C22002100F03AF91F
:1041B000A378082262F30713A370A6602846B047CD
:1041C000E37860F3C713E370DBB267F38613E37041
:1041D0002571F8BD023100EB81004260704700009C
:1041E000074B1A68134600E09B6A23B18342FBD158
:1041F0004FF0FF3070478262014B1860002070471B
:104200009C0D002010B5054B1C6803E02046FFF70D
:10421000AFFEA46A002CF9D110BD00BF9C0D002098
:1042200000B583B001214FF44010FDF7ECFF684664
:10423000FEF7BFF901238DF8073000228DF8042026
:104240008DF80620009302238DF805306946034857
:10425000FEF768F903B05DF804FB00BF0000024000
:1042600008B5884708BD000010B582B0044601219A
:104270000E4B53F82000FDF7C6FF6846FEF799F98C
:1042800001228DF8072000238DF804308DF80620D8
:10429000074A32F8142000928DF805306946054B24
:1042A00053F82400FEF73EF902B010BD2C000020A8
:1042B0003800002040000020022807D8044B33F8C3
:1042C00010301BB1034A52F820209361704700BFA1
:1042D000380000204000002008B50020FFF7C4FF90
:1042E0000120FFF7C1FF0220FFF7BEFF0020FFF70C
:1042F000E3FF0120FFF7E0FF0220FFF7DDFF08BD2D
:1043000008B501280DD0022812D018B10C4B9B68BB
:10431000984705E001224FF400510A48FEF75BF987
:1043200008BD01224FF480410648FEF754F9F7E733
:1043300001224FF400410348FEF74DF9F0E700BFBA
:1043400010000020000C024008B501280DD0022802
:1043500012D018B10C4B9B68984705E000224FF42F
:1043600000510A48FEF737F908BD00224FF480419A
:104370000648FEF730F9F7E700224FF40041034802
:10438000FEF729F9F0E700BF10000020000C024002
:10439000002103E00B4B5B58435004310A480B4BA0
:1043A00042189A42F6D30A4A02E0002342F8043B3C
:1043B000084B9A42F9D3FDF741FE00F00FF8FDF7E4
:1043C00063FC70472CB6000800000020F8090020AC
:1043D000F8090020EC0D0020FEE7000070B50D4E3E
:1043E0000D4D761BB61006D0002455F8043B013461
:1043F0009847A642F9D1094E094D761B06F002F9FD
:10440000B61006D0002455F8043B01349847A64264
:10441000F9D170BD20B6000820B6000828B6000803
:1044200020B60008830730B548D0541E002A3FD07C
:10443000CAB2034601E0013C3AD303F8012B9D07C1
:10444000F9D1032C2DD9CDB245EA05250F2C45EA2B
:10445000054536D9A4F1100222F00F0C03F1200E0D
:10446000E6444FEA121C03F1100242E9045542E906
:10447000025510327245F8D10CF1010214F00C0F04
:1044800003EB021204F00F0C13D0ACF1040323F081
:1044900003030433134442F8045B9342FBD10CF052
:1044A00003042CB1CAB21C4403F8012B9C42FBD17B
:1044B00030BD64461346002CF4D1F9E70346144698
:1044C000BFE71A46A446E0E70FB400B5074983B03A
:1044D00004AB086853F8042B8168019300F020F9BD
:1044E00003B05DF804EB04B0704700BF4C0000203F
:1044F0002DE9F043694CD4F8008083B004460E46A1
:1045000017461D46B8F1000F03D0D8F83830002BFD
:1045100077D0022F05D0012F00F2AC80002DC0F221
:10452000A980636EDA0752D52146404602F0AAFF01
:10453000216B41B104F14003994202D0404603F09F
:10454000CDF800232363B4F90CC000231CF0800FC6
:10455000A361636064D12CF44A6C2CF0030C022F2D
:10456000A4F80CC06AD001AB6A462146404603F06D
:104570005BFAA3891843A081002D2FD0002E2ED0E6
:10458000D8F83830002B38D0009B2660AB42B4F905
:104590000C301CBF43F40063A381012F04BF43F020
:1045A0000103A3819AB213F00803C4E904652CD077
:1045B000D1075DD56D42A561656E002315F001053B
:1045C000A36027D00025284603B0BDE8F083A38967
:1045D0009B05A9D4A06D03F0B3F9A5E7009D28467B
:1045E00003F052FA0646002847D0A38943F080031F
:1045F000A381D8F83830002BC6D1404602F076FFB0
:10460000C2E7404602F072FF83E7A360656E15F0D3
:104610000105D7D1930524D5284603B0BDE8F08322
:104620002169404603F05AF8B4F90CC02CF44A6CE6
:104630002CF0030C022FA4F80CC094D1002500220A
:1046400004F14303A2600122C4E904322360636ED3
:104650004CF0020CD807A4F80CC0DDD41CF4007F89
:10466000DAD1A06D03F06EF9284603B0BDE8F083FF
:10467000A560CBE74FF0FF35CEE7DDF80090A94508
:1046800004D0484603F000FA064620B9B4F90CC03D
:104690004FF0FF35D3E74D46A7E700BF4C000020A1
:1046A000A2B330B540EA0104A40784460B462AD0E1
:1046B0009CF800000C7884422FD1012A0DD0E646E8
:1046C00060B11EF8010F11F8014F6FEA0E03A0420E
:1046D000134422D11CEB0303F2D1002030BD046847
:1046E000194653F8045BA4F1013EAC4284462EEA1D
:1046F000040E00F104000BD1043A84461946ECD0B4
:104700001EF0803FE9D1032AE9D8D1E7104670476F
:104710009CF800000C78A042D1D0001B30BD00BF37
:104720002DE9F04FD5B01C460791914605460990FA
:1047300003F0FEF80268179210460E94FCF740FF53
:1047400016901DB1AB6B002B00F02A82079A536EB6
:10475000DD0740F13881B2F90C2091B28F0409D401
:10476000079B42F400529A8191B21A465B6E23F481
:10477000005353660E0740F1CB80079B1B69002B4B
:1047800000F0C68001F01A030A2B00F0CF8000244D
:104790002BAB4D46CDE92944CDE91944CDE91B4465
:1047A000129428939846189400230B940024CDE982
:1047B00014342B78002B00F09D81AA4604E01AF8EF
:1047C000013F002B00F0C780252BF8D1BAEB05067E
:1047D00040F0C5809AF80030002B00F08B81002358
:1047E0004FF0FF329AF801608DF883300A930AF196
:1047F000010A08921F462B244FF020090AF1010AF2
:10480000A6F120035A2B00F2ED80DFE813F0EB0253
:10481000EB00EB00E602EB00EB00EB006A00EB00C4
:10482000EB005C028002EB0067028A02EB0085026B
:104830005B005B005B005B005B005B005B005B00A0
:104840005B00EB00EB00EB00EB00EB00EB00EB00A0
:104850007A01EB00F801D2017A017A017A01EB00CA
:10486000EB00EB00EB00E102EB00EB002D02EB00B4
:10487000EB00EB000202EB00A402EB00EB0083076D
:10488000EB00EB00EB00EB00EB00EB00EB00EB00D0
:104890007A01EB00F801D4017A017A017A01C702AA
:1048A000D401CD01EB00D402EB006C022F02B50263
:1048B000CD01EB0002027E008007EB00EB006107F8
:1048C000EB007E00A6F1300300221AF8016B02EB28
:1048D000820203EB4202A6F13003092BF5D90A92BA
:1048E0008EE7DDF824B0584603F022F843681B93A6
:1048F0001846FCF765FE1C900646584603F018F86B
:1049000083681993002E40F0CD869AF8006075E711
:10491000079D0998294601F0B7FC002841F01C8347
:10492000A98901F01A030A2B7FF431AF079AB2F973
:104930000E30002BFFF62BAF536ED80702D489053B
:1049400041F13B810799099823464A4655B0BDE895
:10495000F04F01F04FBCBAEB050600F0CB802A9B6C
:1049600033442A93299B0133072BC8E90056299326
:1049700005DC08F108080B9B33440B932AE70799E1
:10498000099828AA03F0ECFF80B90DF1AC08F2E712
:104990000799099828AA03F0E3FF002800F09B80FC
:1049A0000D9B1BB10998194602F098FE079A536EA9
:1049B000D90740F1EA8093895B0601F1D9820B980F
:1049C00055B0BDE8F08F079BB3F90C20900591B26C
:1049D0003FF5C4AE1D46986D02F0B2FFB5F90C204C
:1049E00091B2BBE6002E00F0858000228DF8EC60CD
:1049F0008DF883200123CDE90C32069308920F92A3
:104A0000139210923BAD17F0020302D006990231C7
:104A1000069117F0840B07D10A990698A1EB0009BB
:104A2000B9F1000F00F370832A9C8AB1299A0DF125
:104A3000830101320134C8F80010072A4FF0010148
:104A40002A942992C8F8041000F3B68308F10808E4
:104A500083B1299B21AA01330234C8F80020072B17
:104A60004FF002022A942993C8F8042000F3B2837D
:104A700008F10808BBF1800F00F06982089B0C9ACE
:104A8000A3EB020BBBF1000F00F3AA82FB0500F1C0
:104A900000820C9BC8F804301C44299BC8F80050C5
:104AA0000133072B2A94299300F3228308F1080885
:104AB000780705D50A9B069A9D1A002D00F3968368
:104AC000DDE90A2306998A42ACBF9B185B180B9359
:104AD000002C7FF45DAF002329930D9B1BB10D9932
:104AE000099802F0FBFD0DF1AC0855462B78002B20
:104AF0007FF463AE2A9B002B41F0D38100232993DE
:104B000054E70E9B073323F00702F2E80234CDE9A5
:104B10001434DDE9143424F000440E92994618460A
:104B20002146B54B4FF0FF32FCF7A4FE002840F0C1
:104B3000EF84B14B484621464FF0FF32FBF7B8FFF8
:104B4000002840F0E584DDE9140100220023FBF792
:104B5000A5FF002840F067879DF88320A74DA84B4C
:104B600027F080070321472EC8BF1D4600230D9361
:104B700006910C9108930F9313931093002A3FF41E
:104B800042AF069B013306933DE7079B9B899A053D
:104B90003FF512AF079CA06D02F0D4FEA3890BE78E
:104BA000099802F0A3FCD1E59AF8006047F02007CD
:104BB00024E647F01007BA060E9B40F13B8407330A
:104BC00023F007031A465B6852F8084B0E92994689
:104BD000002BC0F24C84089B013300F0D88254EAC9
:104BE000090327F0800B40F0D382089B002B40F094
:104BF000D4825F46002308930C9354AD1DE10E9BB5
:104C0000002253F8041B8DF883208DF8EC100E93CE
:104C1000F0E60E9C089B54F8045B4FF000098DF8F9
:104C20008390002D00F093855A1C00F051861A469F
:104C300049462846FCF734FD0D90002801F00E810E
:104C40000D9BCDF820905B1B0C930E9423EAE3732D
:104C50009DF883200693CDF83490CDF83C90CDF8A4
:104C60004C90CDF8409089E747F0100717F02009E5
:104C700000F0D2830E9B073323F00703D3F8049090
:104C800053F8084B0E9327F4806B002300228DF815
:104C90008320089A511C00F0B88054EA09012BF0D7
:104CA000800740F0B180002A40F0F685002BA1D1AA
:104CB0001BF001030C9300F0148430238DF84F3166
:104CC0000DF24F15B9E00E9B53F8042B0A92002AFF
:104CD00080F2DA830A9A0E9352420A929AF800609E
:104CE00047F004078AE5BD0600F1D184FC0600F117
:104CF000D885780600F1A586B90540F1D2850E9BCE
:104D00000B9953F8042B0E9311705546EEE69AF862
:104D100000608DF8834071E59AF8006047F08007E5
:104D20006CE5524612F8016B2A2E01F03F82A6F183
:104D30003003092B924698BF002201F2BC801AF87A
:104D4000016B02EB820203EB4202A6F13003092B56
:104D5000F5D9089254E547F0100B1BF0200900F03C
:104D600076830E9B073323F00703D3F8049053F8A0
:104D7000084B0E93012389E70E9B53F8044B0E93C7
:104D8000302378268DF884301E4B189347F0020BA1
:104D90008DF885604FF00009022377E79AF80060EC
:104DA000682E03BF9AF8016047F400770AF1010A00
:104DB00047F0400722E59AF800606C2E03BF9AF88E
:104DC000016047F020070AF1010A47F0100715E5D6
:104DD0009AF8006047F0080710E59AF8006047F07D
:104DE00001070BE59DF88330002B7FF48EAD9AF818
:104DF00000608DF8839001E5FFFFEF7FACB0000805
:104E0000B0B00008BCB00008BB46012B00F0C08168
:104E1000022B54AD20D1189A04F00F032409D35C5F
:104E200005F8013D44EA09744FEA191954EA0903E7
:104E3000F2D154AB5B1B5F460C9308990C989DF81C
:104E4000832081424FF00003B8BF01460D930691C5
:104E50000F931393109391E604F00703E40844EAD8
:104E600049744FEAD909303354EA09012A4605F852
:104E7000013DF1D11BF0010FDBD0302BD9D0302315
:104E8000023A05F8013C54AB9B1A5F460C93154659
:104E9000D3E7652E40F3E680DDE91401002200230C
:104EA000FBF7F2FD002800F0DC81299BBF4AC8F81F
:104EB0000020013301340122072B2A942993C8F8DA
:104EC000042000F3CC8408F10808229B129A934234
:104ED00080F2D682169B179A1C44C8E90023299BAE
:104EE0002A940133072B299300F3248408F108083E
:104EF000129B5D1E002D7FF7DBAD102D299BDFF887
:104F0000B09240F3BD8449462246B946DDF824B04C
:104F1000079C10260F4605E008F10808103D102DEB
:104F200040F3AA8401331032072BC8E90076CDE99B
:104F30002932F1DD28AA2146584603F011FD002848
:104F40007FF42EADDDE929320DF1AC08E6E70A9BCE
:104F5000069AA3EB020BBBF1000F7FF78FADBBF1FD
:104F6000100F299ADFF848922CDD1D9621464E46F7
:104F7000079CDDF82490102306E0ABF1100BBBF189
:104F8000100F08F108081ADD01321031072AC8E9AC
:104F90000063CDE92921F0DD28AA214648460DF11C
:104FA000AC0803F0DDFC00287FF4FAACABF1100B89
:104FB000BBF1100FDDE929214FF01003E4DCB1460D
:104FC0001D9E0C4601325C44072ACDE92924C8F80D
:104FD0000090C8F804B000F3A08308F108084DE57C
:104FE000BBF1100F299ADFF8C8912DDD414620460C
:104FF000A8464C46079DDDF82490102306E0ABF14F
:10500000100BBBF1100F01F1080119DD0132103056
:10501000072AC1E90043CDE92920F0DD28AA294665
:10502000484603F09DFC00287FF4BAACABF1100BAE
:10503000BBF1100FDDE929202BA94FF01003E5DCAF
:105040004546A1468846044601325C44072ACDE91C
:105050002924C8F80090C8F804B000F3D08108F102
:10506000080813E5129B012B40F38081299EC8F8A4
:105070000050013601340123072E2A942996C8F8DE
:10508000043000F37C8308F10808169B179A013658
:105090001C44072EC8E90023CDE9296400F37C8372
:1050A00008F10808DDE9140100220023FBF7ECFCFD
:1050B000002840F07881129B0136013B01351C44E9
:1050C000072EC8F800502996C8F804302A9400F337
:1050D0005D8108F108081A9BC8F8043001361C44A9
:1050E000072E24ABCDE92964C8F800307FF7DEAC89
:1050F0000799099828AA03F033FC00287FF450ACE4
:105100002A9C0DF1AC08D3E4B9F1100FDDE9292197
:105110002BDDCDE91D3B1F96DDF824B04E46102453
:10512000A946079D04E0103E102E08F1080817DD7F
:105130000132204B1031072AC8E90034CDE929217A
:10514000F1DD28AA294658460DF1AC0803F008FC09
:1051500000287FF425AC103E102EDDE92921E7DC84
:10516000DDE91D3B4D46B1461F9EC8F80490013253
:1051700009EB0104072A0F49C8F80010CDE92924DA
:1051800000F351839DF8832008F108084DE4BB46E5
:105190000A2C79F1000380F00C83303401238DF860
:1051A0004F415F460C930DF24F1546E6ECB00008F8
:1051B00000B10008F0B00008079909981D9328AACB
:1051C00003F0CEFB00287FF4EBAB2A9C1D9B0DF176
:1051D000AC083DE40799099828AA03F0C1FB002810
:1051E0007FF4DEAB2A9C0DF1AC0843E4102D299B23
:1051F00021DD099FDDF81C90102604E0103D102DE4
:1052000008F1080817DD0133BB4A1034072BC8E941
:105210000026CDE92934F1DD28AA494638460DF1AA
:10522000AC0803F09DFB00287FF4BAAB103D102DB5
:10523000DDE92934E7DC0133AF4AC8F804502C44D7
:10524000072BCDE92934C8F800207FF739AC07993E
:10525000099828AA03F084FB00287FF4A1AB2A9CBC
:105260002EE42299002940F31481DDF84090129B2E
:105270009945A8BF9946B9F1000F0BDD299B013371
:105280004C44072BC8E900592A94299300F39A85C6
:1052900008F10808109EB9F1000FA8BFA6EB090697
:1052A000002E00F34683DDF840B07905AB4400F1F1
:1052B000CE84229B129A934202DBFA0740F1B88314
:1052C000169A17991444C8E90012299A2A940132AF
:1052D000072A299200F3838508F10808129AAE186C
:1052E000A6EB0B06D51AAE42A8BF2E46002E0DDD4A
:1052F000299BC8F800B001333444072BC8F8046078
:105300002A94299300F3F18508F10808002EA8BF1C
:10531000AD1B002D7FF7CCAB102D299BDFF8DC9166
:1053200040F3AE8249462246B946DDF824B0079CD8
:1053300010260F4605E008F10808103D102D40F337
:105340009B8201331032072BC8E90076CDE9293260
:10535000F1DD28AA2146584603F002FB00287FF41D
:105360001FABDDE929320DF1AC08E6E7FE073FF59A
:105370007DAE299EC8F80050013601340123072E66
:105380002A942996C8F804307FF7A3AE07990998A4
:1053900028AA03F0E5FA00287FF402ABDDE92964CE
:1053A0000DF1AC0897E6129B5D1E002D7FF793AEC2
:1053B000102DDFF8489140F37F8222460897099C20
:1053C000079F4FF0100B05E008F10808103D102D65
:1053D00040F3708201361032072EC8E9009BCDE9F8
:1053E0002962F1DD28AA3946204603F0B9FA0028DF
:1053F0007FF4D6AADDE929620DF1AC08E6E707994A
:10540000099828AA03F0ACFA00287FF4C9AA2A9CBC
:105410000DF1AC08FFF73ABB17F0100372D117F08B
:10542000400200F0BD820E9A52F8044B0E9299464B
:10543000A4B228E453F8044B0E93FB0656D47D0621
:1054400051D544F3C0394B4624B2FFF7C1BB1BF022
:10545000100340F036811BF0400200F092820E9A59
:1054600052F8044B0E929946A4B201230EE42D2368
:1054700064428DF8833069EB4909BB46012308E497
:10548000F8077FF515AB25E59AF800600E93FFF756
:10549000B5B9299B1A4AC8F800200133013401220A
:1054A000072B2A942993C8F8042000F3708408F18C
:1054B0000808002940F01E82129A07F001031343E6
:1054C0003FF4F6AA169B1799E218C8E90013299B26
:1054D0002A920133072B299300F3618308F108080E
:1054E00019E254ADA9E4B80500F1B4824FEAE479B9
:1054F0004B46FFF76DBB00BFF0B0000800B10008DD
:10550000ECB000080E9B53F8044B0E93FFF7BBBBA7
:10551000DDE9140102460B46FCF7ACF9002840F027
:10552000A085612E00F05085412E00F09982089BE5
:10553000013326F02003069300F08F85472B00F0FF
:105540007985DDE9141247F480730F931346002B1D
:10555000C0F2ED850C9300231D938B460D93069BA3
:10556000462B00F04A84452B00F04F8508990191A5
:1055700026A9049123A9039122A9029102210C9B3F
:10558000099800915A4600F08BFF069B472B054671
:1055900040F01C8617F0010FB9460F9F40F0D984E8
:1055A000269B5B1B1293069B472B00F01883069BE0
:1055B000462B00F05F84229B1093109B069A013BC0
:1055C000412A229300F0AA85F2B20021002BB8BF35
:1055D000109B8DF89020BABFC3F101032D222B221E
:1055E000092B8DF8912040F363850DF19F04BD4F89
:1055F0002246104687FB0321DA17C2EBA10202EB19
:105600008201A3EB4101303100F8011C19466329E6
:10561000134600F1FF32ECDC3033D9B2831E9C42DA
:1056200002F8011C40F2CE8513460DF1920201E012
:1056300013F8011B02F8011B9C42F9D10DF1A103E3
:105640000DF192021B1A134424AA9B1A1A93129B5F
:105650001A9A012B1A440C9240F372850C9B169AED
:1056600013440C930C9A002329F4806722EAE27217
:1056700047F480770F930692139310931D9B002B92
:1056800040F0DE829DF883200893FFF777BA0E9BE7
:105690000B9853F8041B0E93C217C1E9000255463C
:1056A000FFF724BA199B002B3FF42FA9199B1B78F5
:1056B000002B3FF42AA99AF8006047F48067FFF7AF
:1056C0009DB80E9B53F8044B0E930123FFF7DEBAEF
:1056D000854B189317F0200949D00E9B073323F010
:1056E0000703D3F8049053F8084B0E93F80709D535
:1056F00054EA090306D030238DF8856047F002078D
:105700008DF8843027F4806B0223FFF7BFBABB46C5
:10571000FFF723BB754B1893DCE70799099828AA74
:1057200003F01EF900287FF43BA92A9C0DF1AC0878
:10573000FFF7A4B90799099828AA03F011F90028DE
:105740007FF42EA92A9C0DF1AC08FFF7D1BB062BE4
:10575000294628BF062308950D952A460693644DD1
:105760000E940C930F9113911091FFF707BA17F055
:10577000100369D00E9B53F8044B0E93B6E70799BC
:10578000099828AA03F0ECF800287FF409A9DDE9BC
:1057900029640DF1AC0878E40799099828AA03F068
:1057A000DFF800287FF4FCA8DDE929640DF1AC08DE
:1057B00078E40BF480630022CDE90CA80696DDF8AE
:1057C000648054AF16469A460CE0002320464946B2
:1057D0000A22FBF7E9FB0A2C79F100031BD30446EC
:1057E00089462F4620460A2200234946FBF7DCFB68
:1057F00030327D1E013607F8012CBAF1000FE4D0DB
:1058000098F800309E42E0D1FF2EDED00A2C79F1CC
:10581000000380F0F480CDF864801296DDE90CA8D6
:10582000069EFFF706BB079909981D9328AA03F067
:1058300097F800287FF4B4A89DF883202A9C1D9B2C
:105840000DF1AC08FFF7F1B817F0400200F0B68098
:105850000E9A52F8044B0E929946A4B246E7079965
:10586000099828AA03F07CF800287FF499A82A9CBC
:105870000DF1AC08FFF729BB14463A464F46914656
:1058800001332C44072BC8F80090C8F80450CDE928
:1058900029347FF70BA92BE4012BBB467FF4B8AA70
:1058A0007BE40E9B0B9953F8042B554611600E9325
:1058B000FFF71CB9089F144601362C44072ECDE98A
:1058C0002964C8F80090C8F804507FF702AC5DE581
:1058D0002846CDF820900E94FBF772FE03460C90FC
:1058E000FFF7B4B967666666BCB00008D0B00008C0
:1058F000E4B00008169B1798E218C8E90003299B3A
:105900002A920133072B299300F3498108F10808F3
:105910000029C0F2FA821299C8F8005001338C189D
:10592000072BCDE92934C8F804107FF7BFA8FFF78B
:10593000DFBB102E299BDFF8C09252DD484642465D
:105940002146A846B946099C079D4FF0100B074613
:1059500003E00832103E102E3DDD01331031072BDD
:10596000C2E9007BCDE92931F3DD28AA294620468A
:1059700002F0F6FF00287FF413A8DDE929312BAAF5
:10598000E8E70E9B1BF4007914BF53F8044B53F85F
:10599000044B0E931CBF9146E4B20123FFF776B986
:1059A0000E9B17F4007914BF53F8044B53F8044BC3
:1059B0000E931CBF9146E4B2FFF765B90E9B17F436
:1059C000007914BF53F8044B53F8044B0E931CBFDB
:1059D0009146E4B28AE6454690463A460C464F4622
:1059E000914601333444072BCDE92934C8F800909F
:1059F000C8F8046000F3E68008F1080853E41C9B33
:105A00001B99ED1A1A46284602F03CFF98F801301F
:105A10000BB108F10108204649460A22002300265E
:105A2000FBF7C2FADBE62D228DF88320FFF796B84C
:105A3000129AAE18A6EB0B06D51AAE42A8BF2E4698
:105A400064E40E9B0B9953F8042B0E93118055467A
:105A5000FFF74CB844F3C0194B4664B2FFF7B8B82F
:105A600030238DF8843058238DF88530089B632BC4
:105A700047F0020400F39B8200230D933BADDDE968
:105A8000141247F481730F931346002B2746C0F27C
:105A900020820C9326F02003069300238B461D934F
:105AA000612E00F0ED82412E7FF459AD22AA0C99AF
:105AB000584602F057FE00224FF07F53FAF77CFD64
:105AC00002460B46CDE9102300220023FAF7DCFF43
:105AD00008B101232293494B0C93089BCDE912A6F0
:105AE000CDE91E78DDF830A0DDE9106703F1FF395C
:105AF000AB46109506E00022002309F1FF39FAF7C2
:105B0000C3FFE8B93E4B002230463946FAF754FD50
:105B10000F460646FBF7C4FE0446FAF7E3FC0B46C5
:105B2000024639463046FAF78FFB1AF80430B9F1CD
:105B3000FF3FD8464D460BF8013B06460F46DAD1EB
:105B4000304639462F4BDDF848A0139ECDF84880EB
:105B50000022A946DDF87C80109D1E9FCDE9100132
:105B6000FAF7BAFF002840F03482DDE91001254B36
:105B70000022FAF789FF10B1E10700F12A824B46B3
:105B8000002B06DB01335B4430220BF8012B5B4515
:105B9000FBD1ABEB0503B94612930F9F03E50799C1
:105BA000099828AA02F0DCFE00287EF4F9AEDDE9AF
:105BB000293222990DF1AC08AAE6906D01F0C2FEDF
:105BC000FEF7C0BE0799099828AA02F0C9FE00286E
:105BD0007EF4E6AE2A9C0DF1AC08FFF764BB229B75
:105BE0001093DA1C02DB089A93420DDD023E26F088
:105BF00020030693E1E400BF00B10008D0B0000824
:105C0000000030400000E03F109B129A9342C0F227
:105C1000568119F0010F00F08782169A13440C93F5
:105C200019F4806F03D0109B002B00F350820C9B63
:105C300023EAE3730693672600230F9313931DE56E
:105C40002D2200238DF883200893FEF79ABF129B24
:105C5000CDF830A04246DDF84C801097EB18089341
:105C60005E46199FDDF87090DDF824A0DDF81CB0C9
:105C70000F9B13952146B8F1000F2ED0002B6BD14E
:105C8000013F08F1FF381B9BC2E90039299B013312
:105C90004944072B2A91299362DC0832089B387803
:105CA0009B1B8342A8BF0346002B1C460ADD299894
:105CB000013019440728C2E900632A9129905ADC6F
:105CC00038780832002CACBF051B0546002D15DCCA
:105CD00006440F9BB8F1000FD0D1002B3CD1DDE979
:105CE0001235EB189E421997B346DDF830A0109F8D
:105CF00090460C4628BF9B46FFF7DBBA102D29982B
:105D00001DDD102404E0103D102D02F1080216DD07
:105D10000130AC4B10310728C2E90034CDE929012C
:105D2000F1DD28AA5946504602F01AFE00287EF4FA
:105D300037AE103D102DDDE929012BAAE8DC01303A
:105D4000A04B556029440728CDE9290113602CDCBC
:105D5000387808320644BCE70F9B013B0F9392E76B
:105D600028AA5946504602F0FBFD00287EF418AEE2
:105D70002A992BAA92E728AA5946504602F0F0FD2C
:105D800000287EF40DAE38782A992BAA9AE7079955
:105D9000099828AA02F0E4FD00287EF401AE2299B9
:105DA0002A9C0DF1AC08FFF784BB28AA594650463F
:105DB00002F0D6FD00287EF4F3AD38782A992BAA9C
:105DC000064486E70799099828AA02F0C9FD002829
:105DD0007EF4E6AD2A9C0DF1AC08FFF75BBA07999B
:105DE000099828AA02F0BCFD00287EF4D9AD229BB8
:105DF0002A9C0DF1AC08FFF771BA0899019126A908
:105E0000049123A9039122A9029103210C9B0998D3
:105E100000915A4600F044FB0378302B054600F011
:105E20009581229B089AB94613440F9FEC180C9950
:105E3000584600220023FAF727FE10B12346FFF749
:105E4000B0BB269BA342BFF4ACAB30215A1C2692B8
:105E50001970269B9C42F9D8FFF7A3BB089B9DF8BD
:105E600083200E9406930C9308900F90139010903B
:105E7000FEF784BE229A1092002A40F3818108998D
:105E800009F001030B4340F05581109B0C936626EB
:105E900019F4806F40F01C810C9B23EAE373069396
:105EA000CAE60799099828AA02F05AFD00283EF48C
:105EB00025AEFEF77BBD00230893FEF7A1BC129B25
:105EC000169A9A18109B0C92002B40F34D8167266E
:105ED000DEE726F020030693DDE914349B4604F147
:105EE00000430C932D231D93DAE50799099828AAFE
:105EF00002F036FD00287EF453AD229D129B2A9CB1
:105F00005D1B0DF1AC08FFF701BA4E421031DFF80E
:105F1000B49034DA4146DDF824B0A8461024079D39
:105F200003E00831103E102E27DD01331032072B1D
:105F3000C1E90094CDE92932F3DD28AA2946584663
:105F400002F00EFD00287EF42BADDDE929322BA9ED
:105F5000E8E7089BEC186AE7079B5B6EDD0707D450
:105F6000079B9B899C0503D4079B986D01F0EAFC75
:105F70004FF0FF330B93FEF722BD454688460133B1
:105F80003244072BCDE92932C8F80090C8F80460E4
:105F90007FF7A4AA0799099828AA02F0E1FC002833
:105FA0007EF4FEACDDE929320DF1AC08B3E40998CA
:105FB000591C01F071FD0546002800F00D810D907F
:105FC0005DE500BF00B1000830238DF884307823F0
:105FD0004AE5129B26930C9B1BF8012CD97B8A4225
:105FE0005B4609D1302003F8010C269B5A1E2692ED
:105FF00013F8012C9142F6D0392A0BBF0C9A0132CA
:10600000927AD2B203F8012CC3E508990C9B099847
:106010004C1C26A9049123A9039122A902910221D3
:106020005A460194009100F03BFA0546B9462C44CB
:106030000F9FFCE6089B002B08BF0123089347F441
:1060400080730F93159B002BC0F2AE80DDF850B02B
:106050001D900C930D90FFF789BA06230893FFF764
:1060600070BA159B604D002BB4BF2D229DF8832084
:106070005E4BB8BF8DF8832027F08007FEF772BD16
:1060800022AA0C99584602F06DFB00224FF07F5374
:10609000FAF792FA02460B46CDE9102300220023BC
:1060A000FAF7F2FC08B101232293514B0C9314E54B
:1060B000002962D130228DF892200DF19302303305
:1060C00002F8013B24ABD31A1A93FFF7C0BA672634
:1060D00019990B78FF2B7BD00024109A204603E0FF
:1060E00001300131FF2B08D0934206DAD21A4B78E7
:1060F000002BF5D10B780134F4E71991109213902D
:106100000F940F9A139B1C9913440C9A01FB0323C1
:106110000C9323EAE3730693FFF7B0BA06F10F027C
:10612000D2B20121FFF752BA109B0C9378E50023FD
:106130000D93D1E6169BD31819440C916626A7E659
:1061400019F0010F3FF48EAAFFF788BA0C99584650
:1061500000220023FAF798FC00287FF462AE089B27
:10616000C3F1010322935DE6C3F101031A4422EA5D
:10617000E2730C92069367265EE50DF192029EE7AC
:10618000089A09F0010959EA020304D10123069390
:1061900066260C9350E5169B01331A4422EAE273FB
:1061A0000C920693662647E50D9095E60E9B9AF8AD
:1061B0000160924653F8042B0E9342EAE272089271
:1061C000FEF71CBB02231A93FFF741BA089C2DE788
:1061D00000230F93139394E7079A938943F04003A6
:1061E0009381FEF7E3BB00BFB4B00008B8B000086D
:1061F000BCB00008F0B51F468B89ADF26C4D23F0A2
:106200000203ADF80C304B6E1993CB89ADF80E300C
:10621000CB6907934B6A09931AAB009304934FF42D
:106220008063154606460293059316A800230C4684
:10623000069301F081FB2A463B4669463046FEF74D
:106240006FFA051E07DB6946304601F01BF900288E
:1062500018BF4FF0FF35BDF80C305B0603D5A3899E
:1062600043F04003A381169801F068FB28460DF225
:106270006C4DF0BD034B024618680B468168FEF773
:106280004FBA00BF4C00002038B5334B1B680546A1
:106290000C460BB19A6B12B3B4F90C3018079AB2D2
:1062A00025D5216900292DD012F0010007D000204A
:1062B000A06060694042A06139B1002038BD9507F7
:1062C00058BF6069A0600029F7D1120658BF084680
:1062D000F4D543F04003A3814FF0FF3038BD18469A
:1062E00001F004F9B4F90C3018079AB2D9D4D106E8
:1062F0002AD5520714D4216943F00803A3819AB226
:106300000029D1D102F42070B0F5007FCCD0214615
:10631000284601F019FBB4F90C3021699AB2C3E7A1
:10632000216B51B104F14002914204D0284601F0A2
:10633000D5F9B4F90C300022226321690022C4E9A6
:10634000001223F02403D7E7092243F040032A6018
:106350004FF0FF30A38138BD4C000020024B13B139
:10636000024800F005B870470000000011760008F0
:10637000002301461A46184603F022BA2DE9F04FD1
:1063800003690C69A34283B0C0F28680013C01F12D
:106390001405A30000F11408009355F8243058F8B0
:1063A000242001338A469A4208EB8401814605EB9A
:1063B00084070191B2FBF3F638D30023AE46404682
:1063C0009B465EF8041B02681FFA81FC06FB0C3337
:1063D000090C4FEA134C06FB01CC99B2ABEB01015F
:1063E0001FFA8CF311FA82F1C3EB124202EB214245
:1063F00089B241EA0241774540F8041B4FEA1C4349
:106400004FEA224BDDD2009B58F8033073B9019B51
:10641000043B984504D307E0984504F1FF3403D2C8
:1064200053F80429002AF7D0C9F8104051464846CD
:1064300002F070F800282BDB01364046002355F8A7
:10644000041BD0F800C08AB29A1A0B0C12FA8CF214
:10645000C3EB1C4303EB224392B242EA0342AF4236
:1064600040F8042B4FEA2343E9D258F8242008EBE4
:1064700084036AB9043B984504D307E0984504F1C6
:10648000FF3403D253F80429002AF7D0C9F810408A
:10649000304603B0BDE8F08F002003B0BDE8F08FB8
:1064A0002DE9F04F016C99B090469946CDE90489E9
:1064B000259D044641B1426C4A60012393408B60A4
:1064C00001F0CCFD00232364B9F1000AB4BF01231D
:1064D00000232B60764BBCBF2AF0004ACDF814A0F5
:1064E00033EA0A0300F0AA80DDE9042310461946C6
:1064F00000220023CDE90A01FAF7C6FA074670B177
:10650000249A01231360269B002B00F0E482694843
:106510001860431E0393039819B0BDE8F08F16ABC3
:10652000019317AB00932046DDE90A2302F0B8F887
:106530005FEA1A56054640F09780DDE916763E443C
:1065400006F23240202840F3B583C0F140000AFA39
:1065500000FA06F2124028FA00F04AEA0000F9F7C1
:10656000B1FF0123013EA1F1F8710F93524B0022BC
:10657000F9F76AFE48A3D3E90023FAF71DF848A308
:10658000D3E90023F9F762FE804630468946F9F7E1
:10659000A9FF45A3D3E90023FAF70EF802460B46FC
:1065A00040464946F9F752FE80468946FBF778F99E
:1065B00000228346002340464946FAF76FFA002836
:1065C00040F07C82BBF1160F00F26B823B4B03EB79
:1065D000CB03D3E90023DDE90A01FAF75FFA0028CB
:1065E00072D00023BE1B0E93731E0BF1FF3B06936C
:1065F00000F15E8200230993BBF1000F6BDA099B67
:10660000CDF81CB0A3EB0B030993CBF100030D9362
:10661000229B092B4FF0000B66D8052B40F34883D3
:10662000043B22930026229B023B032B00F2688648
:10663000DFE813F05C04590450043304249A42F256
:106640000F73CAF3130A13605AEA08031AD1269B80
:10665000002B00F064861A4B03930833269A0398A4
:10666000136019B0BDE8F08FDDE90A12C2F313031D
:10667000084643F07F510F97A6F2FF36169F41F46C
:10668000401173E7269B002B40F0EA830D4B0393E8
:1066900041E700BFAFF3008061436F63A787D23F3C
:1066A000B3C8608B288AC63FFB799F501344D33F01
:1066B0000000F07FEDB000080000F83F60B2000875
:1066C00014B1000810B10008BE1B731E069300F140
:1066D00085840E900990069B5B44CDE9063B002320
:1066E0000D93229B092B98D90023CDE92233012653
:1066F0004FF0FF330C960893089B129300216164BE
:10670000204601F085FC0390002800F00186039BE1
:106710002364089B0E2B00F21381002E00F01081E1
:106720000799002940F35C84AE4B01F00F0203EBA4
:10673000C2034FEA2118C905D3E9006740F1148468
:10674000A94BDDE90A01D3E90823FAF75FF8CDE99F
:10675000100108F00F084FF0030AB8F1000F13D032
:10676000DFF8849218F0010F09D030463946D9E994
:106770000023F9F721FF0AF1010A06460F465FEAF6
:10678000680809F10809EDD1DDE9100132463B4600
:10679000FAF73CF8804689460E9B43B1934B0022A2
:1067A00040464946FAF77AF9002840F030855046CD
:1067B000F9F798FE42464B46F9F7FEFE8C4B002255
:1067C000F9F744FDA1F15073CDE910011193089B35
:1067D000002B00F09780079B1493089B13930C9B4E
:1067E000002B00F0A584139A7E4B8249039E03EB95
:1067F000C20353E902230020FAF708F8DDE9102369
:10680000F9F722FDCDE9100149464046FBF748F86B
:106810000746F9F767FE02460B4640464946F9F738
:1068200013FD3037DDE9102306F8017B80468946E9
:10683000FAF734F9002840F02985CDF854B0002744
:10684000DDE910AB1095139D13942AE00137AF4298
:1068500080F22C85684B504659460022F9F7ACFE71
:10686000654B002282468B4640464946F9F7A4FE16
:1068700089468046FBF714F80446F9F733FE0246D2
:106880000B4640464946F9F7DFFC303406F8014B29
:1068900052465B4680468946FAF700F9002840F0E8
:1068A000F38442464B4651490020F9F7CDFC52464D
:1068B0005B46FAF7F3F80028C8D0DDE91343109DD2
:1068C000039A079302E0964200F0C884B24616F895
:1068D000013D392BF7D00133DBB23370079B013315
:1068E0000793C8E15046F9F7FDFD42464B46F9F7DC
:1068F00063FE3F4B0022F9F7A9FCA1F15073CDE9EB
:10690000100111933D4B404649460022F9F79CFC8B
:10691000DDE910894B46424606460F46FAF7DCF899
:106920008146002840F0AA84DDE91001024601F109
:10693000004330463946FAF7B1F8002840F0458365
:10694000179B002BC0F28C80079A0E2A00F38880D8
:10695000244B03EBC203D3E900AB239B002B1BDAD0
:10696000089B002B18DC40F02E83244B002250465D
:106970005946F9F721FE02460B46DDE90A01FAF70E
:1069800097F8DDF820904E46002800F0C782239B40
:10699000DDF80C80DF43C9E2DDE90A7852465B4648
:1069A00038464146F9F732FFFAF77AFF81460990F7
:1069B000F9F798FD52465B46F9F7FEFD039E0B463C
:1069C000024641463846F9F73FFC09F1300306F824
:1069D000013B089B012B00F05C8306940127049582
:1069E0001C462AE060B2000838B200080000F03F00
:1069F00000001C400000E03F000024400000144064
:106A000052465B4640464946F9F700FFFAF748FF11
:106A10000546F9F767FD52465B46F9F7CDFD0137AC
:106A20000B46024649464046F9F70EFC05F1300395
:106A3000A74206F8013B00F02983AC4B0022F9F78E
:106A4000BBFD0022002380468946FAF71DF8002886
:106A5000D6D0049D069C079B01330793B2460AE1FA
:106A60000C9A002A3DD0229A012A40F39C82089B6E
:106A700003F1FF380D9B4345C0F26D82A3EB08087C
:106A8000089B002BC0F23C83069A1A440692099A8E
:106A900017461A4409920121204601F087FB064659
:106AA00023E00123BE1B0E93731E06937FF5A2AD58
:106AB000C6F101030993002306939DE55846F9F7B3
:106AC00011FD42464B46F9F7DFFF00287FF47AAD0F
:106AD0000BF1FF3B76E5864B0393039819B0BDE8B5
:106AE000F08FDDF83480099F0C9E002F0CDD069995
:106AF00000290B4608DD099AB942A8BF3B46D21AC5
:106B0000FF1ACB1A099206930D9BDBB10C9B002B4D
:106B100000F05D82B8F1000F0FDD3146424620469D
:106B200001F020FC2A4601460646204601F06CFB97
:106B300029460546204601F091FA0D9BB3EB080269
:106B400040F0D8820121204601F030FBBBF1000F5C
:106B5000814600F3B480229B012B40F386814FF0E5
:106B6000000A0120BBF1000F40F0B580069A1044E6
:106B700010F01F0000F09380C0F12003042B40F3BD
:106B8000D283099BC0F11C000344024409930744CB
:106B90000692099B002B05DD29461A46204601F086
:106BA00041FC0546069B002B05DD49461A4620465A
:106BB00001F038FC81460E9B002B40F03681089B8B
:106BC000002B40F31D810C9B002B40F0A080079B05
:106BD00001330793DDF80C80DDF820A0012707E0E2
:106BE000294600230A22204601F042FA01370546D1
:106BF00049462846FFF7C2FB574500F1300308F825
:106C0000013BEDDB089A002AC8BF9346039AD8BF20
:106C10004FF0010B9344002729460122204604939C
:106C200001F000FC4946054601F074FC002840F3E1
:106C3000A8811BF8013C039A0BF1FF3B04E05A4585
:106C400000F0AA811BF8013D392B0BF1010AF6D0A7
:106C500001338BF800304946204601F0FFF956B168
:106C60002FB1B74203D03946204601F0F7F931463B
:106C7000204601F0F3F92946204601F0EFF9002300
:106C80008AF80030249B079A1A60269B002B3FF459
:106C900042AC0398C3F800A019B0BDE8F08F1C20E7
:106CA000099B03440993069B03440744069370E73A
:106CB0000126B8E4C0F1200008FA00F04FE40146D4
:106CC0005A46204601F04EFB229B012B814640F3A1
:106CD000B3814FF0000AD9F8103009EB830318692B
:106CE00001F016FAC0F1200040E700BF0000244088
:106CF000ECB00008314600230A22204601F0B8F922
:106D0000129B002B064640F3E782CDE90783002F54
:106D100000F31A81BAF1000F40F0D581B046049B10
:106D2000039F089903F001027B1E1944229B0C92D9
:106D3000134309910A9349462846FFF71FFB314642
:106D40008346284601F0E6FB4246494682462046F5
:106D500001F000FCC26801460BF13003002A42D169
:106D600006902846089301F0D5FB0699049020462A
:106D700001F074F9049A089B1AB90A99002900F0E5
:106D80009B82BAF1000FC0F2638122994AEA010A9C
:106D90000C9951EA0A0100F05B81002A00F3B481EA
:106DA000099A3B7007F1010A9742D34600F0B2817D
:106DB000294600230A22204601F05AF94645054695
:106DC00031464FF000034FF00A02204612D001F086
:106DD0004FF94146064600230A22204601F048F9B1
:106DE00057468046A7E72046049301F037F9049BF5
:106DF0000122C6E701F03CF95746064680469AE76D
:106E0000229B022B79DC0C9B002B80D1079B4946EF
:106E1000013328460793FFF7B1FADDF80CB000F113
:106E200030030BF8013B0027F6E64946284601F0FF
:106E300071FB0028BFF6C3AE294600230A22204674
:106E400001F016F9079B03F1FF380C9B0546002B58
:106E50007FF450AF129B002B40F335820893B9E6C4
:106E6000AF4B03930333FFF7F9BBDDE904120029AD
:106E70007FF475AEC2F31303002B7FF470AEA94B01
:106E80001340002B00F0FE81099B01330993069B00
:106E9000013306934FF0010A63E601230C93239B11
:106EA000079A134412930133012B1F460893B8BF6E
:106EB00001270021172F61647FF722AC01220423F0
:106EC0005B0003F11400B842114602F10102F7D948
:106ED000616415E401230C93239B002B4CDD12937A
:106EE00008931F46E5E700230C93D8E700230C9393
:106EF000F2E7129BCDF81C800893089B002B7FF4CF
:106F000046AD49460522204601F0B2F801468146C9
:106F1000284601F0FFFA00287FF739AD0398079F54
:106F20003123804600F8013B013703904946204653
:106F300001F094F87B1CDDF80CA00793CDF80C80D1
:106F4000002E7FF494AE96E631463A46204601F094
:106F500069FA0646DEE60D9BCDF83480A8EB030304
:106F60009B444FF000088BE5DDE90A234FF0020A4D
:106F7000CDE91023FFF7F1BB012323930893FFF71B
:106F8000BBBB03D1049BDB073FF553AEDA461BF8CE
:106F9000013D302BFAD05EE6079B039A013307933D
:106FA0003123137057E60F9A002A00F0268103F26E
:106FB0003343069ADDF834801A440692099A17463C
:106FC0001A44099267E54FF000094E46DFE429466E
:106FD0000D9A204601F0C6F90546B3E50E9067E527
:106FE00000F00F81079A504B564206F00F0203EB58
:106FF000C203D3E90023DDE90A01F9F7DDFA36110E
:107000008046894600F07181484F00234FF0020A04
:10701000F20706D5D7E90023F9F7CEFA0AF1010AFB
:107020000123761007F10807F2D1002B3FF4B4AB2F
:1070300080468946FFF7B0BB049B002B7FF449AE26
:10704000DDE90412C2F31303002B3FF418AF40E64E
:10705000002A12DD294601222046049301F0E2F9BC
:107060004946054601F056FA0028049B40F3188172
:10707000392B00F0F9800BF13103BA460AF8013BD5
:10708000079B0133374607934646E4E50995069C7E
:10709000049D02460B46F9F7D9F852465B468046F6
:1070A0008946F9F719FD60B952465B4640464946A4
:1070B000F9F7EAFC00283FF4CEAC099BD9077FF52D
:1070C000CAAC039A02E47168204600F0A1FF0746AB
:1070D000002800F00E81336902339A0006F10C019A
:1070E0000C30FAF72DFB39460122204601F09AF9BF
:1070F000804614E62946204601F034F9054621E58C
:10710000DDE908239F1AC6E4392B00F0AD80BA46AA
:107110000133B3E7079A01323746079246467BE5CB
:1071200010B100080000F07F60B2000838B200081B
:10713000DDF84CA0844901EBCA01DDE9102351E9D7
:107140000201F9F739FACDE9100149464046FAF74C
:10715000A7FB0646F9F7C6F90B46024649464046E4
:10716000F9F772F8039F53463036012B07F8016B8D
:107170008046894600F0AE80139E039B1E44734BED
:10718000002240464946F9F717FA89468046FAF741
:1071900087FB8246F9F7A6F90AF1300A02460B4648
:1071A00040464946F9F750F807F801ABB742804628
:1071B0008946E4D1664B0022DDE91001F9F746F873
:1071C00042464B46F9F76AFC002864D1DDE91023FA
:1071D0005F490020F9F738F842464B46F9F77CFC46
:1071E00000283FF4ADABB246013E1AF8013C302B0B
:1071F000F9D0149B013307933DE5169BC3F1360389
:10720000D7E6DDE90A894FF0020AFFF7C5BA089B05
:10721000002B3FF467AB129B002B7FF791AB079AD3
:10722000013ACDE913324046484B00224946F9F76E
:10723000C3F9804689460AF10100F9F753F942463D
:107240004B46F9F7B9F9434B0022F8F7FFFFA1F1DC
:107250005073CDE910011193FFF7C1BA079B0133B9
:1072600007933123FFF739BB079BBB4601330793D5
:10727000392337460BF8013B4646DCE44FF0000962
:107280004E464BE69A466CE4109D139C149B0133CA
:107290000793B246EFE4149B039A0793FFF716BBDC
:1072A0007FF4EBAEDA077FF5E8AEE1E6DDF854B047
:1072B000109D139CFFF744BB392BD5D0BAF1000FBA
:1072C0003FF7D9AED9E6229B022B3FF712AECDF89D
:1072D0001C809BE53E466DE7229B022B3FF709AEE3
:1072E000129BCDF81C80089311E54FF0020AFFF7BE
:1072F00053BA194B19483A4640F2EA2102F0A6FA6D
:10730000002666643146204600F082FE039078B97C
:10731000114B124800224FF4D57102F097FA104B2E
:107320000393FFF7F8B83FF434ACC0F13C00B7E486
:10733000039B236401224FF0FF33239612930C9298
:107340000893FFF7FDBA00BF60B2000800002440B8
:107350000000E03F00001C4020B1000834B10008EC
:1073600014B10008B1F90C20F8B50C461107074616
:1073700042D4636842F40062002BA28159DDA56A01
:10738000002D54D000233E683B6093B212F480522B
:1073900053D1E16901233846A847421C63D0A38931
:1073A000A56A5B0705D56368C01A236B0BB1E36B55
:1073B000C01AE169024600233846A847411C3ED165
:1073C0003B68002B3BD01D2B01D0162B52D1A3893B
:1073D0002269226023F4006300216160A381216B94
:1073E0003E6021B304F14003994202D0384600F0D8
:1073F00075F900202063F8BD2669C6B193B22568EF
:1074000026609A070CBF63690023AD1BA3600CE0E4
:10741000D4F824C0E1692B4632463846E047B0F143
:10742000000CA5EB0C05664416DD002DF0DC0020F9
:10743000F8BDE36B002BA2DCF9E7206DB1E7B4F9EE
:107440000C302269226023F40063A3810022DB0454
:107450006260C4D52065C2E7A38943F040034FF0C2
:10746000FF30A381F8BD3B68002B98D01D2B06D0C0
:10747000162B04D0A38943F04003A381F8BD3E60DE
:10748000D5E700BF38B50C46054608B1836BA3B1FC
:10749000B4F90C00B8B1636EDB0701D4810515D5D2
:1074A00028462146FFF75EFF636EDA07054602D4E1
:1074B000A3899B050ED5284638BD00F017F8B4F90E
:1074C0000C000028E7D10546284638BDA06D00F025
:1074D00037FAE5E7A06D00F035FA284638BD00BF61
:1074E000014900F001BA00BF359900082DE9F047C5
:1074F0008246394800F024FADAF83840002C66D188
:10750000DAF80450354ACAF83C200323CAE9B843E4
:10751000DFF8CC90DFF8CC80334F344E04230AF5EB
:107520003B72CAF8E8222146C5E90243C5E9004496
:10753000C5E904446C660822AC6105F15C00FCF707
:1075400071FFC5E90759C5E90987EE6205F15800E1
:1075500000F0F2F9DAF80850254BEB602146C5E956
:107560000044C5E904446C66AC60AC61082205F1D6
:107570005C00FCF757FFC5E90759C5E90987EE62CA
:1075800005F1580000F0D8F9DAF80C50194BEB600F
:107590002146C5E90044C5E904446C66AC60AC61B1
:1075A000082205F15C00FCF73DFF05F15800C5E934
:1075B0000759C5E90A76C5F8248000F0BDF9012312
:1075C000CAF838300448BDE8F04700F0BBB9BDE860
:1075D000F047014800F0B6B9AC0D0020E174000896
:1075E000F98700081D8800085D8800087D8800086C
:1075F0000900010012000200014800F0A1B900BF1B
:10760000A80D0020014800F09DB900BFA80D002082
:1076100038B5084B084D5B1B9C1007D0043B1D443C
:10762000013C55F804399847002CF9D1BDE83840A1
:1076300002F0EEBF2CB6000828B60008F8B5244FBB
:107640000C46064600F0D8FCBA685568C4F57E635F
:107650000F3325F003052B4423F47F6323F00F033E
:10766000A3F58054B4F5805F07DB0021304601F0BC
:10767000B1F8BB682B44984204D0304600F0C2FCFD
:107680000020F8BD6142304601F0A4F801300DD071
:10769000104ABB682D1B45F001055D60136830463C
:1076A0001B1B136000F0AEFC0120F8BD002130462A
:1076B00001F090F8BA68831A0F2BDEDD43F0010366
:1076C0005360054B03491B68C01A0860D5E700BF2B
:1076D0007C040020B00D002084080020002961D027
:1076E000F8B50C46064600F087FC54F8042C7B4F96
:1076F000A4F1080522F0010105EB010CB868DCF8E3
:107700000430604523F0030300F08B80D207CCF8EF
:10771000043032D454F8082CAD1A1144AA6807F189
:10772000080082426AD00CEB0304D4F804E0EC6851
:10773000D4601EF0010FA26000F0978041F00103B9
:107740006B60CCF80010B1F5007F35D27A68CB08B9
:1077500048090121013381401143796007EBC302DD
:1077600057F83310083AC5E9021247F83350CD6094
:107770003046BDE8F84000F045BC0CEB030252680F
:10778000D00710D4194407F10800DCF80830834210
:1077900073D0DCF80C20DA60936041F001036B6079
:1077A0006950D0E7704741F00103B1F5007F44F81C
:1077B000043CCCF80010C9D3B1F5206F4FEA512337
:1077C00048D28B0903F1390003F13802C300F818DD
:1077D000FB580838984259D05A6822F003028A426E
:1077E00002D99B689842F7D1D868C5E90230856014
:1077F000DD603046BDE8F84000F004BC0CEB03024D
:107800005268D20763D40B44DCE90212CA6091606B
:1078100043F001026A603046EB50BDE8F84000F0EA
:10782000F1BB0B44D10707D454F8082CAD1A13440C
:10783000D5E90212CA60916043F001026A60284AE9
:10784000BD6012689A4293D8264B30461968FFF7FC
:10785000F5FE8DE7142B0AD9542B1FD80B0B03F11F
:107860006F0003F16E02C300B1E719448DE703F125
:107870005C0003F15B02C300A9E741F00103C7E923
:107880000455C5E902006B60695071E77968921090
:10789000012404FA02F20A437A60A6E7B3F5AA7F4C
:1078A00006D8CB0B03F1780003F17702C3008EE713
:1078B00040F25452934206D88B0C03F17D0003F141
:1078C0007C02C30083E74FF47E737E227FE741F0A2
:1078D00001036B60CCF800104AE700BF7C04002075
:1078E00088080020E00D00202DE9F843074688466F
:1078F00000F538764FF00009D6E90154013D11D466
:10790000A389012B05F1FF3508D9B4F90E300133F5
:10791000214603D03846C04749EA00096B1C04F1F0
:107920006804EDD13668002EE6D14846BDE8F883FC
:10793000004870477C090020704700BF704700BFB7
:10794000704700BF704700BF2DE9F0418B890C469E
:10795000990796B008D504F143030122C4E9043223
:10796000236016B0BDE8F081B4F90E100029064678
:1079700027DB6A4602F0E0F8002821DB019D05F4D0
:107980007045A5F50055B5FA85F54FF480686D0989
:107990004FF400674146304600F07EF8B4F90C30F1
:1079A000F0B1204AF26343F08003C4F81480A3814D
:1079B0002060206135BB3B43A38116B0BDE8F08158
:1079C000A38913F0800519D04FF040084146304696
:1079D00000F062F80025B4F90C302F460028E0D101
:1079E0009A05BED423F0030304F1430243F00203DB
:1079F0000121C4E90421A3812260B2E74FF4806829
:107A00002F46C7E7B4F90E10304602F01FFA10B93E
:107A1000B4F90C30CFE7A38923F0030343F001034B
:107A20001BB2C8E7E174000870B50C46B1F90E103E
:107A3000002996B015461E4614DB6A4602F07CF813
:107A400000280FDB019A02F47042A2F50052B2FA4C
:107A500082F24FF4806352094FF4006032602B6071
:107A600016B070BDB4F90C10002311F08000336023
:107A700004D0402218462A6016B070BD4FF48063CF
:107A80002B6016B070BD00BF024B0146186800F0B5
:107A900003B800BF4C0000202DE9F04F01F10B06A8
:107AA000162E83B0044624D8102900F2BA8000F0C4
:107AB000A3FA102618220220B54F3A44A2F1080179
:107AC00053688B4200F0BA805A68D96822F00302EA
:107AD0001A449D68E9608D60516841F001012046BB
:107AE000516003F1080500F08DFA284603B0BDE8A7
:107AF000F08F36F0070600F19480B14200F29180D9
:107B000000F07AFAB6F5FC7FC0F09A81730A00F0B3
:107B10008F80042B00F26F81B30903F1390003F168
:107B2000380CC3009A4F3B44A3F108055B689D42A3
:107B300006D10CE0002980F22781DB689D4206D047
:107B40005A6822F00302911B0F29F3DD60463D695C
:107B5000DFF840C265457CD06A6822F00302931BBF
:107B60000F2B00F37B81002BC7E904CC80F26C81E2
:107B7000B2F5007F80F01A81D308796801334FEAAB
:107B8000521E012202FA0EF20A4357F833E0C5F8FA
:107B900008E007EBC3010839E9607A6047F8335021
:107BA000CEF80C50831001219940914257D81142D0
:107BB00006D120F003004900114200F10400FAD080
:107BC00007EBC0094D468646D5F80C80454508D1DF
:107BD0001DE1002B80F22481D8F80C80454500F08F
:107BE0001681D8F8042022F00302931B0F2BF0DD3E
:107BF0002046D8E9025408EB060146F00106C8F811
:107C00000460EC60A56043F00104C7E90411C1E918
:107C100002CC4C6048F8023000F0F4F908F1080595
:107C200002E00C2323600025284603B0BDE8F08F56
:107C30004FF4007340204FF03F0C73E7D3689A4233
:107C400008BF02307FF440AF3D69DFF848C16545A9
:107C500082D17A688310012199409142A7D9BD68E9
:107C60006B6823F003094E4503D8A9EB06030F2BDD
:107C70007ADCDFF824B1494BDBF800201B680132C5
:107C8000334405EB090A00F0338103F580530F33C9
:107C900023F47F6828F00F084146204600F09AFD43
:107CA000411C024600F0F380824500F2EE803C4B1E
:107CB000196841441960084600F04E81DBF8001055
:107CC000019301311BBFA2EB0A0A5044CBF80020FC
:107CD000186012F0070B00F01781CBF108010A447D
:107CE000CBF5805190440831A1EB0801C1F30B0A98
:107CF00051462046009200F06DFD421CDDE9002354
:107D000000F04F81801A00EB0A081968BA6048F049
:107D100001005144BD425060196000F02981B9F161
:107D20000F0F40F227816868A9F10C0C2CF0070CAA
:107D300000F0010040EA0C0068604FF0050E05EB12
:107D40000C00BCF10F0FC0E901EE00F23281506867
:107D50001546144B1A688A4238BF1960124B1A68CC
:107D60008A4238BF196094E0AA1943F0010346F033
:107D700001066E602046BA60536000F043F9083592
:107D8000284603B0BDE8F08FD9681A44A1E600BFC9
:107D90007C0400208404002084080020E00D0020E2
:107DA000B00D0020D80D0020DC0D0020B2F5206FB2
:107DB0004FEA522363D3142B00F2B78003F15C0126
:107DC000C9005B3307EB010E7958AEF1080E8E4502
:107DD00000F091804B6823F00303934202D9896835
:107DE0008E45F7D1D1F80CE07A68C5E9021ECEF8CD
:107DF0000850CD60D6E6142B59D9542B00F29D8043
:107E0000330B03F16F0003F16E0CC3008AE60EF131
:107E1000010E1EF0030F05F108057FF4D5AE51E009
:107E2000424445465368D8F80C1043F001035360B0
:107E300055F8083F2046D9608B6000F0E3F8F3E680
:107E4000F00806F1080237E62A442046536843F05A
:107E500001035360083500F0D5F8E5E6A91920467E
:107E600046F0010643F001046E60C7E90411C1E960
:107E700002CC4C60AB5000F0C5F80835D4E693094D
:107E800003F13901C90038339CE7BD425FD0BD68BA
:107E9000686820F003084645A8EB060302D80F2BBC
:107EA0003FF762AF204600F0ADF80025BCE603F1D5
:107EB0005C0003F15B0CC30034E659F808394B450C
:107EC00040F0968010F0030F00F1FF30F5D17B6891
:107ED00023EA01037B60490099423FF6C0AE19B91D
:107EE000BDE649000EF1040E1942FAD0704667E66D
:107EF00003F11008D0E69A104FF001087B6808FAE9
:107F000002F21A437A6070E702EB08014942C1F3BA
:107F10000B0A51462046009200F05CFC431CDDE950
:107F200000237FF4EFAEDA46EFE6542B25D8130B8F
:107F300003F16F01C9006E3344E7B3F5AA7F25D87A
:107F4000F30B03F1780003F1770CC300EAE5294B4A
:107F5000186840441860B1E6CAF30B0CBCF1000F7E
:107F60007FF4ACAEBD68C84448F001006860F0E63C
:107F70001546EEE60123536094E7B3F5AA7F23D8B4
:107F8000D30B03F17801C90077331BE740F2545259
:107F9000934223D8B30C03F17D0003F17C0CC300A2
:107FA000C0E5ABF1080BD844A8EB02084FF0000A7B
:107FB000ABE605F1080120460093FFF78FFBBD6893
:107FC000009B68681968C4E640F254518B420BD894
:107FD000930C03F17D01C9007C33F3E64FF47E730B
:107FE0007F204FF07E0C9DE54FF47E717E23E9E605
:107FF0007B6870E7B00D00200148FFF7A1BC00BF0F
:10800000A40D00200148FFF79DBC00BFA40D002077
:10801000C36C70B505460C464BB153F8240080B1D3
:10802000026843F824200023C0E9033370BD2122F5
:10803000042101F02BFC0346E8640028EDD1002068
:1080400070BD012101FA04F6721D9200284601F06C
:108050001DFC0028F3D0C0E90146E4E731B1C36C50
:108060004A6853F82200086043F82210704700BFA6
:108070002DE9F0410D6907460E461C4601F1140E2C
:108080000020DEF800108BB202FB03434FEA134CD2
:10809000090C02FB01CC01309BB203EB0C4385427F
:1080A0004EF8043B4FEA1C44EBDC3CB1B368AB42F6
:1080B00007DD06EB850301355C6135613046BDE8BF
:1080C000F081716838460131FFF7A2FF8046A8B100
:1080D0003269023206F10C0192000C30F9F730FBE4
:1080E000FB6C726853F82210316043F822604646F8
:1080F00006EB850301355C613561DFE7024B034820
:108100004246B52101F0A2FB20B10008B4B100083D
:10811000020C12040346CAB90304102013F07F4F67
:1081200004BF1B02083013F0704F04BF1B01043062
:1081300013F0404F04BF9B000230002B05DB13F00F
:10814000804F00F1010008BF202070470020E5E7C4
:108150000368024613F0070007D0D9071DD498071B
:108160001FD55B0813600120704799B209B91B0C39
:108170001020D9B209B908301B0A190704BF1B091E
:108180000430990704BF9B080230D90703D45B0869
:1081900000F1010003D013607047002070472020D9
:1081A00070479B0813600220704700BF38B5C36C4E
:1081B00004460D464BB15868B0B102685A600022BF
:1081C0000123C0E90435C26038BD2122042101F039
:1081D0005DFB0346E0640028EDD1094B094800220D
:1081E0004FF4A07101F032FB1C220121204601F066
:1081F0004DFB0028F1D001220223C0E90123DEE774
:1082000020B10008B4B100082DE9F04F0E691569DE
:10821000AE4285B08846144605DB2A4623463546DD
:108220000C4616469846A3686168AF19BB42B8BFB2
:108230000131FFF7EDFE0190002800F08780019BDF
:1082400003F1140909EB870AD14505D24B460022F8
:1082500043F8042B9A45FBD808F1140808EB860B69
:1082600004F11403D8451A4603EB85055FD22B1B96
:10827000153B23F0030304331534A54238BF042310
:10828000CDE902A7AC461F46924605E0000C29D175
:10829000C34509F1040948D958F8040B85B2002DEB
:1082A000F4D056464C46002356F8040B216882B29F
:1082B0001FFA81FE05FB02EE000C0A0C734405FB5D
:1082C000002202EB13429BB243EA0243B44544F856
:1082D000043B4FEA1243E7D849F8073058F8040C3A
:1082E000000CD5D0D9F80030544619464D4600222E
:1082F0002688090C00FB06110A449BB243EA02439C
:1083000045F8043B54F8046B2968360C8BB200FB2B
:10831000063303EB1243A4454FEA1342E8D8C345A2
:1083200049F8073009F10409B6D8DDE902A7002FA2
:1083300002DC05E0013F03D05AF8043D002BF9D0E0
:10834000019B18461F6105B0BDE8F08F034B044840
:10835000019A40F25D1101F079FA00BF20B10008E6
:10836000B4B1000812F003032DE9F04114460646AB
:1083700032D10D46A41020D0D6F84880B8F1000FB5
:1083800033D0E3074FF0000707D4641015D0D8F8B6
:108390000000A8B18046E307F7D54246294630469B
:1083A000FFF732FFB5B16968F36C641053F8212010
:1083B0002A6043F821500546E9D12846BDE8F081FE
:1083C000424641463046FFF71FFFC8F800000760ED
:1083D0008046E0E70546D8E7013B0F4A52F82320E4
:1083E0000023FFF745FE0546C4E701213046FFF7AD
:1083F0000FFE804640B1012340F27122C0E90432F1
:108400000023B0640360BCE7044B054842464FF4C8
:10841000A07101F01BFA00BF28B3000820B10008CA
:10842000B4B100082DE9F0470C4690462669A368D0
:10843000496806EB6216751C9D4207464FEA6219B1
:1084400004DD5B009D4201F10101FADC3846FFF7D3
:10845000DFFD8446002851D0B9F1000F00F114006F
:108460000EDD09F105024FEA820E03460CEB820293
:10847000002143F8041B9342FBD1AEF114031844CE
:10848000216904F1140318F01F0803EB81012DD0BA
:10849000C8F1200986464FF0000A1A6802FA08F26D
:1084A00042EA0A024EF8042B53F8042B994222FAAE
:1084B00009FAF2D80B1B153B23F00303043304F134
:1084C0001502914238BF0423BAF1000F18BF2E469F
:1084D00040F803A0FB6C6268CCF8106053F82210DF
:1084E0002160604643F82240BDE8F087043853F825
:1084F000042B40F8042F9942F9D8EBE7034B0448CA
:10850000624640F2D91101F0A1F900BF20B1000884
:10851000B4B100080B6984460069C01A15D10CF18A
:10852000140C14310CEB830210B401EB830301E053
:10853000944508D252F8044D53F8041D8C42F7D0EC
:1085400004D24FF0FF3010BC70477047012010BCC0
:10855000704700BF2DE9F84F0F691369FF1A002F0C
:108560000E4690467AD101F11405143202EB8302D3
:1085700005EB830301E09D4273D253F8041D52F8CA
:10858000044DA142F7D064D37168FFF741FD8146E5
:10859000002872D03569D8F81020C76008F1140E91
:1085A00006F1140009F1140A06F1100C0EEB820218
:1085B00000EB8507564600215EF8044B5CF804BFCB
:1085C000A3B211FA8BF1CB1A210CC1EB1B4101EBC9
:1085D00023419BB243EA0143724546F8043B4FEA0C
:1085E0002141E9D8A2EB0804153C08F115084245E1
:1085F00024F0030606F1040638BF0426304424F0B4
:10860000030238BF002287425244B24416D956466C
:10861000044654F8043B11FA83F10A1402EB1342A6
:1086200089B241EA0243A74246F8043B4FEA22419D
:10863000EFD87A1E101A20F00302524423B952F8E0
:10864000043D013D002BFAD0C9F810504846BDE862
:10865000F88F334601274646984695E7F9DB002711
:1086600092E70021FFF7D4FC814668B10122002384
:10867000C9E904234846BDE8F88F074B07484A4636
:108680004FF4107101F0E2F8034B04484A4640F2FF
:10869000322101F0DBF800BF20B10008B4B10008BE
:1086A00070B5012182B016461D46FFF7B1FC0446A5
:1086B00000284BD02B46C5F30A55C3F313030DB165
:1086C00043F48013002E019322D068460096FFF7F2
:1086D0003FFD002836D0019B0099C0F1200203FA2B
:1086E00002F20A43C34001936261002B14BF0221CE
:1086F0000121A3612161ADB1069AA5F23343034480
:108700001360079BC0F135001860204602B070BDB1
:1087100001A8FFF71DFD019B0121C4E904132030CE
:10872000002DE9D104EB8102A0F232431069069AD0
:108730001360FFF7EDFC079BC0EB41112046196069
:1087400002B070BDDDE900236261CEE7034B04484F
:10875000224640F20A3101F079F800BF20B100084A
:10876000B4B10008DFF860C0F8B521F0004300277D
:10877000634504460D461646176022DC844653EADC
:108780000C0C1ED0DFF844C001EA0C0C0A46BCF108
:10879000000F09D10E4B0022F7F70EFF6FF03507DF
:1087A00004460A4621F0004322F0FF421B1522F442
:1087B000E002A3F2FE3342F07F553B4445F400153E
:1087C000336020462946F8BDFFFFEF7F0000F07FB1
:1087D0000000504338B5074D0022044608462A6081
:1087E00001F000FF431C00D038BD2B68002BFBD0EC
:1087F000236038BDE40D002010B50C46B1F90E1011
:1088000001F0E4FB002803DB236D0344236510BD66
:10881000A38923F48053A38110BD00BF2DE9F0414B
:108820000C46B1F90C101F46CB05054616460BD475
:1088300021F48051A1813B46B4F90E1032462846FE
:10884000BDE8F04100F0A6BFB4F90E1002230022EB
:1088500001F014FBB4F90C10EAE700BF10B50C46A8
:10886000B1F90E1001F00AFBA389421C0EBF23F4DC
:10887000805343F480532065A38110BDB1F90E10DD
:1088800001F040B830B540EA0104A30701D1032A42
:108890000FD8844601F1FF3E07E01EF8011F03F8E0
:1088A000011B541EC1B19C4622466346002AF4D1E6
:1088B00030BD0B468446194653F8045BA5F10134DC
:1088C00024EA050414F0803FE4D1043A032A4CF86A
:1088D000045B1946EFD8DDE76244002CE8D003F8CA
:1088E000011B9342FBD130BD2DE9F84F4B6E9C0428
:1088F00090462DD59368126843B38B46064602F125
:10890000080959E9025A5FEA9A0715D0043D002484
:1089100001E0A7420ED055F8041F5A46304601F038
:10892000D7F8431C04F10104F3D10023C8E9013353
:10893000BDE8F88FD8F808302AF0030AA3EB0A0341
:10894000C8F8083009F10809002BDAD10020ECE75B
:1089500001F008F90023C8E90133BDE8F88F00BF32
:1089600010B4946814B110BCFFF7BEBF2046546029
:1089700010BC70472DE9F04FBDB0CDE904301C4666
:108980000191174618B1836B002B00F08682019A83
:10899000536EDE0740F18F81B2F90C108AB2900459
:1089A00008D441F4005201994B6E8A8123F400539C
:1089B00092B24B66110740F1F780019B1B69002BB7
:1089C00000F0F28002F01A030A2B00F0FB8013ABD8
:1089D00010930023CDE91133CDE90A3308930DF14B
:1089E0004C09099303933B78002B00F051813C46DE
:1089F00004E014F8013F002B00F02C81252BF8D166
:108A0000E51B40F029812378002B00F041814FF0D5
:108A1000000300258DF83B30671C637802954FF00A
:108A2000FF3B2B240137A3F120025A2A00F2528186
:108A3000DFE812F0980250015001940250015001F9
:108A400050016A005001500136026B025001410290
:108A5000A6025001A2025B005B005B005B005B00B2
:108A60005B005B005B005B00500150015001500156
:108A70005001500150015001500123028400500167
:108A8000500150015001500150015001500150015E
:108A90005001DD0050015001500107025001590200
:108AA000500150011E05500150015001500150016C
:108AB0005001500150015001500123028600500125
:108AC000500150014F0286008000500145025001C4
:108AD0008102DF006F028000500107027E003E0528
:108AE00050015001400550017E00A3F130020021E9
:108AF00017F8013B01EB810102EB4101A3F13002C8
:108B0000092AF5D902918EE7DDF814804046FEF778
:108B10000FFF43680A931846F8F752FD0B9006467C
:108B20004046FEF705FF83680993002E40F07B84E2
:108B30003B7877E73B7845F0200573E745F0100573
:108B4000AC06049E40F16F81073626F007063246D8
:108B5000736852F8086B04929846002BC0F22D847B
:108B6000BBF1FF3F00F0108556EA080325F0800AAC
:108B700000F008840A2E78F1000380F0BD843036BE
:108B800001238DF8EF60554600930DF1EF04DDF8F9
:108B900000809DF83B30D845B8BFD846002B00F088
:108BA000A88008F10108A4E0019D05982946FDF779
:108BB0006BFB002840F08885AA8902F01A030A2B73
:108BC0007FF405AF0199B1F90E30002BFFF6FFAE2F
:108BD0004B6EDE0702D4950540F156850199059844
:108BE00023463A463DB0BDE8F04F00F093BD45F056
:108BF000100515F0200800F00781049E073626F0C6
:108C000007063346D6F8048053F8086B049325F41E
:108C1000806A00234FF000028DF83B20BBF1FF3F3C
:108C200000F0C88156EA08022AF0800540F0C181B0
:108C3000BBF1000F40F0AB84002B40F0A8831AF08A
:108C40000103009300F0D68330238DF8EF300DF14F
:108C5000EF049CE7E51B1BD0119B129A01332A44B9
:108C6000072BC9E900751292119305DC09F1080977
:108C7000039B2B440393C6E6002A00F07F830199EF
:108C8000059810AAFFF730FE40B90DF14C09EFE747
:108C9000129B002B40F0098500231193019A536E1B
:108CA000D90740F1A68093895B0600F119850398E6
:108CB0003DB0BDE8F08F019BB3F90C108D058AB271
:108CC0003FF56DAE1D46986DFEF73AFEB5F90C10F6
:108CD0008AB264E6002BDBD08DF88C304FF00108AF
:108CE0004FF000038DF83B30CDF8008023AC4FF0FF
:108CF000000B15F00203069318BF08F1020815F0E7
:108D00008403079305D1029BA3EB0806002E00F312
:108D10006C82DDE91121501C9DF83B608EB10DF194
:108D20003B020131C9F8002007284FF00102CDE9CC
:108D30001101C9F8042000F33B82024609F1080939
:108D40000130069BDBB10FAB0231C9F800300728B8
:108D50004FF00203CDE91101C9F8043040F340821D
:108D6000002900F006830199059810AAFFF7BCFDC1
:108D7000002893D1DDE911210DF14C09501C079B0E
:108D8000802B00F05881009BABEB0306002E00F314
:108D9000B681009BC9F8004019440728CDE91101AC
:108DA000C9F8043040F34481002900F0728201992F
:108DB000059810AAFFF798FD00287FF46FAF12996D
:108DC0000DF14C09680705D5029BA3EB0804002CA4
:108DD00000F36982DDE902234245ACBF9B1843449E
:108DE0000393002940F0D581002311930DF14C0924
:108DF000F9E5019B9B899A053FF556AF019CA06D53
:108E0000FEF7A0FDA3894FE715F0100340F0238380
:108E100015F0400200F0EB83049A52F8046B0492C0
:108E20009846B6B2F3E656F8043B0496E80600F11D
:108E3000ED82690640F1E78243F3C0381EB2434633
:108E40008BE6049E56F8044B4FF000038DF83B3040
:108E5000002C00F0B183BBF1FF3F00F02E835A4697
:108E600000212046F8F71CFC002800F01284031BA8
:108E7000009304964FF0000B89E6049E4FF0000328
:108E80008DF83B304FF0010856F8043B8DF88C30DC
:108E90000496CDF8008023AC29E7FEF727FB76E5A2
:108EA000049B53F8042B0292002A80F29F82029ABC
:108EB0000493524202923B7845F00405B2E53B78B8
:108EC0006C2B03BF7B7845F02005013745F010057A
:108ED000A8E53B78682B03BF7B7845F40075013724
:108EE00045F040059EE545F0100A1AF0200800F014
:108EF0005582049E073626F007063346D6F80480CE
:108F000053F8086B0493012384E63B788DF83B40CB
:108F100088E5049B53F8046B049330238DF83C30B0
:108F200078238DF83D30B94B089345F0020A4FF095
:108F3000000802236EE6AE0600F18382EC0600F123
:108F40003383680600F19283A90540F12D83049EC6
:108F5000039A56F8043B04961A7044E53B7845F0B2
:108F600001055FE59DF83B30002B7FF4E1AD202348
:108F70008DF83B303B7855E53B7845F0800551E571
:108F8000394611F8013B2A2B00F0B383A3F13002DC
:108F9000092A0F464FF0000B3FF645AD17F8013B8D
:108FA0000BEB8B0B02EB4B0BA3F13002092AF5D92B
:108FB00039E5AA46012B3FF4DDAD022B3CAC12D1C2
:108FC000089A06F00F033609D35C04F8013D46EA1F
:108FD00008764FEA181856EA0803F2D13CAB1B1B7F
:108FE00055460093D3E506F00703F60846EA4876AF
:108FF0004FEAD808303356EA0801224604F8013D0A
:10900000F1D11AF0010FE9D0302BE7D03023023A2A
:1090100004F8013C3CAB9B1A554600931446B6E558
:109020000099139401231491129111930DF14C099D
:1090300009F10809C6E6029BA3EB0806002E7FF79C
:10904000A2AE102E40F35183DFF8C4A15346CDE900
:1090500006B4BA46DDF814B0019C2F461D4607E061
:1090600002F1020C09F108090246103E102E1EDD25
:10907000501C103110230728CDE91101C9F8005008
:10908000C9F80430ECDD10AA002900F08B802146DD
:1090900058460DF14C09FFF727FC00287FF4FEAD80
:1090A000DDE91121103E102E02F1010CE0DCDDE9BA
:1090B00006B42B463D4657469A463144BCF1070F4D
:1090C000CDE911C1C9F800A0C9F8046040F3958149
:1090D000002900F0BB820199059810AAFFF704FC53
:1090E00000287FF4DBAD009BDDE91121ABEB03062B
:1090F000002E02F101000DF14C097FF74AAE102E4F
:10910000DFF80CA131DD5346CDE90645BA46059C92
:10911000019D4FF0100B1F4607E002F1020C09F110
:1091200008090246103E102E19DD501C1031072888
:10913000C9E9007BCDE91101EFDD10AA19B3294679
:1091400020460DF14C09FFF7CFFB00287FF4A6ADB8
:10915000DDE91121103E102E02F1010CE5DCDDE904
:1091600006453B46604657469A4631440728CDE9B6
:109170001101C9F800A0C9F8046000F3E68009F104
:109180000809013005E64FF0010C0A460DF14C09C3
:10919000C8E70199059810AAFFF7A6FB00283FF43D
:1091A00023AE7BE54FF0010C0A460DF14C095CE75C
:1091B000002900F0DB800199059810AAFFF794FBC5
:1091C00000287FF46BADDDE911210DF14C09501C35
:1091D000B7E502210FAB1491139301200DF14C0957
:1091E000024609F10809501CC9E5102E40F35782C8
:1091F000DDE911C1DFF81CA0CDE90CB41023544601
:10920000DDF804B0DDF814A062460DE0BCB0000843
:1092100044B3000834B3000802F1020C09F1080954
:109220000246103E102E1BDD501C10310728C9E9E4
:109230000043CDE91101EFDD10AA21B35946504694
:109240000DF14C09FFF750FB00287FF427ADDDE955
:109250001121103E102E02F1010C4FF01003E3DC3F
:10926000A246DDF830B00D9C62463144072ACDE9B4
:109270001121C9F800A0C9F8046000F3A78009F122
:109280000809501C48E50A464FF0010C0DF14C0945
:10929000C7E76C07119150D5029BA3EB0804002C83
:1092A0004BDD0DF14C09102C40F30982DFF8ECA2E4
:1092B000119A059EDDF804B053461025BA461F46A4
:1092C00006E0901C09F108091A46103C102C19DD23
:1092D000531C1031072BC9E90075CDE91131F0DDC0
:1092E00010AA29B359463046FFF7FEFA00287FF44A
:1092F000D5ACDDE91121103C102C02F101000DF17B
:109300004C09E5DC3B4657469A4621440728C9E903
:1093100000A4CDE911017FF75DAD71B10199059808
:1093200010AAFFF7E1FA00287FF4B8AC129951E5D2
:1093300001200A460DF14C09C7E7DDE90223424549
:10934000ACBF9B18434403934EE500293FF468AE3D
:109350000199059810AAFFF7C7FA00287FF49EAC80
:109360001198129901300DF14C0912E5069B002B62
:1093700077D101200A460DF14C0900E511920DF15B
:109380004C0975E4BBF1000F7FF4F9AB55464FF083
:10939000000BCDF800B03CACFFF7F9BB1AF010039E
:1093A0003AD11AF0400200F01381049A52F8046B8B
:1093B00004929846B6B201232CE42D2376428DF810
:1093C0003B3068EB4808AA46012327E400297DD0FA
:1093D0000199059810AAFFF787FA00287FF45EAC80
:1093E000DDE911210DF14C09501C95E404933B7803
:1093F000FFF718BB3CACFFF7CABB09F108090CF139
:1094000001006246BFE4AA0500F138814FEAE37823
:109410001E464346FFF7A1BB049B53F8046B04931D
:109420000123FFF7F7BB099B002B3FF481AB099B9E
:109430001B78002B3FF47CAB3B7845F48065FFF74D
:10944000F1BADDE9031656F8042B0496CB17C2E9EE
:109450000013FFF7C8BA049B53F8046B0493FFF79B
:10946000D6BB02210FAB149113930DF14C09B8E652
:109470004B4A089215F0200836D0049E073626F095
:1094800007063246D6F8048052F8086B0492EA07C1
:1094900009D556EA080206D08DF83D30302345F054
:1094A00002058DF83C3025F4806A0223FFF7B2BB39
:1094B000AA461AE53B4A0892DCE720460496F8F7EC
:1094C0007FF84FF0000B0090FFF761BB9DF83B2049
:1094D000002A00F0C18001200DF13B02149013928C
:1094E0000DF14C09014628E415F0100242D0049A0F
:1094F00052F8046B0492CAE70AF48063CDF800B016
:10950000CDF81890BB46DDF8249000253CAC1F46F2
:1095100009E030464146F7F747FD0A2E78F100038F
:109520001BD306468846304641460A220023F7F7F9
:109530003BFD1146303104F8011C0A220023013C96
:109540000135002FE5D099F80010A942E1D1FF2D97
:10955000DFD00A2E78F1000364D23CAB1B1BCDF8A0
:1095600024905F46DDF81890DDF800B00093554672
:10957000FFF70DBB15F0400147D0049951F8046B7B
:1095800004919046B6B282E7AA46FFF7F3BA012BE0
:10959000AA467FF412ADFFF7F2BA00BF34B3000859
:1095A000D0B00008BCB00008049E039A56F8043BF3
:1095B0001A600496FFF717BABBF1060FD84628BF0A
:1095C0004FF00608504CCDF800800496FFF78FBB93
:1095D000049B1AF4007814BF53F8046B53F8046B1F
:1095E00004931CBF9046F6B20123FFF713BB049B04
:1095F00015F4007814BF53F8046B53F8046B04930C
:109600001CBF9046F6B2FFF702BB049A15F400782F
:1096100014BF52F8046B52F8046B04921CBF8846C6
:10962000F6B234E70B9B0A99E41A1A462046FFF774
:1096300029F999F801300BB109F101093046414689
:109640000A2200230025F7F7AFFC6AE701200A464B
:109650000DF14C09FFF797BB069B002B7FF4B9ADCA
:109660000A4601200DF14C09FFF78DBB049E039AB9
:1096700056F8043B04961A80FFF7B5B943F3C018B7
:109680005EB24346FFF769BA886DFEF75BF9FFF7F4
:10969000A5BACDF800B004968346FFF778BA119AC0
:1096A0001299DFF868A00132DFE50199059810AA48
:1096B000FFF71AF900283FF4EFAAFFF7EFBA119865
:1096C000DFF848A0013020E6019B5B6EDB0707D482
:1096D000019B9B899F0503D4019B986DFEF732F98E
:1096E0004FF0FF330393FFF7E2BADFF824A084467C
:1096F000E3E4049A7B780F4652F8041B049241EA93
:10970000E17BFFF78FB900BFE4B0000834B3000875
:1097100044B30008F0B51F468B89ADF26C4D23F0C1
:109720000203ADF80C304B6E1993CB89ADF80E30B7
:10973000CB6907934B6A09931AAB009304934FF4D8
:109740008063154606460293059316A800230C462F
:109750000693FEF7F1F82A463B4669463046FFF786
:1097600009F9051E07DB69463046FDF78BFE002828
:1097700018BF4FF0FF35BDF80C305B0603D5A38949
:1097800043F04003A3811698FEF7D8F828460DF25F
:109790006C4DF0BD38B50C46084D84461146204648
:1097A0001A4600232B606446F8F7C6FB431C00D022
:1097B00038BD2B68002BFBD0236038BDE40D0020A2
:1097C0002DE9F047DFF87CA00646DAF8000098465D
:1097D0000F469146FEF7B4F81B4B1B68D3F848417F
:1097E00024B365681F2D26DC5EB96B1C0235DAF8E0
:1097F0000000636044F82570FEF7A4F80020BDE87F
:10980000F08704EB85010123C1F88890D4F8882102
:10981000AB401A43022EC4F88821C1F80881E4D174
:10982000D4F88C211343C4F88C31DEE703F5A67419
:10983000C3F84841D5E7DAF80000FEF783F84FF0A7
:10984000FF30DCE778040020A8B0000800B50B4C1E
:1098500025681446EE681A4685B003460D464CB19D
:1098600007490095CDE901143046064900F0C8F8D3
:1098700000F032FE04490C46F3E700BF4C00002024
:1098800054B3000864B30008F8AE000838B5A1FB73
:1098900002148CBBFEF700F90546E0B150F8042C29
:1098A00022F00302043A242A17D8132A1AD91B2AB1
:1098B000C0E900441DD9242A14BF00F1100200F1B0
:1098C00018024FF00003C0E9024404BF0461446180
:1098D000C2E900339360284638BD2146FAF7A2FD5D
:1098E000284638BD02460023C2E90033936028466B
:1098F00038BD00F10802F6E700F016F80C23002549
:109900000360E8E738B5074D0022044608462A60A0
:1099100000F030FE431C00D038BD2B68002BFBD07C
:10992000236038BDE40D0020014B1868704700BF6C
:109930004C00002070B500294BD006460C4610B1F3
:10994000836B002B48D0636ED80734D5B4F90C3044
:10995000002B3ED021463046FDF704FDE36A054664
:1099600033B1E169304698470028B8BF4FF0FF3562
:10997000A3891A063BD4216B41B104F140039942FB
:1099800002D03046FDF7AAFE00232363616C21B1AB
:109990003046FDF7A3FE00236364FDF72DFE636EE2
:1099A0000022DB07A28127D5A06DFDF7C7FFFDF7D9
:1099B00029FE284670BDA3899905CBD4A06DFDF77B
:1099C000BFFFB4F90C30002BC4D1656E15F0010552
:1099D00008D00025284670BDFDF788FD636ED807C6
:1099E000B4D4E8E7A06DFDF7ADFF284670BD21694E
:1099F0003046FDF773FEBEE7A06DFDF7A3FFD3E78A
:109A00000EB410B583B005AB064C53F8042B01938C
:109A100001462068FEF7AEFF03B0BDE8104003B07A
:109A2000704700BF4C0000202DE9F04383B007468B
:109A30008846144600F01CFA012803D108F1FF33D0
:109A4000FE2B37D9424604F15C0301A9384600F0E9
:109A500017FD421C064633D038B39DF804C00DF103
:109A60000509002509E023685A1C226083F800C01C
:109A70000135B54219D219F801CBA368013B002B7F
:109A8000A360F0DAD4F818E0734561462246384600
:109A900002DBBCF10A0FE6D100F09AFC431CE7D1CF
:109AA0000646304603B0BDE8F0834646304603B074
:109AB000BDE8F0835FFA88FC8DF804C00646CEE767
:109AC000A389304643F04003A38103B0BDE8F0838F
:109AD00030B5536E13F0010FB2F90C30144683B059
:109AE00005469AB201D198051CD5900406D4626E41
:109AF00043F4005342F40052A38162662246284692
:109B0000FFF792FF636EDA07054602D4A3899B052F
:109B100002D5284603B030BDA06DFDF713FF2846DF
:109B200003B030BDA06D0191FDF70AFFB4F90C3010
:109B300001999AB2D9E700BF70B50C46084D0346AB
:109B40000026204611461C462E6000F01BFD431CDB
:109B500000D070BD2B68002BFBD0236070BD00BF10
:109B6000E40D00209368002B00F081802DE9F04F78
:109B7000B1F90C300C461907804683B0174698B2ED
:109B800023D523690BB310F002033D682BD04FF0AF
:109B9000000ADFF8B4B256465E453346524628BF47
:109BA0005B464046002E4FD0E169D4F824C0E04720
:109BB000002852DDBB681B1A8244361ABB60002B9A
:109BC000EAD1002003B0BDE8F08F21464046FCF703
:109BD0005BFB002840F03481B4F90C303D6898B24A
:109BE00010F00203D3D110F0010942D14E463EB32A
:109BF0008205D4F808B040F18180B3455A4600F29E
:109C0000B18010F4906F40F0BE8020680192494608
:109C100000F060F9A3682168019AA3EB0B030A44E2
:109C2000B246A36022600026B868A0EB0A00D144C7
:109C3000B8600028C5D0B4F90C0080B2002ED7D18E
:109C4000D5E900960835D2E7D5E900A60835A3E79F
:109C500021464046FDF716FC80B3B4F90C3043F0C2
:109C600040034FF0FF30A38103B0BDE8F08F002028
:109C700070471E46AA46994618461D4656B388B3F5
:109C80004A46D4E904132068B24228BF32468842CB
:109C900005D9A16803EB010B5A4500F3A780934255
:109CA00064DCE169D4F824C02A464046E047B0F1BC
:109CB000000BD2DDB9EB0B09CAD00120BB68A3EBC6
:109CC0000B035D44A6EB0B06BB60002B3FF479AFA2
:109CD000002ED4D10AF1080353E902569A460833FC
:109CE000002EF9D032460A212846F7F7D9FC002881
:109CF00000F09D800130A0EB0509C1E720682369D1
:109D0000984217D86369B34214D86FF00042B24248
:109D100028BF3246E16992FBF3F2D4F824C002FB7B
:109D200003F340464A46E047B0F1000A95DDA6EB52
:109D30000A0679E7B345DA4628BFB2465246494695
:109D400000F0C8F8A3682268A3EB0A035244A3609A
:109D50002260002BEBD121464046FDF793FB002803
:109D6000E5D07AE72068B34632464FE729460192AC
:109D700000F0B0F8019AA3689B1AA360236813440B
:109D80002360934696E723682169A3EB010B63697F
:109D900003EB430A0AEBDA7A0BF101034FEA6A0A92
:109DA00033445345524684BF9A46524643052CD508
:109DB00011464046FDF770FE00283BD05A46216907
:109DC0000190F7F7BDFCA289019B22F4906242F05A
:109DD0008002A28103EB0B002361AAEB0B03C4F802
:109DE00014A0A3602060B34632460FE729465A46C6
:109DF00000F070F823685B44236021464046FDF77D
:109E000041FB00283FF456AF27E7404600F0F4F846
:109E100003460028DED121694046FDF75FFCB4F916
:109E20000C300C2223F08003C8F8002017E7721CC6
:109E3000914626E70C22B4F90C30C8F800200EE752
:109E40004FF0FF30BEE600BF00FCFF7F38B5074D86
:109E50000022044608462A6000F0A4FB431C00D000
:109E600038BD2B68002BFBD0236038BDE40D0020EB
:109E7000014B93F8280170478C08002038B50C4638
:109E8000084D8446114620461A4600232B6064463E
:109E900000F098FB431C00D038BD2B68002BFBD092
:109EA000236038BDE40D002082B049B15AB16BB1D6
:109EB00013780B601278101E18BF012002B0704793
:109EC00001A9002AF3D1104602B070476FF00100DB
:109ED000F4E700BF88420DD98B1883420AD900EB02
:109EE000020CBAB1624613F801CD02F801CD9942D5
:109EF000F9D170470F2A0ED8034602F1FF3C4AB150
:109F00000CF1010C013B8C4411F8012B03F8012FDB
:109F10006145F9D1704740EA01039B0750D1A2F196
:109F2000100370B501F1200C23F00F0501F1100EA4
:109F300000F11004AC441B095EF8105C44F8105C9E
:109F40005EF80C5C44F80C5C5EF8085C44F8085C55
:109F50005EF8045C44F8045C0EF1100EE64504F172
:109F60001004E9D1013312F00C0F01EB031102F0E0
:109F70000F0400EB031327D0043C24F003064FEA40
:109F8000940C1E441C1F8E465EF8045B44F8045F6C
:109F9000B442F9D10CF1010402F0030203EB840393
:109FA00001EB840102F1FF3C4AB10CF1010C013BD1
:109FB0008C4411F8012B03F8012F6145F9D170BDD4
:109FC00002F1FF3C03469BE72246EBE738B50C461F
:109FD000084D8446114620461A4600232B606446ED
:109FE00000F0F8FA431C00D038BD2B68002BFBD0E2
:109FF000236038BDE40D00202DE9F84F17460029F5
:10A0000000F0988007F10B0580460C46FDF7F4FF41
:10A01000162D5DD810252A46AF425ED854F8041C90
:10A0200021F003069642A4F1080962DABC4BD3F88A
:10A0300008C009EB0600844500F09780D0F804C002
:10A040002CF0010303445B68DB0768D42CF0030C9D
:10A0500006EB0C03934247DACB0710D454F8083CC4
:10A06000A9EB030ADAF8043023F003018C44B4446A
:10A07000944580F211817318934280F2E88039464A
:10A080004046FDF709FD0746E0B154F8043C23F0D3
:10A0900001034B44A0F10802934200F0D280321F2A
:10A0A000242A00F2F580132A00F2AC8003462246EF
:10A0B000116819605168596092689A60214640465B
:10A0C000FDF70CFB4046FDF79DFF3846BDE8F88FD5
:10A0D00025F00705002D2A469EDA0C23C8F800302B
:10A0E00000273846BDE8F88F1E46D0E90223D3602A
:10A0F0009A60731B0F2B22D8D9F8043003F00103A8
:10A1000033434E44C9F80430736843F0010373606D
:10A1100040462746FDF776FF3846BDE8F88FC90769
:10A12000ADD454F8083CA9EB030ADAF8041021F086
:10A130000301A0E7BDE8F84F1146FDF7ADBCD9F823
:10A14000041001F001012943C9F8041009EB0501CD
:10A150004E4443F001034B60736843F00103083140
:10A1600073604046FDF7BAFAD2E7DCF8040020F04D
:10A17000030B06EB0B0C05F1100084454DDAC90703
:10A180003FF57DAF54F8081CA9EB010ADAF804107A
:10A1900021F003018B44B34458453FF76CAF574659
:10A1A000DAF80C1057F8080F321F242AC1608860B3
:10A1B00000F2DB80132A40F2D6802168CAF808102A
:10A1C0006168CAF80C101B2A00F2DF8008340AF11B
:10A1D00010022168116061685160A16891600AEB0A
:10A1E0000501ABEB050242F0010299604A60DAF822
:10A1F000043003F001031D434046CAF80450FDF744
:10A2000001FF6EE723680360636843601B2A68D818
:10A2100004F1080200F108034AE709EB05029A601D
:10A22000ACEB050343F00103536054F8043C03F026
:10A2300001031D43404644F8045CFDF7E3FE274656
:10A240004FE750F8043C23F003031E4451E7574600
:10A25000DAF80C1057F8080F321F242AC160886002
:10A260004CD8132A48D92168CAF808106168CAF87E
:10A270000C101B2A56D808340AF110021E46236817
:10A28000136063685360A3689360D1463C4630E72F
:10A290002146FFF71FFE11E7D0E902135746CB60B6
:10A2A000996057F8081FDAF80C30CB60321F242A67
:10A2B00099602DD8132A29D92368CAF80830636811
:10A2C000CAF80C301B2A42D808340AF1100322685D
:10A2D0001A6062685A60A2689A606646D1463C4637
:10A2E00007E7A3688360E368C360242A26D004F1EB
:10A2F000100200F11003DBE63A46BFE7214638467C
:10A300001E46D146FFF7E6FD3C46F2E63B46DEE759
:10A31000214638466646D146FFF7DCFD3C46E8E676
:10A320007C040020A168CAF81010E168CAF8141073
:10A33000242A20D010340AF118029FE72369036110
:10A340006169416104F1180200F11803B0E6A368E5
:10A35000CAF81030E368CAF81430242A21D0103427
:10A360000AF11803B3E73A4633E721463846FFF7C8
:10A37000B1FD164B33E72269CAF818206269CAF8A2
:10A380001C2018340AF1200278E7A168CAF81010DE
:10A39000E168CAF81410242A0DD010340AF118020A
:10A3A00017E72369CAF818306369CAF81C301834F3
:10A3B0000AF120038BE72269CAF818206269CAF8FB
:10A3C0001C2018340AF1200203E700BF7C0400209F
:10A3D000F8B50D461446064610B1836B002B43D0EA
:10A3E000B4F90C20A369A360170790B21BD52369A9
:10A3F000CBB1EDB281042F4622D522686169D31A10
:10A40000994229DD0133A1680139A160511C216005
:10A41000157062699A422AD0A389DB0701D50A2DFB
:10A4200025D03846F8BD21463046FBF72DFF20BB2E
:10A43000B4F90C20236990B2EDB281042F46DCD42C
:10A4400042F40052A281626E616922F40052626697
:10A450002268D31A9942D5DC21463046FDF712F81E
:10A4600058B922680123CEE7FDF740F8B8E7214646
:10A470003046FDF707F80028D3D04FF0FF37D0E77C
:10A4800070B5054684B01C4639B10B4ED6F8E06075
:10A49000B047431C09D004B070BD0A460649D1F844
:10A4A000E06001A9B047431CF5D100228A23226055
:10A4B0002B6004B070BD00BF8C08002049B1FF2A9A
:10A4C00002D80A70012070478A2303604FF0FF30E2
:10A4D00070470846704700BF08B5062000F004F832
:10A4E000012000F08DF800BF38B5154B1F281D68FE
:10A4F00020D8D5F8DC22044662B152F820304BB1A6
:10A50000012B15D0591C0FD0002542F82050984738
:10A51000284638BD284600F02BF82246014628463A
:10A52000BDE8384000F00EB816232B60012038BD7E
:10A53000002038BD16232B604FF0FF3038BD00BF20
:10A540004C00002070B50C46084D034600262046FE
:10A5500011461C462E6000F02DF8431C00D070BD43
:10A560002B68002BFBD0236070BD00BFE40D0020E2
:10A5700000F010B8024B58221A604FF0FF307047BD
:10A58000E40D0020024B58221A604FF0FF30704754
:10A59000E40D0020024B58221A604FF0FF30704744
:10A5A000E40D0020024B58221A600020704700BFC3
:10A5B000E40D0020024B58221A604FF0FF30704724
:10A5C000E40D0020024B58221A604FF0FF30704714
:10A5D000E40D0020024B58221A604FF0FF30704704
:10A5E000E40D0020044A05491368002B08BF0B4600
:10A5F0001844106018467047E80D0020F00D002048
:10A60000FEE700BFF8B500BFF8BC08BC9E46704727
:0CA61000F8B500BFF8BC08BC9E467047BF
:10A62000427574746F6E5F5461736B001B5B303BDB
:10A6300033336D5B25735D202D2D2D3E206B6579A9
:10A640003120707265737320646F776E21205B6FA9
:10A650006B5D203C2D2D2D0D0A1B5B306D0D0A000E
:10A660001B5B303B33336D5B25735D202D2D2D3E01
:10A67000206B6579312070726573732075702120AD
:10A680005B6F6B5D203C2D2D2D0D0A1B5B306D0D1E
:10A690000A0000001B5B303B33336D5B25735D208C
:10A6A0002D2D2D3E6B65793120707265737320728C
:10A6B000657065617421205B6F6B5D203C2D2D2DD5
:10A6C0000D0A1B5B306D0D0A000000001B5B303B68
:10A6D00033336D5B25735D202D2D2D3E6B657931F8
:10A6E000207072657373207369676E6C6521205BDF
:10A6F0006F6B5D203C2D2D2D0D0A1B5B306D0D0AFF
:10A70000000000001B5B303B33336D5B25735D2025
:10A710002D2D2D3E6B657931207072657373206429
:10A720006F75626C65205B6F6B5D203C2D2D2D0D70
:10A730000A1B5B306D0D0A001B5B303B33336D5BD6
:10A7400025735D202D2D2D3E6B657931206C6F6E4C
:10A750006720707265737320737461727421205B5B
:10A760006F6B5D203C2D2D2D0D0A1B5B306D0D0A8E
:10A77000000000001B5B303B33336D5B25735D20B5
:10A780002D2D2D3E6B657931206C6F6E67207072B8
:10A7900065737320686F6C642120205B6F6B5D2094
:10A7A0003C2D2D2D0D0A1B5B306D0D0A00000000A5
:10A7B0004D7949696E6974001B5B303B33346D5BC6
:10A7C00025735D2041543332463432332D426F615C
:10A7D00072642074657374696E67205B6F6B5D21B2
:10A7E000200D0A201B5B306D0D0A00001B5B303B07
:10A7F00033346D5B25735D2053797374656D5F63CE
:10A800006C6F636B5F636F6E666967205B6F6B5D18
:10A81000200D0A1B5B306D0D0A0000001B5B303BF6
:10A8200033346D5B25735D2041543332463432330B
:10A830005F426F6172645F496E6974205B6F6B5D2C
:10A84000200D0A1B5B306D0D0A0000001B5B303BC6
:10A8500033346D5B25735D20506572697068657275
:10A86000616C5F496E6974205B6F6B5D200D0A1B24
:10A870005B306D0D0A0000001B5B303B33346D5BB9
:10A8800025735D204D6F64756C655F496E6974203A
:10A890005B6F6B5D200D0A1B5B306D0D0A000000C5
:10A8A0001B5B303B33346D5B25735D20436F6D70F4
:10A8B0006F6E656E745F496E6974205B6F6B5D20AF
:10A8C0000D0A1B5B306D0D0A000000001B5B303B66
:10A8D00033346D5B25735D20436F6D706F6E656EF5
:10A8E000745F496E697420536F667454696D657244
:10A8F000205B6F6B5D200D0A1B5B306D0D0A000045
:10A900005368656C6C5F5461736B00001B5B303B7C
:10A9100033346D5B25735D20416C6C204C45447372
:10A92000204F4E210A1B5B306D0D0A001B5B303B34
:10A9300033346D5B25735D20416C6C204C45447352
:10A94000204F4646210A1B5B306D0D0A00000000B7
:10A950001B5B303B33316D5B25735D206C6574741C
:10A9600065725F7368656C6C5F74657374206C6589
:10A9700064322C6C6564332C6F6E200A1B5B306D67
:10A980000D0A00001B5B303B33316D5B25735D208E
:10A990006C65747465725F7368656C6C5F74657305
:10A9A00074206C6564322C6C6564342C6F6E200AE4
:10A9B0001B5B306D0D0A00001B5B303B33316D5B60
:10A9C00025735D206C65747465725F7368656C6C6B
:10A9D0005F74657374206C6564332C6C6564342C0F
:10A9E0006F6E200A1B5B306D0D0A00001B5B303B55
:10A9F00033316D5B25735D206C65747465725F73B4
:10AA000068656C6C5F74657374206C6564322C6C63
:10AA10006564332C6C6564342C6F6E200A1B5B30CC
:10AA20006D0D0A001B5B303B33316D5B25735D2080
:10AA30006C65747465725F7368656C6C5F74657364
:10AA400074206C6564322C6C6564332C6C656434E2
:10AA50002C6F6666200A1B5B306D0D0A000000003B
:10AA60001B5B303B33346D5B25735D202D2D2D3EFC
:10AA7000205368656C6C2066756E635F73747274C6
:10AA8000657374205B6F6B5D203C2D2D2D0D0A1BB3
:10AA90005B306D0D0A000000696E70757420696E80
:10AAA000743A2025642C20636861723A2025632C57
:10AAB00020737472696E673A2025730D0A000000D6
:10AAC00066756E635F737472746573740000000062
:10AAD0006C6564416C6C4F46460000006C656441D7
:10AAE0006C6C4F4E000000007265626F6F74000066
:10AAF0007368656C6C5F74657374000066756E6373
:10AB00005F73747274657374000000006C65644157
:10AB10006C6C4F46460000006C6564416C6C4F4E97
:10AB2000000000007265626F6F7400002273686538
:10AB30006C6C207465737420636F64652200000080
:10AB40006D61696E000000001B5B303B33336D5B51
:10AB500025735D2061743332663432332D73746132
:10AB600072742D626F61726420323032352D30354F
:10AB70002D3235205B6F6B5D200D0A1B5B306D0D38
:10AB80000A0000001B5B303B33336D5B25735D2097
:10AB900061743332663432332D73746172742D6292
:10ABA0006F617264204743432D4F70656E4F43447D
:10ABB0002054656D706C617465205B6F6B5D200D5A
:10ABC0000A1B5B306D0D0A00433A5C557365727366
:10ABD0005C64656C655C4465736B746F705C617418
:10ABE0003332663432332D6672616D65776F726B06
:10ABF0005C6273706472697665725C6273705F74B4
:10AC0000696D65722E6300006273705F74696D65B3
:10AC1000720000001B5B303B33316D5B25735D20A0
:10AC20004572726F723A2066696C652025732C201C
:10AC300066756E6374696F6E20257328290D0A1B73
:10AC40005B306D0D0A0000006273705F53746172B7
:10AC5000744175746F54696D6572000001020408D7
:10AC600010200000000000000000000001020304AA
:10AC700006070809000000000102030400000000AC
:10AC8000010203040102040810200000000000007B
:10AC90000000000001020304060708092E2E2E0002
:10ACA0002F0000003A00000024200000506C656175
:10ACB000736520696E7075742070617373776F723D
:10ACC000643A00000D0A205F202020202020202050
:10ACD000205F2020205F20202020202020202020F6
:10ACE00020202020202020205F2020202020202025
:10ACF0002020205F205F200D0A7C207C2020202047
:10AD00005F5F5F7C207C5F7C207C5F205F5F5F20DB
:10AD10005F205F5F2020205F5F5F7C207C5F5F2083
:10AD200020205F5F5F7C207C207C0D0A7C207C20C3
:10AD300020202F205F205C205F5F7C205F5F2F2022
:10AD40005F205C20275F5F7C202F205F5F7C2027B7
:10AD50005F205C202F205F205C207C207C0D0A7C03
:10AD6000207C5F5F7C20205F5F2F207C5F7C207CCD
:10AD70007C20205F5F2F207C202020205C5F5F20D4
:10AD80005C207C207C207C20205F5F2F207C207C2E
:10AD90000D0A7C5F5F5F5F5F5C5F5F5F7C5C5F5F36
:10ADA0007C5C5F5F5C5F5F5F7C5F7C202020207C41
:10ADB0005F5F5F2F5F7C207C5F7C5C5F5F5F7C5FA1
:10ADC0007C5F7C0D0A0D0A4275696C643A20202074
:10ADD000202020204D61792032362032303235203B
:10ADE00031393A33303A32340D0A56657273696F2D
:10ADF0006E3A2020202020332E322E340D0A436F4D
:10AE0000707972696768743A20202028632920329B
:10AE100030323520436F6465725368656C6C0D0A7F
:10AE2000000000000D0A70617373776F7264206513
:10AE300072726F720D0A00001B5B324A1B5B314855
:10AE40000000000052657475726E3A200000000028
:10AE50002C2030780000000030303030303030307E
:10AE600030303000434D4420000000005641522055
:10AE70000000000055534552000000004B4559208A
:10AE8000000000004E4F4E45000000002020000052
:10AE90000D0A436F6D6D616E64204C6973743A0DD9
:10AEA0000A0000000D0A566172204C6973743A0D55
:10AEB0000A0000000D0A55736572204C6973743ADC
:10AEC0000D0A00000D0A4B6579204C6973743A0D28
:10AED0000A000000082008000D0A5761726E696EB2
:10AEE000673A20436F6D6D616E6420697320746FE3
:10AEF0006F206C6F6E670D0A00000000636F6D6D50
:10AF0000616E642068656C70206F66200000000030
:10AF1000436F6D6D616E64206E6F7420466F756E49
:10AF2000640D0A00203D20002200000063616E27AE
:10AF300074207365742072656164206F6E6C792073
:10AF40007661720D0A00000063616E2774207365DC
:10AF50007420706F696E7465720D0A0056617220FC
:10AF60006E6F7420466F756E740D0A002069732031
:10AF70006E6F742061207661720D0A00436F646504
:10AF800072456E6400000000436F646572456E6434
:10AF900000000000636C656172000000636D647303
:10AFA0000000000068656C70000000006B6579733C
:10AFB000000000007365745661720000757365725D
:10AFC00073000000766172730000000064656661C2
:10AFD000756C742075736572000000006261636BAC
:10AFE000737061636500000074616200656E746572
:10AFF00072000000656E74657200000064656C6527
:10B000007465000075700000646F776E00000000CA
:10B0100072696768740000006C6566740000000067
:10B020006261636B7370616365000000636C6561EE
:10B030007220636F6E736F6C650000006C697374CF
:10B0400020616C6C20636D640000000073686F7792
:10B0500020636F6D6D616E6420696E666F0D0A68A6
:10B06000656C70205B636D645D0000006C697374D7
:10B0700020616C6C206B65790000000073657420A2
:10B08000766172006C69737420616C6C20757365F5
:10B09000720000006C69737420616C6C20766172C0
:10B0A000000000000000000050000020494E460053
:10B0B000696E66004E414E006E616E003031323373
:10B0C00034353637383961626364656600000000E4
:10B0D00030313233343536373839414243444546CE
:10B0E00000000000286E756C6C2900003000000024
:10B0F0002020202020202020202020202020202050
:10B10000303030303030303030303030303030303F
:10B110004E614E00496E66696E69747900000000E8
:10B1200042616C6C6F63207375636365656465640D
:10B13000000000002F6D6E742F776F726B7370615B
:10B1400063652F776F726B73706163652F4743433D
:10B150002D31302D706970656C696E652F6A656E72
:10B160006B696E732D4743432D31302D70697065C7
:10B170006C696E652D3236305F32303231303732A5
:10B18000375F313632373337313338362F737263A6
:10B190002F6E65776C69622F6E65776C69622F6CB4
:10B1A0006962632F7374646C69622F64746F612EBB
:10B1B000630000002F6D6E742F776F726B73706178
:10B1C00063652F776F726B73706163652F474343BD
:10B1D0002D31302D706970656C696E652F6A656EF2
:10B1E0006B696E732D4743432D31302D7069706547
:10B1F0006C696E652D3236305F3230323130373225
:10B20000375F313632373337313338362F73726325
:10B210002F6E65776C69622F6E65776C69622F6C33
:10B220006962632F7374646C69622F6D70726563F9
:10B230002E630000000000000080E03779C3414326
:10B24000176E05B5B5B89346F5F93FE9034F384D8C
:10B25000321D30F94877825A3CBF737FDD4F157538
:10B26000000000000000F03F00000000000024404B
:10B2700000000000000059400000000000408F4026
:10B28000000000000088C34000000000006AF84091
:10B290000000000080842E4100000000D0126341B5
:10B2A0000000000084D797410000000065CDCD412B
:10B2B000000000205FA00242000000E8764837420C
:10B2C000000000A2941A6D42000040E59C30A242AA
:10B2D0000000901EC4BCD64200003426F56B0C431F
:10B2E0000080E03779C3414300A0D88557347643C6
:10B2F00000C84E676DC1AB43003D9160E458E14327
:10B30000408CB5781DAF154450EFE2D6E41A4B449B
:10B3100092D54D06CFF08044F64AE1C7022DB544E0
:10B32000B49DD9794378EA44050000001900000073
:10B330007D00000020202020202020202020202010
:10B34000202020203030303030303030303030303D
:10B35000303030302C2066756E6374696F6E3A2021
:10B3600000000000617373657274696F6E2022259E
:10B370007322206661696C65643A2066696C652099
:10B38000222573222C206C696E6520256425732587
:10B39000730A000043000000504F5349580000005A
:10B3A0002E000000002020202020202020202828FF
:10B3B0002828282020202020202020202020202075
:10B3C00020202020208810101010101010101010B5
:10B3D00010101010100404040404040404040410E5
:10B3E0001010101010104141414141410101010173
:10B3F000010101010101010101010101010101013D
:10B400001010101010104242424242420202020248
:10B41000020202020202020202020202020202020C
:10B4200010101010200000000000000000000000BC
:10B43000000000000000000000000000000000000C
:10B4400000000000000000000000000000000000FC
:10B4500000000000000000000000000000000000EC
:10B4600000000000000000000000000000000000DC
:10B4700000000000000000000000000000000000CC
:10B4800000000000000000000000000000000000BC
:10B4900000000000000000000000000000000000AC
:10B4A000000000000000000000210000F0AA0008D9
:10B4B0005D1B00082CAB000800210000D0AA00088A
:10B4C000251B00080CAB000800210000DCAA0008C6
:10B4D000ED1A000818AB000800010000C0AA00081F
:10B4E0004D1C0008FCAA000800010000E8AA0008A2
:10B4F000C91A000824AB00080021000094AF00081E
:10B50000192D00082CB0000800210000ACAF000885
:10B51000F13000086CB0000800210000C4AF000842
:10B520004130000894B00008002100009CAF0008E2
:10B53000E52F00083CB0000800210000BCAF000867
:10B540009930000884B0000800200000A4AF000873
:10B55000BD3600084CB00008001900000000000DC6
:10B56000C13A0008F4AF0008001900000000000A0A
:10B57000C13A0008ECAF0008001900007E335B1BE5
:10B58000BB340008FCAF0008001900000000007F79
:10B59000B134000820B000080019000000000008C5
:10B5A000B1340008DCAF0008000900000000000909
:10B5B00001320008E8AF00080019000000445B1BDE
:10B5C000472B000818B000080019000000435B1B5F
:10B5D0002D2B000810B000080009000000425B1B82
:10B5E000F331000808B000080009000000415B1BAF
:10B5F000E931000804B0000800210000B4AF0008E1
:10B600005D3800087CB000080008000088AF000822
:08B61000A4B00008CCAF000853
:08B61800C059FF7F0100000092
:08B620005D630008250200082B
:04B628000102000813
:10B62C005D1A0008491A0008391A0008191A00088E
:10B63C007D1C0008791C00087B1C000800127A0095
:10B64C0022220000756200086142000803003000ED
:10B65C000300300003003000002000400080000098
:10B66C00000C0240000C0240000C02405000002074
:10B67C00000000003C030020A40300200C04002068
:10B68C0000000000000000000000000000000000AE
:10B69C00000000000000000000000000000000009E
:10B6AC00000000000000000000000000000000008E
:10B6BC00000000000000000000000000000000007E
:10B6CC00000000000000000000000000000000006E
:10B6DC00000000000000000000000000000000005E
:10B6EC00000000000000000000000000000000004E
:10B6FC00000000000000000000000000000000003E
:10B70C00000000000000000000000000000000002D
:10B71C00000000000000000001000000000000001C
:10B72C000E33CDAB34126DE6ECDE05000B000000E1
:10B73C0000000000000000000000000000000000FD
:10B74C0000000000000000000000000000000000ED
:10B75C0000000000000000000000000000000000DD
:10B76C0000000000000000000000000000000000CD
:10BA9C000000000000000000A00D002000000000CD
:10BAAC00000000007C0400207C04002084040020A2
:10BABC00840400208C0400208C04002094040020BA
:10BACC00940400209C0400209C040020A40400206A
:10BADC00A4040020AC040020AC040020B40400201A
:10BAEC00B4040020BC040020BC040020C4040020CA
:10BAFC00C4040020CC040020CC040020D40400207A
:10BB0C00D4040020DC040020DC040020E404002029
:10BB1C00E4040020EC040020EC040020F4040020D9
:10BB2C00F4040020FC040020FC0400200405002088
:10BB3C00040500200C0500200C0500201405002035
:10BB4C00140500201C0500201C05002024050020E5
:10BB5C00240500202C0500202C0500203405002095
:10BB6C00340500203C0500203C0500204405002045
:10BB7C00440500204C0500204C05002054050020F5
:10BB8C00540500205C0500205C05002064050020A5
:10BB9C00640500206C0500206C0500207405002055
:10BBAC00740500207C0500207C0500208405002005
:10BBBC00840500208C0500208C05002094050020B5
:10BBCC00940500209C0500209C050020A405002065
:10BBDC00A4050020AC050020AC050020B405002015
:10BBEC00B4050020BC050020BC050020C4050020C5
:10BBFC00C4050020CC050020CC050020D405002075
:10BC0C00D4050020DC050020DC050020E405002024
:10BC1C00E4050020EC050020EC050020F4050020D4
:10BC2C00F4050020FC050020FC0500200406002083
:10BC3C00040600200C0600200C0600201406002030
:10BC4C00140600201C0600201C06002024060020E0
:10BC5C00240600202C0600202C0600203406002090
:10BC6C00340600203C0600203C0600204406002040
:10BC7C00440600204C0600204C06002054060020F0
:10BC8C00540600205C0600205C06002064060020A0
:10BC9C00640600206C0600206C0600207406002050
:10BCAC00740600207C0600207C0600208406002000
:10BCBC00840600208C0600208C06002094060020B0
:10BCCC00940600209C0600209C060020A406002060
:10BCDC00A4060020AC060020AC060020B406002010
:10BCEC00B4060020BC060020BC060020C4060020C0
:10BCFC00C4060020CC060020CC060020D406002070
:10BD0C00D4060020DC060020DC060020E40600201F
:10BD1C00E4060020EC060020EC060020F4060020CF
:10BD2C00F4060020FC060020FC060020040700207E
:10BD3C00040700200C0700200C070020140700202B
:10BD4C00140700201C0700201C07002024070020DB
:10BD5C00240700202C0700202C070020340700208B
:10BD6C00340700203C0700203C070020440700203B
:10BD7C00440700204C0700204C07002054070020EB
:10BD8C00540700205C0700205C070020640700209B
:10BD9C00640700206C0700206C070020740700204B
:10BDAC00740700207C0700207C07002084070020FB
:10BDBC00840700208C0700208C07002094070020AB
:10BDCC00940700209C0700209C070020A40700205B
:10BDDC00A4070020AC070020AC070020B40700200B
:10BDEC00B4070020BC070020BC070020C4070020BB
:10BDFC00C4070020CC070020CC070020D40700206B
:10BE0C00D4070020DC070020DC070020E40700201A
:10BE1C00E4070020EC070020EC070020F4070020CA
:10BE2C00F4070020FC070020FC0700200408002079
:10BE3C00040800200C0800200C0800201408002026
:10BE4C00140800201C0800201C08002024080020D6
:10BE5C00240800202C0800202C0800203408002086
:10BE6C00340800203C0800203C0800204408002036
:10BE7C00440800204C0800204C08002054080020E6
:10BE8C00540800205C0800205C0800206408002096
:10BE9C00640800206C0800206C0800207408002046
:10BEAC0074080020FFFFFFFF0000020043000000A9
:10BEBC000000000000000000000000000000000076
:10BECC000000000000000000000000004300000023
:10BEDC000000000000000000000000000000000056
:10BEEC000000000000000000000000004300000003
:10BEFC000000000000000000000000000000000036
:10BF0C0000000000000000000000000043000000E2
:10BF1C000000000000000000000000000000000015
:10BF2C0000000000000000000000000043000000C2
:10BF3C0000000000000000000000000000000000F5
:10BF4C0000000000000000000000000043000000A2
:10BF5C0000000000000000000000000000000000D5
:10BF6C000000000000000000000000004300000082
:10BF7C0000000000000000000000000000000000B5
:10BF8C00000000000000000000000000BDA400083C
:10BF9C00A99E000800000000A4B30008A0B300088C
:10BFAC00F8AE0008F8AE0008F8AE0008F8AE0008CD
:10BFBC00F8AE0008F8AE0008F8AE0008F8AE0008BD
:10BFCC00F8AE0008FFFFFFFFFFFFFFFFFFFFFFFFC3
:10BFDC00FFFF0000010041534349490000000000ED
:10BFEC000000000000000000000000000000000045
:10BFFC0000000000000041534349490000000000CC
:10C00C000000000000000000000000000000000024
:08C01C0000000000000000001C
:04000005080043911B
:00000001FF
