:020000040800F2
:1000000010060020F9010008CD030008C90300080C
:10001000CB030008B3030008A90400080000000097
:10002000000000000000000000000000D1030008F4
:10003000B503000800000000CF030008D503000846
:10004000130200081302000813020008130200083C
:10005000130200081302000813020008130200082C
:10006000130200081302000813020008130200081C
:10007000130200081302000813020008130200080C
:1000800013020008130200081302000813020008FC
:1000900013020008130200081302000813020008EC
:1000A00013020008130200081302000813020008DC
:1000B00013020008130200081302000813020008CC
:1000C00013020008130200081302000813020008BC
:1000D000130200086D040008130200081302000850
:1000E000130200081302000813020008130200089C
:1000F00013020008130200080000000000000000C6
:1001000000000000000000000000000013020008D2
:10011000130200081302000813020008130200086B
:10012000130200081302000813020008130200085B
:100130001302000800000000000000001302000885
:10014000130200081302000813020008130200083B
:100150001302000813020008000000001302000848
:100160001302000813020008000000000000000055
:10017000000000000000000000000000000000007F
:100180000000000013020008130200081302000818
:10019000000000000000000000000000000000005F
:1001A000000000000000000000000000000000004F
:1001B0000000000000000000130200080000000022
:1001C000000000000000000000000000000000002F
:1001D0000000000000000000000000001302000802
:1001E000DFF810D000F0B6F8004800475D0C0008BA
:1001F000AFF30080100600200648804706480047FD
:10020000FEE7FEE7FEE7FEE7FEE7FEE7FEE7FEE7C6
:10021000FEE7FEE7E9030008E10100082DE9F05FD1
:100220000546002092469B46884606468146402465
:100230001BE0284641464746224600F07AF85346DE
:100240005A46C01A914110D311461846224600F072
:1002500061F82D1A67EB01084F4622460120002164
:1002600000F058F817EB00094E41201EA4F10104DC
:10027000DFDC484631462A464346BDE8F09F000091
:1002800000487047A81A000830B505462A460B46B4
:1002900012F8010B13F8014B08B1A042F8D01CB1C1
:1002A000002802D06D1CF1E7284630BD421C10F832
:1002B000011B0029FBD1801A704710B5002200E015
:1002C000521C835C8C5CA34201D1002BF8D1D8B2C4
:1002D000E1B2401A10BD034611F8012B00F8012BC2
:1002E000002AF9D11846704730B50B460146002068
:1002F0002022012409E021FA02F59D4205D303FAE8
:1003000002F5491B04FA02F52844151EA2F1010268
:10031000F1DC30BD202A04DB203A00FA02F1002093
:1003200070479140C2F1200320FA03F31943904033
:100330007047202A04DB203A21FA02F0002170479E
:1003400021FA02F3D040C2F120029140084319463D
:1003500070470000064C074D06E0E06840F00103DE
:1003600094E8070098471034AC42F6D3FFF73CFFFF
:100370006C1C00088C1C000830B58C1810F8012B80
:1003800012F00F0301D110F8013B120906D110F849
:10039000012B03E010F8015B01F8015B5B1EF9D152
:1003A00001E001F8013B521EFBD1A142E6D300203F
:1003B00030BDFEE770470000024908600868002869
:1003C000FCD1704700000020FEE7FEE77047704751
:1003D0007047000003480168002902D00168491EE7
:1003E00001607047000000201C4810B5016841F40E
:1003F00070010160012000F06FFA1948016841F0B6
:100400000101016001688907FCD5154908310A68B6
:1004100022F003020A600A6812F00C0FFBD1026896
:10042000104B1A4002604FF0804008600C490E48A3
:10043000091D08600A494FF47020A031086008497E
:100440004FF41F000C310860002000F045FA03490A
:100450004FF000608039086010BD000088ED00E0BA
:1004600000380240FFFFF2FE0230030010B50B4CD3
:100470002021204601F0D8F900280DD04FF480410A
:10048000074800F095FB204601F0C2F9C1B2BDE873
:100490001040044800F076BB10BD00000010014081
:1004A000000C024044010020FEE700000FB4054BA1
:1004B00010B503A9044A029800F018F810BC5DF8C2
:1004C00014FB0000AD0B00084001002002E008C84A
:1004D000121F08C1002AFAD170477047002001E0BE
:1004E00001C1121F002AFBD1704700002DE9FF4F08
:1004F0008BB09A460F460546002606E025280BD00D
:1005000052460D9990476D1C761C28780028F5D12D
:100510000FB03046BDE8F08F0024A04601226049AC
:1005200000E0044315F8013F203B02FA03F00842C3
:10053000F7D128782E2817D115F8010F44F00404BC
:100540002A280ED06FF02F022878A0F13001092957
:100550000AD808EB880102EB410100EB01086D1C91
:10056000F2E757F8048B6D1C287869283ED006DC2A
:100570000028CDD063280BD0642804D136E073283E
:1005800010D075284BD052460D999047761C85E0C7
:1005900017F8040B8DF8000000208DF80100E946E3
:1005A000012003E057F8049B4FF0FF3061074FF044
:1005B000000401D40AE0641C44450DDA8442FADBED
:1005C00019F804100029F6D106E0641C8442FCDB13
:1005D00019F804100029F8D1264404E019F8010B99
:1005E00052460D999047641EF8D257E001CF4FF064
:1005F0000A0B002802DA40422D2102E0210504D531
:100600002B218DF82410012103E0E10705D02021E2
:10061000F7E70DF1200908910CE00021F9E701CF7F
:100620004FF00A0BF9E75946FFF75EFE01F1300281
:1006300009F8012D0028F6D1ADEB090000F1200BDF
:10064000600701D44FF00108D84502DDA8EB0B008C
:1006500000E000208046002406E009A85246005D24
:100660000D999047641C761C08988442F5DB04E0E1
:10067000302052460D999047761CB8F10001A8F140
:100680000108F5DC05E019F8010B52460D99904779
:10069000761CBBF10001ABF1010BF4DC6D1C34E7FF
:1006A0000928010010B504461048FFF7FFFE104866
:1006B000FFF7FCFE0F48FFF7F9FE0F48FFF7F6FEC5
:1006C0000E48FFF7F3FE0E48FFF7F0FE21460DA09F
:1006D000FFF7ECFE04F12400024600F0F0FD0AA151
:1006E000104600F097FD0120608510BDF01A00084B
:1006F000BC1B0008781B0008341B0008001C000805
:10070000AC1A0008257300006C7320636D64000050
:1007100000214A1E416020F8082B09547047000050
:100720002DE9F041054691F881000C4601F16C0776
:1007300018B1002602281FD030E02449284600F0D6
:1007400052F8002807DB21496C3151F8201039B3E9
:100750002046884724E01B2D04D02946204600F07F
:10076000E9FA1DE0022084F8810014F8800FC555D5
:100770002078401C207013E094F88000C555A5F146
:10078000610019280FD9203019280CD97E2D0AD0E4
:1007900094F88000122815D984F8806081F881606F
:1007A0002846BDE8F08109492846491D00F01BF89C
:1007B00006491C3151F820102046884704F8806F04
:1007C0006670EDE7401C81F88000E9E73019000809
:1007D00000214A1E4160028000F10802895400F89D
:1007E000801F417070470246002000E0401C0B5CF7
:1007F000934202D0002BF9D102E013F0FF0F01D198
:100800004FF0FF30704770B50D460646002403E0F8
:10081000305D00F003FF641CAC42F9D370BD0000F2
:100820001CB501214FF4401000F000F9684600F0BB
:10083000C1F901208DF8070000218DF804108DF812
:100840000610009002208DF805006946014800F06E
:10085000BBF91CBD000002401CB501210B4800F093
:10086000E5F8684600F0A6F901208DF807000021A0
:100870008DF804108DF806004FF4604000908DF85C
:1008800005106946024800F09FF91CBD03003000C6
:10089000000C024000B50246012000F01DF805489A
:1008A000016862F30711016000205DF804EB00F0BD
:1008B00013B800000838024002490A6860F38C222D
:1008C0000A6070470838024002490A6860F34F32F4
:1008D0000A6070470838024005490128086803D0BB
:1008E00020F030000860704740F03000FAE7000068
:1008F000A43802400F4A052810D2DFE800F00307B1
:100900000B101300106861F3000006E0106861F33B
:10091000104002E0106861F31860106070470548ED
:10092000703001E003487430026861F30002026035
:10093000704700000038024070B5044600F0F0F83F
:100940000100234804D001290AD0022908D124E05B
:1009500020490A68520403D50968C90400D51E4815
:100960001C492060983908681C4AC0F30310125CC7
:100970002068D04060600A68184BC2F38222103BA6
:100980009A5C20FA02F2E260096803F10802C1F3FE
:100990004231515CC840A06070BD0E499C390A6864
:1009A0000A68C2F388130A68096802F00F020B4E46
:1009B000C1F30241163E715C12FB01F2A0FB030180
:1009C0000023FFF72BFC49084FEA3000C8E700007E
:1009D00000127A00A0380240006CDC02FE19000808
:1009E0000146002001F01F0301229A40044B03EB53
:1009F0001141D1F800188A4300D10120704700004E
:100A00000030024030B500244FF4405500E0641C33
:100A10001120FFF7E5FF012801D0AC42F7D31120E8
:100A2000FFF7DEFF012800D0002030BD10B5094CD3
:100A300000F01F0301229A4004EB10400129D0F876
:100A4000001804D031EA0201C0F8001810BD1143AB
:100A5000FAE700000030024030B520B90B4C2568A1
:100A600045F480552560094C9C3C256860F39655FB
:100A70002560206861F38E102060206862F3030017
:100A80002060206863F31240206030BDA03802402F
:100A900000B50120FFF720FF1548016841F0010172
:100AA000016001688907FCD5114908310A6822F004
:100AB00003020A600A6812F00C0FFBD102680D4BAA
:100AC0001A4002604FF08040086009490A48091D39
:100AD000086007494FF47020A031086004494FF4C2
:100AE0001F000C31086000205DF804EBFFF7F4BE36
:100AF00000380240FFFFF2FE0230030000B502465C
:100B00000120FFF7E9FE0548016862F30101016079
:100B100000205DF804EBFFF7DFBE0000083802405C
:100B200002480068C0F381007047000008380240A6
:100B300002000A494FF0000007D0012A09D0022A1A
:100B400002D10868C0F301107047086800F0030084
:100B500070470868C0F381007047000068380240A1
:100B6000026843689A420BD002688318521C0260E4
:100B70001A7A0A70016801F03F0101600020704795
:100B80000120704742680368521C02F03F029A42FB
:100B90000AD042688318521C42601972416801F001
:100BA0003F014160002070470120704700F036BDD2
:100BB000C16270474FF6FF710160002181710171C0
:100BC00041710121C1717047F0B50B8800229BB2C1
:100BD00029E0DC0724D0066855000324AC40A64376
:100BE00006608E790768AE403E430660466801277E
:100BF0009740BE43466046680F7997403E43466043
:100C00008668A6438660CE798768AE403E4386609C
:100C1000C668A643C6604C79AC40C5682C43C46026
:100C20005B08521C92B2002BD3D1F0BD4B0710B51C
:100C3000DB0E9A40CC084FF00F0101FA03F106D009
:100C4000436A8B434362416A1143416210BD036AA8
:100C50008B430362016A1143016210BD1CB500247D
:100C6000019400F0F3FC25484FF47A710068B0FB62
:100C7000F1F0401EB0F1807F09D24FF0E0214861D1
:100C80001F4AF02082F8140D8C6107200861FFF7DD
:100C9000E3FDFFF7C5FD4FF4E13000F065FD19A05D
:100CA000FFF704FC1F48FFF793FD1F48FFF7FAFC0E
:100CB0004FF400561B4C1D4DB700083431462846F2
:100CC000FFF776FFC820FFF777FB69461848FFF764
:100CD00047FF0028F2D139462846FFF769FF11493E
:100CE0009DF80000FFF71CFD0A28E7D121460E48B9
:100CF00000F0D0FB0B48FFF70BFDDFE73C010020C5
:100D00000FE000E0617433326634323320626F6189
:100D10007264207072696E7420746573742E0D0A8B
:100D2000000000008C01002004000020000C0240A4
:100D30004401002070B50C4642680025B0F900104F
:100D400000F10803622A22D2914204D307E08118FD
:100D5000521ECE790E72B0F900109142F7D301887D
:100D6000491C09B201804268521C4260CC5441685F
:100D7000CD54B0F900104068491C814202D208A04D
:100D8000FFF794FB2046BDE8704000F047BC6122AD
:100D90004260612901D360210180D55470BD0000FB
:100DA0001B5B31400000000070B50546002405E0E3
:100DB000281990F86C0000F031FC641C95F8800054
:100DC000A042F5D870BD000090F86E10332915D1FF
:100DD000B0F9001002E04218537A13724268491CBD
:100DE0008A42F8D81146B0F9003012B29A4205DDB5
:100DF000491E4160042102A0FFF705BD70470000B5
:100E00001B5B31500000000010B5B0F90010002944
:100E100004DA10BD4218491C537A137242688A42A0
:100E2000F8D80188491E0180511E4160082000F059
:100E3000F5FBBDE8104001A0FFF738BB1B5B31504C
:100E40000000000070B5154C0546608D002823D0C9
:100E5000B5F9001012A0491CFFF728FB12A0FFF7FC
:100E600025FB05F10802618D164604F1240000F00F
:100E700093F93046FFF71AFA411E6860298001464F
:100E80003046FFF7C0FC608D401C80B26085218D2C
:100E9000884200D90120608570BD00000400002058
:100EA0001B5B2564440000001B5B4B000D2000F021
:100EB000B5BB0000B0F90010002904DB491E018019
:100EC00001A0FFF7F3BA70471B5B3144000000003C
:100ED00010B54FF0FF310180002141600548018DC0
:100EE00041850D2000F09AFBBDE810400A2000F07B
:100EF00095BB0000040000204268B0F90010521EAB
:100F0000914204DA491C018001A0FFF7CFBA704773
:100F10001B5B31430000000070B500F1080104467E
:100F20000E46204800F012F9050039D06068C0B1C3
:100F3000B4F900101CA0491CFFF7B8FA1CA0FFF779
:100F4000B5FA2846FFF7B2F96060401E20802946B6
:100F50003046FFF7C0F930466168BDE87040FFF7E2
:100F600052BC14A0FFF7A2FA00240E4D0C2609E093
:100F700001EB800110A0FFF799FA0EA0FFF796FA97
:100F8000641CE4B204EB8400296A06EB80028A58F0
:100F9000002AEDD1BDE87040024907A0FFF786BAEC
:100FA00070BD0000040000201B5B256444000000AD
:100FB0001B5B4B000D0A00002573000070B5144D3B
:100FC0000446688D002822D0B4F9001011A0491CF5
:100FD000FFF76CFA11A0FFF769FA04F10802698DB6
:100FE000164605F1240000F0D7F83046FFF75EF909
:100FF000411E6060218001463046FFF704FC688D89
:10100000401E0004000C688500D1288D688570BDE5
:10101000040000201B5B2564440000001B5B4B00A8
:10102000F0B5002488B025466A4601231555641C96
:10103000202CFBDB11F8014B02EBD40604F0070E69
:10104000377803FA0EFC47EA0C073770002CF1D111
:10105000154C08B1014602E0216800E0491C0878FF
:1010600002EBD00600F00707367803FA07F73E4296
:1010700001D00028F2D108460DE000BF02EBD607F0
:1010800006F007063F7803FA06F6374202D001F869
:10109000015B03E0491C0E78002EEFD121608842ED
:1010A00000D1002008B0F0BD3801002070B51D4B04
:1010B0001B68C3F30224C4F10706042E00D90426DA
:1010C000231D072B01D2002400E0E41E012303FAB4
:1010D00006F56D1E0D40A54003FA04F1491E1140AE
:1010E0000D43002807DB00BF00F1E0214FEA0512A5
:1010F00081F8002407E000F00F0202F1E0224FEA3D
:10110000051182F8141D0BDB00F01F014FEA50108F
:101110004FEA800000F1E02003FA01F3C0F800314B
:1011200070BD00000CED00E0064900F00702086801
:101130004FF6FF03184040EA0220034A10430860BC
:10114000704700000CED00E00000FA052DE9F047C3
:101150004FF0000889460746FF25444612E000BFCD
:1011600000EB86004946FFF78FF848B1396A01EB7A
:101170008601401AA84203D210F0FF05884608D025
:10118000641CE4B2386A04EB840610F826100029C7
:10119000E6D14046BDE8F087F0B583888B421FD387
:1011A0000388491E194489B2032900D9091F8BB24B
:1011B000C1185B1C897B9BB2032B00D9002303441D
:1011C00000259C7B0B46A14206D310E0C6185F1A8F
:1011D000B67C5B1CD6559BB2A342F7D3581A155464
:1011E000F0BDC6185F1AB67C5B1CD6559BB2FE2BB1
:1011F000F7D3002307E0C6185F1A1744B67C5B1CC0
:1012000087F8FE609BB2A342F5D3581A104480F8C9
:10121000FE50F0BD2DE9F04104460D460846FFF7AB
:1012200045F883B204F10E02FD2B46D816E0208863
:10123000401C80B22080032800D900202080A6888E
:10124000761EA6802689875CBE42A7EB0606A1EB28
:10125000060100D9FE39A181805C2081A189C1F1FC
:10126000FD009842E3DBA0880328E0D06188A07AE3
:1012700088546088401C80B26080032800D9002018
:101280006080A08804F11206401CA08000200FE0BE
:101290006789295CB9556189491C89B26181FD2939
:1012A00000D900216181A189491C401CA18180B223
:1012B0009842EDD36188A07A8854BDE8F08100217E
:1012C00001804180818001814181818170470000DE
:1012D0002DE9F047054689460488A98800200029A1
:1012E00031D04846FEF7E2FF83B20020AE882EE000
:1012F0002919641C897BA4B2032C00D900242A1963
:10130000927B914201D8521A02E0C1F1FE073A44A1
:1013100092B29A4219D1421C97B200220FE000BF4C
:1013200005EB010C9CF8128019F802C0E0450CD1C5
:10133000491C89B2FD2900D90021521C92B29A425F
:10134000EED317B13846BDE8F087401C80B2864224
:10135000CED80020F7E7000070B500250C46012824
:101360003CD9607801191EA0FEF7A7FF00281ED007
:10137000607801191BA0FEF7A0FF00282CD0607830
:10138000011919A0FEF799FF002824D117A0FFF733
:101390008DF81CA0FFF78AF81DA0FFF787F821A0A1
:1013A000FFF784F825A0BDE87040FFF77FB82B4C0D
:1013B0000C2608E001EB800129A0FFF777F810A0C8
:1013C000FFF774F86D1C05EB8500216A06EB8002BF
:1013D0008A58002AEED170BD22A0E4E726A0E2E7F9
:1013E000636D64002D7600002D68000075736561E3
:1013F00067653A206C73205B6F7074696F6E735D04
:101400000D0A00006F7074696F6E733A200D0A0048
:1014100009202D6820093A2073686F772068656C71
:10142000700D0A0009202D7620093A2073686F7725
:101430002076657273696F6E0D0A00000920636D76
:101440006420093A2073686F7720616C6C20636FA9
:101450006D6D616E64730D0A0000000004000020D1
:10146000257300006C732076657273696F6E20318E
:101470002E302E0D0A0000006C73206E656564200E
:101480006D6F726520617267756D656E7473210D85
:101490000A0000002DE9F043814624309DB00C463F
:1014A0000A260546FFF714FF28B9207818B121460F
:1014B0002846FFF7AFFE2046FEF7F8FE642803D962
:1014C00025A0FEF7F3FF40E02AA12046FFF7A8FD84
:1014D00007462146484600F05DF805000ED0E84674
:1014E0008DF800600DF10A002146FEF7F4FE20465B
:1014F000FEF7DCFE0B30C7B201241CE0FEF7C0FE95
:1015000000682178405C10F0980F1ED039461AA070
:10151000FEF7CCFF19E000BF08F8047008EB0700E5
:101520003146FEF7D8FE3046FEF7C0FE3844401C78
:10153000641CC7B2E4B20FA10020FFF771FD0600E2
:10154000EAD115B169462046A847494610A0FEF7E2
:10155000ADFF1DB0BDE8F0837468697320636F6DE3
:101560006D616E6420697320746F6F206C6F6E679D
:101570002E0A0000200000006E6F20636F6D6D6109
:101580006E64206E616D65643A2025730A00000068
:10159000257300002DE9F04100240F4605460C2676
:1015A00007E000BF01EB80013846FEF786FE58B128
:1015B000641C04EB8400296A06EB80028A58002A26
:1015C000F0D10020BDE8F08104EB8401286A06EB2D
:1015D00081014058F6E7000070B506460D4607A0A9
:1015E000FEF764FF002406E0285D2146421907A0AB
:1015F000FEF75CFF641CB442F6D370BD746573746F
:1016000020636F6D6D616E643A0D0A0070617261E6
:10161000732025643A2025730D0A000070B50A4C2A
:1016200005468021204600F0FFF80028F9D0A9B235
:10163000204600F0F0F84021204600F0F5F80028A0
:10164000F9D0284670BD00000010014010B5FFF72A
:101650001FFA1F494FF4AA70086001211D48FFF7C7
:10166000E5F91D48016941F00301016101210846C6
:10167000FFF740F9FFF7C6F90028FBD001231A460F
:1016800048211846FFF7E8F901210220FFF732F957
:101690001920FFF7A5F90128FAD10020FFF7FAF881
:1016A0000020FFF711F90420FFF706F90120FFF7EA
:1016B00013F90220FFF722FAFFF732FA0228FBD1D2
:1016C0000020FFF709F9BDE8104000F007B800005E
:1016D000003C02401C0040000070004070B5FFF765
:1016E0001FFA1C491C4C20B101280CD002280AD139
:1016F00015E01A480268520405D50068C00402D5F6
:101700001748206000E021601448983800681549A7
:10171000C0F30310085C2168C140216070BD0F4810
:101720009C3802680268C2F388130268006802F0FD
:101730000F020C4EC0F30240B61F305C12FB00F2E9
:10174000A1FB03010023FEF769FD49084FEA3000C1
:10175000D7E7000000127A003C010020A0380240C8
:10176000006CDC02141A00087CB5044601212448F0
:10177000FFF75CF901214FF44010FFF757F9684675
:10178000FFF718FA01208DF8070000208DF80400FB
:1017900002218DF806104FF4C0611A4D00918DF8AA
:1017A000050069462846FFF70FFA07220921284657
:1017B000FFF73CFA07220A212846FFF737FA2146AD
:1017C000114C00231A46204600F034F8012120462F
:1017D00000F0A8F80121204600F09FF801220B49F3
:1017E000204600F08BF80121204600F018F8032075
:1017F000FFF79AFC002211462520FFF757FC7CBD1D
:1018000004004400000002400010014005000C00EC
:10181000406880B27047C1F3080141607047C268F8
:1018200061F34D32C26070470068084000D001206B
:10183000704700002DE9FF47044699461646884642
:101840006846FFF779F82848284F4FF4004584424E
:1018500009D10020FFF76CF9B8B1012810D0032896
:1018600016D03D4614E02248844201D1012003E015
:101870002048844206D10220FFF75AF938B1ECE73C
:10188000009D05E01C48844201D1029D00E0039DBB
:1018900005EB85004100B1FBF8F00A21B0FBF1F245
:1018A00001FB1202B0FBF1F0052A00D3401CA16835
:1018B00060F30F01A160022E0ED0E06820F080508E
:1018C0006EB1E060E06840F48050E060216969F347
:1018D0000D312161BDE8FF87E06840F08050E06095
:1018E000E06820F48050F0E70010014000127A0018
:1018F00000440040004800400014014010B501F0D1
:101900001F0400EB11400123A3400168012A02D00B
:101910009943016010BD1943FBE7C26861F382027D
:10192000C2607047C26861F3C302C26070470000C2
:10193000080A0D09006D4941424344584B4D504A35
:10194000404C6C686E4873757E000000A90D00085D
:10195000A90D0008BD0F0008450E0008F90E00088B
:10196000B50E0008A90D0008A90D0008A90D000872
:10197000A90D0008A90D0008A90D0008A90D00086F
:10198000A90D0008A90D0008A90D0008A90D00085F
:10199000A90D0008A90D0008C90D0008090E0008CE
:1019A000D10E0008AD0E0008190F00086C7300007E
:1019B00000000000000000005913000800000000B3
:1019C000746573740000000000000000D915000861
:1019D0000000000000000000000000000000000007
:1019E00000000000000000000102040810200000B8
:1019F00000000102030400000000010203040000D3
:101A000000000000000001020304060708090102AB
:101A10000408102000000000000000000102030480
:101A200006070809004040404040404040404141D6
:101A300041414140404040404040404040404040A3
:101A4000404040404005020202020202020202023D
:101A5000020202020220202020202020202020023A
:101A600002020202020290909090909010101010CA
:101A70001010101010101010101010101010101066
:101A800002020202020288888888888808080808FA
:101A900008080808080808080808080808080808C6
:101AA0000202020240000000251A00082020202027
:101AB0002020202020202020202020202020202026
:101AC0002020202020202020202020202020202016
:101AD0002020202020202020202020202020202006
:101AE000202020202020202020200D0A000000009F
:101AF000205F2020205F205F5F5F5F202020205F2D
:101B00005F20205F5F205F202020202020202020D9
:101B10002020202020202020205F5F5F5F20205F8A
:101B2000202020202020202020205F205F200D0A60
:101B3000000000007C207C5C20207C20205F203C7A
:101B400020207C207C20207C207C207C20285F5F43
:101B50007C207C207C20285F29207C20205F5F5F08
:101B600029207C207C207C207C20205F5F2F207C13
:101B7000207C0D0A000000007C20205C7C207C2062
:101B80007C5F29207C207C207C5C2F7C207C207C3E
:101B90002F205F5F7C20275F5F2F205F205C20204D
:101BA0005C5F5F5F205C7C20275F205C202F205FD4
:101BB000205C207C207C0D0A000000007C205C2042
:101BC0007C207C20205F205C20207C20205C2F203B
:101BD00020285F29205F5F5F205F205F5F205F5FBD
:101BE0005F2020202F205F5F5F7C7C207C5F5F2058
:101BF00020205F5F5F7C207C207C0D0A00000000BD
:101C00007C5F7C205C5F7C5F7C205C5F5C207C5F19
:101C10007C20207C5F7C5F7C5C5F5F5F7C5F7C20E6
:101C2000205C5F5F5F2F20207C5F5F5F5F2F7C5FAA
:101C30007C207C5F7C5C5F5F5F7C5F7C5F7C0D0AEF
:101C40000000000030000000000000000000000064
:101C500000000000000000006E0000000000000016
:101C60000000000000000000000000008C1C0008C4
:101C7000000000204401000078030008A41C0008B4
:101C800044010020CC040000DC0400085109196E56
:101C90007240726F6F743A05FFAC19000801186347
:041CA000127A0000B4
:04000005080001E10D
:00000001FF
