:020000040800F2
:10000000200B00206502000859040008B70300080F
:1000100055040008B10300086D0A00080000000044
:10002000000000000000000000000000F9090008C6
:10003000B503000800000000F7090008FB090008EC
:100040007F0200087F0200087F0200087F0200088C
:100050007F0200087F0200087F0200087F0200087C
:100060007F0200087F0200087F0200087F0200086C
:100070007F0200087F0200087F0200087F0200085C
:100080007F0200087F0200087F0200087F0200084C
:100090007F0200087F0200087F0200087F0200083C
:1000A0007F0200087F0200087F0200087F0200082C
:1000B0007F0200087F0200087F0200087F0200081C
:1000C0007F0200087F0200087F0200087F0200080C
:1000D0007F0200087F0200087F0200087F020008FC
:1000E0007F0200087F0200087F0200087F020008EC
:1000F0007F0200087F0200087F0200087F020008DC
:100100007F0200087F0200087F0200087F020008CB
:100110007F0200087F0200087F0200087F020008BB
:100120007F0200087F0200087F0200087F020008AB
:100130007F0200087F0200087F0200087F0200089B
:1001400000000000000000000000000000000000AF
:100150007F0200087F0200087F0200087F0200087B
:100160007F0200087F0200087F0200087F0200086B
:100170007F0200087F0200087F0200087F0200085B
:100180007F02000800F002F800F05CF80AA090E896
:10019000000C82448344AAF10107DA4501D100F042
:1001A00051F8AFF2090EBAE80F0013F0010F18BFB3
:1001B000FB1A43F001031847542300007423000086
:1001C0000A444FF0000C10F8013B13F0070408BF7D
:1001D00010F8014B1D1108BF10F8015B641E05D01B
:1001E00010F8016B641E01F8016BF9D113F0080FD0
:1001F0001EBF10F8014BAD1C0C1B09D16D1E58BF62
:1002000001F801CBFAD505E014F8016B01F8016B98
:100210006D1EF9D59142D6D370470000002300240B
:1002200000250026103A28BF78C1FBD8520728BF06
:1002300030C148BF0B6070471FB501F0E8FC1FBD1F
:1002400010B510BD00F072F81146FFF7F5FF00F091
:1002500089FF00F0A4F803B4FFF7F2FF03BC00F03D
:1002600067FC00000948804709480047FEE7FEE7B1
:10027000FEE7FEE7FEE7FEE7FEE7FEE7FEE7FEE756
:1002800004480549054A064B70470000FD0900086F
:100290008501000820050020200B002020070020F9
:1002A00020070020704700000FB4044910B503AACE
:1002B000029800F009F810BC5DF814FB280000203B
:1002C0007047704770477047074B70B50D467B44C9
:1002D00000F011F80446284600F020F810B14FF065
:1002E000FF3070BD204670BD970D000001694A1CAB
:1002F00002610878704700B58FB0CDE90131002167
:10030000059105497944CDE903101146684600F08E
:1003100032F80FB000BD0000E5FFFFFF007B00F0EA
:100320008000704700487047C00400207546FFF702
:10033000F9FFAE4605006946534620F007008546A2
:1003400018B020B5FFF79CFFBDE820404FF0000635
:100350004FF000074FF000084FF0000B21F00701AD
:10036000AC46ACE8C009ACE8C009ACE8C009ACE8F0
:10037000C0098D4670472DE9F04106460024D6E9B4
:100380000170F5688046304603E04146B847641C7A
:100390003046A8470028F8D12046BDE8F08110B5C6
:1003A0000446AFF300802046BDE81040FFF753BF7E
:1003B00000BFFEE7704700BFFEE7000010B5202138
:1003C0000D4800F06DFE032000F026FE40210A4893
:1003D00000F066FE032000F01FFE4021064800F0FA
:1003E0005DFE032000F018FE2021034800F056FEB9
:1003F000032000F011FE10BD0008014010B52021BF
:100400000A4800F04DFE032000F006FE4021074898
:1004100000F044FE032000F0FFFD4021034800F0FF
:100420003FFE032000F0F8FD10BD00000008014071
:1004300010B52021064800F033FE032000F0ECFD4B
:100440002021034800F02AFE032000F0E5FD10BD46
:100450000008014000BFFEE7704770B5002418E0B7
:1004600004F1B000002100F0BAFA0021084600F0C3
:10047000B6FA0021102000F0B2FA002505E00121B3
:10048000002000F0ACFA681CC5B2802DF7DB601CC0
:10049000C4B2082CE4DB70BD1CB501210C4800F08F
:1004A000EDFC684600F0FEFD01208DF807000020FD
:1004B0008DF8040010208DF80600602000900420C4
:1004C0008DF805006946034800F0F7FD1CBD0000EB
:1004D000020018000008014010B5FFF7DDFF002101
:1004E000AE2000F07CFA0021084600F078FA0021E6
:1004F000102000F074FA0021402000F070FA002172
:10050000B02000F06CFA0021812000F068FA002190
:10051000FF2000F064FA0021A12000F060FA002121
:10052000A62000F05CFA0021A82000F058FA002173
:100530003F2000F054FA0021C82000F050FA0021BA
:10054000D32000F04CFA0021084600F048FA0021C0
:10055000D52000F044FA0021802000F040FA00216C
:10056000D82000F03CFA0021052000F038FA0021E4
:10057000D92000F034FA0021F12000F030FA0021F7
:10058000DA2000F02CFA0021122000F028FA0021D5
:10059000DB2000F024FA0021302000F020FA0021B6
:1005A0008D2000F01CFA0021142000F018FA002120
:1005B000AF2000F014FAFFF750FF0021084600F0CA
:1005C00001F810BD70B504460D4605F1B0000021DC
:1005D00000F005FA102141EA1410002100F0FFF9A3
:1005E00004F00F00002100F0FAF970BD2DE9F05F72
:1005F00007468A46154698464FF05E0B4FF00009B5
:1006000028E000241CE0287804EB0411134A515C14
:10061000884213D151463846FFF7D4FF00260AE03E
:1006200004EB04110D4A1144491C885D012100F0BE
:10063000D6F9701CC6B2062EF2DB03E0601CC4B211
:100640005C45E0DB00BF6D1CB81DC7B209F10100BD
:1006500000F0FF09C145D4DBBDE8F09F951E0008FE
:100660002DE9F04180460E461546002731464046AA
:10067000FFF7A8FF00240AE0124A02EB8511085D8B
:10068000012100F0ACF9781CC7B2601CC4B2102C78
:10069000F2DB701CC1B24046FFF794FF00240CE06F
:1006A0006900491C074A02EB4111085D012100F075
:1006B00096F9781CC7B2601CC4B2102CF0DBBDE800
:1006C000F0810000300000202DE9F0470746884601
:1006D00016464FF05B0900241BE0C4EBC4000F4931
:1006E000085CB04213D141463846FFF76BFF002546
:1006F0000AE0C4EBC401094A1144491C485D0121C8
:1007000000F06DF9681CC5B2062DF2DB03E0601C39
:10071000C4B24C45E1DB00BFBDE8F087181C0008FF
:100720002DE9F04780460E4617464FF05E0900253A
:100730002FE005EB05101949085CB84227D1314676
:100740004046FFF73FFF00240AE005EB0511134A7E
:100750001144491C085D012100F041F9601CC4B23C
:10076000082CF2DB701CC1B24046FFF72BFF0824B7
:100770000AE005EB0511094A1144491C085D0121F5
:1007800000F02DF9601CC4B2102CF2DB03E0681CF1
:10079000C5B24D45CDDB00BFBDE8F087951E000812
:1007A0002DE9F0432DED088B85B007468946B0EE64
:1007B000408A1446984600250026B5EEC08AF1EE20
:1007C00010FA0BD29FED660A30EE480AB0EE408A6E
:1007D0002D2249463846FFF7A3FF04E02B22494665
:1007E0003846FFF79DFF09E0052C03DD14B1601EBC
:1007F000C4B203E0A8F1010000F0FF0804EB080018
:100800000728F1DCBCEEC80A10EE105A00EE105AB0
:10081000B8EE400A38EE400A10EE101A084601F011
:1008200085F941EC1B0B9FED4F0B53EC102B00F0A7
:10083000BFFE41EC1A0B9FED4D0B53EC102B00F05B
:100840008DFF41EC190B00F05BFF064642F2107081
:10085000B5FBF0F00A21B0FBF1F201FB12003030E1
:100860008DF80C004FF47A70B5FBF0F0B0FBF1F2AC
:1008700001FB120030308DF80D006420B5FBF0F064
:10088000B0FBF1F201FB120030308DF80E000A20AF
:10089000B5FBF0F0B0FBF1F201FB120030308DF847
:1008A0000F000A20B5FBF0F100FB115030308DF83D
:1008B000100042F21070B6FBF0F00A21B0FBF1F22A
:1008C00001FB120030308DF804004FF47A70B6FB53
:1008D000F0F0B0FBF1F201FB120030308DF80500B2
:1008E0006420B6FBF0F0B0FBF1F201FB12003030F7
:1008F0008DF806000A20B6FBF0F0B0FBF1F201FB28
:10090000120030308DF807000A20B6FBF0F100FB32
:10091000116030308DF80800C4F1050103ABCA182E
:10092000B91DC8B223464946FFF760FE611C01EBC2
:10093000410107EB4101C8B22E224946FFF7F0FE04
:10094000A11C01EB410107EB4101C8B2434601AADA
:100950004946FFF74BFE05B0BDEC088BBDE8F083C0
:1009600000000000F168E388B5F8D43E0000000004
:10097000006AF84070B505460E46144607E0227836
:1009800031462846FFF7A0FE641CA81DC5B220789A
:100990000028F4D170BD2DE9F04106460F461446FB
:1009A000002517E0207880280ADA227806EBC501B6
:1009B000C8B23946FFF7B4FE641C681CC5B209E032
:1009C000227806EBC501C8B23946FFF749FEA41CE0
:1009D000A81CC5B220780028E4D1BDE8F08170B52C
:1009E00004460D461DB1E0B200F08CF802E0E0B222
:1009F00000F072F870BD7047704770471848006883
:100A000040F47000164908601648006820F00100A4
:100A1000401C1449086000BF12480068C0F3400041
:100A20000028F9D00F48406820F003000D494860C5
:100A300000BF0C484068C0F381000028F9D1094884
:100A400000680949084007490860002048600863B9
:100A50004FF41F008860C80301498039086070475F
:100A600088ED00E000100240FFFFF2FE00BFFEE74D
:100A70002DE9F04105462C462021164800F00EFBDA
:100A8000002622E0274607F08007802F04D140216E
:100A9000104800F005FB03E040210E4800F0FEFA8C
:100AA0006006040E032000F0B7FA2021094800F088
:100AB000F7FA032000F0B0FA2021064800F0EEFA21
:100AC000032000F0A9FA701CC6B2082EDADBBDE8DC
:100AD000F08100000008014010B50446FFF76EFCED
:100AE0007820FFF7C5FFFFF7A3FC0020FFF7C0FF4A
:100AF000FFF79EFC2046FFF7BBFFFFF799FCFFF7CF
:100B00007DFC10BD10B50446FFF758FC7820FFF7B8
:100B1000AFFFFFF78DFC4020FFF7AAFFFFF788FC2F
:100B20002046FFF7A5FFFFF783FCFFF767FC10BD2A
:100B300000BF704710B500F053FA002000F030F805
:100B4000012000F02DF8022000F02AF8002000F02B
:100B50004FF8012000F04CF8022000F049F800F0B6
:100B600001F810BD1CB501210B4800F087F968465B
:100B700000F098FA01208DF8070000208DF804009D
:100B80008DF806000120009028208DF805006946A8
:100B9000024800F092FA1CBD020018000008014053
:100BA0001CB504460F4951F82400012100F066F9F4
:100BB000684600F077FA01208DF8070000208DF8D4
:100BC000040010208DF80600074830F8140000904B
:100BD00004208DF80500054951F82400694600F00D
:100BE0006CFA1CBD140000200C0000200000002046
:100BF000022800DD7047064931F8101031B1044970
:100C000031F81010034A52F82020116100BFF1E7BB
:100C10000C000020000000200349496860F3071120
:100C2000014A5160704700000010024003494968C2
:100C300060F30A21014A5160704700000010024031
:100C40000349496860F3CD21014A516070470000B3
:100C500000100240012807D10749496D21F03001F9
:100C60003031054A516505E00349496D21F03001F5
:100C7000014A51657047000000100240052827D244
:100C8000DFE800F0030A11181F00134A126861F32D
:100C90000002114B1A601CE00F4A126861F3104207
:100CA0000D4B1A6015E00C4A126861F318620A4B8A
:100CB0001A600EE0084A126A61F30002064B1A62DB
:100CC00007E0054A526A61F30002034B5A6200E0F2
:100CD00000BF00BF70470000001002402DE9F04146
:100CE000014600270022002590460023002400F042
:100CF0006FF9064626B1012E12D0022E43D112E022
:100D00003948406DC0F3402038B13748006BC0F31C
:100D1000406010B13548086001E03548086035E0B2
:100D20003348086032E030484068C0F300482E483D
:100D30004068C0F383422C484068C0F341750DB948
:100D40000F2A03D12801401C024400E0921CB8F194
:100D5000000F03D127485043086013E02248406841
:100D6000C0F3404058B12048406DC0F30137B81C73
:100D7000DFF87CC0BCFBF0F05043086002E01C4888
:100D80005043086002E01A48086000BF00BF1648E0
:100D90004068C0F303131848C45C0868E04048602A
:100DA00011484068C0F302231448C45C4868E0401E
:100DB000C8600D484068C0F3C2231148C45C48684D
:100DC000E040886008484068C0F300730648406807
:100DD000C0F3813040EA83030A48C45C8868B0FBF2
:100DE000F4F00861BDE8F08100100240006CDC0204
:100DF00000127A0000093D00E3240008F3240008F3
:100E0000FB2400080325000810B501460020094B0B
:100E100003EB1142126801F01F040123A3401A40A2
:100E200001F01F040123A3409A4200D000E00120FA
:100E300010BD0000001002400349496D60F30D3100
:100E4000014A5165704700000010024030B500248F
:100E5000002500E0641C1120FFF7D6FF012802D016
:100E6000B4F5405FF6D31120FFF7CEFF012801D083
:100E7000002500E00125284630BD000010B50129FD
:100E80000DD10E4B03EB1042126800F01F0401233A
:100E9000A3401A43094C04EB10431A600CE0074BC3
:100EA00003EB1042126800F01F040123A3409A4391
:100EB000024C04EB10431A6010BD00000010024009
:100EC00010B568B91C4B5B6823F480331A4C63601F
:100ED00023461B6B23F0007303F10073236317E0B9
:100EE000154B5B6823F4803303F58033124C636049
:100EF000012805D123465B6823F40033636007E0D3
:100F00000D4B5B6823F4003303F500330A4C636038
:100F1000094B5B6861F39543074C63600C09064B12
:100F20005B6864F35E73044C636023465B6862F342
:100F3000DF73636010BD00000010024013480068BA
:100F400020F00100401C1149086000BF0F480068F4
:100F5000C0F340000028F9D00C48406820F003009E
:100F60000A49486000BF09484068C0F38100002872
:100F7000F9D1064800680649084004490860002085
:100F8000486008634FF41F008860704700100240FB
:100F9000FFFFF2FE0D49496860F301010B4A516001
:100FA00000BF00BF00BF00BF00BF00BF00BF00BF49
:100FB00000BF00BF00BF00BF00BF00BF00BF00BF39
:100FC00000BF00BF00BF00BF70470000001002401C
:100FD00002484068C0F381007047000000100240E2
:100FE00010B5042000F03EFA074800680749B0FB3E
:100FF000F1F007490860084600684FF47A714843E9
:101000000449086010BD0000BC04002040420F00ED
:10101000200000202400002001460020114A126810
:101020004A434FF0E0235A6100229A611A4612693E
:1010300042F001021A6100BF4FF0E022106900F097
:1010400001021AB100F48032002AF5D04FF0E022FC
:10105000126922F001024FF0E0231A6100229A6126
:10106000704700002000002070B504460D4600BF08
:101070008021094800F049FA0028F9D0A1B20648B9
:1010800000F03AFA00BF4021034800F03EFA002881
:10109000F9D0204670BD0000003801404161704722
:1010A000016170474FF6FF7101600021817101718C
:1010B000042141710121C1717047F0B50A461588BC
:1010C000ABB29579032D01D100241AE0957965B969
:1010D000557905F00F045579182D01D1036110E001
:1010E0005579282D0DD143610BE0957905F0080560
:1010F000167906F004063543D67906F0030645EA6C
:101100000604DDB2A5B1002110E001258D401D408F
:101110005DB105688F000F26BE40B54305600568C8
:101120008E0004FA06F635430560491C0829ECD305
:10113000FF2B15DD1B12002110E001258D401D4005
:101140005DB145688F000F26BE40B54345604568D8
:101150008E0004FA06F635434560491C0829ECD395
:10116000F0BD000000F0CAF8FFF7E4FC4FF4E130F6
:1011700000F08CF900F05AF8FFF7AEF908A0FFF77D
:1011800093F80DA0FFF790F816A0FFF78DF8FFF782
:1011900064F91FA0FFF788F800F06EF800BFFEE7C3
:1011A00048617264776172655F496E6974205B6F34
:1011B0006B5D200D0A00000061745F7374617274CE
:1011C0005F613430336120626F61726420746573D3
:1011D00074696E6720323032342D30322D31320D49
:1011E0000A00000061745F73746172745F6134306F
:1011F000336120626F617264206D6F64756C65206D
:10120000736F6674696963206F6C6564200D0A00F2
:101210006F6C65645F6578616D706C655F74657334
:1012200074205B6F6B5D200D0A0000001CB501216E
:101230000F48FFF723FE6846FFF734FF01208DF8C3
:10124000070000208DF8040010208DF806004FF4F0
:101250002840009004208DF8050069460548FFF7F6
:101260002CFF4FF428410348FFF718FF1CBD000076
:10127000050018000014014010B541220021084665
:10128000FFF74EFA15A200211020FFF784FB03237D
:101290001A469FED160A19462020FFF781FA0D2203
:1012A00006210020FFF7DCF90E2206211020FFF7AF
:1012B000D7F90F2206212020FFF7D2F910220621AC
:1012C0003020FFF7CDF9112206214020FFF7C8F9A1
:1012D00007A206215020FFF74DFB10BD41543332C9
:1012E00041343033412D4F4C4544000079E9F642FA
:1012F000736F6674202D69696300000010B5FFF7F5
:101300001DFE01210846FFF7B9FC00BFFFF79EFD57
:101310000028FBD0012231210220FFF7D1FD00205F
:10132000FFF78AFD01210220FFF7A8FC00BF19206A
:10133000FFF76AFD0128FAD10020FFF76DFC0420B9
:10134000FFF77EFC0420FFF771FC0120FFF782FC11
:101350000220FFF71FFE00BFFFF73AFE0228FBD175
:101360000020FFF777FC00F001F810BD2DE9F047F1
:101370000026002400250027A046A146FFF728FEEE
:101380008246BAF1000F06D0BAF1010F15D0BAF1BA
:10139000020F46D115E02D48406DC0F3402040B10A
:1013A0002A48006BC0F3406018B1294829490860F9
:1013B00002E029482749086037E0274825490860A6
:1013C00033E022484068C0F3004720484068C0F33B
:1013D00083441E484068C0F341750DB90F2C03D1FA
:1013E0002801401C044400E0A41C27B91B486043AA
:1013F0001849086014E015484068C0F3404058B1EF
:101400001248406DC0F30136B01C1349B1FBF0F037
:1014100060431049086003E00F4860430D490860CD
:1014200003E00D480B49086000BF00BF0748406853
:10143000C0F303180A4810F808900648006820FA1C
:1014400009F004490860BDE8F08700000010024080
:10145000006CDC02BC04002000127A0000093D0090
:10146000D3240008042808D14FF0E021096941F095
:1014700004014FF0E022116107E04FF0E02109691B
:1014800021F004014FF0E022116170471CB50446C1
:1014900001211648FFF7F2FC012114480C38FFF730
:1014A000EDFC6846FFF7FEFD01208DF807000020E7
:1014B0008DF8040008208DF80600800100900420BB
:1014C0008DF8050069460A48FFF7F7FD00231A4624
:1014D0002146084800F022F80121064800F062F891
:1014E0000121044800F00CF81CBD00000E0018009B
:1014F0000008014000380140C1F308024260704713
:10150000C26861F34D32C2607047024610680840FD
:1015100008B1012070470020FCE700002DE9F043EE
:1015200085B004460F46904699466846FFF7D6FBBD
:101530001848844208D01848844205D0174884428D
:1015400002D01748844201D1029E00E0039E06EBC0
:1015500086004000B0FBF7F50A20B5FBF0F100FB78
:101560001150052803D20A20B5FBF0F503E00A204C
:10157000B5FBF0F0451CA06865F30F00A060E068C3
:1015800068F30C30E060206969F30D30206105B02C
:10159000BDE8F08300380140006001400064014074
:1015A00000680140C26861F3C302C2607047000076
:1015B00010B591EA030F48BF83F0004300F1D481D6
:1015C000841A71EB030C05D2121943EB0C03001BB8
:1015D00061EB0C01DFF824E14FEA1154A4EB135C3A
:1015E0001EEA430F18BF9EEA445F73D023EA0E033E
:1015F000DCF1200E21EA045143F4801332D322FAA5
:101600000CFE10EB0E0023FA0CFE41EB0E01CCF1A8
:10161000200E03FA0EFE10EB0E0051F10001B1F5A1
:10162000801FCCF1200E32D201EB045112FA0EF2DF
:10163000BDE8104058BF7047401C38BF5FEA420207
:1016400018BF7047002814BF20F0010041F10001CD
:101650004FEA410313F5001F38BF7047A1F1C041A5
:1016600000F074B9012A43EB0302ACF1200CDCF169
:101670001F0E32BF4FF0000E23FA0CF310EB0300E5
:1016800041EB0451B4EB115FD0D0A1EB045101F553
:10169000801149085FEA300001EB04510ED350F18C
:1016A000000038BF12FA0EFE08D1BDE81040C9E7AD
:1016B000401C38BF5FEA4202CAD1C3E7BDE8104010
:1016C0004FEA410313F5001F38BF7047A1F1C04135
:1016D00000F03CB99EEA445F08D011EA5E0FBDE815
:1016E000104004BF01F0004100207047BDE81040E9
:1016F00070B500F0DDF800BF64FBBE3E0000E0FF07
:101700004FEA1153A3F58063D3F11E03A8BFD3F1B1
:10171000200C08DB4FF0004242EAC12252EA50524C
:1017200032FA03F0704709420BD4102BC4BF0020DB
:10173000704703F5787CBCF1FF3F05D04FF0FF30D8
:1017400070474FF00000704770B500F0B1F800BF6F
:101750004992248000207047F0E70000DFF848C17C
:1017600070B51CEA111E1EBF1CEA13159EEA0C0F71
:1017700095EA0C0F00F06F8081EA030423EA4C1312
:101780004EEAD47E21EA4C1141F4801143F48013D7
:10179000AE44A1FB024CA0FB0365AEF17F7E36197F
:1017A00055EB0C05A1FB034C4CF10003A0FB021C04
:1017B00016EB0C06654153F10003094218BF46F0D1
:1017C000010613F4007F0BD14FEA03314FEA0530D5
:1017D000340341EA155140EA16506FF003020AE063
:1017E0004FEAC3214FEAC520F40241EA555140EACD
:1017F00056506FF0020202EB2E4201EB025585EAD1
:10180000CE710AD05FEA440C18BF24F0004450F1B6
:10181000000041F1000120EAD47040F2FE7C6245F4
:1018200000D270BDA84214BF4FF080444FF0404436
:10183000002E08BF0024BEF1806FA8BFA1F1C041F7
:10184000BDE8704080F282804FF0000001F1C0419D
:1018500001F0004170479EEA0C0F0CEA131518BF07
:1018600095EA0C0F06D04FF0000081EA030E0EF04F
:10187000004170BD00F01CF88900013E00F007B87F
:1018800000F009B84FEA430C5FEA5C5C08D081EADB
:10189000030100F05BB84FEA410C5FEA5C5CF6D1F3
:1018A0004FF00000014970470000FF070000F87F7B
:1018B0000EF1020E2EF0030E5EF8046B364205D4D4
:1018C000012A43EB030515F5001F12D8012841EB4F
:1018D000010C1CF5001F0CD80ED14FEAD17C15F578
:1018E000001F0CEB4C0C0CF1020C08BF4CEBD37C32
:1018F00004E04FF0080C01E04FEAD37C0CEB4C0500
:1019000026FA05F606F00706B6F1040C06D20EEB31
:10191000860CBDE870404CF0010C6047DFE80CF02D
:10192000090B02024FF000414FF00000A1F5002129
:1019300070BD19461046012851EB010418BFD4F5BB
:10194000001484BF002001F0004170BD0808A0F51C
:1019500000114FEA3101704710B591EA030F48BFFB
:1019600083F000433FF52CAE841A71EB030C07D2D1
:1019700012198CF0004C43EB0C03001B61EB0C01C3
:10198000DFF8A4E14FEA1154A4EB135C1EEA430F05
:1019900018BF9EEA445F00F0B08023EA6E03524213
:1019A00021EA0451C3EB6E0338BF5B1EDCF1200E4D
:1019B00025D322FA0CFE10EB0E0043FA0CFE41EB8D
:1019C0000E01CCF1200E03FA0EFE10EB0E0051F1C9
:1019D0000001CCF1200E29D412FA0EF201EB0451D1
:1019E000BDE8104058BF7047401C1CBFB2F1004F0B
:1019F000704700280CBF491C20F00100704712EB13
:101A0000020E43EB030218BF4FF0010E4EEA4202F2
:101A1000ACF1200CDCF11E0E54D943FA0CFE10EB95
:101A20000E0051F1FF31CCF11E0ED5D50EF1010E95
:101A300012FA0EFE404141EB010101EB445C5FEA0A
:101A40005C5C10D910EBDE7001EB045138BFBEF1C5
:101A5000004FBDE8104018BF704700280CBF491C5C
:101A600020F00100704730D24FEAD42C11F500115C
:101A700024F400641BD0B1FA81F20B3AA41AA41E1C
:101A8000D2F12003914030FA03F31943904001EB67
:101A9000CC71002C01EB0451BDE81040A8BF704789
:101AA00001F1C0414FF0000001F000417047B0FA71
:101AB00080F310FA03F100D110BDE41A173C480579
:101AC000C90AE4E701EB045110BD491001EB0451D0
:101AD000BDE810404FEA300002E04FF000017047CF
:101AE0004A0008BF0042F8D0B2F5001F28BF704777
:101AF00001F000414FF0000070479EEA445F07D0BC
:101B000011EA5E0FBDE8104004BF002100207047BD
:101B1000BDE8104070B5FFF7CBFE00BF40DFF63EDA
:101B200083F00041104670470000E0FF43004FEA99
:101B3000D30C4FEA3C0C43401FBF40070CF16051EF
:101B400013F0FE4F70471CF0006F03D100200CF023
:101B5000004170470CF0004343EA507010B540EA72
:101B6000CC0000F00EF800BF000000924FEA000128
:101B7000FFF7ECBE4FF000414FF00000A1F500214F
:101B800070470EF1020E2EF0030E5EF8044B244255
:101B900004D44FEA4102B2F17F4F11D84FEA40031B
:101BA000B3F17F4F0CD80ED14FEAD07CB2F17F4F0A
:101BB0000CEB4C0C0CF1020C08BF4CEBD17C04E09C
:101BC0004FF0080C01E04FEAD17C0CEB4C0324FAF7
:101BD00003F404F00704B4F1040C06D20EEB840CF9
:101BE000BDE810404CF0010C6047DFE80CF007083E
:101BF00002024FF00040A0F5800010BD08464200F0
:101C000018BFD2F1807288BF00F0004010BD4FF0C5
:101C10004070E1EE100A7047200000000000002133
:101C20000000002F0000220000070007002300141E
:101C30007F147F142400242A7F2A1225006264085E
:101C400013232600364955225027000005030000C3
:101C50002800001C22410029000041221C002A000B
:101C600014083E08142B0008083E08082C00000049
:101C7000A060002D0008080808082E000060600021
:101C8000002F00201008040230003E5149453E312B
:101C90000000427F4000320042615149463300213A
:101CA00041454B3134001814127F1035002745454B
:101CB000453936003C4A494930370001710905036E
:101CC000380036494949363900064949291E3A0043
:101CD00000363600003B0000563600003C00081479
:101CE0002241003D0014141414143E00004122143B
:101CF000083F0002015109064000324959513E4156
:101D0000007C1211127C42007F4949493643003E53
:101D10004141412244007F4141221C45007F494905
:101D2000494146007F0909090147003E4149497A76
:101D300048007F0808087F490000417F41004A00B1
:101D40002040413F014B007F081422414C007F405E
:101D50004040404D007F020C027F4E007F0408107F
:101D60007F4F003E4141413E50007F090909065125
:101D7000003E4151215E52007F0919294653004619
:101D800049494931540001017F010155003F40405C
:101D9000403F56001F2040201F57003F4038403F23
:101DA00058006314081463590007087008075A00A4
:101DB00061514945435B00007F4141005D000041A6
:101DC000417F005E0004020102045F004040404089
:101DD0004060000001020400610020545454786205
:101DE000007F484444386300384444442064003849
:101DF0004444487F650038545454186600087E09EE
:101E00000102670018A4A4A47C68007F0804047879
:101E1000690000447D40006A004080847D006B00C2
:101E20007F102844006C0000417F40006D007C045E
:101E30001804786E007C080404786F003844444429
:101E4000387000FC24242418710018242418FC7213
:101E5000007C08040408730048545454207400049F
:101E60003F44402075003C4040207C76001C2040D0
:101E7000201C77003C4030403C7800442810284427
:101E800079001CA0A0A07C7A004464544C447C14CB
:101E900014141414142000000000000000000000BE
:101EA00000000000000021000000F8000000000019
:101EB000000033300000002200100C06100C060059
:101EC00000000000000000002340C07840C07840BF
:101ED00000043F04043F04040024007088FC083020
:101EE0000000001820FF211E000025F008F000E08F
:101EF00018000000211C031E211E002600F0088887
:101F0000700000001E212324192721102710160E0F
:101F10000000000000000000000000000028000099
:101F200000E018040200000000071820400029000B
:101F3000020418E000000000402018070000002AFA
:101F4000404080F0804040000202010F0102020088
:101F50002B000000F0000000000101011F01010141
:101F6000002C000000000000000080B070000000A5
:101F700000002D0000000000000000000101010130
:101F80000101012E000000000000000000303000C0
:101F9000000000002F00000000806018040060189E
:101FA00006010000003000E010080810E000000FFB
:101FB000102020100F0031001010F8000000000069
:101FC00020203F20200000320070080808887000A0
:101FD000003028242221300033003008888848301F
:101FE000000018202020110E00340000C02010F83E
:101FF000000000070424243F24003500F8088888E6
:102000000808000019212020110E003600E0108879
:1020100088180000000F112020110E00370038082A
:1020200008C83808000000003F00000000380070B9
:10203000880808887000001C222121221C00390019
:10204000E010080810E0000000312222110F003AD1
:10205000000000C0C00000000000003030000000A0
:102060003B000000800000000000008060000000D5
:10207000003C00008040201008000001020408100D
:1020800020003D404040404040400004040404041F
:102090000404003E000810204080000000201008CA
:1020A000040201003F007048080808F0000000002A
:1020B000303601000040C030C828E810E0000718A2
:1020C000272423140B00410000C038E0000000204A
:1020D0003C2302022738204208F8888888700000D4
:1020E000203F202020110E0043C030080808083887
:1020F0000007182020201008004408F808080810DD
:10210000E000203F202020100F004508F88888E8D4
:10211000081000203F2020232018004608F8888857
:10212000E8081000203F20000300000047C03008EE
:10213000080838000007182020221E02004808F86E
:1021400008000008F808203F210101213F20490034
:102150000808F8080800000020203F202000004A5E
:1021600000000808F8080800C08080807F00000098
:102170004B08F888C028180800203F200126382086
:10218000004C08F8080000000000203F202020201C
:1021900030004D08F8F800F8F80800203F003F0034
:1021A0003F20004E08F830C00008F808203F20000B
:1021B00007183F004FE01008080810E0000F10203B
:1021C0002020100F005008F808080808F000203FF1
:1021D00021010101000051E01008080810E0000F83
:1021E00018242438504F005208F8888888887000D6
:1021F000203F2000030C3020530070880808083866
:10220000000038202121221C0054180808F8080872
:1022100018000000203F200000005508F8080000CA
:1022200008F808001F202020201F0056087888008A
:1022300000C83808000007380E01000057F80800F1
:10224000F80008F800033C0700073C030058081892
:1022500068808068180820302C03032C302059082F
:1022600038C800C83808000000203F200000005A8D
:1022700010080808C8380800203826212020180037
:102280005B000000FE020202000000007F404040B0
:10229000005D00020202FE000000004040407F009E
:1022A00000005E00000402020204000000000000C2
:1022B0000000005F000000000000000080808080BF
:1022C00080808080600002020400000000000000A6
:1022D0000000000000610000808080800000001984
:1022E000242222223F206208F800808000000000A3
:1022F0003F112020110E006300000080808000004C
:10230000000E11202020110064000000808088F859
:1023100000000E112020103F20650000808080808A
:102320000000001F22222222130066008080F08815
:102330008888180020203F2020000067000080804F
:1023400080808000006B9494949360006808F8008B
:102350008080800000203F210000203F2069008015
:102360009898000000000020203F202000006A0014
:102370000000809898000000C08080807F00006B83
:1023800008F8000080808000203F24022D302000CB
:102390006C000808F8000000000020203F2020000A
:1023A000006D8080808080808000203F20003F2062
:1023B000003F6E8080008080800000203F21000070
:1023C000203F206F0000808080800000001F2020C0
:1023D00020201F0070808000808000000080FFA10E
:1023E0002020110E00710000008080808000000E0F
:1023F000112020A0FF8072808080008080800020DB
:10240000203F212000010073000080808080800038
:10241000003324242424190074008080E08080008C
:10242000000000001F202000007580800000008058
:102430008000001F202020103F2076808080000038
:1024400080808000010E30080601007780800080C7
:10245000008080800F300C030C300F0078008080EB
:1024600000808080000020312E0E31200079808095
:1024700080000080808080818E70180601007A00C4
:10248000808080808080000021302C222130007BE1
:1024900000000000807C020200000000003F40407D
:1024A0007C00000000FF00000000000000FF0000B2
:1024B000007D0002027C800000000040403F0000E0
:1024C00000007E000601010202040400000000007A
:1024D00000000000000000000000000102030406EC
:1024E00007080900000000000000000102030406C4
:1024F00007080900000000010203040000000001B9
:1025000002030402040608020C0810002C2500082F
:1025100000000020C0040000C00100084C27000893
:10252000C0040020600600001C020008117C140199
:10253000400412201240228012057A1804C1520170
:102540001BF010012AFF050215F01B0F04012AFFE2
:102550000502130F18094040405F55555575041A80
:102560005F0C091121080C11200F0949897909090B
:10257000090F201F112FFE02424ACA4A03041342C8
:1025800002FE000E14FF40504C4340404F50505C40
:1025900040FF1BF888012AFF050215F81B1F0801E0
:1025A0002A7F200B109F80E23B808201000916E207
:1025B000A2928A86828080041840807F08101020B2
:1025C00020242424A4242420FF20222C20203B0883
:1025D0000E10C07E40403F222220030C102040A25B
:1025E000000E131060020CC0021EE2020202E21E84
:1025F000080E1104047C0380804020130C1320403B
:10260000A01A04011E1F0424448406190109106045
:102610002308062B3F40010D127001020C80128C22
:10262000080B11FE02F2525A565252F20260080D85
:10263000107E41300F201349817F010913E0613A78
:10264000FF6102134049194A7F07091122198008C6
:102650000B100CC01008F714549414F4BF19801315
:102660007C03000B11011D13115599513F110117E6
:1026700080FC96E584FC00081208C8494AC808088E
:10268000200A807F024C807F80601F0D113F4040F8
:102690007860180804041F042444840619010910F2
:1026A000A03B08063A190105127001020C080E1031
:1026B000C2BA8282FEA290FC4B48F94A4881272088
:1026C000100846817F000811FF22223F22222000AD
:1026D0001011403C10FF1010404848487F48C8483F
:1026E0004017020602FF0101000912020A1242828B
:1026F0007F02022A1001194319010214F0178040C9
:10270000201806010613204080403F172424A4FE11
:10271000A3221B22CCA3011415080601FF2B0104E0
:10272000010B11FF0280397D1F9008888888FF0403
:102730000211080010190444827F01808040432C5C
:0C274000102846818019E42113127A0051
:040000050800018569
:00000001FF
