:020000040800F2
:100000009806002081020008C7040008BF04000809
:10001000C3040008B90400088505000800000000BA
:10002000000000000000000000000000CB040008F9
:10003000BD04000800000000C9040008CD04000849
:100040009B0200089B0200089B0200089B0200081C
:100050009B0200089B0200089B0200089B0200080C
:100060009B0200089B0200089B0200089B020008FC
:100070009B0200089B0200089B0200089B020008EC
:100080009B0200089B0200089B0200089B020008DC
:100090009B0200089B0200089B0200089B020008CC
:1000A0009B0200089B0200089B0200089B020008BC
:1000B0009B0200089B0200089B0200089B020008AC
:1000C0009B0200089B0200089B0200089B0200089C
:1000D0009B0200089B0200089B0200089B0200088C
:1000E0009B0200089B0200089B0200089B0200087C
:1000F0009B0200089B0200080000000000000000B6
:100100000000000000000000000000009B0200084A
:100110009B0200089B0200089B0200089B0200084B
:100120009B0200089B0200089B0200089B0200083B
:100130009B02000800000000000000009B02000875
:100140009B0200089B0200089B0200089B0200081B
:100150009B0200089B020008000000009B020008B0
:100160009B0200089B020008000000000000000045
:10017000000000000000000000000000000000007F
:10018000000000009B0200089B0200089B02000880
:10019000000000000000000000000000000000005F
:1001A000000000000000000000000000000000004F
:1001B00000000000000000009B020008000000009A
:1001C000000000000000000000000000000000002F
:1001D0000000000000000000000000009B0200087A
:1001E00000F002F800F03CF80AA090E8000C82440D
:1001F0008344AAF10107DA4501D100F031F8AFF2EA
:10020000090EBAE80F0013F0010F18BFFB1A43F0F4
:1002100001031847080F0000280F0000103A24BF00
:1002200078C878C1FAD8520724BF30C830C144BF5B
:1002300004680C607047000000230024002500269D
:10024000103A28BF78C1FBD8520728BF30C148BF39
:100250000B6070471FB500F03EFF1FBD10B510BD0D
:1002600000F0E4F81146FFF7F5FF00F0D3FC00F0D2
:1002700016F903B4FFF7F2FF03BC00F085F90000A4
:100280000948804709480047FEE7FEE7FEE7FEE72A
:10029000FEE7FEE7FEE7FEE7FEE7FEE70448054966
:1002A000054A064B70470000D1040008E101000830
:1002B0009800002098060020980200209802002054
:1002C000704753EA020C00F069802DE9F04B4FF0C3
:1002D0000006002B1FBFB3FA83F503FA05F424FAD6
:1002E00005F65E4012BF1643B2FA82F502FA05F433
:1002F000C5F120051EBF22FA05FC44EA0C04203596
:1003000056EA044C4FEA144418BF641C4FF000082E
:100310004FF00009904271EB030C39D3002919BF4B
:10032000B1FA81F701FA07F6B0FA80F700FA07F69A
:10033000C7F120071EBF20FA07FC46EA0C0620374B
:10034000B6FBF4FCA7EB0507103F07F01F0BCBF142
:1003500020060CFA0BFB2CFA06F644BFB346002627
:10036000202FA4BF5E464FF0000B5BEA060C08BFCF
:100370004FF0010B19EB0B09ABFB027C48EB0608B5
:10038000C01B06FB02CC0BFB03CC71EB0C01C1E7DD
:100390000B46024641464846BDE8F08B13B54FF088
:1003A00000004FF00001AFF30080BDE81C40704733
:1003B0000FB4044910B503AA029800F009F810BC64
:1003C0005DF814FB280000207047704770477047A5
:1003D000074B70B50D467B4400F011F804462846E3
:1003E00000F020F810B14FF0FF3070BD204670BD16
:1003F0002307000001694A1C02610878704700B5B4
:100400008FB0CDE901310021059105497944CDE94D
:1004100003101146684600F02EF80FB000BD000032
:10042000E5FFFFFF007B00F080007047754600F09D
:100430003FF8AE4605006946534620F00700854662
:1004400018B020B5FFF72AFFBDE820404FF00006A6
:100450004FF000074FF000084FF0000B21F00701AC
:10046000AC46ACE8C009ACE8C009ACE8C009ACE8EF
:10047000C0098D4670472DE9F04106460024D6E9B3
:100480000170F5688046304603E04146B847641C79
:100490003046A8470028F8D12046BDE8F08110B5C5
:1004A0000446AFF300802046BDE81040FFF7E1BEF0
:1004B000004870473400002000BFFEE7704700BFCF
:1004C000FEE700BFFEE770477047704770470000C7
:1004D00010B52848006840F47000264908600120E3
:1004E00000F000F92448006820F00100401C224977
:1004F000086000BF20480068C0F340000028F9D021
:100500001D480830006820F003001B4908310860CE
:1005100000BF194808300068C0F381000028F8D1F6
:100520001548006815490840134908604FF080409D
:100530001149083108601248091F08600E48A030B0
:10054000006800F4A0400C49A0310860084600682B
:1005500040F4702008604FF41F0007490C31086018
:10056000002000F0BFF84FF00060024980390860B9
:1005700010BD000088ED00E000380240FFFFF2FEF1
:100580000230030000BFFEE700BF704710B500F067
:1005900099FA002000F030F8012000F02DF8022038
:1005A00000F02AF8002000F04FF8012000F04CF88D
:1005B000022000F049F800F001F810BD1CB501213F
:1005C0004FF4401000F0B2F9684600F0B1FA012093
:1005D0008DF8070000208DF804008DF8060001203A
:1005E000009002208DF805006946024800F0AAFA42
:1005F0001CBD0000000002401CB504460F4951F824
:100600002400012100F092F9684600F091FA0120DF
:100610008DF8070000208DF8040001208DF80600F9
:10062000074830F81400009000208DF805000549B7
:1006300051F82400694600F085FA1CBD1400002022
:100640000C00002000000020022800DD7047064951
:1006500031F8101031B1044931F81010034A52F842
:100660002020916100BFF1E70C0000200000002075
:10067000022800DD7047064931F8101031B10449F5
:1006800031F81010034A52F82020D16200BFF1E780
:100690000C0000200000002000B50346012000F0FF
:1006A00021F80548006863F307100349086000203B
:1006B00000F018F800BD000008380240034909683E
:1006C00060F38C21014A1160704700000838024035
:1006D0000349096860F34F31014A11607047000017
:1006E00008380240012807D10749096821F0300184
:1006F0003031054A116005E00349096821F03001F5
:10070000014A116070470000A438024005282BD22E
:10071000DFE800F0030A11182100154A126861F39E
:100720000002134B1A6020E0114A126861F3104274
:100730000F4B1A6019E00E4A126861F318620C4BF5
:100740001A6012E00A4A7032126861F30002084B24
:1007500070331A6009E0064A7432126861F30002CD
:10076000034B74331A6000E000BF00BF7047000005
:10077000003802402DE9F04F87B004460020069073
:10078000059004900390029081468246834600F0D3
:1007900075F90190019820B101281BD002285BD186
:1007A00024E043480068C0F3803038B14048006816
:1007B000C0F3003010B13F48206001E03E482060A7
:1007C0003B48001D0068C0F3024B206820FA0BF084
:1007D000206044E0384820603548001D0068C0F3C0
:1007E000C24B206820FA0BF0206038E030489C387B
:1007F0000068C0F3805003902D489C380068C0F317
:10080000881006902A489C38006800F00F00059078
:1008100027489C380068C0F302402849085C0490CF
:10082000039810B92448029001E023480290DDE9C2
:10083000041000FB01FC06990298A0FB0170014620
:10084000624600233846FFF73CFD0546022200239E
:10085000FFF737FD206002E01748206000BF00BFAF
:10086000134898380068C0F30319154810F809A018
:10087000206820FA0AF060600D4898380068C0F3DC
:100880008229104810F809A0606820FA0AF0E06098
:10089000074898380068C0F342390B4810F809A09F
:1008A000606820FA0AF0A06007B0BDE8F08F000091
:1008B000A0380240006CDC0200127A001611000819
:1008C000F6100008061100080E11000810B50146C8
:1008D0000020094B03EB1142D2F8002801F01F045D
:1008E0000123A3401A4001F01F040123A3409A42B0
:1008F00000D000E0012010BD0030024030B50024DF
:10090000002500E0641C1120FFF7E0FF012802D061
:10091000B4F5405FF6D31120FFF7D8FF012801D0CE
:10092000002500E00125284630BD000010B5012952
:100930000FD1104B03EB1042D2F8002800F01F0437
:100940000123A3401A430B4C04EB1043C3F80028C7
:100950000EE0084B03EB1042D2F8002800F01F0411
:100960000123A3409A43034C04EB1043C3F800282F
:1009700010BD00000030024030B538B90F4C24687B
:1009800024F4805404F580540C4D2C600B4C9C3C9A
:10099000246860F39654094D9C3D2C602C462468D5
:1009A00061F38E142C602C46246862F303042C60DF
:1009B0002C46246863F312442C6030BDA0380240FA
:1009C00000B50120FFF78EFE2048006820F00100EE
:1009D000401C1E49086000BF1C480068C0F340006E
:1009E0000028F9D019480830006820F003001749A2
:1009F0000831086000BF154808300068C0F3810066
:100A00000028F8D111480068114908400F490860D2
:100A10004FF080400D49083108600E48091F0860FA
:100A20000A48A030006800F4A0400849A0310860DE
:100A30000846006840F4702008604FF41F00034926
:100A40000C3108600020FFF74DFE00BD0038024069
:100A5000FFFFF2FE0230030000B503460120FFF75E
:100A600041FE0548006863F3010003490860002067
:100A7000FFF738FE00BD0000083802400248006859
:100A8000C0F3810070470000083802400146002092
:100A900021B1012907D002290FD109E0084A1268C3
:100AA00002F0030009E0064A1268C2F3810004E084
:100AB000034A1268C2F3011000BF00BF7047000074
:100AC0006838024010B5042000F0EAF907480068D1
:100AD0000749B0FBF1F007490860084600684FF489
:100AE0007A7148430449086010BD000030000020BE
:100AF00040420F00200000202400002070B5044672
:100B00000D4600BF8021094800F021FA0028F9D0E5
:100B1000A1B2064800F012FA00BF4021034800F0DD
:100B200016FA0028F9D0204670BD000000100140E0
:100B30004FF6FF7101600021817101714171012146
:100B4000C171704770B50A4600211488A3B233E022
:100B500003F001046CB304684E000325B540AC43B8
:100B6000046094794D00AC4005682C4304604468EF
:100B700001258D40AC434460446815798D402C4379
:100B8000446084684E000325B540AC438460D4794A
:100B90004D00AC4085682C438460C4684E0003253A
:100BA000B540AC43C46054794D00AC40C5682C439B
:100BB000C4605B104C1CA1B2002BC9DC70BDF0B549
:100BC000002300244D07ED0E02FA05F3CD105DB1B0
:100BD000456A4E07F70E0F26BE40B5434562456A8B
:100BE00045EA030444620AE0056A4E07F70E0F2641
:100BF000BE40B5430562056A45EA03040462F0BDE0
:100C000010B500F06BF8FFF7C1FC4FF4E13000F0D5
:100C10005BF910BDFFF7F4FF08A0FFF7C9FB0DA0BB
:100C2000FFF7C6FB17A0FFF7C3FB05E00020FFF7A7
:100C30001FFD1FA0FFF7BCFBF8E7000048617264CE
:100C4000776172655F496E6974205B6F6B5D200D23
:100C50000A00000061745F73746172745F663432FD
:100C60003320626F6172642074657374696E6720EB
:100C7000323032342D30382D3033205B6F6B5D20B5
:100C80000D0A000061745F73746172745F663432C0
:100C90003320626F6172642075736172742D70729B
:100CA000696E7466205B6F6B5D200D0A00000000AA
:100CB00061745F73746172745F6634323320626F83
:100CC00061726420617433325F6C65645F746F6756
:100CD000676C65205B6F6B5D200D0A0010B5FFF738
:100CE0006FFE4FF4AA702049086001211F48FFF7EA
:100CF0001DFE1F48006920F00300C01C1C4908614C
:100D000001210846FFF702FD00BFFFF7F7FD0028AD
:100D1000FBD001231A4648211846FFF72DFE01217A
:100D20000220FFF7F3FC00BF1920FFF7CFFD0128D9
:100D3000FAD10020FFF7B0FC0020FFF7C9FC042027
:100D4000FFF7BCFC0120FFF7CDFC0220FFF784FE7B
:100D500000BFFFF793FE0228FBD10020FFF7C2FC83
:100D600000F008F810BD0000003C02401C004000EC
:100D7000007000402DE9F04F85B04FF00009CA46E1
:100D8000CB46002004900390029001900024FFF7CE
:100D900075FE0090009820B101281ED002285BD17A
:100DA00028E039480068C0F3803040B13648006818
:100DB000C0F3003018B135483549086002E03548C5
:100DC000334908603048001D0068C0F302443048D1
:100DD0000068E0402E49086042E02E482C49086037
:100DE0002948001D0068C0F3C24408460068E0407E
:100DF000086035E024489C380068C0F380500490B7
:100E000021489C380068C0F388191F489C38006846
:100E100000F00F0A1C489C380068C0F302401E49CD
:100E200011F800B0049810B91A48039001E019486D
:100E300003900AFB0BFC0398A0FB09700146624675
:100E400000233846FFF73DFA054602220023FFF74C
:100E500038FA0F49086003E00E480D49086000BFEA
:100E600000BF094898380068C0F3031002900B498E
:100E70000298085C0190064800680199C84004493E
:100E8000086005B0BDE8F08FA0380240006CDC02BD
:100E90003000002000127A00F0100008E010000876
:100EA000042808D14FF0E021096941F004014FF016
:100EB000E022116107E04FF0E021096921F004010F
:100EC0004FF0E022116170471CB50446012118481B
:100ED000FFF72CFD01214FF44010FFF727FD684676
:100EE000FFF726FE01208DF8070000208DF8040092
:100EF00002208DF806000002009000208DF8050009
:100F000069460C48FFF71EFE072209210948FFF732
:100F100056FE00231A462146074800F021F8012119
:100F2000054800F0D3F80121034800F00BF81CBD80
:100F3000040044000000024000100140C1F3080218
:100F400042607047C26861F34D32C260704702462A
:100F50001068084008B1012070470020FCE700003D
:100F60002DE9FF470446894690469A466846FFF7B2
:100F700001FC504884421AD10020FFF787FD064645
:100F80000EB9029D53E0012E01D1009D4FE0032ECA
:100F900002D14FF400454AE0474D48480068C0F38D
:100FA0000030002843D005EB450045003FE04448B1
:100FB000844219D10120FFF769FD06460EB9039D51
:100FC00035E0012E01D1009D31E0032E02D14FF416
:100FD00000452CE0384D39480068C0F30030F8B1C6
:100FE00005EB4500450022E03648844219D1022035
:100FF000FFF74CFD06460EB9039D18E0012E01D106
:10100000009D14E0032E02D14FF400450FE02A4D5D
:101010002A480068C0F3003010B105EB45004500D8
:1010200005E02948844201D1029D00E0039D05EBC3
:1010300085004000B0FBF9F70A20B7FBF0F100FB98
:101040001170052803D20A20B7FBF0F703E00A204D
:10105000B7FBF0F0471CA06867F30F00A060B8F181
:10106000020F0AD1E06820F0805000F18050E0606B
:10107000E06820F48050E06015E0B8F1000F08D17E
:10108000E06820F08050E060E06820F48050E0608C
:1010900009E0E06820F08050E060E06820F48050D3
:1010A00000F58050E06020696AF30D302061BDE8F2
:1010B000FF8700000010014000127A00A0380240B3
:1010C000004400400048004000140140C26861F341
:1010D000C302C26070474FF04070E1EE100A7047E3
:1010E00000000000000000000102030406070809D8
:1010F00001020408102000000000000000000102AE
:1011000003040607080900000000010203040000B0
:101110000000010203040102040810203C11000831
:1011200000000020340000001C02000870110008BC
:10113000340000206406000038020008000C024061
:10114000000C0240000C0240002000400080000023
:1011500003003000030030000300300000000000F6
:1011600000000000000000000100000000127A00F2
:04000005080001E10D
:00000001FF
