:020000040800F2
:10000000C006002025020008CF030008C70300082F
:10001000CB030008C10300084904000800000000E9
:10002000000000000000000000000000D3030008F2
:10003000C503000800000000D1030008D503000834
:100040003F0200083F0200083F0200083F0200088C
:100050003F0200083F0200083F0200083F0200087C
:100060003F0200083F0200083F0200083F0200086C
:100070003F0200083F0200083F0200083F0200085C
:100080003F0200083F0200083F0200083F0200084C
:100090003F0200083F0200083F0200083F0200083C
:1000A0003F0200083F0200083F0200083F0200082C
:1000B0003F0200083F0200083F0200083F0200081C
:1000C0003F0200083F0200083F0200083F0200080C
:1000D0003F0200083F0200083F0200083F020008FC
:1000E0003F0200083F0200083F0200083F020008EC
:1000F0003F0200083F0200083F0200083F020008DC
:100100003F0200083F0200083F0200083F020008CB
:100110003F0200083F0200083F0200083F020008BB
:100120003F0200083F0200083F0200083F020008AB
:100130003F0200083F0200083F0200083F0200089B
:1001400000000000000000000000000000000000AF
:100150003F0200083F0200083F0200083F0200087B
:100160003F0200083F0200083F0200083F0200086B
:100170003F0200083F0200083F0200083F0200085B
:100180003F02000800F002F800F03CF80AA090E8F6
:10019000000C82448344AAF10107DA4501D100F042
:1001A00031F8AFF2090EBAE80F0013F0010F18BFD3
:1001B000FB1A43F0010318473C1100005C110000DA
:1001C000103A24BF78C878C1FAD8520724BF30C883
:1001D00030C144BF04680C60704700000023002455
:1001E00000250026103A28BF78C1FBD8520728BF47
:1001F00030C148BF0B6070471FB501F05AF81FBDF2
:1002000010B510BD00F096F81146FFF7F5FF00F0AD
:1002100045FE00F0C8F803B4FFF7F2FF03BC00F09E
:1002200015F900000948804709480047FEE7FEE746
:10023000FEE7FEE7FEE7FEE7FEE7FEE7FEE7FEE796
:1002400004480549054A064B70470000D9030008D9
:1002500085010008C0000020C0060020C002002068
:10026000C0020020704700000FB4044910B503AA73
:10027000029800F031F810BC5DF814FB2800002053
:100280004FF0000200B5134694469646203922BF2F
:10029000A0E80C50A0E80C50B1F12001BFF4F7AF7A
:1002A000090728BFA0E80C5048BF0CC05DF804EB5C
:1002B000890028BF40F8042B08BF704748BF20F8CA
:1002C000022B11F0804F18BF00F8012B70477047C8
:1002D0007047704770470000074B70B50D467B4470
:1002E00000F011F80446284600F020F810B14FF055
:1002F000FF3070BD204670BDAB0A000001694A1C8A
:1003000002610878704700B58FB0CDE90131002156
:10031000059105497944CDE903101146684600F07E
:100320002EF80FB000BD0000E5FFFFFF007B00F0DE
:1003300080007047754600F03FF8AE4605006946FC
:10034000534620F00700854618B020B5FFF778FF28
:10035000BDE820404FF000064FF000074FF00008C6
:100360004FF0000B21F00701AC46ACE8C009ACE847
:10037000C009ACE8C009ACE8C0098D4670472DE95A
:10038000F04106460024D6E90170F5688046304603
:1003900003E04146B847641C3046A8470028F8D11E
:1003A0002046BDE8F08110B50446AFF3008020463A
:1003B000BDE81040FFF72FBF0048704760000020E5
:1003C00000BFFEE7704700BFFEE700BFFEE77047D3
:1003D00070477047704700001848006840F470008C
:1003E000164908601648006820F00100401C1449B6
:1003F000086000BF12480068C0F340000028F9D030
:100400000F48406820F003000D49486000BF0C48C9
:100410004068C0F381000028F9D109480068094903
:100420000840074908600020486008634FF41F0037
:100430008860C803014980390860704788ED00E092
:1004400000100240FFFFF2FE00BFFEE700BF704752
:1004500010B500F045FC002000F030F8012000F05D
:100460002DF8022000F02AF8002000F04FF80120BB
:1004700000F04CF8022000F049F800F001F810BD3F
:100480001CB501210B4800F079FB684600F09EFC8A
:1004900001208DF8070000208DF804008DF806007B
:1004A0000120009028208DF805006946024800F0E0
:1004B00098FC1CBD02001800000801401CB5044651
:1004C0000F4951F82400012100F058FB684600F064
:1004D0007DFC01208DF8070000208DF8040010201D
:1004E0008DF80600074830F81400009004208DF8BD
:1004F0000500054951F82400694600F072FC1CBD56
:10050000140000200C00002000000020022800DD64
:100510007047064931F8101031B1044931F8101014
:10052000034A52F82020116100BFF1E70C000020BF
:100530000000002000F1080343F82120704700006C
:1005400070B50546284600F03BFC0446072C21D236
:10055000DFE804F004080C1014181C000EA0FFF7CC
:1005600083FE17E014A0FFF77FFE13E019A0FFF74A
:100570007BFE0FE01FA0FFF777FE0BE025A0FFF743
:1005800073FE07E02BA0FFF76FFE03E032A0FFF73A
:100590006BFE00BF00BF70BD2D2D2D3E206B657919
:1005A0003120707265737320646F776E21203C2D4B
:1005B0002D2D0D0A000000002A2A2A3E206B6579A5
:1005C0003120707265737320757021203C2A2A2AAD
:1005D0000D0A00002D2D2D3E206B657931207072A3
:1005E0006573732072657065617421203C2D2D2D1B
:1005F0000D0A00002D2D2D3E206B65793120736989
:100600006E676C6520636C69636B21203C2D2D2D1A
:100610000D0A00002A2A2A3E206B65793120646F7A
:1006200075626C6520636C69636B21203C2A2A2A01
:100630000D0A00002D2D2D3E206B657931206C6F49
:100640006E672070726573732073746172742120F9
:100650003C2D2D2D0D0A00002A2A2A3E206B65799B
:1006600031206C6F6E6720707265737320686F6CD9
:100670006421203C2A2A2A0D0A00000070B5044695
:10068000606880470546E07800F00700002802DD3A
:100690002088401C2080E078B5EBD01F13D0E07894
:1006A000C008401CE17860F3C501E170C1F3C200ED
:1006B00003280CDBE07865F3C710E070E07820F0E9
:1006C0003800E07003E0E07820F03800E070E07877
:1006D00000F00700062826D2DFE800F00326529C2F
:1006E000DEBDE078C0F38010E178B0EBD11F15D10A
:1006F000A07820F0F000A070A06810B12046A1689A
:10070000884700202080A07820F00F00401CA070B7
:10071000E07820F00700401CE07004E0A07820F0B2
:10072000F0008030A070B7E0E078C0F38010E1788E
:10073000B0EBD11F11D0A07820F0F0001030A070E5
:10074000E06810B12046E168884700202080E0780A
:1007500020F00700801CE07011E02088C8280EDD22
:10076000A07820F0F0005030A070E06910B1204671
:10077000E1698847E07820F00700401DE0708BE0D9
:10078000E078C0F38010E178B0EBD11F1BD1A078E6
:1007900020F0F000A070A06810B12046A168884742
:1007A000A078401CA17860F30301A170206910B10A
:1007B00020462169884700202080E07820F007004B
:1007C000C01CE07025E020883C2822DDA07800F0E5
:1007D0000F0001280AD1A07820F0F0003030A0707E
:1007E000606990B12046616988470EE0A07800F00A
:1007F0000F00022809D1A07820F0F0004030A0704E
:10080000A06910B12046A1698847E07820F0070070
:10081000E07041E0E078C0F38010E178B0EBD11FE8
:1008200018D0A07820F0F0001030A070E06810B16F
:100830002046E168884720883C2807DA002020808D
:10084000E07820F00700801CE07003E0E07820F002
:100850000700E07020E0E078C0F38010E178B0EBB2
:10086000D11F0AD1A07820F0F0006030A070206A7B
:1008700088B12046216A88470DE0A07820F0F0007A
:100880001030A070E06810B12046E1688847E07839
:1008900020F00700E07000BF00BF70BD70B50446D7
:1008A0000D46164628212046FFF7EAFCA07820F0E6
:1008B000F0008030A070656060688047E17860F388
:1008C000C711E170E07866F38610E07070BD00003B
:1008D00001460948026805E08A4202D14FF0FF3024
:1008E0007047526A002AF7D10348006848620248FC
:1008F00001600020F4E700003400002010B5054836
:10090000046803E02046FFF7B9FE646A002CF9D1C1
:1009100010BD0000340000200349496860F307114E
:10092000014A5160704700000010024003494968C5
:1009300060F30A21014A5160704700000010024034
:100940000349496860F3CD21014A516070470000B6
:1009500000100240012807D10749496D21F03001FC
:100960003031054A516505E00349496D21F03001F8
:10097000014A51657047000000100240052827D247
:10098000DFE800F0030A11181F00134A126861F330
:100990000002114B1A601CE00F4A126861F310420A
:1009A0000D4B1A6015E00C4A126861F318620A4B8D
:1009B0001A600EE0084A126A61F30002064B1A62DE
:1009C00007E0054A526A61F30002034B5A6200E0F5
:1009D00000BF00BF70470000001002402DE9F04149
:1009E000014600270022002590460023002400F045
:1009F0006FF9064626B1012E12D0022E43D112E025
:100A00003948406DC0F3402038B13748006BC0F31F
:100A1000406010B13548086001E03548086035E0B5
:100A20003348086032E030484068C0F300482E4840
:100A30004068C0F383422C484068C0F341750DB94B
:100A40000F2A03D12801401C024400E0921CB8F197
:100A5000000F03D127485043086013E02248406844
:100A6000C0F3404058B12048406DC0F30137B81C76
:100A7000DFF87CC0BCFBF0F05043086002E01C488B
:100A80005043086002E01A48086000BF00BF1648E3
:100A90004068C0F303131848C45C0868E04048602D
:100AA00011484068C0F302231448C45C4868E04021
:100AB000C8600D484068C0F3C2231148C45C486850
:100AC000E040886008484068C0F30073064840680A
:100AD000C0F3813040EA83030A48C45C8868B0FBF5
:100AE000F4F00861BDE8F08100100240006CDC0207
:100AF00000127A0000093D00CC120008DC12000848
:100B0000E4120008EC12000810B501460020094B61
:100B100003EB1142126801F01F040123A3401A40A5
:100B200001F01F040123A3409A4200D000E00120FD
:100B300010BD0000001002400349496D60F30D3103
:100B4000014A5165704700000010024030B5002492
:100B5000002500E0641C1120FFF7D6FF012802D019
:100B6000B4F5405FF6D31120FFF7CEFF012801D086
:100B7000002500E00125284630BD000010B5012900
:100B80000DD10E4B03EB1042126800F01F0401233D
:100B9000A3401A43094C04EB10431A600CE0074BC6
:100BA00003EB1042126800F01F040123A3409A4394
:100BB000024C04EB10431A6010BD0000001002400C
:100BC00010B568B91C4B5B6823F480331A4C636022
:100BD00023461B6B23F0007303F10073236317E0BC
:100BE000154B5B6823F4803303F58033124C63604C
:100BF000012805D123465B6823F40033636007E0D6
:100C00000D4B5B6823F4003303F500330A4C63603B
:100C1000094B5B6861F39543074C63600C09064B15
:100C20005B6864F35E73044C636023465B6862F345
:100C3000DF73636010BD00000010024013480068BD
:100C400020F00100401C1149086000BF0F480068F7
:100C5000C0F340000028F9D00C48406820F00300A1
:100C60000A49486000BF09484068C0F38100002875
:100C7000F9D1064800680649084004490860002088
:100C8000486008634FF41F008860704700100240FE
:100C9000FFFFF2FE0D49496860F301010B4A516004
:100CA00000BF00BF00BF00BF00BF00BF00BF00BF4C
:100CB00000BF00BF00BF00BF00BF00BF00BF00BF3C
:100CC00000BF00BF00BF00BF70470000001002401F
:100CD00002484068C0F381007047000000100240E5
:100CE00010B5042000F040FA074800680749B0FB3F
:100CF000F1F007490860084600684FF47A714843EC
:100D00000449086010BD00003000002040420F0080
:100D10002000002024000020002131E032280ADDDC
:100D2000194A126832235A434FF0E0235A61A0F166
:100D3000320290B206E0144A126842434FF0E023B8
:100D40005A61002000224FF0E0239A611A4612698E
:100D500042F001021A6100BF4FF0E022116901F078
:100D600001021AB101F48032002AF5D04FF0E022DE
:100D7000126922F001024FF0E0231A6100229A6109
:100D80000028CBD1704700002400002070B5044635
:100D90000D4600BF8021094800F039FA0028F9D03B
:100DA000A1B2064800F02AFA00BF4021034800F033
:100DB0002EFA0028F9D0204670BD0000003801400E
:100DC0000146887800097047416170474FF6FF710E
:100DD0000160002181710171042141710121C17102
:100DE0007047F0B50A461588ABB29579032D01D14D
:100DF00000241AE0957965B9557905F00F04557905
:100E0000182D01D1036110E05579282D0DD14361D2
:100E10000BE0957905F00805167906F004063543D0
:100E2000D67906F0030645EA0604DDB2A5B1002135
:100E300010E001258D401D405DB105688F000F2633
:100E4000BE40B543056005688E0004FA06F63543DA
:100E50000560491C0829ECD3FF2B15DD1B1200216E
:100E600010E001258D401D405DB145688F000F26C3
:100E7000BE40B543456045688E0004FA06F635432A
:100E80004560491C0829ECD3F0BD02460020936858
:100E90000B408B4200D000E00120704700F0B0F81A
:100EA000FFF7D6FA4FF4E13000F072F900F07AF86B
:100EB0001DA0FFF7D9F922A0FFF7D6F92BA0FFF765
:100EC000D3F9002234493548FFF7E8FC344A0021C1
:100ED0003248FFF72FFB324A01213048FFF72AFB47
:100EE0002F4A02212D48FFF725FB2D4A03212B48CD
:100EF000FFF720FB2A4A04212848FFF71BFB284A5A
:100F000005212648FFF716FB254A06212348FFF74F
:100F100011FB2248FFF7DCFC04E0FFF7EFFC0A209E
:100F2000FFF7FAFEF9E700004861726477617265C5
:100F30005F496E6974205B6F6B5D200D0A000000D5
:100F400061745F73746172745F6134303361206205
:100F50006F6172642074657374696E672032303219
:100F6000342D30322D31310D0A00000061745F7371
:100F7000746172745F613430336120626F617264D6
:100F8000206D6F64756C65206D756C74692D62756C
:100F900074746F6E0D0A0000F10F00083800002015
:100FA000410500081CB501210F48FFF7E7FD684621
:100FB000FFF70CFF01208DF8070000208DF80400DA
:100FC00010208DF806004FF42840009004208DF882
:100FD000050069460548FFF704FF4FF42841034820
:100FE000FFF7F2FE1CBD00000500180000140140D0
:100FF00010B501210148FFF748FF10BD000801406E
:1010000010B5FFF71BFE01210846FFF7B7FC00BF34
:10101000FFF79CFD0028FBD0012231210220FFF7C1
:10102000CFFD0020FFF788FD01210220FFF7A6FC7D
:1010300000BF1920FFF768FD0128FAD10020FFF753
:101040006BFC0420FFF77CFC0420FFF76FFC012001
:10105000FFF780FC0220FFF71DFE00BFFFF738FE00
:101060000228FBD10020FFF775FC00F001F810BD4D
:101070002DE9F0470026002400250027A046A146C0
:10108000FFF726FE8246BAF1000F06D0BAF1010F33
:1010900015D0BAF1020F46D115E02D48406DC0F3CE
:1010A000402040B12A48006BC0F3406018B1294885
:1010B0002949086002E029482749086037E02748A5
:1010C0002549086033E022484068C0F300472048C3
:1010D0004068C0F383441E484068C0F341750DB9B1
:1010E0000F2C03D12801401C044400E0A41C27B9A4
:1010F0001B4860431849086014E015484068C0F375
:10110000404058B11248406DC0F30136B01C13493D
:10111000B1FBF0F060431049086003E00F48604302
:101120000D49086003E00D480B49086000BF00BF8F
:1011300007484068C0F303180A4810F808900648AA
:10114000006820FA09F004490860BDE8F087000053
:1011500000100240006CDC023000002000127A0017
:1011600000093D00BC120008042808D14FF0E0211E
:10117000096941F004014FF0E022116107E04FF0EE
:10118000E021096921F004014FF0E022116170476C
:101190001CB5044601211648FFF7F0FC0121144854
:1011A0000C38FFF7EBFC6846FFF710FE01208DF8C6
:1011B000070000208DF8040008208DF8060080014B
:1011C000009004208DF8050069460A48FFF709FEE3
:1011D00000231A462146084800F022F8012106485B
:1011E00000F062F80121044800F00CF81CBD00007A
:1011F0000E0018000008014000380140C1F3080249
:1012000042607047C26861F34D32C2607047024667
:101210001068084008B1012070470020FCE700007A
:101220002DE9F04385B004460F469046994668463E
:10123000FFF7D4FB1848844208D01848844205D0F0
:101240001748844202D01748844201D1029E00E030
:10125000039E06EB86004000B0FBF7F50A20B5FBC5
:10126000F0F100FB1150052803D20A20B5FBF0F580
:1012700003E00A20B5FBF0F0451CA06865F30F0001
:10128000A060E06868F30C30E060206969F30D301D
:10129000206105B0BDE8F0830038014000600140E6
:1012A0000064014000680140C26861F3C302C2608B
:1012B00070474FF04070E1EE100A704700000000E8
:1012C00000000000010203040607080900000000F6
:1012D00000000000010203040607080900000000E6
:1012E00001020304000000000102030402040608D6
:1012F000020C081014130008000000203800000041
:10130000C00100084C1300083800002088060000C7
:10131000DC010008001401400014014000140140E9
:1013200000200040008000000500180005001800A3
:101330000500180000000000000000000000000090
:0C1340000100000000127A000000000014
:040000050800018569
:00000001FF
