:020000040800F2
:10000000200B002085020008CD180008BF1600084C
:10001000C9180008D1140008612000080000000081
:10002000000000000000000000000000EB1F0008BE
:10003000BD16000800000000E91F0008ED1F0008C1
:100040009F0200089F0200089F0200089F0200080C
:100050009F0200089F0200089F0200089F020008FC
:100060009F0200089F0200089F0200089F020008EC
:100070009F0200089F0200089F0200089F020008DC
:100080009F0200089F0200089F0200089F020008CC
:100090009F0200089F0200089F0200089F020008BC
:1000A0009F0200089F0200089F0200089F020008AC
:1000B0009F0200089F0200089F0200089F0200089C
:1000C0009F0200089F0200089F0200089F0200088C
:1000D0009F0200089F0200089F0200089F0200087C
:1000E0009F0200089F0200089F0200089F0200086C
:1000F0009F0200089F0200089F0200089F0200085C
:100100009F0200089F0200089F0200089F0200084B
:100110009F0200089F0200089F0200089F0200083B
:100120009F0200089F0200089F0200089F0200082B
:100130009F0200089F0200089F0200089F0200081B
:1001400000000000000000000000000000000000AF
:100150009F0200089F0200089F0200089F020008FB
:100160009F0200089F0200089F0200089F020008EB
:100170009F0200089F0200089F0200089F020008DB
:100180009F02000800F002F800F06CF80AA090E866
:10019000000C82448344AAF10107DA4501D100F042
:1001A00061F8AFF2090EBAE80F0013F0010F18BFA3
:1001B000FB1A43F001031847E03C0000003D00003B
:1001C0000A444FF0000C10F8013B13F0070408BF7D
:1001D00010F8014B1D1108BF10F8015B641E05D01B
:1001E00010F8016B641E01F8016BF9D113F0080FD0
:1001F0001EBF10F8014BAD1C0C1B09D16D1E58BF62
:1002000001F801CBFAD505E014F8016B01F8016B98
:100210006D1EF9D59142D6D370470000002300240B
:1002200000250026103A28BF78C1FBD8520728BF06
:1002300030C148BF0B607047662903F067816429AD
:1002400000F04E80002070471FB503F05AF900F00F
:1002500089FB04000020002102F00EFEE0601FBDBB
:1002600010B510BD00F09AFC1146FFF7EDFF02F04B
:10027000DFFB00F0B8FC03B4FFF7F2FF03BC01F0B2
:1002800070FF00000948804709480047FEE7FEE785
:10029000FEE7FEE7FEE7FEE7FEE7FEE7FEE7FEE736
:1002A00004480549054A064B70470000F11F000845
:1002B0008501000820050020200B002020070020D9
:1002C00020070020704700000FB4044910B503AAAE
:1002D000029800F035FB10BC5DF814FB28000020EC
:1002E0002DE9F0410646002410687529314616A50F
:1002F00010D0AFF30080002802DA404213A507E0D7
:1003000031688A0701D512A502E0490704D511A575
:10031000012401E0AFF3008000210A2206F1240746
:1003200009E0B0FBF2FCB0FBF2F302FB1C00303042
:1003300078541846491C0028F3D123462A463046F3
:10034000BDE8F04100F093B8000000002D0000006F
:100350002B000000200000002DE9F0474FF0000ABC
:1003600089460446C0F820A02046E1688847002856
:1003700076D0252806D0D4E901219047206A401C78
:100380002062F1E7E168204600258847C4F81CA0F8
:1003900006460027C4F818A02A2E09D0304601F0DE
:1003A000D9FE38B304EB8708303EC8F8186019E06E
:1003B00059F8041B204604EB87029161E1688847E5
:1003C000012F064618D1E069002820DA25F0200523
:1003D0001DE0D8F8180000EB800006EB4000303834
:1003E000C8F818002046E1688847064601F0B2FECA
:1003F0000028EED1012F0AD02E2E08D12046E16828
:1004000088477F1C0646022F45F02005C4DBA06903
:10041000002803DA404245F00105A061E80701D059
:1004200025F01005B6B1A6F14100192802D82036F2
:1004300045F400654A463146204625604D46FFF7A3
:10044000FBFE58B1012806D0ED1D25F0070000F194
:10045000080989E704E005F1040985E730468AE7E1
:10046000206ABDE8F08770477047704770472DE9F4
:10047000F0470D4699469246044600F1240801686B
:10048000880604D5E06921F01001216000E0012018
:10049000A84201DD471B00E00027A1697A1902EBA1
:1004A0000900081AA0612078C00602D42046AFF3E4
:1004B0000080002608E0D4E901211AF806009047E0
:1004C000206A401C761C20624E45F4DB2078C00672
:1004D0000AD52046AFF3008006E0D4E901213020A0
:1004E0009047206A401C2062381EA7F10107F4DC07
:1004F00007E0D4E9012118F805009047206A401C64
:100500002062281EA5F10105F3DC2046AFF3008030
:100510002078000602D50220BDE8F0870120FBE725
:1005200070472DE9FF4F0C461E464FF0FF378BB04A
:10053000D2E90001DDF860800A908A46C1F30A55CD
:1005400005B93D46002108464FF00000BAF1000F02
:1005500000F4400005DA00EB80004FF4400101EAAE
:1005600050004FEA9059B9F1010F00DDB9460A98E1
:1005700050EA4A000ED044F61050A5F2FF3545432C
:100580002F14B8F1000F1ED07542291E1EDDC9F1CF
:1005900000021CE0B8F1010F4FF0000001D0302143
:1005A00003E0F24305E02154401CB042FBDB30463F
:1005B0000022002121540B99C1F80880C1E90020D4
:1005C0000FB0BDE8F08FBD1B6D1CDEE74A4600DAB8
:1005D000694206A800F068FA06AB93E8070003AB8F
:1005E00083E8070050460A9900F046FB8DE80700B3
:1005F000A0F500501F3800900398002D0ADD42F24C
:100600001F014A460844002303A90390684600F0EE
:10061000AFFD09E0A0F500504A461F38002303A9AA
:100620000390684600F0B9FD8DE807000004000C57
:1006300003D04FF0FF30410800E01046B8F1000F42
:1006400003D00022009215461EE0751E05D400F06E
:100650008DF9303262556D1EF9D5B346012208433B
:1006600002D000227F1C04E02078302801D1002233
:100670007F1E002A099784D01DE0112D07DA00F0B3
:1006800075F9303262556D1C50EA0102F5D108430C
:1006900002D00098C8B10EE00021681E05E0235C7E
:1006A000625C63542254401E491C8142F7DBAB4616
:1006B000A81B401E0990002004F80B000B98099A13
:1006C000C0F80880C0E9002B7AE711264FF0000837
:1006D00057E72DE9F04F88460446D21D22F0070166
:1006E00091B0D1E90001CDE90A0101F01BFD0246FC
:1006F0000B98C00F01D02D2007E02068810701D59D
:100700002B2002E0202101EAC000032A099001D039
:10071000072A05DB03464146204600F085F90BE138
:100720002078800601D5E06900E00620B8F1650F69
:10073000814606D0B8F1660F18D0B8F1670F70D1B6
:1007400031E00020B9F1110F009001DB112301E02D
:1007500009F101030AAA01A90CA8FFF7E2FEDDE9ED
:100760000C70002609F10105834647E001204B4645
:1007700000904FF000470AAA01A90CA8FFF7D1FE8C
:10078000DDE90DB00C995D46002610B909F10100B4
:100790000D18B9EB050003D4C0F1FF3609F10105CE
:1007A000A5EB09002BE0B9F1010F01DA4FF00109C7
:1007B0000020B9F1110F0090484601DD112300E03F
:1007C00003460AAA01A90CA8FFF7ABFEDDE90C70ED
:1007D0004D4600268346207800070AD4AB4500DA50
:1007E0005D4601A8012D04DD411911F8011C3029D5
:1007F00007D04F4502DA17F1040F04DA01208246D0
:100800000FE06D1EEEE7002F02DCED1B3E4403E01F
:10081000781CA84200DD7D1CB81B00F1010A4FF0D6
:1008200000472078000703D4AA4501DB4FF0FF3AC8
:100830000021B7F1004F0DF143088DF8431024D08B
:1008400002202B23002F01DA7F422D230A21021ED2
:10085000A0F1010000DC5FB197FBF1FC97FBF1F226
:1008600001FB1C7C17460CF1300C08F801CDEEE7BB
:10087000A8F1010003702188090501D5452100E098
:100880006521A0F1010800F8011C09980FA9A1EB4E
:100890000807FF1D00B10120411901EBEA70A169B1
:1008A0003844081A401EA0612078C00602D42046B1
:1008B000AFF30080099828B1D4E901219047206A5C
:1008C000401C20622078C00622D52046AFF300806D
:1008D0001EE0002E04DBB34502DD01A8805D00E0D0
:1008E0003020D4E901219047206A401C2062761C08
:1008F000AAF101005FEA000A0AD100F033F8C068EB
:100900000168405CD4E901219047206A401C2062C4
:10091000281EA5F10105DCDC07E0D4E9012118F867
:10092000010B9047206A401C2062381EA7F1010786
:10093000F3DC2046AFF30080032011B041E6000055
:10094000074B70B50D467B4400F05BF80446284623
:1009500000F01CF910B14FF0FF3070BD204670BDA3
:10096000C71D000000487047E004002030B5B0F11A
:100970000A024FEA900E71F100034EEA817EB0EB5D
:100980000E0061EB91014FEA101E4EEA017E10EB62
:100990000E0041EB11114FEA102E4EEA016E10EBE2
:1009A0000E0041EB11214FEA104E4EEA014E10EBC2
:1009B0000E0041EB1141401841F100014FEAD00017
:1009C00040EA41704FEAD10110EB80054FEA810403
:1009D00044EA907444EB01046D1944EB0404521B87
:1009E000A3414FF0000348BF0A3200D530BD401C80
:1009F00041F1000130BD000001694A1C0261087824
:100A0000704700B58FB0CDE901310021059105494E
:100A10007944CDE9031011466846FFF79DFC0FB0FD
:100A200000BD0000E5FFFFFF2DE9F0411F46044631
:100A300003260168072A01F4006004DB08B116A54B
:100A400005E016A503E008B115A500E015A521F005
:100A500010002060A069C01EA0610FB1401EA061FF
:100A60002046AFF300804FB1D4E9012138469047CA
:100A7000206A401C2062C01C206206E0206AFAE75F
:100A8000D4E9012115F8010B9047761EF8D22046D3
:100A9000AFF30080BDE8F0814E414E006E616E0004
:100AA000494E4600696E66002DE9F04781461646BC
:100AB0008AB0354878440DC88DE80D003248784436
:100AC000801C03AC0DC884E80D0041F69B3008443F
:100AD000372190FBF1F290FBF1F5A5F1800501FBC8
:100AE00012041B3C02D56442012000E00020DFF824
:100AF00098A080460027FA44AAF1BE0A0EE0E0075B
:100B00000AD03246684607EB470101230AEB810110
:100B100000F043FB8DE8070064107F1C002CEED131
:100B2000194F7F44AE3F19E0E80715D007EB0410DA
:100B30000DF1180A90E80E008AE80E00C068F04235
:100B400001D1981908903246012306A903A800F0A4
:100B500024FB03AB83E807006D10641C002DE3D178
:100B60004FF0010332466946B8F1000F03A802D0E6
:100B700000F0FEFA01E000F010FBC9E90001C9F83D
:100B800008200AB0BDE8F087C8330000007B00F001
:100B90008000704700487047C00400207546FFF78A
:100BA000F9FFAE4605006946534620F0070085462A
:100BB00018B020B5FFF774FBBDE820404FF00006E9
:100BC0004FF000074FF000084FF0000B21F0070135
:100BD000AC46ACE8C009ACE8C009ACE8C009ACE878
:100BE000C0098D46704710B50446AFF3008020461B
:100BF000BDE81040FFF73FBB4FF0013C50F8042B1D
:100C000051F8043B9A4221D1A2EB0C03934313EA1F
:100C1000CC1317D150F8042B51F8043B9A4215D14C
:100C2000A2EB0C03934313EACC130BD150F8042B23
:100C300051F8043B9A4209D1A2EB0C03934313EA07
:100C4000CC13DBD04FF00000704700BFD01A01BAC0
:100C5000B1FA81F101F0180122FA01F0CB40C1F1A3
:100C60002001DBB2C0B2C01A2CFA01F3D11A9143B1
:100C700011EAC311E6D170475FEA400C08BF91F05A
:100C8000000F4FEA8C234FEAC12243EA51514FEA49
:100C90001C5018BF00F5F0404FEA300018BF41F07B
:100CA00000415FEA6C5C00F02980BCF1FF3F08BFA7
:100CB00040F080407047130C06BF12044FF0100C38
:100CC0004FF0000C130E04BF12020CF1080C130FAE
:100CD00004BF12010CF1040C930F04BF92000CF13D
:100CE000020CD30F04BF52000CF1010C11464FF05F
:100CF0000002A0F11F00A0EB0C00704711F0004FA4
:100D000008BF704731F000413FF4D5AF0B0C06BF70
:100D100009044FF0100C4FF0000C0B0E04BF090239
:100D20000CF1080C0B0F04BF09010CF1040C8B0F24
:100D300004BF89000CF1020CCB0F04BF49000CF179
:100D4000010CCCF12003A0EB0C0022FA03F302FA11
:100D50000CF241EA030100F10100704720F07F4CE2
:100D600080EA030023F07F47ACEB070303F57C53D5
:100D700000F0004003F1FF032DE980494FEA154BD5
:100D800009B44FEA144325EA0B4E24EA03480FF254
:100D9000042606EB132749083E785FEA320203FB7C
:100DA0000667C7F5000707FB06F64FEA54374FEA18
:100DB000D64606F1020607FB066CCCF1005C4FEA52
:100DC0001C472CEA074C07FB06F40CFB06F504EB6A
:100DD00015464FEA961634BF00204FF000404FEA08
:100DE000D13706FB07FC4FEA1C4C0CFB0BF7D21B60
:100DF00003FB0CF761EB07010CFB0EF7B0EB0740B0
:100E000072EB17420CFB08F734BFA2EB0742B2EBC0
:100E1000074261EB17414FEA0C444FEA910706FB8A
:100E200007FC4FEA1C4C0CFB0BF7B0EBC74072EB16
:100E3000573203FB0CF734BFA2EBC742B2EBC742F9
:100E400061EB57310CFB0EF7B0EBC70072EB57723A
:100E50000CFB08F734BFA2EBC702B2EBC70261EB91
:100E60005771039F4FEA816141EA921104EBCC0470
:100E70004FEAD1374FEA826206FB07FC42EA901242
:100E80004FEA80604FEA1C4C0CFB0BF7D21B03FBB4
:100E90000CF761EB07010CFB0EF7B0EB074072EBB0
:100EA00017420CFB08F734BFA2EB0742B2EB074234
:100EB00061EB17414FEA8C554FEA910704EB9C24F4
:100EC00006FB07FC4FEA1C4C0CFB0BF7B0EBC740D2
:100ED00072EB573203FB0CF734BFA2EBC742B2EB05
:100EE000C74261EB57310CFB0EF7B0EBC70072EB5A
:100EF00057720CFB08F734BFA2EBC702B2EBC70274
:100F000061EB577115EB4C254FEA816141EA921173
:100F10004FEA82624FEAD13742EA901206FB07FCA1
:100F200044F100044FEA80604FEA1C4C0CFB0BF7C5
:100F3000D21B03FB0CF761EB07010CFB0EF7B0EBC8
:100F4000074072EB17420CFB08F734BFA2EB0742D5
:100F5000B2EB074261EB174115EB1C154FEA8131EB
:100F600041EA92414FEA823242EA90424FEA8030AF
:100F70004FEA0C7644F1000448EA03434EEA0B487A
:100F80004FF0000EB2EB080C71EB030724BF624672
:100F900039464EEB0E0E4FF0000B001852414941FE
:100FA0004BEB0B0BB2EB080C71EB03077BF1000B67
:100FB00024BF624639464EEB0E0E4FF0000B001870
:100FC000524149414BEB0B0BB2EB080C71EB0307A1
:100FD0007BF1000B24BF624639464EEB0E0E51EA00
:100FE000020718BF46F0010616EB0E7655F1000217
:100FF00054F1000103D5BDE88901BDE80088BDE8D2
:101000008901BDE80048B619524141EB0101A3F145
:101010000103704780807F7E7D7C7B7A797877764C
:1010200076757473727171706F6E6E6D6C6C6B6AC5
:101030006A69686867666665646463636261616063
:10104000605F5F5E5E5D5D5C5C5B5B5A5A595958E0
:10105000585757565655555554545353525252514A
:10106000515050504F4F4F4E4E4D4D4D4C4C4C4BA0
:101070004B4B4A4A4A4949494848484747474746E7
:101080004646454545444444444343434342424223
:1010900042414141002B9C4630D477002BD01CB5F7
:1010A0004FEA370703B44FF010004FF01001BAF1C8
:1010B000000F06D0BCF1000FDCBF40F0080040F08C
:1010C00008014FF000000FBCBDE810400BF1010B10
:1010D000BBF1010F08BF5FEA170722BF12F101023F
:1010E00011F101014FF0004143F1000300F0004015
:1010F00043EA00007047F9D35708D0E746EA0646AE
:1011000013F1400F4FEA16461FDD13F1200FDFBF2A
:1011100016430A46002120335B42BED0C3F12007AC
:1011200046EA064602FA07F74FEA164646EA070677
:10113000C3F1200722FA03F201FA07F721FA03F1BB
:101140004FF0000342EA0702A7E746EA020646EA32
:1011500006464FEA164646EA0106BCBF46EA064680
:10116000360C4FF000034FF000024FF0000194E7FF
:101170002DE9804C9A46934670B491E8380007C830
:1011800031EA400C48BF34EA430C03D5FFF7E6FDD3
:10119000FFF780FFF0BCBDE8008C2DE9804C9A463B
:1011A000934670B491E8380007C810F0804F08BF2C
:1011B00013F0804F03D100F005F8FFF76BFFF0BC90
:1011C000BDE8008C20F07F4780EA030023F07F4CCD
:1011D00007EB0C03A3F57C5300F00040A3F1FE03E2
:1011E00092F0000F00F0B38095F0000F00F07780D0
:1011F0002DE901494FEA11404FEA144621EA00481F
:1012000000FB06FC24EA064708FB06F607FB08F885
:1012100000FB07F718EB06484CEB164C4FEA124B55
:1012200018EB07484FEA15464CEB174022EA0B4EE5
:101230000BFB06FC25EA06470EFB06F607FB0EFE37
:101240000BFB07F71EEB064E4CEB164C4FF000065F
:101250001EEB074E4CEB174B18EB0B0840F1000050
:1012600018EB0E0B58EB000840F100008F1A4FF0FE
:1012700000013CBFC943661B14BFB5EB040C002141
:101280003CBFC943F61B4FEA17444EEA8E0E27EACD
:1012900004454FEA1C4704FB07622CEA074C05FB98
:1012A00007F70CFB05F604FB0CFC16EB074642EBBC
:1012B000174216EB0C4642EB1C421BEB060658EBA2
:1012C0000202414146EA9E0601D5BDE80189B619F0
:1012D000524141EB0101A3F10103BDE801894FEA4D
:1012E00014454FEA114724EA054621EA074C05FB5D
:1012F00007F406FB07F70CFB06F105FB0CFC11EBF2
:10130000074144EB17444FEA124711EB0C4144EB01
:101310001C4422EA074C05FB07F206FB07F70CFB0F
:1013200006F605FB0CFC16EB074642EB174216EBE4
:101330000C4642EB1C456A1854F1000148BF704747
:10134000B619524141EB0101A3F10103704795F039
:10135000000F37D04FEA11424FEA144721EA024604
:1013600024EA074C02FB07F106FB07F70CFB06F427
:1013700002FB0CFC14EB074441EB17414FEA154705
:1013800014EB0C4441EB1C4125EA074C02FB07F52A
:1013900006FB07F70CFB06F602FB0CFC16EB0746F8
:1013A00045EB174516EB0C4645EB1C42121951F163
:1013B000000148BF7047B619524141EB0101A3F14A
:1013C000010370474FEA14454FEA114724EA0546E6
:1013D00021EA074C05FB07F106FB07F70CFB06F2B9
:1013E0004FF0000605FB0CFC12EB074241EB1741E6
:1013F00012EB0C4251EB1C4148BF7047921841EB75
:101400000101A3F1010370471CB501210C4801F053
:101410004FF8684601F09FF901208DF80700002081
:101420008DF8040010208DF8060030200090042074
:101430008DF805006946034801F098F91CBD0000CD
:10144000020018000010014010B5044601F096FAA1
:10145000462001F05FFA01F0C7FA012800D110BD63
:10146000204601F057FA01F0BFFA012801D102200D
:10147000F5E701F0A3FA0020F1E710B500F0A4F9B8
:1014800000F004F81020FFF7DFFF10BD10B50120B9
:10149000FFF7DAFF10BD10B5002401F06FFA472006
:1014A00001F038FA01F0A0FA012801D1002010BDA6
:1014B00001F00AFA044601F0B7F901F005FA00EB71
:1014C000042084B201F0E6F901F078FA2046EEE754
:1014D00000BFFEE71CB501210C4800F0E9FF68469B
:1014E00001F039F901208DF8070000208DF8040083
:1014F00010208DF806000001009018208DF80500DE
:101500006946034801F032F91CBD000004001800D0
:101510000010014010B5FFF7DDFF01221102024863
:1015200001F014F910BD0000001001401CB50121AC
:101530000C4800F0BDFF684601F00DF901208DF860
:10154000070000208DF804008DF806004FF480702D
:10155000009018208DF805006946034801F006F94F
:101560001CBD000004001800001001401CB5012142
:101570000C4800F09DFF684601F0EDF801208DF861
:10158000070000208DF8040010208DF806000001EF
:10159000009018208DF805006946034801F0E6F830
:1015A0001CBD0000040018000010014070B50025AB
:1015B000002427E000BF4FF48071144801F02AF99D
:1015C0000028F8D0282001F07BF84FF480710F48F4
:1015D00001F020F901280ED100BF4FF480710B48B3
:1015E00001F018F90128F8D0C4F107010120884062
:1015F000C0B2054304E0C4F10701012088408543DF
:10160000601CC4B2082CD5DB284670BD0010014018
:1016100010B50446FFF7AAFF00224FF48071264858
:1016200001F094F8122001F011F801221102224871
:1016300001F08CF81E2001F043F8FFF777FF4FF41C
:1016400080711D4801F0E6F888BB00BF4FF480713F
:10165000194801F0DFF80028F8D000BF4FF480717E
:10166000154801F0D7F80128F8D0FFF79FFF207048
:10167000FFF79CFF6070FFF799FFA070FFF796FFE0
:10168000E070FFF793FF2071FFF770FF0122110256
:10169000094801F05BF8207861780844A178084493
:1016A000E17808442179884202D1012010BD01E08F
:1016B0000020FBE70020F9E700100140704700BF61
:1016C000FEE7000010B501F07DFA00F04CFD4FF48C
:1016D000E13001F03FFB10A0FEF7F6FD01F04CFAFF
:1016E00014A0FEF7F1FD00F031F91AA0FEF7ECFDB1
:1016F000FFF710FF1CA0FEF7E7FDFFF7BEFE1FA0DF
:10170000FEF7E2FDFFF780FE21A0FEF7DDFD27A03A
:10171000FEF7DAFD10BD0000486172647761726502
:101720005F496E6974207374617274205B6F6B5DC6
:101730000D0A00006D6F64756C655F736D675F67A0
:1017400070696F5F69696E7420205B6F6B5D0D0A55
:10175000000000004F4C45445F496E6974205B6F88
:101760006B5D0D0A0000000044485431315F496E42
:101770006974205B6F6B5D0D0A00000042483137D1
:1017800035305F496E6974205B6F6B5D0D0A000038
:101790004148545F4932435F55736572436F6E66CB
:1017A0006967205B6F6B5D0D0A0000004861726421
:1017B000776172655F496E697420656E64205B6F46
:1017C0006B5D200D0A0000001CB501210D4800F0E2
:1017D0006FFE684600F0BFFF01208DF80700002073
:1017E0008DF8040010208DF806004FF4C0500090D2
:1017F00018208DF805006946034800F0B7FF01F096
:10180000DDF81CBD040018000010014010B52021B7
:101810000D4800F099FF032000F052FF40210A48D4
:1018200000F092FF032000F04BFF4021064800F03B
:1018300089FF032000F044FF2021034800F082FFCD
:10184000032000F03DFF10BD0008014010B520212D
:101850000A4800F079FF032000F032FF40210748DA
:1018600000F070FF032000F02BFF4021034800F040
:101870006BFF032000F024FF10BD000000080140B2
:1018800010B52021064800F05FFF032000F018FF8C
:101890002021034800F056FF032000F011FF10BD87
:1018A0000008014010B5FFF7F6FD00EE100AF8EE53
:1018B000400A9FED041A80EE810AF7EE000A20EE3E
:1018C000200A10BDCDCC8C3F00BFFEE7704770B53D
:1018D000002418E004F1B000002100F079FB0021A1
:1018E000084600F075FB0021102000F071FB002578
:1018F00005E00121002000F06BFB681CC5B2802DC3
:10190000F7DB601CC4B2082CE4DB70BD1CB5012100
:101910000C4800F0CDFD684600F01DFF01208DF859
:10192000070000208DF8040010208DF806006020CC
:10193000009004208DF805006946034800F016FF6A
:101940001CBD0000020018000008014010B5FFF7A0
:10195000DDFF0021AE2000F03BFB0021084600F037
:1019600037FB0021102000F033FB0021402000F065
:101970002FFB0021B02000F02BFB0021812000F084
:1019800027FB0021FF2000F023FB0021A12000F015
:101990001FFB0021A62000F01BFB0021A82000F067
:1019A00017FB00213F2000F013FB0021C82000F0AE
:1019B0000FFB0021D32000F00BFB0021084600F0B4
:1019C00007FB0021D52000F003FB0021802000F060
:1019D000FFFA0021D82000F0FBFA0021052000F0DA
:1019E000F7FA0021D92000F0F3FA0021F12000F0ED
:1019F000EFFA0021DA2000F0EBFA0021122000F0CB
:101A0000E7FA0021DB2000F0E3FA0021302000F0AB
:101A1000DFFA00218D2000F0DBFA0021142000F015
:101A2000D7FA0021AF2000F0D3FAFFF750FF0021D2
:101A3000084600F001F810BD70B504460D4605F1EA
:101A4000B000002100F0C4FA102141EA1410002176
:101A500000F0BEFA04F00F00002100F0B9FA70BDEA
:101A60002DE9F05F07468A46154698464FF05B0B16
:101A70004FF0000928E000241CE02878C4EBC401E2
:101A8000134A515C884213D151463846FFF7D4FFC0
:101A900000260AE0C4EBC4010D4A1144491C885DCC
:101AA000012100F095FA701CC6B2062EF2DB03E0AD
:101AB000601CC4B25C45E0DB00BF6D1CB81DC7B242
:101AC00009F1010000F0FF09C145D4DBBDE8F09F3A
:101AD000103500082DE9F04180460E4615460027D6
:101AE00031464046FFF7A8FF00240AE0124A02EB05
:101AF0008511085D012100F06BFA781CC7B2601CEB
:101B0000C4B2102CF2DB701CC1B24046FFF794FF48
:101B100000240CE06900491C074A02EB4111085DF2
:101B2000012100F055FA781CC7B2601CC4B2102C19
:101B3000F0DBBDE8F0810000300000202DE9F04727
:101B40000746884616464FF05B0900241BE0C4EBAD
:101B5000C4000F49085CB04213D141463846FFF734
:101B60006BFF00250AE0C4EBC401094A1144491C7B
:101B7000485D012100F02CFA681CC5B2062DF2DB8D
:101B800003E0601CC4B24C45E1DB00BFBDE8F08758
:101B9000103500082DE9F04780460E4617464FF0F5
:101BA0005E0900252FE005EB05101949085CB842D5
:101BB00027D131464046FFF73FFF00240AE005EBFE
:101BC0000511134A1144491C085D012100F000FA77
:101BD000601CC4B2082CF2DB701CC1B24046FFF797
:101BE0002BFF08240AE005EB0511094A1144491CA2
:101BF000085D012100F0ECF9601CC4B2102CF2DB8E
:101C000003E0681CC5B24D45CDDB00BFBDE8F087E1
:101C10008D3700082DE9F0432DED088B85B0074680
:101C20008946B0EE408A1446984600250026B5EE57
:101C3000C08AF1EE10FA0BD29FED660A30EE480A28
:101C4000B0EE408A2D2249463846FFF777FF04E080
:101C50002B2249463846FFF771FF09E0052C03DDCA
:101C600014B1601EC4B203E0A8F1010000F0FF0847
:101C700004EB08000728F1DCBCEEC80A10EE105A8D
:101C800000EE105AB8EE400A38EE400A10EE101A74
:101C9000084601F0C5FB41EC1B0B9FED4F0B53ECCD
:101CA000102B01F0FFF841EC1A0B9FED4D0B53EC9C
:101CB000102B01F0CDF941EC190B01F09BF9064610
:101CC00042F21070B5FBF0F00A21B0FBF1F201FB1B
:101CD000120030308DF80C004FF47A70B5FBF0F044
:101CE000B0FBF1F201FB120030308DF80D006420E2
:101CF000B5FBF0F0B0FBF1F201FB120030308DF8D3
:101D00000E000A20B5FBF0F0B0FBF1F201FB12006F
:101D100030308DF80F000A20B5FBF0F100FB1150B8
:101D200030308DF8100042F21070B6FBF0F00A214E
:101D3000B0FBF1F201FB120030308DF804004FF4DB
:101D40007A70B6FBF0F0B0FBF1F201FB120030301C
:101D50008DF805006420B6FBF0F0B0FBF1F201FB5A
:101D6000120030308DF806000A20B6FBF0F0B0FB10
:101D7000F1F201FB120030308DF807000A20B6FBAB
:101D8000F0F100FB116030308DF80800C4F105015E
:101D900003ABCA18B91DC8B223464946FFF760FE17
:101DA000611C01EB410107EB4101C8B22E224946FB
:101DB000FFF7C4FEA11C01EB410107EB4101C8B2D2
:101DC000434601AA4946FFF74BFE05B0BDEC088B20
:101DD000BDE8F08300000000F168E388B5F8D43E68
:101DE00000000000006AF8402DE9FC4106460F465D
:101DF00015461C46002000900190042C0CDD42F298
:101E0000107095FBF0F00A2190FBF1F201FB12003B
:101E10003030C0B28DF80000032C0CDD4FF47A7026
:101E200095FBF0F00A2190FBF1F201FB120030303B
:101E3000C0B28DF80100022C0BDD642095FBF0F0A0
:101E40000A2190FBF1F201FB12003030C0B28DF894
:101E50000200012C0BDD0A2095FBF0F00A2190FB1B
:101E6000F1F201FB12003030C0B28DF80300002CFB
:101E700008DD0A2095FBF0F100FB11503030C0B2B4
:101E80008DF80400C4F1050069464218234639461E
:101E90003046FFF7E5FDBDE8FC8170B505460E460E
:101EA000144607E0227831462846FFF747FE641CB7
:101EB000A81DC5B220780028F4D170BD2DE9F041ED
:101EC00006460F461446002517E0207880280ADAD7
:101ED000227806EBC501C8B23946FFF75BFE641CE9
:101EE000681CC5B209E0227806EBC501C8B23946C4
:101EF000FFF7F0FDA41CA81CC5B220780028E4D18F
:101F0000BDE8F08110B521A200210846FFF7D6FFF9
:101F100022A202210020FFF7D1FF24A204210020E9
:101F2000FFF7BBFF23A204214620FFF7B6FF23A241
:101F300004213020FFF7B1FF21A204217420FFF714
:101F4000ACFF20A205210020FFF7A7FF1FA205215B
:101F50006420FFF7A2FF0D2206210020FFF7BAFD43
:101F60000E2206211020FFF7B5FD0F2206212020AA
:101F7000FFF7B0FD102206213020FFF7ABFD112244
:101F800006214020FFF7A6FD10BD0000415433326A
:101F9000204148543130204F4C45440054696D6510
:101FA0003A323032342E30322E31360054656D7074
:101FB0003A00000048756D693A0000005E43000079
:101FC000250000004C696768743A00006C75780061
:101FD00070B504460D461DB1E0B200F08DF802E088
:101FE000E0B200F073F870BD7047704770470000B2
:101FF0001848006840F470001649086016480068E8
:1020000020F00100401C1449086000BF124800681D
:10201000C0F340000028F9D00F48406820F00300CA
:102020000D49486000BF0C484068C0F3810000289B
:10203000F9D10948006809490840074908600020AB
:10204000486008634FF41F008860C8030149803965
:102050000860704788ED00E000100240FFFFF2FECC
:1020600000BFFEE72DE9F04105462C462021164829
:1020700000F068FB002622E0274607F08007802F4B
:1020800004D14021104800F05FFB03E040210E48DE
:1020900000F058FB6006040E032000F011FB202125
:1020A000094800F051FB032000F00AFB20210648FC
:1020B00000F048FB032000F003FB701CC6B2082EA2
:1020C000DADBBDE8F08100000008014010B50446ED
:1020D000FFF79CFB7820FFF7C5FFFFF7D1FB00203F
:1020E000FFF7C0FFFFF7CCFB2046FFF7BBFFFFF772
:1020F000C7FBFFF7ABFB10BD10B50446FFF786FB2F
:102100007820FFF7AFFFFFF7BBFB4020FFF7AAFFE8
:10211000FFF7B6FB2046FFF7A5FFFFF7B1FBFFF780
:1021200095FB10BD03B401984100009850EAC1200E
:1021300018BF04204A0D18BF40F0010040F2FF72A2
:10214000B2EB515F08BF40F00200012808BF052034
:1021500002B0704730380A2801D2012070470020B1
:10216000704700BF704710B500F054FA002000F02F
:1021700031F8012000F02EF8022000F02BF80020AA
:1021800000F050F8012000F04DF8022000F04AF86D
:1021900000F002F810BD00001CB501210B4800F052
:1021A00087F9684600F0D7FA01208DF80700002073
:1021B0008DF804008DF806000120009028208DF88D
:1021C00005006946024800F0D1FA1CBD0200180063
:1021D000000801401CB504460F4951F824000121B4
:1021E00000F066F9684600F0B6FA01208DF80700A5
:1021F00000208DF8040010208DF80600074830F804
:102200001400009004208DF80500054951F82400C1
:10221000694600F0ABFA1CBD140000200C00002041
:1022200000000020022800DD7047064931F8101038
:1022300031B1044931F81010034A52F820201161DD
:1022400000BFF1E70C0000200000002003494968AE
:1022500060F30711014A516070470000001002400E
:102260000349496860F30A21014A51607047000040
:10227000001002400349496860F3CD21014A5160D2
:102280007047000000100240012807D10749496D3E
:1022900021F030013031054A516505E00349496DAF
:1022A00021F03001014A51657047000000100240E2
:1022B000052827D2DFE800F0030A11181F00134A8F
:1022C000126861F30002114B1A601CE00F4A126899
:1022D00061F310420D4B1A6015E00C4A126861F36D
:1022E00018620A4B1A600EE0084A126A61F3000293
:1022F000064B1A6207E0054A526A61F30002034B7B
:102300005A6200E000BF00BF7047000000100240AA
:102310002DE9F041014600270022002590460023C8
:10232000002400F06FF9064626B1012E12D0022ECD
:1023300043D112E03948406DC0F3402038B13748EE
:10234000006BC0F3406010B13548086001E03548CB
:10235000086035E03348086032E030484068C0F338
:1023600000482E484068C0F383422C484068C0F3C0
:1023700041750DB90F2A03D12801401C024400E029
:10238000921CB8F1000F03D127485043086013E0B6
:1023900022484068C0F3404058B12048406DC0F327
:1023A0000137B81CDFF87CC0BCFBF0F0504308607C
:1023B00002E01C485043086002E01A48086000BF71
:1023C00000BF16484068C0F303131848C45C08688F
:1023D000E040486011484068C0F302231448C45CE0
:1023E0004868E040C8600D484068C0F3C223114807
:1023F000C45C4868E040886008484068C0F30073E7
:1024000006484068C0F3813040EA83030A48C45C50
:102410008868B0FBF4F00861BDE8F081001002406C
:10242000006CDC0200127A0000093D00DB3D000870
:10243000EB3D0008F33D0008FB3D000810B50146E8
:102440000020094B03EB1142126801F01F04012325
:10245000A3401A4001F01F040123A3409A4200D078
:1024600000E0012010BD0000001002400349496D4A
:1024700060F30D31014A51657047000000100240C1
:1024800030B50024002500E0641C1120FFF7D6FFC2
:10249000012802D0B4F5405FF6D31120FFF7CEFF3C
:1024A000012801D0002500E00125284630BD0000AC
:1024B00010B501290DD10E4B03EB1042126800F04C
:1024C0001F040123A3401A43094C04EB10431A6074
:1024D0000CE0074B03EB1042126800F01F040123CD
:1024E000A3409A43024C04EB10431A6010BD000055
:1024F0000010024010B568B91C4B5B6823F48033B0
:102500001A4C636023461B6B23F0007303F10073C6
:10251000236317E0154B5B6823F4803303F58033A6
:10252000124C6360012805D123465B6823F4003315
:10253000636007E00D4B5B6823F4003303F5003361
:102540000A4C6360094B5B6861F39543074C636019
:102550000C09064B5B6864F35E73044C63602346AE
:102560005B6862F3DF73636010BD0000001002401F
:102570001348006820F00100401C1149086000BFAA
:102580000F480068C0F340000028F9D00C484068AC
:1025900020F003000A49486000BF09484068C0F3C2
:1025A00081000028F9D1064800680649084004491E
:1025B00008600020486008634FF41F00886070477F
:1025C00000100240FFFFF2FE0D49496860F301016F
:1025D0000B4A516000BF00BF00BF00BF00BF00BF7B
:1025E00000BF00BF00BF00BF00BF00BF00BF00BFF3
:1025F00000BF00BF00BF00BF00BF00BF70470000AA
:102600000010024002484068C0F38100704700009B
:102610000010024010B5042000F088FB0748006855
:102620000749B0FBF1F007490860084600684FF41D
:102630007A7148430449086010BD0000BC040020C2
:1026400040420F002000002024000020002131E043
:1026500032280ADD194A126832235A434FF0E02328
:102660005A61A0F1320290B206E0144A1268424365
:102670004FF0E0235A61002000224FF0E0239A61DE
:102680001A46126942F001021A6100BF4FF0E022BF
:10269000116901F001021AB101F48032002AF5D06B
:1026A0004FF0E022126922F001024FF0E0231A619C
:1026B00000229A610028CBD170470000240000203E
:1026C00001460020114A12684A434FF0E0235A6144
:1026D00000229A611A46126942F001021A6100BF93
:1026E0004FF0E022106900F001021AB100F48032CC
:1026F000002AF5D04FF0E022126922F001024FF0DB
:10270000E0231A6100229A61704700002000002037
:1027100070B504460D4600BF8021094800F059FB02
:102720000028F9D0A1B2064800F04AFB00BF4021C2
:10273000034800F04EFB0028F9D0204670BD000091
:102740000038014041617047016170470AB1016181
:1027500000E0416170474FF6FF7101600021817117
:102760000171042141710121C1717047F0B50A4620
:102770001588ABB29579032D01D100241AE0957923
:1027800065B9557905F00F045579182D01D103610C
:1027900010E05579282D0DD143610BE0957905F0B6
:1027A0000805167906F004063543D67906F00306C7
:1027B00045EA0604DDB2A5B1002110E001258D40F7
:1027C0001D405DB105688F000F26BE40B543056012
:1027D00005688E0004FA06F635430560491C082991
:1027E000ECD3FF2B15DD1B12002110E001258D40DD
:1027F0001D405DB145688F000F26BE40B543456062
:1028000045688E0004FA06F635434560491C0829E0
:10281000ECD3F0BD0246002093680B408B4200D001
:1028200000E001207047000010B500224FF48051F5
:102830000C48FFF78BFF00F025F80122D102094870
:10284000FFF784FF00F01EF800224FF400610548F6
:10285000FFF77CFF00F016F8012211030148FFF793
:1028600075FF10BD0010014070B5044600F086F8F9
:10287000204600F04FF800F0B7F8054600F09EF84B
:10288000284670BD002001E0411CC8B20A28FBDBCD
:102890007047000010B5012211030A48FFF756FFE8
:1028A000FFF7F0FF0122D1020648FFF74FFFFFF7C5
:1028B000E9FF00224FF400610248FFF747FFFFF7EE
:1028C000E1FF10BD0010014070B5002400251AE0A2
:1028D0006006040E0122D1020D48FFF737FFFFF713
:1028E000D1FF4FF480510A48FFF794FF08B1601CF4
:1028F000C4B200224FF400610548FFF727FFFFF73D
:10290000C1FF681CC5B2082DE2DB204670BD000087
:102910000010014070B5044600252AE004F0800054
:1029200028B1012211031448FFF710FF05E000222F
:102930004FF480511048FFF709FFFFF7A3FF012272
:10294000D1020D48FFF702FFFFF79CFF00224FF472
:1029500000610948FFF7FAFE072D04D10122110397
:102960000548FFF7F3FE6006040EFFF78BFF681CB7
:10297000C5B2082DD2DB70BD0010014010B5012298
:1029800011030D48FFF7E2FE0122D1020A48FFF7CA
:10299000DDFEFFF777FF00224FF480510648FFF776
:1029A000D5FEFFF76FFF00224FF400610248FFF7EA
:1029B000CDFEFFF767FF10BD0010014010B50022EB
:1029C0004FF480510748FFF7C1FE0122D1020548AC
:1029D000FFF7BCFEFFF756FF012211030148FFF786
:1029E000B5FE10BD0010014010B5012211030F48C3
:1029F000FFF7ACFEFFF746FF0122D1020B48FFF7BD
:102A0000A5FEFFF73FFF4FF480510848FFF702FF94
:102A100008B1012400E0002400224FF400610348C3
:102A2000FFF794FEFFF72EFF204610BD0010014077
:102A30002DED048B82B0FEF745FE26A0FDF744FC89
:102A40002FA0FDF741FCFFF75DFA42E06846FEF774
:102A5000DFFD012806D19DF8020044B29DF8000078
:102A600045B202E031A0FDF72FFC2A46214634A0F2
:102A7000FDF72AFC4FF4FA70FFF7E8FD4620FFF758
:102A8000F3FE18B9FEF70EFFB0EE408A18EE100AFA
:102A900000F0C6FC41EC190B53EC192B30A0FDF7EC
:102AA00013FC4FF4FA70FFF7D1FDA2B20223042108
:102AB0002020FFF799F9AAB2022304216420FFF72E
:102AC00093F901230522B0EE480A11462820FFF7AA
:102AD000A1F8BBE761745F73746172745F61343035
:102AE000336120626F6172642074657374696E670C
:102AF00020323032342D30322D31360D0A000000B4
:102B000061745F73746172745F6134303361206229
:102B10006F617264206D6F64756C652061687431DB
:102B2000302D6F6C6564200D0A00000052656164F1
:102B3000204448543131204552524F52210D0A0051
:102B400074656D70657261747572653D25642C687D
:102B5000756D69646974793D202564200D0A000053
:102B60004C696768745F56616C75653A252E3166ED
:102B70004C780D0A000000001CB501210F48FFF73A
:102B800097FC6846FFF7E7FD01208DF8070000205D
:102B90008DF8040010208DF806004FF428400090B6
:102BA00004208DF8050069460548FFF7DFFD4FF466
:102BB00028410348FFF7C6FD1CBD000005001800B2
:102BC0000014014010B5FFF7D3FC01210846FFF7C0
:102BD0006FFB00BFFFF754FC0028FBD0012231211E
:102BE0000220FFF787FC0020FFF740FC01210220B4
:102BF000FFF75EFB00BF1920FFF720FC0128FAD188
:102C00000020FFF723FB0420FFF734FB0420FFF72D
:102C100027FB0120FFF738FB0220FFF7D5FC00BFA0
:102C2000FFF7F0FC0228FBD10020FFF72DFB00F09E
:102C300001F810BD2DE9F0470026002400250027EB
:102C4000A046A146FFF7DEFC8246BAF1000F06D08F
:102C5000BAF1010F15D0BAF1020F46D115E02D4897
:102C6000406DC0F3402040B12A48006BC0F3406083
:102C700018B129482949086002E029482749086015
:102C800037E027482549086033E022484068C0F310
:102C9000004720484068C0F383441E484068C0F3A2
:102CA00041750DB90F2C03D12801401C044400E0EC
:102CB000A41C27B91B4860431849086014E0154854
:102CC0004068C0F3404058B11248406DC0F301362F
:102CD000B01C1349B1FBF0F060431049086003E0F9
:102CE0000F4860430D49086003E00D480B49086038
:102CF00000BF00BF07484068C0F303180A4810F837
:102D000008900648006820FA09F004490860BDE808
:102D1000F087000000100240006CDC02BC040020C0
:102D200000127A0000093D00CB3D0008042808D1BC
:102D30004FF0E021096941F004014FF0E0221161F8
:102D400007E04FF0E021096921F004014FF0E02293
:102D5000116170471CB5044601211648FFF7A8FB16
:102D6000012114480C38FFF7A3FB6846FFF7F3FC7A
:102D700001208DF8070000208DF8040008208DF850
:102D800006008001009004208DF8050069460A487D
:102D9000FFF7ECFC00231A462146084800F022F811
:102DA0000121064800F062F80121044800F00CF807
:102DB0001CBD00000E001800000801400038014052
:102DC000C1F3080242607047C26861F34D32C260CD
:102DD000704702461068084008B101207047002083
:102DE000FCE700002DE9F04385B004460F4690460D
:102DF00099466846FFF78CFA1848844208D018486C
:102E0000844205D01748844202D01748844201D139
:102E1000029E00E0039E06EB86004000B0FBF7F543
:102E20000A20B5FBF0F100FB1150052803D20A205F
:102E3000B5FBF0F503E00A20B5FBF0F0451CA068F7
:102E400065F30F00A060E06868F30C30E060206973
:102E500069F30D30206105B0BDE8F0830038014012
:102E6000006001400064014000680140C26861F3F5
:102E7000C302C2607047000010B500290AD008786C
:102E8000002807D005487844FDF7B6FE002801D099
:102E9000002010BD0248784410BD00003210000030
:102EA0002A10000010B591EA030F48BF83F00043D9
:102EB00000F1D481841A71EB030C05D2121943EB93
:102EC0000C03001B61EB0C01DFF824E14FEA115405
:102ED000A4EB135C1EEA430F18BF9EEA445F73D055
:102EE00023EA0E03DCF1200E21EA045143F480139F
:102EF00032D322FA0CFE10EB0E0023FA0CFE41EB4B
:102F00000E01CCF1200E03FA0EFE10EB0E0051F173
:102F10000001B1F5801FCCF1200E32D201EB04513B
:102F200012FA0EF2BDE8104058BF7047401C38BF7F
:102F30005FEA420218BF7047002814BF20F001006A
:102F400041F100014FEA410313F5001F38BF7047FC
:102F5000A1F1C04100F074B9012A43EB0302ACF1C6
:102F6000200CDCF11F0E32BF4FF0000E23FA0CF3E1
:102F700010EB030041EB0451B4EB115FD0D0A1EB97
:102F8000045101F5801149085FEA300001EB04515A
:102F90000ED350F1000038BF12FA0EFE08D1BDE882
:102FA0001040C9E7401C38BF5FEA4202CAD1C3E7FC
:102FB000BDE810404FEA410313F5001F38BF7047CA
:102FC000A1F1C04100F03CB99EEA445F08D011EA8B
:102FD0005E0FBDE8104004BF01F0004100207047C3
:102FE000BDE8104070B500F0DDF800BF64FBBE3EE8
:102FF0000000E0FF4FEA1153A3F58063D3F11E03F5
:10300000A8BFD3F1200C08DB4FF0004242EAC122F6
:1030100052EA505232FA03F0704709420BD4102B97
:10302000C4BF0020704703F5787CBCF1FF3F05D09A
:103030004FF0FF3070474FF00000704770B500F060
:10304000B1F800BF4992248000207047F0E70000EB
:10305000DFF848C170B51CEA111E1EBF1CEA13152B
:103060009EEA0C0F95EA0C0F00F06F8081EA0304D2
:1030700023EA4C134EEAD47E21EA4C1141F480112C
:1030800043F48013AE44A1FB024CA0FB0365AEF1F8
:103090007F7E361955EB0C05A1FB034C4CF1000368
:1030A000A0FB021C16EB0C06654153F1000309421C
:1030B00018BF46F0010613F4007F0BD14FEA03312D
:1030C0004FEA0530340341EA155140EA16506FF0DB
:1030D00003020AE04FEAC3214FEAC520F40241EAA5
:1030E000555140EA56506FF0020202EB2E4201EBBE
:1030F000025585EACE710AD05FEA440C18BF24F06D
:10310000004450F1000041F1000120EAD47040F287
:10311000FE7C624500D270BDA84214BF4FF08044CF
:103120004FF04044002E08BF0024BEF1806FA8BFBE
:10313000A1F1C041BDE8704080F282804FF00000F4
:1031400001F1C04101F0004170479EEA0C0F0CEA0A
:10315000131518BF95EA0C0F06D04FF0000081EA56
:10316000030E0EF0004170BD00F01CF88900013E16
:1031700000F007B800F009B84FEA430C5FEA5C5C66
:1031800008D081EA030100F05BB84FEA410C5FEA26
:103190005C5CF6D14FF00000014970470000FF076A
:1031A0000000F87F0EF1020E2EF0030E5EF8046BA5
:1031B000364205D4012A43EB030515F5001F12D84A
:1031C000012841EB010C1CF5001F0CD80ED14FEA71
:1031D000D17C15F5001F0CEB4C0C0CF1020C08BF58
:1031E0004CEBD37C04E04FF0080C01E04FEAD37CB9
:1031F0000CEB4C0526FA05F606F00706B6F1040CB2
:1032000006D20EEB860CBDE870404CF0010C604716
:10321000DFE80CF0090B02024FF000414FF0000014
:10322000A1F5002170BD19461046012851EB01049B
:1032300018BFD4F5001484BF002001F0004170BD18
:103240000808A0F500114FEA3101704710B591EA66
:10325000030F48BF83F000433FF52CAE841A71EB97
:10326000030C07D212198CF0004C43EB0C03001B2B
:1032700061EB0C01DFF8A4E14FEA1154A4EB135CFD
:103280001EEA430F18BF9EEA445F00F0B08023EAB5
:103290006E03524221EA0451C3EB6E0338BF5B1E3A
:1032A000DCF1200E25D322FA0CFE10EB0E0043FABF
:1032B0000CFE41EB0E01CCF1200E03FA0EFE10EBDA
:1032C0000E0051F10001CCF1200E29D412FA0EF2B9
:1032D00001EB0451BDE8104058BF7047401C1CBFB3
:1032E000B2F1004F704700280CBF491C20F00100CC
:1032F000704712EB020E43EB030218BF4FF0010EB2
:103300004EEA4202ACF1200CDCF11E0E54D943FA15
:103310000CFE10EB0E0051F1FF31CCF11E0ED5D595
:103320000EF1010E12FA0EFE404141EB010101EBDC
:10333000445C5FEA5C5C10D910EBDE7001EB045179
:1033400038BFBEF1004FBDE8104018BF70470028DD
:103350000CBF491C20F00100704730D24FEAD42C3A
:1033600011F5001124F400641BD0B1FA81F20B3A7C
:10337000A41AA41ED2F12003914030FA03F319439A
:10338000904001EBCC71002C01EB0451BDE81040E2
:10339000A8BF704701F1C0414FF0000001F00041AB
:1033A0007047B0FA80F310FA03F100D110BDE41AAF
:1033B000173C4805C90AE4E701EB045110BD491068
:1033C00001EB0451BDE810404FEA300002E04FF03D
:1033D000000170474A0008BF0042F8D0B2F5001F54
:1033E00028BF704701F000414FF0000070479EEA8F
:1033F000445F07D011EA5E0FBDE8104004BF002112
:1034000000207047BDE8104070B5FFF7CBFE00BF4D
:1034100040DFF63E83F00041104670470000E0FFB9
:1034200043004FEAD30C4FEA3C0C43401FBF400718
:103430000CF1605113F0FE4F70471CF0006F03D188
:1034400000200CF0004170470CF0004343EA50703C
:1034500010B540EACC0000F00EF800BF000000926A
:103460004FEA0001FFF7ECBE4FF000414FF00000C3
:10347000A1F5002170470EF1020E2EF0030E5EF84A
:10348000044B244204D44FEA4102B2F17F4F11D8D9
:103490004FEA4003B3F17F4F0CD80ED14FEAD07CF6
:1034A000B2F17F4F0CEB4C0C0CF1020C08BF4CEB53
:1034B000D17C04E04FF0080C01E04FEAD17C0CEB2A
:1034C0004C0324FA03F404F00704B4F1040C06D20C
:1034D0000EEB840CBDE810404CF0010C6047DFE8B7
:1034E0000CF0070802024FF00040A0F5800010BD6C
:1034F0000846420018BFD2F1807288BF00F0004039
:1035000010BD4FF04070E1EE100A7047FDF7E1B8D2
:1035100020000000000000210000002F0000220019
:1035200000070007002300147F147F142400242ABE
:103530007F2A12250062640813232600364955228B
:1035400050270000050300002800001C224100292C
:10355000000041221C002A0014083E08142B000819
:10356000083E08082C000000A060002D0008080894
:1035700008082E0000606000002F002010080402E0
:1035800030003E5149453E310000427F400032004C
:10359000426151494633002141454B3134001814F2
:1035A000127F103500274545453936003C4A4949C8
:1035B0003037000171090503380036494949363969
:1035C00000064949291E3A0000363600003B00003B
:1035D000563600003C0008142241003D001414142B
:1035E00014143E0000412214083F00020151090654
:1035F0004000324959513E41007C1211127C420078
:103600007F4949493643003E4141412244007F41C0
:1036100041221C45007F4949494146007F0909096B
:103620000147003E4149497A48007F0808087F4920
:103630000000417F41004A002040413F014B007F94
:10364000081422414C007F404040404D007F020C56
:10365000027F4E007F0408107F4F003E4141413EF3
:1036600050007F0909090651003E4151215E520078
:103670007F0919294653004649494931540001013F
:103680007F010155003F4040403F56001F20402031
:103690001F57003F4038403F5800631408146359D7
:1036A0000007087008075A0061514945435B000054
:1036B0007F4141005D000041417F005E0004020146
:1036C00002045F00404040404060000001020400EE
:1036D0006100205454547862007F484444386300A9
:1036E00038444444206400384444487F65003854DA
:1036F0005454186600087E090102670018A4A4A4A7
:103700007C68007F08040478690000447D40006AFA
:10371000004080847D006B007F102844006C000016
:10372000417F40006D007C041804786E007C080422
:1037300004786F0038444444387000FC2424241872
:10374000710018242418FC72007C0804040873001B
:1037500048545454207400043F44402075003C40B9
:1037600040207C76001C2040201C77003C403040EC
:103770003C7800442810284479001CA0A0A07C7A42
:10378000004464544C447C14141414141420000099
:103790000000000000000000000000000000210008
:1037A0000000F8000000000000003330000000229C
:1037B00000100C06100C06000000000000000000C5
:1037C0002340C07840C0784000043F04043F040414
:1037D0000024007088FC08300000001820FF211E23
:1037E000000025F008F000E018000000211C031E76
:1037F000211E002600F00888700000001E212324EE
:10380000192721102710160E0000000000000000EC
:10381000000000000028000000E018040200000082
:103820000007182040002900020418E000000000F2
:10383000402018070000002A404080F080404000EF
:103840000202010F010202002B000000F000000044
:10385000000101011F010101002C00000000000017
:10386000000080B07000000000002D00000000008B
:1038700000000000010101010101012E0000000013
:103880000000000000303000000000002F000000A9
:10389000008060180400601806010000003000E09D
:1038A00010080810E000000F102020100F00310059
:1038B0001010F8000000000020203F2020000032FF
:1038C0000070080808887000003028242221300089
:1038D0003300300888884830000018202020110E5E
:1038E00000340000C02010F8000000070424243F2A
:1038F00024003500F80888880808000019212020D5
:10390000110E003600E0108888180000000F11200A
:1039100020110E003700380808C8380800000000E1
:103920003F00000000380070880808887000001C04
:10393000222121221C003900E010080810E00000BC
:1039400000312222110F003A000000C0C000000028
:1039500000000030300000003B000000800000004C
:103960000000008060000000003C0000804020104B
:10397000080000010204081020003D404040404083
:1039800040400004040404040404003E0008102025
:103990004080000000201008040201003F00704831
:1039A000080808F000000000303601000040C03078
:1039B000C828E810E0000718272423140B00410052
:1039C00000C038E0000000203C23020227382042DB
:1039D00008F8888888700000203F202020110E0001
:1039E00043C03008080808380007182020201008B5
:1039F000004408F808080810E000203F20202010AC
:103A00000F004508F88888E8081000203F20202390
:103A10002018004608F88888E8081000203F200099
:103A20000300000047C030080808380000071820CD
:103A300020221E02004808F808000008F808203F6D
:103A4000210101213F2049000808F8080800000072
:103A500020203F202000004A00000808F808080045
:103A6000C08080807F0000004B08F888C0281808BC
:103A700000203F2001263820004C08F808000000F4
:103A80000000203F2020202030004D08F8F800F8EA
:103A9000F80800203F003F003F20004E08F830C0EB
:103AA0000008F808203F200007183F004FE01008EA
:103AB000080810E0000F10202020100F005008F818
:103AC00008080808F000203F21010101000051E032
:103AD0001008080810E0000F18242438504F005236
:103AE00008F8888888887000203F2000030C302068
:103AF0005300708808080838000038202121221C53
:103B00000054180808F8080818000000203F20009A
:103B100000005508F808000008F808001F202020C1
:103B2000201F00560878880000C8380800000738B1
:103B30000E01000057F80800F80008F800033C07E1
:103B400000073C0300580818688080681808203077
:103B50002C03032C3020590838C800C8380800004E
:103B600000203F200000005A10080808C83808004C
:103B700020382621202018005B000000FE020202EF
:103B8000000000007F404040005D00020202FE0095
:103B90000000004040407F0000005E000004020280
:103BA00002040000000000000000005F00000000B0
:103BB00000000000808080808080808060000202A1
:103BC0000400000000000000000000000061000090
:103BD0008080808000000019242222223F20620879
:103BE000F8008080000000003F112020110E0063CB
:103BF0000000008080800000000E112020201100B5
:103C000064000000808088F800000E112020103F22
:103C100020650000808080800000001F2222222278
:103C2000130066008080F0888888180020203F20DC
:103C3000200000670000808080808000006B9494EA
:103C4000949360006808F8008080800000203F2185
:103C50000000203F206900809898000000000020AC
:103C6000203F202000006A0000008098980000009B
:103C7000C08080807F00006B08F80000808080009A
:103C8000203F24022D3020006C000808F8000000BE
:103C9000000020203F202000006D808080808080F8
:103CA0008000203F20003F20003F6E808000808009
:103CB000800000203F210000203F206F0000808016
:103CC00080800000001F202020201F0070808000C6
:103CD000808000000080FFA12020110E00710000F4
:103CE000008080808000000E112020A0FF80728064
:103CF0008080008080800020203F21200001007310
:103D00000000808080808000003324242424190057
:103D100074008080E0808000000000001F202000F0
:103D200000758080000000808000001F202020108F
:103D30003F2076808080000080808000010E300867
:103D40000601007780800080008080800F300C03A7
:103D50000C300F00780080800080808000002031CF
:103D60002E0E31200079808080000080808080814C
:103D70008E70180601007A008080808080800000AC
:103D800021302C222130007B00000000807C0202C8
:103D900000000000003F40407C00000000FF0000E9
:103DA0000000000000FF0000007D0002027C800097
:103DB00000000040403F000000007E0006010102BC
:103DC00002040400000000000000000000000000E9
:103DD00000000001020304060708090000000000BB
:103DE00000000001020304060708090000000001AA
:103DF000020304000000000102030402040608029A
:103E00000C08100002400000000000A000000000AC
:103E100005400000000000C8000000000C40000049
:103E20000000409C00000000194000000020BCBEC3
:103E30000000000034400000BFC91B8E00000004D9
:103E4000B5400000504BCFD06607E2CF0100000024
:103E50006C4100003E8251AADFEEA7340100000051
:103E6000D9420000DCB5A0E23A301F97FFFFFFFF08
:103E7000B4450000FD25A0C8E9A3C14FFFFFFFFF27
:103E8000FF3F00000000008000000000FF3F000036
:103E90000000008000000000D43E00080000002068
:103EA000C0040000C0010008F4400008C004002065
:103EB000600600001C0200081C0000004300000017
:103EC000F8FFFFFF0C0000000E0000000F000000D4
:103ED0002E000000117C14014004122012402280A8
:103EE00012057A1804C152011BF010012AFF0502C5
:103EF00015F01B0F04012AFF0502130F180940409B
:103F0000405F55555575041A5F0C091121080C11B5
:103F1000200F094989790909090F201F112FFE0275
:103F2000424ACA4A0304134202FE000E14FF4050E4
:103F30004C4340404F50505C40FF1BF888012AFF23
:103F4000050215F81B1F08012A7F200B109F80E235
:103F50003B808201000916E2A2928A868280800458
:103F60001840807F0810102020242424A42424201A
:103F7000FF20222C20203B080E10C07E40403F2214
:103F80002220030C102040A2000E131060020CC06F
:103F9000021EE2020202E21E080E1104047C0380EB
:103FA000804020130C132040A01A04011E1F04247B
:103FB00044840619010910602308062B3F40010DB7
:103FC000127001020C80128C080B11FE02F2525A80
:103FD000565252F20260080D107E41300F201349F4
:103FE000817F010913E0613AFF6102134049194AD8
:103FF0007F070911221980080B100CC01008F71454
:10400000549414F4BF1980137C03000B11011D1389
:10401000115599513F11011780FC96E584FC000869
:104020001208C8494AC80808200A807F024C807FCD
:1040300080601F0D113F40407860180804041F0481
:104040002444840619010910A03B08063A19010509
:10405000127001020C080E10C2BA8282FEA290FCFD
:104060004B48F94A48812720100846817F000811F3
:10407000FF22223F222220001011403C10FF10108E
:10408000404848487F48C8484017020602FF0101DF
:10409000000912020A1242827F02022A1001194309
:1040A00019010214F0178040201806010613204061
:1040B00080403F172424A4FEA3221B22CCA301147A
:1040C00015080601FF2B0104010B11FF0280397D49
:1040D0001F9008888888FF04021108001019044402
:1040E000827F01808040432C102846818019E42182
:0440F00013127A002D
:040000050800018569
:00000001FF
