:020000040800F2
:1000000000C000203D1100087D0E00087F0E000892
:10001000810E0008830E0008850E00080000000015
:10002000000000000000000000000000870E000833
:10003000890E0008000000008B0E00088D0E0008DD
:100040008511000885110008851100088511000838
:100050008511000885110008851100088511000828
:100060008511000885110008851100088511000818
:100070008511000885110008851100088511000808
:1000800085110008851100088511000885110008F8
:1000900085110008851100088511000885110008E8
:1000A00085110008851100088511000885110008D8
:1000B00085110008851100088511000885110008C8
:1000C00085110008851100088511000885110008B8
:1000D00085110008851100088511000885110008A8
:1000E0008511000885110008851100088511000898
:1000F00085110008851100080000000000000000C4
:100100000000000000000000000000008511000851
:100110008511000885110008851100088511000867
:100120008511000885110008851100088511000857
:100130008511000800000000000000008511000883
:100140008511000885110008851100088511000837
:1001500085110008851100080000000085110008C5
:100160008511000885110008000000000000000053
:10017000000000000000000000000000000000007F
:100180000000000085110008851100088511000895
:10019000000000000000000000000000000000005F
:1001A000000000000000000000000000000000004F
:1001B00000000000000000008511000800000000A1
:1001C000000000000000000000000000000000002F
:1001D0000000000000000000000000008511000881
:1002000010B5054C237833B9044B13B10448AFF350
:1002100000800123237010BD64080020000000004E
:10022000A42D000808B5034B1BB103490348AFF3E5
:10023000008008BD0000000068080020A42D000810
:1002400090F800F06DE9024520F007016FF0000C16
:1002500010F0070491F820F040F049804FF00004BE
:100260006FF00700D1E9002391F840F000F1080099
:1002700082FA4CF2A4FA8CF283FA4CF3A2FA8CF3D1
:100280004BBBD1E9022382FA4CF200F10800A4FA38
:100290008CF283FA4CF3A2FA8CF3E3B9D1E904238C
:1002A00082FA4CF200F10800A4FA8CF283FA4CF3C3
:1002B000A2FA8CF37BB9D1E9062301F1200182FA7D
:1002C0004CF200F10800A4FA8CF283FA4CF3A2FA83
:1002D0008CF3002BC6D0002A04BF04301A4612BA91
:1002E000B2FA82F2FDE8024500EBD2007047D1E994
:1002F000002304F00305C4F100004FEAC50514F023
:10030000040F91F840F00CFA05F562EA05021CBFF3
:1003100063EA050362464FF00004A9E7000000000D
:1003200001F0FF01102A2BDB10F0070F08D010F8A6
:10033000013B013A8B422DD010F0070F42B3F6D1AA
:10034000F0B441EA012141EA014122F007047FF0C3
:1003500000070023F0E80256083C85EA010586EA1A
:10036000010685FA47F5A3FA87F586FA47F6A5FA56
:1003700087F68EB9EED1F0BC01F0FF0102F0070262
:1003800032B110F8013B013A83EA010313B1F8D10D
:100390000020704701387047002D06BF35460338EE
:1003A000073815F0010F07D1013015F4807F02BF27
:1003B000013015F4C03F0130F0BC0138704700BF78
:1003C000844641EA000313F003036DD1403A41D360
:1003D00051F8043B40F8043B51F8043B40F8043B1F
:1003E00051F8043B40F8043B51F8043B40F8043B0F
:1003F00051F8043B40F8043B51F8043B40F8043BFF
:1004000051F8043B40F8043B51F8043B40F8043BEE
:1004100051F8043B40F8043B51F8043B40F8043BDE
:1004200051F8043B40F8043B51F8043B40F8043BCE
:1004300051F8043B40F8043B51F8043B40F8043BBE
:1004400051F8043B40F8043B51F8043B40F8043BAE
:10045000403ABDD2303211D351F8043B40F8043B4E
:1004600051F8043B40F8043B51F8043B40F8043B8E
:1004700051F8043B40F8043B103AEDD20C3205D35E
:1004800051F8043B40F8043B043AF9D2043208D056
:10049000D2071CBF11F8013B00F8013B01D30B88C8
:1004A00003806046704700BF082A13D38B078DD0A6
:1004B00010F003038AD0C3F10403D21ADB071CBF78
:1004C00011F8013B00F8013B80D331F8023B20F8E2
:1004D000023B7BE7043AD9D3013A11F8013B00F81B
:1004E000013BF9D20B7803704B7843708B788370A3
:1004F0006046704753B94AB9002908BF00281CBF9D
:100500004FF0FF314FF0FF3000F074B9ADF1080C3F
:100510006DE904CE00F006F8DDF804E0DDE9022321
:1005200004B070472DE9F047089D04468E46002B25
:100530004DD18A42944669D9B2FA82F252B101FA97
:1005400002F3C2F1200120FA01F10CFA02FC41EAA7
:10055000030E94404FEA1C48210CBEFBF8F61FFA2C
:100560008CF708FB16E341EA034306FB07F19942C7
:100570000AD91CEB030306F1FF3080F01F8199427A
:1005800040F21C81023E63445B1AA4B2B3FBF8F054
:1005900008FB103344EA034400FB07F7A7420AD9DB
:1005A0001CEB040400F1FF3380F00A81A74240F203
:1005B00007816444023840EA0640E41B00261DB16E
:1005C000D4400023C5E900433146BDE8F0878B42A3
:1005D00009D9002D00F0EF800026C5E90001304662
:1005E0003146BDE8F087B3FA83F6002E4AD18B423C
:1005F00002D3824200F2F980841A61EB03030120E6
:100600009E46002DE0D0C5E9004EDDE702B9FFDED1
:10061000B2FA82F2002A40F09280A1EB0C014FEA7C
:100620001C471FFA8CFE0126200CB1FBF7F307FBD9
:10063000131140EA01410EFB03F0884208D91CEB7C
:10064000010103F1FF3802D2884200F2CB80434619
:10065000091AA4B2B1FBF7F007FB101144EA0144F8
:100660000EFB00FEA64508D91CEB040400F1FF3187
:1006700002D2A64500F2BB800846A4EB0E0440EA75
:1006800003409CE7C6F12007B34022FA07FC4CEA7E
:10069000030C20FA07F401FA06F31C43F9404FEA71
:1006A0001C4900FA06F3B1FBF9F8200C1FFA8CFE86
:1006B00009FB181140EA014108FB0EF0884202FADA
:1006C00006F20BD91CEB010108F1FF3A80F088809B
:1006D000884240F28580A8F102086144091AA4B258
:1006E000B1FBF9F009FB101144EA014100FB0EFED9
:1006F0008E4508D91CEB010100F1FF346CD28E4508
:100700006AD90238614440EA0840A0FB0294A1EB98
:100710000E01A142C846A64656D353D05DB1B3EBF5
:10072000080261EB0E0101FA07F722FA06F3F14025
:100730001F43C5E9007100263146BDE8F087C2F1CC
:100740002003D8400CFA02FC21FA03F39140014344
:100750004FEA1C471FFA8CFEB3FBF7F007FB10367D
:100760000B0C43EA064300FB0EF69E4204FA02F429
:1007700008D91CEB030300F1FF382FD29E422DD97C
:10078000023863449B1B89B2B3FBF7F607FB1633B1
:1007900041EA034106FB0EF38B4208D91CEB010131
:1007A00006F1FF3816D28B4214D9023E6144C91AB1
:1007B00046EA004638E72E46284605E70646E3E6C1
:1007C0001846F8E64B45A9D2B9EB020864EB0C0ECB
:1007D0000138A3E74646EAE7204694E74046D1E7DA
:1007E000D0467BE7023B614432E7304609E7644488
:1007F000023842E7704700BF1F4A08B5D2F8883078
:1008000043F47003C2F88830012000F04DF91B4B0F
:100810001A6842F001021A601A689207FCD59A68B9
:100820006FF301029A60154B9A6812F00C0FC2F335
:100830008100F9D11A6822F0867222F480321A609F
:100840004FF080429A600E4A5A60D3F8A02002F41A
:10085000A042C3F8A020D3F8A02042F47022C3F82D
:10086000A0204FF41F02DA6000F01EF9024B4FF097
:1008700000629A6008BD00BF00ED00E00038024051
:100880000230030038B500F065F90128224B234CF3
:1008900019D002281DD000283CD1D3F8A020520442
:1008A0000FD5D3F8A0301E4A13F4805F1D4B18BF3C
:1008B0001346194AD2F8A420C2F30242D34023605F
:1008C0001EE0184BF5E7D3F8A420164BC2F3C24242
:1008D000F4E75A6859685A685B68134D1148C3F3C6
:1008E0000243C1F38811EB5C02F00F025A43A1FBF3
:1008F00000010023FFF7FEFD400840EAC1702060C0
:10090000054B0A4A9B68C3F30313D25C2368D340A8
:10091000236038BD034BD2E70038024000000020BE
:10092000006CDC0200127A00BC2D0008C22D000809
:100930001C4BD3F8A42042F03002C3F8A4201A685C
:1009400042F001021A601A689207FCD59A686FF3A8
:1009500001029A60134B9A6812F00C0FC2F38101E6
:10096000F9D11A6822F0867222F480321A604FF0B0
:1009700080429A600C4A5A60D3F8A02002F4A04248
:10098000C3F8A020D3F8A02042F47022C3F8A0201E
:100990004FF41F02DA60D3F8A42061F30512C3F804
:1009A000A42070470038024002300300030C03F11A
:1009B000804303F50E3300F01F001A68012303FA89
:1009C00000F030EA02030CBF01200020704708B598
:1009D00043F201011120FFF7E9FF012801D001399D
:1009E000F8D11120FFF7E2FF431E5842584108BDDD
:1009F000030C03F1804303F50E33012200F01F00C6
:100A000002FA00F091421A680CBF104322EA00007B
:100A10001860704704281FD8DFE800F003090E13A0
:100A200019000E4B1A6861F300021A6070470B4BF5
:100A30001A6861F31042F8E7084B1A6861F318620C
:100A4000F3E7064B1A6F61F300021A677047034B16
:100A50005A6F61F300025A67704700BF00380240C6
:100A6000084BD3F8A42042F03002C3F8A4209A68BF
:100A700060F307129A60D3F8A4206FF30512C3F84D
:100A8000A420704700380240024B9A6860F38C2221
:100A90009A60704700380240024B9A6860F34F3208
:100AA0009A60704700380240054BD3F8A420012813
:100AB0000CBF42F030026FF30512C3F8A420704758
:100AC00000380240012807D002280AD070B9084B2C
:100AD000986E00F003007047054B986EC0F38100DC
:100AE0007047034B986EC0F30110704700207047A9
:100AF0000038024030B50C4C28B9D4F8A05045F469
:100B00008055C4F8A050656860F3965565606068CC
:100B100061F38E106060616862F303016160626876
:100B200063F31242626030BD00380240084BD3F8D4
:100B3000A42042F03002C3F8A4209A6860F30102B6
:100B40009A60D3F8A4206FF30512C3F8A42070476D
:100B500000380240024B9868C0F38100704700BF24
:100B60000038024038B52C4B9A68C2F38102012A42
:100B7000044619D0022A1DD0002A4BD1D3F8A02058
:100B800052040FD5D3F8A030244A13F4805F244BCD
:100B900018BF1346204AD2F8A420C2F30242D34021
:100BA00023601EE01E4BF5E7D3F8A4201C4BC2F3D4
:100BB000C242F4E75A6859685A685B68194D184888
:100BC000C3F30243C1F38811EB5C02F00F025A43F6
:100BD000A1FB00010023FFF78DFC400840EAC17033
:100BE00020600D4A104993681048C3F30313C95C91
:100BF0002368CB4063609168C1F38221415C23FA92
:100C000001F1E16092680A49C2F342328A5CD34042
:100C1000A36038BD024BC3E700380240006CDC0221
:100C200000127A00DA2D0008E02D0008D22D00080D
:100C3000D22D00082DE9F0410C880025032601275C
:100C40000CB9BDE8F081E30735D51FFA85FE0268CF
:100C50004FEA4E0C06FA0CF322EA030202608A798C
:100C6000D0F8008002FA0CF242EA08020260426800
:100C700007FA0EF822EA080242600A79D0F80480E6
:100C800002FA0EF242EA08024260826822EA030295
:100C90008260CA79D0F808E002FA0CF242EA0E0249
:100CA0008260C26822EA0303C3604B79C26803FA18
:100CB0000CF31343C36064080135C1E74FF6FF72BC
:100CC0004FF08073C0E90023704701F0070310B5AF
:100CD0009C000F23A340C90802FA04F26FEA030341
:100CE00006D0416A0B404362436A1A43426210BD18
:100CF000016A0B400362036A1A430262F7E74FF08E
:100D0000E02304281A690CBF42F0040222F0040216
:100D10001A6170472DE9FF41044668461F46884620
:100D20001646FFF71FFF2E4B9C4233D10020FFF7E2
:100D3000C9FE00283CD1029D03E0032822D14FF4D4
:100D400000450A214D43B5FBF8F0B0FBF1F201FB81
:100D500012000428A36888BF013292B262F30F0325
:100D6000A360022EE3682BD143F08053E360E36875
:100D70006FF30C33E360236967F30D33236104B031
:100D8000BDE8F081174BD3F8A030DB044CBF164D03
:100D9000164DD6E7164B9C4205D10120FFF792FE77
:100DA00030B9039DCDE7134B9C4205D10220F5E7F6
:100DB0000128C2D1009DC4E70F4B9C42F1D1BAE794
:100DC00036B966F31C73E360E36866F30C33D1E76E
:100DD0006FF31C73E360E36843F48053CAE700BF1A
:100DE0000010014000380240006CDC0200127A0062
:100DF000004400400048004000140140C36861F313
:100E00004D33C3607047C36861F3C303C360704769
:100E1000C1F308014160704703680B4214BF012011
:100E20000020704708B500F033F800F047F94FF4A0
:100E3000E13000F0A1F80C480C4C00F069FA0C48C5
:100E400000F066FA0B4800F063FA0B4800F060FA15
:100E5000002000F009F9204600F05AFA4FF47A70A9
:100E600000F046F9F4E700BFF02D00089D2E0008C1
:100E7000052E0008332E0008652E00087047FEE797
:100E8000FEE7FEE7FEE770477047704770470000D7
:100E900010B5FFF74DFD1F4B1F484FF4AA721A60A3
:100EA0000121FFF7A5FD1D4A1369012143F003034A
:100EB00013610846FFF7AEFDFFF789FD0028FBD060
:100EC0000123482118461A46FFF714FE012102208B
:100ED000FFF7A0FD1920FFF769FD01280446F9D1AD
:100EE0000020FFF7BDFD0020FFF7D6FD0420FFF72F
:100EF000CBFD2046FFF7D8FD0220FFF717FEFFF7D6
:100F000029FE0228FBD10020FFF7CEFDBDE81040EE
:100F1000FFF7B8BC003C02401C00400000700040DD
:100F2000044B33F810301BB1034A52F82020936170
:100F3000704700BF1000002018000020F8B50D4FCA
:100F40000D4614460E46731B9C4201DC2046F8BD3C
:100F500008488021FFF760FF0028F9D016F8011B30
:100F60003846FFF755FF40213846FFF755FF002868
:100F7000F9D0E8E7001001401A4B13B50446186891
:100F8000002319460222806800F0CAF916480121A0
:100F9000FFF72EFD01214FF44010FFF729FD6846B1
:100FA000FFF78CFE4FF081734FF4007269460F48D3
:100FB000CDE90023FFF73EFE0C4807220921FFF789
:100FC00084FE00231A4621460948FFF7A3FE08487D
:100FD0000121FFF718FF06480121FFF70FFF02B0BC
:100FE00010BD00BF240000200400440000000240A7
:100FF0000010014007B501214FF44010FFF7F8FC45
:101000006846FFF75BFE054B054801226946CDE9BE
:101010000023FFF70FFE03B05DF804FB00020001A0
:101020000000024013B50C4B0446012153F8200088
:10103000FFF7DEFC6846FFF741FE084B33F814303B
:101040000093074B0193074B694653F82400FFF7C1
:10105000F1FD02B010BD00BF040000201000002010
:101060000000010118000020022807D8044B33F8C3
:1010700010301BB1034A52F82020D362704700BFE2
:10108000100000201800002008B50420FFF737FEEC
:10109000064B074A1B68B3FBF2F3064A136013685A
:1010A0004FF47A725343044A136008BD00000020D5
:1010B00040420F00840800208008002008B5FFF798
:1010C000E3FF0020FFF7AEFF0120FFF7ABFF022098
:1010D000FFF7A8FF0020FFF723FF0120FFF720FF05
:1010E0000220FFF71DFFBDE80840FFF783BF0000A7
:1010F000114930B54FF0E0230024322500B930BD4E
:101100000A68322895BF50436A4358615A619C610E
:101110001A6988BF323842F001028CBF80B20020C9
:101120001A611A6902F00112012AFAD01A6922F032
:1011300001021A619C61E1E780080020002103E0C0
:101140000B4B5B58435004310A480B4B42189A42F0
:10115000F6D30A4A02E0002342F8043B084B9A42C5
:10116000F9D3FFF749FB00F00FF8FFF75BFE70477C
:10117000E02E000800000020640800206408002021
:10118000D4080020FEE7000070B50D4E0D4D761B13
:10119000B61006D0002455F8043B01349847A64207
:1011A000F9D1094E094D761B01F0FCFDB61006D0B1
:1011B000002455F8043B01349847A642F9D170BD8C
:1011C000D42E0008D42E0008DC2E0008D42E0008EF
:1011D000830730B548D0541E002A3FD0CAB2034618
:1011E00001E0013C3AD303F8012B9D07F9D1032C10
:1011F0002DD9CDB245EA05250F2C45EA054536D94E
:10120000A4F1100222F00F0C03F1200EE6444FEA85
:10121000121C03F1100242E9045542E90255103252
:101220007245F8D10CF1010214F00C0F03EB02121D
:1012300004F00F0C13D0ACF1040323F003030433C8
:10124000134442F8045B9342FBD10CF003042CB12D
:10125000CAB21C4403F8012B9C42FBD130BD64464A
:101260001346002CF4D1F9E703461446BFE71A46AB
:10127000A446E0E770B5054688B008460C46FEF780
:10128000DFFF224EAA6B059001214318CDE90661CC
:1012900004A8022104940393AC680190029122B344
:1012A000636E13F0010FB4F90C309AB201D19805B6
:1012B00025D5910406D4626E43F4005322F4005203
:1012C000A3816266284601AA214600F0DBFB636E1B
:1012D000002814BF4FF0FF350A25DA0702D4A3898E
:1012E0009B0506D5284608B070BD284600F0CCF90D
:1012F000D6E7A06D00F068FD284608B070BDA06D6F
:1013000000F060FDB4F90C309AB2D2E7C82E0008A4
:10131000024B01461868FFF7ADBF00BF2400002054
:101320002DE9F043694CD4F8008083B004460E46A2
:1013300017461D46B8F1000F03D0D8F83830002BFF
:1013400077D0022F05D0012F00F2AC80002DC0F223
:10135000A980636EDA0752D52146404600F060F955
:10136000216B41B104F14003994202D0404600F0A4
:1013700083FA00232363B4F90CC000231CF0800F10
:10138000A361636064D12CF44A6C2CF0030C022F2F
:10139000A4F80CC06AD001AB6A462146404600F072
:1013A00085FDA3891843A081002D2FD0002E2ED0BB
:1013B000D8F83830002B38D0009B2660AB42B4F907
:1013C0000C301CBF43F40063A381012F04BF43F022
:1013D0000103A3819AB213F00803C4E904652CD079
:1013E000D1075DD56D42A561656E002315F001053D
:1013F000A36027D00025284603B0BDE8F083A38969
:101400009B05A9D4A06D00F0DDFCA5E7009D284652
:1014100000F07CFD0646002847D0A38943F08003F6
:10142000A381D8F83830002BC6D1404600F02CF903
:10143000C2E7404600F028F983E7A360656E15F027
:101440000105D7D1930524D5284603B0BDE8F08324
:101450002169404600F010FAB4F90CC02CF44A6C33
:101460002CF0030C022FA4F80CC094D1002500220C
:1014700004F14303A2600122C4E904322360636ED5
:101480004CF0020CD807A4F80CC0DDD41CF4007F8B
:10149000DAD1A06D00F098FC284603B0BDE8F083D7
:1014A000A560CBE74FF0FF35CEE7DDF80090A9450A
:1014B00004D0484600F02AFD064620B9B4F90CC015
:1014C0004FF0FF35D3E74D46A7E700BF24000020CB
:1014D000024B13B1024800F005B87047000000004D
:1014E000AD170008002301461A46184601F012BB4A
:1014F000B1F90C202DE9F0410C461107804647D484
:10150000636842F40062002BA2815EDDA56A002DB3
:1015100058D00023D8F80060C8F8003093B212F415
:10152000805256D10123E1694046A847431C67D049
:10153000A389A56A5F0705D56368C01A236B0BB141
:10154000E36BC01AE169024600234046A847411CEC
:1015500041D1D8F80030002B3DD01D2B01D0162BE7
:1015600056D1A3892269226023F4006300216160BF
:10157000A381216BC8F8006021B304F140039942B4
:1015800002D0404600F078F900202063BDE8F081E9
:101590002669BEB193B2256826609A070CBF6369BD
:1015A0000023AD1BA3600BE02B463246E169676A5E
:1015B0004046B847B0F1000CA5EB0C05664417DDBA
:1015C000002DF1DC0020BDE8F081E36B002B9DDCF9
:1015D000F8E7206DAEE7B4F90C302269226023F4FD
:1015E0000063A3810022DB046260C2D52065C0E7EE
:1015F000A38943F040034FF0FF30A381BDE8F081A1
:10160000D8F80030002B93D01D2B06D0162B04D019
:10161000A38943F04003A381D5E7C8F80060D1E770
:1016200038B50C46054608B1836BA3B1B4F90C007C
:10163000B8B1636EDB0701D4810515D52846214674
:10164000FFF756FF636EDA07054602D4A3899B05B0
:101650000ED5284638BD00F017F8B4F90C00002864
:10166000E7D10546284638BDA06D00F0ABFBE5E7A5
:10167000A06D00F0A9FB284638BD00BF014900F06D
:1016800079BB00BFC52B00082DE9F04782463948D9
:1016900000F098FBDAF83840002C66D1DAF80450F4
:1016A000354ACAF83C200323CAE9B843DFF8DC9086
:1016B000DFF8DC80314F324E04230AF53B72CAF862
:1016C000E8222146C5E90243C5E90044C5E90444CE
:1016D0006C660822AC6105F15C00FFF779FDC5E995
:1016E0000759C5E90987EE6205F1580000F066FB6D
:1016F000DAF80850234BEB602146C5E90044C5E900
:1017000004446C66AC60AC61082205F15C00FFF734
:101710005FFDC5E90759C5E90987EE6205F1580083
:1017200000F04CFBDAF80C50174BEB602146C5E992
:101730000044C5E904446C66AC60AC61082205F164
:101740005C00FFF745FD05F15800C5E90759C5E9FB
:101750000A76C5F8248000F031FB0123CAF838303E
:101760000448BDE8F04700F02FBBBDE8F047014852
:1017700000F02ABB940800207D160008ED2900081F
:101780000D2A000809000100120002008929000842
:10179000AD290008014800F015BB00BF90080020EB
:1017A000014800F011BB00BF9008002038B5084B7D
:1017B000084D5B1B9C1007D0043B1D44013C55F8B1
:1017C00004399847002CF9D1BDE8384001F0F0BA4F
:1017D000E02E0008DC2E0008F8B5244F0C46064623
:1017E00000F0C8FEBA685568C4F57E630F3325F073
:1017F00003052B4423F47F6323F00F03A3F58054E8
:10180000B4F5805F07DB0021304601F0ABF8BB6820
:101810002B44984204D0304600F0B2FE0020F8BDC0
:101820006142304601F09EF801300DD0104ABB688D
:101830002D1B45F001055D60136830461B1B1360CE
:1018400000F09EFE0120F8BD0021304601F08AF82C
:10185000BA68831A0F2BDEDD43F001035360054B9A
:1018600003491B68C01A0860D5E700BF5404002074
:10187000980800205C080020002961D0F8B50C46CB
:10188000064600F077FE54F8042C7B4FA4F10805BF
:1018900022F0010105EB010CB868DCF8043060456A
:1018A00023F0030300F08B80D207CCF8043032D44D
:1018B00054F8082CAD1A1144AA6807F108008242B6
:1018C0006AD00CEB0304D4F804E0EC68D4601EF09A
:1018D000010FA26000F0978041F001036B60CCF82B
:1018E0000010B1F5007F35D27A68CB084809012194
:1018F000013381401143796007EBC30257F833107D
:10190000083AC5E9021247F83350CD603046BDE8C9
:10191000F84000F035BE0CEB03025268D00710D43B
:10192000194407F10800DCF80830834273D0DCF872
:101930000C20DA60936041F001036B606950D0E7DE
:10194000704741F00103B1F5007F44F8043CCCF846
:101950000010C9D3B1F5206F4FEA512348D28B094B
:1019600003F1390003F13802C300F818FB580838B6
:10197000984259D05A6822F003028A4202D99B68E1
:101980009842F7D1D868C5E902308560DD603046FD
:10199000BDE8F84000F0F4BD0CEB03025268D2073A
:1019A00063D40B44DCE90212CA60916043F0010287
:1019B0006A603046EB50BDE8F84000F0E1BD0B44F2
:1019C000D10707D454F8082CAD1A1344D5E90212F4
:1019D000CA60916043F001026A60284ABD601268E3
:1019E0009A4293D8264B30461968FFF7F5FE8DE7EB
:1019F000142B0AD9542B1FD80B0B03F16F0003F1E2
:101A00006E02C300B1E719448DE703F15C0003F1F6
:101A10005B02C300A9E741F00103C7E90455C5E92A
:101A200002006B60695071E779689210012404FA32
:101A300002F20A437A60A6E7B3F5AA7F06D8CB0B79
:101A400003F1780003F17702C3008EE740F25452AD
:101A5000934206D88B0C03F17D0003F17C02C30096
:101A600083E74FF47E737E227FE741F001036B60D2
:101A7000CCF800104AE700BF5404002060080020A2
:101A8000C80800209368002B00F085802DE9F04FF6
:101A9000B1F90C300C461907804683B0174698B24E
:101AA00025D523691BB310F002033D682DD04FF0FC
:101AB000000ADFF8BCB25646B9465E453346524688
:101AC00028BF5B464046002E52D0E169676AB8479E
:101AD000002856DDD9F808301B1A8244361AC9F896
:101AE0000830002BE9D1002003B0BDE8F08F21467B
:101AF000404600F0A5FF002840F03681B4F90C30D4
:101B00003D6898B210F00203D1D110F0010944D120
:101B10004E46009746B38205D4F808B040F1838062
:101B2000B3455A4600F2B28010F4906F40F0BF8087
:101B300020680192494600F0A1FCA368019AA3EB3A
:101B40000B012368A1601344B24623600026009B6A
:101B50009868A0EB0A00D14498600028C3D0B4F97B
:101B60000C0080B2002ED6D1D5E900960835D1E719
:101B7000D5E900A60835A0E721464046FFF750FD0D
:101B800080B3B4F90C3043F040034FF0FF30A38131
:101B900003B0BDE8F08F002070471E46AA46994664
:101BA00018461D46009756B388B34A46D4E9041335
:101BB0002068B24228BF3246884205D9A16803EBAB
:101BC000010B5A4500F3A680934263DCE169676A22
:101BD0002A464046B847B0F1000BD2DDB9EB0B09FD
:101BE000CAD00120009A9368A3EB0B035D44A6EBD7
:101BF0000B069360002B3FF476AF002ED4D10AF190
:101C0000080353E902569A460833002EF9D03246AB
:101C10000A212846FEF784FB002800F09C80013052
:101C2000A0EB0509C1E720682369984216D86369CB
:101C3000B34213D86FF00042B24228BF3246E16986
:101C400092FBF3F2676A02FB03F340464A46B84749
:101C5000B0F1000A95DDA6EB0A0678E7B345DA464F
:101C600028BFB2465246494600F008FCA3682268E5
:101C7000A3EB0A035244A3602260002BEBD1214660
:101C80004046FFF7CDFC0028E5D07AE72068B34650
:101C900032464EE72946019200F0F0FB019AA36814
:101CA0009B1AA360236813442360934696E7236836
:101CB0002169A3EB010B636903EB430A0AEBDA7AB0
:101CC0000BF101034FEA6A0A33445345524684BF7D
:101CD0009A46524643052CD51146404600F01EF95F
:101CE00000283BD05A4621690190FEF769FBA28982
:101CF000019B22F4906242F08002A28103EB0B0070
:101D00002361AAEB0B03C4F814A0A3602060B346C0
:101D100032460EE729465A4600F0B0FB23685B4482
:101D2000236021464046FFF77BFC00283FF456AF76
:101D300027E7404600F02AFC03460028DED121694F
:101D40004046FFF799FDB4F90C300C2223F08003D4
:101D5000C8F8002017E7721C914627E70C22B4F957
:101D60000C30C8F800200EE74FF0FF30BCE600BF93
:101D700000FCFF7F2DE9F8430746884600F53876DA
:101D80004FF00009D6E90154013D11D4A389012B7C
:101D900005F1FF3508D9B4F90E300133214603D0DF
:101DA0003846C04749EA00096B1C04F16804EDD1CC
:101DB0003668002EE6D14846BDE8F883704700BF7C
:101DC000704700BF704700BF704700BF2DE9F0416A
:101DD0008B890C46990796B008D504F1430301227C
:101DE000C4E90432236016B0BDE8F081B4F90E10E6
:101DF0000029064627DB6A4600F04AFF002821DB5F
:101E0000019D05F47045A5F50055B5FA85F54FF42B
:101E100080686D094FF400674146304600F07EF857
:101E2000B4F90C30F0B1204AF26343F08003C4F8F7
:101E30001480A3812060206135BB3B43A38116B091
:101E4000BDE8F081A38913F0800519D04FF0400858
:101E50004146304600F062F80025B4F90C302F46B8
:101E60000028E0D19A05BED423F0030304F1430215
:101E700043F002030121C4E90421A3812260B2E7F7
:101E80004FF480682F46C7E7B4F90E10304600F0D3
:101E900015FF10B9B4F90C30CFE7A38923F0030381
:101EA00043F001031BB2C8E77D16000870B50C466D
:101EB000B1F90E10002996B015461E4614DB6A468D
:101EC00000F0E6FE00280FDB019A02F47042A2F552
:101ED0000052B2FA82F24FF4806352094FF400606C
:101EE00032602B6016B070BDB4F90C10002311F0F5
:101EF0008000336004D0402218462A6016B070BDBE
:101F00004FF480632B6016B070BD00BF024B0146DA
:101F1000186800F003B800BF240000202DE9F04F3E
:101F200001F10B06162E83B0044624D8102900F2C6
:101F3000BA8000F01FFB102618220220B54F3A4449
:101F4000A2F1080153688B4200F0BA805A68D96840
:101F500022F003021A449D68E9608D60516841F0E7
:101F600001012046516003F1080500F009FB2846F5
:101F700003B0BDE8F08F36F0070600F19480B1425F
:101F800000F2918000F0F6FAB6F5FC7FC0F09A817D
:101F9000730A00F08F80042B00F26F81B30903F104
:101FA000390003F1380CC3009A4F3B44A3F10805F4
:101FB0005B689D4206D10CE0002980F22781DB6836
:101FC0009D4206D05A6822F00302911B0F29F3DDCF
:101FD00060463D69DFF850C265457CD06A6822F0F2
:101FE0000302931B0F2B00F37B81002BC7E904CC6A
:101FF00080F26C81B2F5007F80F01A81D308796895
:1020000001334FEA521E012202FA0EF20A4357F838
:1020100033E0C5F808E007EBC3010839E9607A60EE
:1020200047F83350CEF80C5083100121994091426B
:1020300057D8114206D120F003004900114200F1A7
:102040000400FAD007EBC0094D468646D5F80C804F
:10205000454508D11DE1002B80F22481D8F80C8081
:10206000454500F01681D8F8042022F00302931BA6
:102070000F2BF0DD2046D8E9025408EB060146F0AC
:102080000106C8F80460EC60A56043F00104C7E9EC
:102090000411C1E902CC4C6048F8023000F070FA3B
:1020A00008F1080502E00C2323600025284603B050
:1020B000BDE8F08F4FF4007340204FF03F0C73E702
:1020C000D3689A4208BF02307FF440AF3D69DFF821
:1020D00058C1654582D17A688310012199409142A7
:1020E000A7D9BD686B6823F003094E4503D8A9EB57
:1020F00006030F2B7ADCDFF834B1474BDBF8002006
:102100001B680132334405EB090A00F0338103F503
:1021100080530F3323F47F6828F00F084146204690
:1021200000F020FC411C024600F0F380824500F2E2
:10213000EE803A4B196841441960084600F04E8120
:10214000DBF80010019301311BBFA2EB0A0A5044D7
:10215000CBF80020186012F0070B00F01781CBF1CC
:1021600008010A44CBF5805190440831A1EB0801E5
:10217000C1F30B0A51462046009200F0F3FB421CCB
:10218000DDE9002300F04F81801A00EB0A0819688E
:10219000BA6048F001005144BD425060196000F03F
:1021A0002981B9F10F0F40F227816868A9F10C0C61
:1021B0002CF0070C00F0010040EA0C0068604FF0C2
:1021C000050E05EB0C00BCF10F0FC0E901EE00F2AB
:1021D000328150681546124B1A688A4238BF19601E
:1021E000104B1A688A4238BF196094E0AA1943F06C
:1021F000010346F001066E602046BA60536000F0AD
:10220000BFF90835284603B0BDE8F08FD9681A44F5
:10221000A1E600BF54040020C80800209808002050
:10222000C0080020C40800205C0400205C080020D6
:10223000B2F5206F4FEA522363D3142B00F2B7801C
:1022400003F15C01C9005B3307EB010E7958AEF175
:10225000080E8E4500F091804B6823F003039342F3
:1022600002D989688E45F7D1D1F80CE07A68C5E9C2
:10227000021ECEF80850CD60D6E6142B59D9542B47
:1022800000F29D80330B03F16F0003F16E0CC3006D
:102290008AE60EF1010E1EF0030F05F108057FF42A
:1022A000D5AE51E0424445465368D8F80C1043F08F
:1022B0000103536055F8083F2046D9608B6000F059
:1022C0005FF9F3E6F00806F1080237E62A442046F3
:1022D000536843F001035360083500F051F9E5E617
:1022E000A919204646F0010643F001046E60C7E9D3
:1022F0000411C1E902CC4C60AB5000F041F9083543
:10230000D4E6930903F13901C90038339CE7BD4293
:102310005FD0BD68686820F003084645A8EB060357
:1023200002D80F2B3FF762AF204600F029F90025B5
:10233000BCE603F15C0003F15B0CC30034E659F822
:1023400008394B4540F0968010F0030F00F1FF3044
:10235000F5D17B6823EA01037B60490099423FF68F
:10236000C0AE19B9BDE649000EF1040E1942FAD00B
:10237000704667E603F11008D0E69A104FF00108A6
:102380007B6808FA02F21A437A6070E702EB0801F0
:102390004942C1F30B0A51462046009200F0E2FA8E
:1023A000431CDDE900237FF4EFAEDA46EFE6542B61
:1023B00025D8130B03F16F01C9006E3344E7B3F561
:1023C000AA7F25D8F30B03F1780003F1770CC30043
:1023D000EAE5294B186840441860B1E6CAF30B0CD3
:1023E000BCF1000F7FF4ACAEBD68C84448F00100FA
:1023F0006860F0E61546EEE60123536094E7B3F516
:10240000AA7F23D8D30B03F17801C90077331BE7E8
:1024100040F25452934223D8B30C03F17D0003F1F0
:102420007C0CC300C0E5ABF1080BD844A8EB020854
:102430004FF0000AABE605F1080120460093FFF7D4
:102440001BFABD68009B68681968C4E640F25451E5
:102450008B420BD8930C03F17D01C9007C33F3E66A
:102460004FF47E737F204FF07E0C9DE54FF47E711C
:102470007E23E9E67B6870E79808002088420DD942
:102480008B1883420AD900EB020CBAB1624613F8EA
:1024900001CD02F801CD9942F9D170470F2A0ED82B
:1024A000034602F1FF3C4AB10CF1010C013B8C44A4
:1024B00011F8012B03F8012F6145F9D1704740EA6B
:1024C00001039B0750D1A2F1100370B501F1200C5C
:1024D00023F00F0501F1100E00F11004AC441B09AC
:1024E0005EF8105C44F8105C5EF80C5C44F80C5C20
:1024F0005EF8085C44F8085C5EF8045C44F8045C30
:102500000EF1100EE64504F11004E9D1013312F08A
:102510000C0F01EB031102F00F0400EB031327D0A3
:10252000043C24F003064FEA940C1E441C1F8E4604
:102530005EF8045B44F8045FB442F9D10CF1010485
:1025400002F0030203EB840301EB840102F1FF3C80
:102550004AB10CF1010C013B8C4411F8012B03F83A
:10256000012F6145F9D170BD02F1FF3C03469BE7A5
:102570002246EBE70148FFF725BC00BF8C0800208E
:102580000148FFF721BC00BF8C0800202DE9F84F5F
:102590001746002900F0988007F10B0580460C468D
:1025A000FFF7E8FF162D5DD810252A46AF425ED80A
:1025B00054F8041C21F003069642A4F1080962DADB
:1025C000BC4BD3F808C009EB0600844500F09780A7
:1025D000D0F804C02CF0010303445B68DB0768D427
:1025E0002CF0030C06EB0C03934247DACB0710D414
:1025F00054F8083CA9EB030ADAF8043023F003018D
:102600008C44B444944580F211817318934280F253
:10261000E88039464046FFF781FC0746E0B154F8B0
:10262000043C23F001034B44A0F10802934200F064
:10263000D280321F242A00F2F580132A00F2AC80E7
:1026400003462246116819605168596092689A6081
:1026500021464046FFF710F94046FFF791FF384604
:10266000BDE8F88F25F00705002D2A469EDA0C23D9
:10267000C8F8003000273846BDE8F88F1E46D0E97C
:102680000223D3609A60731B0F2B22D8D9F8043031
:1026900003F0010333434E44C9F80430736843F038
:1026A0000103736040462746FFF76AFF3846BDE8DE
:1026B000F88FC907ADD454F8083CA9EB030ADAF83F
:1026C000041021F00301A0E7BDE8F84F1146FFF721
:1026D00025BCD9F8041001F001012943C9F8041000
:1026E00009EB05014E4443F001034B60736843F06E
:1026F0000103083173604046FFF7BEF8D2E7DCF80B
:10270000040020F0030B06EB0B0C05F110008445D0
:102710004DDAC9073FF57DAF54F8081CA9EB010A53
:10272000DAF8041021F003018B44B34458453FF715
:102730006CAF5746DAF80C1057F8080F321F242AEE
:10274000C160886000F2DB80132A40F2D6802168E5
:10275000CAF808106168CAF80C101B2A00F2DF8062
:1027600008340AF110022168116061685160A168A3
:1027700091600AEB0501ABEB050242F001029960A2
:102780004A60DAF8043003F001031D434046CAF8FA
:102790000450FFF7F5FE6EE723680360636843604B
:1027A0001B2A68D804F1080200F108034AE709EB84
:1027B00005029A60ACEB050343F00103536054F843
:1027C000043C03F001031D43404644F8045CFFF75A
:1027D000D7FE27464FE750F8043C23F003031E447E
:1027E00051E75746DAF80C1057F8080F321F242A21
:1027F000C16088604CD8132A48D92168CAF80810EB
:102800006168CAF80C101B2A56D808340AF1100265
:102810001E462368136063685360A3689360D146C3
:102820003C4630E72146FFF729FE11E7D0E90213C5
:102830005746CB60996057F8081FDAF80C30CB6028
:10284000321F242A99602DD8132A29D92368CAF85F
:1028500008306368CAF80C301B2A42D808340AF1E1
:10286000100322681A6062685A60A2689A6066461D
:10287000D1463C4607E7A3688360E368C360242A27
:1028800026D004F1100200F11003DBE63A46BFE760
:10289000214638461E46D146FFF7F0FD3C46F2E69B
:1028A0003B46DEE7214638466646D146FFF7E6FD61
:1028B0003C46E8E654040020A168CAF81010E1681C
:1028C000CAF81410242A20D010340AF118029FE705
:1028D000236903616169416104F1180200F1180381
:1028E000B0E6A368CAF81030E368CAF81430242AA6
:1028F00021D010340AF11803B3E73A4633E72146F2
:102900003846FFF7BBFD164B33E72269CAF818209B
:102910006269CAF81C2018340AF1200278E7A1681D
:10292000CAF81010E168CAF81410242A0DD0103427
:102930000AF1180217E72369CAF818306369CAF860
:102940001C3018340AF120038BE72269CAF81820DA
:102950006269CAF81C2018340AF1200203E700BF9C
:102960005404002038B5074D0022044608462A606A
:1029700000F00AFA431C00D038BD2B68002BFBD0B6
:10298000236038BDCC08002010B50C46B1F90E10FC
:1029900000F0BCF9002803DB236D0344236510BD60
:1029A000A38923F48053A38110BD00BF2DE9F0411A
:1029B0000C46B1F90C101F46CB05054616460BD444
:1029C00021F48051A1813B46B4F90E1032462846CD
:1029D000BDE8F04100F01EB8B4F90E100223002249
:1029E00000F07EF9B4F90C10EAE700BF10B50C4610
:1029F000B1F90E1000F074F9A389421C0EBF23F444
:102A0000805343F480532065A38110BDB1F90E10AB
:102A100000F0C6B838B50C46084D8446114620462D
:102A20001A4600232B606446FEF788FA431C00D048
:102A300038BD2B68002BFBD0236038BDCC080020AC
:102A400038B5334B1B6805460C460BB19A6B12B375
:102A5000B4F90C3018079AB225D5216900292DD078
:102A600012F0010007D00020A06060694042A06120
:102A700039B1002038BD950758BF6069A0600029B2
:102A8000F7D1120658BF0846F4D543F04003A3819E
:102A90004FF0FF3038BD1846FEF7F6FDB4F90C30A4
:102AA00018079AB2D9D4D1062AD5520714D421696D
:102AB00043F00803A3819AB20029D1D102F4207017
:102AC000B0F5007FCCD021462846FFF77FF9B4F956
:102AD0000C3021699AB2C3E7216B51B104F1400275
:102AE000914204D02846FEF7C7FEB4F90C3000220C
:102AF000226321690022C4E9001223F02403D7E7EE
:102B0000092243F040032A604FF0FF30A38138BD13
:102B1000240000202DE9F047DFF880A00646DAF80F
:102B2000000098460F469146FFF74CF91A4B1B6878
:102B3000D3F8484124B365681F2D26DC5EB96B1CB1
:102B40000235DAF80000636044F82570FFF73CF9BD
:102B50000020BDE8F08704EB85010123C1F88890CF
:102B6000D4F88821AB401A43022EC4F88821C1F85A
:102B70000881E4D1D4F88C211343C4F88C31DEE70A
:102B800003F5A674C3F84841D5E7DAF80000FFF76B
:102B90001BF94FF0FF30DCE7C42E00085004002082
:102BA00038B5074D0022044608462A6000F0C4F8F4
:102BB000431C00D038BD2B68002BFBD0236038BDF0
:102BC000CC08002070B500294BD006460C4610B149
:102BD000836B002B48D0636ED80734D5B4F90C3022
:102BE000002B3ED021463046FEF782FCE36A0546C4
:102BF00033B1E169304698470028B8BF4FF0FF3540
:102C0000A3891A063BD4216B41B104F140039942D8
:102C100002D03046FEF730FE00232363616C21B101
:102C20003046FEF729FE00236364FEF7B3FD636EB2
:102C30000022DB07A28127D5A06DFFF7C1F8FEF7C0
:102C4000AFFD284670BDA3899905CBD4A06DFFF7D1
:102C5000B9F8B4F90C30002BC4D1656E15F001053C
:102C600008D00025284670BDFEF70EFD636ED8071C
:102C7000B4D4E8E7A06DFFF7A7F8284670BD216936
:102C80003046FEF7F9FDBEE7A06DFFF79DF8D3E7EC
:102C900070B50C46084D03460026204611461C46DA
:102CA0002E6000F051F8431C00D070BD2B68002B43
:102CB000FBD0236070BD00BFCC08002038B5074DA5
:102CC0000022044608462A6000F046F8431C00D063
:102CD00038BD2B68002BFBD0236038BDCC0800200A
:102CE00038B50C46084D8446114620461A46002346
:102CF0002B60644600F038F8431C00D038BD2B68C8
:102D0000002BFBD0236038BDCC08002038B50C4622
:102D1000084D8446114620461A4600232B6064461F
:102D200000F02AF8431C00D038BD2B68002BFBD0E4
:102D3000236038BDCC080020024B58221A604FF0A7
:102D4000FF307047CC080020024B58221A604FF029
:102D5000FF307047CC080020024B58221A60002038
:102D6000704700BFCC080020024B58221A604FF079
:102D7000FF307047CC080020024B58221A604FF0F9
:102D8000FF307047CC080020044A05491368002B27
:102D900008BF0B461844106018467047D008002042
:102DA000D8080020F8B500BFF8BC08BC9E467047A4
:0C2DB000F8B500BFF8BC08BC9E46704798
:102DBC0001020408102000000000000000000102C5
:102DCC0003040607080900000000010203040102C5
:102DDC0004081020000000000000000001020304A1
:102DEC000607080948617264776172655F496E690C
:102DFC0074205B6F6B5D200D0061745F7374617286
:102E0C00745F663432336120626F61726420746562
:102E1C007374696E6720323032342D30382D31396D
:102E2C00205B6F6B5D0D0061745F73746172745F16
:102E3C00663432336120626F617264206279206380
:102E4C006F6465722D656E642074656D706C617451
:102E5C0065205B6F6B5D200D0061745F7374617234
:102E6C00745F663432336120626F61726420676311
:102E7C00632D6D616B6566696C652D70796F63642C
:102E8C002074656D706C617465205B6F6B5D200DDB
:102E9C000061745F73746172745F66343233202026
:102EAC00617433325F6C65645F746F67676C652047
:102EBC005B6F6B5D200D0000280000200A000000F5
:082ECC0058D6FF7F0100000051
:082ED400D114000825020008DA
:042EDC0001020008E7
:102EE00000127A00030030000300300003003000BD
:102EF0000020004000800000000C0240000C024056
:102F0000000C0240280000200000000014030020F4
:102F10007C030020E403002000000000000000000B
:102F200000000000000000000000000000000000A1
:102F30000000000000000000000000000000000091
:102F40000000000000000000000000000000000081
:102F50000000000000000000000000000000000071
:102F60000000000000000000000000000000000061
:102F70000000000000000000000000000000000051
:102F80000000000000000000000000000000000041
:102F90000000000000000000000000000000000031
:102FA0000000000000000000000000000000000021
:102FB00001000000000000000E33CDAB34126DE6BE
:102FC000ECDE05000B000000000000000000000027
:102FD00000000000000000000000000000000000F1
:102FE00000000000000000000000000000000000E1
:102FF00000000000000000000000000000000000D1
:1030000000000000000000000000000000000000C0
:103330008808002000000000000000005404002065
:10334000540400205C0400205C040020640400207D
:10335000640400206C0400206C040020740400202D
:10336000740400207C0400207C04002084040020DD
:10337000840400208C0400208C040020940400208D
:10338000940400209C0400209C040020A40400203D
:10339000A4040020AC040020AC040020B4040020ED
:1033A000B4040020BC040020BC040020C40400209D
:1033B000C4040020CC040020CC040020D40400204D
:1033C000D4040020DC040020DC040020E4040020FD
:1033D000E4040020EC040020EC040020F4040020AD
:1033E000F4040020FC040020FC040020040500205C
:1033F000040500200C0500200C0500201405002009
:10340000140500201C0500201C05002024050020B8
:10341000240500202C0500202C0500203405002068
:10342000340500203C0500203C0500204405002018
:10343000440500204C0500204C05002054050020C8
:10344000540500205C0500205C0500206405002078
:10345000640500206C0500206C0500207405002028
:10346000740500207C0500207C05002084050020D8
:10347000840500208C0500208C0500209405002088
:10348000940500209C0500209C050020A405002038
:10349000A4050020AC050020AC050020B4050020E8
:1034A000B4050020BC050020BC050020C405002098
:1034B000C4050020CC050020CC050020D405002048
:1034C000D4050020DC050020DC050020E4050020F8
:1034D000E4050020EC050020EC050020F4050020A8
:1034E000F4050020FC050020FC0500200406002057
:1034F000040600200C0600200C0600201406002004
:10350000140600201C0600201C06002024060020B3
:10351000240600202C0600202C0600203406002063
:10352000340600203C0600203C0600204406002013
:10353000440600204C0600204C06002054060020C3
:10354000540600205C0600205C0600206406002073
:10355000640600206C0600206C0600207406002023
:10356000740600207C0600207C06002084060020D3
:10357000840600208C0600208C0600209406002083
:10358000940600209C0600209C060020A406002033
:10359000A4060020AC060020AC060020B4060020E3
:1035A000B4060020BC060020BC060020C406002093
:1035B000C4060020CC060020CC060020D406002043
:1035C000D4060020DC060020DC060020E4060020F3
:1035D000E4060020EC060020EC060020F4060020A3
:1035E000F4060020FC060020FC0600200407002052
:1035F000040700200C0700200C07002014070020FF
:10360000140700201C0700201C07002024070020AE
:10361000240700202C0700202C070020340700205E
:10362000340700203C0700203C070020440700200E
:10363000440700204C0700204C07002054070020BE
:10364000540700205C0700205C070020640700206E
:10365000640700206C0700206C070020740700201E
:10366000740700207C0700207C07002084070020CE
:10367000840700208C0700208C070020940700207E
:10368000940700209C0700209C070020A40700202E
:10369000A4070020AC070020AC070020B4070020DE
:1036A000B4070020BC070020BC070020C40700208E
:1036B000C4070020CC070020CC070020D40700203E
:1036C000D4070020DC070020DC070020E4070020EE
:1036D000E4070020EC070020EC070020F40700209E
:1036E000F4070020FC070020FC070020040800204D
:1036F000040800200C0800200C08002014080020FA
:10370000140800201C0800201C08002024080020A9
:10371000240800202C0800202C0800203408002059
:10372000340800203C0800203C0800204408002009
:10373000440800204C0800204C080020FFFFFFFF39
:043740000000020083
:040000050800113DA1
:00000001FF
