:020000040800F2
:10000000A00600202D020008FF040008F7040008E5
:10001000FB040008F1040008790500080000000056
:1000200000000000000000000000000003050008C0
:10003000F50400080000000001050008050500089F
:10004000470200084702000847020008470200086C
:10005000470200084702000847020008470200085C
:10006000470200084702000847020008470200084C
:10007000470200084702000847020008470200083C
:100080004702000847020008C504000847020008AC
:10009000470200084702000847020008470200081C
:1000A000470200084702000847020008470200080C
:1000B00047020008470200084702000847020008FC
:1000C00047020008470200084702000847020008EC
:1000D00047020008470200084702000847020008DC
:1000E00047020008470200084702000847020008CC
:1000F00047020008470200084702000847020008BC
:1001000047020008470200084702000847020008AB
:10011000470200084702000847020008470200089B
:10012000470200084702000847020008470200088B
:10013000470200084702000847020008470200087B
:1001400000000000000000000000000000000000AF
:10015000470200084702000847020008470200085B
:10016000470200084702000847020008470200084B
:10017000470200084702000847020008470200083B
:100180004702000800F002F800F041F80AA090E8E9
:10019000000C82448344AAF10107DA4501D100F042
:1001A00036F8AFF2090EBAE80F0013F0010F18BFCE
:1001B000FB1A43F001031847B0130000D0130000EE
:1001C000103A24BF78C878C1FAD8520724BF30C883
:1001D00030C144BF04680C60704700000023002455
:1001E00000250026103A28BF78C1FBD8520728BF47
:1001F00030C148BF0B607047782900F0798000203B
:1002000070471FB501F07BF91FBD10B510BD00F0A0
:1002100027F91146FFF7F5FF00F03EFF00F045F922
:1002200003B4FFF7F2FF03BC00F0A8F909488047C8
:1002300009480047FEE7FEE7FEE7FEE7FEE7FEE7C8
:10024000FEE7FEE7FEE7FEE704480549054A064BE0
:10025000704700000905000885010008A000002083
:10026000A0060020A0020020A0020020704700008D
:100270000FB4044910B503AA029800F0C3F810BCEB
:100280005DF814FB300000202DE9F0410E460446D5
:10029000002020622046E168884730B3252805D039
:1002A000D4E901219047206A401CF2E7E16820462A
:1002B00000278847050018D0A5F14100192802D869
:1002C00020354FF400673246294620462760FFF765
:1002D00093FF40B1012804D0F61D26F0070608362A
:1002E000D8E7361DD6E72846DAE7206ABDE8F08170
:1002F00070B504460D4621461068AFF30080218892
:10030000090502D50F4A7A4402E00E4A7A440E32B9
:10031000002104F1240305E000F00F060009965DBA
:100320005E54491C0028F7D120780023000704D52B
:10033000702D02D009B1022311322046BDE8704071
:1003400000F006B8361200007047704770477047DB
:100350002DE9F0470D4699469246044600F12408DF
:100360000168880604D5E06921F01001216000E0F1
:100370000120A84201DD471B00E00027A1697A198E
:1003800002EB0900081AA0612078C00602D42046BA
:10039000AFF30080002608E0D4E901211AF8060036
:1003A0009047206A401C761C20624E45F4DB207882
:1003B000C0060AD52046AFF3008006E0D4E901214B
:1003C00030209047206A401C2062381EA7F10107A8
:1003D000F4DC07E0D4E9012118F805009047206A11
:1003E000401C2062281EA5F10105F3DC2046AFF376
:1003F00000802078000602D50220BDE8F0870120A9
:10040000FBE70000074B70B50D467B4400F011F888
:100410000446284600F020F810B14FF0FF3070BDC0
:10042000204670BD6B0B000001694A1C0261087810
:10043000704700B58FB0CDE9013100210591054924
:100440007944CDE9031011466846FFF71DFF0FB050
:1004500000BD0000E5FFFFFF007B00F0800070475B
:10046000754600F02BF8AE4605006946534620F06D
:100470000700854618B020B5FFF7E6FEBDE820402E
:100480004FF000064FF000074FF000084FF0000B50
:1004900021F00701AC46ACE8C009ACE8C009ACE803
:1004A000C009ACE8C0098D46704710B50446AFF3EB
:1004B00000802046BDE81040FFF7B2BE00487047FC
:1004C0003C00002010B50121074800F01AF948B19E
:1004D000012000F02DFA0121034800F00FF901205E
:1004E0000249088010BD00000024014006000020E1
:1004F00000BFFEE7704700BFFEE700BFFEE77047A2
:1005000070477047704700001848006840F470005A
:10051000164908601648006820F00100401C144984
:10052000086000BF12480068C0F340000028F9D0FE
:100530000F48406820F003000D49486000BF0C4898
:100540004068C0F381000028F9D1094800680949D2
:100550000840074908600020486008634FF41F0006
:100560008860C803014980390860704788ED00E061
:1005700000100240FFFFF2FE00BFFEE700BF704721
:100580000B78426863F3082242604B78826863F319
:10059000410282608B78826863F3CB228260CA78E2
:1005A000521EC36A62F31753C36270470021017081
:1005B000417081700121C1707047816821F008018C
:1005C00008318160704701468868C0F3C00008B1F7
:1005D000012070470020FCE7816821F00401091D1B
:1005E0008160704701468868C0F3800008B101202F
:1005F00070470020FCE700000349096860F31341DD
:10060000014A1160704700000424014008B501212F
:10061000324800F0E9FA012000F0A4F90022114666
:10062000122000F09BFD0020FFF7E6FF6846FFF771
:10063000BDFF01208DF8000000208DF801008DF82D
:10064000020003208DF8030069462548FFF798FF54
:10065000072301220421224800F066F80723022222
:1006600005211F4800F060F80723032206211C48DB
:1006700000F05AF801220721194800F0A9F80121D9
:10068000174800F031F81749154800F0C0F840F657
:10069000AA2240F6BB31124800F0CEF805211048DE
:1006A00000F0C5F8012240210D4800F032F8012188
:1006B0000B4800F01EF80A48FFF77FFF00BF08480C
:1006C000FFF781FF0028FAD10548FFF785FF00BF3B
:1006D0000348FFF787FF0028FAD108BD090018007A
:1006E0000024014000028000826861F308228260D9
:1006F0007047826861F3000282607047CA430260FB
:1007000070470246002013680B4003B900E0012047
:100710007047012A03D143680B43436003E012B9D9
:1007200043688B434360704770B504460A290CDA6E
:10073000206901EB41060725B540A84301EB4105BF
:1007400003FA05F5284320610FE0E068A1F10A05EE
:1007500005EB45060725B540A843A1F10A0505EBC1
:10076000450503FA05F52843E0600D2A10DBE06A31
:10077000A2F10D0505EB85061F25B540A843A2F1A2
:100780000D0505EB850501FA05F52843E0621EE03D
:10079000072A0EDB206BD51F05EB85061F25B5400C
:1007A000A843D51F05EB850501FA05F5284320630D
:1007B0000DE0606B551E05EB85061F25B540A8436F
:1007C000551E05EB850501FA05F52843606370BDEC
:1007D00007290ADD836823F0007303F10073836047
:1007E000836861F35343836007E0836823F00073F9
:1007F0008360836861F353438360836862F31453B7
:1008000083607047826861F39652826070474268E5
:1008100022F400024260426822F480024260426890
:1008200022F40072426042680A43426070474268A4
:1008300061F3040242607047436A61F30B03436251
:10084000836A62F30B038362704710B500F07EFA8F
:10085000002000F031F8012000F02EF8022000F016
:100860002BF8002000F050F8012000F04DF8022095
:1008700000F04AF800F002F810BD00001CB501219C
:100880000B4800F0B1F9684600F0A6FB01208DF896
:10089000070000208DF804008DF80600012000906C
:1008A00028208DF805006946024800F0A0FB1CBD19
:1008B00002001800000801401CB504460F4951F819
:1008C0002400012100F090F9684600F085FB01202A
:1008D0008DF8070000208DF8040010208DF8060028
:1008E000074830F81400009004208DF805000549F1
:1008F00051F82400694600F07AFB1CBD1C00002062
:100900001400002008000020022800DD704706497E
:1009100031F8101031B1044931F81010034A52F87F
:100920002020116100BFF1E7140000200800002022
:10093000022800DD7047094931F8101059B1084903
:1009400051F82010C968054A32F810205140044A75
:1009500052F82020D16000BFECE700001400002016
:10096000080000200649496860F38F31044A51604D
:1009700082080349496862F31C71014A516070475B
:10098000001002400349496860F30711014A5160B1
:1009900070470000001002400349496860F30A21D3
:1009A000014A516070470000001002400349496845
:1009B00060F3CD21014A51607047000000100240F1
:1009C000012807D10749496D21F030013031054A2E
:1009D000516505E00349496D21F03001014A516537
:1009E0007047000000100240052827D2DFE800F021
:1009F000030A11181F00134A126861F30002114B19
:100A00001A601CE00F4A126861F310420D4B1A6025
:100A100015E00C4A126861F318620A4B1A600EE086
:100A2000084A126A61F30002064B1A6207E0054A9F
:100A3000526A61F30002034B5A6200E000BF00BF3C
:100A400070470000001002402DE9F04101460027E8
:100A50000022002590460023002400F06FF906468E
:100A600026B1012E12D0022E43D112E03948406D3A
:100A7000C0F3402038B13748006BC0F3406010B17C
:100A80003548086001E03548086035E033480860C3
:100A900032E030484068C0F300482E484068C0F358
:100AA00083422C484068C0F341750DB90F2A03D129
:100AB0002801401C024400E0921CB8F1000F03D151
:100AC00027485043086013E022484068C0F3404084
:100AD00058B12048406DC0F30137B81CDFF87CC026
:100AE000BCFBF0F05043086002E01C485043086033
:100AF00002E01A48086000BF00BF16484068C0F313
:100B000003131848C45C0868E04048601148406816
:100B1000C0F302231448C45C4868E040C8600D4834
:100B20004068C0F3C2231148C45C4868E040886054
:100B300008484068C0F3007306484068C0F381303D
:100B400040EA83030A48C45C8868B0FBF4F008619B
:100B5000BDE8F08100100240006CDC0200127A0057
:100B600000093D00081500081815000820150008A8
:100B70002815000810B501460020094B03EB11426F
:100B8000126801F01F040123A3401A4001F01F0462
:100B90000123A3409A4200D000E0012010BD0000D4
:100BA000001002400349496D60F30D31014A51655F
:100BB000704700000010024030B50024002500E01E
:100BC000641C1120FFF7D6FF012802D0B4F5405F66
:100BD000F6D31120FFF7CEFF012801D0002500E059
:100BE0000125284630BD000010B501290DD10E4B5E
:100BF00003EB1042126800F01F040123A3401A43C4
:100C0000094C04EB10431A600CE0074B03EB104255
:100C1000126800F01F040123A3409A43024C04EB26
:100C200010431A6010BD00000010024010B568B9F2
:100C30001C4B5B6823F480331A4C636023461B6BA8
:100C400023F0007303F10073236317E0154B5B6817
:100C500023F4803303F58033124C6360012805D1FF
:100C600023465B6823F40033636007E00D4B5B6849
:100C700023F4003303F500330A4C6360094B5B68CF
:100C800061F39543074C63600C09064B5B6864F3A2
:100C90005E73044C636023465B6862F3DF736360DA
:100CA00010BD0000001002401348006820F0010051
:100CB000401C1149086000BF0F480068C0F34000A5
:100CC0000028F9D00C48406820F003000A49486029
:100CD00000BF09484068C0F381000028F9D10648E8
:100CE000006806490840044908600020486008631D
:100CF0004FF41F008860704700100240FFFFF2FEB3
:100D00000D49496860F301010B4A516000BF00BF03
:100D100000BF00BF00BF00BF00BF00BF00BF00BFDB
:100D200000BF00BF00BF00BF00BF00BF00BF00BFCB
:100D300000BF00BF7047000000100240024840683A
:100D4000C0F38100704700000010024010B504207D
:100D500000F030FB074800680749B0FBF1F0074995
:100D60000860084600684FF47A71484304490860F7
:100D700010BD00003800002040420F002800002075
:100D80002C000020002131E032280ADD194A1268C7
:100D900032235A434FF0E0235A61A0F1320290B25D
:100DA00006E0144A126842434FF0E0235A610020E3
:100DB00000224FF0E0239A611A46126942F00102C4
:100DC0001A6100BF4FF0E022116901F001021AB16F
:100DD00001F48032002AF5D04FF0E022126922F0AF
:100DE00001024FF0E0231A6100229A610028CBD162
:100DF000704700002C00002030B50446002509E0B3
:100E00004FF4FA70FFF7BEFF4FF4FA70FFF7BAFF26
:100E1000681C85B2A542F3DB30BD026861F30002B5
:100E20000260704700B585B001214FF4A010FFF7B4
:100E3000DBFE154800F068F8684600F02BF8032048
:100E4000ADF80A000020ADF808001048019001201C
:100E50008DF80F008DF80D000D48009001208DF8E1
:100E60000E0000208DF80C0002208DF811000120EA
:100E70008DF810006946044800F018F80121024876
:100E8000FFF7CBFF05B000BD0800024000000020C6
:100E90004C240140002101604160018141810173C6
:100EA00041738173C17301744174704702684BF6DA
:100EB000EF731A40026002680B891A4302604B7C90
:100EC000026863F30D320260CB7B026863F38B220E
:100ED00002608B7B026863F3092202604B7B02682D
:100EE00063F3C71202600B7B026863F38612026031
:100EF0000B7C026863F3451202604A8942600A680B
:100F000082604A68C26070470021026822F00102D4
:100F100002600022026042608260C260014640F2CC
:100F2000FF420A40B2F5816F0DD2CAB2083A1423CB
:100F3000B2FBF3F293000F229A400D4B5B681A4309
:100F40000B4B5A6012E040F2FF420A40B2F5916F3B
:100F50000CD2CAB2083A1423B2FBF3F293000F2268
:100F60009A40044B1B681A43024B1A6070470000FA
:100F7000000002400404024070B504460D4600BF64
:100F80008021094800F069FA0028F9D0A1B206488A
:100F900000F05AFA00BF4021034800F05EFA002832
:100FA000F9D0204670BD0000003801401CB5012179
:100FB0000748FFF719FE684600F00EF803208DF889
:100FC0000600702000906946024800F010F81CBD31
:100FD00002001800000801404FF6FF710160002177
:100FE00081710171042141710121C1717047F0B516
:100FF0000A461588ABB29579032D01D100241AE079
:10100000957965B9557905F00F045579182D01D1F9
:10101000036110E05579282D0DD143610BE09579DE
:1010200005F00805167906F004063543D67906F072
:10103000030645EA0604DDB2A5B1002110E0012552
:101040008D401D405DB105688F000F26BE40B54341
:10105000056005688E0004FA06F635430560491CF4
:101060000829ECD3FF2B15DD1B12002110E0012510
:101070008D401D405DB145688F000F26BE40B543D1
:10108000456045688E0004FA06F635434560491C04
:101090000829ECD3F0BD000008B500200090032023
:1010A00000F0C0F800F0D2F8FFF7CFFB0020FFF708
:1010B0002BFC0120FFF728FC0220FFF725FC4FF452
:1010C000E13000F08BF9FFF771FFFFF7ABFEFFF7A0
:1010D0009DFA0DA0FFF7CCF815E00020FFF728FCE3
:1010E0000120FFF789FE0E480088012807D1002063
:1010F0000B4908800B4841880BA0FFF7B9F8012184
:101100001548FFF77FFBE8E7766F6C746167655FF2
:101110006D6F6E69746F72696E67200D0A00000052
:1011200006000020000000206F7574206F6620729A
:10113000616E67653A616463315F6368616E6E65B5
:101140006C5F352076616C7565206973203D2025C4
:1011500078210D0A00000000002401402DE9F0472D
:101160000B4614464FF0000C00BF2C4A1268C2F325
:1011700002211D4626460A46C2F10709B9F1040FAD
:1011800002D94FF0040901E0C2F10709C84602F193
:101190000409B9F1070F02D24FF0000901E0A2F1F2
:1011A00003094F464FF0010909FA08F9A9F10109AD
:1011B00009EA050909FA07F94FF0010A0AFA07FADC
:1011C000AAF1010A0AEA060A49EA0A09CC460146D6
:1011D0006246002904DB15072E0E114D6E5407E000
:1011E00015072F0E0D4D0C3501F00F06361FAF55AC
:1011F00000BF014600290DDB00BF00BF01F01F0545
:101200000122AA404D09AD0005F1E025C5F80021F5
:1012100000BF00BF00BFBDE8F08700000CED00E09C
:1012200000E400E000BF00F00702064B19684FF62B
:10123000FF031940044B0B4343EA0221014B1960A1
:1012400000BF70470CED00E00000FA0510B5FFF795
:101250002BFD01210846FFF7C7FB00BFFFF7ACFCE1
:101260000028FBD0012231210220FFF7DFFC002003
:10127000FFF798FC01210220FFF7B6FB00BF192001
:10128000FFF778FC0128FAD10020FFF77BFB042050
:10129000FFF78CFB0420FFF77FFB0120FFF790FB9B
:1012A0000220FFF72DFD00BFFFF748FD0228FBD10C
:1012B0000020FFF785FB00F001F810BD2DE9F04795
:1012C0000026002400250027A046A146FFF736FD92
:1012D0008246BAF1000F06D0BAF1010F15D0BAF16B
:1012E000020F46D115E02D48406DC0F3402040B1BB
:1012F0002A48006BC0F3406018B1294829490860AA
:1013000002E029482749086037E027482549086056
:1013100033E022484068C0F3004720484068C0F3EB
:1013200083441E484068C0F341750DB90F2C03D1AA
:101330002801401C044400E0A41C27B91B4860435A
:101340001849086014E015484068C0F3404058B19F
:101350001248406DC0F30136B01C1349B1FBF0F0E8
:1013600060431049086003E00F4860430D4908607E
:1013700003E00D480B49086000BF00BF0748406804
:10138000C0F303180A4810F808900648006820FACD
:1013900009F004490860BDE8F08700000010024031
:1013A000006CDC023800002000127A0000093D00C9
:1013B00030150008042808D14FF0E021096941F0F8
:1013C00004014FF0E022116107E04FF0E0210969CC
:1013D00021F004014FF0E022116170471CB5044672
:1013E00001211648FFF700FC012114480C38FFF7D3
:1013F000FBFB6846FFF7F0FD01208DF80700002099
:101400008DF8040008208DF806008001009004206B
:101410008DF8050069460A48FFF7E9FD00231A46E2
:101420002146084800F022F80121064800F062F841
:101430000121044800F00CF81CBD00000E0018004B
:101440000008014000380140C1F3080242607047C3
:10145000C26861F34D32C2607047024610680840AE
:1014600008B1012070470020FCE700002DE9F0439F
:1014700085B004460F46904699466846FFF7E4FA61
:101480001848844208D01848844205D0174884423E
:1014900002D01748844201D1029E00E0039E06EB71
:1014A00086004000B0FBF7F50A20B5FBF0F100FB29
:1014B0001150052803D20A20B5FBF0F503E00A20FD
:1014C000B5FBF0F0451CA06865F30F00A060E06874
:1014D00068F30C30E060206969F30D30206105B0DD
:1014E000BDE8F08300380140006001400064014025
:1014F00000680140C26861F3C302C26070474FF0E8
:101500004070E1EE100A704700000000000000008B
:101510000102030406070809000000000102030499
:10152000000000000102030402040608020C081077
:101530000000000000000000010203040607080983
:1015400030313233343536373839414243444546F9
:1015500040305800303132333435363738396162F3
:10156000636465664030780088150008000000203C
:101570003C000000C0010008C41500083C00002029
:1015800064060000DC01000800000000000000000C
:1015900000140140001401400014014000200040EC
:1015A0000080000005001800050018000500180064
:1015B000000000000000000000000000010000002A
:0415C00000127A009B
:040000050800018569
:00000001FF
