:020000040800F2
:1000000030620020ED020008BD050008F70200087C
:10001000B905000881050008650600080000000019
:100020000000000000000000000000002D02000899
:10003000850500080000000089020008C1050008CD
:100040000703000807030008070300080703000868
:100050000703000807030008070300080703000858
:100060000703000807030008070300080703000848
:100070000703000807030008070300080703000838
:100080000703000807030008070300080703000828
:100090000703000807030008070300080703000818
:1000A0000703000807030008070300080703000808
:1000B00007030008070300080703000807030008F8
:1000C00007030008070300080703000807030008E8
:1000D00007030008070300080703000807030008D8
:1000E00007030008070300080703000807030008C8
:1000F00007030008070300080703000807030008B8
:1001000007030008070300080703000807030008A7
:100110000703000807030008070300080703000897
:100120000703000807030008070300080703000887
:100130000703000807030008070300080703000877
:1001400000000000000000000000000000000000AF
:100150000703000807030008070300080703000857
:100160000703000807030008070300080703000847
:100170000703000807030008070300080703000837
:100180000703000800F002F800F041F80AA090E828
:10019000000C82448344AAF10107DA4501D100F042
:1001A00036F8AFF2090EBAE80F0013F0010F18BFCE
:1001B000FB1A43F001031847CC240000EC24000094
:1001C000103A24BF78C878C1FAD8520724BF30C883
:1001D00030C144BF04680C60704700000023002455
:1001E00000250026103A28BF78C1FBD8520728BF47
:1001F00030C148BF0B607047702900F0D9800020E3
:1002000070471FB502F03CF91FBD10B510BD00F0DE
:1002100089F91146FFF7F5FF00F0DCFF00F0A7F9C0
:1002200003B4FFF7F2FF03BC00F01EFA2C4B196871
:100230000868B0E8F04F80F30988BFF36F8F4FF084
:10024000000080F311887047000000000848006833
:10025000006880F308884FF0000080F3148862B6CD
:1002600061B6BFF34F8FBFF36F8F00DF00BF00BFDA
:1002700008ED00E0DFF80C00016841F47001016056
:10028000704700BF88ED00E0EFF30980BFF36F8F88
:10029000134B1A681EF0100F08BF20ED108A20E9DA
:1002A000F04F106009B44FF0100080F31188BFF3D5
:1002B0004F8FBFF36F8F01F093FE4FF0000080F37C
:1002C000118809BC19680868B0E8F04F1EF0100FDB
:1002D00008BFB0EC108A80F30988BFF36F8F7047B6
:1002E00048000020EFF30580704700000948804770
:1002F00009480047FEE7FEE7FEE7FEE7FEE7FEE708
:10030000FEE7FEE7FEE7FEE704480549054A064B1F
:1003100070470000F5050008850100083022002024
:100320003062002030420020304200207047000040
:100330000FB4044910B503AA029800F0C1F810BC2C
:100340005DF814FB3C0000202DE9F0410E46044608
:10035000002020622046E168884730B3252805D078
:10036000D4E901219047206A401CF2E7E168204669
:1003700000278847050018D0A5F14100192802D8A8
:1003800020354FF400673246294620462760FFF7A4
:1003900033FF40B1012804D0F61D26F007060836C9
:1003A000D8E7361DD6E72846DAE7206ABDE8F081AF
:1003B000F0B4136802680824C4610C4642F02002BD
:1003C0000260110502D50E4A7A4402E00C4A7A44D2
:1003D0000E32002100F1240505E003F00F061B0991
:1003E000965D6E54491C002BF7D105782D0703D577
:1003F000702C01D101231032F0BC00F007B80000CE
:10040000F620000070477047704770472DE9F047AD
:100410000D4699469246044600F124080168880674
:1004200004D5E06921F01001216000E00120A8421C
:1004300001DD471B00E00027A1697A1902EB0900E2
:10044000081AA0612078C00602D42046AFF30080CD
:10045000002608E0D4E901211AF806009047206A36
:10046000401C761C20624E45F4DB2078C0060AD57D
:100470002046AFF3008006E0D4E901213020904708
:10048000206A401C2062381EA7F10107F4DC07E057
:10049000D4E9012118F805009047206A401C206229
:1004A000281EA5F10105F3DC2046AFF3008020787B
:1004B000000602D50220BDE8F0870120FBE700001E
:1004C000074B70B50D467B4400F011F804462846F2
:1004D00000F020F810B14FF0FF3070BD204670BD25
:1004E000BB06000001694A1C02610878704700B52C
:1004F0008FB0CDE901310021059105497944CDE95D
:10050000031011466846FFF71FFF0FB000BD000043
:10051000E5FFFFFF007B00F0800070470048704758
:10052000CC2100207546FFF7F9FFAE46050069466D
:10053000534620F00700854618B020B5FFF7E4FECB
:10054000BDE820404FF000064FF000074FF00008D4
:100550004FF0000B21F00701AC46ACE8C009ACE855
:10056000C009ACE8C009ACE8C0098D46704710B5B9
:100570000446AFF300802046BDE81040FFF750BEB0
:1005800000BFFEE7704700001CB5064801210023AC
:100590008022CDE9001004A1064801F01BFE01F005
:1005A000CFFC1CBD0000002073746172745F746125
:1005B000736B0000B918000800BFFEE77047000029
:1005C00010B500BF102080F31188BFF34F8FBFF329
:1005D0006F8F00BF01F02EFE18B14FF0805004491C
:1005E000086000BF002080F3118800BF10BD00002C
:1005F00004ED00E01848006840F4700016490860F7
:100600001648006820F00100401C1449086000BF33
:1006100012480068C0F340000028F9D00F48406835
:1006200020F003000D49486000BF0C484068C0F34B
:1006300081000028F9D109480068094908400749A4
:1006400008600020486008634FF41F008860C803FA
:10065000014980390860704788ED00E000100240D1
:10066000FFFFF2FE00BFFEE700BF704710B500F0CD
:100670006DFA002000F030F8012000F02DF8022083
:1006800000F02AF8002000F04FF8012000F04CF8AC
:10069000022000F049F800F001F810BD1CB501215E
:1006A0000B4800F0A1F9684600F086FA01208DF8A9
:1006B000070000208DF804008DF80600012000904E
:1006C00028208DF805006946024800F080FA1CBD1C
:1006D00002001800000801401CB504460F4951F8FB
:1006E0002400012100F080F9684600F065FA01203D
:1006F0008DF8070000208DF8040010208DF806000A
:10070000074830F81400009004208DF805000549D2
:1007100051F82400694600F05AFA1CBD2800002058
:100720002000002014000020022800DD7047064948
:1007300031F8101031B1044931F81010034A52F861
:100740002020116100BFF1E72000002014000020EC
:10075000022800DD7047094931F8101059B10849E5
:1007600051F82010C968054A32F810205140044A57
:1007700052F82020D16000BFECE7000020000020EC
:10078000140000200349496860F30711014A5160D1
:1007900070470000001002400349496860F30A21D5
:1007A000014A516070470000001002400349496847
:1007B00060F3CD21014A51607047000000100240F3
:1007C000012807D10749496D21F030013031054A30
:1007D000516505E00349496D21F03001014A516539
:1007E0007047000000100240052827D2DFE800F023
:1007F000030A11181F00134A126861F30002114B1B
:100800001A601CE00F4A126861F310420D4B1A6027
:1008100015E00C4A126861F318620A4B1A600EE088
:10082000084A126A61F30002064B1A6207E0054AA1
:10083000526A61F30002034B5A6200E000BF00BF3E
:1008400070470000001002402DE9F04101460027EA
:100850000022002590460023002400F06FF9064690
:1008600026B1012E12D0022E43D112E03948406D3C
:10087000C0F3402038B13748006BC0F3406010B17E
:100880003548086001E03548086035E033480860C5
:1008900032E030484068C0F300482E484068C0F35A
:1008A00083422C484068C0F341750DB90F2A03D12B
:1008B0002801401C024400E0921CB8F1000F03D153
:1008C00027485043086013E022484068C0F3404086
:1008D00058B12048406DC0F30137B81CDFF87CC028
:1008E000BCFBF0F05043086002E01C485043086035
:1008F00002E01A48086000BF00BF16484068C0F315
:1009000003131848C45C0868E04048601148406818
:10091000C0F302231448C45C4868E040C8600D4836
:100920004068C0F3C2231148C45C4868E040886056
:1009300008484068C0F3007306484068C0F381303F
:1009400040EA83030A48C45C8868B0FBF4F008619D
:10095000BDE8F08100100240006CDC0200127A0059
:1009600000093D009A240008AA240008B2240008C7
:10097000BA24000810B501460020094B03EB1142D0
:10098000126801F01F040123A3401A4001F01F0464
:100990000123A3409A4200D000E0012010BD0000D6
:1009A000001002400349496D60F30D31014A516561
:1009B000704700000010024030B50024002500E020
:1009C000641C1120FFF7D6FF012802D0B4F5405F68
:1009D000F6D31120FFF7CEFF012801D0002500E05B
:1009E0000125284630BD000010B501290DD10E4B60
:1009F00003EB1042126800F01F040123A3401A43C6
:100A0000094C04EB10431A600CE0074B03EB104257
:100A1000126800F01F040123A3409A43024C04EB28
:100A200010431A6010BD00000010024010B568B9F4
:100A30001C4B5B6823F480331A4C636023461B6BAA
:100A400023F0007303F10073236317E0154B5B6819
:100A500023F4803303F58033124C6360012805D101
:100A600023465B6823F40033636007E00D4B5B684B
:100A700023F4003303F500330A4C6360094B5B68D1
:100A800061F39543074C63600C09064B5B6864F3A4
:100A90005E73044C636023465B6862F3DF736360DC
:100AA00010BD0000001002401348006820F0010053
:100AB000401C1149086000BF0F480068C0F34000A7
:100AC0000028F9D00C48406820F003000A4948602B
:100AD00000BF09484068C0F381000028F9D10648EA
:100AE000006806490840044908600020486008631F
:100AF0004FF41F008860704700100240FFFFF2FEB5
:100B00000D49496860F301010B4A516000BF00BF05
:100B100000BF00BF00BF00BF00BF00BF00BF00BFDD
:100B200000BF00BF00BF00BF00BF00BF00BF00BFCD
:100B300000BF00BF7047000000100240024840683C
:100B4000C0F38100704700000010024010B504207F
:100B500000F0B0FF074800680749B0FBF1F0074913
:100B60000860084600684FF47A71484304490860F9
:100B700010BD00004400002040420F00340000205F
:100B80003800002070B504460D4600BF802109489A
:100B900000F0E3FF0028F9D0A1B2064800F0D4FF2E
:100BA00000BF4021034800F0D8FF0028F9D02046BC
:100BB00070BD0000003801404FF6FF710160002158
:100BC00081710171042141710121C1717047F0B53A
:100BD0000A461588ABB29579032D01D100241AE09D
:100BE000957965B9557905F00F045579182D01D11E
:100BF000036110E05579282D0DD143610BE0957903
:100C000005F00805167906F004063543D67906F096
:100C1000030645EA0604DDB2A5B1002110E0012576
:100C20008D401D405DB105688F000F26BE40B54365
:100C3000056005688E0004FA06F635430560491C18
:100C40000829ECD3FF2B15DD1B12002110E0012534
:100C50008D401D405DB145688F000F26BE40B543F5
:100C6000456045688E0004FA06F635434560491C28
:100C70000829ECD3F0BD000009E005A0FFF758FB00
:100C80000020FFF765FD4FF4FA7001F0B1F8F4E7CA
:100C90006C6564317461736B2069732052756E6E7C
:100CA000696E672E2E2E0D0A0000000008E005A0D8
:100CB000FFF73EFB0120FFF74BFD642001F098F8A1
:100CC000F5E700006C6564327461736B2069732012
:100CD00052756E6E696E672E2E2E200D0A00000072
:100CE000924800F0A0FF924800F0AAFF914800F05F
:100CF000A7FF914800F0A4FF28208D4908603C2000
:100D00008C49086032208C4908608CA0FFF710FBEA
:100D10009AA0FFF70DFB85499CA0FFF709FB8348CC
:100D200041689FA0FFF704FB80490831A3A0FFF7AB
:100D3000FFFA7F49A8A0FFF7FBFA7E49ABA0FFF7B7
:100D4000F7FA7D49AEA0FFF7F3FAB2A0FFF7F0FA89
:100D5000C048FFF7EDFA7649744800F074FFBEA072
:100D6000FFF7E6FA7148C168BFA0FFF7E1FA7048E3
:100D70004168C6A0FFF7DCFA6C480169CAA0FFF71A
:100D8000D7FA6B488168D2A0FFF7D2FAA1A0FFF78B
:100D9000CFFAD748FFF7CCFA6649644800F053FF12
:100DA000ADA0FFF7C5FA6148C168AFA0FFF7C0FA70
:100DB0005F484168B5A0FFF7BBFA5E484168CDA027
:100DC000FFF7B6FA59480169B7A0FFF7B1FA5848DA
:100DD0008168BFA0FFF7ACFA56488168CCA0FFF746
:100DE000A7FA8CA0FFF7A4FAD148FFF7A1FA52495D
:100DF0004E4800F028FF98A0FFF79AFA4B48C168C8
:100E000099A0FFF795FA4A484168A0A0FFF790FA29
:100E100048484168B7A0FFF78BFA47484168C5A02A
:100E2000FFF786FA414801699FA0FFF781FA404821
:100E30008168A7A0FFF77CFA3E488168B4A0FFF75D
:100E400077FA3D488168C2A0FFF772FA71A0FFF7F8
:100E50006FFAC748FFF76CFA364800F0D0FE7EA064
:100E6000FFF766FA3148C1687FA0FFF761FA3048A2
:100E7000416886A0FFF75CFA2F484168ADA0FFF7F4
:100E800057FA2A48016988A0FFF752FA2848816872
:100E90008FA0FFF74DFA28488168ADA0FFF748FA08
:100EA0005CA0FFF745FAB348FFF742FA20481F4914
:100EB000486020491D4800F0E0FE67A0FFF738FABF
:100EC0001A484168ACA0FFF733FA1848C16866A019
:100ED000FFF72EFA164841686CA0FFF729FA15486B
:100EE000416884A0FFF724FA1348416891A0FFF7F6
:100EF0001FFA0E4801696CA0FFF71AFA0C488168C6
:100F000073A0FFF715FA0B48816881A0FFF710FA6C
:100F1000094881688EA0FFF70BFA9EA0FFF708FA38
:100F200003E04FF47A7000F063FFFAE7B4000020AA
:100F3000C8000020DC000020F00000202F2A2A2A10
:100F40002A2A2A2A2A2A2A2A2A2A2AB5DAB6FEB2DE
:100F5000BDA3BAB4F2D3A1C1D0B1EDBACDC1D0B165
:100F6000EDCFEEB5C4B5D8D6B72A2A2A2A2A2A2A1E
:100F70002A2A2A2A2A2A2A2F0D0A0000CFEEC4BFC5
:100F8000090909B5D8D6B70D0A0000005465737475
:100F90004C697374090930782570090D0A00000046
:100FA000546573744C6973742D3E7078496E646532
:100FB000780930782570090D0A00000054657374B3
:100FC0004C6973742D3E784C697374456E640930B6
:100FD000782570090D0A00004C6973744974656DB9
:100FE00031090930782570090D0A00004C697374C5
:100FF0004974656D32090930782570090D0A0000C1
:101000004C6973744974656D33090930782570092A
:101010000D0A00002F2A2A2A2A2A2A2A2A2A2A2ABC
:101020002A2A2A2A2A2A2A2A2A2A2A2A2A2A2ABD8D
:10103000E1CAF82A2A2A2A2A2A2A2A2A2A2A2A2AEB
:101040002A2A2A2A2A2A2A2A2A2A2A2A2A2A2F0D18
:101050000A00000074250008CFEEC4BF0909090981
:10106000B5D8D6B70D0A0000546573744C69737413
:101070002D3E784C697374456E642D3E70784E65D4
:10108000787409307825700D0A0000004C6973747B
:101090004974656D312D3E70784E6578740909305C
:1010A0007825700D0A000000546573744C697374E0
:1010B0002D3E784C697374456E642D3E7078507285
:1010C0006576696F757309307825700D0A00000028
:1010D0004C6973744974656D312D3E70785072653A
:1010E00076696F75730909307825700D0A00000064
:1010F000B82500084C6973744974656D322D3E70D3
:10110000784E6578740909307825700D0A00000062
:101110004C6973744974656D322D3E7078507265F8
:1011200076696F75730909307825700D0A00000023
:10113000FC2500084C6973744974656D332D3E704D
:10114000784E6578740909307825700D0A00000022
:101150004C6973744974656D332D3E7078507265B7
:1011600076696F75730909307825700D0A000000E3
:101170003025000840260008546573744C69737468
:101180002D3E7078496E6465780909307825700DB8
:101190000A0000002F2A2A2A2A2A2A2A2A2A2A2A48
:1011A0002A2A2A2A2A2A2A2A2A2A2A2A2ACAB5D1CD
:1011B000E9BDE1CAF82A2A2A2A2A2A2A2A2A2A2A18
:1011C0002A2A2A2A2A2A2A2A2A2A2A2A2A2A2A2A7F
:1011D0002F0D0A0000F0BAFBFFF748FA4FF4E13098
:1011E00000F07CFC0AA0FFF7A3F80FA0FFF7A0F81F
:1011F00018A0FFF79DF821A0FFF79AF82AA0FFF7A3
:1012000097F83748FFF794F8FFF7BEF900BFFEE7FD
:1012100048617264776172655F496E6974205B6FC3
:101220006B5D200D0A00000061745F73746172745D
:101230005F613430336120626F6172642074657362
:1012400074696E6720323032342D30332D30330DD7
:101250000A00000061745F73746172745F613430FE
:10126000336120626F6172642072746F732D6672D5
:10127000656572746F73200D0A0000006672656503
:1012800072746F73205461736B206372656174694B
:101290006F6E202864796E616D696329205B6F6BC6
:1012A0005D200D0A000000006672656572746F7340
:1012B000205461736B206372656174696F6E2028BE
:1012C00064796E616D69632920616E642064656C68
:1012D0006574696F6E20205B6F6B5D200D0A0000E6
:1012E000EC2400082DE9F04105460E461C4807682D
:1012F0001C480068001D00F082FC50B919480068C5
:1013000090F82C100120884017490968814316483D
:101310000160681C38B936B112480168091D1348CC
:1013200000F0ABFC1AE07C190E4800684460BC4237
:1013300007D20C480168091D0D48006800F083FCC5
:101340000CE008480168091D0A48006800F07BFCB1
:1013500009480068844201D207480460BDE8F08172
:101360005C0000204800002060000020B801002040
:10137000500000204C0000207800002010B50446EA
:1013800000F088FC23480068401C2249086022487D
:10139000006840B9204804600846006801280DD163
:1013A00000F01EF90AE01D48006838B91A480068C4
:1013B000C06AE16A884201D817480460184800688A
:1013C000401C1749086094F82C10012088401549EA
:1013D0000968084313490860E16A01EB8101124A78
:1013E00002EB8100211D00F048FC00F07DFC0B4861
:1013F000006868B108480068C06AE16A884207D29C
:101400004FF0805009490860BFF34F8FBFF36F8FD3
:1014100010BD00005800002048000020640000209B
:1014200074000020600000200401002004ED00E0B2
:1014300010B516E000F02EFC0C48C068C468201DF2
:1014400000F0DDFB0A480068401E094908600948B1
:101450000068401E0749086000F046FC204600F086
:101460000BF8044800680028E4D110BDA401002056
:10147000580000205400002010B50446206B00F0F6
:1014800051FC204600F04EFC10BD000030B54FF47A
:101490000053174800F007042CB1C01D20F00700CE
:1014A000134C041B1B1B0246124C22600024114DDE
:1014B0006C60D018083820F007000F4C2060002422
:1014C0000D4D2D686C600C4D2D682C601146441A32
:1014D0004C60094C24680C60084D4C682C60084D29
:1014E0004C682C604FF00044064D2C6030BD00006D
:1014F000CC010020880000209000002098000020EF
:1015000094000020A400002000BFFFF791FF0648D0
:1015100000680128F9D94FF0805004490860BFF3F2
:101520004F8FBFF36F8FF0E70401002004ED00E060
:101530002DE9FF5F81460E469246DDE90E7B109C49
:10154000AAF10100216B01EB800828F0070808F0E0
:10155000070008B9012000E0002050B900BF1020AA
:1015600080F31188BFF34F8FBFF36F8F00BF00BFB1
:10157000FEE786B1002507E0715D04F134004155B6
:10158000705D00B902E06D1C102DF5D300BF002185
:101590004320015502E0002084F83400052F00D3D9
:1015A0000427E762201D00F04BFB04F1180000F057
:1015B00047FB2461C7F10500A061646200206064FC
:1015C00084F8480049464046039A00F05FF92060DD
:1015D000BBF1000F01D0CBF80040BDE8FF9F000039
:1015E00010B5002407E004EB84010F4A02EB8100F0
:1015F00000F019FB641C052CF5D30C4800F013FB1C
:101600000B4800F010FB0B4800F00DFB0A4800F0FF
:101610000AFB0A4800F007FB04480949086004482F
:101620000849086010BD0000040100206801002086
:101630007C01002090010020A4010020B8010020BE
:101640004C0000205000002010B50146164800E074
:10165000006803688B42FBD30246436813448B4205
:1016600004D143684C682344436001460A464B68F2
:1016700013440468A34211D10C4C03682468A342AC
:1016800008D04B680468646823444B6003681B6897
:101690000B6005E0054B1B680B6001E003680B6005
:1016A000884200D0016010BD88000020900000201A
:1016B00009480068006808B9012000E0002020B156
:1016C0004FF0FF300549086005E003480068C06836
:1016D00000680249086070474C0000207800002034
:1016E0000E480068401C08B9012000E0002050B9F5
:1016F00000BF102080F31188BFF34F8FBFF36F8FAF
:1017000000BF00BFFEE700BF102080F31188BFF3C9
:101710004F8FBFF36F8F00BF00BFFEE7A800002010
:101720002DE9F04104464FF0000800F051FC51480B
:10173000006808B9FFF7AAFE4F480068204000285B
:101740007ED13CB304F10800A04223D9083404F050
:10175000070000B304F00700C0F108002044A042D5
:1017600016D904F00700C0F10800044404F0070093
:1017700008B9012000E0002068B900BF102080F304
:101780001188BFF34F8FBFF36F8F00BF00BFFEE71D
:10179000002400E00024002C54D038480068844223
:1017A00050D8374E3046056801E02E462D686868EF
:1017B000A04202D228680028F7D12E48006885424E
:1017C00040D0306800F10808286830606868001B65
:1017D000102819D92F1907F0070008B9012000E0D7
:1017E000002050B900BF102080F31188BFF34F8F45
:1017F000BFF36F8F00BF00BFFEE76868001B786013
:101800006C603846FFF720FF1C4968680968081AB1
:101810001A490860084600681A490968884203D2D4
:101820001648006817490860134968680968084342
:1018300068600020286014480068401C124900E0DD
:1018400000E0086000F09AFD08F0070008B90120E8
:1018500000E0002050B900BF102080F31188BFF3D2
:101860004F8FBFF36F8F00BF00BFFEE74046BDE85C
:10187000F081000090000020A400002094000020CF
:1018800088000020980000209C000020001F4FF0DE
:1018900080730360001F21F001030360001F054BEC
:1018A000036014380260001F6FF0020303602038E9
:1018B00070470000E11600081CB5044600F0EAF984
:1018C0001248022100238022CDE9001010A1134804
:1018D00000F080FC1248032100238022CDE9001093
:1018E00010A1134800F076FC124805210023802245
:1018F000CDE9001010A1134800F06CFC12480068FC
:1019000000F0A4FA00F0F0F91CBD00000400002073
:101910006C6564315F7461736B000000790C0008C2
:10192000080000206C6564325F7461736B00000016
:10193000AD0C0008100000206C6973745F74617353
:101940006B000000E10C00080000002010B5FFF75C
:10195000ABF801210846FEF747FF00BFFFF72CF860
:101960000028FBD0012231210220FFF75FF8002080
:10197000FFF718F801210220FEF736FF00BF1920FB
:10198000FEF7F8FF0128FAD10020FEF7FBFE042045
:10199000FEF70CFF0420FEF7FFFE0120FEF710FF0C
:1019A0000220FFF7ADF800BFFFF7C8F80228FBD10F
:1019B0000020FEF705FF00F001F810BD2DE9F0470B
:1019C0000026002400250027A046A146FFF7B6F810
:1019D0008246BAF1000F06D0BAF1010F15D0BAF164
:1019E000020F46D115E02D48406DC0F3402040B1B4
:1019F0002A48006BC0F3406018B1294829490860A3
:101A000002E029482749086037E02748254908604F
:101A100033E022484068C0F3004720484068C0F3E4
:101A200083441E484068C0F341750DB90F2C03D1A3
:101A30002801401C044400E0A41C27B91B48604353
:101A40001849086014E015484068C0F3404058B198
:101A50001248406DC0F30136B01C1349B1FBF0F0E1
:101A600060431049086003E00F4860430D49086077
:101A700003E00D480B49086000BF00BF07484068FD
:101A8000C0F303180A4810F808900648006820FAC6
:101A900009F004490860BDE8F0870000001002402A
:101AA000006CDC024400002000127A0000093D00B6
:101AB0008A240008042808D14FF0E021096941F088
:101AC00004014FF0E022116107E04FF0E0210969C5
:101AD00021F004014FF0E022116170471CB504466B
:101AE00001211648FEF780FF012114480C38FEF74B
:101AF0007BFF6846FFF760F801208DF807000020A3
:101B00008DF8040008208DF8060080010090042064
:101B10008DF8050069460A48FFF759F800231A4670
:101B20002146084800F022F80121064800F062F83A
:101B30000121044800F00CF81CBD00000E00180044
:101B40000008014000380140C1F3080242607047BC
:101B5000C26861F34D32C2607047024610680840A7
:101B600008B1012070470020FCE700002DE9F04398
:101B700085B004460F46904699466846FEF764FED7
:101B80001848844208D01848844205D01748844237
:101B900002D01748844201D1029E00E0039E06EB6A
:101BA00086004000B0FBF7F50A20B5FBF0F100FB22
:101BB0001150052803D20A20B5FBF0F503E00A20F6
:101BC000B5FBF0F0451CA06865F30F00A060E0686D
:101BD00068F30C30E060206969F30D30206105B0D6
:101BE000BDE8F0830038014000600140006401401E
:101BF00000680140C26861F3C302C26070470146D9
:101C00000A69D1E901309860D1E901035860506850
:101C1000884201D188685060002008611068401E29
:101C200010601068704700F1080141604FF0FF310B
:101C3000816000F10801C16001610021016070470D
:101C400000210161704710B502460B685C1C0CB99D
:101C5000106907E002F1080000E040684468246869
:101C60009C42FAD944684C604C68A160886041602D
:101C70000A611468641C146010BD42684A6093686D
:101C80008B60936859609160086103685B1C036016
:101C90007047000000BF102080F31188BFF34F8F02
:101CA000BFF36F8F00BF0E480068401C0C490860EE
:101CB00008460068012812D10A480068C0B208B975
:101CC000012000E0002050B900BF102080F31188EF
:101CD000BFF34F8FBFF36F8F00BF00BFFEE77047AA
:101CE000A800002004ED00E00D48006850B900BFD6
:101CF000102080F31188BFF34F8FBFF36F8F00BFA9
:101D000000BFFEE706480068401E05490860084617
:101D1000006820B9002080F3118800BF00BF704721
:101D2000A800002070B506463546002E44D0083D78
:101D30002C46224960680968084008B1012000E08B
:101D4000002050B900BF102080F31188BFF34F8FDF
:101D5000BFF36F8F00BF00BFFEE7206808B9012006
:101D600000E0002050B900BF102080F31188BFF3BD
:101D70004F8FBFF36F8F00BF00BFFEE70F49606852
:101D800009680840C0B12068B0B90C4960680968AA
:101D90008843606000F01CF90949606809680844DC
:101DA000074908602046FFF74FFC06480068401CC2
:101DB0000449086000F0E2FA70BD0000A4000020B1
:101DC00094000020A000002000204FF0E0210861D6
:101DD0008861064800684FF47A71B0FBF1F0401E4C
:101DE0004FF0E0214861072008617047440000205F
:101DF00070B504460025D4B11248006808B9012026
:101E000000E0002050B900BF102080F31188BFF31C
:101E10004F8FBFF36F8F00BF00BFFEE700F0D8F811
:101E200000212046FFF75EFA00F0A8FA05463DB90A
:101E30004FF0805004490860BFF34F8FBFF36F8F9E
:101E400070BD00008400002004ED00E070B5054680
:101E5000FFF720FF15B93048006800E02846044627
:101E6000201DFFF7CCFE78B9E06A00EB80002B491B
:101E700051F8200040B994F82C10012088402849DE
:101E80000968814326480160A06A18B104F118006E
:101E9000FFF7B5FE23480068401C224908601E4831
:101EA0000068844209D1211D1F48FFF7E6FE1F4844
:101EB0000068401C1D49086009E01D480068401E7C
:101EC0001B4908602046FFF7D7FAFFF7F1FBFFF741
:101ED0000BFF18480068E8B10F480068844219D128
:101EE0001548006808B9012000E0002050B900BF83
:101EF000102080F31188BFF34F8FBFF36F8F00BFA7
:101F000000BFFEE74FF080500C490860BFF34F8FD1
:101F1000BFF36F8F70BD0000480000200401002057
:101F20006000002074000020A40100205400002064
:101F300058000020640000208400002004ED00E030
:101F40001CB51B4800210B468022CDE9001019A1C9
:101F50001A4800F03FF90446012C15D100BF1020AB
:101F600080F31188BFF34F8FBFF36F8F00BF4FF027
:101F7000FF3013490860012012490860002012490F
:101F8000086000F073F810E0601C08B1012000E068
:101F9000002050B900BF102080F31188BFF34F8F8D
:101FA000BFF36F8F00BF00BFFEE7084800681CBD8D
:101FB0007C00002049444C45000000000915000841
:101FC00078000020640000205C00002080000020D9
:101FD00002480068401C01490860704784000020E6
:101FE0001D48006818B101201C49086032E000203B
:101FF0001A4908601A480068B0FA80F0C0F11F0161
:1020000001EB8100174A52F8200008B1012000E0DE
:10201000002050B900BF102080F31188BFF34F8F0C
:10202000BFF36F8F00BF00BFFEE701EB81020D4BD6
:1020300003EB820042685268426000F10802436884
:10204000934202D14268526842604268D268064BAD
:102050001A6000BF70470000840000206C00002060
:102060006000002004010020480000201CB55248F8
:1020700000685249884201D0012000E0002050B998
:1020800000BF102080F31188BFF34F8FBFF36F8F15
:1020900000BF00BFFEE7484800684849491E884223
:1020A00001D0012000E0002050B900BF102080F3D3
:1020B0001188BFF34F8FBFF36F8F00BF00BFFEE7E4
:1020C0003F49084600780190FF200A4610700846F4
:1020D000007800909DF8000000F0F0009DF80020CE
:1020E000904201D1012000E0002050B900BF102033
:1020F00080F31188BFF34F8FBFF36F8F00BF00BF16
:10210000FEE79DF8000000F010002E4A1070072036
:102110002D4A106009E02C480068401E2A4A1060D1
:102120009DF800004006000E00909DF8000000F0B1
:1021300080008028EFD024480068C0F10700042800
:1021400001D1012000E0002050B900BF102080F331
:102150001188BFF34F8FBFF36F8F00BF00BFFEE743
:10216000194800680002184A10601046008800F400
:10217000E0601060124A019810700F48203000682B
:1021800040F470000C49203108600846006840F0B7
:1021900070400860FFF718FE00200C490860FEF749
:1021A00069F80B48006840F0404009490860FEF7B4
:1021B0004DF800201CBD000000ED00E071C20F4191
:1021C00000E400E0AC000020B0000020A8000020E7
:1021D00034EF00E02DE9FF4F85B080468946174671
:1021E000DDE912ABB800FFF79BFA064656B14C206A
:1021F000FFF796FA04460CB1266304E03046FFF779
:1022000091FD00E000247CB10020CDE900ABCDE9D8
:1022100002403A4649464046089BFFF789F9204666
:10222000FFF7ACF8012501E04FF0FF35284609B073
:10223000BDE8F08F2DE9F0414FF0000844480068F8
:1022400000287CD143480068451C4248056015BB06
:1022500041480068006808B9012000E0002050B93A
:1022600000BF102080F31188BFF34F8FBFF36F8F33
:1022700000BF00BFFEE738480768384800683649A5
:1022800008603648076036480068401C34490860DA
:10229000FFF70EFA00BF3348006885423CD300BF09
:1022A0002D480068006808B9012000E0002020B136
:1022B0004FF0FF302B4908602DE027480068C068C8
:1022C000C4686668B54202D22648066023E0201D35
:1022D000FFF795FCA06A18B104F11800FFF78FFC16
:1022E00094F82C10012088401F49096808431E49B2
:1022F0000860E16A01EB81011C4A02EB8100211DAB
:10230000FFF7BBFC1A49E06A0968C96A8842C7D36B
:102310004FF00108C4E700BF15480068C06A00EB31
:102320008000124951F82000012801D94FF001081E
:102330001048006808B14FF0010805E0FFE70E48BB
:102340000068401C0C4908604046BDE8F081000070
:10235000840000205C0000204C0000205000002081
:1023600070000020780000206000002004010020A0
:10237000480000206C0000206800002070B5002498
:1023800000263648006850B900BF102080F311883D
:10239000BFF34F8FBFF36F8F00BF00BFFEE7FFF7A4
:1023A00079FC2E480068401E2C49086008460068E9
:1023B00000284FD12A48006800284BD024E0294843
:1023C000C068C46804F11800FFF719FC201DFFF76E
:1023D00016FC94F82C100120884023490968084312
:1023E00021490860E16A01EB8101204A02EB81008A
:1023F000211DFFF742FC1E49E06A0968C96A88424C
:1024000002D301201B4908601648006808B9012062
:1024100000E000200028D2D00CB1FFF749F916489F
:10242000056865B100BFFFF705FF10B10120114934
:1024300008606D1E002DF6D100200F4908600D4880
:10244000006838B1012630070C490860BFF34F8F90
:10245000BFF36F8FFFF748FC304670BD840000204B
:10246000580000209001002060000020040100209E
:10247000480000206C0000206800002004ED00E00F
:102480004FF04070E1EE100A7047000000000000BD
:102490000000010203040607080900000000000014
:1024A0000000010203040607080900000000010201
:1024B0000304000000000102030402040608020CE9
:1024C00008103031323334353637383941424344DD
:1024D000454640305800303132333435363738399C
:1024E0006162636465664030780000004C69737413
:1024F0007320616E64206C697374206974656D73F8
:102500002C20696E73657274696F6E20616E642031
:1025100064656C6574696F6E206F66206C69737496
:10252000206974656D205B6F6B5D200D0A000000F3
:102530000D0A2F2A2A2A2A2A2A2A2A2A2A2A2A2A33
:102540002A2A2A2A2A2AB5DAC1F9B2BD2D2DD2C6E5
:10255000B3FDC1D0B1EDCFEE322A2A2A2A2A2A2A87
:102560002A2A2A2A2A2A2A2A2A2A2A2A2A2F0D0A03
:10257000000000000D0A2F2A2A2A2A2A2A2A2A2A9B
:102580002A2A2A2A2A2A2A2AB5DAC8FDB2BD2D2DDE
:10259000C1D0B1EDCFEE31B2E5C8EBC1D0B1ED2A7B
:1025A0002A2A2A2A2A2A2A2A2A2A2A2A2A2A2A2A8B
:1025B0002A2F0D0A000000000D0A2F2A2A2A2A2A93
:1025C0002A2A2A2A2A2A2A2A2A2A2A2AB5DACBC4F5
:1025D000B2BD2D2DC1D0B1EDCFEE32B2E5C8EBC109
:1025E000D0B1ED2A2A2A2A2A2A2A2A2A2A2A2A2A5B
:1025F0002A2A2A2A2A2F0D0A000000000D0A2F2A53
:102600002A2A2A2A2A2A2A2A2A2A2A2A2A2A2A2A2A
:10261000B5DACEE5B2BD2D2DC1D0B1EDCFEE33B2DE
:10262000E5C8EBC1D0B1ED2A2A2A2A2A2A2A2A2A69
:102630002A2A2A2A2A2A2A2A2A2F0D0A00000000DA
:102640000D0A2F2A2A2A2A2A2A2A2A2A2A2A2A2A22
:102650002A2A2AB5DAC6DFB2BD2D2DC1D0B1EDC40C
:10266000A9CEB2CCEDBCD3C1D0B1EDCFEE322A2A87
:102670002A2A2A2A2A2A2A2A2A2A2A2A2A2A2F0DD2
:102680000A000000A426000800000020B40000009A
:10269000C001000858270008B40000207C61000039
:1026A000DC01000800000000000000000000000045
:1026B0000000000000000000001401400014014070
:1026C00000140140002000400080000005001800B8
:1026D00005001800050018000000000000000000C0
:1026E000000000000100000000127A00000000005D
:1026F00000000000000000000000000000000000DA
:1027000000000000000000000000000000000000C9
:1027100000000000000000000000000000000000B9
:1027200000000000040000000000000000000000A5
:102730000000000000000000000000000000000099
:10274000000000000000000000000000AAAAAAAAE1
:08275000000000000000000081
:040000050800018569
:00000001FF
