:020000040800F2
:100000003819012065020008290D00087306000850
:10001000250D0008550600080D0E00080000000020
:10002000000000000000000000000000790D000842
:1000300059060008000000002B0D00087B0D000889
:100040007F0200087F0200087F0200087F0200088C
:100050007F0200087F0200087F0200087F0200087C
:100060007F0200087F0200087F0200087F0200086C
:100070007F0200087F0200087F0200087F0200085C
:100080007F0200087F0200087F0200087F0200084C
:100090007F0200087F0200087F0200087F0200083C
:1000A0007F020008ED0D00087F0200087F020008B3
:1000B0007F0200087F0200087F0200087F0200081C
:1000C0007F0200087F0200087F0200087F0200080C
:1000D0007F0200087F0200087F0200087F020008FC
:1000E0007F0200087F0200087F0200087F020008EC
:1000F0007F0200087F0200087F0200087F020008DC
:100100007F0200087F0200087F0200087F020008CB
:100110007F0200087F0200087F0200087F020008BB
:100120007F0200087F0200087F0200087F020008AB
:100130007F0200087F0200087F0200087F0200089B
:1001400000000000000000000000000000000000AF
:100150007F0200087F0200087F0200087F0200087B
:100160007F0200087F0200087F0200087F0200086B
:100170007F0200087F0200087F0200087F0200085B
:100180007F02000800F002F800F05CF80AA090E896
:10019000000C82448344AAF10107DA4501D100F042
:1001A00051F8AFF2090EBAE80F0013F0010F18BFB3
:1001B000FB1A43F001031847202B0300402B0300D8
:1001C0000A444FF0000C10F8013B13F0070408BF7D
:1001D00010F8014B1D1108BF10F8015B641E05D01B
:1001E00010F8016B641E01F8016BF9D113F0080FD0
:1001F0001EBF10F8014BAD1C0C1B09D16D1E58BF62
:1002000001F801CBFAD505E014F8016B01F8016B98
:100210006D1EF9D59142D6D370470000002300240B
:1002200000250026103A28BF78C1FBD8520728BF06
:1002300030C148BF0B6070471FB52DF0C3FD1FBD17
:1002400010B510BD00F0C0F91146FFF7F5FF27F01B
:1002500081F900F0F2F903B4FFF7F2FF03BC02F0FA
:10026000ABF900000948804709480047FEE7FEE770
:10027000FEE7FEE7FEE7FEE7FEE7FEE7FEE7FEE756
:1002800004480549054A064B704700007D0D0008EB
:100290008501000838D900203819012038F90020DC
:1002A00038F90020704753EA020C00F069802DE90C
:1002B000F04B4FF00006002B1FBFB3FA83F503FA93
:1002C00005F424FA05F65E4012BF1643B2FA82F531
:1002D00002FA05F4C5F120051EBF22FA05FC44EA26
:1002E0000C04203556EA044C4FEA144418BF641C31
:1002F0004FF000084FF00009904271EB030C39D326
:10030000002919BFB1FA81F701FA07F6B0FA80F7B0
:1003100000FA07F6C7F120071EBF20FA07FC46EADD
:100320000C062037B6FBF4FCA7EB0507103F07F0DF
:100330001F0BCBF120060CFA0BFB2CFA06F644BF80
:10034000B3460026202FA4BF5E464FF0000B5BEAA9
:10035000060C08BF4FF0010B19EB0B09ABFB027C3D
:1003600048EB0608C01B06FB02CC0BFB03CC71EB71
:100370000C01C1E70B46024641464846BDE8F08BFA
:1003800013B54FF000004FF00001AFF30080BDE85F
:100390001C4070470FB4044910B503AA029800F03E
:1003A000E5F810BC5DF814FB2800002040EA0103CA
:1003B000024630B59B0710D14FF0013400E008C26F
:1003C00008C91D1B9D4315EAC41FF8D013F0FF0197
:1003D00002F8011B0DD01B0AF8E711F8013B002BB6
:1003E00002F8013B05D011F8013B002B02F8013B5C
:1003F000F3D130BD10B5431C02E010F8011B71B100
:100400008107FAD14FF0013202C88C1A8C4314EAEA
:10041000C211F9D0C01A0A0603D0C01E10BDC01AFE
:1004200010BD0A0401D0801E10BD0902FCD0401E80
:1004300010BD10B5203AC0F00B80B1E81850203A3A
:10044000A0E81850B1E81850A0E81850BFF4F5AF74
:100450005FEA027C24BFB1E81850A0E8185044BFFE
:1004600018C918C0BDE810405FEA827C24BF51F86B
:10047000043B40F8043B08BF7047D20728BF31F85F
:10048000023B48BF11F8012B28BF20F8023B48BFB0
:1004900000F8012B70474FF0000200B51346944658
:1004A0009646203922BFA0E80C50A0E80C50B1F1CC
:1004B0002001BFF4F7AF090728BFA0E80C5048BFE0
:1004C0000CC05DF804EB890028BF40F8042B08BF7E
:1004D000704748BF20F8022B11F0804F18BF00F87A
:1004E000012B70474FF0013C50F8042B51F8043BAE
:1004F0009A4221D1A2EB0C03934313EACC1317D1F8
:1005000050F8042B51F8043B9A4215D1A2EB0C038E
:10051000934313EACC130BD150F8042B51F8043B4E
:100520009A4209D1A2EB0C03934313EACC13DBD01C
:100530004FF00000704700BFD01A01BAB1FA81F144
:1005400001F0180122FA01F0CB40C1F12001DBB229
:10055000C0B2C01A2CFA01F3D11A914311EAC311A7
:10056000E6D170477047704770477047074B70B5CA
:100570000D467B4400F011F80446284600F020F8B0
:1005800010B14FF0FF3070BD204670BDEBE60000AB
:1005900001694A1C02610878704700B58FB0CDE947
:1005A00001310021059105497944CDE90310114637
:1005B000684600F02EF80FB000BD0000E5FFFFFF19
:1005C000007B00F080007047754600F03FF8AE46B3
:1005D00005006946534620F00700854618B020B54F
:1005E000FFF74EFEBDE820404FF000064FF0000739
:1005F0004FF000084FF0000B21F00701AC46ACE8CB
:10060000C009ACE8C009ACE8C009ACE8C0098D4637
:1006100070472DE9F04106460024D6E90170F568DF
:100620008046304603E04146B847641C3046A84740
:100630000028F8D12046BDE8F08110B50446AFF39C
:1006400000802046BDE81040FFF705BE0048704717
:10065000D4D8002000BFFEE7704770B505460E46AF
:1006600014463146284600F091FA204600F040FB3F
:1006700070BD00BFFEE7000070B504461748408813
:10068000401E83B215480088401E82B200210846F1
:1006900000F086FA4FF4805111480FF061FC4FF4DE
:1006A00000610F480FF05EFC00250DE0002606E01B
:1006B000201200F03BFBE0B200F038FB761C07484C
:1006C0000088B042F4D86D1C04484088A842EDD898
:1006D0004FF4805102480FF045FC70BD50020020DD
:1006E0000014014010B510F0CDFC00F03BFAEF20F3
:1006F00000F09AFAEB2000F097FA142000F07CFA50
:10070000FE2000F091FAEF2000F08EFAEB2000F0CE
:100710008BFA142000F070FA842000F085FA402053
:1007200000F06AFA852000F07FFAFF2000F064FAFA
:10073000862000F079FAFF2000F05EFA872000F0B2
:1007400073FAFF2000F058FA882000F06DFA0A20B2
:1007500000F052FA892000F067FA212000F04CFAEC
:100760008A2000F061FA002000F046FA8B2000F0A9
:100770005BFA802000F040FA8C2000F055FA01204E
:1007800000F03AFA8D2000F04FFA012000F034FA20
:100790008E2000F049FAFF2000F02EFA8F2000F0A2
:1007A00043FAFF2000F028FAB62000F03DFA0020BE
:1007B00000F022FA202000F01FFA362000F034FA70
:1007C000082000F019FA3A2000F02EFA052000F077
:1007D00013FA902000F028FA082000F00DFA082003
:1007E00000F00AFA082000F007FA082000F004FAE6
:1007F000BD2000F019FA062000F0FEF9BC2000F040
:1008000013FA002000F0F8F9FF2000F00DFA602044
:1008100000F0F2F9012000F0EFF9042000F0ECF90B
:10082000C32000F001FA132000F0E6F9C42000F024
:10083000FBF9132000F0E0F9C92000F0F5F92220BF
:1008400000F0DAF9BE2000F0EFF9112000F0D4F941
:10085000E12000F0E9F9102000F0CEF90E2000F0C0
:10086000CBF9DF2000F0E0F9212000F0C5F90C20E1
:1008700000F0C2F9022000F0BFF9F02000F0D4F936
:10088000452000F0B9F9092000F0B6F9082000F081
:10089000B3F9082000F0B0F9262000F0ADF92A20C5
:1008A00000F0AAF9F12000F0BFF9432000F0A4F90C
:1008B000702000F0A1F9722000F09EF9362000F0BF
:1008C0009BF9372000F098F96F2000F095F9F2209D
:1008D00000F0AAF9452000F08FF9092000F08CF90A
:1008E000082000F089F9082000F086F9262000F0A1
:1008F00083F92A2000F080F9F32000F095F94320D5
:1009000000F07AF9702000F077F9722000F074F9A5
:10091000362000F071F9372000F06EF96F2000F0FA
:100920006BF9ED2000F080F91B2000F065F90B2039
:1009300000F062F9AE2000F077F9772000F05CF962
:10094000CD2000F071F9632000F056F9702000F01E
:100950006BF9072000F050F9072000F04DF9042052
:1009600000F04AF90E2000F047F90F2000F044F99A
:10097000092000F041F9072000F03EF9082000F0BE
:100980003BF9032000F038F9E82000F04DF934205D
:1009900000F032F9622000F047F9182000F02CF93D
:1009A0000D2000F029F9712000F026F9ED2000F06B
:1009B00023F9702000F020F9702000F01DF91820B4
:1009C00000F01AF90F2000F017F9712000F014F967
:1009D000EF2000F011F9702000F00EF9702000F007
:1009E0000BF9632000F020F9182000F005F9112020
:1009F00000F002F9712000F0FFF8F12000F0FCF89F
:100A0000702000F0F9F8702000F0F6F8182000F0DF
:100A1000F3F8132000F0F0F8712000F0EDF8F32067
:100A200000F0EAF8702000F0E7F8702000F0E4F839
:100A3000642000F0F9F8282000F0DEF8292000F00A
:100A4000DBF8F12000F0D8F8012000F0D5F8F12013
:100A500000F0D2F8002000F0CFF8072000F0CCF82A
:100A6000662000F0E1F83C2000F0C6F8002000F01D
:100A7000C3F8CD2000F0C0F8672000F0BDF8452095
:100A800000F0BAF8452000F0B7F8102000F0B4F8F4
:100A9000002000F0B1F8002000F0AEF8002000F0D7
:100AA000ABF8672000F0C0F8002000F0A5F83C206B
:100AB00000F0A2F8002000F09FF8002000F09CF861
:100AC000002000F099F8012000F096F8542000F082
:100AD00093F8102000F090F8322000F08DF8982064
:100AE00000F08AF8742000F09FF8102000F084F8DD
:100AF000852000F081F8802000F07EF8002000F0D2
:100B00007BF8002000F078F84E2000F075F8002007
:100B100000F072F8982000F087F83E2000F06CF8A2
:100B2000072000F069F8352000F07EF8212000F061
:100B30007BF8112000F078F8782004F0A9FF292034
:100B400000F072F8002000F099F84FF400510448CA
:100B50000FF008FA4FF6FF70FFF78EFD10BD000092
:100B60000014014010B54FF4806107480FF0F8F908
:100B7000142004F08DFF4FF4806103480FF0F2F968
:100B8000142004F085FF10BD0014014070B5044628
:100B90000D462B4622462946204600F001F870BD3E
:100BA0002DE9F04104460D4616461F461149887A44
:100BB00000F03AF8201200F01FF8E0B200F01CF844
:100BC000301200F019F8F0B200F016F80949087B6D
:100BD00000F02AF8281200F00FF8E8B200F00CF844
:100BE000381200F009F8F8B200F006F800F034F816
:100BF000BDE8F0815002002010B504464FF480514A
:100C000008480FF0ADF94FF4006106480FF0AAF95B
:100C1000204600F08BF84FF4805102480FF0A2F903
:100C200010BD00000014014010B504464FF480517F
:100C300008480FF095F94FF4006106480FF090F95D
:100C4000204600F073F84FF4805102480FF08AF903
:100C500010BD00000014014010B50249087AFFF7EA
:100C6000E3FF10BD5002002070B505460C46284633
:100C7000FFF7DAFFE0B2FFF7BFFF70BD10B5044623
:100C80002A201A4948812B2088812C20088134B1E0
:100C9000012C0DD0022C14D0032C24D11AE0F0200A
:100CA00012490880488008213620FFF7DDFF1BE04D
:100CB000F0200E490880488068213620FFF7D4FFD5
:100CC00012E0F020094908804880C8213620FFF74B
:100CD000CBFF09E0F020054908804880A821362094
:100CE000FFF7C2FF00E000BF00BF10BD50020020B0
:100CF00010B504464FF4805109480FF031F94FF414
:100D0000006107480FF02EF9201200F00FF8E0B252
:100D100000F00CF84FF4805101480FF023F910BD9A
:100D20000014014000BFFEE77047704770B50446ED
:100D3000002508251BE004F0800028B14FF4007165
:100D40000C480FF00FF904E04FF4007109480FF060
:100D500007F94FF4807107480FF002F94FF48071E2
:100D600004480FF0FFF86006040E681EC5B2002D9F
:100D7000E1DC70BD001401407047704718480068FE
:100D800040F47000164908601648006820F0010021
:100D9000401C1449086000BF12480068C0F34000BE
:100DA0000028F9D00F48406820F003000D49486042
:100DB00000BF0C484068C0F381000028F9D1094801
:100DC0000068094908400749086000204860086336
:100DD0004FF41F008860C8030149803908607047DC
:100DE00088ED00E000100240FFFFF2FE10B5012187
:100DF00005482CF0D4FA30B1012025F02DFD012159
:100E000001482CF0C9FA10BD002C014000BFFEE7DC
:100E100070B50446002508E02168481C2060087869
:100E2000303805EB850100EB41052168087800F0BA
:100E300004F80028F0D1284670BD0146302903DBB4
:100E4000392901DC012070470020FCE710B544215E
:100E5000074800F03BFD00221E21064825F064FDF6
:100E60000549086002F0C2F800200449087010BD6E
:100E700008D70020CD3000081802002014020020FE
:100E800030B50346B1F90040B2F90050AC4202DD82
:100E9000B1F9004001E0B2F900401C80B1F9024014
:100EA000B2F90250AC4202DDB1F9024001E0B2F900
:100EB00002405C80B1F90440B2F90450AC4202DA5D
:100EC000B1F9044001E0B2F904409C80B1F9064058
:100ED000B2F90650AC4202DAB1F9064001E0B2F9CB
:100EE0000640DC800120B3F90040B3F90450AC4265
:100EF00005DCB3F90240B3F90650AC4200DD002036
:100F000030BDF8B504460D4616460027B4F900007A
:100F1000B5F90010884212DBB4F90200B5F90210ED
:100F200088420CDBB4F90400B5F90410884206DCF1
:100F3000B4F90600B5F90610884200DC01270FB9A4
:100F40000020F8BD0EB90120FBE72088ADF80000B5
:100F50006088ADF8020032466946284600F0A7F8DE
:100F600008B90020EDE7A088ADF800006088ADF872
:100F7000020032466946284600F099F808B9002078
:100F8000DFE72088ADF80000E088ADF802003246C7
:100F90006946284600F08BF808B90020D1E7A08800
:100FA000ADF80000E088ADF80200324669462846F8
:100FB00000F07DF808B90020C3E70120C1E7024630
:100FC000B2F90000B1F90430984213DCB2F9040020
:100FD000B1F9003098420DDBB2F90200B1F90630E8
:100FE000984207DCB2F90600B1F90230984201DB01
:100FF000012070470020FCE7F8B504460D46164670
:10100000B4F90400B5F90010884211DBB4F9060008
:10101000B5F9021088420BDBB4F90000B5F90410F1
:10102000884205DCB4F90200B5F90610884201DDFA
:101030000120F8BD0EB90020FBE72088ADF80000C4
:101040006088ADF8020032466946284600F02FF865
:1010500008B10020EDE7A088ADF800006088ADF889
:10106000020032466946284600F021F808B1002007
:10107000DFE72088ADF80000E088ADF802003246D6
:101080006946284600F013F808B10020D1E7A0888F
:10109000ADF80000E088ADF8020032466946284607
:1010A00000F005F808B10020C3E70120C1E72DE9F1
:1010B000FC5F05460E4614464FF0000AB6F90000E4
:1010C000B5F90010884213DBB6F90000B5F9041039
:1010D00088420DDCB6F90200B5F90210884207DB40
:1010E000B6F90200B5F90610884201DC4FF0010A9A
:1010F000BAF1000F02D10020BDE8FC9F002C01DCFA
:101100000120F9E7284611F030FA834600EBDB7046
:101110004710284611F0A1F9834600EBDB704FEA37
:101120006008474501DA384600E0404681464C45B4
:1011300000DD4C462888ADF800002888204400B225
:10114000ADF804006888ADF802006888204400B259
:10115000ADF80600002231466846FFF7A8FF80B1CF
:10116000BDF80400204400B2ADF80400BDF806004C
:10117000204400B2ADF806003146684622F0E4F99A
:10118000BAE7E888001B00B2ADF80200E888ADF8C5
:101190000600002231466846FFF789FF80B1BDF89E
:1011A0000400204400B2ADF80400BDF80200001BAA
:1011B00000B2ADF802003146684622F0C5F99BE75F
:1011C000A888001B00B2ADF80000A888ADF80400A4
:1011D000002231466846FFF76AFF80B1BDF8000083
:1011E000001B00B2ADF80000BDF80200001B00B209
:1011F000ADF802003146684622F0A6F97CE768881F
:10120000ADF802006888204400B2ADF80600002264
:1012100031466846FFF74BFF80B1BDF80000001B68
:1012200000B2ADF80000BDF80600204400B2ADF8F1
:1012300006003146684622F087F95DE701205BE74A
:1012400010B5B1F90030B2F90040A34202DAB1F9A9
:10125000003001E0B2F900300380B1F90230B2F998
:101260000240A34202DAB1F9023001E0B2F90230E1
:101270004380B1F90430B2F90440A34202DDB1F970
:10128000043001E0B2F904308380B1F90630B2F9DC
:101290000640A34202DDB1F9063001E0B2F90630A2
:1012A000C38010BD2DE9FF41044625F0C5FA05466F
:1012B0000020039034B14749E0680860204625F0DB
:1012C0004BFC03E014F05EF94249086041490968AB
:1012D000086921F0CDFF3F480068406920B13D49D1
:1012E0000968486921F0C4FF3A490968C86921F0D2
:1012F000BFFF38490968086A21F0BAFF354800681D
:10130000006940B9002033490968A1F8500100BFC5
:1013100000BFBDE8FF8122F0C7F927F077FC2D4818
:101320000068B0F8500100284BD02A4800680068D7
:10133000007CC0F34000E8B12648006814F0A0F932
:10134000401E06B22348006814F034F9401E07B26C
:101350003B460022114601A8009611F04BF901A866
:101360001C4909680968C96B48601A48006805F09B
:10137000F9FC00BF4FF480711648006830301CF053
:1013800001F920211348006800F598701CF0FAF864
:10139000002010490968A1F85001284625F03EFABE
:1013A00003900C4800680068406A50B10949096818
:1013B00008680849096809684B6A07490A68039977
:1013C00098471BF057FE00F03FF800F007F800BF09
:1013D0009FE70000640000206000002010B500249A
:1013E00016E0C4EBC4000C4951F8200030B1C4EB46
:1013F000C401094A52F821001BF0EEFEC4EBC401FF
:10140000054A02EB81001C211CF0BCF8601CC4B230
:10141000042CE6DB10BD0000E4D700200146094A99
:1014200010680BE042688A4202D002688A4204D106
:10143000027E22F00102521C027640690028F1D19E
:1014400070470000380000207047000010B50421EC
:10145000014800F03BFA10BDFCD6002010B5202159
:10146000014800F033FA10BD14D700202DE9FF47E2
:1014700004460D4616461F46DDE90C896FB9B8F5DE
:10148000807F0AD1002020806080681E00B2A0808A
:10149000701E00B2E080BDE8FF8700200090019040
:1014A00002900390ADF80450ADF80A60ADF80C500E
:1014B000ADF80E604B4642463946684621F07AFF49
:1014C0004B464246394601A821F074FF4B4642463E
:1014D000394602A821F06EFF4B464246394603A822
:1014E00021F068FFBDF90000BDF90410884202DA5E
:1014F000BDF9000001E0BDF90400BDF90810BDF917
:101500000C20914202DABDF9081001E0BDF90C107F
:1015100088420BDABDF90000BDF90410884202DAF6
:10152000BDF900000DE0BDF904000AE0BDF90800B6
:10153000BDF90C10884202DABDF9080001E0BDF9DE
:101540000C00801E00B22080BDF90000BDF904101F
:10155000884202DDBDF9000001E0BDF90400BDF9DB
:101560000810BDF90C20914202DDBDF9081001E020
:10157000BDF90C1088420BDDBDF90000BDF9041067
:10158000884202DDBDF900000DE0BDF904000AE06B
:10159000BDF90800BDF90C10884202DDBDF9080054
:1015A00001E0BDF90C00801C00B2A080BDF9021062
:1015B000BDF90600814202DABDF9020001E0BDF981
:1015C0000600BDF90A20BDF90E108A4202DABDF903
:1015D0000A1001E0BDF90E1088420BDABDF90210C5
:1015E000BDF90600814202DABDF902000DE0BDF945
:1015F00006000AE0BDF90A10BDF90E00814202DAC8
:10160000BDF90A0001E0BDF90E00801E00B2608045
:10161000BDF90210BDF90600814202DDBDF90200EC
:1016200001E0BDF90600BDF90A20BDF90E108A429D
:1016300002DDBDF90A1001E0BDF90E1088420BDD94
:10164000BDF90210BDF90600814202DDBDF90200BC
:101650000DE0BDF906000AE0BDF90A10BDF90E0063
:10166000814202DDBDF90A0001E0BDF90E00801CD7
:1016700000B2E08000BF0EE72DE9F74305461646AD
:101680000024134C25F0D8F88046334629462046DE
:10169000019A19F02FFB07465FB900BF00BF2C214C
:1016A00020461BF06FFF4FF00040A0620020BDE815
:1016B000FE830020A062E06918B9404625F0AEF82C
:1016C000E061E06908B90120E0612046EFE7000031
:1016D00038D7002010B51421114800F0F7F819F0A0
:1016E000BBFA044600BF1CB900BF00BF00BFFEE745
:1016F00000BF14B900BF00BF10BD0A49204619F051
:1017000093FB0949204619F091FB0849204619F03E
:101710008FFB0749204619F085FB00BFECE700006E
:1017200020D7002071A4010845A9010865AB010874
:1017300039A401082DE9FF4104460F4614B913F0FE
:1017400021FF04460CB9BDE8FF81204613F0B3FF2A
:1017500000B9F8E794F82800C0F3800010B100BF8A
:1017600000BFF0E71FB90020A4F85001EBE700200C
:10177000ADF80800ADF80A00204613F01BFF401E2C
:1017800000B2ADF80C00204613F07AFF401E00B204
:10179000ADF80E0002AA39466846FFF771FB06460F
:1017A00006B9D0E72068007CC0F3400060B1029821
:1017B0002063039860630120A4F85001606810B1B1
:1017C000606825F0D5F9BEE72068806918B1206807
:1017D00069468269904700250BE004F1300000EB78
:1017E000C50100226846FFF78CFB00B1ABE7681C1F
:1017F00085B2B4F85001A842EFDCB4F850012028BB
:1018000009DAB4F8502104F1300101EBC200694655
:1018100010F091FD0BE00020A4F85001B4F8502125
:1018200004F1300101EBC20002A910F084FDB4F80C
:101830005001401CA4F85001606810B1606825F0A8
:1018400097F900BF7FE770B50546284600F013F80A
:10185000044600260CE02146284600F024F80646FF
:101860002146284600F086F820461BF0B5FC344699
:10187000002CF0D170BD014609B9002070474868BE
:10188000FCE770B5064600243046FFF7F4FF054636
:1018900005E0641C2946304600F005F80546002D99
:1018A000F7D1204670BD02460B461068001D034468
:1018B0001868704702460B46106803441868704762
:1018C000014609B9002070478868FCE700224260A1
:1018D0008260CA1C22F003010160704770B50446A3
:1018E000216801F108001BF099FB0546A5B1002213
:1018F0002946204626F0F6FB29462046626826F057
:10190000E3FB606820B12A462046616826F0EAFBC6
:101910006560A06800B9A560284670BD70B5044632
:10192000216801F108001BF079FB0546A5B10022F2
:101930002946204626F0C8FB29462046A26826F004
:10194000D1FBA06820B12A462046A16826F0BCFB46
:10195000A560606800B96560284670BD014609B998
:1019600001207047486818B9886808B90120F8E76D
:101970000020F6E72DE9F04104460D460CB9BDE81C
:10198000F0812046FFF777FFA8420FD12946204675
:10199000FFF789FF6060606810B90020A0602FE049
:1019A00000222046616826F09DFB29E02046FFF7D3
:1019B00087FFA8420FD129462046FFF77BFFA06092
:1019C000A06810B9002060601AE000222046A168DB
:1019D00026F07AFB14E029462046FFF76BFF064607
:1019E00029462046FFF75FFF07463A463146204624
:1019F00026F06AFB32463946204626F073FB00BFCC
:101A000000BFBCE710B504462068806818B12068A4
:101A10002146826890472068006828B120680068E5
:101A200020602046FFF7EEFF10BD0146886818B120
:101A30008868B0F9160070470020FCE70146886806
:101A400018B18868807E800970470020FCE72DE986
:101A5000F04104460D4616461DB916B90120BDE8F1
:101A6000F08120461CF086FCA068008A284400B261
:101A7000A1680882A068408A304401B2A06841820F
:101A800001233246294620461FF064FF00220B2125
:101A9000204617F0EDFC0746012F01D03846DEE75F
:101AA00020461FF07FFE0120D9E7F7B582B004463B
:101AB0000E4614B9049805B0F0BD00BF612231464E
:101AC00020461EF0AFFF0190019D00BFBDB1286808
:101AD000A8B100BF6222314620461EF0A3FF01904C
:101AE0000198C0B207464FB13A462B682846049980
:101AF00098470190BDF80400ADF8100000BF0498AD
:101B0000D9E700002DE9F04F95B004468B46914689
:101B10009A461E9D608C20F00400001D6084A4F88D
:101B200020902A89594620461EF07CFF1490A4F884
:101B300020A02A89594620461EF074FF1390608C1D
:101B400020F004006084DDE9131088420CD1DDE947
:101B50001310884208D1BDF85000BDF84C108842DF
:101B600002D115B0BDE8F08FA4F820902A8959461B
:101B700020461EF057FF1490A4F820A05946204696
:101B80000EF08CF912902989129A1068149A23F099
:101B90002DFB28890B2833D147F6FF711498884212
:101BA00002D0139888422BD120461FF01EFA0090D5
:101BB00000EBD070471020461DF046FC009000EB73
:101BC000D0704FEA600847F6FF711498884208D138
:101BD000781C08F10101884200DA01E008F10100F7
:101BE000149047F6FF711398884208D1781C08F1C9
:101BF0000101884200DA01E008F10100139000BF02
:101C00002348FFF76BFE064600BF1EB900BF00BFAA
:101C100000BFFEE700BF06B9A3E71498F060139871
:101C2000306134602889B080C6F808B001A80FF090
:101C300049FD314601A80FF0F7FD164901A80FF044
:101C4000C4FD1548039000BF144901A80FF0CBFD57
:101C5000FF22002101A80FF0D7FD298801A80FF06D
:101C6000C9FD698801A80FF0ABFDE868089000BFC6
:101C700001A8002190F8422061F3000280F8422080
:101C800000BF2869079001A80FF0E6FD00BF68E7D4
:101C90002CD70020C9D302086DD602089DD50208B2
:101CA00010B514210148FFF711FE10BD2CD70020FC
:101CB0002DE9FE4F04460F4690464FF000090025DF
:101CC0004CE1E06800EBC5004068C0F3406000B143
:101CD00043E1E16801EBC501496821F07F4021F053
:101CE0008DFA064626EA070008B9012000E0002028
:101CF000029026EA080008B9012000E000200190C7
:101D0000DDE90101814270D0E06850F835A04FF064
:101D1000000B6A461021504622F050FE10B14FF0E1
:101D2000010B98E06A461121504622F047FE10B19F
:101D30004FF0010B8FE06A461221504622F03EFE22
:101D400010B14FF0010B86E06A461321504622F095
:101D500035FE10B14FF0010B7DE06A46152150466B
:101D600022F02CFE10B14FF0010B74E06A461421F2
:101D7000504622F023FE10B14FF0010B6BE06A4693
:101D80000A21504622F01AFE10B14FF0010B62E01A
:101D90006A466A21504622F011FE10B14FF0010B45
:101DA00059E06A466B21504622F008FE10B14FF010
:101DB000010B50E06A460121504622F0FFFD10B1B0
:101DC0004FF0010B47E06A460421504622F0F6FD31
:101DD00010B14FF0010B3EE06A460221504622F05E
:101DE000EDFD18B14FF0010B35E0B5E06A46032177
:101DF000504622F0E3FD10B14FF0010B2BE06A4694
:101E00000521504622F0DAFD10B14FF0010B22E01F
:101E10006A460621504622F0D1FD10B14FF0010B69
:101E200019E06A463221504622F0C8FD10B14FF049
:101E3000010B10E06A466D21504622F0BFFD10B143
:101E40004FF0010B07E06A466C21504622F0B6FDC8
:101E500008B14FF0010BBBF1000F02D00320BDE829
:101E6000FE8F6A466821504622F0A8FD10B14FF05F
:101E7000020970E06A466921504622F09FFD10B1C8
:101E80004FF0020967E06A466D21504622F096FD48
:101E900010B14FF002095EE06A466C21504622F014
:101EA0008DFD10B14FF0020955E06A4637215046CA
:101EB00022F084FD10B14FF002094CE06A4638214F
:101EC000504622F07BFD10B14FF0020943E06A4614
:101ED0003521504622F072FD10B14FF002093AE070
:101EE0006A464021504622F069FD10B14FF00209C8
:101EF00031E06A464521504622F060FD10B14FF0B6
:101F0000020928E06A464121504622F057FD10B1EF
:101F10004FF002091FE06A464221504622F04EFD72
:101F200010B14FF0020916E06A464321504622F0F4
:101F300045FD10B14FF002090DE06A4649215046B7
:101F400022F03CFD10B14FF0020904E0B9F1000F9E
:101F500001D14FF0010900BF00BF6D1C608CC0F3C0
:101F6000C500A8423FF6ADAE484678E70148006894
:101F7000704700006400002070470146C1F304125E
:101F8000072A00DD0722D0B27047000001464FF655
:101F9000FF70814201D11F20704709B90020FBE783
:101FA000702902DA0948405CF6E7A1F1700081B2BD
:101FB0000748006838B107480068814203D20448E6
:101FC0000068405CE8E70020E6E70000741B0308B7
:101FD00000020020D401002010B518210348FFF7AB
:101FE00075FC012024F0DCFC10BD0000D8D60020D8
:101FF0002DE9F04105460F4616460DB9BDE8F081C2
:102000002846FEF7F7F98046394628460A4A1268FC
:1020100090470746E8193146074A12689047064636
:102020003C4603E0A019285C2855641CA8EB060078
:10203000A042F7D200BFE1E7B40100202DE9F04152
:1020400006460C4617461D4629463046084A126881
:1020500090472060206830B1296888190021044A1F
:102060001268904700E000203860BDE8F081000071
:10207000AC0100202DE9F04F87B004460F46924690
:102080009846DDE910560DB1002028801CB90020CB
:1020900007B0BDE8F08F207808B90020F8E70FB945
:1020A0000020F5E74FF0000906F0020010B906F035
:1020B000040098B1002000E0401C215C0A2905D0F2
:1020C000215C0D2902D0215C0029F5D1215C01B1F0
:1020D000401C15B14FF0FF312980D9E706F002000E
:1020E00008B141F6FF7800200690059038E0002006
:1020F0000490059808B9012000E0002006A904AA70
:10210000CDE90062CDE902100599601843465246B8
:10211000394624F0ADFE83460498A8EB00000FFA80
:1021200080F8049848440FFA80F9BBF1000F00D101
:102130001CE005985844059020780A2802D02078A1
:102140000D2800D112E00598205C0A2803D00598DC
:10215000205C0D2803D10598401C059006E000BFC7
:102160000598205C10B1B8F1000FC0DC00BF0598E5
:1021700070B905A92046094A12689047834635B1CF
:1021800000225946384617F0BAFB0FFA80F900BF13
:102190000DB1A5F8009005987AE70000AC01002089
:1021A0002DE9F04706468846174606B10FB9BDE847
:1021B000F0873046FEF71EF981463846FEF71AF9D9
:1021C000044604B9F3E704EB090A414630460B4ADA
:1021D000126890478046554603E0281B305C7055D6
:1021E0006D1E08EB0400A842F7D906EB0800224652
:1021F00039461BF081F900BFD9E70000B401002087
:10220000024600200FA31B788B4211D113781BB913
:102210000123137001200BE01378012B02D100235E
:10222000137005E01378022B02D1002313700120F4
:102230001378012B04D1202901D10223137001202E
:10224000704700002300000073B582B00646039873
:102250000190324600210846019B25F029F90546E8
:10226000002001900024681C1AF0D8FE044600BF2C
:102270001CB900BF00BF00BFFEE700BF14B90020BB
:1022800004B070BD002060553246691C2046039B97
:1022900025F00EF92046F3E72DE9F04781460E467A
:1022A00014461F46DDF820A035461BE0600800FB01
:1022B000075529464846D047B0F1000809DD04F02B
:1022C000010080F00100C0EB5404E8190546064601
:1022D00008E0B8F1000F02DA6408354602E028464B
:1022E000BDE8F087002CE1D10020F9E72DE9FF4F90
:1022F00085B08346DDE9158ADDE91349DDE9177507
:10230000129E05F00200F8B94FB105F0010030B19E
:10231000B9F1000F02D105F00C0000B17F1E03E0FF
:1023200030222046641C3254544501D2202CF7D36D
:1023300003E030222046641C325405F0010018B13D
:10234000BC4201D2202CF4D305F01000B0B305F448
:10235000806050B94CB1544501D0BC4205D1641ED7
:102360001CB1B8F1100F00D1641EB8F1100F09D1E3
:1023700005F0200030B9202C04D278222046641CBD
:10238000325415E0B8F1100F09D105F0200030B13A
:10239000202C04D258222046641C325408E0B8F1A4
:1023A000020F05D1202C03D262222046641C325435
:1023B000202C03D230222046641C3254202C16D20A
:1023C000B9F1000F04D02D222046641C32540EE0D7
:1023D00005F0040020B12B222046641C325406E094
:1023E00005F0080018B120222046641C3254CDE9C3
:1023F0000275CDE90064584606A90EC900F0A2F89E
:1024000009B0BDE8F08F2DE9FF4F8FB08046DDE9C0
:102410001FABDDE91D96219D1C9C00270CB925F002
:10242000100505F4806000B1E4B100BFB4FBF6F123
:1024300006FB1141C8B20A2802DA00F1300107E0B8
:1024400005F0200109B1412100E0612101440A3970
:10245000CBB239467F1C07AA5354B4FBF6F40CB137
:10246000202FE3D307A8CDE904AB8DE881020396C2
:102470000695404610A90EC9FFF738FF13B0BDE816
:10248000F08F2DE9FF4F8FB0DDE9217BDDF89080E3
:10249000209EDDE91C454FF00009002184EA01007F
:1024A0006940084301D128F0100808F4806028B181
:1024B000002184EA0100694008432DD000BF324664
:1024C0003B4620462946FDF7EEFE02F0FF0ABAF130
:1024D0000A0F02DA0AF1300007E008F0200008B124
:1024E000412000E0612050440A38C2B2484609F158
:1024F000010907A90A5432463B4620462946FDF702
:10250000D2FE04460D46002184EA010069400843DA
:1025100002D0B9F1200FD2D32398CDE9036BCDE9D6
:10252000050807A91E98CDE9001902900FA80FC849
:10253000FFF7DCFE13B0BDE8F08F9A4200D288545A
:10254000704770472DE9FF5F05461446DDE90EA68A
:10255000DDE91087A34607F0020078B907F0010013
:1025600060B9B14607E02246641C2020039B019914
:10257000A84709F10109C145F5D300BF08E022468B
:10258000641C711E0E461AF80100039B0199A847AE
:10259000002EF4D107F0020050B105E02246641C81
:1025A0002020039B0199A847A4EB0B004045F5D3DD
:1025B000204604B0BDE8F09F00BF70472DE9FF4FF3
:1025C0008BB0074600250C9800B9FA4FEAE20E9846
:1025D000007825280AD02A466D1C0E990878DDE976
:1025E0000C13B8470E98401C0E90DBE20E98401C6E
:1025F0000E90002400BF0E9800782B2819D004DC20
:1026000020281ED023282CD123E02D2809D03028C3
:1026100027D144F001040E98401C0E9001200A902E
:1026200022E044F002040E98401C0E9001200A9013
:102630001AE044F004040E98401C0E9001200A9009
:1026400012E044F008040E98401C0E9001200A90FD
:102650000AE044F010040E98401C0E9001200A90ED
:1026600002E000200A9000BF00BF0A980028C2D1F3
:1026700080460E990878FEF7E0FB20B10EA8FEF721
:10268000C7FB804612E00E9800782A280ED11899D0
:1026900001C91891002804DA44F00204C0F10008CE
:1026A00000E080460E99491C0E9100BF4FF00009D2
:1026B0000E9800782E281FD144F480640E98401C98
:1026C0000E900E990878FEF7B8FB20B10EA8FEF721
:1026D0009FFB814610E00E9800782A280CD11899AB
:1026E00001C91891002801DD014600E0002189465A
:1026F0000E99491C0E9100BF0E9800786C280AD0E4
:1027000004DC682816D06A2835D128E0742820D047
:102710007A2830D129E044F480740E98401C0E9041
:102720000E9800786C2804D144F400740E98401C74
:102730000E9021E044F080040E98401C0E900E98FC
:102740000078682804D144F040040E98401C0E9094
:1027500012E044F480740E98401C0E900CE044F497
:1027600000740E98401C0E9006E044F480740E989D
:10277000401C0E9000E000BF00BF0E980078692852
:102780001DD00EDC622821D006DC25287ED0502802
:102790001AD058287BD115E0632879D06428F9D164
:1027A0000CE0732875D004DC6F280ED07028F1D1AE
:1027B00009E0752804D07828ECD102E000BF00BF02
:1027C00000BF00BF00BF00BF00BF00BF0E98007871
:1027D000782803D00E980078582801D1102623E0DD
:1027E0000E980078702803D00E98007850280CD1ED
:1027F000102644F0100444F480740E984078562853
:1028000012D10E98401C0E900EE00E9800786F28A2
:1028100001D1082608E00E980078622801D102262E
:1028200002E00A2624F010040E980078582803D0FD
:102830000E980078502801D144F020040E980078BA
:10284000692805D00E980078642801D024F00C0483
:1028500004F4806008B124F001040E98007869281F
:1028600003D00E98007864287CD104F40070B8B3CB
:102870001898C01D20F007001890D0E900AB189AF6
:10288000083218920020CDE9069803E073E17CE15C
:10289000F2E01CE1CDE904600894BAEB00017BEBA7
:1028A000000001DA012000E000200021029008462B
:1028B000B1EB0A0170EB0B0002DA5046594605E015
:1028C00000200146B0EB0A0061EB0B01CDE90001ED
:1028D0002A463846DDE90C13FFF7D3FD0546C7E06D
:1028E000FFE704F48070D0B1189850F804AB18904A
:1028F0004FEADA70CDE9039802960594BAF1000F19
:1029000001DD514601E0CAF10001CDE900102A467F
:102910003846DDE90C13FFF776FD0546A8E004F024
:10292000400028B1189810F8041B1890C8B20DE0A8
:1029300004F0800028B1189830F8041B189008B2F1
:1029400004E0189800681899091D189182464FEA0A
:10295000DA70CDE9039802960594BAF1000F02DD12
:10296000514602E00BE0CAF10001CDE900102A4611
:102970003846DDE90C13FFF746FD054678E00E9872
:102980000078562818D1189850F804AB1890DAF847
:1029900004000068099009980090DAF800300D985A
:1029A000421B0C9841193846FFF708FE05440020E9
:1029B00009905DE04325000804F40070D0B1189838
:1029C000C01D20F00700CDE906980894189000205B
:1029D000CDE904600290189903C9189A0832189238
:1029E000CDE900012A463846DDE90C13FFF749FD21
:1029F00005463DE004F4807098B10022CDE90398CB
:102A000002960594189800681899091DCDE90002EE
:102A100018912A463846DDE90C13FFF7F4FC054609
:102A200026E004F0400028B1189810F8041B189014
:102A3000C8B20DE004F0800028B1189830F8041BEB
:102A4000189088B204E0189800681899091D189128
:102A500082460020CDE900A0CDE9039802960594B6
:102A60002A463846DDE90C13FFF7CDFC054600BFCA
:102A70000E98401C0E9093E0012604F0020050B91D
:102A800005E02A466D1C2020DDE90C13B8473046CE
:102A9000761C4045F5D3189911F8043BD8B22A4664
:102AA0006D1C1891DDE90C13B84704F0020050B119
:102AB00005E02A466D1C2020DDE90C13B84730469E
:102AC000761C4045F5D30E98401C0E9068E018988F
:102AD00050F804AB18905046B9F1000F01D04946A8
:102AE00001E04FF0FF310A46014600E0491C0B7837
:102AF0001BB1131EA2F10102F8D10E1A04F480607A
:102B000028B14E4501D2304600E04846064604F062
:102B1000020050B905E02A466D1C2020DDE90C13A7
:102B2000B8473046761C4045F5D306E01AF8010B4D
:102B30002A466D1CDDE90C13B8479AF8000040B135
:102B400004F480600028F1D0B9F10000A9F1010976
:102B5000ECD104F0020050B105E02A466D1C2020A3
:102B6000DDE90C13B8473046761C4045F5D30E9886
:102B7000401C0E9014E02A466D1C2520DDE90C1344
:102B8000B8470E98401C0E900AE02A466D1C0E991C
:102B90000878DDE90C13B8470E98401C0E9000BF72
:102BA00000BF00BF0E98007800287FF410AD0D988C
:102BB000854201D2284601E00D98401E02460020C1
:102BC000DDE90C13B84728460FB0BDE8F08F2DE9BA
:102BD000F04104460E46002774B13146204600F00D
:102BE0002DF80546B5F5803F05D20C2D01D92846B4
:102BF00000E00C20074600BF3846BDE8F0810246E1
:102C000000BF481E084018B100BF00BF00BFFEE76C
:102C100000BF481E1040101A704710B502464B1EE8
:102C200013444C1E23EA040000BF4B1E0B401BB193
:102C300000BF00BF00BFFEE700BF10BD024600BFDF
:102C4000481E084018B100BF00BF00BFFEE700BF2C
:102C5000481E10444B1E9843704700002DE9F04178
:102C600080460E46444601206086002500270DE080
:102C700056F8270025A1FDF735FC10B1681C85B278
:102C800002E0608E401C6086781C87B256F82700F0
:102C900020B156F8270000780028E9D1208EA842FC
:102CA00001D1BDE8F081A06A20B1A06A1AF094FABF
:102CB0000020A062E06A20B1E06A1AF08DFA0020DC
:102CC000E062E8001AF0AAF9A06200BFA06A18B991
:102CD00000BF00BF00BFFEE700BF68001AF09EF90A
:102CE000E06200BFE06A18B900BF00BF00BFFEE7A6
:102CF00000BFA06A08B1E06A00B900256900E06A77
:102D00001AF040FC258600BFCBE700000A00000057
:102D10002DE9F84F81460E46924699F8090000F0D9
:102D20000700022801D1304600E050468346564550
:102D300001DD304600E050460746032000EB470027
:102D400020F0030000F1100539480068394909688E
:102D5000A0EB0108002405EB080037490968884208
:102D600006D233480468606820F0004060603AE0B2
:102D700031480068854221D813E04FF0FF300090C1
:102D8000002269462D480EF037F8002269462C488B
:102D90000EF032F82648006826490968A0EB0108C1
:102DA00000BF08EB0500244909688842E5D820489F
:102DB0000468606820F00040606014E028461AF063
:102DC0002DF9044600BF1CB900BF00BF00BFFEE7DD
:102DD00000BF14B90020BDE8F88F606820F0004003
:102DE00000F10040606032465946484602F02CF936
:102DF0002060606800F04040401C6060606820F027
:102E000080406060A781A4F80EB06068C00F20B158
:102E1000204600F11001A16008E00548006810306C
:102E2000A060034800682844014908602046D2E7B2
:102E30006C000020FC01002068000020C7E40008AE
:102E4000790E0108F0B585B006460D4634460020DF
:102E500004900390029094F83C0000F0030020B12D
:102E6000012838D0022866D000BF94F83C0000F05A
:102E700003005A49097888421BD02620005D00EBE8
:102E8000001000EB4000142190FBF1F05449087051
:102E90002720005D00EB001000EB4000142190FBA8
:102EA000F1F05049087094F83C0000F003004B49E1
:102EB000087002A803A9CDE9001005EB45014FF603
:102EC000FF7202EA410004AB46490A784449097896
:102ED0000AF0C9FF5FE094F83C0000F003003F49AE
:102EE000097888421AD0A08C00EB400040024FF4D1
:102EF000B471B0FBF1F03C4908802720005D00EB85
:102F0000001000EB4000142190FBF1F035490870EF
:102F100094F83C0000F003003049087002A803A9AF
:102F2000CDE90010E9B204AB2E4802782E480088A3
:102F30000AF099FF2FE094F83C0000F003002749C5
:102F4000097888421AD0A08C00EB400040024FF470
:102F5000B471B0FBF1F0244908802620005D00EB3D
:102F6000001000EB4000142190FBF1F01C490870A8
:102F700094F83C0000F003001849087002A803A967
:102F8000EAB204ABCDE90010154801781648008874
:102F90000AF069FF00BF00BF9DF810009DF80C10FB
:102FA0009DF80820D708BDF8003067F304038F08A8
:102FB0000093BDF8003067F34A13C7080093BDF8CB
:102FC000003067F3CF230093BDF800703B460193B8
:102FD000BDF80410084605B0F0BD00001A0100203D
:102FE00018010020190100201601002010B5012051
:102FF000074908700748FEF73EFC20B906480068FC
:1030000023F0AAFD03E00448006823F0B1FD10BDE1
:103010001402002008D700201802002010B5044632
:1030200094F84200C0F3400070B9B4F840000028A2
:103030000ADDB4F840004FF6FF71884204D0B4F8BE
:103040004000401EA4F84000B4F84000D0B9A06B86
:1030500020B194F84200C0F3400098B121461A48CC
:10306000FEF788FCFFF7C2FFE06810B12046E16878
:103070008847206910B120462169884720461AF008
:10308000ABF81FE0E06B40422063A06BD0B194F836
:103090004210C1F3400111B9616B4942216394F8B8
:1030A00042104908C94394F8422061F3410284F870
:1030B0004220206AA16A2162A062E06AA16BE162FB
:1030C000A06300BF10BD000008D700202DE9F0412B
:1030D00080464248006823F0A1FB0646404800783D
:1030E00080F001003E4908703E48FEF7C4FB0446EC
:1030F0006BE000203C49087094F84200C0F3800067
:1031000037490978884253D0354801783034A07C5B
:1031100061F38200A07420688719A07C303CC0F362
:10312000C00010BB206B00281FDC002F1DDB94F8B3
:10313000420000F0010060B9606950B12046616949
:1031400088470546206A28442062A06A2844A06275
:1031500000BFA06810B12046A168884794F84200DB
:1031600020F00800083084F84200206B30442063CF
:10317000206B00281BDBD4E90B10884201DDE06ADC
:1031800020632046E16988470546606AA84206D068
:103190006562606818B12946D4E900029047D4E915
:1031A0000B10884202DB2046FFF738FF00BF00BF4C
:1031B0000D48007820B10B48FEF75DFB044604E0A3
:1031C00021460848FEF76FFB0446002C91D123F0FE
:1031D00033FB02490860BDE8F081000010020020C6
:1031E0001502002008D700201402002070B5044604
:1031F0000D46606818B129466068FFF7F7FF206840
:1032000018B1294620462268904770BD70B5054622
:103210000C46A1B228460EF0BBFF70BD70B5054646
:103220000C46A1B228460FF004F870BD2DE9FF4FFF
:103230008FB01F46DDF888801C980E901D980D9069
:1032400000200B902398042806D0052809D00628D2
:103250000CD014281AD114E000200C904FF0020971
:1032600017E001200C904FF0030912E001200C90B0
:103270004FF00209FEF77AFE05462868008F0B9092
:1032800007E001200C904FF0020902E013B0BDE806
:10329000F08F00BF002489E11E9860430E9901EB76
:1032A00020201C901F9860430D9901EB20201D9059
:1032B0001C9805121D980612002D07DB10988542F8
:1032C00004DA002E02DB1198864203DB002008F8A6
:1032D000040069E11C98C0B20A901D9800F0FF0A32
:1032E0000A98802807DA4FF0FF3B0A98C0F17F0068
:1032F00040000A9005E04FF0010B0A98803840002A
:103300000A90BAF1800F07DA4FF0FF300990CAF146
:103310007F004FEA400A05E001200990AAF18000F1
:103320004FEA400A0F98089006FB07F000FB09F0EF
:1033300005FB090108980844089005EB0B000028DC
:103340007EDB05EB0B011098401E814278DC09986A
:1033500030440028F4DB099831181198401E81424E
:10336000F4DC0898079008980BFB09000690099870
:1033700000FB07F1089801FB090005900C98002854
:103380007FD0239B052B06D1079B9878059B9978C6
:10339000069B9A783BE0239B142B18D1DDF844C0A0
:1033A00007FB0CFCDDF83CE00EEB4C0306FB073C96
:1033B0001CF8050006FB073CAC441CF80B20DDF8AC
:1033C00024C0B4440CFB073C1CF805101FE0239BF1
:1033D000062B19D1079B1B88BDF82CC063450BD069
:1033E000059B1B88BDF82CC0634505D0069B1B8838
:1033F000BDF82CC0634503D1002308F80430D3E0A6
:10340000FF20FF21FF2202E0FF20FF21FF22814257
:1034100007D001FB0AF3CAF5807C00FB0C33C3F331
:103420000721824209D00A9B5343DDF828C0CCF51E
:10343000807C00FB0C33C3F307228B185B1000E089
:1034400059E008F8043018F8043003B9ACE0079BE1
:1034500093F800C05B780CEB03239BB20493059BAD
:1034600093F800C05B780CEB03239BB20393069B9D
:1034700093F800C05B780CEB03239BB202930CE043
:10348000FFE7079800880490069800880290059846
:1034900000880390FF2008F80400BDF81000BDF874
:1034A0000C1088420CD1BDF81000BDF808108842FD
:1034B00006D1219800EB4400BDF81010018019E0FE
:1034C0000AF0FF02DDE9030111F0E6FA03900A9821
:1034D000C2B20499029811F0DFFA02907F22DDE96E
:1034E000020111F0D9FA0190219800EB4400BDF8D7
:1034F0000410018057E008990A78497802EB01210D
:103500008AB2219921F814202399052904D006298B
:1035100005D0142919D10EE00899887817E021996F
:1035200031F81410BDF82C20914201D1002100E0A7
:10353000FF2108460BE0119A07FB02F10F9A02EBFC
:10354000410106FB0711485D01E0FF2000BF00BFFD
:1035500015B9BBF1000F06DB1099491EA9420BD12A
:10356000BBF1000F08DD0A99C1F1FF014143C1F32E
:10357000072108F8041015E016B90999002906DB9F
:103580001199491EB1420AD10999002907DDCAF1F2
:10359000FF014143C1F3072108F8041002E00021B4
:1035A00008F8041000BF00BF601C04B220988442D9
:1035B000FFF672AE00BF69E62DE9F84F04468C466F
:1035C00090469946109FDDE90A56AA4600960020CB
:1035D00032E00C9941430AEB21250D994143DDF876
:1035E00000B00BEB21262A123312002A05DB6245BC
:1035F00003DA002B01DB434502DB0021395419E0DB
:10360000214603FB09FB0BEB4B0B02EB420EF34491
:10361000594491F800B091F801E00BEB0E2B1FFA22
:103620008BFEDDF83CB02BF810E091F802B007F803
:1036300000B000BF411C08B20E998842C9DBBDE84A
:10364000F88F10B502F008FA002000F031F80120E0
:1036500000F02EF8022000F02BF8002000F050F8C7
:10366000012000F04DF8022000F04AF800F002F8C6
:1036700010BD00001CB501210B4801F0B9FF6846E0
:103680000CF072FC01208DF8070000208DF804007A
:103690008DF806000120009028208DF8050069466D
:1036A00002480CF06CFC1CBD020018000008014030
:1036B0001CB504460F4951F82400012101F098FF80
:1036C00068460CF051FC01208DF8070000208DF8B1
:1036D000040010208DF80600074830F81400009010
:1036E00004208DF80500054951F8240069460CF0C6
:1036F00046FC1CBD140000200C000020000000202F
:10370000022800DD7047064931F8101031B1044934
:1037100031F81010034A52F82020116100BFF1E780
:103720000C0000200000002030B591B00446254672
:10373000A88F18B9204624F0FBFE1EE068460DF065
:10374000C1FF294668460EF073F80D4968460EF031
:1037500042F8A98F68460EF051F801220021684610
:103760000EF05EF8074968460EF039F806480390F7
:1037700000BF68460EF070F800BF11B030BD000009
:10378000B9850208AF170108BB85020870B5044669
:103790000D4600BF204600F03BF818B100BF00BF47
:1037A00000BFFEE700BF284600F050F9001D616829
:1037B00008446060204600F03AF8204670BD70B5BD
:1037C00005460C46284600F041F904F110018842F4
:1037D00001D3012070BD0020FCE70146A1F10800E3
:1037E00070477CB505460C46204600F02FF906468A
:1037F0006A4601A924F0FCF921462846DDE9003299
:103800000CF062FE7CBD0146087900F001007047B3
:1038100010B50446204600F019F908B9012010BD82
:103820000020FCE70146087900F00200704770B5FF
:103830000446204600F097F805462C60284670BDE7
:103840007CB506460C4600200190009000256CB126
:103850006A4601A9204624F0E8F901980A2805DA09
:103860006A4601A9304626F0B0F9054685B100BF89
:10387000284600F0EBF8A04203D200BF00BF00BF13
:10388000FEE700BF29463046DDE9003225F004FEA0
:1038900028467CBD70B504462046FFF7C8FF0546A4
:1038A000284600F0BEF8204600F0B6F870BD70B5AE
:1038B0000446204600F057F80546284600F0B6F8C2
:1038C000204600F0BEF870BD70B506460D4628468D
:1038D00000F049F8044600BF1CB900BF00BF00BF9C
:1038E000FEE700BF2046FFF78EFF90B100BF2846DD
:1038F000FFF78EFF18B100BF00BF00BFFEE700BF9B
:103900002146304600F076F821462846FFF73EFF74
:103910000546284670BD70B506460D462846FFF799
:1039200081FFF0B1284600F057F8044600BF1CB9EB
:1039300000BF00BF00BFFEE700BF00BF2046FFF78B
:1039400062FF18B900BF00BF00BFFEE700BF2146FD
:10395000304600F04FF829462046FFF717FF05468E
:1039600000BF284670BD2DE9F0410446204600F016
:103970006DF8061F204600F0B8F80746314624F0DF
:10398000DEFC054600BF2046FFF742FF18B100BF2E
:1039900000BF00BFFEE700BF2846BDE8F0812DE96B
:1039A000F04106460C461546002794B100BF1DB9EC
:1039B00000BF00BF00BFFEE700BF2A4621463046D9
:1039C00000F097F82046FFF772FF204600F08DF8D0
:1039D00007463846BDE8F08110B5044600BF2046D2
:1039E000FFF720FF18B900BF00BF00BFFEE700BF10
:1039F000206810BD7CB505460C46204600F026F830
:103A000006466A4601A924F0F3F821462846DDE976
:103A1000003225F041FD7CBD416841F0010141606B
:103A20007047416841F0020141607047416821F0F0
:103A3000020141607047426802F003030B43436098
:103A40007047416821F001014160704701464868B4
:103A500020F0030070472DE9F04706460C4630463B
:103A600000F043F88046211F24F069FC07463046E9
:103A7000FFF7ECFF211D451A00BF384600F035F86E
:103A80008146384600F031F880460421FFF7C5F83A
:103A9000814503D000BF00BF00BFFEE700BF00BFED
:103AA0003046FFF7D3FF2919091D884203D000BF14
:103AB00000BF00BFFEE700BF29463846FFF7BBFF47
:103AC00000BF3846FFF7C2FF0C2803D200BF00BF7B
:103AD00000BFFEE700BF21463046FFF7ACFF384687
:103AE000FFF7D8FE3846BDE8F087014601F108002F
:103AF00070472DE9F04106460C46154600BF2046AA
:103B0000FFF781FE18B900BF00BF00BFFEE700BF8E
:103B100029462046FFF753FE78B129462046FFF795
:103B20009AFF07462046FFF782FE3846FFF779FFE7
:103B300039463046FFF755FE00BFBDE8F0812DE95C
:103B4000F04106460C46154600BF2046FFF75BFED7
:103B500018B100BF00BF00BFFEE700BF29462046E6
:103B6000FFF72DFE88B129462046FFF774FF074670
:103B70003846FFF75BFF39463046FFF7A5FE07469C
:103B800039463046FFF72DFE00BFBDE8F0812DE934
:103B9000F8430646344617F0A7FB8046404617F028
:103BA000E8FB78BB304615F066F938B3304614F0C0
:103BB000DEFF208FE18E884212D0E08E2087E08EDB
:103BC00000906A461C21304615F052FC0746012F32
:103BD00002D03846BDE8F88330461DF0E3FD00BF53
:103BE000404617F0D6FB0546042D06D130461BF0A3
:103BF00021FC0746002116F05BFB09E0304615F07A
:103C00009DF905E0FFE7208FE08630461DF0CAFDF4
:103C10000120DFE72DE9F0410446204615F021FCA4
:103C2000054628461BF060FC064628460FF05CFB64
:103C3000074601223946304621F0ECFFBDE8F0810D
:103C40000146C1F3C01070470146C1F380107047B0
:103C50000146C1F3C01070470146C1F30020704710
:103C60000146C1F3C00070470146C1F340107047E0
:103C70000146C1F3402070470146C1F30030704750
:103C80000146C1F3001070472DE9F04F89B004469A
:103C90000D46002120461BF0C1FA30B91C212846F0
:103CA00019F070FC09B0BDE8F08F2946204600F0FD
:103CB0000BFB2946204600F07DF8002120461CF031
:103CC000ADFC0890002120461CF0F8FD0790002173
:103CD00020461CF090FA012800D100E00020814627
:103CE000002120461DF048F80746002120461CF020
:103CF00069FB064642F2D170874205D1608CC0F361
:103D0000802008B9012000E00020824620461BF0F8
:103D100025FB069000BF4FF000082448028841466A
:103D200020461CF07FFE03900398C0B200BF83467C
:103D3000AA6829692868CDE90209CDE900125A4626
:103D40005146089B06980CF099F9288342F2D170ED
:103D5000864205D1608CC0F3402008B9012000E004
:103D60000020059020461BF0DAFA049000BF4FF0C7
:103D700000080F480288414620461CF053FE03907D
:103D80000398C0B200BF83460023EA686968686987
:103D9000CDE90213CDE900025A46079BDDE9040193
:103DA0000CF06CF9688300BF7CE700008C000020F9
:103DB000900000202DE9F34F87B00C4607980BF0D8
:103DC0004BF9804607981BF0C9FA0690404601F06F
:103DD000D1FA20612169480019F06AF9206021694F
:103DE000480019F065F9A060002548E058480290A5
:103DF00038F9150041F69A7188423FD100200190B0
:103E000029E0019907981BF009FA009051490098A0
:103E10001DF053F900B11BE000980BF03BF982460E
:103E2000BAF1010F00D013E000980BF023F983469C
:103E3000AB4500D00CE000981DF0D7F802998842FD
:103E400001DA029802E000981DF0CFF8029000BF5E
:103E50000198401C019007981BF0FEF901998842D7
:103E6000CFD80298002804DB0298A16821F8150039
:103E700003E00021A06820F8151000BF6D1C206928
:103E8000A842B3D80026B14600251BE038F915003A
:103E900041F69B71884202DB411A0E4411E041F663
:103EA0009A71884206D1A16831F8151049440FFA79
:103EB00081F906E0A16821F8150009EB00010FFA6D
:103EC00081F96D1C2069A842E0D8002107981CF0F8
:103ED000A5FB05902169491EDDE9050200FB1120C3
:103EE00000B206900698A0EB090007B2002F00DA96
:103EF00000274FF0FF30049000200390002513E0CE
:103F000038F9150041F69B7188420CDB421A11B258
:103F100007FB01F2B2FBF6F212B2A36823F81520F8
:103F20000495039100BF6D1C2069A842E8D804984D
:103F300000280ADB0398301A7843B0FBF6F0381AF1
:103F400001B2A268049822F8101009B0BDE8F08F01
:103F500001E0FFFF010006002DE9FC5F054600229D
:103F6000114628461EF08CFD002128461CF0ABF9B6
:103F70008146002128461CF0B9FC484407B20021C4
:103F800028461CF0BBFA48440FFA80FA28461CF079
:103F90009FF8384450440FFA80FB3B4E28461BF0F4
:103FA0005BF901904FF000085CE0A868006850F8E9
:103FB0002840364920461DF080F800B150E02046E8
:103FC0001DF068FC002839D1002120461CF0B1F812
:103FD0000090009830B1012807D0022804D00328AF
:103FE00015D100E000BF00BF00BFB4F91A10B5F949
:103FF0001600081A401CB04201DA304605E0B4F958
:104000001A10B5F91600081A401C06B214E0002177
:1040100020461CF0E1FE70B904F114000EF0E5F941
:104020003844B04201DA304604E004F114000EF0E6
:10403000DCF9384406B200BF00BF10E0B4F91A1032
:10404000B5F91600081A401CB04201DA304605E006
:10405000B4F91A10B5F91600081A401C06B200BFD0
:1040600008F10108019880459FD30748864209D08E
:1040700006EB0A0006B25E4502DD3046BDE8FC9F55
:104080005846FBE75846F9E701E0FFFF010004004E
:104090002DE9FC5F05460022114628461EF0D4FC9F
:1040A000002128461CF00FF98246002128461CF00A
:1040B00075FB50440FFA80F8002128461CF0DEFA08
:1040C00050440FFA80F928461CF012F84844404446
:1040D00000B20190724C28461BF0BEF883460021C6
:1040E00028461CF064F8012866D100265BE0A86829
:1040F000006850F826706B4938461CF0DEFF00B1AE
:1041000050E038461DF0C6FB002839D10021384662
:104110001CF00FF80090009830B1032805D0062855
:1041200004D0082815D102E000BF00BF00BFB5F9D8
:104130001800B7F91410401A401CA04201DA2046BA
:1041400005E0B5F91800B7F91410401A401C04B284
:1041500014E0002138461CF033FE70B907F114005A
:104160000EF0AFF94044A04201DA204604E007F126
:1041700014000EF0A6F9404404B200BF00BF10E0E6
:10418000B5F91800B7F91410401A401CA04201DA22
:10419000204605E0B5F91800B7F91410401A401C84
:1041A00004B200BF761C5E45A1D33D48844269D06D
:1041B00004EB090004B265E000265BE0A868006833
:1041C00050F82670374938461CF077FF00B150E0B0
:1041D00038461DF05FFB80BB002138461BF0A9FF6D
:1041E0000090009830B1012805D0042804D0072899
:1041F00015D102E000BF00BF00BFB7F91800B5F944
:104200001410401A401CA04201DA204605E0B7F91C
:104210001800B5F91410401A401C04B215E0002132
:1042200038461CF0D9FD78B907F114000EF049F9B1
:104230004844A04202DA204605E008E007F11400F5
:104240000EF03FF9484404B200BF00BF10E0B7F9D8
:104250001800B5F91410401A401CA04201DA20469B
:1042600005E0B7F91800B5F91410401A401C04B263
:1042700000BF761C5E45A1D30948844202D004EBFE
:10428000080004B20648844202D10198BDE8FC9FB0
:104290000198844201DD2046F8E70198F6E7000026
:1042A00001E0FFFF0100040010B50446206818F08B
:1042B0007BFF606818F078FFA06818F075FFE06871
:1042C00018F072FF10BD00002DE9F34F87B00C46C7
:1042D00007980BF087FC8046404601F04BF8606180
:1042E0006169480018F0E4FE60606169480018F0F8
:1042F000DFFEE060002547E05948029038F91500DC
:1043000041F69A7188423ED14FF0000A29E05146A9
:1043100007981AF083FF0190524901981CF0CDFED6
:1043200000B11CE001980BF01DFD8346BBF1010FAD
:1043300000D014E001980BF005FD00900098A84211
:1043400000D00CE001981BF07FF80299884201DA56
:10435000029802E001981BF077F8029000BF0AF182
:10436000010A07981AF078FF5045D0D80298002823
:1043700004DB0298E16821F8150003E00020E16801
:1043800021F8150000BF6D1C6069A842B4D8002652
:10439000B14600251BE038F9150041F69B718842B3
:1043A00002DB411A0E4411E041F69A71884206D1AF
:1043B000E16831F8151049440FFA81F906E0E16827
:1043C00021F8150009EB00010FFA81F96D1C6069F5
:1043D000A842E0D8002107981CF070FA06900798D0
:1043E0001AF09DFF01466269521E069800FB1210EA
:1043F00000B205900598A0EB090007B2002F00DA83
:1044000000274FF0FF30049000200390002513E0B8
:1044100038F9150041F69B7188420CDB421A11B243
:1044200007FB01F2B2FBF6F212B2E36823F81520A3
:104430000495039100BF6D1C6069A842E8D80498F8
:1044400000280ADB0398301A7843B0FBF6F0381ADC
:1044500001B2E268049822F8101009B0BDE8F08FAC
:1044600001E0FFFF0100060038B5044600256D227B
:10447000294620461CF0D6FA0090009800B208B1F8
:10448000022038BD00256C22294620461CF0CAFABD
:104490000090009800B2B0F5807F01D00220F0E7D4
:1044A000002120461BF0EEFFFF2801D00120E8E7A5
:1044B00000256722294620461CF0B4FA0090009897
:1044C000C0B208B10120DCE70020DAE77CB5044681
:1044D0000D46164628882189084400B2ADF8000030
:1044E00068886189084400B2ADF80200A888218973
:1044F000084400B2ADF80400E8886189084400B2BD
:10450000ADF80600324669462046636998477CBD8F
:10451000F8B505460E462C46A06B58B1284621F04A
:1045200065FF0746114909688847A16B884201D396
:104530000020F8BD606B10B1606B007808B90120F5
:10454000F7E7002000900AE06946094A606B1268AC
:1045500090470746B74201D10120EAE700BF606BF0
:104560000099405C0028EFD100BFE2E7BC010020C9
:10457000AC0100202DE9FF4F8FB00F46209DF87849
:1045800000F0010008B1FD4800E0FD480E90F87809
:1045900000F0010008B1FB4800E0FB480D90F878FE
:1045A00000F0010008B9F74800E0F7480C9001203E
:1045B0000B90BEE000210B9100206988B5F804C083
:1045C000A1EB0C010AB200261AE006EB860CE968A2
:1045D00001EB8C01097C01F0010141B906EB860C6D
:1045E000E96801EB8C018989014408B207E006EB18
:1045F000860CE96801EB8C010989511A0AB2761C14
:104600002969B142E1D800268EE006EB860CE96804
:1046100001EB8C01097C01F0010100297DD100BF73
:1046200018B900BF00BF00BFFEE700BF92FBF0F863
:104630000FFA88F306EB8609D5F80C8008EB890899
:10464000B8F80C8008FB03F80FFA88F106EB86092E
:10465000D5F80C8008EB8908B8F9049006EB860AB7
:10466000D5F80C8008EB8A08B8F90680884501DD8A
:10467000884607E006EB860AD5F80C8008EB8A0826
:10468000B8F90680C14508DD06EB8609D5F80C802F
:1046900008EB8908B8F9048013E006EB8609D5F821
:1046A0000C8008EB8908B8F90680884501DD88464A
:1046B00007E006EB8609D5F80C8008EB8908B8F905
:1046C0000680C4468C450BD04FF0010806EB860AE5
:1046D000D5F80C9009EB8A09C9F81080CDF82C8028
:1046E00006EB8609D5F80C8008EB8908A8F808C005
:1046F00006EB8609D5F80C8008EB8908B8F80C8021
:10470000A0EB08080FFA88F006EB8609D5F80C80B4
:1047100008EB8908B8F8088000E004E0A2EB08087C
:104720000FFA88F200BF761C2969B1423FF66DAFDF
:1047300000BF0B9800287FF43DAF00210F981BF0BD
:104740004EFD012800D100E000200A9000200990D1
:10475000089008A809A9CDE9001029890BB2B5F97C
:10476000022038781E9923F0EDFDF87800F0010062
:1047700048B10A9838B10F981AF0F0FDBDF824102E
:10478000084400B2099011990F981AF047FD0446A9
:1047900087E17E4920461CF090FC40B1F878C0F3D8
:1047A000800111AA0F980BF04EF8044679E1002120
:1047B00020461BF0DFFD07900798002858D0002006
:1047C0000390002610E006EB8601E86850F821000F
:1047D000A04208D106EB8601E86800EB8100B0F941
:1047E0000800039003E0761C2869B042EBD800BFB4
:1047F000F87800F0010030B1608C20F4806000F5A2
:104800008060608405E0608C20F4007000F500702A
:10481000608404F114000D9988470399884226D0DA
:1048200020461CF0BFFF00BFA08AADF80400E08A5C
:10483000ADF80600208BADF80800608BADF80A00DB
:1048400000BF04F114000E9A0399904701AA292190
:10485000204614F00DFE20461AF046FE2246222184
:10486000009014F005FE20461CF09CFF00BF07E0FE
:10487000608C20F480606084608C20F40070608420
:10488000002006907878012812D0022819D104F16E
:1048900014000C998847B5F90010491C21F001015A
:1048A000081A039000EBD070401000B2069009E0A7
:1048B00004F114000C9988472988081A00B2069060
:1048C00000E000BF00BFF87800F0010050B10A9886
:1048D00040B104F114000D998847BDF82410081A5E
:1048E00000B20990002003906A22204603991CF030
:1048F00099F8029002980FFA80F800BF0020039008
:104900006B22204603991CF08DF8029002980FFA52
:1049100080F900BF20461CF068FB059020461AF085
:1049200093FD049008F4C040B0F5005F01D1012070
:1049300000E0002030B128F4C040B0F5FA6F01DC8F
:10494000012000E0002090B128F4C040B0F57A7F4B
:1049500004DD28F4C040C0F57A7001E028F4C040BE
:1049600005994843642190FBF1F00FFA80F809F4AF
:10497000C040B0F5005F0BD101200AE00F2601080E
:10498000032601084F2501083F2401080100060005
:10499000002030B129F4C040B0F5FA6F01DC0120ED
:1049A00000E0002090B129F4C040B0F57A7F04DD2A
:1049B00029F4C040C0F57A7001E029F4C0400499A0
:1049C0004843642190FBF1F00FFA80F9A18A1C980A
:1049D000401A40440FFA80FAE18A1D98401A484470
:1049E0000FFA80FBF87800F0010010B1BDF9240047
:1049F00000E0069850440FFA80FAF87800F00100C1
:104A000008B1069801E0BDF9240058440FFA80FB74
:104A1000BAF1000F02D1BBF1000F1BD020461CF0F1
:104A2000C1FEA08A504400B2A082208B504401B243
:104A30002183E08A584401B2E182608B584401B27C
:104A4000618320461CF0AEFE00235A4651462046A4
:104A50001CF080FFF87800F0010008B10A9870B9E6
:104A600004F114000D9988471F990844BDF82010DF
:104A70000844BDF82410084400B2099008E0BDF8CD
:104A800020101F980844BDF82410081A00B209909D
:104A9000F878C0F3800111AA0F980AF0D4FE0446FA
:104AA00000BF24B1DDE9111081427FF472AE13B072
:104AB000BDE8F08F2DE9F04F8DB005468946B9F17C
:104AC000000F02D10DB0BDE8F08FA5F8189028684E
:104AD00010B1286818F080FB09EB4901062202EBAF
:104AE000410018F09BFA286000BF286818B900BF81
:104AF00000BF00BFFEE700BF286868600221286889
:104B000001FB0900801CE8600421286801FB090002
:104B1000001DA860B9F1010F0CD1B42069680870BC
:104B20000020E96808800120E96848800020A96821
:104B30000880C7E709F10101C80018F0B9FA074673
:104B400009F1010007EB80084FF0000A4FEA8900E5
:104B500002B20BA90CA800F067F90024BDF93000DF
:104B60008010079000200390CCE0002616E00BA9EF
:104B70000CA800F061F90CA800F04BF900B90FE0A7
:104B8000BDF93000801007A941F82600BDF83000BB
:104B900000F0030003A941F82600761C042EE6DB92
:104BA00000BF042E00D0B3E00A990798884219D1BB
:104BB000079800B227F814000FFA8AF028F81400BA
:104BC000DDE9030108440599084406990844696829
:104BD00008556868005D0007000E69680855601C8C
:104BE00004B28DE0DDE9070188422CD0079800B2BD
:104BF00027F814000FFA8AF028F81400039869685F
:104C000008556868005D0007000E69680855601C5B
:104C100004B20798401E00B227F814000FFA8AF079
:104C200028F814000498001D0599084406990844C2
:104C3000696808556868005D0007000E69680855D6
:104C4000601C04B25CE00999079888422CD0079850
:104C500000B227F814000FFA8AF028F81400DDE9F2
:104C600003010844696808556868005D0007000E84
:104C700069680855601C04B20798401E00B227F806
:104C800014000FFA8AF028F81400059808300699E5
:104C90000844696808556868005D0007000E696887
:104CA0000855601C04B22BE0079800B227F81400E6
:104CB0000FFA8AF028F81400DDE903010844059989
:104CC0000844696808556868005D0007000E696857
:104CD0000855601C04B20798401E00B227F8140063
:104CE0000FFA8AF028F8140006980C306968085505
:104CF0006868005D0007000E69680855601C04B212
:104D00000AF1010A0CA800F084F800287FF42DAF06
:104D100000BF40F2D32109FB01F0029002988012FB
:104D20000190601E37F910100198814205D1601E74
:104D300038F910100198814226D0DDE90121A1EB5C
:104D40008220B0F5007F04DC00FB00F14800001475
:104D500007E0C0F5806000FB00F148000014C0F1DE
:104D60000F00019909B227F81410019909B228F827
:104D700014106A6810556968095D0907090E6A68A8
:104D80001155611C0CB200BFA61E0EE038F81600CB
:104D900027F8140037F8160028F814006868805DBA
:104DA00069680855761E601C04B2002EEEDA4FF0DA
:104DB000000B00260020E968088023E0E96821F85C
:104DC0001B6037F81600A96821F81B0010E0A868DE
:104DD00030F81B0037F91610884203DAA86830F85B
:104DE0001B0001E037F91600A96821F81B00761CAA
:104DF00038F91600584501D1A642E8DB0BF1010055
:104E00000FFA80FBA642D9DB384618F0CDF900BF77
:104E100058E60146B1F90200B1F90020904201DCE8
:104E2000012070470020FCE7028000234380C2F18C
:104E300001031BB20B807047B1F90020002A07DC88
:104E40000B8842885200D21C1A4412B20A800CE02D
:104E500042880388D21A5200521D0B881A4412B29B
:104E60000A800288521E12B202804288521C12B27C
:104E70004280704737B582B01546022D04DCBDF87C
:104E80000C10084605B030BDBDF80C00C00ABDF8D6
:104E9000081000EBD1241F2C01D2204600E01F2077
:104EA000BDF8081060F3CF210291BDF80C00C0F3EB
:104EB0004510BDF80810C1F3451144183F2C01D22C
:104EC000204600E03F20BDF8081060F34A1102912F
:104ED000BDF80C0000F01F00BDF8081001F01F0124
:104EE00044181F2C01D2204600E01F20BDF80810F6
:104EF00060F304010291FF2D03D1BDF808100846AC
:104F0000C0E72A46DDE902010FF0A4FD0190BDF8DB
:104F100004100846B6E717B581B01446022C04DC2D
:104F2000BDF80810084604B010BDBDF80400C00A62
:104F3000BDF80810C90A10FB01F04109BDF80400D2
:104F400061F3CF200190BDF8040000F01F00BDF810
:104F5000081001F01F0110FB01F04109BDF8040029
:104F600061F304000190BDF80400C0F34510BDF8E2
:104F70000810C1F3451110FB01F08109BDF80400D0
:104F800061F34A100190FF2C03D1BDF804100846CC
:104F9000C9E72246DDE901010FF05CFD0090BDF894
:104FA00000100846BFE737B582B01546022D04DC75
:104FB000BDF80C10084605B030BDBDF80C00C00AA5
:104FC000BDF80810A0EBD124002C01DD204600E044
:104FD0000020BDF8081060F3CF210291BDF80C004D
:104FE000C0F34510BDF80810C1F34511441A002C58
:104FF00001DD204600E00020BDF8081060F34A11F2
:105000000291BDF80C0000F01F00BDF8081001F07F
:105010001F01441A002C01DD204600E00020BDF8ED
:10502000081060F304010291FF2D03D1BDF80810B0
:105030000846C0E72A46DDE902010FF00BFD0190AA
:10504000BDF804100846B6E708B50346009300987B
:10505000484080EA620008BD2DE9FC5F8246504668
:1050600014F0FFF90190504614F08AF906460198B1
:105070001AF03AFA0746BB462B2E09D1384620F0E3
:10508000BCFD044600222146384620F0C3FD5FE007
:105090000A2E5DD116F028F98046B8F1000F05D030
:1050A00098F80400012801D1BDE8FC9F69460198E9
:1050B0001AF09CFA9BF82C0000F00C00F8B1019853
:1050C0001AF04CF90546002138461BF0A0F80128DB
:1050D0000AD1284605EBD071BDF90020C2EB610171
:1050E00091FBF5F10CB209E0284605EBD071BDF952
:1050F000002002EB610191FBF5F10CB20EE001988A
:105100001AF00DF90546284605EBD071BDF90220CD
:1051100002EB610191FBF5F10CB200BF002C00DA4B
:1051200000244FF00009384620F067FDA04201D06E
:105130004FF0010901222146384620F06BFDB9F1FC
:10514000000F04D000221C21384614F091F900BF52
:1051500000BFA9E710B58060C06000230361002193
:1051600010E0002400F1140343F82140002206E07F
:1051700000F13C0303EBC11343F82200521C202A28
:10518000F6DB491C0A29ECDB10BD2DE9FF4F87B087
:105190000546DDE9178ADDF85890149F089CB9F19F
:1051A000040F02D0B9F1060F58D128460DF078F956
:1051B00083465946504618F01CFAB5F90200784368
:1051C0004100B5F9000001EB4000044428460DF011
:1051D000A2F90590059840000490780000B2039071
:1051E000CDF80880B5F902600DE02146049A0298D6
:1051F00018F046F8039804440599029800EB410022
:105200000290701C06B2B5F90600B042EDDAB9F1B1
:10521000060F22D14FF47F414FF0000C01F47C4E79
:105220004CEA5E1CC1F3C40E4CEA0E0CCDF800C073
:10523000BDF800E0F446CDF804C04246BDF80430A5
:10524000002007E032F81010994202D100210AF83C
:105250000010401C5845F5D300BF88E0B9F1050F98
:1052600041D1B5F90200784300EB4000B5F90010D8
:1052700001EB41010844044428460DF04CF9381A6A
:1052800000B20590059800EB400000B2049028465B
:105290000DF0C7F8039028460DF03DF9834600262F
:1052A0001DE00020069010E0A17806980AF8001092
:1052B0002078617800EB012081B2069828F8101060
:1052C000E41C0698401C00B2069006985845EBDB9B
:1052D00008EB4B08DA4404980444701C06B20398A7
:1052E0008642DEDB43E0B9F1140F40D1B5F902008C
:1052F00078434100B5F9000001EB40000444780018
:1053000000B2059028460DF08CF8049028460DF068
:1053100002F9834600260BE04FEA4B022146404645
:1053200017F0AEFF08EB4B0805980444701C06B25A
:1053300004988642F0DB089C099841000A9801FB1A
:105340000044B5F90000B5F9021007FB0100044460
:10535000002608E05A462146504617F091FFDA44ED
:105360003C44701C06B204988642F3DB00BF0BB0CD
:10537000BDE8F08F0146002000E0401C31F910200C
:1053800041F6FF739A42F8D170470000034949681B
:1053900060F30711014A516070470000001002409D
:1053A0000349496860F30A21014A516070470000CF
:1053B000001002400349496860F3CD21014A516061
:1053C0007047000000100240012807D10749496DCD
:1053D00021F030013031054A516505E00349496D3E
:1053E00021F03001014A5165704700000010024071
:1053F000052827D2DFE800F0030A11181F00134A1E
:10540000126861F30002114B1A601CE00F4A126827
:1054100061F310420D4B1A6015E00C4A126861F3FB
:1054200018620A4B1A600EE0084A126A61F3000221
:10543000064B1A6207E0054A526A61F30002034B09
:105440005A6200E000BF00BF704700000010024039
:105450002DE9F04101460027002200259046002357
:10546000002400F06FF9064626B1012E12D0022E5C
:1054700043D112E03948406DC0F3402038B137487D
:10548000006BC0F3406010B13548086001E035485A
:10549000086035E03348086032E030484068C0F3C7
:1054A00000482E484068C0F383422C484068C0F34F
:1054B00041750DB90F2A03D12801401C024400E0B8
:1054C000921CB8F1000F03D127485043086013E045
:1054D00022484068C0F3404058B12048406DC0F3B6
:1054E0000137B81CDFF87CC0BCFBF0F0504308600B
:1054F00002E01C485043086002E01A48086000BF00
:1055000000BF16484068C0F303131848C45C08681D
:10551000E040486011484068C0F302231448C45C6E
:105520004868E040C8600D484068C0F3C223114895
:10553000C45C4868E040886008484068C0F3007375
:1055400006484068C0F3813040EA83030A48C45CDF
:105550008868B0FBF4F00861BDE8F08100100240FB
:10556000006CDC0200127A0000093D00DEDD02085A
:10557000EEDD0208F6DD0208FEDD020810B5014688
:105580000020094B03EB1142126801F01F040123B4
:10559000A3401A4001F01F040123A3409A4200D007
:1055A00000E0012010BD0000001002400349496DD9
:1055B00060F30D31014A5165704700000010024050
:1055C00030B50024002500E0641C1120FFF7D6FF51
:1055D000012802D0B4F5405FF6D31120FFF7CEFFCB
:1055E000012801D0002500E00125284630BD00003B
:1055F00010B501290DD10E4B03EB1042126800F0DB
:105600001F040123A3401A43094C04EB10431A6002
:105610000CE0074B03EB1042126800F01F0401235B
:10562000A3409A43024C04EB10431A6010BD0000E3
:105630000010024010B568B91C4B5B6823F480333E
:105640001A4C636023461B6B23F0007303F1007355
:10565000236317E0154B5B6823F4803303F5803335
:10566000124C6360012805D123465B6823F40033A4
:10567000636007E00D4B5B6823F4003303F50033F0
:105680000A4C6360094B5B6861F39543074C6360A8
:105690000C09064B5B6864F35E73044C636023463D
:1056A0005B6862F3DF73636010BD000000100240AE
:1056B0001348006820F00100401C1149086000BF39
:1056C0000F480068C0F340000028F9D00C4840683B
:1056D00020F003000A49486000BF09484068C0F351
:1056E00081000028F9D106480068064908400449AD
:1056F00008600020486008634FF41F00886070470E
:1057000000100240FFFFF2FE0D49496860F30101FD
:105710000B4A516000BF00BF00BF00BF00BF00BF09
:1057200000BF00BF00BF00BF00BF00BF00BF00BF81
:1057300000BF00BF00BF00BF00BF00BF7047000038
:105740000010024002484068C0F38100704700002A
:10575000001002407CB506460D4634465420005DDC
:1057600000F00100A84233D00DB1012000E000207C
:105770005421095D60F300015420015504F14801F2
:1057800068460CF029FEBDF80000616A898A084469
:1057900000B2ADF80000BDF80210606AC08A08448B
:1057A00000B2ADF80200BDF80400616A898A0844BD
:1057B00000B2ADF80400BDF80610606AC08A084463
:1057C00000B2ADF80600694630461CF015F800BF7F
:1057D0007CBD37B582B005461446214603980EF0CD
:1057E000DBFF0190BDF80410084605B030BD2DE97F
:1057F000FF4F8DB007460D461646E87A022803DCB7
:10580000012011B0BDE8F08F28892A6901460C906B
:105810001098FBF731FF04460CB90020F1E7217D19
:1058200001F01F0014F0B5FD10B14FF0060818E0AC
:10583000207D00F01F000E2801D1804611E0207D60
:1058400000F01F00142801D180460AE0217D01F0FC
:105850001F0014F081FD10B14FF0050801E04FF07A
:105860000408B8F10E0F09D1288818B96888B0F576
:10587000807F03D04FF005080020A061206A38B176
:1058800000BF00BF31463846226A24F09FFBDEE0AD
:10589000A069002859D031460BA80CF055FD288886
:1058A00018B96888B0F5807F32D030460CF017FE0A
:1058B000834600BFF0887188401A401C00B20890EF
:1058C000281D6988CDE90010B5F9003059460BA8AC
:1058D000089AFBF7CBFDBDF82C003188084400B2D4
:1058E000ADF82C00BDF82E007188084400B2ADF868
:1058F0002E00BDF830003188084400B2ADF8300009
:10590000BDF832007188084400B2ADF8320000BF23
:105910000BAA09A8B968FBF7B3FA8146B9F1000FE1
:1059200004D1204601F071FC01206AE7D7F808A0F5
:1059300009A8B860CDF80080324629463846A369E8
:1059400010F06EF9C7F808A081E032460BA8B968DC
:10595000FBF796FA0A900A9820B9204601F055FC08
:1059600001204EE70BA80CF0BAFD09900BA80CF033
:10597000B6FD00EB4000039017F09AFB8146D7F884
:1059800008A00BA907A80CF0DFFC012107A80CF068
:1059900038FEBDF92C00B6F90010401A0690BDF98A
:1059A0002E00B6F90210A0EB010BBDF92E000590F8
:1059B00042E007AA514602A8FBF762FA0A900A9849
:1059C00000B936E0CDF80090099803B20FFA8BF2D7
:1059D000069801B2204615F00BFA049004980128AD
:1059E0000ED0204615F024F900BF00BF484617F03E
:1059F000DBFB204601F009FCC7F808A0002000E707
:105A000002A8B8604B4607AA29463846CDF8008060
:105A100010F006F9BDF81E00401C00B2ADF81E00E3
:105A2000BDF82200401C00B2ADF822000BF1010BC2
:105A300000BF0598401C0590BDF9321005988142C1
:105A4000B7DAC7F808A0484617F0AEFB00BF2046FB
:105A500001F0DBFB0120D4E610B5042026F0BAFAF1
:105A6000074800680749B0FBF1F00749086008469D
:105A700000684FF47A7148430449086010BD000083
:105A80003000002040420F002000002024000020B1
:105A9000002131E032280ADD194A126832235A43C4
:105AA0004FF0E0235A61A0F1320290B206E0144AAE
:105AB000126842434FF0E0235A61002000224FF069
:105AC000E0239A611A46126942F001021A6100BF8E
:105AD0004FF0E022116901F001021AB101F48032A5
:105AE000002AF5D04FF0E022126922F001024FF0B7
:105AF000E0231A6100229A610028CBD17047000090
:105B0000240000202DE9F84380460C461546134832
:105B10000078E8B1608887B215E0208886B20CE092
:105B200028880090BDF8000081464A463946304634
:105B3000FAF793FDAD1C701C86B2B4F90400B042B4
:105B4000EEDA781C87B2B4F90600B842E5DA00BF95
:105B500040460FF011FDBDE8F8830000340000203E
:105B600010B5FAF7BFFD4FF4005102480AF0FAF9F8
:105B700010BD000000140140F8B505462C4615F094
:105B8000B3FB0646206B20F049FE3168898B8842C2
:105B90002CD2606A009094F83C0000F0030020B121
:105BA000012806D002280CD107E00020ADF8000043
:105BB00007E064208DF8020003E064208DF8030004
:105BC00000BF00BF304615F08EFC284600990FF04C
:105BD0005EFB50B100221C21284613F049FC074609
:105BE000012F01D03846F8BD00BF00BF20F024FED1
:105BF00020630120F7E700002DE9F04F9BB0074636
:105C000089461646BA4617A80FF086FD4FF4A02124
:105C100038461AF0A5FA9DF8691060F382018DF8F4
:105C2000691030460CF09AFC054600EBD5704FEA3F
:105C300060083088404400B2ADF858007088404495
:105C400000B2ADF85A00002138461AF027FC159032
:105C5000494603A819F098F817A80B904FF40030A4
:105C6000109033480490002005900AF13000FBF7B3
:105C700027FE044657E02079032800D04DE0208B12
:105C8000ADF85C00208A00B2ADF85E006079FD28B6
:105C900001DD159803E060791599484300128DF8ED
:105CA00068002568B5F92000E98B08440090B5F933
:105CB0002030D5E90512A06817F08CF98346B5F9B4
:105CC0002000E98B08440090B5F92030D5E9051291
:105CD000E06817F07FF90290608B404400B2ADF8A5
:105CE0004800149416A80C9003AA1A21384613F001
:105CF000BFFB029880B21FFA8BF1CDE90010BDF80E
:105D0000480083B216AA17A948460FF0E7FC03AA79
:105D10001B21384613F0ACFB00BF21460AF13000CE
:105D2000FBF7C8FD0446002CA5D11BB0BDE8F08FE1
:105D300018E5020870B504460D46002229462046A3
:105D400007F01EFE01222946204607F019FE022216
:105D50002946204607F032FC04222946204607F057
:105D60002DFC70BD2DE9F74F9EB00C46E07802285F
:105D700002DC21B0BDE8F08F1CA820990CF0FFFADE
:105D8000B4F9200001282EDD94F82200FD282ADB3A
:105D9000208840B3BDF8700014F8231F4908C1F3F0
:105DA0008001084400B2ADF87000BDF8720021789F
:105DB0004908C1F34001084400B2ADF87200BDF8D3
:105DC000740021784908C1F3C001401A00B2ADF84F
:105DD0007400BDF8760014F82319C1F34001401A8D
:105DE00000B2ADF876001E981CA982681AA8FBF7CD
:105DF00047F800B9BDE7E07B00F0070616B9A088B8
:105E0000199001E0E0881990BDF864106089814222
:105E100000D100261CA810F0DDFE18901C2111A84E
:105E2000FAF739FBA0788DF85D00BDF86400ADF895
:105E30004C00189860B9208850B94EB91CA8119030
:105E4000E0788DF85C0011A91E9811F07BFD90E7B9
:105E5000E078FD2801DBFF2000E0E07810901CA82E
:105E60000CF06EFB0F901CA80CF0E2FA0E90DDE92E
:105E70000E01814201DA0F9800E00E980D90B4F9FE
:105E800000100D98B1EB600F02DAB4F9000001E0E8
:105E90000D98401007461AA80CF052FB81464FF0AF
:105EA000FF300C9000200B90002F01DC189870B18F
:105EB000484617F0FDF80B9000233AB21CA905A83C
:105EC00011F000FA002105A810F086FB0C90BDF837
:105ED0006800ADF80C00BDF86C00ADF810000B9830
:105EE000149003A811901690FF208DF85C00A01D5F
:105EF000DDE90E2113F0F6FF8046B8F1000F0CD05B
:105F0000022E0AD1BDF96810D8F8080000EB410054
:105F1000BDF97010A0EB410012901898A0B3BDF924
:105F20006A502CE028B2ADF80E0028B2ADF812008D
:105F30004A4610990B9817F0EBFABDF968100FFA62
:105F400089F32AB20B9810F0F5FD8DF854009DF8F6
:105F50005400012802D102208DF85400012E09D1ED
:105F6000BDF97210691AD8F8080000EB41000088EA
:105F7000ADF84C0011A91E9811F0E4FC6D1CBDF9A0
:105F80006E00A842CEDACCE0FFE700255CE0BDF869
:105F9000720028440FFA80FABDF87600401B0FFA11
:105FA00080FBBDF96A00504504DDBDF96E0058451F
:105FB00000DA48E04A4610990B9817F0A9FABDF9A3
:105FC0000C100FFA89F352460B9810F0B3FD8DF8C0
:105FD00054009DF85400012802D102208DF854008D
:105FE000BDF96A00504514DCADF80EA0ADF812A062
:105FF000012E0AD1BDF97210AAEB0101D8F80800F0
:1060000000EB41000088ADF84C0011A91E9811F07A
:1060100099FCBDF96E00584514DBADF80EB0ADF833
:1060200012B0012E0AD1BDF97210ABEB0101D8F804
:10603000080000EB41000088ADF84C0011A91E9843
:1060400011F080FC00BF6D1CBD42A0DBBDF87000EC
:10605000ADF80400BDF87400ADF80800BDF872009A
:10606000384400B2ADF80600BDF87600C01B00B29F
:10607000ADF80A0001A810F0ADFD00900098B0B98D
:10608000AEB9BDF87200384400B2ADF80E00BDF8EC
:106090007600C01B00B2ADF8120010988DF85C00BD
:1060A0000020149011A91E9811F04CFC38E01098B3
:1060B0008DF85C0001208DF85400BDF97600A0EB4E
:1060C000070ABDF97200C51927E0009870B14A4669
:1060D00010990B9817F01CFABDF968100FFA89F3A4
:1060E0002AB20B9810F026FD8DF8540028B2ADF8B6
:1060F0000E0028B2ADF81200012E09D1BDF97210C0
:10610000691AD8F8080000EB41000088ADF84C008F
:1061100011A91E9811F016FC6D1C5545D5DD00BF68
:1061200000BF0B9810B10B9817F03EF80C98401C6C
:1061300028B10C9811F0AEF905A810F027FDB8F1C0
:10614000000F02D0404613F0C4FE00BF11E62DE957
:10615000F04F91B006460C461546206910B911B0B3
:10616000BDE8F08FA07E022800DCF8E729460FA8E2
:10617000B268FAF785FE00B9F1E7D6F808800FA8F3
:10618000B060206915F097F80746022F55D100201E
:1061900041F6FF71CDE90001029003460EA8D4E953
:1061A000041220F01BFF28460CF0CAF9824600EBCF
:1061B000DA70298801EB6000BDF9389009EBD971DC
:1061C000A0EB610000B2ADF83000BDF83000BDF8C2
:1061D00038100844401E00B2ADF8340028460CF0D8
:1061E00027F9824600EBDA70698801EB6000BDF99F
:1061F0003A9009EBD971A0EB610000B2ADF8320022
:10620000BDF83200BDF83A100844401E00B2ADF8A7
:10621000360004A810F0F0F860690490208BADF807
:106220001C00A07E8DF82A00002000900CAA04A972
:10623000304623690FF028FDB0E00EA9206914F064
:1062400023FD8146B9F1010F7DD108A80FF0FFFCB5
:10625000A0788DF82C00208BADF82800E07E8DF81A
:106260002A00A07E8DF82B00207FE8BB28460CF08A
:1062700067F9834600EBDB70298801EB60000E991B
:10628000C1F38A2A0AEBDA71A0EB610000B2ADF823
:10629000180028460CF0CCF8834600EBDB706988C8
:1062A00001EB60000E994FEA515A0AEBDA71A0EB4C
:1062B000610000B2ADF81A00BDF818000E99C1F3E4
:1062C0008A210844401E00B2ADF81C00BDF81A0037
:1062D0000E9900EB5150401E00B2ADF81E0006AA08
:1062E00008A93046236900E002E00FF061FC51E0AC
:1062F0006888ADF81A00BDF81A000E9900EB5150ED
:10630000401E00B2ADF81E003DE02888ADF8180030
:10631000BDF818000E99C1F38A210844401E00B24E
:10632000ADF81C0019E006AA08A9304623690FF051
:106330003FFCBDF818000E99C1F38A21084400B251
:10634000ADF8180000E026E0BDF81C000E99C1F37E
:106350008A21084400B2ADF81C00BDF91800B5F957
:1063600004108842DFDDBDF81A000E9900EB515091
:1063700000B2ADF81A00BDF81E000E9900EB5150A6
:1063800000B2ADF81E00BDF91A00B5F9061088423A
:10639000BBDD00BF01E000BF00BF00BFC6F8088042
:1063A00000BFDCE62DE9F04F87B083460C46164669
:1063B00094F82200022802DC07B0BDE8F08F208CA0
:1063C00000B9F9E794F82300C0F3440000B9F3E7FB
:1063D00094F8230000F0010000B1EDE730460CF026
:1063E000AFF8814630460CF023F80746B4F9005068
:1063F000B94501DA484600E038468246B5EB6A0FF7
:1064000001DD4FEA6A05314605A80BF0B8FFBDF97A
:10641000141094F82300400800F0040010B1B4F9FF
:10642000200003E0B4F9200028444042084400B2B0
:10643000ADF81400BDF9181094F82300400800F0DE
:10644000080010B1B4F9200003E0B4F9200028449A
:106450004042081A00B2ADF81800BDF9161094F8C1
:106460002300400800F0020010B1B4F9200003E05E
:10647000B4F9200028444042084400B2ADF81600A8
:10648000BDF91A1094F82300C0F3400010B1B4F91C
:10649000200003E0B4F9200028444042081A00B26A
:1064A000ADF81A00208C281A0FFA80F8B8F1000F06
:1064B00001DA4FF00008A07894F82210CDE902101C
:1064C000E08BADF804002BB205AA31465846CDF852
:1064D000008000F002F800BF6EE72DE9FF4FA3B087
:1064E0000D4616461F463298FF2801DBFF2000E0CC
:1064F00032983290284610F06DFB2290229868B9AD
:1065000067B9309850B93298009032462946319B8D
:10651000239800F0A9FA27B0BDE8F08F2398294608
:10652000826820A8FAF7ACFC00B9F4E720A80CF0C8
:1065300007F881461C2119A817F024F8484616F0E0
:10654000B7FD1C904FF0FF301890002F0ADD00239C
:106550003A46294612A810F0B5FE002112A810F004
:106560003BF81890012331460CA8309A10F0AAFE8F
:1065700000210CA810F030F80B9009A819901E907B
:10658000BDF8C400ADF86C0032988DF87C003398EB
:106590008DF87D00B5F900003844B6F90010884246
:1065A00003DDB5F90000384401E0B6F9000000B29F
:1065B000ADF81C00B5F90400C01BB6F90410884200
:1065C00003DAB5F90400C01B01E0B6F9040000B21B
:1065D000ADF82000B5F902003844B6F9021088423F
:1065E00003DDB5F90200384401E0B6F9020000B25B
:1065F000ADF81E00B5F90600C01BB6F906108842BA
:1066000003DAB5F90600C01B01E0B6F9060000B2D6
:10661000ADF8220007A80BF093FF0690B5F9020031
:10662000B6F90210884201DC012000E00020824619
:10663000B5F90600B6F90610884201DB012000E03A
:1066400000208346229800284CD0BDF88000ADF889
:106650002400BDF88400ADF82800BDF9824029E08F
:10666000BAF1000F04D1BDF91E00A04200DD20E008
:10667000BBF1000F04D1BDF92200A04200DA1DE0F9
:1066800020B2ADF8260020B2ADF82A0049461C9889
:1066900016F0AFFFBDF980100FFA89F322B21C98F3
:1066A00010F048FA8DF8740019A9239811F04AF9EE
:1066B00000BF641CBDF98600A042D1DA00BF0CA85F
:1066C00010F064FA0B9810F0E5FE1898401C28B101
:1066D00012A810F05BFA189810F0DCFE1C9816F067
:1066E00063FD18E7B5F90000B6F90010884201DC37
:1066F000012000E000200590B5F90400B6F904106F
:10670000884201DB012000E000200490012003907A
:10671000059860B1049850B1BAF1000F07D0BBF1F1
:10672000000F04D00698322801DA002003900120DF
:106730008DF87400BAF1000F15D0039898B1BDF828
:106740001C00ADF82400BDF82000ADF828006888D2
:10675000ADF826007088401E00B2ADF82A0019A9D5
:10676000239811F0EFF8BBF1000F15D0039898B102
:10677000BDF81C00ADF82400BDF82000ADF82800DD
:10678000F088401C00B2ADF82600E888ADF82A0079
:1067900019A9239811F0D6F8059898B12888ADF872
:1067A00024003088401E00B2ADF82800BDF81E005D
:1067B000ADF82600BDF82200ADF82A0019A92398EB
:1067C00011F0C0F8049898B1B088401C00B2ADF840
:1067D0002400A888ADF82800BDF81E00ADF82600FA
:1067E000BDF82200ADF82A0019A9239811F0AAF8E3
:1067F0000398F0BBBDF88000ADF82400BDF884001C
:10680000ADF82800B5F90200B6F90210401AB842F6
:1068100001DA384604E0B5F90200B6F90210401A70
:1068200000B20290002442E06888204400B2019047
:10683000E888001B00B20090BDF9821001988142E7
:1068400005DDBDF986100098814200DA2EE0494648
:106850001C9816F0CEFEBDF924100FFA89F3019AA8
:106860001C9810F067F98DF87400BDF9821001983A
:1068700000E020E0814209DC0198ADF82600019893
:10688000ADF82A0019A9239811F05CF8BDF986101B
:106890000098814209DB0098ADF826000098ADF819
:1068A0002A0019A9239811F04DF800BF641C029822
:1068B0008442B9DBC7E0BDF88000ADF82400BDF923
:1068C0008410BDF91C00401E814202DABDF984002B
:1068D00002E0BDF91C00401E00B2ADF8280009A876
:1068E0000BF02EFE8046B8F1000F48DD059810B978
:1068F000BAF1000F1ED0BDF9824017E020B2ADF80A
:10690000260020B2ADF82A0041461C9816F071FE10
:10691000BDF92410434622B21C9810F00BF98DF8F3
:10692000740019A9239811F00DF8641CBDF91E001C
:10693000A042E3DC059810B9BBF1000F1FD0BDF9F0
:106940002200441C17E020B2ADF8260020B2ADF8BA
:106950002A0041461C9816F04CFEBDF9241043460F
:1069600022B21C9810F0E6F88DF8740019A923984B
:1069700010F0E8FF641CBDF98600A042E3DABDF91F
:106980008010BDF92000401C814202DDBDF980006D
:1069900002E0BDF92000401C00B2ADF82400BDF8B3
:1069A0008400ADF8280009A80BF0CAFD8046B8F1B4
:1069B000000F48DD049810B9BAF1000F1ED0BDF9E0
:1069C000824017E020B2ADF8260020B2ADF82A00D0
:1069D00041461C9816F00DFEBDF92410434622B224
:1069E0001C9810F0A7F88DF8740019A9239810F0DE
:1069F000A9FF641CBDF91E00A042E3DC049810B995
:106A0000BBF1000F1FD0BDF92200441C17E020B2DB
:106A1000ADF8260020B2ADF82A0041461C9816F0C9
:106A2000E8FDBDF92410434622B21C9810F082F80C
:106A30008DF8740019A9239810F084FF641CBDF927
:106A40008600A042E3DA0CA810F0A0F80B9810F032
:106A500021FD12A810F09AF8189810F01BFD1C9850
:106A600016F0A2FB00BF56E52DE9FF4F89B0804626
:106A70000C461546DDF858901C21684616F082FD3C
:106A800007A80090BDF83000ADF808008DF8189008
:106A9000B4F90200B5F90210884201DC012000E0DF
:106AA00000200646B4F90600B5F90610884201DB5D
:106AB000012000E000200746B4F90000B5F90010FD
:106AC000884201DC012000E000208246B4F9040085
:106AD000B5F90410884201DB012000E00020834664
:106AE0002088ADF81C00A088ADF820006088ADF8C3
:106AF0001E006888401E00B2ADF822001EB1694633
:106B0000404610F01FFFE888401C00B2ADF81E00A0
:106B1000E088ADF822001FB16946404610F012FF30
:106B20002088ADF81C002888401E00B2ADF8200077
:106B300016B1B5F9020001E0B4F90200ADF81E008B
:106B400017B1B5F9060001E0B4F90600ADF822006E
:106B5000BAF1000F03D06946404610F0F3FEA88852
:106B6000401C00B2ADF81C00A088ADF82000BBF1BD
:106B7000000F03D06946404610F0E4FE0DB0BDE8BA
:106B8000F08F2DE9FF4F93B00746904699464FF698
:106B9000FF70804502D117B0BDE8F08F3E46746AA1
:106BA000208C1290208C484506D0A4F82090608C50
:106BB00020F00400001D60844FF48021204619F06D
:106BC000F0FF11904FF4802120461AF051F805464D
:106BD000119812F0A9FE8246384608F03AFD834625
:106BE000BBF81600ADF83E00BDF93E000AEB05010A
:106BF00008FB010000B2ADF83E00284605EBD0715D
:106C0000BDF83E20A2EB610109B2ADF83E10BDF81F
:106C10003E0050442844401E00B2ADF84200706A65
:106C2000808AADF83C00706A008BADF8400001A886
:106C300010F05EFC01AA4FF4802120461AF0F9FB07
:106C40000FAA01A9149810F037FC12982084608CC8
:106C500020F00400608400BF9DE72DE9F04F91B063
:106C600007460D46904699464FF6FF70804502D183
:106C700011B0BDE8F08F1097109F7C6A208C0F90A8
:106C8000208C484506D0A4F82090608C20F00400A9
:106C9000001D608407A80FF0AFFB07AA4FF4802106
:106CA00020461AF0E4FA4FF48021204619F0E0FF64
:106CB000ADF82E00384608F0CCFC064606B9D7E7FA
:106CC000079812F031FE8246F08AADF81600BDF941
:106CD0001600BDF92E10514408FB010000B2ADF8BA
:106CE0001600BDF92E0000EBD071BDF81620A2EB06
:106CF000610109B2ADF81610BDF816005044BDF898
:106D00002E100844401E00B2ADF81A00A08AADF85B
:106D10001400208BADF8180005AA03A8A968FAF79B
:106D2000AFF88346BBF1000F13D0A868029003A808
:106D3000A860304615F03CF901900020009006F163
:106D4000140207A92846019B0EF09EFF0298A86036
:106D500000BF0F982084608C20F00400608400BF86
:106D600086E700002DE9F0410546354800680EF041
:106D70001DFC04462868C66B306B10B13046316B81
:106D80008847206890B1606880B10CE02C480068AA
:106D90000068806A38B12A4A12681068284A126866
:106DA0001268916A884720690028EFD1012020618C
:106DB000234800680068C068806900F0010050B195
:106DC0001F4800680068C0688069C0F3400010B1C7
:106DD0000120606101E000206061606908B101206C
:106DE00000E0002007462868406998B12868007CC8
:106DF000C0F3011048B12868007CC0F3800020B1C6
:106E0000D6E9001000F01EF804E0D6E90021286859
:106E1000FDF75CFB206880B1606870B12868007C79
:106E200000F0010000B147B12168A068884202D19A
:106E30006068A06001E02068A060BDE8F08100000B
:106E4000640000202DE9F34F83B0044688480068B1
:106E50000568874800680068007CC0F3400040B1C6
:106E6000287CC0F3800020B100BF00BF05B0BDE8A2
:106E7000F08F287CC0F3011002280AD12146284651
:106E8000049A00F004F921462846049AFDF71EFBF7
:106E9000EBE0287CC0F30110012804D0287CC0F36B
:106EA00001100328F4D100200290714800680EF010
:106EB0007DFB824620460BF00BFB064620460BF07E
:106EC0009BFA83464FF4A050B0FBF6F000B2584551
:106ED00005DA4FF4A050B0FBF6F000B200E05846DF
:106EE0000190B4F90280287CC0F3011001280BD175
:106EF00068882188401A401E00B2E080E088801B2C
:106F0000401C00B2608006E02088608060883044C9
:106F1000401E00B2E08000279EE0ABEB0701019825
:106F2000814201DD019801E0ABEB07000FFA80F927
:106F30000120CAF8100047BBB34526DBB146297CC7
:106F4000C1F30111032901D1012100E0002108460C
:106F50003146049A00F00FF9287CC0F30110012893
:106F600007D1A4F8008008EB0600401E00B2A08004
:106F70003FE02888401EA0EB080000B2A080A08857
:106F8000801B401C00B2208033E0029820B94FF4EF
:106F9000205016F08DF8029002980090297CC1F3E1
:106FA0000111032901D1012100E0002108464A46D0
:106FB0003146049B00F0B2F8287CC0F30110012890
:106FC0000AD108EB070000B2208008EB0700484414
:106FD000401E00B2A0800CE02888401EA0EB0800F4
:106FE000C01B00B2A080A088A0EB0900401C00B22A
:106FF000208007EB090058450DDBDAF8180000F097
:10700000010040B1DAF81800C0F3400018B10120C7
:10701000CAF8140002E00020CAF81400029808B967
:10702000049800E00298024621462846FDF74EFAF1
:1070300004E0A86A10B12846A96A8847DAF8100067
:107040000028F6D106FB09F1049800EB41000490FA
:1070500007EB090007B200BF5F45FFF65EAF02987D
:1070600010B1029816F0A0F800BF00BFFEE60000C5
:107070006400002018B5048800940C8804801488EB
:107080000C801C881480BDF800401C8018BD2DE9C0
:10709000FC5F05460C46164620460BF019FA824660
:1070A00020460BF0A9F983461AFB0BF001900198DA
:1070B000471E4FF0000811E006EB470000880090E3
:1070C00006EB470006EB48010988018006EB480003
:1070D000BDF8001001807F1E08F101084745EBD87C
:1070E000B4F9069068886188401A401E00B2E080BA
:1070F0006888A0EB0900401E00B26080B4F90490DB
:1071000028882188401A401E00B2A0802888A0EB61
:107110000900401E00B22080BDE8FC9F2DE9F04729
:1071200004461D46089F01FB02F0A0F1010C481E19
:1071300000FB02F800231AE008EB03000CB1ACEBF3
:10714000000000260FE0A946AD1C07EB400AB9F885
:107150000090AAF800900CB1104400E0801A06F1EB
:1071600001090FFA89F68E42EDDB581C03B29342F7
:10717000E2DBBDE8F0872DE9F04782460C46154674
:1071800000263BE0002731E0601E801B0FFA80F8EC
:10719000601EC01B0FFA80F9BAF1000F12D007FB76
:1071A000048C05EB4C0308FB049C05EB4C0209FB2B
:1071B000046C05EB4C0106FB047C05EB4C00FFF76F
:1071C00059FF11E009FB046C05EB4C0308FB049C20
:1071D00005EB4C0207FB048C05EB4C0106FB047C21
:1071E00005EB4C00FFF746FF781C07B2601C00EB74
:1071F000D071B7EB610FC7DB701C06B204EBD47122
:10720000B6EB610FBEDBBDE8F08710B50446204643
:1072100013F00EFD10BD00002DE9F14F9EB01E9839
:1072200012F01FF905462C461E9812F0B1F81D9079
:10723000606A14F0BDFE07465420005D00F00100B6
:1072400010B91FB0BDE8F08F0FA810F051F90FAAC8
:107250004FF4E02128461AF0ECF804F148010DA89B
:107260000BF0BAF8BDF83400616A898A084400B2AC
:10727000ADF83400BDF83610606AC08A084400B228
:10728000ADF83600BDF83800616A898A084400B25A
:10729000ADF83800BDF83A10606AC08A084400B200
:1072A000ADF83A000DAA0FA91D9810F005F94FF49A
:1072B000E021284619F043F806464FF4E02128461D
:1072C00019F060FA30440FFA80F84FF4E0212846B4
:1072D00019F09CFB30440FFA80F900200B900C90C1
:1072E000216DC8191F49096888478246206DC11958
:1072F00052460BA815F0C4FFBDF83400404400B25C
:10730000ADF83400BDF83600484400B2ADF83600A0
:107310004FF0000BD4F824A055225946504619F0DE
:1073200081FB019001980A9002A80FF065F802AA6B
:107330004FF4E021284619F09AFF9DF83F000228FB
:1073400005DCBDF81400BDF82810884207D00020E5
:107350000BAB0DAA02A900901D980EF095FC00BF82
:107360006FE70000A00100202DE9F04FBDB00546F9
:107370000E4600BF00BFAB460BF13000FAF7EEFA45
:1073800010B13DB0BDE8F08F05F114023BA8B16823
:10739000F9F776FD00B9F4E7B0683A903BA8B06021
:1073A00035A80FF0ECF835AA4FF4E021284619F083
:1073B000C4FF27A810F09CF89DF8DC008DF89F0012
:1073C00047F6FF70ADF89C004FF4E021284619F015
:1073D000DFFC074600EBD7704FEA60094FF4E0216D
:1073E000284619F0D5FC074600EBD7704FEA600A33
:1073F000314604A817F0C8FC24A80A9016A80890E3
:107400004FF4E02011906F480590052006900BF195
:107410003000FAF755FA0446CCE00A2235A924A830
:1074200015F02EFF382227A916A815F029FFE088AD
:10743000ADF89000E088ADF85C0039A80D9038A850
:107440000E90607B00F0010020B1B4F90070B4F937
:10745000028012E0B4F9040047F6FF71884200D1BF
:10746000A2E0A08882B26B462846A1680CF012FC0C
:10747000BDF90070BDF9028000BFA88A384407B288
:10748000E88A40440FFA80F8B9F1000F04D0BAF14D
:10749000000F01D0012000E0002001900198B0B160
:1074A000A7EB090000B2ADF8080007EB090000B235
:1074B000ADF80C00A8EB0A0000B2ADF80A0008EB2A
:1074C0000A0000B2ADF80E0002A8079001E000200B
:1074D0000790207B00F0030080B3207B00F00100C8
:1074E00010B1B5F9140000E03846ADF8E400ADF88D
:1074F000E680207B00F0020010B1B5F9180000E032
:107500003846ADF8E000BDF8E600ADF8E20004AAA8
:107510001A21284611F0ACFF38AB39AA24A930460D
:107520000FF016F8019820B102AA16A930460FF004
:10753000C3FF04AA1B21284611F09AFF207B00F00C
:107540000C0080B3ADF8E470207B00F0040010B1B3
:10755000B5F9160000E04046ADF8E600BDF8E400DD
:10756000ADF8E000207B00F0080010B1B5F91A007A
:1075700000E04046ADF8E20004AA1A21284611F0C6
:1075800077FF38AB39AA24A930460EF0E1FF019805
:1075900020B102AA16A930460FF08EFF04AA1B21C3
:1075A000284611F065FF00BF21460BF13000FAF7C5
:1075B00081F90446002C7FF430AF3A98B06000BFE8
:1075C000DFE60000E0DF02082DE9F14F9AB01A98DB
:1075D00011F047FF04461A9811F0DAFE1990204680
:1075E00019F003FD0746204617F02EFF834607EBF0
:1075F000D771A28A02EB610109B218910BEBDB7122
:107600004A10E18A114409B2179107EBD7714E1065
:1076100014A80EF0B4FF14AA0021204619F08DFE24
:107620004FF41D7016FB00F0552190FBF1F0642122
:1076300090FBF1F000B2ADF85200BDF85200801C92
:1076400000B2ADF85200002013900021204618F03F
:1076500096FD0546002347F6FF7204F114010DA8BC
:107660000FF030FE00210DA80EF0B6FF0C9000BF09
:10767000A08AADF82800E08AADF82A00208BADF88A
:107680002C00608BADF82E0000BFBDF82800284408
:1076900000B2ADF82800BDF82C00401B00B2ADF8D8
:1076A0002C00BDF82A00284400B2ADF82A00BDF82D
:1076B0002E00401B00B2ADF82E00012347F6FF72EA
:1076C0000AA904A80FF0FEFD002104A80EF084FF13
:1076D0000390BDF952804FF0000A4FE0514620461A
:1076E000FBF7B0FB0090BDF80000ADF85000139818
:1076F000C0F30F290FFA89F01FF082FB06EB080197
:107700004843189901EBE03000B2ADF804000FFADD
:1077100089F01FF064FB06EB08014843179901EB61
:10772000E03000B2ADF806000FFA89F01FF068FBF8
:10773000711BA1EB08014843189901EBE03000B23E
:10774000ADF808000FFA89F01FF049FB711BA1EB9F
:1077500008014843179901EBE03001B2ADF80A1077
:1077600002AB01AA14A919980EF0F2FE0AF1030067
:107770001FFA80FA139800F587601390BAF5807F9E
:10778000ACDD0DA80FF002FA04A80FF0FFF90C9879
:107790000FF080FE03980FF07DFE1BB0BDE8F08F68
:1077A0002DE9F04FA5B004460F46254604F114011B
:1077B00023A8BA68F9F764FB2290229810B925B083
:1077C000BDE8F08FB868219023A8B860002120465A
:1077D00018F091FD1E900021204618F067FF014629
:1077E0001E98084400B21D900021204619F096F81A
:1077F00001461E98084400B21C90204617F0AEFDCA
:107800007E35E9884843001200B21B90204617F0ED
:1078100086FD29894843001200B21A9017A80EF07D
:10782000AEFE17AA0021204619F087FD394605A8AB
:1078300017F0AAFA002012908C48069000200790BA
:1078400017A80B904FF0FF30139000200E900F9070
:1078500005AA1A21204611F00BFE002001903122CA
:107860002046019919F0DEF80090009800F0FF0B17
:1078700000BF0021204618F03EFD0490002001903A
:1078800033222046019919F0CDF80090009800F0BD
:10789000FF0800BF204617F0CDFE0390204617F0EA
:1078A000C3FF029035F87E09002865D0E18A1C9854
:1078B00001440298081A00B20190A08AADF8800035
:1078C000208BADF87C004FF00009B5F87E000FFA70
:1078D00080FABBF1020F1ADD0498002817DD08F0CA
:1078E000020040B10021204619F018F818B909F13A
:1078F00001000FFA80F908F0010040B10021204694
:1079000018F014FE18B9AAF101000FFA80FA4E46D9
:107910002FE01A987043B5F87E10491E90FBF1F0E5
:1079200000B2ADF88200BDF882100198084400B2A0
:10793000ADF88200BDF88200ADF87E004B4806909D
:107940000120079020A80E901FA80F90139605AA5B
:107950001A21204611F08CFD1FAB20AA17A938462A
:107960000EF0F6FD05AA1B21204611F081FD701CCA
:1079700006B25645CDDB00BFB5F88000002865D0C3
:10798000A18A1D9801440398081A00B20190E08A68
:10799000ADF88200608BADF87E004FF00009B5F8BD
:1079A00080000FFA80FABBF1020F1ADD049800285C
:1079B00017DD08F0040040B10021204618F076FEE3
:1079C00018B909F101000FFA80F908F0080040B178
:1079D0000021204618F0FAFE18B9AAF101000FFAAA
:1079E00080FA4E462FE01B987043B5F88010491E70
:1079F00090FBF1F000B2ADF88000BDF88010019866
:107A0000084400B2ADF88000BDF88000ADF87C00FD
:107A1000164806900220079020A80E901FA80F90ED
:107A2000139605AA1A21204611F022FD1FAB20AAA9
:107A300017A938460EF08CFD05AA1B21204611F02F
:107A400017FD701C06B25645CDDB00BF4FF0FF306E
:107A5000139000200E900F9005AA1B21204611F0D4
:107A600007FD2198B86000BFA9E60000E0DF02082A
:107A700070B58CB00546284611F0A6FC04460622D7
:107A80000D49204617F089F908B90CB070BDA06BFC
:107A900002280FD1E06A68B1302208496846F8F739
:107AA000C8FC226C5DF8223005A2D4E90B011CF061
:107AB000BDFC00BF00BFE8E7E0DF0208B027030815
:107AC000257300002DE9F14F98B0189811F058FC7B
:107AD0000746189811F0C5FC05462C46122F7DD19B
:107AE000189811F0BBFC06463078022802D119B074
:107AF000BDE8F08F94F8380000F00300032805D0AB
:107B000094F8380000F00300022802D10120307000
:107B1000EDE794F83800C0F38400042808D094F806
:107B20003800C0F38400012802D001203070DEE765
:107B30004FF0000846224146284618F073FF179080
:107B40001798C0B2FF2802D001203070CFE7208EF6
:107B500010B101203070CAE7189811F07FFC8146FF
:107B6000E08EB0F5807F09D1002205F1140148466E
:107B7000F9F7C7F998BB01203070B8E7284617F02D
:107B800063FC8046284619F030FA824604F1320040
:107B9000E18E00234246CDE90010514616A8F9F7C0
:107BA00065FCBDF85800A98A084400B2ADF8580039
:107BB000BDF85A10E88A084400B2ADF85A00BDF882
:107BC0005C00A98A084400B2ADF85C00BDF85E1004
:107BD000E88A084400B2ADF85E0001E00BE009E07D
:107BE000002216A94846F9F78CF910B90120307027
:107BF0007DE700BFFDE1152F01D0182FFAD12846EF
:107C000019F0F3F91790284617F01EFC169000267D
:107C100032223146284618F005FF0E900E9800B229
:107C2000804600BF12223146284618F0FBFE0E9017
:107C30000E9840440FFA80F900BF132231462846BF
:107C400018F0F0FE0E900E98404400B2159000BF60
:107C500010223146284618F0E5FE0E900E9840445A
:107C60000FFA80FA00BF11223146284618F0DAFEDA
:107C70000E900E98404400B21490608E484400B2BA
:107C8000ADF84C00A08E504400B2ADF84E0094F810
:107C9000390000F00300012804D111A9284617F08B
:107CA0007CFB26E013A9E08ECDE90001208E03B213
:107CB00011A8DDE91621F9F7D9FBBDF84400A98A1E
:107CC000084400B2ADF84400BDF84610E88A084404
:107CD00000B2ADF84600BDF84800A98A084400B2D9
:107CE000ADF84800BDF84A10E88A084400B2ADF883
:107CF0004A0005F114010FA80AF05CFB11A905F177
:107D000014000AF057FBBC48189917F062FA834632
:107D1000BBF1010F00D0EAE60FA905F114000AF04B
:107D200049FB152F7DD1E08D08B1A08D00B9DEE6AD
:107D3000E08E00B9DBE6189811F02AFB064605F143
:107D400014010DA80AF036FB284613F0B3F90C9085
:107D500094F8390000F0030001283CD1B4F92C104C
:107D6000BDF93020891A481C00EBD071BDF83420D1
:107D7000A2EB610109B2ADF83410B4F92C10BDF9D1
:107D80003020891A481C00EBD071BDF83820A2EBD6
:107D9000610109B2ADF83810B4F92E10BDF93220E6
:107DA000891A481C00EBD071BDF83620A2EB6101A6
:107DB00009B2ADF83610B4F92E10BDF93220891A87
:107DC000481C00EBD071BDF83A20A2EB610109B26A
:107DD000ADF83A1013E011A80AF0DCFBBDF834103E
:107DE0000844401E00B2ADF8380011A80AF04AFB62
:107DF000BDF836100844401E00B2ADF83A00BDF898
:107E00003400484400B2ADF83400BDF836005044A8
:107E100000B2ADF83600BDF838101598081A00B257
:107E200000E0E5E0ADF83800BDF83A101498081A03
:107E300000B2ADF83A0094F8380000F003000128D1
:107E400005D094F8380000F00300002878D106A887
:107E50000DF0FDFE06AA0021284619F0A2F9E08ED9
:107E6000ADF81A00208E00B2ADF81800608EADF8A3
:107E70001C00A18EADF81E1094F83800C0098DF8D2
:107E80002C00BDF84400484400B2ADF81000BDF825
:107E90004600504400B2ADF81200BDF848101598E5
:107EA000081A00B2ADF81400BDF84A101498081A68
:107EB00000B2ADF81600B068039004AA04A8B16837
:107EC000F8F7DEFF00B912E604A8B060BDF836107E
:107ED000608D084400B2ADF80600BDF90600BDF99A
:107EE0003610884206DDBDF80600E18D401A00B26A
:107EF000ADF80600BDF80600E18D0844401E00B252
:107F0000ADF80A0049E0BDF83400218D084400B204
:107F1000ADF80400BDF90400BDF93410884206DD57
:107F2000BDF80400A18D401A00B2ADF80400BDF800
:107F30000400A18D0844401E00B2ADF8080016E010
:107F400034E001AA06A93046636A0DF031FEBDF89F
:107F50000400BDF83010084400B2ADF80400BDF8CC
:107F60000800BDF83010084400B2ADF80800BDF9B3
:107F70000400BDF938108842E3DBBDF80600BDF807
:107F80003210084400B2ADF80600BDF80A00BDF892
:107F90003210084400B2ADF80A00BDF90600BDF980
:107FA0003A108842AFDB0398B06020E094F83800C4
:107FB00000F00300022811D104A80EF01DFA04AA53
:107FC0000021284619F053F90020009005F1140211
:107FD00004A93046636A0DF057FE08E000BF00BFF9
:107FE000002305F11402194630460DF0E1FD00BFF3
:107FF00000BF00BF7BE50000E01E03082DE9F14F44
:10800000DCB05C9811F02DFA05462C465C9811F016
:10801000BFF95B9059A9284617F0BFF90020CDE9B8
:1080200010506822DDE9100118F0FCFC0F900F9849
:1080300000B258900020CDE910506922DDE910010E
:1080400018F0F0FC0F900F9800B25790BDF8641133
:108050005898081A00B2ADF86401BDF86811589834
:10806000084400B2ADF86801BDF866115798081AC7
:1080700000B2ADF86601BDF86A115798084400B225
:10808000ADF86A0159A80AF077FA834659A80AF0B0
:10809000EBF95690D4E90A10A0EB010956988345F4
:1080A00001DB012000E0002080460020559094F87C
:1080B0005C0000F0030001280BD1A06A002808DA58
:1080C000E06A002805DDA16A206B884201D1012009
:1080D00055900021284618F00DFB549000212846A9
:1080E00018F098FB53900021284618F03BFC529062
:1080F0000021284618F03EFA519059A904F13400A5
:108100000AF046F9A18E5498084400B2A086218F47
:108110005398081A01B22187E18E5298084401B29F
:10812000E186618F5198081A01B26187B8F1000F9A
:1081300013D004F134000AF097F904280DDA5698A8
:1081400000EBD0714A10E98A1144891E0AB2E28616
:10815000E08E001D01B2618715E0B8F1000F12D169
:1081600004F134000AF008FA04280CDA58460BEB44
:10817000D071AA8A02EB6101891E09B2A186A08E84
:10818000001D01B2218704F134000AF0F5F9509086
:1081900004F134000AF068F94F90B8F1000F01D0F3
:1081A000509800E04F988246B8F1000F05D004F1D6
:1081B0003406371DFE484C9004E004F13606371DA6
:1081C000FC484C90A06D401CF8B1A36A216DC91AFF
:1081D00001FB0AF191FBF9F108B2A36A616DC91ABA
:1081E00001FB0AF191FBF9F10AB2131AD4F858C055
:1081F00003FB0CF1CB1701EB13631B121BB24D9366
:108200004D99014409B24D9108E0A16A206B401AD2
:1082100000FB0AF090FBF9F000B24D90A06C401CFE
:10822000E0B1A36A216CC91A01FB0AF191FBF9F1D3
:1082300008B2A36A616CC91A01FB0AF191FBF9F15A
:108240000AB2131AD4F848C003FB0CF1CB1701EBA8
:10825000136300EB23231BB24E9308E0D4E909011A
:10826000401A00FB0AF090FBF9F000B24E9000209B
:10827000119016222846119918F0D4FB10901098EE
:10828000C0B24B90B8F1000F0ED04B9801280BD123
:1082900030463E4607464E99494209B24E914D99A5
:1082A000494209B24D9100BFB8F1000F0AD03188A0
:1082B0004E98084400B2388031884D98084400B286
:1082C00030800AE039884E98081A401C00B230808D
:1082D00039884D98081A00B23880559878B3A26A48
:1082E000524202FB0AF292FBF9F211B2B8F1000F0E
:1082F0000CD032880A4410B2B7F90020824201DD66
:1083000030801BE03A883280388017E03A88521A71
:10831000521C10B2B6F90020824201DD388002E022
:1083200032883A803080B7F90020B6F900309A429E
:1083300004DAB6F900003A883280388000BF5598D8
:1083400000BB04F134004C99884701281ADC6846C8
:108350005B9916F019FD4FF400300D90964801908E
:108360000020029004F1340003906A461A21284646
:1083700011F07EF86A461B21284611F079F85DB0AD
:10838000BDE8F08F04F1340149A80AF001F83BA8D8
:108390000FF0AEF83BAA4FF40031284619F049F827
:1083A00029A85B9916F0F0FC4FF400303690824813
:1083B0002A9000202B903BA82D9004F134002C90A3
:1083C00029AA1A21284611F053F8002011900B22F7
:1083D0002846119918F026FB1090109800B22890AA
:1083E0005698834501DA584600E056982790DDE913
:1083F0002701B1EB600F02DD279840102890BDF9EE
:10840000EC0026904F995098884201DA509800E08D
:108410004F982790DDE92601B0EB610F02DD279828
:1084200040102690B8F1000F08D004F134000AF093
:10843000A3F801462698B1EB400F0BDCB8F1000F12
:1084400028D104F134000AF00FF801462698B1EB68
:10845000400F1FDD9DF8EF0011909DF80601109070
:108460009DF80E010F9000208DF8EF008DF80601A9
:108470008DF80E0104F134023BA95B980FF01CF853
:1084800011988DF8EF0010988DF806010F988DF86F
:108490000E0100BFA98A5498084400B2ADF87800D4
:1084A000298B5398081A00B2ADF87C00E98A5298DB
:1084B000084400B2ADF87A00698B5198081A00B2EE
:1084C000ADF87E0000231EA920A8289A0EF0FAFE1F
:1084D000002120A80EF080F81D909DF822011C902C
:1084E0009DF80E011B9000208DF80E018DF82201E1
:1084F00059A919A809F04CFFBDF864105498084414
:1085000000B2ADF86400BDF866105298084400B29D
:10851000ADF86600BDF868105398081A00B2ADF8BF
:108520006800BDF86A105198081A00B2ADF86A00E8
:10853000B8F1000F15D019A809F096FF042810DA39
:10854000569800EBD0714A10E98A1144891E09B28D
:10855000ADF86610BDF86600001D00B2ADF86A0007
:1085600017E0B8F1000F14D119A80AF005F8042893
:108570000FDA58460BEBD071AA8A02EB6101891E13
:1085800009B2ADF86410BDF86400001D00B2ADF88A
:108590006800BDF9EC20002304F1340113A80EF0AB
:1085A00091FE002113A80EF017F8129019AA05E009
:1085B0007925010869240108381E03083BA95B9846
:1085C0000EF07AFF1B988DF80E011C988DF8220191
:1085D00000208DF8EF008DF806018DF8220104F1DE
:1085E00034023BA95B980EF067FF13A80EF0CEFA99
:1085F00020A80EF0CBFA12980EF04CFF1D980EF04A
:1086000049FF29AA1B21284610F032FF00BFB6E619
:10861000F0B591B00546284610F023FF04462846E1
:1086200010F0B6FE0746264603A80EF061FF03AA27
:108630004FF44031204618F0FCFE47F6FF70ADF8CD
:108640000C002C20805D00F0010038B120460CF0B9
:108650000CFE0090BDF80000ADF81000214601A806
:1086600006F044FF01AA03A938460EF025FF11B019
:10867000F0BD00002DE9F04FB1B08046404610F04B
:10868000F0FE06463446404610F082FE8346002146
:10869000304617F0C8FD012800D100E00020074651
:1086A000304608F0A2F9054665B1304616F0CCFE1A
:1086B000824617B1B4F9340001E0B4F93800ADF8DE
:1086C000BC0021E04FF0000994F85C0000F00300CA
:1086D000012807D1A06A002804DAE06A002801DD39
:1086E0004FF00109304618F080FC8246B9F1000FC6
:1086F00006D0606A002803DA608FADF8BE0002E0A1
:10870000E08EADF8BE0000BF21A80EF0F1FE21AA58
:108710004FF44031304618F08CFE2B4652462FA9BC
:1087200030461FF06AFE2FA904F1680009F04BFEE5
:1087300059460FA816F028FB4FF440301C903748DC
:108740001090002011901D9004F16800129021A853
:10875000139030461BF040FE022810D00FAA1A21B9
:10876000304610F085FE04F1680221A958460EF04B
:10877000A3FE0FAA1B21304610F07AFE4BE03822F0
:1087800021A901A814F07CFD0FAA1A21304610F08F
:108790006FFE04F1680221A958460EF08DFE0FAA63
:1087A0001B21304610F064FE45B117B9B4F934000E
:1087B00001E0B4F93800ADF8BC0002E0608FADF81C
:1087C000BE002B4652462FA930461FF016FE2FA999
:1087D00004F1600009F0F7FD382201A921A814F086
:1087E0004FFD0120119004F16000129021A8139018
:1087F00001201D900FAA1A21304610F039FE04F115
:10880000600221A958460EF057FE0FAA1B213046E0
:1088100010F02EFE00BF31B0BDE8F08F6C1F0308D2
:108820002DE9F04790B00746384610F01AFE05468D
:10883000284616F059FE064608A80DF0DDFD08AAE8
:108840000021304618F013FD384610F0A1FD044613
:10885000D4F8088006F1140206A8A168F8F710FB06
:1088600010B910B0BDE8F08706A8A06004A9304692
:1088700007F088FAA88AADF80800E88AADF80A007F
:10888000288BADF80C00BDF81200ADF80E0002AA5E
:1088900002A8A168F8F7F4FA98B1D4F8089002A8F1
:1088A000A060284613F084FB82460020534605F161
:1088B000140208A9009020460DF0E6F9C4F80890CB
:1088C00000BFA88AADF80800BDF81600ADF80A0090
:1088D000288BADF80C00688BADF80E0002AA02A838
:1088E000A168F8F7CDFA98B1D4F8089002A8A06072
:1088F000284613F05DFB82460020534605F1140222
:1089000008A9009020460DF0BFF9C4F8089000BFF8
:10891000C4F8088000BFA4E72DE9FF4FA1B00646C8
:1089200014462498807B00F00F052298807E1F90CB
:10893000032D00D10425012D06D0022D0BD0042DCE
:1089400010D0082D1DD114E0DFF86C834FF0800AA1
:1089500002201E901AE0DFF864834FF0C00A042062
:108960001E9013E0DFF858834FF0F00A10201E909D
:108970000CE0DFF850834FF0FF0A4FF480701E9038
:1089800004E000BF00BF25B0BDE8F08F00BF1F9816
:10899000FD2823DACC4801781F98814203D1CB48C7
:1089A0000068A84213D000200DE018F80010FF293D
:1089B00001D11F9904E018F800101F9A51430912C1
:1089C000C34A1154401C1E998842EED300BFDFF801
:1089D0000083BD491F980870BC4805602498B0F812
:1089E00006B0249800891B900BFB05F01A90B4F98F
:1089F0000000B168B1F90010884201DB002005E0F9
:108A0000B068B0F90000B4F90010401A1990B4F938
:108A100000005844B168B1F90410884201DC58469E
:108A200006E0B068B0F90400B4F90010401A401C28
:108A30001890B4F90200B168B1F90210884201DB64
:108A4000002005E0B068B0F90200B4F90210401A45
:108A50001790B4F902101B980844B168B1F90610D8
:108A6000884201DC1B9806E0B068B0F90600B4F952
:108A70000210401A401C16901A99179848431999E9
:108A800001FB050015902E99159801EBD0002E9052
:108A9000159800F007071C210DA814F073FD22980B
:108AA0008089ADF83C002298807E8DF84C00229899
:108AB000807FC0F3C2008DF84D00F9F757FA01909E
:108AC0000CF078FD0C901B980BFB00F10C98814288
:108AD00001DD0C9802E01B990BFB01F00B900B9849
:108AE00014F0E6FA8146CDF8409000200A902188E3
:108AF0001998084400B2ADF820002188189808445D
:108B0000401E00B2ADF8240061881798084400B2F6
:108B1000ADF82200BDF82200ADF8260000BFBDF878
:108B20002400BDF82010401A401C00B2079000BF7E
:108B3000BDF82000ADF81400BDF82200ADF8160015
:108B4000BDF82400ADF81800BDF82600ADF81A00F5
:108B500000BFBDF816101698084400B2ADF81A0010
:108B600005A80EF037F8049008A80D901290C5F1F2
:108B70000800039019980BEB00011898081A684335
:108B8000029017981C9078E00A9801902AFA07F052
:108B9000209019981D9028E02E9800782099084080
:108BA0000399C91BC8401490149830B1149818F850
:108BB00000100A9809F8001003E000210A9809F84B
:108BC00000100398874204D22F442098E840209058
:108BD00005E00027CDF880A02E98401C2E900A9822
:108BE000401C0A901D98401C1D9018991D988842A1
:108BF000D2DB0498A0B1BDF92620BDF92010019B5D
:108C000009EB0300079B0DF095FF8DF844009DF8DC
:108C1000440028B9019909EB0100079914F0B2FC4E
:108C2000DDE91801411A0A9801440B98814206D2E5
:108C3000BDF82600401C00B2ADF8260012E002206C
:108C40008DF844000DA930460EF07CFEBDF82600DC
:108C5000401C00B2ADF82200BDF82200ADF826009D
:108C600000200A90029807442E9800EBD7002E901F
:108C700007F007071C98401C1C9016991C98884206
:108C800082DBBDF92200BDF9261088420ED0BDF866
:108C90002600401E00B2ADF8260002208DF84400E8
:108CA0000DA930460EF04EFE00200A90484614F002
:108CB0007BFA00BF67E600002CDE02082EDE020809
:108CC0003ADE02084ADE0208740000207800002024
:108CD0008C1500202DE9FF4F8FB00C4615461E461F
:108CE000B4F90200401E0E900E9840100D900E98A0
:108CF00000F001010D9808440C90B5F90000B6F998
:108D00000010884202DAB5F9000001E0B6F900006F
:108D1000ADF82800B5F90000B6F90010884202DD70
:108D2000B5F9000001E0B6F90000401E00B2ADF850
:108D30002C0069880C98081A00B2ADF82A006988DE
:108D40000D98084400B2ADF82E000F980AA9826869
:108D50000AA8F8F795F88246BAF1000F02D113B0CD
:108D6000BDE8F08FE08818B1A08808B1012000E0CC
:108D700000208346012009900AA80DF02BFF10B1B6
:108D80000020099004E0BBF1000F01D00020099001
:108D90001C2102A814F0F6FB0AA802902088ADF866
:108DA0001000207A8DF82000099820B102A90F98B0
:108DB0000EF0C8FD78E00AA809F0BBFB0746BDF934
:108DC0002E000190BDF82A00ADF82E000020009082
:108DD000BBF1000F0BD0B4F90600B4F9041008443D
:108DE000BDF9281091FBF0F200FB121000903846FC
:108DF00014F05EF98046CDF814800AA80790BDF9FA
:108E00002A904AE03946404614F0F3FBBDF9281099
:108E10003BB20FFA89F240460DF08CFE8DF8180037
:108E2000BBF1000F27D09DF8180020B30098002157
:108E30001BE0B4F90420824207DBA3881B1A1AB294
:108E40008B1819B2831818B20BE0B4F90620B4F9E4
:108E500004301A44824201DC002002E0002208F8BB
:108E600001204A1C11B2421C10B2B942E1DB0222BD
:108E70008DF8182000BF02A90F980EF063FDBDF811
:108E80002A00401C00B2ADF82A00BDF82E00401C9C
:108E900000B2ADF82E0009F1010901988145B1DD5C
:108EA000404614F081F900BF00BF58E72DE9FF4F9D
:108EB000C7B08B4691469A46B9F90200BAF902103A
:108EC000884210DAB9F80200ADF81A01BAF80200C7
:108ED000ADF81601B9F80000ADF81801BAF80000B5
:108EE000ADF814010FE0BAF80200ADF81A01B9F8B4
:108EF0000200ADF81601BAF80000ADF81801B9F893
:108F00000000ADF81401BDF91401BDF91811441A9F
:108F1000BDF91601BDF91A11451A002C01DD2046D4
:108F200000E06042002D01DD294600E069428842F0
:108F300001DD012000E000204490BBF90260002028
:108F40004390449870B1002D01DD284600E068424E
:108F50004101002C01DD204600E0604291FBF0F071
:108F600043900DE0002C01DD204600E0604241010D
:108F7000002D01DD284600E0684291FBF0F04390AF
:108F8000E0494398085C70433F30C611771006F003
:108F9000010000EB0708BDF91801BDF91411884262
:108FA00002DABDF9180101E0BDF91401801B00B21D
:108FB000ADF80401BDF91801BDF91411884202DDB4
:108FC000BDF9180101E0BDF91401304400B2ADF85B
:108FD0000801BDF91A01BDF91611884202DABDF97E
:108FE0001A0101E0BDF91601801B00B2ADF80601BF
:108FF000BDF91A01BDF91611884202DDBDF91A0149
:1090000001E0BDF91601304400B2ADF80A014798FD
:1090100041A9826841A8F7F733FF4090409810B902
:109020004BB0BDE8F08F4498F0B3002C24DD002154
:10903000BDF81601C01B00B2CDE90001BDF9143125
:10904000BDF81A01C01B02B2BDF9181135A80DF008
:10905000BBFE0121BDF81601404400B2CDE900017C
:10906000BDF91431BDF81A01404402B2BDF918111E
:109070002AA80DF0A9FE4AE00021BDF816014044DF
:1090800000B2CDE90001BDF91431BDF81A01404428
:1090900002B2BDF9181135A80DF096FE0121BDF8F8
:1090A0001601C01B00B200E00DE0CDE90001BDF9E2
:1090B0001431BDF81A01C01B02B2BDF918112AA85B
:1090C0000DF082FE23E00021BDF91601CDE900017B
:1090D000BDF81401404403B2BDF91A21BDF81801CE
:1090E000404401B235A80DF06FFE0121BDF9160113
:1090F000CDE90001BDF81401C01B03B2BDF91A216E
:10910000BDF81801C01B01B22AA80DF05DFE0021B8
:1091100035A80DF061FA139000212AA80DF05CFA31
:1091200012904FF0FF30119010909BF80900C0F39F
:10913000001068BB0321BDF81A01204400B2CDE93C
:109140000001BDF81801401B03B2BDF91A21BDF999
:1091500018111FA80DF038FE0221BDF81601204499
:1091600000B2CDE90001BDF81401401B03B2BDF906
:109170001621BDF9141114A80DF026FE00211FA818
:109180000DF02AFA1190002114A80DF025FA109084
:1091900041A809F0CEF90F90F8F7E8FE01900CF025
:1091A00009FA0D9041A809F07BF901460D9881421A
:1091B00003D241A809F074F900E00D980C900C98C6
:1091C00013F076FF0B90BDF90A010A90BDF8060175
:1091D000ADF80A0100200990DDE90B0114F009FA4D
:1091E0001C2102A814F0CEF941A80290BBF800009F
:1091F000ADF810009BF808008DF820000B98059042
:1092000041A80790BDF906010E9040E0BDF9041198
:10921000099B0B9AD0180F9A13B20E9A12B20DF046
:1092200089FC8DF818009DF8180028B9099A0B9947
:1092300088180F9914F0A6F90F9909980844099015
:109240000F99099801440C98814206D2BDF80A0191
:10925000401C00B2ADF80A0116E002208DF818009B
:1092600002A947980EF06EFBBDF80A01401C00B23F
:10927000ADF80601BDF80601ADF80A01002009901D
:10928000DDE90B0114F0B5F90E98401C0E900A9917
:109290000E988842BADDBDF90601BDF90A1188426F
:1092A0000CD0BDF80A01401E00B2ADF80A01022040
:1092B0008DF8180002A947980EF044FB0B9813F0A4
:1092C00073FF35A80DF062FC2AA80DF05FFC119821
:1092D000401C10B11FA80DF059FC1098401C10B193
:1092E00014A80DF053FC13980EF0D4F812980EF059
:1092F000D1F811980EF0CEF810980EF0CBF800BF10
:109300008EE600004ADF02082DE9FF4F91B00C46BF
:1093100015461E46B4F90200401E109010984010E9
:109320000F90109800F001010F9808440E902988C2
:109330000E98081A00B2ADF8300029880F9808443A
:1093400000B2ADF83400B5F90200B6F90210884257
:1093500002DAB5F9020001E0B6F90200ADF8320018
:10936000B5F90200B6F90210884202DDB5F9020033
:1093700001E0B6F90200401E00B2ADF836001198C7
:109380000CA982680CA8F7F77BFD8146B9F1000FA4
:1093900002D115B0BDE8F08FE08818B1A08808B1FF
:1093A000012000E00020824601200B900CA80DF067
:1093B00011FC10B100200B9004E0BAF1000F01D0B5
:1093C00000200B901C2104A814F0DCF80CA80490D9
:1093D0002088ADF81800207A8DF828000B9820B16D
:1093E00004A911980EF0AEFA66E00CA809F0A1F8F5
:1093F0008346BDF936000390BDF83200ADF8360063
:10940000584613F055FE0290029807900CA8099058
:1094100000200190BAF1000F0BD0B4F90600B4F9A6
:1094200004100844BDF9321091FBF0F200FB121059
:109430000190019FBDF9328037E05946029814F03F
:10944000D8F8BDF930100FFA8BF30FFA88F20298B2
:109450000DF070FB8DF82000BAF1000F13D09DF8CD
:10946000200070B1B4F90400B84202DA00208DF88F
:109470002000B4F90600B4F904100844B84200DC36
:109480000027781C07B204A911980EF05BFABDF80A
:109490003200401C00B2ADF83200BDF83600401C6E
:1094A00000B2ADF8360008F1010803988045C4DD2C
:1094B000029813F079FE00BF00BF6AE72DE9FC5F58
:1094C000804640460FF0CDFF0746B946D9F82460E4
:1094D000344640460FF05CFF0546606A00F1140216
:1094E0006846A968F7F7CCFC8246BAF1000F41D074
:1094F000D5F808B0C5F808D094F83C00C0F3401087
:1095000048B3608FE18E88420CD1628F21232946B7
:109510003046FDF736FB628F212329463046FDF7A2
:109520009CFB24E0628F202329463046FDF729FB6F
:10953000628F202329463046FDF78FFBE28E012300
:1095400029463046FDF71DFBE28E012329463046B1
:10955000FDF783FB0BE0628F202329463046FDF7A1
:1095600010FB628F202329463046FDF776FBC5F8B5
:1095700008B000BFBDE8FC9F2DE9F14FD0B0509876
:109580000FF06FFF04462546288E10B951B0BDE894
:10959000F08F50980FF0FCFE4F90608C20F004008C
:1095A000001D60844DA9204615F0F7FE0026B24646
:1095B000B4F8208000202084608C20F00400001D7E
:1095C000608427A80DF094FF1FA80CF015FF27AAB0
:1095D0004FF4A021204617F02CFF1FAA4FF4A02122
:1095E000204617F044FE608C20F004006084A4F84C
:1095F00020800021204617F0C1F91E90002120464E
:1096000016F0C4FF1D900021204617F07FF81C9033
:109610000021204617F00AF91B9009A84F9915F070
:10962000B3FB4FF4A0201690D7480A9000200B906F
:109630003DA80D9035A80E9000BF9BE103E00AF114
:1096400001001FFA80FA696A51F82A00CFA1F6F7E3
:1096500049FF0028F3D0E96A31F81600FAF700FB59
:1096600000B181E10027E96A31F81600FAF7E8FA5B
:1096700008B147F00107E96A31F81600FAF7F4FA81
:1096800010B147F0800716E0A88EB04213D108F061
:10969000200008B147F0200708F0020008B147F0A9
:1096A000020708F0040008B147F0040708F00800BA
:1096B00008B147F00807A86A00EBC6014BA808F0FC
:1096C00070FEBDF82C01BDF83411084400B2ADF8AD
:1096D0002C01BDF82E01BDF83611084400B2ADF8DA
:1096E0002E01BDF83001BDF83411084400B2ADF8C8
:1096F0003001BDF83201BDF83611084400B2ADF8B2
:10970000320157B9382227A93DA813F0B9FD20220C
:109710001FA935A813F0B4FD1DE02784608C20F04C
:109720000400001D60843DA80DF0E2FE35A80CF099
:1097300063FE3DAA4FF4A021204617F07AFE35AA19
:109740004FF4A021204617F092FDA4F82080608CF1
:1097500020F004006084E96A31F81600FAF78CFA08
:109760008346BBF1000F06D09DF8F10040F00100E8
:109770008DF8F10005E09DF8F10020F001008DF872
:10978000F1004BA80C90179609AA1A2120460FF059
:109790006FFE9DF81701400800F01000F0B39DF82F
:1097A000170120F03E001E308DF81701BDF92C1175
:1097B000B4F914201C98104481420AD19DF8170175
:1097C000400820F004009DF8171160F345018DF862
:1097D0001711BDF93011B4F918201B98101A8142E5
:1097E0000AD19DF81701400820F008009DF81711D4
:1097F00060F345018DF81711BDF92E11B4F916204B
:109800001E98104481420CD19DF81701400820F0A9
:1098100002009DF8171160F3450100E014E08DF897
:109820001711BDF93211B4F91A201D98101A81428E
:109830000AD19DF81701400820F001009DF817118A
:1098400060F345018DF817114BA808F014FE81460E
:1098500007F0200060B1E86A30F8160000F40070EC
:1098600030B1BDF82E01A0EB090000B2ADF82E0119
:109870004BAA3DA94F980DF01FFE35980890BDF9F1
:10988000E8000790BDF9E6000690686A50F82A00E3
:1098900005904DA808F077FE03909DF8F110024660
:1098A0000698CDE90121009004A8DDE90732059969
:1098B0001DF094FB4BA808F066FEBDF91010401A8D
:1098C000039000EBD070BDF82C1101EB600000B2EA
:1098D000ADF82C014BA808F0CEFDBDF91210401ACE
:1098E000039000EBD070BDF82E1101EB600000B2C8
:1098F000ADF82E01BDF82C01BDF81010084400B2DF
:10990000ADF83001BDF82E01BDF81210084400B2C8
:10991000ADF8320107F02000C0B1E86A30F8160057
:1099200000F4007090B1484609EBD071BDF82E21CB
:10993000A2EB610109B2ADF82E1109EBD071BDF8AF
:109940003221A2EB610109B2ADF832110020009082
:109950004BAA35A9059B4F980CF096F909AA1B2133
:1099600020460FF085FD00BF701C86B20AF1010091
:109970001FFA80FA288EB0423FF760AE608C20F06C
:109980000400608400BF01E6701E03080A000000A6
:109990002DE9F14FA2B022980FF063FD0446254651
:1099A00022980FF0F5FC21900021204616F0AFFC24
:1099B00081462646002712223946304617F032F8F3
:1099C0000A900A98484400B2209000BF13223946FA
:1099D000304617F027F80A900A98484400B21F90C2
:1099E0000021204616F0E2FF484400B21E9016A85F
:1099F0000CF002FD16AA4FF40031204617F037FC98
:109A0000A86A10B1D5F828800AE0802013F050FB36
:109A100006468022314620460FF0EEF9B04600BFE0
:109A20004FF0000A95F83C0000F00F00012800D12B
:109A30008246002616223146204616F0F3FF0A9091
:109A40000A98C0B2012800D18246E86A00287DD079
:109A5000E86A11F030FC0A900A98022814D19DF8A7
:109A6000750041F6FF72BDF96A10CDE9001202904F
:109A7000BDF96C30169A07A8E96A1DF0AFFABDF976
:109A80001C60BDF91E7011E007A9E86A11F0FCF82E
:109A90008346BBF1010F05D10798C0F38A260798CA
:109AA000470D02E04FF0FF36374600BFBAF1000F16
:109AB0000DD0A18A2098084400B2ADF82000BDF86E
:109AC00020003044401E00B2ADF824000DE0218B90
:109AD0001F98081A801B00B2ADF82000BDF82000C6
:109AE0003044401E00B2ADF824000A98022815D177
:109AF000E18A1E98084400B2ADF82200BDF82200A9
:109B00003844401E00B2ADF826000020009008AA9C
:109B100016A9EB6A21980CF0B7F83FE0204615F043
:109B200093FCA0EB070B0BEBDB704110E08A0844C1
:109B300000B2ADF82200BDF822003844401E00B249
:109B4000ADF8260002A80CF082F800E027E002AA97
:109B50004FF40031204617F024FB304606EBD0715D
:109B6000491009B2ADF80C10384607EBD071491016
:109B70000AB2ADF80E204FF4003B6D225946204644
:109B800016F050FF0190019800B2ADF8080008AA45
:109B900002A9EB6A21980CF00BF800BF00BF0EA8D9
:109BA0000CF02AFC0EAA0021204617F060FB9DF85D
:109BB000550041F6FF72BDF94A10CDE9001202903E
:109BC000BDF94C3041460DA80E9A1DF007FAE18A06
:109BD0001E98084400B2ADF82E00BDF82E00BDF866
:109BE0003610084400B2ADF83200E86AB0B9204639
:109BF00017F0FBF9BDF93410461A06EBD670A18AAE
:109C000001EB600000B2ADF82C00BDF82C00BDF8EF
:109C10003410084400B2ADF8300022E0BAF1000F71
:109C200011D0218B1F98081ABDF83410401A00B2C9
:109C3000ADF82C00BDF82C00BDF83410084400B27B
:109C4000ADF830000DE0A18A2098084400B2ADF8CC
:109C50002C00BDF82C00BDF83410084400B2ADF85B
:109C60003000002043460BAA0EA9009021980CF06A
:109C70000BF8A86A10B9404613F096FA23B0BDE875
:109C8000F08F2DE9F14F90B010980FF0EAFB0546E8
:109C90002C4610980FF07CFB06460EA9284615F0BE
:109CA00008FB002794F84800C0F3001008B147F003
:109CB000010794F84800C0F3401008B147F00207CC
:109CC0000021284617F070F842F2D171884205D180
:109CD000688CC0F3802008B947F0040706A80CF090
:109CE0008BFBB4F84400ADF82E004620005BADF8C5
:109CF00030008DF8357006AA0021284617F0B7FA13
:109D00000DA8411E626A03780BB90123037000BFDE
:109D1000284612F059F90790284612F04FF908909A
:109D20004FF6FF710798884223D00898884220D0C8
:109D30004FF4802B55225946284616F073FE0246F2
:109D4000594601902846F7F7B0FE0290029803901A
:109D5000BDF80C00ADF8260000BF20225946284669
:109D600016F060FE029002980390BDF80C00ADF86A
:109D7000280094F8480000F00700022805D094F865
:109D8000480000F0070003281FD19DF83400022886
:109D900003D09DF83400032817D141F6FF71BDF9B7
:109DA0002A008DE88300BDF92C30069A03A8616A69
:109DB0001DF014F90EA808F0F4FBBDF90C10884250
:109DC00002DA01208DF8340000BF04F1300894F865
:109DD000480000F00700032805D00EA808F059FB42
:109DE000B0F5806F01DA4FF000080EA904A8B26840
:109DF000F7F746F88146B9F1000F02D111B0BDE87E
:109E0000F08F94F8480000F0070070B9284615F06C
:109E10000BFD8346CBF1000002B200210EA808F032
:109E2000D8FB688BADF83E0000BF94F8480000F006
:109E30000700022805D094F8480000F00700032826
:109E40000ED1D6F808B004A8B060CDF800800EAAF4
:109E500006A93046636A0BF017FFC6F808B007E0A2
:109E6000CDF800800EAA06A93046636A0BF00CFFFD
:109E7000D6F808A004A8B06094F8480000F00700E5
:109E800003284FD141F6FF71BDF92A008DE8830008
:109E9000BDF92C30069A03A8616A1DF09FF80EA840
:109EA00008F07FFBBDF90C1088421BDA2022114616
:109EB00006980FF024FD00EB4000B4F84410BDF804
:109EC0000C201144084400B2ADF82E004620005B7F
:109ED000ADF83000CDF800800EAA06A93046636ABE
:109EE0000BF0D2FE0EA808F0D4FABDF90E1088428D
:109EF00017DAB4F84400ADF82E0006980FF018FDFC
:109F00004621095BBDF80E201144084400B2ADF8AB
:109F10003000CDF800800EAA06A93046636A0BF027
:109F2000B3FE00BFC6F808A000BF67E72DE9F14FF8
:109F30009AB01A980FF024FA80461A980FF091FA06
:109F40000446B8F1150F16D11A980FF021FA0546FC
:109F500018A9204605F016FF0AA80DF0C9FA0AAAAA
:109F60004FF48021204617F064FA18AA0AA928465F
:109F70000DF0A2FAC3E0B8F1180FFBD11A980FF058
:109F800007FA054612A80CF037FA12AA4FF48021FE
:109F9000204617F06CF910A9204605F0F3FE10AA30
:109FA0000EA8A968F6F76CFF0D900D9800287DD0DB
:109FB000204605F05AFB8146204617F016F88346E6
:109FC000484611F0F5FF02210390BDF95A00CDE992
:109FD00001B10090BDF95C300CA8129A03991CF0F5
:109FE000FDFF204615F030FA0646304606EBD071EC
:109FF0004A10B4F916100A44B9F91610891A0B91CF
:10A00000484615F021FA0B99890391FBF0F00B906B
:10A010000021204616F0DBFD0A901299B1F90820C4
:10A020000A99B1F90810501A00EBD071491009B221
:10A030000991BDF832100998081A00B2ADF8320043
:10A04000304606EBD0714A10B4F916105718BDF916
:10A0500032000B99484307EBA03709983F1A0021BB
:10A06000204616F060F982464FF0000B1222594646
:10A07000204616F0D7FC0390039800B2089000BF6A
:10A0800013225946204616F0CDFC0390039800B2E7
:10A090000790A18A08980844504400B2ADF8140013
:10A0A00038B2ADF81600218B079800E026E0081AB8
:10A0B000A0EB0A0000B2ADF81800BDF81600BDF81C
:10A0C0003210084400B2ADF81A009DF8650040F067
:10A0D00002008DF86500A86804900EA8A8604846A4
:10A0E00011F066FF834600205B4605AA12A9009086
:10A0F00028460BF0C9FD0498A86000BF00BF1BB044
:10A10000BDE8F08F2DE9F14FA8B028980FF0A9F91C
:10A110000446254628980FF03BF927900021204659
:10A1200016F018FB26900021204616F0A3FB259080
:10A130000021204616F052FC24900021204616F003
:10A1400049FA239000BFA08AADF88400E08AADF8F8
:10A150008600208BADF88800608BADF88A0000BFC8
:10A16000BDF884102698084400B2ADF88400BDF80C
:10A1700088102598081A00B2ADF88800BDF886103E
:10A180002498084400B2ADF88600BDF88A102398E0
:10A19000081A00B2ADF88A0013A80DF0A9F913AAA5
:10A1A0004FF40031204617F044F921AA13A927984B
:10A1B0000DF082F90026204615F046F9074600BF4B
:10A1C000208BA18A401A401CC01B0FFA80F8686AD5
:10A1D000401C40B1696A01FB08F0C11700EB116136
:10A1E00009120EB20CE0204615F092FF00F0010BB0
:10A1F000BBF1000F01D0404600E00020064600BF42
:10A200004FF0000B16225946204616F00BFC00902A
:10A210000098C0B2012802D1A8EB060006B2A08ABD
:10A22000304400B2ADF84400BDF84400384400B2F8
:10A23000ADF84800E08AADF84600608BADF84A0002
:10A240004FF44031204616F085FA81464FF44031F4
:10A25000204616F00FFB82464FF44031204616F0A0
:10A26000BDFB10904FF44031204616F0B3F90F902B
:10A27000BDF84400A0EB090000B2ADF84400BDF801
:10A280004800504400B2ADF84800BDF846101098A0
:10A29000081A00B2ADF84600BDF84A100F980844FD
:10A2A00000B2ADF84A0001A80DF022F901AA4FF45E
:10A2B0004031204617F0BDF811AA01A927980DF0EA
:10A2C000FBF829B0BDE8F08F2DE9F14FE0B06098C0
:10A2D0000FF0C7F80446254660980FF059F88046FD
:10A2E00004F114015EA8D8F80820F6F7C9FD10B9EA
:10A2F00061B0BDE8F08FD8F808005D905EA8C8F89E
:10A3000008004FF0000932224946204616F08AFB29
:10A310001390139800B259900021204616F06AFB62
:10A3200058900021204616F061F9579000212046F0
:10A3300016F01CFA56900021204616F0A7FA559008
:10A34000208C549000202084608C20F00400001D9C
:10A35000608446A80DF0CCF846AA4FF4A021204610
:10A3600017F067F830A80CF047F830AA4FF4A02196
:10A37000204616F07CFF54982084608C20F0040066
:10A3800060840027204615F063FA0146E28A589857
:10A390001044401E411A5998084400B2ADF86E01AD
:10A3A000204615F04BFA27900021204615F047FF74
:10A3B000012800D100E000202690414614A814F0A6
:10A3C000E3FC4FF4A0202190FE4815900020169049
:10A3D00038A8189028A819904FF0000B40E2E86ABE
:10A3E00030F91B001390BDF86E01401C00B2ADF8AF
:10A3F0006A01BDF86A1113980844401E00B2ADF816
:10A400006E01BDF96A01BDF97E11884200DD2BE2C3
:10A41000269858B1218B5598081A401E2799411A41
:10A420005998081A00B2ADF868010AE0A18A569856
:10A430000844401E2799411A5998084400B2ADF8C3
:10A440006C01002604E200201290A86A50F8270050
:10A4500020B1A86A50F8270000781290269880B1A1
:10A46000BDF86801401E00B2ADF86C01286B30F8F1
:10A470001600BDF86C11081A401C00B2ADF8680156
:10A480000FE0BDF86C01401C00B2ADF86801286B0C
:10A4900030F81600BDF868110844401E00B2ADF84F
:10A4A0006C014FF0000900BF2CE007EB0901A86A1E
:10A4B00050F821000F900F9806F07CFA00B127E0C9
:10A4C0000F9800780E900E9800F00100A8B106EBEE
:10A4D0000901491C2A6B32F91100269931B1BDF8E6
:10A4E0006811091A09B2ADF8681105E0BDF86C11E0
:10A4F000014409B2ADF86C1100E009E009F1010076
:10A500001FFA80F909EB0601A88C401E8142CCDBC2
:10A5100000BFBDF96E01BDF97A11884207DA09F171
:10A520000100384487B206EB090086B28EE100BF15
:10A53000BDF86801ADF84000BDF86A01ADF8420011
:10A54000BDF86C01ADF84400BDF86E01ADF84600F1
:10A5500000BF9DF83B01400800F0040090B1BDF938
:10A560004010B4F914205698104481420ADDBDF918
:10A57000380100EBD071BDF84020A2EB610109B2B7
:10A58000ADF840109DF83B01400800F0020090B18A
:10A59000BDF94210B4F916205898104481420ADDE2
:10A5A000BDF9380100EBD071BDF84220A2EB61018A
:10A5B00009B2ADF842109DF83B01400800F00800D8
:10A5C000B8B1BDF94410B4F918205598101A401EBE
:10A5D00081420EDABDF9380100EBD07182B202F08F
:10A5E000010202EB6101BDF84420114409B2ADF84B
:10A5F00044109DF83B01C0F34000B8B1BDF94610CE
:10A60000B4F91A205798101A401E81420EDABDF98B
:10A61000380100EBD07182B202F0010202EB61015D
:10A62000BDF84620114409B2ADF846104FF0000ABB
:10A63000E88E584523D1A88EB04220D194F820004E
:10A6400000F0400030B994F8200000F0200008B17C
:10A650004AF0200A94F8200000F0020008B14AF005
:10A66000020A94F8200000F0040008B14AF0040A3D
:10A6700094F8200000F0080008B14AF0080ABAF186
:10A68000000F0AD1382246A938A812F0F9FD20227D
:10A6900030A928A812F0F4FD1EE0A4F820A0608CD8
:10A6A00020F00400001D608438A80CF021FF28A8C9
:10A6B0000BF0A2FE38AA4FF4A021204616F0B9FEF6
:10A6C00028AA4FF4A021204616F0D1FD54982084EA
:10A6D000608C20F00400608410A81790A88C0BFBFD
:10A6E0000060229014AA1A2120460EF0C1FE10AA82
:10A6F00038A940460CF0E0FEA86A50F82700002870
:10A700005FD04FF4A021204616F030F80F904FF4A0
:10A71000A021204616F0BAF80E904FF4A021204652
:10A7200016F068F90D904FF4A021204615F05EFF59
:10A730000C9000200B90BDF868110F98084400B2EF
:10A74000ADF82400BDF86C110E98081A00B2ADF8EF
:10A750002800BDF86A110D98084400B2ADF8260033
:10A76000BDF86E110C98081A00B2ADF82A001298C4
:10A77000C0F340000890089808B102200B9000BF79
:10A78000BDF82800BDF82410401A401C00B2049007
:10A79000BDF9B22004990B98CDE900210290A86A76
:10A7A00050F82700411CBDF9B4305CA8309A1CF069
:10A7B00015FC089818BB139901EBD172BDF86A31EA
:10A7C00002E036E0A41F030803EB6202BDF9720148
:10A7D00000EBD073A2EB630212B2ADF826201399FE
:10A7E00001EBD172BDF86A3103EB6202BDF972016F
:10A7F00000EBD07302EB630212B2ADF82A205AAA22
:10A800005EA906A8F6F73CFB0590059880B106A85E
:10A81000C8F8080000200090A86A50F82700431CE0
:10A8200009AA28A940460BF02FFA5EA8C8F808002C
:10A8300000BF14AA1B2120460EF01AFE09F10100E8
:10A84000384487B206EB090086B200BF701C86B29E
:10A85000A88CB0423FF7F7AD0BF101001FFA80FB67
:10A86000E88C58453FF7BBAD00BF5D98C8F80800BD
:10A8700000BF3DE52DE9F04FA3B0074689461646D7
:10A880002297304607F06AFE054600EBD5704FEA86
:10A8900060083088404400B2ADF8840070884044BD
:10A8A00000B2ADF886001EA80BF069FE1EAA4FF498
:10A8B000A021384616F041FD18A80BF0C8F918AAD7
:10A8C0004FF4A021384616F06CFC0021384615F0F4
:10A8D000E5FD1790494605A814F056FA7048069011
:10A8E00021A80E9022983030F6F7EAFF0446D1E016
:10A8F00025681694207901285CD1B5F92000E98BF0
:10A9000008440090B5F92030D5E90512E06812F04E
:10A9100061FB8246A88B00EB0801608A08440FFAAD
:10A9200080FB0FFA8AF01CF06BFA10FB0BF047F675
:10A93000FF7190FBF1F0BDF88610084400B2ADF84D
:10A9400012000FFA8AF01CF052FA10FB0BF047F6D7
:10A95000FF7190FBF1F0BDF88410084400B2ADF82F
:10A960001000A08AADF87800208A00B2ADF87A0015
:10A970006079FD2801DD179803E060791799484355
:10A9800000128DF88000012013901EA80B9004A8DF
:10A990000F9005AA1A2138460EF06AFD04AB21AAD1
:10A9A0001EA948460BF0D4FD05AA1B2138460EF01F
:10A9B0005FFD68E02079002865D1206900B963E077
:10A9C000B5F92000E98B08440090B5F92030D5E9AD
:10A9D0000512E06812F0FEFA824604A9206910F020
:10A9E00053F9BDF88410A08A081A00B2ADF8080027
:10A9F000BDF88610E08A081A00B2ADF80A00BDF86A
:10AA000008000499C1F38A210844401E00B2ADF841
:10AA10000C00BDF80A00049900EB5150401E00B232
:10AA2000ADF80E006079FD2801DD179803E060792C
:10AA30001799484300128DF86B00A08AADF86400A6
:10AA4000E18A18A8C1800AEB8A004FEA400ABAF5E9
:10AA5000616F01DDAAF5616A0FFA8AF0ADF8600056
:10AA600018A80C9005AA1A2138460EF001FD02AA7A
:10AA700018A9484623690BF09BF805AA1B21384604
:10AA80000EF0F6FC00BF00BF214622983030F6F7EA
:10AA900011FF0446002C7FF42BAF23B0BDE8F08FEC
:10AAA00018E502082DE9F74F8AB00C46904694F855
:10AAB0002A00022802DC0DB0BDE8F08FE08C00B95E
:10AAC000F9E794F82A90B9F1FD0F01DD4FF0FF0985
:10AAD000414608A807F053FC208D401E05B2BDF882
:10AAE0002000401B00B2ADF82000BDF82200401B42
:10AAF00000B2ADF82200BDF82400284400B2ADF841
:10AB00002400BDF82600284400B2ADF8260008A9AC
:10AB100006A807F034FCBDF81800E18C401A00B21A
:10AB2000ADF81800BDF81C00E18C084400B2ADF887
:10AB30001C00BDF81A00E18C401A00B2ADF81A00F2
:10AB4000BDF81E00E18C084400B2ADF81E0008A854
:10AB500007F0F6FC824608A807F06AFC0746B4F93D
:10AB60000060BA4501DA504600E038468346B6EB4D
:10AB70006B0F01DD4FEA6B06E08C304400B20590AC
:10AB8000A07894F82A10CDE90210A08CADF804004A
:10AB900030B2009008AA06A9059B0A98FBF79DFC15
:10ABA00000BF88E7F8B5054628460EF05AFC064671
:10ABB00028460EF053FC0446606BB0F5A02F54D12C
:10ABC000A06B072806D200202169C870216981F88E
:10ABD000220014E0208F81B22022304608F08AFB48
:10ABE00068B100202169C870216981F82200122013
:10ABF00018F0BCFB0090BDF8001060698181208FC7
:10AC000081B24FF40042304608F074FB98B16620E0
:10AC10002169C87030461BF0E1FD0090BDF80010BE
:10AC200020698180304608F05FFBA16B884202D129
:10AC3000B2202169C870208F81B24FF48042304623
:10AC400008F058FB88B1FF20216981F822003046C6
:10AC50001BF0C4FD0090BDF800102069C18320697D
:10AC6000008C401C00B221690884F8BD2DE9F04F2A
:10AC70008BB0814648460EF0F4FB05462C4648460C
:10AC80000EF086FB8346606A11F092F982469AF8CC
:10AC9000000000283ED1A06A00283BD0A06A0078BE
:10ACA000C0B303A80BF0A8FB03AA4FF40021284669
:10ACB00016F0DDFA94F86000C0F3C00028B19DF8EA
:10ACC000290040F002008DF829000021284615F0E7
:10ACD00059FD07460021284615F098FE80460021C0
:10ACE000284615F02CFB064605F1140101A807F0D3
:10ACF00073FB08EB060002B2B81901B201A807F015
:10AD000068FC0020009001AA03A95846A36A0AF033
:10AD1000BBFF00BF0BB0BDE8F08F7CB50446A06957
:10AD200085686089002856D1A089002853D1E08821
:10AD3000218988424FDAE18808B21CF061F8B4F941
:10AD40000410B4F90E20891A48432168498801EBA0
:10AD5000E03000B2ADF80200E1885A3108B21CF0D0
:10AD60004FF8A18810FB01F02168098801EBE03061
:10AD700000B2ADF80400218908B21CF041F8A188A6
:10AD800010FB01F02168498801EBE03000B2ADF81A
:10AD9000060021895A3108B21CF032F8B4F90410C7
:10ADA000B4F90E20891A48432168098801EBE03084
:10ADB00000B2ADF800002A4669466846F6F760F82A
:10ADC00006463EB1A169C1F808D0D4E90412A069D1
:10ADD0000CF072FBC2E0608910B1A08900287BD121
:10ADE0006089D0BB20680088ADF8000020684088EA
:10ADF000A188084400B2ADF80600E18808B21BF053
:10AE0000FFFFB4F90410B4F90E20891A48432168F1
:10AE1000498801EBE03000B2ADF80200E1885A3118
:10AE200008B21BF0EDFFA18810FB01F02168098832
:10AE300001EBE03000B2ADF804002A4669466846EE
:10AE4000F6F71EF806463EB1A169C1F808D0D4E96C
:10AE50000412A0690CF030FB00BFA08900287DD14E
:10AE600020680088A188084400B2ADF8040020687A
:10AE70004088ADF80200218908B21BF0C1FFA1880B
:10AE800010FB01F02168498801EBE03000B2ADF819
:10AE9000060021895A3108B21BF0B2FFB4F9041040
:10AEA000B4F90E20891A48432168098801EBE03083
:10AEB00000B2ADF800002A4669466846F5F7E0FFA3
:10AEC00006463EB1A169C1F808D0D4E90412A069D0
:10AED0000CF0F2FA42E0FFE76089A189884205D1CF
:10AEE000608918B12089E188884211DB60890228D5
:10AEF00002D1A08901280BD06089032802D1A08942
:10AF0000022805D06089032828D1A089012825D1ED
:10AF100020680088ADF8000020684088ADF8020085
:10AF200020680088A188084400B2ADF804002068B9
:10AF30004088A188084400B2ADF806002A46694658
:10AF40006846F5F79DFF06463EB1A169C1F808D0F5
:10AF5000D4E90412A0690CF0AFFA00BFA0698560C3
:10AF60007CBD7CB50446A06985686089012856D1FE
:10AF7000A089012853D1E088218988424FDAE188ED
:10AF800008B21BF03DFFA18810FB01F02168498841
:10AF900001EBE03000B2ADF80600E1885A3108B2AA
:10AFA0001BF02EFFB4F90410B4F90E20891A48439F
:10AFB0002168098801EBE03000B2ADF80400218976
:10AFC00008B21BF01DFFB4F90410B4F90E20891A61
:10AFD00048432168498801EBE03000B2ADF8020037
:10AFE00021895A3108B21BF00BFFA18810FB01F038
:10AFF0002168098801EBE03000B2ADF800002A4674
:10B0000069466846F5F73CFF06463EB1A169C1F8BE
:10B0100008D0D4E90412A0690CF04EFAC7E06089A8
:10B02000012802D0A08901287ED1608901283AD167
:10B0300020680088A188401A00B2ADF8000020689E
:10B040004088ADF80200E18808B21BF0D9FEA18863
:10B0500010FB01F02168498801EBE03000B2ADF847
:10B060000600E1885A3108B21BF0CAFEB4F9041098
:10B07000B4F90E20891A48432168098801EBE030B1
:10B0800000B2ADF804002A4669466846F5F7F8FEB6
:10B0900006463EB1A169C1F808D0D4E90412A069FE
:10B0A0000CF00AFA00BFA0890128B7D120680088F7
:10B0B000401E00B2ADF8040020684088A188084412
:10B0C00000B2ADF80600218908B21BF099FEB4F970
:10B0D0000410B4F90E20891A48432168498801EB0D
:10B0E000E03000B2ADF8020021895A3108B21BF0FD
:10B0F00087FEA18810FB01F02168098801EBE03090
:10B1000000B2ADF800002A4669466846F5F7B8FE79
:10B1100006463EB1A169C1F808D0D4E90412A0697D
:10B120000CF0CAF943E0FFE76089A189884206D1A3
:10B130006089012803D02089E18888420FDB60897B
:10B1400010B9A08902280AD0608910B9A089032803
:10B1500005D0608903282AD1A089022827D1206838
:10B160000088A188401A00B2ADF80000206840882D
:10B17000ADF8020020680088401E00B2ADF804005F
:10B1800020684088A188084400B2ADF806002A462D
:10B1900069466846F5F774FE06463EB1A169C1F8F6
:10B1A00008D0D4E90412A0690CF086F900BFA069A8
:10B1B00085607CBD7CB50446A069856860890228ED
:10B1C00056D1A089022853D1E088218988424FDADC
:10B1D000E1885A3108B21BF013FEA18810FB01F080
:10B1E0002168098801EBE03000B2ADF80000E18889
:10B1F00008B21BF005FEB4F90410B4F90E20891A48
:10B2000048432168498801EBE03000B2ADF8060000
:10B21000218908B21BF0F4FDA18810FB01F0216820
:10B22000498801EBE03000B2ADF8020021895A31C3
:10B2300008B21BF0E5FDB4F90410B4F90E20891A28
:10B2400048432168098801EBE03000B2ADF8040002
:10B250002A4669466846F5F713FE06463EB1A169DF
:10B26000C1F808D0D4E90412A0690CF025F9CCE0AB
:10B270006089022802D0A08902287DD16089022835
:10B280003CD120680088401E00B2ADF80400206860
:10B290004088A188401A00B2ADF80200E1885A3116
:10B2A00008B21BF0ADFDA18810FB01F021680988F0
:10B2B00001EBE03000B2ADF80000E18808B21BF00D
:10B2C0009FFDB4F90410B4F90E20891A484321688F
:10B2D000498801EBE03000B2ADF806002A46694625
:10B2E0006846F5F7CDFD06463EB1A169C1F808D024
:10B2F000D4E90412A0690CF0DFF800BFA08902288D
:10B30000B5D120680088A188401A00B2ADF80000CD
:10B3100020684088401E00B2ADF8060021895A31ED
:10B3200008B21BF06DFDB4F90410B4F90E20891AAF
:10B3300048432168098801EBE03000B2ADF8040011
:10B34000218908B21BF05CFDA18810FB01F0216887
:10B35000498801EBE03000B2ADF802002A466946A8
:10B360006846F5F78DFD06464EB1A169C1F808D0D3
:10B37000D4E90412A06900E002E00CF09DF844E07A
:10B380006089A189884206D16089022803D020897A
:10B39000E18888420FDB608910B9A08903280AD0B0
:10B3A0006089012802D1A089032804D0608901287E
:10B3B0002BD1A08948BB20680088A188401A00B220
:10B3C000ADF8000020684088A188401A00B2ADF8AE
:10B3D000020020680088401E00B2ADF8040020681A
:10B3E0004088401E00B2ADF806002A46694668460D
:10B3F000F5F746FD06463EB1A169C1F808D0D4E98B
:10B400000412A0690CF058F800BFA06985607CBDEB
:10B410007CB50446A06985686089032856D1A08957
:10B42000032853D1E088218988424FDAE1885A31D4
:10B4300008B21BF0E5FCB4F90410B4F90E20891A27
:10B4400048432168098801EBE03000B2ADF8000004
:10B45000E18808B21BF0D4FCA18810FB01F0216840
:10B46000498801EBE03000B2ADF8020021895A3181
:10B4700008B21BF0C5FCA18810FB01F02168098807
:10B4800001EBE03000B2ADF80400218908B21BF0F6
:10B49000B7FCB4F90410B4F90E20891A48432168A6
:10B4A000498801EBE03000B2ADF806002A46694653
:10B4B0006846F5F7E5FC06463EB1A169C1F808D03B
:10B4C000D4E90412A0690BF0F7FFC7E060890328F4
:10B4D00002D0A08903287ED1608903283CD120684E
:10B4E0000088A188084400B2ADF8040020684088B4
:10B4F000401E00B2ADF80600E1885A3108B21BF0D8
:10B500007FFCB4F90410B4F90E20891A484321686D
:10B51000098801EBE03000B2ADF80000E18808B224
:10B520001BF06EFCA18810FB01F02168498801EB3B
:10B53000E03000B2ADF802002A4669466846F5F7E9
:10B540009FFC06463EB1A169C1F808D0D4E90412B7
:10B55000A0690BF0B1FF00BFA08903287ED120684D
:10B560000088ADF8000020684088A188401A00B229
:10B57000ADF8020021895A3108B21BF041FCA188C4
:10B5800010FB01F02168098801EBE03000B2ADF852
:10B590000400218908B21BF033FCB4F90410B4F99B
:10B5A0000E20891A48432168498801EBE03000B237
:10B5B000ADF806002A4669466846F5F761FC06467E
:10B5C0003EB1A169C1F808D0D4E90412A0690BF01A
:10B5D00073FF43E0FFE76089A189884206D1608953
:10B5E000032803D02089E18888420FDB6089022884
:10B5F00001D1A08950B16089012801D1A08928B169
:10B60000608902282AD1A089012827D120680088D2
:10B61000ADF8000020684088A188401A00B2ADF85B
:10B62000020020680088A188084400B2ADF8040038
:10B6300020684088401E00B2ADF806002A466946E0
:10B640006846F5F71DFC06463EB1A169C1F808D071
:10B65000D4E90412A0690BF02FFF00BFA069856038
:10B660007CBD000070B5A4B006460D4620AA22A9F4
:10B67000304614F0F7F822A806F012FF28B920A8E7
:10B6800006F00EFF08B924B070BD12A930461EF0B6
:10B69000EBF90446012C00D0F5E72946684613F083
:10B6A00073FB1B4801900220029012A804904FF4F3
:10B6B00080300D9022A806F0F3FE80B122A80390FE
:10B6C0006A461A2130460DF0D3FE22AA12A9284656
:10B6D0000BF0F2FE6A461B2130460DF0C9FE20A891
:10B6E00006F0DEFE90B120A803906A461A2130468B
:10B6F0000DF0BEFE20A8039020AA12A928460BF048
:10B70000DBFE6A461B2130460DF0B2FE00BFBAE7F1
:10B7100008DE02082DE9F04FB3B005460F4605F1EB
:10B72000140131A8BA68F5F7ABFB10B933B0BDE826
:10B73000F08FB868309031A8B8602C4600212846B8
:10B7400014F0B4FF2D900021284615F0E7F82C9056
:10B75000284613F003FEB4F88410484300120FFA91
:10B7600080FA284613F0DBFDB4F886104843001237
:10B770000FFA80FB04F12400F6F783F82A900021E9
:10B78000284614F057FF82346188484300122990FC
:10B790002188491E299801FB10A0218890FBF1F017
:10B7A00001B228914FF4A021284614F043FF61888C
:10B7B000823C4843001227902A98421EDDE9270167
:10B7C00002FB10112A98B1FBF0F000B22690002184
:10B7D000284614F090FD2590284613F02BFF0146D3
:10B7E0002D98411A2598084400B22490284614F058
:10B7F0001BF801462C98411A2598084400B2239062
:10B8000015A80BF075FE15AA4FF4A021284615F0D7
:10B8100010FE15A8C07B20F0070115A8C173FF20FA
:10B820008DF85700688BBDF85410084400B2ADF88D
:10B83000BE00394603A813F0A7FA4FF4A0201090D9
:10B840005E480490042005904FF00008ACE0289872
:10B85000AAEB000000FB08F0B4F88210491E90FB30
:10B86000F1F0A98A01442498084400B20290CDF86E
:10B87000448004F12400F6F723F806468CE0307B80
:10B8800000F0010000B181E094F88800C0F3C0002E
:10B8900008B9708900E0002000B201900298ADF86C
:10B8A000B800BDF8B81026980844401E00B2ADF8A4
:10B8B000BC00DDE9260101440298084400B2029070
:10B8C000BDF9BC00BDF9C410884200DA5EE0BDF9E4
:10B8D000B800BDF9C810884200DD60E03089ADF8DD
:10B8E000580001984044B4F8821090FBF1F201FB3B
:10B8F00012000FFA80F9706830F91910307BC0F32C
:10B90000001204F16C0030F91200081A00FB0BF071
:10B910002B90307BC0F3001104F1700030F911104E
:10B92000307BC0F3001204F16C0030F91200091AE8
:10B930002B9890FBF1F02B902B98ABEB0001E88A51
:10B9400001442398084400B2ADF8BA00706830F999
:10B95000190047F6FF71884217D02EA8069015A847
:10B9600007901496706830F91900139003AA1A21F1
:10B9700028460DF07DFD2EAA15A938460BF09CFD3A
:10B9800003AA1B2128460DF073FD00BF314604F1C8
:10B990002400F5F78FFF0646002E7FF470AF00BF3E
:10B9A00008F101001FFA80F8B4F8820040453FF723
:10B9B0004EAF3098B86000BFB8E60000E0DF020884
:10B9C0002DE9F34FB9B083463A980BF11401826820
:10B9D00037A8F5F755FA10B93BB0BDE8F08F3A98A3
:10B9E0008068369037A93A9881605D46B5F8820044
:10B9F000022800DAF0E70021584614F07CFC33906E
:10BA00000021584614F052FE01463398084400B213
:10BA100032900021584614F081FF014633980844C3
:10BA200000B23190584613F099FCB5F884104843A1
:10BA3000001200B23090584613F071FCB5F8861031
:10BA40004843001200B22F90584613F0F3FD014610
:10BA5000BBF8142032981044401A00B22E90584679
:10BA600013F0E2FE0146BBF8162031981044401A4C
:10BA700000B22D903A980BF1140182682BA8F5F7CB
:10BA8000FFF92A902A9800B9A6E727A80AF077FDBF
:10BA900027AA4FF4A021584615F04FFC19A80BF027
:10BAA00027FD19AA4FF40031584615F0C2FC4FF497
:10BAB0000031584615F06CF9064600EBD670471079
:10BAC0004FF40031584614F089FC064600EBD6705E
:10BAD0004FEA600ABDF99E00574501DA394600E099
:10BAE000514600EBD072B1EB620F06DD9DF8A50068
:10BAF00020F0100010308DF8A500BDF89E00012840
:10BB000006D19DF8A50020F0100010308DF8A5009A
:10BB1000B5F882103098814201DB012000E000205E
:10BB2000189005F12400F5F7CBFE0446D4E1207B04
:10BB300000F0010000B1C9E12089ADF89C00208926
:10BB4000ADF8680095F88800C0F3C00008B96089B6
:10BB500000E0002006B217962E98ADF8D4002E987B
:10BB6000ADF8D000179E179EB046606830F91810E7
:10BB7000207BC0F3001205F16C0030F91200081AA6
:10BB80002F9948431690207BC0F3001105F17000F7
:10BB900030F91110207BC0F3001205F16C0030F970
:10BBA0001200091A169890FBF1F0169016992F982A
:10BBB000411A2D98084400B2ADF8D20004A83A9971
:10BBC00013F0E2F8C8480590032006904FF4A02037
:10BBD000119027A80A9019A808901594BDF9D200D1
:10BBE0000390BDF9D20002904FF0000923E1BDF8A7
:10BBF000D000ADF8D400BDF8D200ADF8D600BDF944
:10BC0000D4103698B0F904003844401C814200DD5D
:10BC100016E1309800FB09F0B5F88210491E90FB40
:10BC2000F1F12E98084400B2ADF8D00017984844BE
:10BC3000B5F8821090FBF1F201FB120006B26068C9
:10BC400030F91610207BC0F3001205F16C0030F9BA
:10BC50001200081A2F9948431690207BC0F3001158
:10BC600005F1700030F91110207BC0F3001205F1CE
:10BC70006C0030F91200091A169890FBF1F016903A
:10BC800016992F98411A2D98084400B2ADF8D200A9
:10BC9000BDF9D0103698B0F90000C01B401E81429B
:10BCA00001DAB046C3E0B9F1000F58D01898E8B3F4
:10BCB000606830F9180047F6FF718842F5D0606877
:10BCC00030F916008842F0D0BDF9D21002988142B6
:10BCD00001DA029801E0BDF9D2000290BDF9D2105C
:10BCE0000398814201DD039801E0BDF9D200039081
:10BCF000BDF9D400BDF9D010884230D0BDF9D200D2
:10BD00000190BDF8D000401E00B2ADF8D000BDF8E3
:10BD1000D000ADF8D4000398ADF8D6000298ADF885
:10BD2000D200BDF9D600BDF9D21000E018E088427B
:10BD300005D1BDF8D200401C00B2ADF8D20034AB42
:10BD400035AA27A93A980AF003FCBDF8D000401C98
:10BD500000B2ADF8D000019803900198029064E021
:10BD6000BDF8D400C01B00B2ADF80000BDF8D4008F
:10BD7000384400B2ADF80400BDF8D600A0EB0A00CC
:10BD800000B2ADF80200BDF8D600504400B2ADF8E4
:10BD90000600A9F101001290606830F9180047F61A
:10BDA000FF71884201D035A800E000200D90606846
:10BDB00030F9160047F6FF71884201D034A800E040
:10BDC00000200E90CDF81CD0606830F91800149057
:10BDD00004AA1A2158460DF04BFB606830F9180090
:10BDE00047F6FF7188420AD0606830F91600884231
:10BDF00005D034AB35AA27A93A980AF0A9FB77B148
:10BE0000BAF1000F0BD0606830F9180047F6FF71E7
:10BE1000884204D06A4619A93A980BF04DFB04AA4F
:10BE20001B2158460DF024FB00BFB04600BF09F1AE
:10BE300001001FFA80F9B5F8820048453FF7D7AEF8
:10BE400000BF1898E8BBB5F8820048453DD160684E
:10BE500030F9160047F6FF71884236D0BDF8D000A1
:10BE6000C01B00B2ADF80000BDF8D000384400B2ED
:10BE7000ADF80400BDF8D200A0EB0A0000B2ADF8A6
:10BE80000200BDF8D200504400B2ADF80600A9F19E
:10BE90000100129000200D900E90CDF81CD060682B
:10BEA00030F91600149004AA1A2158460DF0E0FA51
:10BEB0006A4619A93A980BF0FFFA04AA1B215846C2
:10BEC00000E002E00DF0D4FA00BF00BF214605F10A
:10BED0002400F5F7EFFC0446002C7FF428AE3A99D5
:10BEE0003698886000BF77E5E0DF02082DE9F34F60
:10BEF000B3B08146349809F11401826831A8F4F78F
:10BF0000BFFF10B935B0BDE8F08F3498806830902D
:10BF100031A9349881604D460021484614F0EBF970
:10BF20002D900021484614F0C1FB2C90002148467A
:10BF300014F0F4FC2B90484613F010FAB5F8841076
:10BF40004843001200B22A90484613F0E8F9B5F8C9
:10BF500086104843001200B22990484613F06AFB4D
:10BF60000146B9F814202C9802442D981044401A28
:10BF700000B22890484613F057FC0146B9F8162045
:10BF80002B9802442D981044401A00B2279024A800
:10BF90000AF0F5FA24AA4FF4A021484615F0CDF98D
:10BFA00016A80BF0A5FA16AA4FF40031484615F072
:10BFB00040FA4FF40031484614F0EAFE064600EB22
:10BFC000D67047104FF40031484614F007FA064681
:10BFD00000EBD6704FEA6008BDF99200474501DAE0
:10BFE000394600E0414600EBD072B1EB620F06DD4E
:10BFF0009DF8990020F0100010308DF89900BDF8E0
:10C000009200012806D19DF8990020F01000103010
:10C010008DF8990005F12400F5F752FC044698E1EB
:10C02000207B00F0010000B18DE12089ADF8900087
:10C030002089ADF85C0095F88800C0F3C00008B90D
:10C04000608900E0002006B215962898ADF8BC0083
:10C050002898ADF8B800159E159EB346606830F874
:10C0600016000A2847D02A980090236833F9160052
:10C07000237BC3F3C00C05F1780333F91C20237B29
:10C08000C3F3C00C05F1740333F91C10002310F046
:10C09000A1FF00B2ADF8B800BDF8B8102898084468
:10C0A00000B2ADF8B80029980090636833F9160023
:10C0B000237BC3F3001C05F1700333F91C20237BA1
:10C0C000C3F3001C05F16C0333F91C10002310F0BE
:10C0D00081FF00B2ADF8BA00BDF8BA102998401A35
:10C0E00000B2ADF8BA00BDF8BA102798084400B203
:10C0F000ADF8BA0005E04EF20100ADF8B800ADF8B9
:10C10000BA0003A8349912F03FFE4FF4A02010901B
:10C11000944804900320059024A8099016A807903D
:10C1200014944FF0000AC8E0BDF8B800ADF8BC00A8
:10C13000BDF8BA00ADF8BE0015985044B5F88210AD
:10C1400090FBF1F201FB120006B2606830F91600B4
:10C1500047F6FF71884247D029980090636833F909
:10C160001600237BC3F3001C05F1700333F91C2078
:10C17000237BC3F3001C05F16C0333F91C1000236F
:10C1800010F028FF00B2ADF8BA00BDF8BA10299837
:10C19000401A00B2ADF8BA00BDF8BA1027980844AA
:10C1A00000B2ADF8BA002A980090236833F916005F
:10C1B000237BC3F3C00C05F1780333F91C20237BE8
:10C1C000C3F3C00C05F1740333F91C10002310F005
:10C1D00001FF00B2ADF8B800BDF8B81028980844C7
:10C1E00000B2ADF8B80001E0B34662E0BAF1000F6A
:10C1F0005DD0BDF8BC00C01B00B2ADF80400BDF8B6
:10C20000BC00384400B2ADF80800BDF8BE00A0EB99
:10C21000080000B2ADF80600BDF8BE00404400B210
:10C22000ADF80A00AAF101001190606830F91B0016
:10C2300047F6FF71884201D02FA800E000200C9043
:10C24000606830F9160047F6FF71884201D02EA8C9
:10C2500000E000200D9001A80690606830F91B00F6
:10C26000139003AA1A2148460DF002F9606830F9CC
:10C270001B0047F6FF71884213D0606830F9160042
:10C2800088420ED02EAB2FAA24A934980AF060F968
:10C290003FB1B8F1000F04D001AA16A934980BF0F1
:10C2A0000BF903AA1B2148460DF0E2F800BFB34684
:10C2B00000BF0AF101001FFA80FAB5F8820050456C
:10C2C0003FF732AFB5F8820050453BD1606830F996
:10C2D000160047F6FF71884234D0BDF8B800C01B85
:10C2E00000B2ADF80400BDF8B800384400B2ADF8B3
:10C2F0000800BDF8BA00A0EB080000B2ADF80600D7
:10C30000BDF8BA00404400B2ADF80A00AAF101003D
:10C31000119000200C900D9001A80690606830F9F3
:10C320001600139003AA1A2148460DF0A1F801AA9D
:10C3300016A934980BF0C0F803AA1B2148460DF04B
:10C3400097F800BF00BF214605F12400F5F7B2FAC7
:10C350000446002C7FF464AE34993098886000BFA6
:10C36000D0E50000E0DF02082DE9F74FA2B00F464C
:10C37000F88D10B925B0BDE8F08F97F83600022887
:10C3800000DCF7E7F88D012808D1B7F93400002860
:10C3900004DC388E10B9788E00B9EBE72498008859
:10C3A000398E0844B98E401A00B2ADF88000249846
:10C3B0008088398E0844B98E084400B2ADF88400F4
:10C3C00024984088798E0844B98E401A00B2ADF89E
:10C3D00082002498C088798E0844B98E084400B23F
:10C3E000ADF88600B7F92E0000EBD071BDF88020C3
:10C3F000A2EB6101491E09B2ADF87810B7F92E0021
:10C4000000EBD071BDF8842002EB6101491C09B238
:10C41000ADF87C10B7F92E0000EBD071BDF882208A
:10C42000A2EB6101491E09B2ADF87A10B7F92E00EE
:10C4300000EBD071BDF8862002EB6101491C09B206
:10C44000ADF87E1097F836001D901D98FD2801DD8F
:10C45000FF201D9022981EA982681BA8F4F710FDEA
:10C4600000B987E719A8249905F089FF4FF0FF323A
:10C47000114619A806F09CF8B7F9008019A806F033
:10C480005FF8834619A805F0D3FF834503DA19A89E
:10C4900006F056F802E019A805F0CAFF189018989F
:10C4A000B8EB600F02DD18984FEA6008B7F900009A
:10C4B000179020A806F044F8834620A805F0B8FF9E
:10C4C000834503DA20A806F03BF802E020A805F037
:10C4D000AFFF1890DDE91701B0EB610F02DD18988E
:10C4E00040101790B7F92E1017980C1804FB04F1A0
:10C4F000480010F0DDFD8246B7F92E20179803B2F0
:10C50000514620A81DF07FFC1EA80AF063FB169080
:10C510004FF00109169820B9F878FF2801DBB878A8
:10C5200008B14FF000094FF0FF300F90B9F1000F44
:10C530000BD101230FFA88F219A910A80AF0C2FE44
:10C54000002110A80AF048F80F901EA805F0F8FF87
:10C55000834610F0ADFD0E901C2102A811F012F8D8
:10C560000CA8029007900E980590B88DADF81000B9
:10C5700097F836008DF82000B8788DF821001EA8B5
:10C5800005F0DEFF834600EBDB70BDF8781001EBB1
:10C59000600000B201901EA805F04AFF834600EB40
:10C5A000DB70BDF87A1001EB600000B20090BDF8BE
:10C5B0007C00ADF83400BDF87C00001B401C00B2CC
:10C5C000ADF83000BDF87A00ADF83200BDF87A0061
:10C5D0002044401E00B2ADF83600BDF9301001987D
:10C5E000814202DDBDF9300000E00198ADF8300075
:10C5F000BDF936100098814202DABDF9360000E03C
:10C600000098ADF8360022980CA982680AA8F4F7C1
:10C6100037FC002866D00FFA88F219A90AA8F4F7A7
:10C6200070FC00285ED10AA805F08AFF83465646B2
:10C63000BDF92A00BDF97A10401A00FB0466BDF965
:10C640002810BDF97C00001B401C081A0644B9F1F3
:10C65000000F09D00FFA88F219A90AA8F4F7CCFC48
:10C6600010B10120099001E0CDF82490BBF1000F3A
:10C6700037DD0E980590BDF82800ADF83000BDF804
:10C680002C00ADF8340002208DF81800BDF92A50B6
:10C6900023E0ADF83250ADF836500998A8B92246DB
:10C6A00031460E9810F0ECFDBDF928105B462A4685
:10C6B0000E980AF03FFA8DF818009DF8180001282E
:10C6C00004D102208DF8180000E0059602A92298F6
:10C6D0000BF038F92644681C05B2BDF92E00A842BB
:10C6E000D7DA00BFBDF87C00ADF83400BDF87C009F
:10C6F000001B401C00B2ADF83000BDF87E00001BEE
:10C70000401C00B2ADF83200BDF87E00ADF8360036
:10C71000BDF930100198814202DDBDF9300000E022
:10C720000198ADF83000BDF932100098401C8142EC
:10C7300002DDBDF9320001E00098401C00B2ADF806
:10C74000320022980CA982680AA8F4F799FB002805
:10C7500066D00FFA88F219A90AA8F4F7D2FBA8BB91
:10C760000AA805F0EDFE83465646BDF93600BDF930
:10C770002E10401A00FB0466BDF92810BDF97C009C
:10C78000001B401C081A0644B9F1000F09D00FFA2B
:10C7900088F219A90AA8F4F72FFC10B1012009901A
:10C7A00001E0CDF82490BBF1000F38DD0E98059024
:10C7B000BDF82800ADF83000BDF82C00ADF834000D
:10C7C00002208DF81800BDF92E5024E028E0ADF8C5
:10C7D0003250ADF836500998A8B9224631460E9825
:10C7E00010F04EFDBDF928105B462A460E980AF05F
:10C7F000A1F98DF818009DF81800012804D1022035
:10C800008DF8180000E0059602A922980BF09AF81E
:10C810002644681E05B2BDF92A00A842D7DD00BF34
:10C82000BDF87800204400B2ADF83000BDF87C00BF
:10C83000001B00B2ADF83400BDF87A00ADF832004C
:10C84000BDF87A002044401E00B2ADF83600BDF9B4
:10C8500036100098814202DABDF9360000E00098F7
:10C86000ADF8360022980CA982680AA8F4F708FBF4
:10C87000002870D00FFA88F219A90AA8F4F741FB32
:10C88000002868D10AA805F05BFE83465646BDF92C
:10C890002A00BDF93210401A00FB0466B9F1000FFE
:10C8A00009D00FFA88F219A90AA8F4F7A5FB10B16C
:10C8B0000120099001E0CDF82490BBF1000F49DD83
:10C8C000099810B90E98059001E000200590BDF878
:10C8D0002800ADF83000BDF82C00ADF83400BDF9EB
:10C8E0002A5033E0ADF83250ADF836500998C8B947
:10C8F00031785A460E9810F00BFEBDF928105B46B1
:10C900002A460E980AF016F98DF818009DF81800BE
:10C91000012802D102208DF8180002A922980BF0FC
:10C9200011F810E01D98FF2801D1307805E030782B
:10C9300097F8361010FB01F000128DF8200002A9C4
:10C9400022980AF0FFFF2644681C05B2BDF92E00AC
:10C95000A842C7DA00BF97F836008DF82000BDF86E
:10C960007800204400B2ADF83000BDF87C00001B18
:10C9700000B2ADF83400BDF87E00001B401C00B2D0
:10C98000ADF83200BDF87E00ADF83600BDF93210CA
:10C990000098401C814202DDBDF9320001E00098A0
:10C9A000401C00B2ADF8320022980CA982680AA897
:10C9B000F4F766FA00287DD00FFA88F219A90AA8C0
:10C9C000F4F79FFA00287AD10AA805F0B9FD83464A
:10C9D0005646BDF93600BDF92E10401A00FB04661C
:10C9E000BBF1000F6ADDB9F1000F09D00FFA88F230
:10C9F00019A90AA8F4F700FB10B10120099001E081
:10CA0000CDF82490099810B90E98059001E0002007
:10CA10000590BDF82800ADF83000BDF82C00ADF849
:10CA20003400BDF92E5042E0ADF83250ADF836502A
:10CA3000B9F1000F09D00FFA88F219A90AA8F4F782
:10CA4000DBFA10B10120099001E0CDF8249009989B
:10CA5000C8B931785A460E9810F05AFDBDF9281021
:10CA60005B462A460E980AF065F88DF818009DF886
:10CA70001800012802D102208DF8180002A922987E
:10CA80000AF060FF10E01D98FF2801D1307805E022
:10CA9000307897F8361010FB01F000128DF8200066
:10CAA00002A922980AF04EFF2644681E05B2BDF97D
:10CAB0002A0001E003E001E0A842B5DD00BF97F8DD
:10CAC00036008DF82000BDF87C00001B401C00B231
:10CAD000ADF83000BDF87C00ADF83400BDF87A0048
:10CAE000204400B2ADF83200BDF87E00001B00B259
:10CAF000ADF83600BDF932100098401C814202DAD0
:10CB0000BDF9320001E00098401C00B2ADF83200DF
:10CB1000BDF936100098814202DDBDF9360000E013
:10CB20000098ADF83600BDF930100198814202DD61
:10CB3000BDF9300000E00198ADF8300022980CA952
:10CB400082680AA8F4F79CF9E0B30FFA88F219A9F1
:10CB50000AA8F4F7D6F9A8BB0AA805F0F1FC8346A9
:10CB60005646601E00FB0466BDF92810BDF97C0026
:10CB7000001B401C081A0644B9F1000F09D00FFA37
:10CB800088F219A90AA8F4F737FA10B10120099020
:10CB900001E0CDF82490099808B1304600E00E98E5
:10CBA0000590BBF1000F33DDBDF82800ADF8300073
:10CBB000BDF82C00ADF8340002208DF81800BDF946
:10CBC0002A5021E025E0ADF83250ADF836500998F2
:10CBD000A0B95A4631460E9810F052FBBDF9281004
:10CBE0005B462A460E9809F0A5FF8DF818009DF8BF
:10CBF0001800012802D102208DF8180002A92298FD
:10CC00000AF0A0FE681C05B2BDF92E00A842DADACF
:10CC100000BF5646002515E030463319591E002244
:10CC200008E0037891F800C080F800C00B70401C49
:10CC3000491E521C04EBD47CB2EB6C0FF1DB264492
:10CC4000681C05B2A542E7DBBDF87800ADF83000FE
:10CC5000BDF878002044401E00B2ADF83400BDF8A5
:10CC60007A00204400B2ADF83200BDF87E00001B0F
:10CC700000B2ADF83600BDF932100098401C814278
:10CC800002DABDF9320001E00098401C00B2ADF8B4
:10CC90003200BDF936100098814202DDBDF9360040
:10CCA00000E00098ADF83600BDF934100198401E40
:10CCB000814202DABDF9340001E00198401E00B261
:10CCC000ADF8340022980CA982680AA8F4F7D8F8C5
:10CCD000D0B30FFA88F219A90AA8F4F712F998BB91
:10CCE0000AA805F02DFC83465646601E00FB04662C
:10CCF000BDF92800BDF93010401A0644B9F1000F03
:10CD000009D00FFA88F219A90AA8F4F775F910B139
:10CD10000120099001E0CDF82490099808B130462F
:10CD200000E00E980590BBF1000F33DDBDF8280040
:10CD3000ADF83000BDF82C00ADF8340002208DF8BD
:10CD40001800BDF92A5021E025E0ADF83250ADF8C9
:10CD500036500998A0B95A4631460E9810F090FA0C
:10CD6000BDF928105B462A460E9809F0E3FE8DF8BF
:10CD700018009DF81800012802D102208DF8180033
:10CD800002A922980AF0DEFD681C05B2BDF92E004A
:10CD9000A842DADA00BFBDF87800ADF83000BDF87F
:10CDA00078002044401E00B2ADF83400BDF87A008F
:10CDB000ADF83200BDF87A002044401E00B2ADF854
:10CDC0003600BDF934100198401E814202DABDF9E7
:10CDD000340001E00198401E00B2ADF83400BDF906
:10CDE00036100098814202DABDF9360000E0009862
:10CDF000ADF8360022980CA982680AA8F4F740F82A
:10CE0000D0B30FFA88F219A90AA8F4F77AF898BBF8
:10CE10000AA805F095FB83465646BDF92A00BDF9E0
:10CE20003210401A00FB0466BDF92800BDF930102D
:10CE3000401A0644B9F1000F09D00FFA88F219A977
:10CE40000AA8F4F7D9F810B10120099001E0CDF853
:10CE500024900E980590BBF1000F36DDBDF8280038
:10CE6000ADF83000BDF82C00ADF8340002208DF88C
:10CE70001800BDF92A5024E028E0ADF83250ADF892
:10CE800036500998A8B9224631460E9810F0F8F9A4
:10CE9000BDF928105B462A460E9809F04BFE8DF826
:10CEA00018009DF81800012804D102208DF8180000
:10CEB00000E0059602A922980AF044FD2644681C69
:10CEC00005B2BDF92E00A842D7DA00BFBDF8780040
:10CED000ADF83000BDF878002044401E00B2ADF837
:10CEE0003400BDF87E00001B401C00B2ADF83200DB
:10CEF000BDF87E00ADF83600BDF932100098401C38
:10CF0000814202DDBDF9320001E00098401C00B210
:10CF1000ADF83200BDF934100198401E814202DAAA
:10CF2000BDF9340001E00198401E00B2ADF83400B4
:10CF300022980CA982680AA8F3F7A2FFD0B30FFACF
:10CF400088F219A90AA8F3F7DCFF98BB0AA805F034
:10CF5000F7FA83465646BDF93600BDF92E10401A41
:10CF600000FB0466BDF92800BDF93010401A0644E4
:10CF7000B9F1000F09D00FFA88F219A90AA8F4F73D
:10CF80003BF810B10120099001E0CDF824900E98F3
:10CF90000590BBF1000F36DDBDF82800ADF830007C
:10CFA000BDF82C00ADF8340002208DF81800BDF952
:10CFB0002E5024E028E0ADF83250ADF836500998F4
:10CFC000A8B9224631460E9810F05AF9BDF928103A
:10CFD0005B462A460E9809F0ADFD8DF818009DF8C5
:10CFE0001800012804D102208DF8180000E00596F1
:10CFF00002A922980AF0A6FC2644681E05B2BDF9D3
:10D000002A00A842D7DD00BFBDF87800204400B256
:10D01000ADF83000BDF87C00001B00B2ADF8340064
:10D02000BDF87A00204400B2ADF83200BDF87E00B1
:10D03000001B00B2ADF836000E98059022980CA99E
:10D0400082680AA8F3F71CFFA0B30FFA88F219A9A7
:10D050000AA8F3F756FF68BB0AA805F071FA8346E1
:10D06000BBF1000F25DDBDF82800ADF83000BDF89C
:10D070002C00ADF83400BDF92A5016E0ADF832505E
:10D08000ADF8365059460E9810F0B3FABDF9281095
:10D090005B462A460E9809F04DFD8DF8180002A94E
:10D0A00022980AF04FFC681C05B2BDF92E00A84278
:10D0B000E4DA00BFB9F1000F05D110A809F066FD50
:10D0C0000F980AF0E7F9504610F06EF80E9810F03D
:10D0D0006BF800BFFFF74EB92DE9F74FD6B0934676
:10D0E00056985590584605F039FA814600EBD970AC
:10D0F0004FEA600A584605F0A9F9804600EBD8705F
:10D100004010824507DA584605F028FA074607EB33
:10D11000D770401006E0584605F098F9054605EB33
:10D12000D570401006B2BBF80000304400B2ADF834
:10D130005001BBF80200304400B2ADF8520151A8D2
:10D1400009F01DFA51AA4FF4C021569814F0F5F8D1
:10D150009DF84D0120F0100010308DF84D0149A8C8
:10D1600009F04AF949AA4FF4C021569814F07FF803
:10D1700025A8579911F008FEFE4826904FF4C020CC
:10D1800032900320279051A82B9055982430F4F723
:10D1900097FB04460CE236943746A088381A00B252
:10D1A0002490A089381A0FFA80FABDF850112498FB
:10D1B000081A00B2ADF88800BDF852112498081A78
:10D1C00000B2ADF88A00BDF850112498084400B2AE
:10D1D000ADF88C00BDF852112498084400B2ADF8A7
:10D1E0008E00012347F6FF7222A943A80AF06AF8CD
:10D1F000BDF85001A0EB0A0000B2ADF88000BDF808
:10D200005201A0EB0A0000B2ADF88200BDF8500157
:10D210005044401E00B2ADF88400BDF852015044A5
:10D22000401E00B2ADF88600012347F6FF7220A928
:10D230003DA80AF047F8BDF85001C01B00B2ADF898
:10D240007800BDF85201C01B00B2ADF87A00BDF8FD
:10D2500050013844401E00B2ADF87C00BDF85201C8
:10D260003844401E00B2ADF87E00002347F6FF723E
:10D270001EA937A80AF026F8002137A809F0ACF952
:10D280001D904FF0FF301C90608910B16089401EE6
:10D2900001E04FF6FF701B904FF0000872E11B9801
:10D2A000401C1B9000201A9061891B98814203D179
:10D2B00000201B9001201A90A06900906088421EF7
:10D2C0000021404663690FF085FE8146CDF8D49079
:10D2D0001A9810B12089199001E0206819901998C6
:10D2E00018901A9808B1E08900E0E08800B2179021
:10D2F0001798169055983030F4F7E2FA054660E03A
:10D300002879022800D056E0A868484552DCE86831
:10D3100048454FDB298A1698084400B21690698A5E
:10D32000A88A814202D1688A199043E0A87D00F062
:10D33000010050B1FF20009000234846D5E90212B9
:10D340000FF048FEC0B2139009E0FF2000900023C8
:10D350004846D4E905120FF03DFEC0B21390A98AE9
:10D360001191698A1291139800F1040C4FEADC00C4
:10D37000BDF848C04CEA0C4CDFF8FCE10CEA0E01A9
:10D38000BDF844C04CEA0C4C0CEA0E02A2EB010CB6
:10D390000CFB00FC01EB5C1C0CEA0E0343EA134C93
:10D3A0001FFA8CFCCDF840C0BDF840E0F446CDF843
:10D3B00064C000BF00BF294655983030F4F77AFAB0
:10D3C0000546002D9CD1E08B00FB08F000EB8000AF
:10D3D00041006088401E91FBF0F0B4F9201001EB91
:10D3E000810100EB41001590BDF86400ADF84401E7
:10D3F0001698ADF84601BDF950013844822F01DA84
:10D40000822100E03946084400B2ADF85000BDF872
:10D410005201ADF8520054AB4FF4807214A8159924
:10D4200015F0C8FF54A82E9014A82F90CDF8CC80EA
:10D4300049A82A901A98002871D01D980AF02AF855
:10D44000B4F91000AAEB00001390BDF85011139826
:10D45000084400B2ADF84800BDF85201ADF84A00EA
:10D4600054AB4FF4807212A8159915F0A3FF202237
:10D4700049A90AA80FF004FF0AA82A904B463FA228
:10D48000102106A816F0D2FF06A8309025AA1A216E
:10D4900056980BF0EDFF002141F6FF72BDF9360101
:10D4A000CDE901210090BDF9383105A8499A30999C
:10D4B00019F094FDBDF9140000EBD071BDF84820BF
:10D4C000A2EB610109B2ADF80C10BDF9160000EB3A
:10D4D000D071BDF84A20A2EB610109B2ADF80E107F
:10D4E000BDF80C00BDF81410084400B2ADF81000EF
:10D4F000BDF80E00BDF81610084400B2ADF81200D9
:10D500000020009003AA309B2A99579808F0BCFB92
:10D51000002137A809F060F81D9008E0FFE700201F
:10D520002A90309025AA1A2156980BF0A1FF1A993B
:10D5300009B13DA900E043A90846002109F04CF8D3
:10D540001C9054AB14AA51A9579809F001F81C98E3
:10D5500009F0A0FF25AA162156980BF089FFBDF807
:10D560006000ADF844011798ADF8460108F10100DC
:10D5700006E0000018E502081FF8E0072564000037
:10D580001FFA80F8608840453FF789AE43A809F04C
:10D59000FDFA3DA809F0FAFA37A809F0F7FA1D9844
:10D5A00009F078FF214655982430F4F783F90446B2
:10D5B000002C7FF4F0AD59B0BDE8F08F2DE9F04FAD
:10D5C000B1B005468B4690462E464146284602F0AD
:10D5D0004CFC04462089C0F30E00012802DC31B067
:10D5E000BDE8F08F2089C0F3C03020B9208810B981
:10D5F000608800B9F3E70021284613F057F8824607
:10D600000021284612F077FE504400B22E902846A2
:10D6100011F0A4FEB6F884104843001200B22D9019
:10D6200025A808F0E9FE25AA4FF4C021284613F0EA
:10D630001EFE284611F0FEFF0146AA8A2E981044CD
:10D64000401A00B22490B8F1020F0ED12089C0F325
:10D65000C03028B14FF4C021284612F067FF00E027
:10D6600000202390B5F91A900DE02089C0F3C03056
:10D6700028B14FF4C021284613F050F900E00020F3
:10D680002390B5F91690B8F1020F16D1DBF8080017
:10D69000B0F90600484500DAA1E7239848442599E7
:10D6A000B1F908100844B4F900100844DBF8081078
:10D6B000B1F90210884200DA91E720A808F05FFF74
:10D6C00020AA4FF4C021284613F037FE0020ADF801
:10D6D0008600ADF8840059460EA811F055FBA64807
:10D6E0000F900620109002201C904FF4C0201B9039
:10D6F00025A8139020A81490B8F1020F01D00120A2
:10D7000000E000200D9096F8880000F00700022845
:10D7100022D10021284612F08DFFB6F8841048432C
:10D720004FEA202A2D985044B6F8821090FBF1F071
:10D7300000B20B900B99A1EB0A0000EBD0714A10DC
:10D740002499114409B224910B98A0EB0A012D9859
:10D75000401A00B22D9000BFADF8C2902089C0F3EE
:10D760000E00401E6168C1F30E4148430C90002733
:10D77000FBE000200B906068C0F30E40B7FBF0F1B7
:10D7800000FB117008B901200B90BDF982102D9893
:10D79000401A78430C99B0FBF1F12498084400B288
:10D7A000ADF8C000ADF8BC000D9868B1BDF9C2106D
:10D7B0000B9810B1B4F9000001E0B4F90200081AA6
:10D7C00000B2ADF8BE000CE0BDF9C2100B9810B16C
:10D7D000B4F9000001E0B4F90200084400B2ADF869
:10D7E000BE0030A817902FA8189096F8880000F077
:10D7F0000700032810D106F178000D9930F91100C7
:10D80000009006F1740030F91130002138460C9A6E
:10D810000FF0E0FB824604E06068C0F30E40B7FB07
:10D82000F0FACDF878A00B98002871D02089C0F3C9
:10D83000C03000286CD0534650A2102107A816F023
:10D84000F5FD25A8139007A8199010201A900EAA8C
:10D850001A2128460BF00CFE002141F6FF72BDF99B
:10D86000A600CDE901210090BDF9A83006A8259AAF
:10D87000199919F0B3FBBDF9180000EBD071BDF890
:10D88000BC20A2EB610109B2ADF81010BDF918007F
:10D8900000EBD071BDF8BC2002EB610109B2ADF81C
:10D8A00014100D9878B1BDF8BE102398081A00B274
:10D8B000ADF81600BDF81600BDF81A10401A00B2F7
:10D8C000ADF812000EE0BDF8BE102398084400B277
:10D8D000ADF81200BDF81200BDF81A10084400B2ED
:10D8E000ADF81600BDF91400B5F9141088420DDB2F
:10D8F000BDF91010B5F91800814207DC0020009036
:10D9000004AA25A95846199B08F0BEF909E0FFE7CB
:10D910000020139019901A900EAA1A2128460BF095
:10D92000A7FDBDF9821001EBD172BDF9C03003EB48
:10D930006202B5F914309A4211DBBDF9820000EBA6
:10D94000D072BDF9BC30A3EB6203B5F91820934245
:10D9500005DC2FAB30AA20A9584608F0F9FD0EAA25
:10D960001B2128460BF084FD7F1C0C9887427FF614
:10D9700000AF00BF33E60000E0DF020825640000CE
:10D980002DE9F74FB2B00546164631953146284687
:10D9900002F06BFA04462089C0F30E00012802DC75
:10D9A00035B0BDE8F08F2089C0F3C03020B92088A1
:10D9B00010B9608800B9F3E70EB1012000E0002043
:10D9C00083460021284612F096FC2E90002128461E
:10D9D00012F0A4FF2D90284611F0A1FC3199B1F866
:10D9E00086104843001200B22C90284611F01CFF0C
:10D9F0000146EA8A2D9802442E981044401A00B23B
:10DA00002B904EB94FF4C021284612F04FFE074626
:10DA1000B5F914002A9008E04FF4C021284612F00E
:10DA2000D5FE0746B5F918002A90B4F900002990F0
:10DA3000B4F902002890012E07D12998404200B283
:10DA400029902898404200B2289025A808F097FD18
:10DA500025AA4FF4C021284613F06FFC1DA808F03A
:10DA6000CBFC1DAA4FF4C021284613F000FC0BA8E4
:10DA7000339911F089F989480C9006200D90199678
:10DA80000004189025A811901DA810902089C0F3BB
:10DA90000E00401E6168C1F30E4100FB01F94FF01A
:10DAA0000008F6E0BDF996102C98401A00FB08F02B
:10DAB000B0FBF9F12B98084400B2ADF8C200ADF804
:10DAC000BE002A98ADF8C00036B9BDF8C000401EAF
:10DAD00000B2ADF8C00005E0BDF8C000401C00B2C7
:10DAE000ADF8C00000200A906068C0F30E40B8FB9B
:10DAF000F0F100FB118008B901200A900A9838B1B2
:10DB0000BDF8C0102998081A00B2ADF8BC0006E0B4
:10DB1000BDF8C0102898081A00B2ADF8BC0030A8B3
:10DB200014902FA815903198703030F91B00009098
:10DB300031996C3131F91B30A9EB08004A460021BC
:10DB40000FF048FA8246CDF86CA00A98002872D0EF
:10DB50002089C0F3C03000286DD0534650A2102158
:10DB600006A816F063FC1DA8109006A816901020B9
:10DB700017900BAA1A2128460BF07AFC002141F6D7
:10DB8000FF72BDF98600CDE901210090BDF9883012
:10DB900005A81D9A169919F021FABDF9160000EB97
:10DBA000D071BDF8BE20A2EB610109B2ADF80E1034
:10DBB000BDF9160000EBD071BDF8BE2002EB61018B
:10DBC00009B2ADF81210BBF1000F0FD1BDF8BC00C7
:10DBD000BDF81410401AC01B00B2ADF80C00BDF81F
:10DBE000BC00C01B00B2ADF810000EE0BDF8BC00D8
:10DBF000384400B2ADF80C00BDF8BC00BDF81410FC
:10DC00000844384400B2ADF81000BDF91210B5F95F
:10DC1000160081420DDBBDF90E10B5F91A008142E4
:10DC200007DC0020009003AA1DA9169B339808F07A
:10DC30002BF809E0FFE700201090169017900BAA30
:10DC40001A2128460BF014FCBDF9961001EBD17295
:10DC5000BDF9C23003EB6203B5F91620934211DB24
:10DC6000BDF9960000EBD072BDF9BE30A3EB6203A4
:10DC7000B5F91A20934205DC2FAB30AA25A93398B9
:10DC800008F066FC0BAA1B2128460BF0F1FB08F1FB
:10DC90000108C8457FF606AF00BF81E6E0DF020855
:10DCA0002564000010B50446207EC0F3800008B152
:10DCB000002010BD207A232802D0242803D100E0C0
:10DCC00000BF0120F5E700BF00BF4FF4804160684E
:10DCD00013F0E8F908B90020EBE7207A11381C2886
:10DCE00023D2DFE800F00E0F1011121314151617CF
:10DCF0001822221922221A1D1B1C222222221E1F38
:10DD0000222000BF00BF00BF00BF00BF00BF00BF98
:10DD100000BF00BF00BF00BF00BF00BF00BF00BF0B
:10DD200000BF00BF00BF0020C3E70120C1E72DE90D
:10DD3000F04104460DF0D8FA07469FB13868806874
:10DD400018B1217A386882689047207EC0F340007D
:10DD500010B10120BDE8F081207E00F0010008B183
:10DD60000020F7E701260021606811F04DFB054611
:10DD70004FF0000827E02868F0B1287A00F0800012
:10DD8000802819D1287A802805D0287A20F08000B0
:10DD9000217A884210D16868E06020462968884767
:10DDA000207EC0F3400008B10120D3E7207E00F0C0
:10DDB000010008B10020CDE708F101084146606884
:10DDC00011F022FB05460DB1012ED4D021460020D2
:10DDD00011F0FFF906460EB9002003E0002160684B
:10DDE00011F012FB05464FF0000823E02868D0B17F
:10DDF000287A00F08000B0B9287A18B1287A217A00
:10DE0000884210D16868E060204629688847207EF3
:10DE1000C0F3400008B101209CE7207E00F0010023
:10DE200008B1002096E708F101084146606811F04A
:10DE3000EBFA05460DB1012ED8D0012E11D1606844
:10DE4000406870B12046FFF72DFF50B16068406810
:10DE500060602046FFF76BFF0646012E01D00020D0
:10DE600078E7304676E72DE9F0438046DDE907455F
:10DE700021B92A7022701A70BDE8F0834FEA282079
:10DE800000F00209B9F1000F04D000BF99462B46FB
:10DE90004D4600BF00F00409B9F1000F04D000BFE7
:10DEA000A1462C464D4600BF00F00609B9F1000F0F
:10DEB00009D100F00109B9F1000F0ED100BF994658
:10DEC00023464C4609E000F00109B9F1000F04D0E7
:10DED00000BF994623464C4600BF22706FEA0109F5
:10DEE00009F0FF0602FB06F74FEA272985F80090A4
:10DEF00008F0FF0C00F00109B9F1000F0DD1BCF1E1
:10DF0000000F02D14FEA012905E0CCF1000909F028
:10DF1000FF0909FB01F94F4601E001FB0CF73E1236
:10DF20006FEA060909F0FF0602FB06F74FEA272908
:10DF300083F8009000BF9FE72DE9FF4F87B00546AB
:10DF40008B469146DDE914A6584604F0DDFA0690AA
:10DF5000584604F05FFA05901798012804D002286B
:10DF600004D0032806D103E0494F08E0494F06E0FA
:10DF7000494F04E000BF00BF0BB0BDE8F08F00BF09
:10DF80008EBB2888049028885246014602900A9841
:10DF9000B84703904FF0000821E0002418E0BDF8D6
:10DFA000100035F8141088420CD005EB44000088AE
:10DFB000049005EB440000885246014602900A98FE
:10DFC000B847039005EB4400BDF80C100180641CB9
:10DFD00006988442E3DB05EB490508F10108059842
:10DFE0008045DADB51E0FFE70020029028880490AA
:10DFF0003078FD2801DB504603E0307800FB0AF062
:10E00000000A0190019A04990A98B84703904FF0CA
:10E01000000836E000242BE0305D00B927E0315DD8
:10E020000298814205D1BDF8100035F814108842DD
:10E0300017D0305DFD2801DB504603E0305D00FB6A
:10E040000AF0000A019005EB4400008800900146A8
:10E05000019A0A98B8470390305D029035F8140091
:10E06000049005EB4400BDF80C10018000BF641C57
:10E0700006988442D0DB05EB49051698064408F162
:10E08000010805988045C5DB00BF00BF74E70000AC
:10E09000754E0008A74F0008174F00082DE9FF4FE5
:10E0A00087B004469246DDE91485089804F02CFAFE
:10E0B0008146089804F0AEF98346002D7ED1B8F170
:10E0C000FD0F0CDB002707E04A4620460A9906F0C0
:10E0D00073FB04EB4A047F1C5F45F5DB87E100BF5F
:10E0E0000020014602464FEAD20CBDF800306CF326
:10E0F00004034FEA910C0093BDF800306CF34A130F
:10E100004FEAD00C0093BDF800306CF3CF2300939E
:10E11000BDF800C063460193BDF8041008460690A0
:10E12000424606990A9806F095FC059008F104000D
:10E130004FEAD0084FEAC8604FEA10680A9A404692
:10E1400003A90192BDF80420D20A12FB00F20A8052
:10E15000BDF80420C2F3451212FB00F24A80BDF85C
:10E16000042002F01F0212FB00F28A8000BFC8F1F7
:10E17000FF000290002720E0002619E0BDF81800FB
:10E1800034F8161088420DD004EB46000088069043
:10E1900004EB460000880190014603A8029A06F0AD
:10E1A00003FD059004EB4600BDF814100180761CB9
:10E1B0004E45E3DB04EB4A047F1C00E002E05F45D0
:10E1C000DADB14E1BDF8280000EB00400690B8F15E
:10E1D000FD0F6FDBA9F1040005900027B4E00026D5
:10E1E00014E02878FF2803D1BDF8280020800AE039
:10E1F0002A782088014603900A9806F02BFC0490A8
:10E20000BDF8100020806D1CA41C761C4E4503DA5E
:10E2100005F003000028E4D172E028680490049817
:10E22000401CA8B904F0030048B1BDF828102180B3
:10E23000A01C06990160BDF82810E18005E0204689
:10E24000069901600699416000BF08342D1D56E013
:10E250000498002851D02878FF2803D1BDF8280061
:10E2600020800AE02A782088014602900A9806F069
:10E27000F1FB0390BDF80C0020806D1CA41C2878D5
:10E28000FF2803D1BDF8280020800AE02A782088E2
:10E29000014602900A9806F0DDFB0390BDF80C00E1
:10E2A00020806D1CA41C2878FF2804D1BDF828000C
:10E2B00020800BE04CE02A782088014602900A98E2
:10E2C00006F0C8FB0390BDF80C0020806D1CA41C58
:10E2D0002878FF2803D1BDF8280020800AE02A789A
:10E2E0002088014602900A9806F0B4FB0390BDF81E
:10E2F0000C0020806D1CA41C01E02D1D0834361D6F
:10E300000598864289DD14E02878FF2803D1BDF8FE
:10E31000280020800AE02A782088014603900A9885
:10E3200006F098FB0490BDF8100020806D1CA41C22
:10E33000761C4E45E8DBAAEB090004EB4004169876
:10E34000A0EB090005447F1C5F45FFF648AF4DE098
:10E3500000200390208805902088049000200290DF
:10E36000002740E0002635E0287888B32978039814
:10E37000814209D02878FF2801D1404603E028785F
:10E3800000FB08F0000A029029780398814205D129
:10E39000BDF8140034F81610884214D00298FF28F3
:10E3A00002D10A98049009E004EB4600008801902D
:10E3B0000146029A0A9806F04DFB049028780390D3
:10E3C00034F81600059004EB4600BDF810100180EB
:10E3D0006D1C761C4E45C7DB04EB4A041698A0EB77
:10E3E000090005447F1C5F45BCDB00BF00BF0BB0CC
:10E3F000BDE8F08F2DE9FF4F85B081460C46DDE981
:10E4000012A7F3F7B3FD804607BBB4F9026018E02A
:10E41000B4F9005010E0CDF808A0BDF82000ADF828
:10E42000040030B20090D8F800002BB2D0F81CC025
:10E430004946079AE0476D1CB4F90400A842EADA9D
:10E44000761CB4F90600B042E2DA2EE0204604F071
:10E450005BF88346204603F0DDFF0490002620E0B1
:10E46000002519E0785DB0B1785D00FB0AF0000A84
:10E470000290BDF82000ADF804006088304400B27E
:10E480000090218829440BB2D8F80000D0F81CC0B5
:10E490004946079AE0476D1C5D45E3DB1498074445
:10E4A000761C04988642DBDB00BF09B0BDE8F08F24
:10E4B00010B502460B4610681C68A04201D101202D
:10E4C00010BD0020FCE710B502460B46506820F056
:10E4D00040401C68A04203D2506820F040401860C1
:10E4E000002010BD2DE9FF4F87B00E469046DDE9B4
:10E4F00014940021079812F033FC0690002107982D
:10E5000011F054FF0590F078C0F34000A8B1F07806
:10E5100000F0010020B142F2D1710698884208D083
:10E52000F07800F0010040B942F2D17105988842BC
:10E5300003D1F07820F00200F070F07800F00100D4
:10E5400008B1944800E094480490F07800F001008D
:10E5500008B9904800E09048824600206080A08082
:10E5600020612080A060E060CDF80C8003990798BE
:10E5700010F054FE0546DCE00398404506D04FF409
:10E580000001284612F08EFD00B1D5E083492846EF
:10E5900012F093FD00287DD10021284611F0EAFEFB
:10E5A00002900298002876D02069401C2061A08843
:10E5B000484400B2A080207D00F0010000286BD00C
:10E5C000216901EB810188000EF072FD074600BF52
:10E5D0001FB900BF00BF00BFFEE700BF1FB903980F
:10E5E0000BB0BDE8F08FE06858B12069401E00EB29
:10E5F000800082003846E1680EF042FEE0680EF0CE
:10E60000D3FD2069401E00EB800047F82050F078D1
:10E6100000F0010050B14FF0000B0222594628468D
:10E6200012F000FA0190019800B20AE04FF0000BDE
:10E6300005225946284612F0F5F90190019800B2DA
:10E6400000BF2169491E01EB810107EB8101888030
:10E65000F07800F0010050B14FF0000B0322594652
:10E66000284612F0DFF90190019800B20AE04FF05D
:10E67000000B06225946284612F0D4F90190019861
:10E6800000B200BF2169491E01EB810107EB810146
:10E69000C88002E039E012E027E002982169491EB3
:10E6A00001EB810107EB8101C86000212069401E58
:10E6B00000EB800007EB80000161E76015E0284671
:10E6C000049988470746F078C0F3400030B1B4F9A8
:10E6D0000400C1190A98814200DD2DE0A08807EBF3
:10E6E0000901084400B2A08000BF2846D047B4F911
:10E6F0000010884202DD2846D04701E0B4F900004E
:10E700002080A068401CA06000BFF078C0F38000AB
:10E7100010B14FF0FF3000E001200399084403904E
:10E720000398002800DA07E00399079810F076FDB7
:10E730000546002D7FF420AF00BFB4F90400002887
:10E7400004DDA088A0EB090000B2A080206908B118
:10E750000A9801E0B4F904006080CDB10398404507
:10E7600016D1079880680068039950F82150F07816
:10E77000C0F3800103AA079801F065F845B1284667
:10E78000D047208028460499884760800120A060F7
:10E79000039825E7EB0F020849F401080100060081
:10E7A0002DE9F04F97B0044600BF00BF4FF0000BBB
:10E7B000DC4802885946204612F034F90A900A983B
:10E7C000C6B200BFF0439DF85B1060F300018DF806
:10E7D0005B10B0089DF85B1060F341018DF85B1091
:10E7E000F0089DF85B1060F382018DF85B1000BFAC
:10E7F000CD4802885946204612F014F90A900A982A
:10E80000C0B28DF8580000BFC8480288594620465B
:10E8100012F008F90A900A98C0B28DF8590000BFAA
:10E82000C34802885946204612F0FCF80A900A981C
:10E83000C0B28DF85A000021204611F0D0FC01280A
:10E8400000D100E0002015909DF85B0000F0010071
:10E8500020B90021204611F0D5FE03E0002120461A
:10E8600012F020F814909DF85B0000F0010020B138
:10E870000021204611F0C6FE03E00021204612F0E0
:10E8800011F813909DF85B0000F0010018B12046CC
:10E8900010F064FD02E0204610F041FD12904FF0B0
:10E8A000000B32225946204612F0BCF80A900A9812
:10E8B00000B2119000BF10225946204612F0B2F863
:10E8C0000A900A98E18A0144119801EB000B204656
:10E8D00010F0BEFFABEB000000B210904FF0000B49
:10E8E00012225946204612F09DF80A900A98A18AF1
:10E8F0000144119801EB000B204610F09FFFABEB99
:10E90000000000B20F909DF85A709DF85B0000F077
:10E91000010008B110A800E00FA80546002120461C
:10E9200012F01EFA0E900021204611F03FFD0D90CE
:10E930009DF85B0000F0010040B142F2D1710D98EA
:10E94000884203D1608CC0F3402068B19DF85B0021
:10E9500000F0010048B942F2D1710E98884204D10A
:10E96000608CC0F3802000B90027159850B19DF845
:10E970005B0000F0010028B90FB9012702E0012F68
:10E9800000D100274FF0000800200C900B90002FC2
:10E9900049D09DF85B00C0F3800018B1A0684068C2
:10E9A000401E00E00020814617E000200A9005A9E3
:10E9B0001398CDE900014A4616A92046129BFFF79D
:10E9C00091FD8246BDF814101498084440440FFA93
:10E9D00080F80B98401C0B90D146A06840684845D1
:10E9E00002DDB9F1000FE0DA0B9820B11498A8EB22
:10E9F00000000FFA80F89DF85B0000F0010018B1EC
:10EA0000204610F08CFC02E0204610F0A7FC834664
:10EA10000CA8CDE900500B9803B24246594638463F
:10EA200019F090FC00BF9DF85B00C0F3800018B1A6
:10EA3000A0684068401E00E000208146159840B163
:10EA40009DF85B0000F0010018B92888404400B22E
:10EA500028804DE001200A9005A91398CDE9000116
:10EA60004A4616A92046129BFFF73CFD82461598A0
:10EA700050B19DF85B0000F0010028B92888BDF86E
:10EA80001410401A00B2288005AABDF94030DDE913
:10EA90001210CDE90131CDE90302BDF93C00534626
:10EAA0004A4616A900902046F5F764FDD14608981D
:10EAB0000EF07AFB00200890159868B19DF85B0075
:10EAC00000F0010040B92988BDF8302014981044A6
:10EAD000081A00B228800AE02988BDF81400BDF8A1
:10EAE0003020024414981044084400B2288000BF2B
:10EAF000A0684068484502DDB9F1000FAADA42F289
:10EB0000D1710E98884202D00D98884202D12046D9
:10EB100013F099FA00222B2120460AF0A9FC17B025
:10EB2000BDE8F08F7E0000208000002082000020E1
:10EB3000840000202DE9FE4F0446894692460020BD
:10EB40000290207F00F0010010B10298BDE8FE8F16
:10EB5000E56800264FF0010B0120019000BF95B938
:10EB6000207FC0F3C00000B95EB9019808B90298CF
:10EB7000ECE72046C84705464FF0000B0020019007
:10EB800001E00298E2E71EB92E460EB90298DDE7D1
:10EB9000BBF1000F07D029462046D0470546B542B5
:10EBA00001D10298D2E74FF0010B05B9D7E72868E9
:10EBB00011F0AEFA00F0800000B1D0E72F6809E054
:10EBC0000121384612F06EFA00B105E0384610F027
:10EBD0008BFC0746002FF3D100BF2FB1012138462F
:10EBE00012F060FA00B1BAE700BF00BFE068A842C7
:10EBF00001D10298AAE7E06898B1204600F08DFBA9
:10EC00000090E16808680F21009A0AF031FC07467D
:10EC1000012F01D0029899E7E168086812F0C2FD5F
:10EC200000BFE560204600F078FB0746E1683A4601
:10EC300008680E210AF01CFC8046B8F1010F01D0D3
:10EC4000029883E7E168086812F0ACFD206910B112
:10EC500020462169884701200290029876E700004B
:10EC600070B504460D4600BF802109481EF05CFFC8
:10EC70000028F9D0A1B206481EF04DFF00BF402188
:10EC800003481EF051FF0028F9D0204670BD000057
:10EC9000003801402DE9F0410446204600F086F995
:10ECA000054611480068001B461B0F480068401BC2
:10ECB0000D490860B6B127466119324620460EF06C
:10ECC000DFFA06E0A068401BA060204600F06EF965
:10ECD0000444054800688442F4D1B81929460EF06E
:10ECE00051FC00BFBDE8F0816C00002010B5024669
:10ECF000114691F83C3003F0030323B1012B04D0FB
:10ED0000022B0DD000BF888C15E026235B5C4FF4EE
:10ED1000B47413FB04F3642493FBF4F398B20AE095
:10ED200027235B5C4FF4B47413FB04F3642493FB5C
:10ED3000F4F398B200BF00BF10BD70B5034619468A
:10ED40008A8C91F83400C0F3410018B9088D104442
:10ED500082B223E091F83400C0F34100022803D1CD
:10ED6000C88C104482B219E091F83400C0F341001D
:10ED7000012813D1B1F93050B1F93260AC1904EB6C
:10ED8000D4756810B1F92E40844203DACC8C144457
:10ED9000A2B202E00C8D1444A2B200BF10B270BD4A
:10EDA0002DE9F34F87B083465F4605A9584610F01A
:10EDB000F4FA584612F019F90290584610F044FB44
:10EDC00001900021584611F0A1FC00900021584606
:10EDD00011F02CFD80460021584611F0CFFD8146F0
:10EDE0000021584611F0D2FB82460021584611F00E
:10EDF00071FD05460021584611F028FC06462846BC
:10EE000005EBD0714910491C05F0010211440DB207
:10EE1000304606EBD0714910491C06F0010211443E
:10EE20000EB20D2D01DA284600E00D2005460D2E0C
:10EE300001DA304600E00D200646B8F10D0F01DA88
:10EE4000404600E00D208046B9F10D0F01DA48463A
:10EE500000E00D208146BAF10D0F01DA504600E0C6
:10EE60000D20824600248BE0B86A00EBC40103A8A1
:10EE700003F097FABDF90C10009881420FDCBDF940
:10EE8000141000980D2801DA009800E00D20081AEF
:10EE9000BDF80C10084400B2ADF80C0008E0BDF855
:10EEA0000C00BDF81410891B084400B2ADF80C002A
:10EEB000BDF90E0048450FDCBDF91600B9F10D0F84
:10EEC00001DA494600E00D21401ABDF80E10084451
:10EED00000B2ADF80E0008E0BDF80E00BDF8161047
:10EEE000491B084400B2ADF80E00BDF9101002989D
:10EEF000A0EB0800801E81420FDBBDF91400B8F1C1
:10EF00000D0F01DA414600E00D210844BDF8101054
:10EF1000084400B2ADF8100008E0BDF81000BDF8DC
:10EF200014103144084400B2ADF81000BDF91210BD
:10EF30000198A0EB0A00801E81420FDBBDF916008C
:10EF4000BAF10D0F01DA514600E00D210844BDF879
:10EF50001210084400B2ADF8120008E0BDF812002B
:10EF6000BDF816102944084400B2ADF81200002282
:10EF700003A80899F2F79BF800B105E0601C84B281
:10EF8000388EA0423FF770AF00BF388EA04201D14B
:10EF90004FF6FF74204609B0BDE8F08F014601F03E
:10EFA00007020AB1104670470120FCE70146B1F99B
:10EFB0000C20032303EB420222F0030202F11000B3
:10EFC00070472DE9FC5F05460E461746002128468E
:10EFD00011F084FB80460021284611F00FFC824688
:10EFE0000021284611F0B2FC81460021284611F08C
:10EFF000B5FA0190284611F0F8FFA0EB0800A0EB4D
:10F000000A0B284610F020FAA0EB09010198081A13
:10F01000834507DA284611F0E8FFA0EB0800A0EBD3
:10F020000A0006E0284610F00FFAA0EB090101984B
:10F03000081A009000EBD070401004B2A88A204457
:10F04000404400B23080E88A2044484400B27080D6
:10F0500007B13C80BDE8FC9F38B504460025044854
:10F0600002882946204611F0DDFC0090009838BD4A
:10F070008A00002038B50446002505480288294644
:10F08000204611F0CFFC00900098C0B238BD0000BF
:10F090009200002038B5044600250548028829461C
:10F0A000204611F0BFFC00900098C0B238BD0000AF
:10F0B00094000020F0B504460B46032B01D201203A
:10F0C00000E000200546611B981E0C2707FB050089
:10F0D000C0EB4010B0FBF7F01044084400EB910087
:10F0E0006427B1FBF7F7C01B4FF4C877B1FBF7F704
:10F0F00038440727B0FBF7FC07FB1C06F0B2F0BD55
:10F100002DE9FC4781460E4616B90020BDE8FC8774
:10F11000D9F81040606930B160690068B04202D12E
:10F1200060694068F2E70025B1E005EB8501A06861
:10F1300050F82100371A05EB8501A06800EB81002B
:10F140008088B84200D2A0E04FF0000805EB8501AE
:10F15000A06800EB8100807C022808D105EB8501C6
:10F16000A06800EB8100C08800EB070884E005EB95
:10F170008501A06800EB8100807C78B905EB8502F1
:10F18000A16801EB8201C86805EB8502A16801EB6B
:10F190008201C988C25D01EB02086DE005EB8501C3
:10F1A000A06800EB8100807C03282AD1B8B20190CE
:10F1B0003E48009005EB8503A06800EB8300028ABF
:10F1C00005EB8503A06800EB83000223816801A89A
:10F1D000F3F762F88246BAF1000F11D005EB850211
:10F1E000A16801EB82018968AAEB0101481005EBD7
:10F1F0008502A16801EB8201C98801EB000800BF0C
:10F200003AE005EB8501A06800EB8100807C0128D5
:10F2100032D1B8B201902548009005EB8503A06873
:10F2200000EB8300028A05EB8503A06800EB8300F6
:10F230000223816801A8F3F72FF88246BAF1000F84
:10F2400019D005EB8503A26802EB83029268AAEB52
:10F250000202501005EB8503A26802EB8302D1681D
:10F2600005EB8503A26802EB8302D28831F81030E7
:10F2700002EB030800BF00BF606920B1606906604F
:10F280006069C0F80480404640E7681C85B2608A27
:10F29000C0F30800A8423FF748AF606920B1606939
:10F2A000066000206169486000202FE711D902083C
:10F2B0002DE9F84F80460D46C146404600F0C9F999
:10F2C000064616B90020BDE8F88FF08A281A05B264
:10F2D0000021304611F065FC009000980AF024FBF4
:10F2E00082460021304611F0C3FC0446204604EB60
:10F2F000D07105EB61010DB20AEB04000FFA80FB3F
:10F3000095FBFBF087B2B9F83400B84203DCB9F8DA
:10F310003400401E87B23846D5E72DE9F041054656
:10F320000026002700200BF0E5FF044616E02046EB
:10F330000CF02FF88046206DA8420AD1B8F1020FD8
:10F3400002D12046BDE8F081B8F1040F00D1264675
:10F35000274620460BF0CEFF044600BF002CE6D126
:10F360000EB13046EEE70FB13846EBE700200BF068
:10F37000C1FFE7E72DE9F04107460C463D46384618
:10F380000FF0ECFFB5F884104843001206B20021DC
:10F39000384611F08BF98046A4EB080004B2002C2B
:10F3A00002DA0020BDE8F081B44203DDB5F8820046
:10F3B000401EF7E795F8880000F0070001280BD100
:10F3C000314606EBD1704210B5F88200401E04FBB6
:10F3D000002090FBF6F0E5E795F8880000F00700C4
:10F3E000022805D1B5F88200604390FBF6F0D9E71A
:10F3F0000020D7E70246114600E0096821B188697C
:10F40000C0F30F100028F8D009B9002070478869B0
:10F41000C0F30F10FAE700002DE9FC5F80460D46AF
:10F420001646D8F810704FF0000A788AC0F34030C2
:10F43000002840D1FC68A068800FD8B9D4F80090AB
:10F4400005EB062080B2019026480090A06820F0CD
:10F4500040420223494601A8F2F71EFF8346BBF152
:10F46000000F06D0ABEB09014810616811F900A04C
:10F4700000BF1FE00121A068B1EB907F1AD1D4F842
:10F48000009005EB0640019017480090A06820F01E
:10F4900040420423494601A8F2F7FEFE8346BBF131
:10F4A000000F06D0ABEB09018810616811F900A0CC
:10F4B00000BF00BF12E0F8684368595D83689A5D39
:10F4C00000290ADD002A08DD531E4C1E90F80DC0ED
:10F4D00004FB0C33046814F903A000BF5046BDE8D8
:10F4E000FC9F0000590E0108390E01082DE9FE4F5E
:10F4F00007460C46254600260021204610F03FFE18
:10F50000834600EBDB70C0F34F064FF440312046DA
:10F5100011F0D8F880464FF44031204611F062F9DE
:10F5200081464FF44031204611F004FA82464FF4F0
:10F530004031204611F006F80290A08A298D084437
:10F54000801BA0EB080000B2ADF80000E18A688DD6
:10F550000844801BA0EB090000B2ADF80200A08AAD
:10F56000298D08443044504400B2ADF80400E18ACB
:10F57000688D084481190298084400B2ADF806006D
:10F580000098386001987860BDE8FE8F2DE9FF4F44
:10F5900085B00C4617461D464FF40031059810F013
:10F5A000FAFD8046404608EBD0714E10B81B07B2FA
:10F5B0000598FFF7C2FB814609F15A0000B217F027
:10F5C0001FFC10FB07F0C0130FFA80FA484617F033
:10F5D00017FC10FB07F0C0130FFA80FB4FF440310B
:10F5E000059811F07BF804904FF44031059811F024
:10F5F00005F903904FF44031059811F0A7F90290F6
:10F600004FF44031059810F0A9FF0190208800EBDD
:10F610000A010498081A801B00B22880208800EB99
:10F620000A0103980844304400B2A880608800EBC7
:10F630000B010298081A801B00B26880608800EBFA
:10F640000B0101980844304400B2E88009B0BDE8DD
:10F65000F08F70B504462546686A08B9002070BD71
:10F660000021686A0FF0DAFDF9E710B504460021C1
:10F6700020460FF0D3FD10BD70B504460E460025A0
:10F6800013E0E06800EBC5004068C0F3006058B1CB
:10F69000E06800EBC500406820F07F40B04203D135
:10F6A000E06850F8350070BD6D1C608CC0F3C5007B
:10F6B000A842E6D8608CC008401C618C60F3C80189
:10F6C0006184628CC2F3C502D100E0680DF0B6FD22
:10F6D000E06000BFE06818B900BF00BF00BFFEE7F0
:10F6E00000BF608CC0F3C500451E1AE0681EE168CB
:10F6F00001EBC0004068C0F3006038B9681EE168E3
:10F7000001EBC0004068C0F3406000B10BE0E0686E
:10F7100000EBC5010246681E02EBC00205CA05C126
:10F720006D1E002DE2D100BFE16801EBC50008218C
:10F730000DF028FF08200DF071FCE16841F835005C
:10F74000E16851F8350015F031FAE06800EBC500CA
:10F75000406820F0807000F18070E16801EBC50125
:10F760004860E06800EBC500406866F31700E16898
:10F7700001EBC5014860E06850F8350093E70000F0
:10F780002DE9FC410746884616463868C068C068BF
:10F79000B0FBF8F4B44200DD344619480068006854
:10F7A000806958B30020ADF80000ADF80400ADF852
:10F7B000020025B200BF681E00B2ADF80600104975
:10F7C000096808680E49096809688A6969469047A6
:10F7D000684602F011FEA04200DC03E0681E05B29C
:10F7E000002DE8DC00BF002D04DC00BF00BF0020BE
:10F7F000BDE8FC81BDF90600441C00BF2046F7E7C8
:10F800006400002070B505460C46641E002C01DA29
:10F810006D1E0C340C2C01DB6D1C0C3C012C04D136
:10F82000284601F0CDF81C300BE0072094FBF0F1E6
:10F8300000FB114606EBD6704010A6EB4000C0F16D
:10F840001F00C0B270BD10B5034669B11068401EFC
:10F8500010601068002805DB98680068146850F88C
:10F86000240010BD0020FCE71068401C10601068E8
:10F870009C686468A04205DA98680068146850F8CB
:10F880002400EEE70020ECE730B50446481CE568AC
:10F8900035F8100035F81150401B00B21080A068F8
:10F8A00030F8110000B21880E06830F81100656887
:10F8B000284430BD2DE9F84F06460C461546B046A3
:10F8C0000BF012FD81460BF064FD8246BAF1010F88
:10F8D0000DD0BAF1030F0AD015B14FF6FF70288092
:10F8E00014B14FF6FF7020800020BDE8F88F0BF0B8
:10F8F000FBFC814669460BF011FD002D3ED03046E1
:10F900000FF09CFFBDF8001008440FFA80F90021A9
:10F91000304610F094FC01280AD10021304610F046
:10F92000B5FF318B081AA0EB09000FFA80F90CE043
:10F93000B08AA9EB00000FFA80F90021304610F0E0
:10F9400015FFA9EB00000FFA80F90020288000279E
:10F9500028800CE02988D8F8300030F811003844AD
:10F9600007B2B94500DA07E02888401C28802888BB
:10F97000B8F824108842EDDB00BF00BF6CB33046FE
:10F980000FF066FFBDF8021008440FFA80F9F08A04
:10F99000A9EB00000FFA80F90021304611F02AF897
:10F9A000A9EB00000FFA80F90020208000272080BA
:10F9B0000CE02188D8F82C0030F81100384407B248
:10F9C000B94500DA07E02088401C20802088B8F87C
:10F9D00026108842EDDB00BF00BF012085E72DE93E
:10F9E000F04F87B004468946924698465046F2F753
:10F9F000C4FA01218140C8B206904FF0FF30059053
:10FA0000208C04900498C04380B2039094F82200A4
:10FA1000C0F380000190002531E0E06800EBC506EE
:10FA20007068C0F3406000B92EE0019800B125E095
:10FA3000E16801EBC501496821F07F4013F0DAFB72
:10FA40008346CB4500D019E030688079069908409C
:10FA500000B913E002AA5146306814F0AFFF074620
:10FA6000012F06D10298C8F80000012007B0BDE8B8
:10FA7000F08F022F01D10220F8E700BF6D1C608CCF
:10FA8000C0F3C500A842C8D800BF47E0E06850F8FE
:10FA9000350080790699084000B93EE0E06800EB47
:10FAA000C50BE16801EBC501496821F07F4013F007
:10FAB000A1FB0090E16801EBC501496821F07F409E
:10FAC00013F09CFB06460098484500D025E00398BB
:10FAD000304000B121E00598864200DC1DE002AA1A
:10FAE0005146DBF8000014F069FF0746012F0FD1E3
:10FAF0000498864204D10298C8F800000120B5E7B6
:10FB00000598B04208DA05960298C8F8000003E0AC
:10FB1000022F01D10220A9E700BF6D1C608CC0F349
:10FB2000C500A842B2D80598002804DB0298C8F89E
:10FB3000000001209AE7002098E72DE9FC5F83464A
:10FB40008A4690461D46082001907F20009040463E
:10FB500008EBD0714C1008F0010080F00109CBF1E6
:10FB60005A0108B217F04CF9AAEB04014843C61138
:10FB7000584617F045F9AAEB04014843C711002E77
:10FB80000ADDA6F17F000612301B484400B228802F
:10FB9000301900B2A8800AE006F17F000612301B7F
:10FBA00000B228803019A0EB090000B2A880002F15
:10FBB0000ADDA7F17F000712381B484400B26880B5
:10FBC000381900B2E8800AE007F17F000712381BFD
:10FBD00000B268803819A0EB090000B2E880BDE8E7
:10FBE000FC9F000038B504460025044802882946D9
:10FBF000204610F017FF0090009838BD8E000020BE
:10FC00002DE9FF4F89B09246DDE91978099C00BFC4
:10FC1000BAF808003844404400B20890A08C0A9911
:10FC2000484380B20790079D4FF0000980E0A06A2A
:10FC300050F825000690069800F0BCFE00B171E077
:10FC4000206B30F919B0002600BF1DE0A919A06A89
:10FC500050F821000490049800F0ACFE00B119E0C7
:10FC6000049800780390039800F0010048B109EB74
:10FC70000600401C216B31F8100058440FFA80FB3D
:10FC800000E007E0701C86B206EB0901A08C401E64
:10FC90008142DBDB00BF069800780590059800F0F4
:10FCA000020090B100BFBAF90800384400EB080127
:10FCB0000898814205DD00BFBAF908003844404485
:10FCC00000E0089800B208902BE0DDE91701084435
:10FCD000ABEB00000FFA80FB00211698CDE901B1D3
:10FCE0000090A06A50F82500411C524604A80C9BC5
:10FCF00017F074F9BDF91200384400EB08010898B8
:10FD0000814204DDBDF912003844404400E0089807
:10FD100000B20890A81985B209EB06001FFA80F915
:10FD200000BF00BF681C85B209F101001FFA80F90D
:10FD3000A18C07980844A8423FF779AF08980DB006
:10FD4000BDE8F08F38B504460025054802882946ED
:10FD5000204610F067FE00900098C0B238BD000049
:10FD60009800002038B50446002505480288294639
:10FD7000204610F057FE00900098C0B238BD000039
:10FD80009A0000202DE9FF5F06460C460021304610
:10FD900010F01DFF03904FF48021304610F017FF44
:10FDA0000290039809F0C8FD0746029809F0C4FDC7
:10FDB00080460021304610F073FF814608EB0700B3
:10FDC00000EBD07109EB61010DB230460FF03CFB46
:10FDD000834600EBDB704110F08A0844AA4605EB2D
:10FDE000DA71A0EB610000B260806088284400B244
:10FDF000E080694630460FF0D0FABDF80000208060
:10FE0000BDF80400A080BDE8FF9F2DE9FF4705462F
:10FE10002846FFF72AFC06461EB9002004B0BDE8BC
:10FE2000F0874FF48021284610F0D1FE80464FF431
:10FE3000802758223946284610F0F4FD0290029897
:10FE400004B200BF30460CF0B3F88146002041F602
:10FE5000FF71CDE90001234642464946029003A8BE
:10FE600017F0BCF8BDF90C00D8E702460B46114666
:10FE700033B1012B0AD0022B05D0042B0CD108E0A2
:10FE800001F13C00704701F14800FBE701F154002B
:10FE9000F8E701F16000F5E70020F3E770B50446EC
:10FEA0000E46002510E0E06800EBC5004068C0F396
:10FEB000406040B1E06800EBC500406820F07F4042
:10FEC000B04200D105E06D1C608CC0F3C500A842B3
:10FED000E9D800BF608CC0F3C500A84203D0E06839
:10FEE00000EBC50070BD608CC008401C618C60F3E5
:10FEF000C8016184628CC2F3C502D100E0680DF0D4
:10FF00009DF9E060608CC0F3C500451E09E0E06823
:10FF100000EBC5010246681E02EBC00205CA05C11E
:10FF20006D1E002DF3D10821E0680DF02BFB082099
:10FF30000DF074F8E1680860E168086814F036FEB6
:10FF4000E068406820F0007000F10070E1684860EF
:10FF5000E068406866F31700E1684860E068C1E760
:10FF600041617047016170474FF6FF7101600021E8
:10FF700081710171042141710121C1717047F0B596
:10FF80000A461588ABB29579032D01D100241AE0F9
:10FF9000957965B9557905F00F045579182D01D17A
:10FFA000036110E05579282D0DD143610BE095795F
:10FFB00005F00805167906F004063543D67906F0F3
:10FFC000030645EA0604DDB2A5B1002110E00125D3
:10FFD0008D401D405DB105688F000F26BE40B543C2
:10FFE000056005688E0004FA06F635430560491C75
:10FFF0000829ECD3FF2B15DD1B12002110E0012591
:020000040801F1
:100000008D401D405DB145688F000F26BE40B54351
:10001000456045688E0004FA06F635434560491C84
:100020000829ECD3F0BD000037B584B0054614466E
:10003000114890F8200000F0010070B10221122058
:1000400013F03EF922460390059904F047FD029013
:10005000BDF80810084607B030BD0221122013F089
:1000600059F922460190059904F038FD0090BDF839
:1000700000100846EFE700008C1600202DE9F04F35
:10008000064688461746DDE9095CDDE90B49002292
:10009000B8F1000F03D09246A4F800A069E0052F44
:1000A00003D0062F01D0042F03D10023012D00D14E
:1000B0000127002106E03CF811A09A4492440FFA6F
:1000C0008AF2491CA942F6D3A2EB030A0FFA8AF27C
:1000D000072F4DD2DFE807F00409144C3E2C1B001B
:1000E0004FF0000AA4F800A042E0A6EB020A0AEBD7
:1000F000DA7B4FEA6B0B0FFA8BFBA4F800B037E00A
:10010000A6EB020A0FFA8AFAA4F800A030E04FF03A
:10011000000AA4F800A0A6EB020A0FFA8AFBA5F1D8
:10012000010A0FFA8AFA9BFBFAFA0FFA8AF31FE028
:10013000A6EB020A0FFA8AFA0FFA85FB9AFBFBFA82
:100140000FFA8AF39A4603EBDA7B4FEA6B0BA4F8BB
:1001500000B00DE0A6EB020A0FFA8AFB05F1010AD6
:100160000FFA8AFA9BFBFAFA0FFA8AF3238000BF90
:1001700000BF00210CE034F811A03CF811B0DA44C3
:100180009A440FFA8AFA01F1010B24F81BA0491CCA
:10019000A5F1010A8A45EED834F81AB03CF81AA045
:1001A000DA44B4F800B0AAEB0B0A0FFA8AF0B9F1FE
:1001B000000F10D000210CE034F811A0A6EB0A0AC1
:1001C0003CF811B0AAEB0B0A0FFA8AFA24F811A036
:1001D000491CA942F0D3BDE8F08F2DE9F04F8DB056
:1001E000044600BF00BF2046FEF736FF814620468A
:1001F000FFF7F8FC0746B9F1000F00D017B90DB0B2
:10020000BDE8F08F06A92046F3F73EFD0C2103A8B8
:100210000DF0B8F94FF0000B32225946204610F08D
:1002200001FC0090009805B200BF00BF12225946A1
:10023000204610F0F7FB0090009828440FFA80FA4F
:1002400000BF10225946204610F0ECFB00900098A9
:10025000284400B2029020460FF0F0FAA18A5144DF
:10026000081A00B2ADF8140020460FF0F1FA01466A
:10027000E28A02981044401A01B2ADF81610002626
:1002800009E0A068006850F826B003AA06A95846FD
:1002900000F0C4FB761CA0684068B042F1D806A804
:1002A000F4F702F80021204610F066FD01900021CD
:1002B000204610F087F8804642F2D17101988842BA
:1002C00002D00846804502D1204611F0BCFE002233
:1002D0002B21204609F0CCF800BF90E72DE9F04132
:1002E00006463746788E002802DC0020BDE8F08103
:1002F0007D6A002409E0F96A31F81400F3F7B8FCCC
:1003000008B10120F2E7601C84B255F8240050B116
:1003100055F8240005A1F0F7E5F820B155F82400C0
:1003200000780028E7D10020E0E700000A00000084
:1003300001460020302905DB392903DCA1F1300218
:10034000D0B21CE0612902DBA1F12002D1B2A1F1FF
:100350004102062A10D2DFE802F0030507090B0D5F
:100360000A200BE00B2009E00C2007E00D2005E03F
:100370000E2003E00F2001E0002000BF00BF704707
:100380002DE9F04105462C464FF44041606A02F0E9
:10039000CFFB94F92E10A08D0122FEF78BFE0746AD
:1003A000206B18B300261EE0206B30F82600A18DCC
:1003B000884216D1206B00EB860090F9021094F968
:1003C0002E0081420DD1226B02EB860292F90320AE
:1003D000521E3A44D21D91B24FF40042606A02F0BC
:1003E0009DFF701C86B2A08EB042DDDCA08D218DF9
:1003F000884210D194F92E1094F92A0081420AD132
:1004000094F92B20521E3A44D21D91B24FF48042EF
:10041000606A02F083FFBDE8F0812DE9FE4F0646D9
:10042000344694F82A0000F0010000284AD0A08C3D
:10043000072190FBF1F085B2E08C90FBF5F105FB14
:100440001100E084E08C032101FB0500E084E08CD6
:1004500090FBF5F105FB11002085208D032101FBA8
:10046000050020850021304610F0B1FB02900021EC
:10047000304610F015FC8146029809F05DFA0746F7
:1004800030460EF04CFF80463046FFF7EEF8019004
:10049000E08C07EB090148430FFA80FA414608EB6C
:1004A000D1725210384607EBD073A2EB63020FFAF9
:1004B00082FBABEB0A0000B20090DDE9001012F005
:1004C00081FE00BFBDE8FE8F2DE9F04704460D46D2
:1004D00016461F4604F13C0000EBC61050F827807A
:1004E00000BFB8F1000F03D100BF00BF00BFFEE79F
:1004F00000BF00BF1DB900BF00BF00BFFEE700BFC7
:10050000C5F80880EC60C8F80C5000BF2846F3F727
:10051000ECFA82462846F3F7E8FA81460421F2F71E
:100520007CFB824503D000BF00BF00BFFEE700BFD9
:1005300004F13C0000EBC61040F827500121B14007
:1005400020690843206104F1140050F826000121BD
:10055000B940084304F1140141F82600BDE8F087D2
:1005600070B505460C4600201049086022461D2142
:10057000284608F07DFF0D48006828B10B48006848
:10058000007808B9002070BD0848006860B12146B5
:1005900006480068EFF7A6FF30B104480168284616
:1005A00015F02CFC0020EEE70120ECE738020020DB
:1005B0002DE9F04F89B006460C4615461F4600BF90
:1005C00000BF304611F082F910B909B0BDE8F08FD4
:1005D000B046AC4200D1F8E7B4F5B47F02DDA4F533
:1005E000B47084B2B5F5B47F02DDA5F5B47085B200
:1005F000B8F82400204484B2B8F82400284485B216
:10060000B4F5B47F02DDA4F5B47084B2B5F5B47F5F
:1006100002DDA5F5B47085B208AA07A93046FEF739
:10062000D0FC394630460FF0B6FD8146B246BB4697
:1006300051225946504610F0F5F90390039808B13D
:10064000012000E00020069004A9069808B10120CE
:1006500000E00020CDE90059CDE90201BDF82030CD
:100660009AB2BDF91E10BDF91C00234605F080F8B2
:1006700004A9304611F0C0F800BFA6E71FB5044634
:1006800002AA03A92046FEF79CFC6B46BDF9082090
:1006900003A92046FEF77AFF6946204611F0ACF820
:1006A0001FBD2DE9FF4781460C464FF6FF7084427F
:1006B00001D1BDE8FF874E46308EA04200DCF8E74E
:1006C000B06A00EBC40102A801F06BFE694648461F
:1006D0000EF063FE0021484610F0FCF807460021AA
:1006E00048460FF0B3FF804648460EF061FE824652
:1006F00004F04EFF05460A2195FBF1F0B84201DAFD
:10070000384602E00A2095FBF0F007B20A2095FB7C
:10071000F0F0404501DA404602E00A2095FBF0F097
:100720000FFA80F8BDF80800BDF80010C91B084496
:1007300000B2ADF80800BDF80A00BDF80210A1EB48
:100740000801084400B2ADF80A00BDF80C00BDF87D
:1007500000103944084400B2ADF80C00BDF80E009A
:10076000BDF802104144084400B2ADF80E00B08E4E
:10077000A0420ED1F06A30F8140000F4007040B1CD
:1007800002A801F078FEBDF80A10081A00B2ADF810
:100790000A0002A9484611F02FF800BF89E71CB5EE
:1007A000044621466846FEF7A1FE6946204611F040
:1007B00023F81CBD2DE9F04F87B005460E462C46A8
:1007C000B4F88200B04202DC07B0BDE8F08F2846E2
:1007D0000EF0C4FDB4F884104843001207B2284656
:1007E0000EF028FF824694F88800C0F3C00018B9C4
:1007F000284610F0D7FFE7E794F8880000F00700DC
:1008000001287DD1002128460FF075FD06900021BA
:1008100028460FF04BFF0590A98A059801440698D9
:100820000844A0EB0A000FFA80FB4FF4A0200290CE
:1008300049222846029910F0F5F80190019800B27B
:1008400080464FF40031284610F0A2FA814600BFDE
:10085000A88AADF80C00E88AADF80E00288BADF838
:100860001000688BADF8120000BFBDF80E0008EB59
:100870000901401A00B2ADF80E00BDF8120008EBF5
:100880000901084400B2ADF81200B4F88200401E1D
:10089000B0421FDD07FB06F0B4F88210491E90FB42
:1008A000F1F05844A0EB0800A0EB090000B2ADF84D
:1008B0000C00701C7843B4F88210491E90FBF1F0D4
:1008C00058444044484400B2ADF8100003A92846FB
:1008D00010F092FF002E21DD701E7843B4F88210D4
:1008E000491E90FBF1F05844A0EB0800A0EB090072
:1008F00000B2ADF80C0007FB06F0B4F8821000E07F
:100900000DE0491E90FBF1F058444044484400B2C9
:10091000ADF8100003A9284610F06EFF48E094F8E7
:10092000880000F0070002283FD1002128460FF080
:1009300081FEB4F8841048434FEA202807EB0800F2
:10094000B4F8821090FBF1F00FFA80F900212846EC
:100950000FF0D1FC049009FB06F00FFA80FB002198
:1009600028460FF0A3FEAA8A04991144084458446B
:100970000FFA80FB05A928460EF00FFDABEB0A002D
:1009800000B2ADF81400BDF81400484400B2ADF850
:100990001800BDF81400A0EB080000B2ADF8140078
:1009A00005A9284610F028FF02E0284610F0FAFEBC
:1009B00000BF09E7014609B9012070470020FCE7A4
:1009C000014601F0030070B96420B1FBF0F200FBB6
:1009D000121030B94FF4C870B1FBF0F200FB1210E6
:1009E00008B9012070470020FCE770B50446204696
:1009F00010F0FBFA054620460EF026FD854201DB8D
:100A0000012070BD0020FCE7014619B10A2901D080
:100A10000D2901D1012070470020FCE72DE9F74F97
:100A200094B004460D46F149204610F046FB10B143
:100A300017B0BDE8F08F2046FEF72CFB1390204640
:100A4000FFF790F91290129808B1139800B9EFE7E8
:100A50002046FEF70FFB06462046FFF773F90746D0
:100A600000BF00200390E2480288204603990FF05F
:100A7000D9FF02900298C0B2119000BF00200390ED
:100A8000DC480288204603990FF0CCFF02900298C0
:100A9000C0B21090286830F916100F912968139889
:100AA0003044401E31F81010AA6813983044401E9C
:100AB00032F81000084400B20E90DDE90E01401A31
:100AC00000B20D90686830F917100C91696812989F
:100AD0003844401E31F81010EA6812983844401E1D
:100AE00032F81000084400B20B90DDE90B01401A07
:100AF00000B20A90002120460FF07DFB012809D1A9
:100B0000119810B90220119004E01198022801D127
:100B10000020119000BF208BA18A401A401C00B217
:100B2000099000BF608BE18A401A401C00B2089017
:100B3000119830B1012818D0022827D0032808D0F6
:100B400000BF286830F916A0608C20F480606084B3
:100B50002CE0286830F916A00D980990608C20F4DC
:100B6000806000F58060608420E0296831F81630EC
:100B7000099A0D99881A00EBD07103EB61010FFA05
:100B800081FA608C20F4806060840FE0204610F0D1
:100B90002CFA296831F816200D991144081A0FFA19
:100BA00080FA608C20F48060608400BF00BF1098E1
:100BB00030B1012818D0022827D0032808D000BF60
:100BC000686830F917B0608C20F4007060842CE005
:100BD000686830F917B00A980890608C20F40070AB
:100BE00000F50070608420E0696831F81730089AD9
:100BF0000A99881A00EBD07103EB61010FFA81FBAF
:100C0000608C20F4007060840FE020460EF01CFC25
:100C1000696831F817200A991144081A0FFA80FB05
:100C2000608C20F40070608400BF00BF204610F08C
:100C3000DCF90999884205D120460EF005FC089997
:100C400088422BD000BFA08AADF80800E08AADF83A
:100C50000A00208BADF80C00608BADF80E0000BFD1
:100C6000204610F09FFD04F11400099901F0CFFC1B
:100C700004F11400089901F0C4FC204610F092FD24
:100C800002AA2921204608F0F3FB20460EF02CFC96
:100C900022462221019008F0EBFB00BF00200390C8
:100CA0006A22204603990FF0BDFE029002980FFAC7
:100CB00080F800BF002003906B22204603990FF0BC
:100CC000B1FE029002980FFA80F900BF204610F0A2
:100CD0008CF9079020460EF0B7FB069008F4C04050
:100CE000B0F5005F01D1012000E0002030B128F410
:100CF000C040B0F5FA6F01DC012000E0002090B1A7
:100D000028F4C040B0F57A7F04DD28F4C040C0F577
:100D10007A7001E028F4C04007994843642190FBB1
:100D2000F1F00FFA80F809F4C040B0F5005F01D18E
:100D3000012000E0002030B129F4C040B0F5FA6F86
:100D400001DC012000E0002090B129F4C040B0F5A2
:100D50007A7F04DD29F4C040C0F57A7001E029F4FF
:100D6000C04006994843642190FBF1F00FFA80F9E6
:100D70000AEB08000FFA80FA0BEB09000FFA80FB70
:100D8000169800895044A18A401A00B2059016981E
:100D9000408900EB0B01E08A081A00B20490059824
:100DA00008B90498F8B1204610F0FCFCA18A059817
:100DB000084400B2A082218B0598084401B2218327
:100DC000E18A0498084401B2E182618B04980844E6
:100DD00001B26183204610F0E5FC00232046DDE9E6
:100DE000042110F0B7FD00BF22E60000010006005C
:100DF000960000209C0000202DE9F04106460F4699
:100E00001546002017F042F904460DE03946204609
:100E1000B047012804D105B12C600120BDE8F08164
:100E2000204617F033F9044624B1606820F04040B2
:100E30000028EBD10020F1E730B5024614460B46FE
:100E400020881D88A84203D020881D88401B30BD03
:100E500060885D88401BFAE730B5024614460B46B1
:100E600020781D78A84203D020781D78401B30BD23
:100E700060785D78401BFAE770B505460C4626465B
:100E8000686820F040403168884204D12846FDF768
:100E900001FF012070BD0020FCE72DE9F04105466F
:100EA000284608F06DFA0446284608F0DAFA0746A4
:100EB00038460EF019FB06462A2C01D0292C09D100
:100EC000002138460BF072FD304617F065FD3046C4
:100ED00019F0A6F8BDE8F0812DE9FC4106460F4661
:100EE0001446984608F0010000B30125002206F1DF
:100EF000140104F10800F0F704F878B100208DF82F
:100F0000000004F1080001906A461221304608F002
:100F1000AFFA9DF8000000B9002500BF3DB160891F
:100F2000218A0844401E01B2E18100E00025B4F9A5
:100F30000E00B4F90610884201DDE188E1812A46FD
:100F40002146384605F07EFABDE8FC812DE9F041E6
:100F500088B004460F4615461E463846F0F765FD34
:100F6000804606A938460EF018FA4246414606A8C1
:100F700001F01EFB022D2AD1DDE90601CDE90201B7
:100F800000231A4602A938460FF032FF02AA04A82D
:100F9000A168EFF775FF18B9002008B0BDE8F0812F
:100FA000DDE90401CDE9000101230022694638464C
:100FB0000FF01EFF06AA69466846EFF761FF08B901
:100FC0000020EAE7009830600198706012E0012D7F
:100FD0000CD106AA04A8A168EFF752FF08B90020B7
:100FE000DBE7049830600598706003E000BF00BF45
:100FF0000020D2E70120D0E72DE9F0410446204649
:101000000EF02AF90746002607E0A068006850F8AD
:1010100026502846FFF7F0FF761CBE42F5D394F821
:10102000220000F0010008B9BDE8F081608C20F0DA
:1010300001006084204611F006F8204610F094FE6E
:10104000D7B1002120460FF0E1F905469DB10B48CC
:10105000006885420FD8681E0949096801EBC00085
:10106000D0F80480681E0649096851F830204146CE
:101070002046904700BF00BF00BFD5E758000020C2
:10108000EC0100201CB501210C48F4F7B1FA6846C8
:10109000FEF76AFF01208DF8070000208DF804009C
:1010A00010208DF806004FF47C50009004208DF83D
:1010B000050069460248FEF762FF1CBD05001800E6
:1010C000001401402DE9F04F85B007468B4691464C
:1010D0001E460E9DE86900FB0BF080120490E86943
:1010E00000280DDD0498484516DD95F82800C0F36A
:1010F000400018B1012005B0BDE8F08F0020FAE7EC
:101100000498484508DA95F82800C0F3400008B173
:101110000120F0E70020EEE70BEB0601E869484309
:1011200080120490E86900280BDD0498484514DA21
:1011300095F82800C0F3400008B10020DBE701204B
:10114000D9E70498484508DD95F82800C0F3400029
:1011500008B10020CFE70120CDE7E869002806DDCF
:101160004FEA0920A96948438012039006E009F17B
:1011700001000002A96948438012039003980012FD
:1011800002900398C0B20190019810B94FF0FF0887
:1011900007E00198C0F1FF00696A4843FF21A1EB15
:1011A00020280298A0EB0B040198D8B1002C18DB82
:1011B000B44216DA0198C0F1FF00C8F1FF014843BC
:1011C000FF21A1EB602000F0FF0A95F82800C0F392
:1011D000400008B1CAF1FF0A385D514616F03DFDE6
:1011E0003855641C1BE0002C12DBB44210DAA88CCA
:1011F000A8EB600000F0FF0A95F82800C0F340005B
:1012000008B1CAF1FF0A385D514616F026FD38557F
:10121000686AA8EB0008641CB44200DB02E0686A5C
:101220004045E0DB00BFB4421DDA002C1BDBA8699F
:1012300000FB08F080120090009800FB08F0C0F35B
:10124000472AE869002801DACAF1FF0A95F8280060
:10125000C0F3400008B1CAF1FF0A385D514616F0EC
:10126000FCFC385500BF95F82800C0F3400068B179
:101270000298A0EB0B04B44201DD00203BE7002CF8
:101280000FDB214638460CF07DF90AE0641C002C87
:1012900001DA00202FE7B44203DC311B38190CF0CF
:1012A00071F9022027E72DE9FF4F87B007468A46EC
:1012B0001E46149DA8690999484380120690A869A2
:1012C000002802DD0698401C0690069850450ADA70
:1012D00095F82800C0F3400018B101200BB0BDE81C
:1012E000F08F0020FAE7A869099948438012069018
:1012F0000AEB06010698814208DA95F82800C0F347
:10130000400008B10020E9E70120E7E70998000262
:10131000A96948438012059005984FEA202B05984B
:10132000C0B204900998401C0002A9694843801289
:1013300003900398001202900398C0B20190ABEBA7
:101340000A040298834509D0A869002806DA04989F
:1013500020B9FF200490DDF808B0641E0298834590
:1013600034D1002C12DBB44210DA019904980844FD
:10137000C0F3470895F82800C0F3400008B1C8F151
:10138000FF08385D414616F068FC3855641C95F836
:101390002800C0F3400060B1ABEB0A04B44201DBAB
:1013A00000209BE7002C03DB214638460CF0EAF8CE
:1013B000C9E0B44200DD34460CB900208EE7002CB1
:1013C000F6DD311B38190CF0DDF8BCE0A869002807
:1013D0005ADAE8694042049948434FEAA029002CB0
:1013E00012DBB44210DA049809FB00F0C0F347287E
:1013F00095F82800C0F3400008B1C8F1FF08385D37
:10140000414616F02AFC3855641EC9F1FF00A9694F
:101410004942484380120090002C16DBB44214DA93
:10142000C9F1FF0000994843FF21A1EB602000F0C3
:10143000FF0895F82800C0F3400008B1C8F1FF0884
:10144000385D414616F009FC3855A41C95F8280073
:10145000C0F3400068B1ABEB0A00441EB44201DDAA
:10146000344610E0002C0EDD214638460CF08AF898
:1014700009E0B44201DD012030E7002C03DB311B21
:1014800038190CF07FF85DE00498C0F1FF00E969BD
:1014900048434FEAA029002C17DBB44215DA049820
:1014A000C0F1FF0000FB09F0FF21A1EB602000F07C
:1014B000FF0895F82800C0F3400008B1C8F1FF0804
:1014C000385D414616F0C9FB3855641CC9F1FF0070
:1014D000A969484380120090002C13DBB44211DA52
:1014E000C9F1FF0000994843C0F3472895F8280048
:1014F000C0F3400008B1C8F1FF08385D414616F05E
:10150000ACFB3855641C95F82800C0F3400060B16E
:10151000ABEB0A04B44201DD0020DFE6002C10DB57
:10152000214638460CF02EF80BE0B44200DD34467C
:101530000CB90020D2E6002C03DD311B38190CF069
:1015400021F800BF00BF0220C8E62DE9F843044699
:1015500027467D6AA84609F0C7FE0646C6B1304652
:1015600009F017FF012804D0304609F012FF0328C4
:101570000ED16946304609F0D1FEBDF90210284669
:10158000FDF796FEA8F83A00204610F00BF900BFD0
:10159000BDE8F8832DE9FC470546A846D8F8247035
:1015A0003C4609F0A1FE8146484609F0F2FE0428B7
:1015B0000ED1E08E208738460DF03CFF8246504623
:1015C00008F0E8FD18B10021504608F071FE00BF98
:1015D000484609F0DEFE012804D0484609F0D9FE4D
:1015E00003280CD16946484609F098FEBDF902105F
:1015F0003846FDF75DFEE086E08E208700BF384666
:1016000007F0B5FAA06A10B9384610F0CBF8E08EB2
:10161000019001AA1C21384607F02AFF0646012E38
:1016200002D03046BDE8FC870120FBE72DE9F04100
:1016300005460E464FF000081348F0F71CF9044623
:101640001DE021461048F0F72EF907462068A84211
:1016500000D09DB96068B04200D07EB921460A48EA
:10166000F0F788F9206910B12046216988472046A3
:101670000BF0B2FDF1F7BAFC4FF001083C46002C2C
:10168000DFD14046BDE8F08108D7002070B506469E
:101690000D460B48F0F7EFF804460DE02068B04225
:1016A00005D16068A84200D00DB9204670BD214622
:1016B0000348F0F7F8F80446002CEFD10020F5E7D6
:1016C00008D7002010B50446442120460BF05AFFED
:1016D0004FF4FA70E062002020626420A0620120D2
:1016E000A4F840000448E06194F8420020F00100B2
:1016F000401C84F8420010BD83170108F8B5044669
:101700004FF48060009000231946D4E90B200BF0C1
:1017100061FC06464FF480604FF46E733222002164
:101720000090304601F098F90746216AA06A401AF5
:1017300000FB07F5AD12206A05442846F8BDF8B550
:1017400004464FF48060009000231946D4E90B2032
:101750000BF040FC06464FF4806040F2B6334FF485
:10176000617200210090304601F076F90746216A47
:10177000A06A401A00FB07F5AD12206A054428460E
:10178000F8BDF8B504464FF4806000900023194678
:10179000D4E90B200BF01EFC0646216AA06A401A11
:1017A00000FB06F5AD12206A05442846F8BD014647
:1017B000D1E90B20904201DB886A7047086AFCE798
:1017C0004A42026370474160704741607047416020
:1017D00070474160704741607047C1617047C161A7
:1017E000704781637047C1607047A0F84010704730
:1017F000C1627047C1627047C1627047C162704781
:101800000162416282627047016241628262704796
:101810000162416282627047016241628262704786
:1018200001624162826270470160704701607047E7
:101830000160704730B503468D1A002D01DD8D1A09
:1018400000E0551A2C464FF47A756543B5FBF3F06A
:1018500000B9401C30BD000070B50546686818B17D
:10186000D5E90001FFF7E2FE2148F0F777F818B15B
:1018700014F0E2FF1F4908601D48F0F72FF80446F6
:1018800000BF1CB900BF00BF00BFFEE700BF0CB91E
:10189000002070BD4422294620460BF0F1FC286848
:1018A000A84200D124601448017814F8420F61F373
:1018B0008200207014F8420900F00100A0B16069B4
:1018C00050B12046616988470646206A304420624C
:1018D000A06A3044A06200BF606828B1206818B1D7
:1018E000D4E90002216A9047F1F780FB2046D0E757
:1018F00008D70020100200201502002070B506460F
:101900000C4625460020A884872068852D20A885C0
:101910008720E88440002885A88E20F00600A8864D
:101920004FF40040E885A88E20F008000830A88613
:101930000020288664206886A88E20F00100A886F2
:101940004FF43470E88614F077FFA863288D00B256
:10195000A887022120460CF013FA4FF44471204668
:101960000CF042FF0D21204611F0C8F870BD0000B8
:101970002DE9F04FABB08346584607F072FD824622
:101980005446584607F004FD2A9028AA29A9504633
:10199000FDF717FB16A82A990DF0F6F9BDF9A0007E
:1019A000002831DD12A803F0B7FE12AA002150462C
:1019B0000FF08DFB002023906348179000201890B3
:1019C00029A81F90BDF9A000ADF8940012A81E90A0
:1019D00016AA1A21504607F04BFDA08DA18C084491
:1019E00080B2618DA28C114489B2CDE90010BDF89E
:1019F000940083B229AA12A92A9803F06FFE16AAAE
:101A00001B21504607F034FD4FF4003150460EF0D4
:101A100065FE06464FF4003150460EF0EFFE0746D5
:101A20004FF4003150460EF091FF80464FF40031E4
:101A300050460EF093FD0546BE4201DD304600E003
:101A40003846A84501DD414600E02946884205DDCB
:101A5000BE4201DD304606E0384604E0A84501DD1F
:101A6000404600E02846BDF8A010081A0FFA80F999
:101A7000B9F1000F3BDD12A803F04EFE12AA4FF49D
:101A8000003150460FF023FB4FF4003023902E48D6
:101A900017900120189029A81F90ADF8949012A8D3
:101AA0001E9016AA1A21504607F0E2FCBDF94A0022
:101AB000BDF99410884203DDBDF89400ADF84A00EA
:101AC000208DA18C084480B2E18CA28C114489B293
:101AD000CDE90010BDF8940083B229AA12A92A9872
:101AE00003F0FCFD16AA1B21504607F0C1FC10AB09
:101AF000BDF9A02029A95046FDF748FD02A805F030
:101B0000F7FC02AA4FF4403150460FF092FC4FF41C
:101B1000403023900C4817900220189010A819907C
:101B200002A81A9016AA1A21504607F0A1FC10AA82
:101B300002A92A9805F0C0FC16AA1B21504607F0FE
:101B400097FC2BB0BDE8F08F1C1E03082DE9F34F66
:101B50008DB0FB480E990DF03CFB0C900C980128C1
:101B600002D00FB0BDE8F08F0E9807F009FC0646D2
:101B70000E9807F076FC0B900E9807F072FC044666
:101B8000022E7DD109F0B0FB0A900A9800B9E8E76F
:101B90000A9809F0FEFB09900998012800D0E0E7B7
:101BA00008A90A9809F0BAFB06AA07A90B98FDF73D
:101BB00008FABDF82000BDF81C10401A00B2ADF8BC
:101BC0002000BDF82200BDF81E10401A00B2ADF88A
:101BD000220094F8340000F0010000284BD14FF4AB
:101BE00000310B980EF0D7FA0190BDF8181001984B
:101BF000081A00B206904FF480310B980FF052FA99
