:020000040800F2
:100000009806002089020008830700087B07000883
:100010007F0700084D0700084108000800000000A5
:10002000000000000000000000000000870700083A
:100030005107000800000000850700088907000834
:10004000A3020008A3020008A3020008A3020008FC
:10005000A3020008A3020008A3020008A3020008EC
:10006000A3020008A3020008A3020008A3020008DC
:10007000A3020008A3020008A3020008A3020008CC
:10008000A3020008A3020008A3020008A3020008BC
:10009000A3020008A3020008A3020008A3020008AC
:1000A000A3020008A3020008A3020008A30200089C
:1000B000A3020008A3020008A3020008A30200088C
:1000C000A3020008A3020008A3020008A30200087C
:1000D000A3020008A3020008A3020008A30200086C
:1000E000A302000853070008A3020008A3020008A7
:1000F000A3020008A30200080000000000000000A6
:10010000000000000000000000000000A302000842
:10011000A3020008A3020008A3020008A30200082B
:10012000A3020008A3020008A3020008A30200081B
:10013000A30200080000000000000000A302000865
:10014000A3020008A3020008A3020008A3020008FB
:10015000A3020008A302000800000000A302000898
:10016000A3020008A3020008000000000000000035
:10017000000000000000000000000000000000007F
:1001800000000000A3020008A3020008A302000868
:10019000000000000000000000000000000000005F
:1001A000000000000000000000000000000000004F
:1001B0000000000000000000A30200080000000092
:1001C000000000000000000000000000000000002F
:1001D000000000000000000000000000A302000872
:1001E00000F002F800F041F80AA090E8000C824408
:1001F0008344AAF10107DA4501D100F036F8AFF2E5
:10020000090EBAE80F0013F0010F18BFFB1A43F0F4
:1002100001031847141C0000341C0000103A24BFCE
:1002200078C878C1FAD8520724BF30C830C144BF5B
:1002300004680C607047000000230024002500269D
:10024000103A28BF78C1FBD8520728BF30C148BF39
:100250000B607047642900F0E380002070471FB5F1
:1002600001F0B5FD1FBD10B510BD00F03DFA1146FF
:10027000FFF7F5FF01F07AFA00F05BFA03B4FFF73D
:10028000F2FF03BC00F0E5FA09488047094800473F
:10029000FEE7FEE7FEE7FEE7FEE7FEE7FEE7FEE736
:1002A000FEE7FEE704480549054A064B7047000093
:1002B0008D070008E1010008980000209806002042
:1002C0009802002098020020704753EA020C00F0C8
:1002D00069802DE9F04B4FF00006002B1FBFB3FAE9
:1002E00083F503FA05F424FA05F65E4012BF1643BF
:1002F000B2FA82F502FA05F4C5F120051EBF22FA12
:1003000005FC44EA0C04203556EA044C4FEA144438
:1003100018BF641C4FF000084FF00009904271EBC9
:10032000030C39D3002919BFB1FA81F701FA07F696
:10033000B0FA80F700FA07F6C7F120071EBF20FACF
:1003400007FC46EA0C062037B6FBF4FCA7EB0507D2
:10035000103F07F01F0BCBF120060CFA0BFB2CFA19
:1003600006F644BFB3460026202FA4BF5E464FF0DA
:10037000000B5BEA060C08BF4FF0010B19EB0B09F1
:10038000ABFB027C48EB0608C01B06FB02CC0BFB58
:1003900003CC71EB0C01C1E70B46024641464846CF
:1003A000BDE8F08B13B54FF000004FF00001AFF344
:1003B0000080BDE81C4070470FB4044910B503AA83
:1003C000029800F063F910BC5DF814FB2C000020CB
:1003D00070B5044685690068C10601D5302600E085
:1003E0002026C00707D070BDD4E9012130469047D0
:1003F000206A401C20626D1EF6D570BD70B50446A3
:1004000085690078C00707D170BDD4E9012120209B
:100410009047206A401C20626D1EF6D570BD00001A
:100420002DE9F0410646002410687529314616A5CD
:1004300010D0AFF30080002802DA404213A507E095
:1004400031688A0701D512A502E0490704D511A534
:10045000012401E0AFF3008000210A2206F1240705
:1004600009E0B0FBF2FCB0FBF2F302FB1C00303001
:1004700078541846491C0028F3D123462A463046B2
:10048000BDE8F04100F0A8B8000000002D00000019
:100490002B000000200000002DE9F05F8946044693
:1004A0004FF0000ADFF824B1FB44C0F820A020463A
:1004B000E168884700287DD0252806D0D4E90121AD
:1004C0009047206A401C2062F1E700255F462046E5
:1004D000E16888472028064607DB312E05D2B81987
:1004E00010F8200C08B10543F1E7A80701D525F065
:1004F0000405C4F81CA00027C4F818A02A2E09D0AF
:10050000304600F09FF938B304EB8708303EC8F856
:10051000186019E059F8041B204604EB870291612A
:10052000E1688847012F064618D1E069002820DAE3
:1005300025F020051DE0D8F8180000EB800006EB40
:1005400040003038C8F818002046E1688847064661
:1005500000F078F90028EED1012F0AD02E2E08D114
:100560002046E16888477F1C0646022F45F020059B
:10057000C4DBA069002803DA404245F00105A06110
:10058000E80701D025F01005A6B1A6F14100192811
:1005900002D8203645F400654A463146204625609B
:1005A0004D46FFF757FE60B1012807D0ED1D25F03D
:1005B000070000E007E000F1080978E705F1040909
:1005C00075E730467AE7206ABDE8F09F68190000B9
:1005D00070477047704770472DE9F0470D469946C0
:1005E0009246044600F124080168880604D5E069B3
:1005F00021F01001216000E00120A84201DD471B2D
:1006000000E00027A1697A1902EB0900081AA0612D
:100610002078C00602D42046FFF7DAFE002608E064
:10062000D4E901211AF806009047206A401C761C84
:1006300020624E45F4DB2078C0060AD52046FFF73D
:10064000C7FE06E0D4E9012130209047206A401C13
:100650002062381EA7F10107F4DC07E0D4E901218C
:1006600018F805009047206A401C2062281EA5F15A
:100670000105F3DC2046FFF7C1FE2078000602D515
:100680000220BDE8F0870120FBE70000074B70B5B2
:100690000D467B4400F011F80446284600F020F88F
:1006A00010B14FF0FF3070BD204670BDD30F000079
:1006B00001694A1C02610878704700B58FB0CDE926
:1006C00001310021059105497944CDE90310114616
:1006D0006846FFF7E1FE0FB000BD0000E5FFFFFF39
:1006E000007B00F080007047754600F02BF8AE46A6
:1006F00005006946534620F00700854618B020B52E
:10070000FFF7D0FDBDE820404FF000064FF0000796
:100710004FF000084FF0000B21F00701AC46ACE8A9
:10072000C009ACE8C009ACE8C009ACE8C0098D4616
:10073000704710B50446AFF300802046BDE8104076
:10074000FFF79CBD004870473800002000BFFEE75F
:10075000704710B54FF4807000F0F4FD60B100F008
:100760001BFC002000F0EAF84FF4807000F062FDFE
:100770004FF4003000F026FF10BD00BFFEE700BFC1
:10078000FEE77047704770477047000010B5284873
:10079000006840F4700026490860012000F008F964
:1007A0002448006820F00100401C2249086000BF76
:1007B00020480068C0F340000028F9D01D480830E8
:1007C000006820F003001B490831086000BF194889
:1007D00008300068C0F381000028F8D1154800688F
:1007E00015490840134908604FF08040114908310D
:1007F00008601248091F08600E48A030006800F425
:10080000A0400C49A03108600846006840F4702000
:1008100008604FF41F0007490C310860002000F009
:10082000C7F84FF0006002498039086010BD000031
:1008300088ED00E000380240FFFFF2FE02300300C6
:1008400000BFFEE730380A2801D20120704700209F
:10085000704700BF704710B500F0C0FA002000F0EC
:1008600031F8012000F02EF8022000F02BF80020D3
:1008700000F050F8012000F04DF8022000F04AF896
:1008800000F002F810BD00001CB501214FF440102B
:1008900000F0D8F9684600F001FF01208DF807004C
:1008A00000208DF804008DF8060001200090022041
:1008B0008DF805006946024800F0FAFE1CBD0000F4
:1008C000000002401CB504460F4951F824000121E4
:1008D00000F0B8F9684600F0E1FE01208DF807004D
:1008E00000208DF8040001208DF80600074830F83C
:1008F0001400009000208DF80500054951F82400EF
:10090000694600F0D5FE1CBD180000201000002034
:1009100004000020022800DD7047064931F810105D
:1009200031B1044931F81010034A52F82020916186
:1009300000BFF1E71000002004000020022800DDC5
:100940007047064931F8101031B1044931F81010E0
:10095000034A52F82020916200BFF1E71000002006
:100960000400002000B50346012000F021F80548EE
:10097000006863F3071003490860002000F018F8CE
:1009800000BD0000083802400349096860F38C216B
:10099000014A1160704700000838024003490968A5
:1009A00060F34F31014A116070470000083802407F
:1009B000012807D10749096821F030013031054A83
:1009C000116005E00349096821F03001014A116016
:1009D00070470000A43802400349096860F31041E1
:1009E000014A1160704700007038024005282BD280
:1009F000DFE800F0030A11182100154A126861F3BC
:100A00000002134B1A6020E0114A126861F3104291
:100A10000F4B1A6019E00E4A126861F318620C4B12
:100A20001A6012E00A4A7032126861F30002084B41
:100A300070331A6009E0064A7432126861F30002EA
:100A4000034B74331A6000E000BF00BF7047000022
:100A5000003802402DE9F04F87B004460020069090
:100A6000059004900390029081468246834600F0F0
:100A700091F90190019820B101281BD002285BD187
:100A800024E043480068C0F3803038B14048006833
:100A9000C0F3003010B13F48206001E03E482060C4
:100AA0003B48001D0068C0F3024B206820FA0BF0A1
:100AB000206044E0384820603548001D0068C0F3DD
:100AC000C24B206820FA0BF0206038E030489C3898
:100AD0000068C0F3805003902D489C380068C0F334
:100AE000881006902A489C38006800F00F00059096
:100AF00027489C380068C0F302402849085C0490ED
:100B0000039810B92448029001E023480290DDE9DF
:100B1000041000FB01FC06990298A0FB017001463D
:100B2000624600233846FFF7D0FB05460222002329
:100B3000FFF7CBFB206002E01748206000BF00BF3A
:100B4000134898380068C0F30319154810F809A035
:100B5000206820FA0AF060600D4898380068C0F3F9
:100B60008229104810F809A0606820FA0AF0E060B5
:100B7000074898380068C0F342390B4810F809A0BC
:100B8000606820FA0AF0A06007B0BDE8F08F0000AE
:100B9000A0380240006CDC0200127A00F81D000848
:100BA000D81D0008E81D0008F01D00080349096869
:100BB00060F3CF31014A1160704700007038024085
:100BC00002090749096862F31441054A11600449A2
:100BD0006831096860F30921014A68321160704781
:100BE0000838024010B501460020094B03EB1142C2
:100BF000D2F8002801F01F040123A3401A4001F09D
:100C00001F040123A3409A4200D000E0012010BD40
:100C10000030024030B50024002500E0641C1120A3
:100C2000FFF7E0FF012802D0B4F5405FF6D31120B2
:100C3000FFF7D8FF012801D0002500E00125284654
:100C400030BD000010B501290FD1104B03EB10424D
:100C5000D2F8002800F01F040123A3401A430B4CD4
:100C600004EB1043C3F800280EE0084B03EB1042DE
:100C7000D2F8002800F01F040123A3409A43034C3C
:100C800004EB1043C3F8002810BD00000030024000
:100C900030B538B90F4C246824F4805404F58054DE
:100CA0000C4D2C600B4C9C3C246860F39654094D11
:100CB0009C3D2C602C46246861F38E142C602C46DD
:100CC000246862F303042C602C46246863F3124406
:100CD0002C6030BDA038024000B50120FFF768FE4F
:100CE0002048006820F00100401C1E49086000BF39
:100CF0001C480068C0F340000028F9D019480830AB
:100D0000006820F0030017490831086000BF15484B
:100D100008300068C0F381000028F8D1114800684D
:100D2000114908400F4908604FF080400D490831D3
:100D300008600E48091F08600A48A030006800F4E7
:100D4000A0400849A03108600846006840F47020BF
:100D500008604FF41F0003490C3108600020FFF7C2
:100D600027FE00BD00380240FFFFF2FE0230030004
:100D700000B503460120FFF71BFE0548006863F33A
:100D80000100034908600020FFF712FE00BD0000CB
:100D90000838024002480068C0F381007047000034
:100DA000083802400146002021B1012907D002295C
:100DB0000FD109E0084A126802F0030009E0064A70
:100DC0001268C2F3810004E0034A1268C2F3011002
:100DD00000BF00BF704700006838024010B5042013
:100DE00000F0CCFE074800680749B0FBF1F0074966
:100DF0000860084600684FF47A7148430449086067
:100E000010BD00003400002040420F0024000020EC
:100E10002800002030B505460C4600F0BDFB75B932
:100E20001048006864F308200E490860B4B9002136
:100E3000012000F081FB012810D0002030BD0948BE
:100E4000006864F34920074908603CB9002102208A
:100E500000F072FB012801D00020EFE700F0A4FBB6
:100E60000120EBE70828004018B504460B46002097
:100E700000901CB919480068009003E01748001D55
:100E8000006800900099C1F3056000F0BBF818708D
:100E90000099C1F3056000F0B5F858730099C1F3EB
:100EA000054000F0AFF858700099C1F3062000F03B
:100EB000A9F89870009901F07F0000F0A3F8D870AD
:100EC0000098C0F3805018710098C0F380701873B8
:100ED000009800F08030986018BD00001C28004089
:100EE00010B504460B4600F057FB34B908480268B9
:100EF00002F07F321A43026006E00548001D0268D6
:100F000002F07F321A43026000F04EFB10BD000079
:100F10001C2800402DE9F84304460D4616461F469E
:100F2000DDE908891CB91B480068009003E01948F6
:100F3000001D00680090284600F04CFA009960F30C
:100F40001D610091304600F045FA009960F31541AB
:100F50000091384600F03EFA009960F30E210091AE
:100F6000404600F037FA009960F3060100910098BE
:100F700069F39650009000F00FFB1CB900980549EA
:100F8000086003E000980349091D086000F00CFBAD
:100F9000BDE8F8831C2800401FB569460020FFF714
:100FA00063FF9DF803309DF802209DF8011002A018
:100FB000FFF702FA1FBD0000416C61726D3A2025F7
:100FC0003032643A253032643A253032640D0A00FA
:100FD00000B503460A4600F0DFFA33B90848006856
:100FE00062F39E700649086007E00548001D00682E
:100FF00062F39E700249091D086000F0D5FA00BD39
:101000001C280040014601F00F000A0902EB820291
:1010100000EB4200C0B2704708B5014600200090C6
:10102000034800EB810000900098006808BD0000B4
:101030005028004008B500220092034A02EB8002CB
:101040000092009A116008BD502800400CB503467C
:101050001948006801901848001D00680090019927
:10106000C1F30540FFF7CEFFD8700199C1F3062008
:10107000FFF7C8FF1871019901F07F00FFF7C2FF69
:1010800058710198C0F38050D8710099C1F307409E
:10109000FFF7B8FF18700099C1F30420FFF7B2FF03
:1010A0005870009901F03F00FFF7ACFF987000986E
:1010B000C0F3423098710CBD002800401CB50121DE
:1010C0002F48FFF7BFFD012000F06CFC0120FFF767
:1010D00083FC0020FFF780FC01210320FFF786FC42
:1010E00000BF2848FFF77EFD0028FAD00120FFF757
:1010F00067FDFF20244908807F20244908800120C3
:10110000FFF754FD00F078F900F02AFA1E48018834
:101110001E48008800F070F8002000F0A5F80523B4
:1011200001221946152000F033F800231A4619460B
:101130000C2000F09FF94FF000410020FFF7D0FE97
:1011400000210846FFF744FF00200A2103460C2235
:10115000CDE900100121FFF7DDFE0121080300F0B9
:10116000C3F801210020FFF755FE4FF4807000F016
:1011700061F841F234210020FFF75CFF1CBD000044
:101180001C00400001007000020000200000002050
:10119000F8B507460C4615461E4600200090384616
:1011A00000F018F9009960F317410091204600F013
:1011B00011F9009960F30C210091284600F00AF91A
:1011C000009960F305010091009866F34F3000909C
:1011D00000F0E2F900F060F8012801D00020F8BD2D
:1011E00000980449086000F075F800F0DDF901206E
:1011F000F5E700000428004010B504460B4600F057
:10120000CBF900F049F8012801D0002010BD0848B2
:10121000006864F31640064908600846006863F3F6
:101220000E00086000F056F800F0BEF90120EDE76E
:101230001028004040F08001C943044A1268C2F3FC
:10124000C01241EAC211014A116070470C280040E7
:10125000014604480068084008B10120704700209A
:10126000FCE700000C28004000B5034600F094F9AC
:1012700000F012F8012801D0002000BD05480068E8
:1012800063F386100349086000F024F800F08CF93D
:101290000120F2E70828004000B54FF4D8020C48BE
:1012A0000068C0F3801080B94FF0FF300849086033
:1012B00005E01AB900F078F9002000BD521E04487C
:1012C0000068C0F380100028F3D00120F5E700008B
:1012D0000C28004000B56FF080000249086000F063
:1012E0003FF900BD0C28004000B502460B4600F057
:1012F00053F902F0040078B133B11148006840F0AE
:1013000004000F49086005E00D48006820F0040063
:101310000B49086022F004023BB1094838380068E4
:10132000104307493839086006E005483838006836
:10133000904303493839086000F036F900BD0000D9
:101340004028004008B5014600200090B1F5006F2C
:1013500023D009DCB1F5807F0DD0B1F5007F10D02E
:10136000B1F5806F27D112E0B1F5005F1BD0B1F568
:10137000804F20D118E016480068C0F3003000907C
:101380001AE013480068C0F34030009014E01048A1
:101390000068C0F3803000900EE00D480068C0F394
:1013A000C030009008E000BF094838300068C0F342
:1013B0008000009000E000BF00BF0548001D0068ED
:1013C000084018B1009808B1012008BD0020FCE7D2
:1013D0000828004010B50146002200230A2091FB96
:1013E000F0F0C2B20A2091FBF0F400FB1410C3B27B
:1013F000100743EA106010BD00B500F0CDF80020E2
:101400001A490860FFF748FF012801D0002000BDFD
:10141000002016490839086042F20110091D0860D1
:101420000020091D086012481049083108604FF675
:10143000FF70091D086000200C4914310860091D67
:1014400008600A4924310860084934310860091DE0
:101450000860091D0860091D08600449091D08602D
:1014600000F07EF800F0A0F80120D0E70828004046
:10147000FF007F00F8B507460C4615461E460020C3
:1014800000903846FFF7A6FF009960F315410091E0
:101490002046FFF79FFF009960F30E210091284638
:1014A000FFF798FF009960F306010091009866F33A
:1014B0009650009000F070F8FFF7EEFE012801D082
:1014C0000020F8BD009804490860FFF703FF00F012
:1014D0006BF80120F5E70000002800401CB56846C5
:1014E000FFF7B4FD9DF802309DF801209DF8001033
:1014F00006A0FEF761FF9DF805309DF804209DF8D9
:10150000031008A0FEF758FF1CBD000054696D656C
:101510003A2020253032642D253032642D2530329A
:1015200064200000253032643A253032643A253098
:1015300032640D0A0000000010B504460A464FF45C
:10154000581305E01BB900F02FF8002010BD5B1EFA
:101550002046FFF77DFE9042F4D00120F6E7000020
:101560004FF4D8010B480068C0F3C0106FF0A00220
:1015700042EAC010074A106003E009B90020704732
:10158000491E04480068C0F340100028F5D001202F
:10159000F5E700000C280040CA20024908605320EB
:1015A0000860704724280040FF2001490860704708
:1015B0002428004000214172416001210172017024
:1015C000704700000149086070470000143C01406A
:1015D000014600204868234A12688243214B1A6062
:1015E0001A1D126882431B1D1A604A7A0AB30A78D0
:1015F0002AB91A1F126802431B1F1A6006E0194A13
:10160000121D12680243174B1B1D1A60154A08323F
:1016100012688243134B08331A601A1D1268824302
:101620001B1D1A600A7A2AB91A1F126802431B1F6F
:101630001A6016E00A7A012A07D10A4A0C321268A7
:101640000243084B0C331A600BE0064A083212685A
:101650000243044B08331A601A1D126802431B1D13
:101660001A607047003C014070B504460D4600BF4B
:101670008021094800F0D9FA0028F9D0A1B2064823
:1016800000F0CAFA00BF4021034800F0CEFA00285B
:10169000F9D0204670BD0000001001404FF6FF71E8
:1016A000016000218171017141710121C171704797
:1016B00070B50A4600211488A3B233E003F0010498
:1016C0006CB304684E000325B540AC4304609479C4
:1016D0004D00AC4005682C430460446801258D40F2
:1016E000AC434460446815798D402C434460846861
:1016F0004E000325B540AC438460D4794D00AC4026
:1017000085682C438460C4684E000325B540AC4313
:10171000C46054794D00AC40C5682C43C4605B1074
:101720004C1CA1B2002BC9DC70BDF0B50023002415
:101730004D07ED0E02FA05F3CD105DB1456A4E0777
:10174000F70E0F26BE40B5434562456A45EA0304DD
:1017500044620AE0056A4E07F70E0F26BE40B54305
:101760000562056A45EA03040462F0BD86B0002400
:1017700000F01FFB00F020F9032000F0FFF8FFF756
:101780006AF84FF4E13000F00DFA01212D48FFF71F
:1017900059FA012000F006F90020FFF73DFC41F264
:1017A0003421884205D028A0FEF706FEFFF786FC0C
:1017B0000CE02EA0FEF700FEFFF7D2FE4FF4807083
:1017C000FFF738FD4FF40030FFF7FCFEFFF786FE11
:1017D000FFF7E2FB2DA0FEF7EFFD03A8FFF7EAFEFF
:1017E00001208DF8150000208DF80C004FF400301A
:1017F000049000208DF8140003A8FFF7E9FE0122F1
:101800000021292000F056F81AE001A8FFF71EFC7D
:101810009DF80900A04213D09DF809409DF80630BC
:101820009DF805209DF8041019A0FEF7C5FD9DF850
:1018300009309DF808209DF8071019A0FEF7BCFD9F
:10184000E3E700001C004000657274632068617368
:10185000206E6F74206265656E20696E69746961BF
:101860006C697A65640D0A0D0A0000006572746384
:1018700020686173206265656E20696E69746961B4
:101880006C697A65640D0A0D0A0000000D0A0000FB
:10189000253032642D253032642D2530326420000D
:1018A000253032643A253032643A253032640D0AEC
:1018B000000000002DE9F0470B4614464FF0000CE5
:1018C00000BF2C4A1268C2F302211D4626460A4672
:1018D000C2F10709B9F1040F02D94FF0040901E080
:1018E000C2F10709C84602F10409B9F1070F02D293
:1018F0004FF0000901E0A2F103094F464FF0010942
:1019000009FA08F9A9F1010909EA050909FA07F92B
:101910004FF0010A0AFA07FAAAF1010A0AEA060ACE
:1019200049EA0A09CC4601466246002904DB15074C
:101930002E0E114D6E5407E015072F0E0D4D0C3570
:1019400001F00F06361FAF5500BF014600290DDB21
:1019500000BF00BF01F01F050122AA404D09AD00E4
:1019600005F1E025C5F8002100BF00BF00BFBDE8BC
:10197000F08700000CED00E000E400E000BF00F0A4
:101980000702064B19684FF6FF031940044B0B433F
:1019900043EA0221014B196000BF70470CED00E0E3
:1019A0000000FA050349096860F30821014A116043
:1019B000704700000070004010B5FFF78DF94FF43C
:1019C000AA702049086001211F48FFF73BF91F4812
:1019D000006920F00300C01C1C4908610121084671
:1019E000FFF704F800BFFFF715F90028FBD001232B
:1019F0001A4648211846FFF74BF901210220FEF74D
:101A0000F5FF00BF1920FFF7EDF80128FAD10020FB
:101A1000FEF7A8FF0020FEF7C1FF0420FEF7B4FF89
:101A20000120FEF7C5FF0220FFF7A2F900BFFFF774
:101A3000B1F90228FBD10020FEF7BAFF00F008F848
:101A400010BD0000003C02401C004000007000403F
:101A50002DE9F04F85B04FF00009CA46CB46002073
:101A600004900390029001900024FFF793F90090F6
:101A7000009820B101281ED002285BD128E0394807
:101A80000068C0F3803040B136480068C0F30030D1
:101A900018B135483549086002E0354833490860D7
:101AA0003048001D0068C0F3024430480068E04040
:101AB0002E49086042E02E482C4908602948001D44
:101AC0000068C0F3C24408460068E040086035E0A2
:101AD00024489C380068C0F38050049021489C380A
:101AE0000068C0F388191F489C38006800F00F0A8E
:101AF0001C489C380068C0F302401E4911F800B031
:101B0000049810B91A48039001E0194803900AFBA1
:101B10000BFC0398A0FB097001466246002338467F
:101B2000FEF7D3FB054602220023FEF7CEFB0F494A
:101B3000086003E00E480D49086000BF00BF094877
:101B400098380068C0F3031002900B490298085CB3
:101B50000190064800680199C8400449086005B032
:101B6000BDE8F08FA0380240006CDC023400002099
:101B700000127A000E1E0008FE1D0008042808D17D
:101B80004FF0E021096941F004014FF0E0221161BA
:101B900007E04FF0E021096921F004014FF0E02255
:101BA000116170471CB5044601211848FFF74AF837
:101BB00001214FF44010FFF745F86846FFF76EFD2E
:101BC00001208DF8070000208DF8040002208DF818
:101BD00006000002009000208DF8050069460C48C0
:101BE000FFF766FD072209210948FFF79EFD002344
:101BF0001A462146074800F021F80121054800F067
:101C0000D3F80121034800F00BF81CBD0400440088
:101C10000000024000100140C1F30802426070471A
:101C2000C26861F34D32C2607047024610680840D6
:101C300008B1012070470020FCE700002DE9FF47B4
:101C40000446894690469A466846FEF703FF504888
:101C500084421AD10020FFF7A5F806460EB9029D6E
:101C600053E0012E01D1009D4FE0032E02D14FF42D
:101C700000454AE0474D48480068C0F3003000285E
:101C800043D005EB450045003FE04448844219D16C
:101C90000120FFF787F806460EB9039D35E0012EB7
:101CA00001D1009D31E0032E02D14FF400452CE01C
:101CB000384D39480068C0F30030F8B105EB4500F5
:101CC000450022E03648844219D10220FFF76AF825
:101CD00006460EB9039D18E0012E01D1009D14E0C7
:101CE000032E02D14FF400450FE02A4D2A48006828
:101CF000C0F3003010B105EB4500450005E0294870
:101D0000844201D1029D00E0039D05EB8500400067
:101D1000B0FBF9F70A20B7FBF0F100FB11700528C2
:101D200003D20A20B7FBF0F703E00A20B7FBF0F07C
:101D3000471CA06867F30F00A060B8F1020F0AD13A
:101D4000E06820F0805000F18050E060E06820F40E
:101D50008050E06015E0B8F1000F08D1E06820F095
:101D60008050E060E06820F48050E06009E0E068C6
:101D700020F08050E060E06820F4805000F5805052
:101D8000E06020696AF30D302061BDE8FF87000044
:101D90000010014000127A00A038024000440040C8
:101DA0000048004000140140C26861F3C302C260F1
:101DB000704708B500200090009002E00098401C99
:101DC00000904CF2503100988842F7D308BD4FF094
:101DD0004070E1EE100A70470000000000000000B3
:101DE00001020304060708090000000001020304C1
:101DF000000000000102030401020408102000009A
:101E000000000000000001020304060708090102A7
:101E10000408102004000008000000000000000278
:101E20000001000010000000481E00080000002013
:101E3000380000001C020008801E00083800002046
:101E4000600600003802000800000000000C02409C
:101E5000000C0240000C0240002000400080000006
:101E600003003000030030000300300000000000D9
:101E700000000000000000000100000000127A00D5
:04000005080001E10D
:00000001FF
