:020000040800F2
:10000000A80600202D020008F3040008EB040008F5
:10001000EF040008E50400086D050008000000007A
:10002000000000000000000000000000F7040008CD
:10003000E904000800000000F5040008F9040008C5
:10004000470200084702000847020008470200086C
:10005000470200084702000847020008470200085C
:10006000470200084702000847020008470200084C
:10007000470200084702000847020008470200083C
:10008000470200084702000847020008470200082C
:10009000470200084702000847020008470200081C
:1000A000470200084702000847020008470200080C
:1000B00047020008470200084702000847020008FC
:1000C00047020008470200084702000847020008EC
:1000D00047020008470200084702000847020008DC
:1000E00047020008470200084702000847020008CC
:1000F00047020008470200084702000847020008BC
:1001000047020008470200084702000847020008AB
:10011000470200084702000847020008470200089B
:10012000470200084702000847020008470200088B
:10013000470200084702000847020008470200087B
:1001400000000000000000000000000000000000AF
:10015000470200084702000847020008470200085B
:10016000470200084702000847020008470200084B
:10017000470200084702000847020008470200083B
:100180004702000800F002F800F041F80AA090E8E9
:10019000000C82448344AAF10107DA4501D100F042
:1001A00036F8AFF2090EBAE80F0013F0010F18BFCE
:1001B000FB1A43F0010318474C0F00006C0F0000BE
:1001C000103A24BF78C878C1FAD8520724BF30C883
:1001D00030C144BF04680C60704700000023002455
:1001E00000250026103A28BF78C1FBD8520728BF47
:1001F00030C148BF0B607047752900F0798000203E
:1002000070471FB500F05DFF1FBD10B510BD00F0B9
:1002100037F91146FFF7F5FF00F0D6FC00F055F96D
:1002200003B4FFF7F2FF03BC00F0A2F909488047CE
:1002300009480047FEE7FEE7FEE7FEE7FEE7FEE7C8
:10024000FEE7FEE7FEE7FEE704480549054A064BE0
:1002500070470000FD04000885010008A800002088
:10026000A8060020A8020020A80200207047000075
:100270000FB4044910B503AA029800F0D3F810BCDB
:100280005DF814FB2C0000202DE9F0410E460446D9
:10029000002020622046E168884730B3252805D039
:1002A000D4E901219047206A401CF2E7E16820462A
:1002B00000278847050018D0A5F14100192802D869
:1002C00020354FF400673246294620462760FFF765
:1002D00093FF40B1012804D0F61D26F0070608362A
:1002E000D8E7361DD6E72846DAE7206ABDE8F08170
:1002F0002DE9F0410646002410687529314616A5FF
:1003000010D0AFF30080002802DA404213A507E0C6
:1003100031688A0701D512A502E0490704D511A565
:10032000012401E0AFF3008000210A2206F1240736
:1003300009E0B0FBF2FCB0FBF2F302FB1C00303032
:1003400078541846491C0028F3D123462A463046E3
:10035000BDE8F04100F00CB8000000002D000000E6
:100360002B00000020000000704770477047704766
:100370002DE9F0470D4699469246044600F12408BF
:100380000168880604D5E06921F01001216000E0D1
:100390000120A84201DD471B00E00027A1697A196E
:1003A00002EB0900081AA0612078C00602D420469A
:1003B000AFF30080002608E0D4E901211AF8060016
:1003C0009047206A401C761C20624E45F4DB207862
:1003D000C0060AD52046AFF3008006E0D4E901212B
:1003E00030209047206A401C2062381EA7F1010788
:1003F000F4DC07E0D4E9012118F805009047206AF1
:10040000401C2062281EA5F10105F3DC2046AFF355
:1004100000802078000602D50220BDE8F087012088
:10042000FBE70000074B70B50D467B4400F011F868
:100430000446284600F020F810B14FF0FF3070BDA0
:10044000204670BD9F06000001694A1C02610878C1
:10045000704700B58FB0CDE9013100210591054904
:100460007944CDE9031011466846FFF70DFF0FB040
:1004700000BD0000E5FFFFFF007B00F0800070473B
:10048000754600F02BF8AE4605006946534620F04D
:100490000700854618B020B5FFF7D6FEBDE820401E
:1004A0004FF000064FF000074FF000084FF0000B30
:1004B00021F00701AC46ACE8C009ACE8C009ACE8E3
:1004C000C009ACE8C0098D46704710B50446AFF3CB
:1004D00000802046BDE81040FFF7A2BE00487047EC
:1004E0004800002000BFFEE7704700BFFEE700BFE6
:1004F000FEE7704770477047704700001848006873
:1005000040F47000164908601648006820F00100A9
:10051000401C1449086000BF12480068C0F3400046
:100520000028F9D00F48406820F003000D494860CA
:1005300000BF0C484068C0F381000028F9D1094889
:1005400000680949084007490860002048600863BE
:100550004FF41F008860C803014980390860704764
:1005600088ED00E000100240FFFFF2FE00BFFEE752
:1005700000BF704710B500F053FA002000F030F8CB
:10058000012000F02DF8022000F02AF8002000F0F1
:100590004FF8012000F04CF8022000F049F800F07C
:1005A00001F810BD1CB501210B4800F087F9684621
:1005B00000F0AAFA01208DF8070000208DF8040051
:1005C0008DF806000120009028208DF8050069466E
:1005D000024800F0A4FA1CBD020018000008014007
:1005E0001CB504460F4951F82400012100F066F9BA
:1005F000684600F089FA01208DF8070000208DF888
:10060000040010208DF80600074830F81400009010
:1006100004208DF80500054951F82400694600F0D2
:100620007EFA1CBD180000201000002004000020ED
:10063000022800DD7047064931F8101031B1044935
:1006400031F81010034A52F82020116100BFF1E781
:1006500010000020040000200349496860F30711DE
:10066000014A516070470000001002400349496888
:1006700060F30A21014A51607047000000100240F7
:100680000349496860F3CD21014A51607047000079
:1006900000100240012807D10749496D21F03001BF
:1006A0003031054A516505E00349496D21F03001BB
:1006B000014A51657047000000100240052827D20A
:1006C000DFE800F0030A11181F00134A126861F3F3
:1006D0000002114B1A601CE00F4A126861F31042CD
:1006E0000D4B1A6015E00C4A126861F318620A4B50
:1006F0001A600EE0084A126A61F30002064B1A62A1
:1007000007E0054A526A61F30002034B5A6200E0B7
:1007100000BF00BF70470000001002402DE9F0410B
:10072000014600270022002590460023002400F007
:100730006FF9064626B1012E12D0022E43D112E0E7
:100740003948406DC0F3402038B13748006BC0F3E2
:10075000406010B13548086001E03548086035E078
:100760003348086032E030484068C0F300482E4803
:100770004068C0F383422C484068C0F341750DB90E
:100780000F2A03D12801401C024400E0921CB8F15A
:10079000000F03D127485043086013E02248406807
:1007A000C0F3404058B12048406DC0F30137B81C39
:1007B000DFF87CC0BCFBF0F05043086002E01C484E
:1007C0005043086002E01A48086000BF00BF1648A6
:1007D0004068C0F303131848C45C0868E0404860F0
:1007E00011484068C0F302231448C45C4868E040E4
:1007F000C8600D484068C0F3C2231148C45C486813
:10080000E040886008484068C0F3007306484068CC
:10081000C0F3813040EA83030A48C45C8868B0FBB7
:10082000F4F00861BDE8F08100100240006CDC02C9
:1008300000127A0000093D00DC100008EC100008EE
:10084000F4100008FC10000810B501460020094B08
:1008500003EB1142126801F01F040123A3401A4068
:1008600001F01F040123A3409A4200D000E00120C0
:1008700010BD0000001002400349496D60F30D31C6
:10088000014A5165704700000010024030B5002455
:10089000002500E0641C1120FFF7D6FF012802D0DC
:1008A000B4F5405FF6D31120FFF7CEFF012801D049
:1008B000002500E00125284630BD000010B50129C3
:1008C0000DD10E4B03EB1042126800F01F04012300
:1008D000A3401A43094C04EB10431A600CE0074B89
:1008E00003EB1042126800F01F040123A3409A4357
:1008F000024C04EB10431A6010BD000000100240CF
:1009000010B568B91C4B5B6823F480331A4C6360E4
:1009100023461B6B23F0007303F10073236317E07E
:10092000154B5B6823F4803303F58033124C63600E
:10093000012805D123465B6823F40033636007E098
:100940000D4B5B6823F4003303F500330A4C6360FE
:10095000094B5B6861F39543074C63600C09064BD8
:100960005B6864F35E73044C636023465B6862F308
:10097000DF73636010BD0000001002401348006880
:1009800020F00100401C1149086000BF0F480068BA
:10099000C0F340000028F9D00C48406820F0030064
:1009A0000A49486000BF09484068C0F38100002838
:1009B000F9D106480068064908400449086000204B
:1009C000486008634FF41F008860704700100240C1
:1009D000FFFFF2FE0D49496860F301010B4A5160C7
:1009E00000BF00BF00BF00BF00BF00BF00BF00BF0F
:1009F00000BF00BF00BF00BF00BF00BF00BF00BFFF
:100A000000BF00BF00BF00BF7047000000100240E1
:100A100002484068C0F381007047000000100240A7
:100A200010B5042000F0A8FA074800680749B0FB99
:100A3000F1F007490860084600684FF47A714843AE
:100A40000449086010BD00004400002040420F002F
:100A50002400002028000020002131E032280ADD97
:100A6000194A126832235A434FF0E0235A61A0F129
:100A7000320290B206E0144A126842434FF0E0237B
:100A80005A61002000224FF0E0239A611A46126951
:100A900042F001021A6100BF4FF0E022116901F03B
:100AA00001021AB101F48032002AF5D04FF0E022A1
:100AB000126922F001024FF0E0231A6100229A61CC
:100AC0000028CBD1704700002800002070B50446F4
:100AD0000D4600BF8021094800F0A1FA0028F9D096
:100AE000A1B2064800F092FA00BF4021034800F08E
:100AF00096FA0028F9D0204670BD00000038014069
:100B000041617047016170474FF6FF71016000213C
:100B100081710171042141710121C1717047F0B5EA
:100B20000A461588ABB29579032D01D100241AE04D
:100B3000957965B9557905F00F045579182D01D1CE
:100B4000036110E05579282D0DD143610BE09579B3
:100B500005F00805167906F004063543D67906F047
:100B6000030645EA0604DDB2A5B1002110E0012527
:100B70008D401D405DB105688F000F26BE40B54316
:100B8000056005688E0004FA06F635430560491CC9
:100B90000829ECD3FF2B15DD1B12002110E00125E5
:100BA0008D401D405DB145688F000F26BE40B543A6
:100BB000456045688E0004FA06F635434560491CD9
:100BC0000829ECD3F0BD000000F022F9FFF7D2FCB9
:100BD0004FF4E13000F0E4F900F0F4F812A0FFF770
:100BE00047FB17A0FFF744FB20A0FFF741FB1AE0EB
:100BF00028A0FFF73DFB002407E0204600F0A6F800
:100C00000A20FFF729FF601CC4B2632CF5DD2BA07E
:100C1000FFF72EFB32480568681C314A10602946F0
:100C200030A0FFF725FBE3E74861726477617265E6
:100C30005F496E6974205B6F6B5D200D0A000000D8
:100C400061745F73746172745F6134303361206208
:100C50006F6172642074657374696E67203230321C
:100C6000342D30322D31310D0A00000061745F7374
:100C7000746172745F613430336120626F617264D9
:100C8000206D6F64756C65206472765F736D670D9F
:100C90000A000000617433325F6D6F64756C655FCC
:100CA000736D67206578616D706C65207374617217
:100CB00074205B6F6B5D200D0A000000617433329D
:100CC0005F6D6F64756C655F736D67206578616DCE
:100CD000706C6520656E64205B6F6B5D200D0A0093
:100CE000000000207573617274207072696E746602
:100CF00020636F756E7465723A2025750D0A0000C9
:100D000070B5044600251BE004F0800028B14FF4C4
:100D100000410D48FFF7F6FE04E04FF400410A4899
:100D2000FFF7EEFE6006040E4FF400610648FFF781
:100D3000E7FE4FF400610448FFF7E4FE681CC5B20B
:100D4000082DE1DB70BD000000140140F8B5054638
:100D500001240EE00A2095FBF0F100FB1150C0B217
:100D6000C4F104010DF801000A2095FBF0F5601CA8
:100D7000C4B2042CEEDD012634461BE0C4F10401AC
:100D80001DF801100D4A505CFFF7BAFF3046FFF71F
:100D9000B7FF4FF400510A48FFF7B2FE4FF400517D
:100DA0000748FFF7AFFE0220FFF756FE601CC4B2F3
:100DB0007006060E042CE1DDF8BD000031000020B5
:100DC000001401401CB501210F48FFF777FD68466C
:100DD000FFF79AFE01208DF8070000208DF804002F
:100DE00010208DF806004FF42840009004208DF864
:100DF000050069460548FFF792FE4FF42841034875
:100E0000FFF77EFE1CBD0000050018000014014025
:100E100010B5FFF7B3FD01210846FFF74FFC00BFF7
:100E2000FFF734FD0028FBD0012231210220FFF71B
:100E300067FD0020FFF720FD01210220FFF73EFCA7
:100E400000BF1920FFF700FD0128FAD10020FFF7AD
:100E500003FC0420FFF714FC0420FFF707FC01202B
:100E6000FFF718FC0220FFF7B5FD00BFFFF7D0FD2C
:100E70000228FBD10020FFF70DFC00F001F810BDA7
:100E80002DE9F0470026002400250027A046A146B2
:100E9000FFF7BEFD8246BAF1000F06D0BAF1010F8E
:100EA00015D0BAF1020F46D115E02D48406DC0F3C0
:100EB000402040B12A48006BC0F3406018B1294877
:100EC0002949086002E029482749086037E0274897
:100ED0002549086033E022484068C0F300472048B5
:100EE0004068C0F383441E484068C0F341750DB9A3
:100EF0000F2C03D12801401C044400E0A41C27B996
:100F00001B4860431849086014E015484068C0F366
:100F1000404058B11248406DC0F30136B01C13492F
:100F2000B1FBF0F060431049086003E00F486043F4
:100F30000D49086003E00D480B49086000BF00BF81
:100F400007484068C0F303180A4810F8089006489C
:100F5000006820FA09F004490860BDE8F087000045
:100F600000100240006CDC024400002000127A00F5
:100F700000093D00CC100008042808D14FF0E02102
:100F8000096941F004014FF0E022116107E04FF0E0
:100F9000E021096921F004014FF0E022116170475E
:100FA0001CB5044601211648FFF788FC01211448AE
:100FB0000C38FFF783FC6846FFF7A6FD01208DF88B
:100FC000070000208DF8040008208DF8060080013D
:100FD000009004208DF8050069460A48FFF79FFD40
:100FE00000231A462146084800F022F8012106484D
:100FF00000F062F80121044800F00CF81CBD00006C
:101000000E0018000008014000380140C1F308023A
:1010100042607047C26861F34D32C2607047024659
:101020001068084008B1012070470020FCE700006C
:101030002DE9F04385B004460F4690469946684630
:10104000FFF76CFB1848844208D01848844205D04A
:101050001748844202D01748844201D1029E00E022
:10106000039E06EB86004000B0FBF7F50A20B5FBB7
:10107000F0F100FB1150052803D20A20B5FBF0F572
:1010800003E00A20B5FBF0F0451CA06865F30F00F3
:10109000A060E06868F30C30E060206969F30D300F
:1010A000206105B0BDE8F0830038014000600140D8
:1010B0000064014000680140C26861F3C302C2607D
:1010C00070474FF04070E1EE100A704700000000DA
:1010D00000000000010203040607080900000000E8
:1010E00000000000010203040607080900000000D8
:1010F00001020304000000000102030402040608C8
:10110000020C081024110008000000204800000014
:10111000C00100086C1100084800002060060000B3
:10112000DC01000800000000001401400014014030
:10113000001401400020004000800000050018005D
:101140000500180005001800000000000000000065
:101150000000000001C0F9A4B0999282F880908C40
:0C116000BFC6A186FFBF000000127A008D
:040000050800018569
:00000001FF
