:020000040800F2
:10000000480B00207502000871070008CF060008A1
:100010006D070008C9060008C10A000800000000BA
:100020000000000000000000000000004D0A000871
:10003000CD06000800000000110A00084F0A000861
:100040008F0200088F0200088F020008150A0008BE
:100050008F0200088F0200088F0200088F0200083C
:100060008F0200088F0200088F0200088F0200082C
:100070008F0200088F0200088F0200088F0200081C
:100080008F0200088F0200088F0200088F0200080C
:100090008F0200088F0200088F0200088F020008FC
:1000A0008F0200088F0200088F0200088F020008EC
:1000B0008F0200088F0200088F0200088F020008DC
:1000C0008F0200088F0200088F0200088F020008CC
:1000D0008F0200088F0200088F0200088F020008BC
:1000E0008F0200088F0200088F0200088F020008AC
:1000F0008F0200088F0200088F0200088F0200089C
:100100008F0200088F0200088F0200088F0200088B
:100110008F0200088F0200088F0200088F0200087B
:100120008F0200088F0200088F0200088F0200086B
:100130008F0200088F0200088F0200088F0200085B
:1001400000000000000000000000000000000000AF
:100150008F0200088F0200088F0200088F0200083B
:100160008F0200088F0200088F0200088F0200082B
:100170008F0200088F0200088F0200088F0200081B
:100180008F02000800F002F800F064F80AA090E87E
:10019000000C82448344AAF10107DA4501D100F042
:1001A00059F8AFF2090EBAE80F0013F0010F18BFAB
:1001B000FB1A43F001031847782600009826000038
:1001C0000A444FF0000C10F8013B13F0070408BF7D
:1001D00010F8014B1D1108BF10F8015B641E05D01B
:1001E00010F8016B641E01F8016BF9D113F0080FD0
:1001F0001EBF10F8014BAD1C0C1B09D16D1E58BF62
:1002000001F801CBFAD505E014F8016B01F8016B98
:100210006D1EF9D59142D6D370470000002300240B
:1002200000250026103A28BF78C1FBD8520728BF06
:1002300030C148BF0B607047642900F09980732972
:1002400000F0DD81002070471FB501F03CFE1FBDAE
:1002500010B510BD00F00AFA1146FFF7F5FF01F0E6
:1002600047F800F028FA03B4FFF7F2FF03BC00F0F0
:1002700090FC00000948804709480047FEE7FEE778
:10028000FEE7FEE7FEE7FEE7FEE7FEE7FEE7FEE746
:1002900004480549054A064B70470000510A00080A
:1002A0008501000848050020480B00204807002071
:1002B00048070020704700000FB4044910B503AA96
:1002C000029800F0A1F910BC5DF814FB500000206A
:1002D00070B5044685690068C10601D5302600E086
:1002E0002026C00707D070BDD4E9012130469047D1
:1002F000206A401C20626D1EF6D570BD70B50446A4
:1003000085690078C00707D170BDD4E9012120209C
:100310009047206A401C20626D1EF6D570BD70B5F6
:100320000C460546012A05D02878800600D5EA69E2
:10033000002302E0012305E05B1C934202D2E05C53
:100340000028F9D1A869E618C01AA861286A1844DB
:1003500028622846FFF7BCFF04E0D5E9012114F824
:10036000010B9047B442F8D32846FFF7C7FF70BD92
:100370002DE9F0410646002410687529314616A57E
:1003800010D0AFF30080002802DA404213A507E046
:1003900031688A0701D512A502E0490704D511A5E5
:1003A000012401E0AFF3008000210A2206F12407B6
:1003B00009E0B0FBF2FCB0FBF2F302FB1C003030B2
:1003C00078541846491C0028F3D123462A46304663
:1003D000BDE8F04100F0A8B8000000002D000000CA
:1003E0002B000000200000002DE9F05F8946044644
:1003F0004FF0000ADFF824B1FB44C0F820A02046EB
:10040000E168884700287DD0252806D0D4E901215D
:100410009047206A401C2062F1E700255F46204695
:10042000E16888472028064607DB312E05D2B81937
:1004300010F8200C08B10543F1E7A80701D525F015
:100440000405C4F81CA00027C4F818A02A2E09D05F
:10045000304600F097FB38B304EB8708303EC8F80D
:10046000186019E059F8041B204604EB87029161DB
:10047000E1688847012F064618D1E069002820DA94
:1004800025F020051DE0D8F8180000EB800006EBF1
:1004900040003038C8F818002046E1688847064612
:1004A00000F070FB0028EED1012F0AD02E2E08D1CB
:1004B0002046E16888477F1C0646022F45F020054C
:1004C000C4DBA069002803DA404245F00105A061C1
:1004D000E80701D025F01005A6B1A6F141001928C2
:1004E00002D8203645F400654A463146204625604C
:1004F0004D46FFF7A1FE60B1012807D0ED1D25F0A4
:10050000070000E007E000F1080978E705F10409B9
:1005100075E730467AE7206ABDE8F09FDF230000E8
:1005200070477047704770472DE9F0470D46994670
:100530009246044600F124080168880604D5E06963
:1005400021F01001216000E00120A84201DD471BDD
:1005500000E00027A1697A1902EB0900081AA061DE
:100560002078C00602D42046FFF7B2FE002608E03D
:10057000D4E901211AF806009047206A401C761C35
:1005800020624E45F4DB2078C0060AD52046FFF7EE
:100590009FFE06E0D4E9012130209047206A401CEC
:1005A0002062381EA7F10107F4DC07E0D4E901213D
:1005B00018F805009047206A401C2062281EA5F10B
:1005C0000105F3DC2046FFF799FE2078000602D5EE
:1005D0000220BDE8F0870120FBE710B5436913B1A5
:1005E000AFF3008001E0FFF79AFE012010BD127802
:1005F00000F124010A7000224A700122EDE711681F
:100600004FF0FF32E9E70000074B70B50D467B4421
:1006100000F011F80446284600F020F810B14FF021
:10062000FF3070BD204670BDAB0B000001694A1C55
:1006300002610878704700B58FB0CDE90131002123
:10064000059105497944CDE9031011466846FFF745
:10065000CBFE0FB000BD0000E5FFFFFF007B00F008
:100660008000704700487047E80400207546FFF797
:10067000F9FFAE4605006946534620F0070085465F
:1006800018B020B5FFF704FEBDE820404FF000068B
:100690004FF000074FF000084FF0000B21F007016A
:1006A000AC46ACE8C009ACE8C009ACE8C009ACE8AD
:1006B000C0098D46704710B50446AFF30080204650
:1006C000BDE81040FFF7CFBD00BFFEE7704700BF99
:1006D000FEE7000010B520210D4800F08BFD03203F
:1006E00000F044FD40210A4800F084FD032000F0A2
:1006F0003DFD4021064800F07BFD032000F036FD63
:100700002021034800F074FD032000F02FFD10BDF0
:100710000008014010B520210A4800F06BFD0320BD
:1007200000F024FD4021074800F062FD032000F0A6
:100730001DFD4021034800F05DFD032000F016FD83
:1007400010BD00000008014010B52021064800F04F
:1007500051FD032000F00AFD2021034800F048FD70
:10076000032000F003FD10BD0008014000BFFEE7BC
:10077000704770B5002418E004F1B000002100F0CB
:100780003BF90021084600F037F90021102000F065
:1007900033F9002505E00121002000F02DF9681C47
:1007A000C5B2802DF7DB601CC4B2082CE4DB70BD41
:1007B0001CB501210C4800F0F7FB684600F01CFD59
:1007C00001208DF8070000208DF8040010208DF81E
:1007D00006006020009004208DF80500694603485B
:1007E00000F015FD1CBD00000200180000080140CB
:1007F00070B504460D4605F1B000002100F0FCF88C
:10080000102141EA1410002100F0F6F804F00F0066
:10081000002100F0F1F870BD2DE9F04180460E4650
:100820001546002731464046FFF7E2FF00240AE064
:10083000124A02EB8511085D012100F0DDF8781CF9
:10084000C7B2601CC4B2102CF2DB701CC1B24046AF
:10085000FFF7CEFF00240CE06900491C074A02EBB9
:100860004111085D012100F0C7F8781CC7B2601C77
:10087000C4B2102CF0DBBDE8F0810000580000206D
:100880002DE9F04780460E4617464FF05E090025D9
:100890002FE005EB05101949085CB84227D1314615
:1008A0004046FFF7A5FF00240AE005EB0511134AB7
:1008B0001144491C085D012100F09EF8601CC4B27F
:1008C000082CF2DB701CC1B24046FFF791FF0824F0
:1008D0000AE005EB0511094A1144491C085D012194
:1008E00000F08AF8601CC4B2102CF2DB03E0681C34
:1008F000C5B24D45CDDB00BFBDE8F08765210008DE
:100900002DE9FC4106460F4615461C460020009086
:100910000190042C0CDD42F2107095FBF0F00A21DE
:1009200090FBF1F201FB12003030C0B28DF80000F4
:10093000032C0CDD4FF47A7095FBF0F00A2190FB4C
:10094000F1F201FB12003030C0B28DF80100022C30
:100950000BDD642095FBF0F00A2190FBF1F201FB26
:1009600012003030C0B28DF80200012C0BDD0A20DD
:1009700095FBF0F00A2190FBF1F201FB1200303000
:10098000C0B28DF80300002C08DD0A2095FBF0F1C1
:1009900000FB11503030C0B28DF80400C4F10500E6
:1009A000694642183946304600F002F8BDE8FC813D
:1009B0002DE9F04106460F461446002517E0207841
:1009C00080280ADA227806EBC501C8B23946FFF75B
:1009D00057FF641C681CC5B209E0227806EBC5010C
:1009E000C8B23946FFF718FFA41CA81CC5B220786E
:1009F0000028E4D1BDE8F08170B504460D461DB174
:100A0000E0B200F0A9F802E0E0B200F08FF870BDAB
:100A10007047000010B5022000F062FF40B10220D4
:100A200000F054F903A0FFF747FC022000F04AFF52
:100A300010BD00007274635F6C65645F626C696E08
:100A40006B205B6F6B5D200D0A00000070477047E4
:100A50001848006840F4700016490860164800689D
:100A600020F00100401C1449086000BF12480068D3
:100A7000C0F340000028F9D00F48406820F0030080
:100A80000D49486000BF0C484068C0F38100002851
:100A9000F9D1094800680949084007490860002061
:100AA000486008634FF41F008860C803014980391B
:100AB0000860704788ED00E000100240FFFFF2FE82
:100AC00000BFFEE72DE9F04105462C4620211648DF
:100AD00000F08EFB002622E0274607F08007802FDB
:100AE00004D14021104800F085FB03E040210E486E
:100AF00000F07EFB6006040E032000F037FB20218F
:100B0000094800F077FB032000F030FB2021064865
:100B100000F06EFB032000F029FB701CC6B2082E0B
:100B2000DADBBDE8F08100000008014010B50446A2
:100B3000FFF7D0FD7820FFF7C5FFFFF705FE002087
:100B4000FFF7C0FFFFF700FE2046FFF7BBFFFFF7F0
:100B5000FBFDFFF7DFFD10BD10B50446FFF7BAFD42
:100B60007820FFF7AFFFFFF7EFFD4020FFF7AAFF68
:100B7000FFF7EAFD2046FFF7A5FFFFF7E5FDFFF7CA
:100B8000C9FD10BD30380A2801D20120704700206D
:100B9000704700BF70471CB5022000F093FE00F0C4
:100BA000E9FF00221146032000F0B2FC01210220DF
:100BB00000F0E8FE00F0DEFF4FF4FD60ADF800004D
:100BC00003208DF8020006208DF8030013208DF815
:100BD000040028208DF805000F208DF806006846D7
:100BE00000F0B0FD1CBD10B500F0A4FA002000F02C
:100BF00031F8012000F02EF8022000F02BF8002040
:100C000000F050F8012000F04DF8022000F04AF802
:100C100000F002F810BD00001CB501210B4800F0E7
:100C2000C3F9684600F0E8FA01208DF807000020BB
:100C30008DF804008DF806000120009028208DF822
:100C400005006946024800F0E2FA1CBD02001800E7
:100C5000000801401CB504460F4951F82400012149
:100C600000F0A2F9684600F0C7FA01208DF80700ED
:100C700000208DF8040010208DF80600074830F899
:100C80001400009004208DF80500054951F8240057
:100C9000694600F0BCFA1CBD3C0000203400002076
:100CA00028000020022800DD7047064931F81010A6
:100CB00031B1044931F81010034A52F82020116173
:100CC00000BFF1E73400002028000020022800DDEA
:100CD0007047094931F8101059B1084951F82010EE
:100CE000C968054A32F810205140044A52F82020C1
:100CF000D16000BFECE70000340000202800002095
:100D0000014602480844B0F8000C704700600040FB
:100D1000024A0244C2F8001C704700000060004014
:100D200010B5012000F036F8002000F033F810BDB7
:100D30000349496860F30711014A51607047000098
:100D4000001002400349496860F30A21014A5160DA
:100D500070470000001002400349496860F3CD214C
:100D6000014A51607047000000100240012807D17D
:100D70000749496D21F030013031054A516505E0E0
:100D80000349496D21F03001014A51657047000067
:100D9000001002400349096A60F31041014A1162E0
:100DA0007047000000100240052827D2DFE800F05D
:100DB000030A11181F00134A126861F30002114B55
:100DC0001A601CE00F4A126861F310420D4B1A6062
:100DD00015E00C4A126861F318620A4B1A600EE0C3
:100DE000084A126A61F30002064B1A6207E0054ADC
:100DF000526A61F30002034B5A6200E000BF00BF79
:100E000070470000001002402DE9F0410146002724
:100E10000022002590460023002400F083F90646B6
:100E200026B1012E12D0022E43D112E03948406D76
:100E3000C0F3402038B13748006BC0F3406010B1B8
:100E40003548086001E03548086035E033480860FF
:100E500032E030484068C0F300482E484068C0F394
:100E600083422C484068C0F341750DB90F2A03D165
:100E70002801401C024400E0921CB8F1000F03D18D
:100E800027485043086013E022484068C0F34040C0
:100E900058B12048406DC0F30137B81CDFF87CC062
:100EA000BCFBF0F05043086002E01C48504308606F
:100EB00002E01A48086000BF00BF16484068C0F34F
:100EC00003131848C45C0868E04048601148406853
:100ED000C0F302231448C45C4868E040C8600D4871
:100EE0004068C0F3C2231148C45C4868E040886091
:100EF00008484068C0F3007306484068C0F381307A
:100F000040EA83030A48C45C8868B0FBF4F00861D7
:100F1000BDE8F08100100240006CDC0200127A0093
:100F200000093D00B3270008C3270008CB270008AD
:100F3000D327000810B501460020094B03EB1142EE
:100F4000126801F01F040123A3401A4001F01F049E
:100F50000123A3409A4200D000E0012010BD000010
:100F6000001002400349496D60F30D31014A51659B
:100F7000704700000010024030B50024002500E05A
:100F8000641C1120FFF7D6FF012802D0B4F5405FA2
:100F9000F6D31120FFF7CEFF012801D0002500E095
:100FA0000125284630BD000010B501290DD10E4B9A
:100FB00003EB1042126800F01F040123A3401A4300
:100FC000094C04EB10431A600CE0074B03EB104292
:100FD000126800F01F040123A3409A43024C04EB63
:100FE00010431A6010BD00000010024010B568B92F
:100FF0001C4B5B6823F480331A4C636023461B6BE5
:1010000023F0007303F10073236317E0154B5B6853
:1010100023F4803303F58033124C6360012805D13B
:1010200023465B6823F40033636007E00D4B5B6885
:1010300023F4003303F500330A4C6360094B5B680B
:1010400061F39543074C63600C09064B5B6864F3DE
:101050005E73044C636023465B6862F3DF73636016
:1010600010BD0000001002401348006820F001008D
:10107000401C1149086000BF0F480068C0F34000E1
:101080000028F9D00C48406820F003000A49486065
:1010900000BF09484068C0F381000028F9D1064824
:1010A0000068064908400449086000204860086359
:1010B0004FF41F008860704700100240FFFFF2FEEF
:1010C0000349096A60F3CF31014A11627047000099
:1010D000001002400349096A60F30921014A1162C4
:1010E00070470000001002400D49496860F301019B
:1010F0000B4A516000BF00BF00BF00BF00BF00BF70
:1011000000BF00BF00BF00BF00BF00BF00BF00BFE7
:1011100000BF00BF00BF00BF00BF00BF704700009E
:101120000010024002484068C0F381007047000090
:101130000010024010B5042000F020FE07480068AF
:101140000749B0FBF1F007490860084600684FF412
:101150007A7148430449086010BD0000E40400208F
:1011600040420F00480000204C00002001460020B3
:10117000114A12684A434FF0E0235A6100229A61F3
:101180001A46126942F001021A6100BF4FF0E022D4
:10119000106900F001021AB100F48032002AF5D083
:1011A0004FF0E022126922F001024FF0E0231A61B1
:1011B00000229A61704700004800002070B5044684
:1011C0000D4600BF8021094800F02BFE0028F9D011
:1011D000A1B2064800F01CFE00BF4021034800F009
:1011E00020FE0028F9D0204670BD000000380140E4
:1011F00041617047016170474FF6FF710160002146
:1012000081710171042141710121C1717047F0B5F3
:101210000A461588ABB29579032D01D100241AE056
:10122000957965B9557905F00F045579182D01D1D7
:10123000036110E05579282D0DD143610BE09579BC
:1012400005F00805167906F004063543D67906F050
:10125000030645EA0604DDB2A5B1002110E0012530
:101260008D401D405DB105688F000F26BE40B5431F
:10127000056005688E0004FA06F635430560491CD2
:101280000829ECD3FF2B15DD1B12002110E00125EE
:101290008D401D405DB145688F000F26BE40B543AF
:1012A000456045688E0004FA06F635434560491CE2
:1012B0000829ECD3F0BD0146CA1701EB92729210D7
:1012C000A1EB820292B9642091FBF0F200FB1210B4
:1012D00050B94FF4C87091FBF0F200FB121008B93E
:1012E000012070470020FCE70120FAE70020F8E722
:1012F0000EB5032000F070F900F08CFCFFF773FCD2
:101300004FF4E13000F04EFD00F09CF94FF4FD6029
:10131000ADF8040003208DF8060006208DF80700C4
:1013200013208DF8080028208DF8090000208DF882
:101330000A0001A800F0E0FAFFF72DFC40A0FEF73C
:10134000BBFF43A0FEF7B8FF47A0FEF7B5FF51A0D3
:10135000FEF7B2FFFFF70DFA59A0FEF7ADFF00F060
:101360004FF96BE0012000F0BBFA002866D00120A5
:10137000FFF7ACFC00F016FB5948C378827801886F
:1013800058A0FEF799FF5648C079594951F82000F6
:101390000090534883794279017956A0FEF78CFF7B
:1013A0004F480288042302210020FFF7A9FA56A221
:1013B00002212020FFF7FCFA4948827802231946CF
:1013C0002820FFF79DFA50A202213820FFF7F0FAFB
:1013D0004348C278022319464020FFF791FA40485B
:1013E0000279022304210020FFF78AFA47A2042190
:1013F0001020FFF7DDFA3A48427902230421182031
:10140000FFF77EFA41A204212820FFF7D1FA3448E1
:101410008279022304213020FFF772FA3048C07924
:10142000334951F8202006212020FFF7C1FA00F0AF
:10143000A1FB012000F046FA00F09CFB92E70000BF
:10144000696E697469616C206F6B0D0A00000000A1
:1014500048617264776172655F496E6974205B6F81
:101460006B5D200D0A00000061745F73746172741B
:101470005F613430336120626F6172642074657320
:1014800074696E6720323032342D30332D30360D92
:101490000A00000061745F73746172745F613430BC
:1014A000336120626F617264206D6F64756C6520BA
:1014B000736F6674696963206F6C6564200D0A0040
:1014C0007274635F6F6C65645F6578616D706C6585
:1014D0005F74657374205B6F6B5D200D0A00000004
:1014E0001C00002025642F25642F256420000000A7
:1014F00000000020253032643A253032643A25302D
:1015000032642025730D0A002D0000003A0000000F
:101510002DE9F0470B4614464FF0000C00BF2C4A53
:101520001268C2F302211D4626460A46C2F1070987
:10153000B9F1040F02D94FF0040901E0C2F1070923
:10154000C84602F10409B9F1070F02D24FF00009B1
:1015500001E0A2F103094F464FF0010909FA08F929
:10156000A9F1010909EA050909FA07F94FF0010A89
:101570000AFA07FAAAF1010A0AEA060A49EA0A0976
:10158000CC4601466246002904DB15072E0E114D9C
:101590006E5407E015072F0E0D4D0C3501F00F06A8
:1015A000361FAF5500BF014600290DDB00BF00BF4D
:1015B00001F01F050122AA404D09AD0005F1E0250B
:1015C000C5F8002100BF00BF00BFBDE8F0870000E4
:1015D0000CED00E000E400E000BF00F00702064B65
:1015E00019684FF6FF031940044B0B4343EA0221ED
:1015F000014B196000BF70470CED00E00000FA05D8
:1016000010B50D2200210846FFF706F90E22002131
:101610001020FFF701F90F2200212020FFF7FCF82E
:10162000102200213020FFF7F7F81122002140207E
:10163000FFF7F2F802A200216020FFF7B9F910BD10
:101640005254430010B5FFF7B3F80021AE20FFF766
:10165000D3F900210846FFF7CFF900211020FFF74A
:10166000CBF900214020FFF7C7F90021B020FFF798
:10167000C3F900218120FFF7BFF90021FF20FFF708
:10168000BBF90021A120FFF7B7F90021A620FFF741
:10169000B3F90021A820FFF7AFF900213F20FFF7A1
:1016A000ABF90021C820FFF7A7F90021D320FFF7ED
:1016B000A3F900210846FFF79FF90021D520FFF785
:1016C0009BF900218020FFF797F90021D820FFF730
:1016D00093F900210520FFF78FF90021D920FFF7AA
:1016E0008BF90021F120FFF787F90021DA20FFF7BD
:1016F00083F900211220FFF77FF90021DB20FFF79B
:101700007BF900213020FFF777F900218D20FFF7CA
:1017100073F900211420FFF76FF90021AF20FFF7C4
:101720006BF9FFF726F800210846FFF761F810BDB6
:101730000349096860F30821014A116070470000FD
:101740000070004070B504460025208840F2B27158
:10175000884204DB208840F63301884201DD012005
:1017600070BD40F2B2760AE03046FFF7A4FD10B13A
:101770002648054401E026480544701C86B22088AE
:10178000B042F1DCA078401EA070002611E0214894
:10179000805D40F2A32110FB01F005EBC01520880D
:1017A000FFF789FD18B1012E01D11B480544701CBB
:1017B00086B2A078B042EADCE078401EC0B240F2C7
:1017C000A32110FB01F005EBC0152079C0EB4011FF
:1017D000C1EB002005EB00156079C0EB001005EBB4
:1017E0008005A079054401214FF01C10FFF7DCFBB8
:1017F00001210A48FFF7D8FB0120FFF799FF28468F
:1018000000F00EF800F0B6F90020A9E70085E2012B
:101810008033E101DC1E0008805101001B001C0028
:101820003F210A4A1160020C08491C31096862F321
:101830000F01064A1C321160111D096860F30F0187
:10184000121D11600F21014A1160704704280040E9
:10185000002003490868091D096841EA00407047F3
:10186000182800403F210A4A1160020C084914312F
:10187000096862F30F01064A14321160111D0968EC
:1018800060F30F01121D11600F21014A11607047B2
:10189000042800403F210A4A1160020C0849091D32
:1018A000096862F30301064A121D1160111D0968DF
:1018B00060F30F01121D11600F21014A1160704782
:1018C0000428004040F01001C943044A1268C2F3E2
:1018D000001241EA0211014A1160704704280040D9
:1018E00001460020034A12680A400AB1012000E0C4
:1018F000002070470428004010B5044601214FF035
:101900001C10FFF751FB01211C48FFF74DFB012084
:10191000FFF70EFF0420FFF7F3F941F2342188426C
:1019200025D0FFF7FDF901210320FFF73DFA00BFA5
:101930001348FFF7FFFA0028FAD00120FFF7CAFB8F
:101940000120FFF7BDFB00F01FF900F013F947F687
:10195000FF70FFF79FFF00F00DF9204600F09EF8A2
:1019600041F234210420FFF7D3F9012010BD00F02B
:101970000BF900F0FFF80020F8E700001B001C0046
:101980000100200029B9064A12688243044B1A60FC
:1019900004E0034A12680243014B1A6070470000DA
:1019A0000028004070B5002600240025FFF750FFF6
:1019B00006463648B6FBF0F435480088A04239D0D8
:1019C00033490C8040F2B2750EE0A8B2FFF773FC09
:1019D00038B1B4F5B77F02D3A4F5B77403E06D1C3A
:1019E00005E0A4F26D146D1CB4F5B67FEDD800BF10
:1019F00028490D80002515E026490888FFF75BFC83
:101A000030B1012D04D11D2C01D31D3C09E00BE0A8
:101A10002148405DA04203D81F48405D241A00E0E1
:101A200002E06D1C1C2CE7D200BF681C19498870AD
:101A3000601CC8701548B6FBF0F100FB11644FF450
:101A40006160B4FBF0F0134908714FF46160B4FBBE
:101A5000F0F100FB11403C21B0FBF1F00D49487161
:101A60004FF46160B4FBF0F100FB11403C21B0FB8E
:101A7000F1F201FB1200074988710B46DA78997878
:101A8000188800F08BF80349C87170BD80510100BF
:101A9000240000201C000020DC1E000870B5044655
:101AA0000025208840F2B271884204DB208840F68D
:101AB0003301884201DD012070BD40F2B27609E0B9
:101AC000B0B2FFF7F8FB10B12548054401E0254806
:101AD0000544761C2088B042F2D8A078401EA07041
:101AE000002610E02048805D40F2A32110FB01F0A9
:101AF00005EBC0152088FFF7DEFB18B1012E01D1E0
:101B00001A480544761CA078B042EBD8E078401E15
:101B1000C0B240F2A32110FB01F005EBC015207903
:101B2000C0EB4011C1EB002005EB00156079C0EB64
:101B3000001005EB8005A079054401214FF01C1031
:101B4000FFF732FA01210A48FFF72EFA0120FFF7CA
:101B5000EFFD2846FFF786FE00F00CF80020ABE70B
:101B60000085E2018033E101DC1E000880510100A4
:101B70001B001C0000BF03480068C0F34010002891
:101B8000F9D070470428004000BF03480068C0F344
:101B9000C0000028F9D0704704280040F0B5034683
:101BA0000C461546642093FBF0F0C6B2642093FB0C
:101BB000F0F700FB1730C1B2132E02DD01F1640013
:101BC000C1B20846CF1701EB977701EBA707BAB26E
:101BD000072092FBF0F700FB172082B25719601E16
:101BE000DFF82CC01CF80000384482B2CF1701EB9C
:101BF0009777BF10A1EB87071FB9032C01DA501E9E
:101C000082B2072092FBF0F700FB1720C0B2F0BDB4
:101C1000D01E000810B5FFF727FA01210846FFF78C
:101C2000C3F800BFFFF7A8F90028FBD0012231213B
:101C30000220FFF7DBF90020FFF794F901210220D1
:101C4000FFF7B2F800BF1920FFF774F90128FAD1A5
:101C50000020FFF76DF80420FFF77EF80420FFF75F
:101C600071F80120FFF782F80220FFF73DFA00BF6C
:101C7000FFF758FA0228FBD10020FFF777F800F0B1
:101C800001F810BD2DE9F0470026002400250027AB
:101C9000A046A146FFF746FA8246BAF1000F06D0E9
:101CA000BAF1010F15D0BAF1020F46D115E02D4857
:101CB000406DC0F3402040B12A48006BC0F3406043
:101CC00018B129482949086002E0294827490860D5
:101CD00037E027482549086033E022484068C0F3D0
:101CE000004720484068C0F383441E484068C0F362
:101CF00041750DB90F2C03D12801401C044400E0AC
:101D0000A41C27B91B4860431849086014E0154813
:101D10004068C0F3404058B11248406DC0F30136EE
:101D2000B01C1349B1FBF0F060431049086003E0B8
:101D30000F4860430D49086003E00D480B490860F7
:101D400000BF00BF07484068C0F303180A4810F8F6
:101D500008900648006820FA09F004490860BDE8C8
:101D6000F087000000100240006CDC02E404002058
:101D700000127A0000093D00A3270008042808D1BA
:101D80004FF0E021096941F004014FF0E0221161B8
:101D900007E04FF0E021096921F004014FF0E02253
:101DA000116170471CB5044601211648FFF7FCF885
:101DB000012114480C38FFF7F7F86846FFF71CFAC2
:101DC00001208DF8070000208DF8040008208DF810
:101DD00006008001009004208DF8050069460A483D
:101DE000FFF715FA00231A462146084800F022F8AA
:101DF0000121064800F062F80121044800F00CF8C7
:101E00001CBD00000E001800000801400038014011
:101E1000C1F3080242607047C26861F34D32C2608C
:101E2000704702461068084008B101207047002042
:101E3000FCE700002DE9F04385B004460F469046CC
:101E400099466846FEF7E0FF1848844208D01848D3
:101E5000844205D01748844202D01748844201D1F9
:101E6000029E00E0039E06EB86004000B0FBF7F503
:101E70000A20B5FBF0F100FB1150052803D20A201F
:101E8000B5FBF0F503E00A20B5FBF0F0451CA068B7
:101E900065F30F00A060E06868F30C30E060206933
:101EA00069F30D30206105B0BDE8F08300380140D2
:101EB000006001400064014000680140C26861F3B5
:101EC000C302C26070474FF04070E1EE100A7047E5
:101ED0000003030601040602050003051F1C1F1E64
:101EE0001F1E1F1F1E1F1E1F2000000000000021BC
:101EF0000000002F0000220000070007002300144C
:101F00007F147F142400242A7F2A1225006264088B
:101F100013232600364955225027000005030000F0
:101F20002800001C22410029000041221C002A0038
:101F300014083E08142B0008083E08082C00000076
:101F4000A060002D0008080808082E00006060004E
:101F5000002F00201008040230003E5149453E3158
:101F60000000427F40003200426151494633002167
:101F700041454B3134001814127F10350027454578
:101F8000453936003C4A494930370001710905039B
:101F9000380036494949363900064949291E3A0070
:101FA00000363600003B0000563600003C000814A6
:101FB0002241003D0014141414143E000041221468
:101FC000083F0002015109064000324959513E4183
:101FD000007C1211127C42007F4949493643003E81
:101FE0004141412244007F4141221C45007F494933
:101FF000494146007F0909090147003E4149497AA4
:1020000048007F0808087F490000417F41004A00DE
:102010002040413F014B007F081422414C007F408B
:102020004040404D007F020C027F4E007F040810AC
:102030007F4F003E4141413E50007F090909065152
:10204000003E4151215E52007F0919294653004646
:1020500049494931540001017F010155003F404089
:10206000403F56001F2040201F57003F4038403F50
:1020700058006314081463590007087008075A00D1
:1020800061514945435B00007F4141005D000041D3
:10209000417F005E0004020102045F0040404040B6
:1020A0004060000001020400610020545454786232
:1020B000007F484444386300384444442064003876
:1020C0004444487F650038545454186600087E091B
:1020D0000102670018A4A4A47C68007F08040478A7
:1020E000690000447D40006A004080847D006B00F0
:1020F0007F102844006C0000417F40006D007C048C
:102100001804786E007C080404786F003844444456
:10211000387000FC24242418710018242418FC7240
:10212000007C0804040873004854545420740004CC
:102130003F44402075003C4040207C76001C2040FD
:10214000201C77003C4030403C7800442810284454
:1021500079001CA0A0A07C7A004464544C447C14F8
:1021600014141414142000000000000000000000EB
:1021700000000000000021000000F8000000000046
:10218000000033300000002200100C06100C060086
:1021900000000000000000002340C07840C07840EC
:1021A00000043F04043F04040024007088FC08304D
:1021B0000000001820FF211E000025F008F000E0BC
:1021C00018000000211C031E211E002600F00888B4
:1021D000700000001E212324192721102710160E3D
:1021E00000000000000000000000000000280000C7
:1021F00000E0180402000000000718204000290039
:10220000020418E000000000402018070000002A27
:10221000404080F0804040000202010F01020200B5
:102220002B000000F0000000000101011F0101016E
:10223000002C000000000000000080B070000000D2
:1022400000002D000000000000000000010101015D
:102250000101012E000000000000000000303000ED
:10226000000000002F0000000080601804006018CB
:1022700006010000003000E010080810E000000F28
:10228000102020100F0031001010F8000000000096
:1022900020203F20200000320070080808887000CD
:1022A000003028242221300033003008888848304C
:1022B000000018202020110E00340000C02010F86B
:1022C000000000070424243F24003500F808888813
:1022D0000808000019212020110E003600E01088A7
:1022E00088180000000F112020110E003700380858
:1022F00008C83808000000003F00000000380070E7
:10230000880808887000001C222121221C00390046
:10231000E010080810E0000000312222110F003AFE
:10232000000000C0C00000000000003030000000CD
:102330003B00000080000000000000806000000002
:10234000003C00008040201008000001020408103A
:1023500020003D404040404040400004040404044C
:102360000404003E000810204080000000201008F7
:10237000040201003F007048080808F00000000057
:10238000303601000040C030C828E810E0000718CF
:10239000272423140B00410000C038E00000002077
:1023A0003C2302022738204208F888888870000001
:1023B000203F202020110E0043C0300808080838B4
:1023C0000007182020201008004408F8080808100A
:1023D000E000203F202020100F004508F88888E802
:1023E000081000203F2020232018004608F8888885
:1023F000E8081000203F20000300000047C030081C
:10240000080838000007182020221E02004808F89B
:1024100008000008F808203F210101213F20490061
:102420000808F8080800000020203F202000004A8B
:1024300000000808F8080800C08080807F000000C5
:102440004B08F888C028180800203F2001263820B3
:10245000004C08F8080000000000203F2020202049
:1024600030004D08F8F800F8F80800203F003F0061
:102470003F20004E08F830C00008F808203F200038
:1024800007183F004FE01008080810E0000F102068
:102490002020100F005008F808080808F000203F1E
:1024A00021010101000051E01008080810E0000FB0
:1024B00018242438504F005208F888888888700003
:1024C000203F2000030C3020530070880808083893
:1024D000000038202121221C0054180808F80808A0
:1024E00018000000203F200000005508F8080000F8
:1024F00008F808001F202020201F005608788800B8
:1025000000C83808000007380E01000057F808001E
:10251000F80008F800033C0700073C0300580818BF
:1025200068808068180820302C03032C302059085C
:1025300038C800C83808000000203F200000005ABA
:1025400010080808C8380800203826212020180064
:102550005B000000FE020202000000007F404040DD
:10256000005D00020202FE000000004040407F00CB
:1025700000005E00000402020204000000000000EF
:102580000000005F000000000000000080808080EC
:1025900080808080600002020400000000000000D3
:1025A00000000000006100008080808000000019B1
:1025B000242222223F206208F800808000000000D0
:1025C0003F112020110E0063000000808080000079
:1025D000000E11202020110064000000808088F887
:1025E00000000E112020103F2065000080808080B8
:1025F0000000001F22222222130066008080F08843
:102600008888180020203F2020000067000080807C
:1026100080808000006B9494949360006808F800B8
:102620008080800000203F210000203F2069008042
:102630009898000000000020203F202000006A0041
:102640000000809898000000C08080807F00006BB0
:1026500008F8000080808000203F24022D302000F8
:102660006C000808F8000000000020203F20200037
:10267000006D8080808080808000203F20003F208F
:10268000003F6E8080008080800000203F2100009D
:10269000203F206F0000808080800000001F2020ED
:1026A00020201F0070808000808000000080FFA13B
:1026B0002020110E00710000008080808000000E3C
:1026C000112020A0FF807280808000808080002008
:1026D000203F212000010073000080808080800066
:1026E000003324242424190074008080E0808000BA
:1026F000000000001F202000007580800000008086
:102700008000001F202020103F2076808080000065
:1027100080808000010E30080601007780800080F4
:10272000008080800F300C030C300F007800808018
:1027300000808080000020312E0E312000798080C2
:1027400080000080808080818E70180601007A00F1
:10275000808080808080000021302C222130007B0E
:1027600000000000807C020200000000003F4040AA
:102770007C00000000FF00000000000000FF0000DF
:10278000007D0002027C800000000040403F00000D
:1027900000007E00060101020204040000000000A7
:1027A0000000000000000000000000010203040619
:1027B00007080900000000000000000102030406F1
:1027C00007080900000000010203040000000001E6
:1027D00002030402040608020C08100400000800AA
:1027E0000000000000000200010000104672696451
:1027F000617900004D6F6E646179000053756E64FD
:1028000061790000536174757264617900000000A1
:102810005765646E65736461790000005475657373
:102820006461790054687572736461790000000016
:102830005028000800000020E8040000C001000843
:10284000882A0008E8040020600600001C02000836
:1028500013FC271B08F404131C281B0810041A245B
:10286000041AEC101A0408D17C140140041220123E
:1028700040228012057A1804C152011BF010012A6F
:10288000FF050215F01B0F04012AFF0502130F18A4
:10289000094040405F55555575041A5F0C091121D8
:1028A000080C11200F094989790909090F201F1106
:1028B0002FFE02424ACA4A0304134202FE000E14CB
:1028C000FF40504C4340404F50505C40FF1BF88845
:1028D000012AFF050215F81B1F08012A7F200B1093
:1028E0009F80E23B808201000916E2A2928A8682E2
:1028F0008080041840807F0810102020242424A405
:10290000242420FF20222C20203B080E10C07E40D3
:10291000403F222220030C102040A2000E13106022
:10292000020CC0021EE2020202E21E080E110404A2
:102930007C0380804020130C132040A01A04011E49
:102940001F042444840619010910602308062B3F44
:1029500040010D127001020C80128C080B11FE0256
:10296000F2525A565252F20260080D107E41300F58
:10297000201349817F010913E0613AFF610213408E
:1029800049194A7F070911221980080B100CC01041
:1029900008F714549414F4BF1980137C03000B112E
:1029A000011D13115599513F11011780FC96E584C3
:1029B000FC00081208C8494AC80808200A807F029B
:1029C0004C807F80601F0D113F40407860180804E4
:1029D000041F042444840619010910A03B08063A88
:1029E000190105127001020C080E10C2BA8282FE93
:1029F000A290FC4B48F94A48812720100846817F65
:102A0000000811FF22223F222220001011403C101A
:102A1000FF1010404848487F48C848401702060247
:102A2000FF0101000912020A1242827F02022A10EB
:102A300001194319010214F01780402018060106FD
:102A400013204080403F172424A4FEA3221B22CC45
:102A5000A3011415080601FF2B0104010B11FF024D
:102A600080397D1F9008888888FF040211080010B3
:102A7000190444827F01808040432C1028468180C5
:082A800019E42113127A000091
:040000050800018569
:00000001FF
