:020000040800F2
:10000000900B0020E1020008DD18000865160008CA
:10001000D918000845160008611F000800000000FC
:10002000000000000000000000000000A91C000803
:1000300049160008000000002F1C0008211D0008C0
:10004000FB020008FB020008FB020008FB0200089C
:10005000FB020008FB020008FB020008FB0200088C
:10006000FB020008FB020008FB020008FB0200087C
:10007000FB020008FB020008FB020008FB0200086C
:10008000FB020008FB020008FB020008FB0200085C
:10009000FB020008FB020008FB020008FB0200084C
:1000A000FB020008FB020008FB020008FB0200083C
:1000B000FB020008FB020008FB020008FB0200082C
:1000C000FB020008FB020008FB020008FB0200081C
:1000D000FB020008D91D0008751E0008FB0200087D
:1000E000FB020008FB020008FB020008FB020008FC
:1000F000FB020008FB0200080000000000000000F6
:10010000000000000000000000000000FB020008EA
:10011000FB020008FB020008FB020008FB020008CB
:10012000FB020008FB020008FB020008FB020008BB
:10013000FB0200080000000000000000FB020008B5
:10014000FB020008FB020008FB020008FB0200089B
:10015000FB020008FB02000800000000FB02000890
:10016000FB020008FB020008000000000000000085
:10017000000000000000000000000000000000007F
:1001800000000000FB020008FB020008FB02000860
:10019000000000000000000000000000000000005F
:1001A000000000000000000000000000000000004F
:1001B0000000000000000000FB020008000000003A
:1001C000000000000000000000000000000000002F
:1001D000000000000000000000000000FB0200081A
:1001E00000F002F800F06DF80AA090E8000C8244DC
:1001F0008344AAF10107DA4501D100F062F8AFF2B9
:10020000090EBAE80F0013F0010F18BFFB1A43F0F4
:1002100001031847E84100000842000010F8013BC4
:100220000A4413F0030408BF10F8014B1D1108BF66
:1002300010F8015B641E05D010F8016B641E01F814
:10024000016BF9D1002D15D010F8014B03F00C0310
:100250000C2BA1EB04040ABF10F8013BA4EB8314A0
:10026000A4EB032405F1010314F8016B5B1E01F8F4
:10027000016BF9D5914238BF10F8013BD1D37047DB
:100280000023002400250026103A28BF78C1FBD89F
:10029000520728BF30C148BF0B607047662903F082
:1002A000E483002070471FB503F0D5FB00F068FB26
:1002B00004000020002102F019FFE0601FBD10B50E
:1002C00010BD00F079FC1146FFF7EDFF02F00CFBCA
:1002D00000F097FC03B4FFF7F2FF03BC01F0C1FE8E
:1002E0000948804709480047FEE7FEE7FEE7FEE7CA
:1002F000FEE7FEE7FEE7FEE7FEE7FEE70448054906
:10030000054A064B70470000251D0008E101000862
:1003100090050020900B00209007002090070020FF
:10032000704753EA020C00F069802DE9F04B4FF062
:100330000006002B1FBFB3FA83F503FA05F424FA75
:1003400005F65E4012BF1643B2FA82F502FA05F4D2
:10035000C5F120051EBF22FA05FC44EA0C04203535
:1003600056EA044C4FEA144418BF641C4FF00008CE
:100370004FF00009904271EB030C39D3002919BFEB
:10038000B1FA81F701FA07F6B0FA80F700FA07F63A
:10039000C7F120071EBF20FA07FC46EA0C062037EB
:1003A000B6FBF4FCA7EB0507103F07F01F0BCBF1E2
:1003B00020060CFA0BFB2CFA06F644BFB3460026C7
:1003C000202FA4BF5E464FF0000B5BEA060C08BF6F
:1003D0004FF0010B19EB0B09ABFB027C48EB060855
:1003E000C01B06FB02CC0BFB03CC71EB0C01C1E77D
:1003F0000B46024641464846BDE8F08B13B54FF028
:1004000000004FF00001AFF30080BDE81C407047D2
:100410000FB4044910B503AA029800F09FFA10BC6B
:100420005DF814FB280000202DE9F0474FF0000A8A
:1004300089460446C0F820A02046E1688847002885
:1004400076D0252806D0D4E901219047206A401CA7
:100450002062F1E7E168204600258847C4F81CA027
:1004600006460027C4F818A02A2E09D0304601F00D
:10047000F1FD38B304EB8708303EC8F8186019E086
:1004800059F8041B204604EB87029161E168884714
:10049000012F064618D1E069002820DA25F0200552
:1004A0001DE0D8F8180000EB800006EB4000303863
:1004B000C8F818002046E1688847064601F0CAFDE2
:1004C0000028EED1012F0AD02E2E08D12046E16857
:1004D00088477F1C0646022F45F02005C4DBA06933
:1004E000002803DA404245F00105A061E80701D089
:1004F00025F01005B6B1A6F14100192802D8203622
:1005000045F400654A463146204625604D46FFF7D2
:10051000C5FE58B1012806D0ED1D25F0070000F1F9
:10052000080989E704E005F1040985E730468AE710
:10053000206ABDE8F0877047704770477047704782
:100540002DE9FF4F0C461E464FF0FF378BB0D2E926
:100550000001DDF860800A908A46C1F30A5505B9AA
:100560003D46002108464FF00000BAF1000F00F4AC
:10057000400005DA00EB80004FF4400101EA500032
:100580004FEA9059B9F1010F00DDB9460A9850EAD7
:100590004A000ED044F61050A5F2FF3545432F1403
:1005A000B8F1000F1ED07542291E1EDDC9F10002F0
:1005B0001CE0B8F1010F4FF0000001D0302103E042
:1005C000F24305E02154401CB042FBDB30460022E0
:1005D000002121540B99C1F80880C1E900200FB017
:1005E000BDE8F08FBD1B6D1CDEE74A4600DA6942AC
:1005F00006A800F067FA06AB93E8070003AB83E8B0
:10060000070050460A9900F045FB8DE80700A0F569
:1006100000501F3800900398002D0ADD42F21F01A0
:100620004A460844002303A90390684600F0AEFD43
:1006300009E0A0F500504A461F38002303A90390A3
:10064000684600F0B8FD8DE807000004000C03D0F8
:100650004FF0FF30410800E01046B8F1000F03D022
:100660000022009215461EE0751E05D400F08CF99C
:10067000303262556D1EF9D5B3460122084302D0CF
:1006800000227F1C04E02078302801D100227F1E48
:10069000002A099784D01DE0112D07DA00F074F9C3
:1006A000303262556D1C50EA0102F5D1084302D088
:1006B0000098C8B10EE00021681E05E0235C625C72
:1006C00063542254401E491C8142F7DBAB46A81BF1
:1006D000401E0990002004F80B000B98099AC0F8FE
:1006E0000880C0E9002B7AE711264FF0000857E791
:1006F0002DE9F04F88460446D21D22F0070191B043
:10070000D1E90001CDE90A0101F08CFC02460B9809
:10071000C00F01D02D2007E02068810701D52B20D4
:1007200002E0202101EAC000032A099001D0072A33
:1007300005DB03464146204600F084F90BE12078B2
:10074000800601D5E06900E00620B8F1650F81461A
:1007500006D0B8F1660F18D0B8F1670F70D131E04C
:100760000020B9F1110F009001DB112301E009F124
:1007700001030AAA01A90CA8FFF7E2FEDDE90C704B
:10078000002609F10105834647E001204B46009011
:100790004FF000470AAA01A90CA8FFF7D1FEDDE936
:1007A0000DB00C995D46002610B909F101000D1835
:1007B000B9EB050003D4C0F1FF3609F10105A5EB43
:1007C00009002BE0B9F1010F01DA4FF00109002017
:1007D000B9F1110F0090484601DD112300E00346F6
:1007E0000AAA01A90CA8FFF7ABFEDDE90C704D4683
:1007F00000268346207800070AD4AB4500DA5D4620
:1008000001A8012D04DD411911F8011C302907D080
:100810004F4502DA17F1040F04DA012082460FE097
:100820006D1EEEE7002F02DCED1B3E4403E0781C5A
:10083000A84200DD7D1CB81B00F1010A4FF0004703
:100840002078000703D4AA4501DB4FF0FF3A0021CE
:10085000B7F1004F0DF143088DF8431024D002206A
:100860002B23002F01DA7F422D230A21021EA0F143
:10087000010000DC5FB197FBF1FC97FBF1F201FB9B
:100880001C7C17460CF1300C08F801CDEEE7A8F1FE
:10089000010003702188090501D5452100E065218B
:1008A000A0F1010800F8011C09980FA9A1EB0807A5
:1008B000FF1D00B10120411901EBEA70A169384424
:1008C000081A401EA0612078C00602D42046AFF36B
:1008D0000080099828B1D4E901219047206A401C82
:1008E00020622078C00622D52046AFF300801EE0AB
:1008F000002E04DBB34502DD01A8805D00E030205E
:10090000D4E901219047206A401C2062761CAAF19C
:1009100001005FEA000A0AD100F032F8C0680168FD
:10092000405CD4E901219047206A401C2062281EC7
:10093000A5F10105DCDC07E0D4E9012118F8010B81
:100940009047206A401C2062381EA7F10107F3DCA3
:100950002046AFF30080032011B041E6074B70B58D
:100960000D467B4400F05BF80446284600F01CF975
:1009700010B14FF0FF3070BD204670BD371D000034
:10098000004870475005002030B5B0F10A024FEA28
:10099000900E71F100034EEA817EB0EB0E0061EB28
:1009A00091014FEA101E4EEA017E10EB0E0041EB62
:1009B00011114FEA102E4EEA016E10EB0E0041EBC2
:1009C00011214FEA104E4EEA014E10EB0E0041EBA2
:1009D0001141401841F100014FEAD00040EA417056
:1009E0004FEAD10110EB80054FEA810444EA90748C
:1009F00044EB01046D1944EB0404521BA3414FF076
:100A0000000348BF0A3200D530BD401C41F100014F
:100A100030BD000001694A1C02610878704700B5CA
:100A20008FB0CDE901310021059105497944CDE927
:100A3000031011466846FFF7F7FC0FB000BD000039
:100A4000E5FFFFFF2DE9F0411F460446032601683C
:100A5000072A01F4006004DB08B116A505E016A51D
:100A600003E008B115A500E015A521F010002060F5
:100A7000A069C01EA0610FB1401EA0612046AFF367
:100A800000804FB1D4E9012138469047206A401CCC
:100A90002062C01C206206E0206AFAE7D4E9012146
:100AA00015F8010B9047761EF8D22046AFF3008070
:100AB000BDE8F0814E414E006E616E00494E460029
:100AC000696E66002DE9F047814616468AB03548C2
:100AD00078440DC88DE80D0032487844801C03AC82
:100AE0000DC884E80D0041F69B300844372190FB87
:100AF000F1F290FBF1F5A5F1800501FB12041B3C1E
:100B000002D56442012000E00020DFF898A0804672
:100B10000027FA44AAF1BE0A0EE0E0070AD03246E6
:100B2000684607EB470101230AEB810100F043FB14
:100B30008DE8070064107F1C002CEED1194F7F4414
:100B4000AE3F19E0E80715D007EB04100DF1180AC5
:100B500090E80E008AE80E00C068F04201D19819B2
:100B600008903246012306A903A800F024FB03AB3A
:100B700083E807006D10641C002DE3D14FF00103E2
:100B800032466946B8F1000F03A802D000F0FEFA21
:100B900001E000F010FBC9E90001C9F808200AB023
:100BA000BDE8F08710390000007B00F0800070473E
:100BB00000487047300500207546FFF7F9FFAE4644
:100BC00005006946534620F00700854618B020B559
:100BD000FFF794FBBDE820404FF000064FF0000700
:100BE0004FF000084FF0000B21F00701AC46ACE8D5
:100BF000C009ACE8C009ACE8C009ACE8C0098D4642
:100C0000704710B50446AFF300802046BDE81040A1
:100C1000FFF760BB4FF0013C50F8042B51F8043B48
:100C20009A4221D1A2EB0C03934313EACC1317D1C0
:100C300050F8042B51F8043B9A4215D1A2EB0C0357
:100C4000934313EACC130BD150F8042B51F8043B17
:100C50009A4209D1A2EB0C03934313EACC13DBD0E5
:100C60004FF00000704700BFD01A01BAB1FA81F10D
:100C700001F0180122FA01F0CB40C1F12001DBB2F2
:100C8000C0B2C01A2CFA01F3D11A914311EAC31170
:100C9000E6D170475FEA400C08BF91F0000F4FEAC1
:100CA0008C234FEAC12243EA51514FEA1C5018BF2E
:100CB00000F5F0404FEA300018BF41F000415FEA14
:100CC0006C5C00F02980BCF1FF3F08BF40F0804021
:100CD0007047130C06BF12044FF0100C4FF0000CBD
:100CE000130E04BF12020CF1080C130F04BF120103
:100CF0000CF1040C930F04BF92000CF1020CD30F03
:100D000004BF52000CF1010C11464FF00002A0F19B
:100D10001F00A0EB0C00704711F0004F08BF704798
:100D200031F000413FF4D5AF0B0C06BF09044FF082
:100D3000100C4FF0000C0B0E04BF09020CF1080C54
:100D40000B0F04BF09010CF1040C8B0F04BF8900C9
:100D50000CF1020CCB0F04BF49000CF1010CCCF1DB
:100D60002003A0EB0C0022FA03F302FA0CF241EA92
:100D7000030100F10100704720F07F4C80EA03007E
:100D800023F07F47ACEB070303F57C5300F00040F2
:100D900003F1FF032DE980494FEA154B09B44FEAEF
:100DA000144325EA0B4E24EA03480FF2042606EB0F
:100DB000132749083E785FEA320203FB0667C7F54E
:100DC000000707FB06F64FEA54374FEAD64606F10E
:100DD000020607FB066CCCF1005C4FEA1C472CEACC
:100DE000074C07FB06F40CFB06F504EB15464FEA2F
:100DF000961634BF00204FF000404FEAD13706FB73
:100E000007FC4FEA1C4C0CFB0BF7D21B03FB0CF747
:100E100061EB07010CFB0EF7B0EB074072EB1742DA
:100E20000CFB08F734BFA2EB0742B2EB074261EBC1
:100E300017414FEA0C444FEA910706FB07FC4FEAC3
:100E40001C4C0CFB0BF7B0EBC74072EB573203FBAB
:100E50000CF734BFA2EBC742B2EBC74261EB57318C
:100E60000CFB0EF7B0EBC70072EB57720CFB08F7E8
:100E700034BFA2EBC702B2EBC70261EB5771039F0D
:100E80004FEA816141EA921104EBCC044FEAD13779
:100E90004FEA826206FB07FC42EA90124FEA80604A
:100EA0004FEA1C4C0CFB0BF7D21B03FB0CF761EB5E
:100EB00007010CFB0EF7B0EB074072EB17420CFB7F
:100EC00008F734BFA2EB0742B2EB074261EB1741D0
:100ED0004FEA8C554FEA910704EB9C2406FB07FC74
:100EE0004FEA1C4C0CFB0BF7B0EBC74072EB5732D0
:100EF00003FB0CF734BFA2EBC742B2EBC74261EB76
:100F000057310CFB0EF7B0EBC70072EB57720CFBBE
:100F100008F734BFA2EBC702B2EBC70261EB57710F
:100F200015EB4C254FEA816141EA92114FEA82624A
:100F30004FEAD13742EA901206FB07FC44F1000465
:100F40004FEA80604FEA1C4C0CFB0BF7D21B03FBF3
:100F50000CF761EB07010CFB0EF7B0EB074072EBEF
:100F600017420CFB08F734BFA2EB0742B2EB074273
:100F700061EB174115EB1C154FEA813141EA9241B3
:100F80004FEA823242EA90424FEA80304FEA0C76D2
:100F900044F1000448EA03434EEA0B484FF0000EC8
:100FA000B2EB080C71EB030724BF624639464EEBE7
:100FB0000E0E4FF0000B0018524149414BEB0B0B4A
:100FC000B2EB080C71EB03077BF1000B24BF624608
:100FD00039464EEB0E0E4FF0000B001852414941BE
:100FE0004BEB0B0BB2EB080C71EB03077BF1000B27
:100FF00024BF624639464EEB0E0E51EA020718BF77
:1010000046F0010616EB0E7655F1000254F1000190
:1010100003D5BDE88901BDE80088BDE88901BDE8C8
:101020000048B619524141EB0101A3F10103704799
:1010300080807F7E7D7C7B7A797877767675747315
:10104000727171706F6E6E6D6C6C6B6A6A696868D4
:10105000676666656464636362616160605F5F5E6A
:101060005E5D5D5C5C5B5B5A5A59595858575756E0
:101070005655555554545353525252515150505045
:101080004F4F4F4E4E4D4D4D4C4C4C4B4B4B4A4A97
:101090004A494949484848474747474646464545DB
:1010A0004544444444434343434242424241414114
:1010B000002B9C4630D477002BD01CB54FEA370765
:1010C00003B44FF010004FF01001BAF1000F06D03A
:1010D000BCF1000FDCBF40F0080040F008014FF009
:1010E00000000FBCBDE810400BF1010BBBF1010F7C
:1010F00008BF5FEA170722BF12F1010211F10101D7
:101100004FF0004143F1000300F0004043EA0000CB
:101110007047F9D35708D0E746EA064613F1400F67
:101120004FEA16461FDD13F1200FDFBF16430A46B4
:10113000002120335B42BED0C3F1200746EA0646B9
:1011400002FA07F74FEA164646EA0706C3F12007F8
:1011500022FA03F201FA07F721FA03F14FF0000334
:1011600042EA0702A7E746EA020646EA06464FEACF
:10117000164646EA0106BCBF46EA0646360C4FF064
:1011800000034FF000024FF0000194E72DE9804C7E
:101190009A46934670B491E8380007C831EA400C8B
:1011A00048BF34EA430C03D5FFF7E6FDFFF780FFA5
:1011B000F0BCBDE8008C2DE9804C9A46934670B493
:1011C00091E8380007C810F0804F08BF13F0804F37
:1011D00003D100F005F8FFF76BFFF0BCBDE8008C11
:1011E00020F07F4780EA030023F07F4C07EB0C03DD
:1011F000A3F57C5300F00040A3F1FE0392F0000F32
:1012000000F0B38095F0000F00F077802DE90149E0
:101210004FEA11404FEA144621EA004800FB06FC61
:1012200024EA064708FB06F607FB08F800FB07F769
:1012300018EB06484CEB164C4FEA124B18EB0748DC
:101240004FEA15464CEB174022EA0B4E0BFB06FC0F
:1012500025EA06470EFB06F607FB0EFE0BFB07F71B
:101260001EEB064E4CEB164C4FF000061EEB074EE5
:101270004CEB174B18EB0B0840F1000018EB0E0B72
:1012800058EB000840F100008F1A4FF000013CBFFE
:10129000C943661B14BFB5EB040C00213CBFC94316
:1012A000F61B4FEA17444EEA8E0E27EA04454FEA32
:1012B0001C4704FB07622CEA074C05FB07F70CFBF5
:1012C00005F604FB0CFC16EB074642EB174216EB47
:1012D0000C4642EB1C421BEB060658EB0202414156
:1012E00046EA9E0601D5BDE80189B619524141EB97
:1012F0000101A3F10103BDE801894FEA14454FEA5A
:10130000114724EA054621EA074C05FB07F406FBD2
:1013100007F70CFB06F105FB0CFC11EB074144EB56
:1013200017444FEA124711EB0C4144EB1C4422EAEC
:10133000074C05FB07F206FB07F70CFB06F605FB5F
:101340000CFC16EB074642EB174216EB0C4642EB41
:101350001C456A1854F1000148BF7047B619524144
:1013600041EB0101A3F10103704795F0000F37D065
:101370004FEA11424FEA144721EA024624EA074C99
:1013800002FB07F106FB07F70CFB06F402FB0CFC63
:1013900014EB074441EB17414FEA154714EB0C449B
:1013A00041EB1C4125EA074C02FB07F506FB07F75A
:1013B0000CFB06F602FB0CFC16EB074645EB17454B
:1013C00016EB0C4645EB1C42121951F1000148BFC7
:1013D0007047B619524141EB0101A3F10103704777
:1013E0004FEA14454FEA114724EA054621EA074C23
:1013F00005FB07F106FB07F70CFB06F24FF00006B2
:1014000005FB0CFC12EB074241EB174112EB0C42BF
:1014100051EB1C4148BF7047921841EB0101A3F109
:101420000103704710B500F0D3F9702000F03EFCC6
:1014300000F01AF9BA2000F039FC00F015F900F0BC
:101440000DFA10BD1CB50121144800F0DDFF6846FF
:1014500001F047F901208DF8070000208DF8040005
:101460004FF44060009069460D4801F044F9322085
:1014700001F0B2F800F0ACF9702000F017FCE120A8
:1014800000F014FC082000F011FC002000F00EFC1D
:1014900000F0E4F9322001F09FF81CBD0300300099
:1014A000000C024030B52DED088B83B000240020E5
:1014B00001900290002500F08BF9702000F0F6FBFF
:1014C00000F0D2F8AC2000F0F1FB00F0CDF83320B2
:1014D00000F0ECFB00F0C8F8002000F0E7FB00F0A3
:1014E000C3F800F0BBF900BF012001F075F8601CE3
:1014F000C4B200F06DF9712000F0D8FB00F0B4F830
:10150000012801D1052CEFDB00F092FB8DF80400DF
:10151000002000F0FDF800F08BFB8DF805000020A6
:1015200000F0F6F800F084FB8DF80600002000F0D3
:10153000EFF800F07DFB8DF80700002000F0E8F8E0
:1015400000F076FB8DF80800002000F0E1F800F0D4
:101550006FFB8DF80900012000F0DAF800F07EF949
:10156000142001F039F89DF8050000039DF80610DD
:1015700040EA01109DF8071040EA2115284601F0C5
:10158000FDFF41EC1A0B9FED250B53EC102B01F0E6
:101590009DFE41EC190B9FED230B53EC102B02F039
:1015A00001F841EC180B01F0B7FD20490860002557
:1015B0009DF807000007000B9DF8081040EA012085
:1015C0009DF8091040EA0105284601F0D7FF41ECDB
:1015D0001B0B9FED120B53EC102B01F077FE41EC2F
:1015E0001A0B9FED130B53EC102B01F0DBFF41ECBA
:1015F000190B9FED110B53EC102B02F0D1F841ECBD
:10160000180B01F089FD0E490860FFF70BFFFFF78B
:1016100019FF002003B0BDEC088B30BD00000000B6
:10162000000030410000000000005940C8040020C4
:101630000000000000006940000000000000494078
:10164000C404002000BFFEE770470000014890ED91
:10165000000A7047C8040020014890ED000A704756
:10166000C404002000BFFEE77CB500250A24002248
:101670004FF48061254801F02FF8012000F0E6FFCB
:1016800000224FF40061214801F026F8012000F00B
:10169000DDFF01208DF807008002009000208DF80A
:1016A00006006946194801F026F8022000F0CEFF36
:1016B00004E0601EC4B2032000F0C8FF4FF4806154
:1016C000124801F055F8012801D1002CF1D1002C6D
:1016D00003DC00F0C3F801207CBD0122D1020B48DD
:1016E00000F0FAFF01208DF8070080020090012031
:1016F0008DF806006946054800F0FDFF00BF012295
:101700009102024800F0E8FF2846E5E7000C02409D
:101710001CB5044601208DF80700800200900120CE
:101720008DF806006946194800F0E5FF0122D10254
:10173000164800F0D1FF01229102144800F0CCFFBE
:10174000022000F083FF2CB9012291020F4800F023
:10175000C3FF05E000224FF480610C4800F0BCFF9D
:1017600000224FF40061094800F0B6FF022000F0AB
:101770006DFF0122D102054800F0AEFF00224FF4B8
:101780008061024800F0A8FF1CBD0000000C024070
:1017900010B520210D4800F09DFF032000F056FFFA
:1017A00040210A4800F096FF032000F04FFF40213F
:1017B000064800F08DFF032000F048FF2021034879
:1017C00000F086FF032000F041FF10BD0000024042
:1017D0001CB501208DF807008002009001208DF8D3
:1017E000060069460F4800F086FF00224FF4806132
:1017F0000C4800F071FF00224FF40061094800F02E
:101800006BFF042000F022FF01229102054800F046
:1018100063FF042000F01AFF0122D102014800F00A
:101820005BFF1CBD000C024010B520210A4800F0EF
:1018300051FF032000F00AFF4021074800F048FF55
:10184000032000F003FF4021034800F043FF032082
:1018500000F0FCFE10BD0000000002401CB501209D
:101860008DF807008002009001208DF8060069467F
:101870000F4800F040FF0122D1020D4800F02CFF7C
:10188000012291020A4800F027FF042000F0DEFE4A
:1018900000224FF40061064800F01EFF00224FF4C2
:1018A0008061034800F018FF042000F0CFFE1CBD4B
:1018B000000C024010B52021064800F00BFF032069
:1018C00000F0C4FE2021034800F002FF032000F0D6
:1018D000BDFE10BD0000024000BFFEE7704770B5BE
:1018E000002418E004F1B000002100F094F9002178
:1018F000084600F090F90021102000F08CF9002536
:1019000005E00121002000F086F9681CC5B2802D99
:10191000F7DB601CC4B2082CE4DB70BD1CB50121F0
:101920004FF4401000F070FD684600F0DAFE012030
:101930008DF8070000208DF8040001208DF80600C6
:101940006020009000208DF805006946014800F0F5
:10195000D2FE1CBD0000024010B5FFF7DFFF0021E2
:10196000AE2000F058F90021084600F054F900219B
:10197000102000F050F90021402000F04CF9002127
:10198000B02000F048F90021812000F044F9002146
:10199000FF2000F040F90021A12000F03CF90021D7
:1019A000A62000F038F90021A82000F034F9002129
:1019B0003F2000F030F90021C82000F02CF9002170
:1019C000D32000F028F90021084600F024F9002176
:1019D000D52000F020F90021802000F01CF9002122
:1019E000D82000F018F90021052000F014F900219A
:1019F000D92000F010F90021F12000F00CF90021AD
:101A0000DA2000F008F90021122000F004F900218A
:101A1000DB2000F000F90021302000F0FCF800216C
:101A20008D2000F0F8F80021142000F0F4F80021D7
:101A3000AF2000F0F0F8FFF752FF0021084600F059
:101A400001F810BD70B504460D4605F1B000002147
:101A500000F0E1F8102141EA1410002100F0DBF859
:101A600004F00F00002100F0D6F870BD2DE9F04120
:101A700080460E461546002731464046FFF7E2FFF6
:101A800000240AE0124A02EB8511085D012100F0F2
:101A9000C2F8781CC7B2601CC4B2102CF2DB701CF8
:101AA000C1B24046FFF7CEFF00240CE06900491C9C
:101AB000074A02EB4111085D012100F0ACF8781CE7
:101AC000C7B2601CC4B2102CF0DBBDE8F08100008E
:101AD000380000202DE9F0470746884616464FF0AB
:101AE0005B0900241BE0C4EBC4000F49085CB04252
:101AF00013D141463846FFF7A5FF00250AE0C4EBA5
:101B0000C401094A1144491C485D012100F083F8D1
:101B1000681CC5B2062DF2DB03E0601CC4B24C4564
:101B2000E1DB00BFBDE8F087AA3A00082DE9F047E5
:101B300080460E4617464FF05E0900252FE005EB64
:101B400005101949085CB84227D131464046FFF7D5
:101B500079FF00240AE005EB0511134A1144491CE2
:101B6000085D012100F057F8601CC4B2082CF2DBBC
:101B7000701CC1B24046FFF765FF08240AE005EB80
:101B80000511094A1144491C085D012100F043F880
:101B9000601CC4B2102CF2DB03E0681CC5B24D45DA
:101BA000CDDB00BFBDE8F087273D000870B50546D6
:101BB0000E46144607E0227831462846FFF78AFF92
:101BC000641CA81DC5B220780028F4D170BD2DE991
:101BD000F04106460F461446002517E0207880287D
:101BE0000ADA227806EBC501C8B23946FFF79EFF34
:101BF000641C681CC5B209E0227806EBC501C8B2B6
:101C00003946FFF733FFA41CA81CC5B22078002872
:101C1000E4D1BDE8F08170B504460D461DB1E0B2D7
:101C200000F0EAF902E0E0B200F0D0F970BD7047D0
:101C30007CB5002401208DF8070080020090002070
:101C40008DF806006946174800F055FD00251FE095
:101C50000122D102134800F03FFD022000F0F6FC03
:101C600000224FF400610F4800F036FD022000F022
:101C7000EDFC6006040E4FF480610A4800F078FD28
:101C800008B144F00104012000F0E0FC681CC5B27A
:101C9000082DDDDB0122D102024800F01DFD2046A7
:101CA0007CBD0000000C0240704700007CB504467B
:101CB000002501208DF807008002009001208DF89A
:101CC00006006946154800F016FD0122D1021348AE
:101CD00000F002FD00BF1DE0012080EAD412810265
:101CE0000E4800F0F9FC012000F0B0FC00224FF497
:101CF00000610A4800F0F0FC022000F0A7FC01227D
:101D0000D102064800F0E8FC022000F09FFC6006CB
:101D1000040E6D1C082DDFDB7CBD0000000C0240B2
:101D20007047000010B52848006840F4700026494C
:101D30000860012000F044FA2448006820F0010007
:101D4000401C2249086000BF20480068C0F34000E2
:101D50000028F9D01D480830006820F003001B4916
:101D60000831086000BF194808300068C0F38100DE
:101D70000028F8D115480068154908401349086043
:101D80004FF080401149083108601248091F08606F
:101D90000E48A030006800F4A0400C49A031086053
:101DA0000846006840F4702008604FF41F0007499F
:101DB0000C310860002000F003FA4FF00060024987
:101DC0008039086010BD000088ED00E00038024056
:101DD000FFFFF2FE0230030010B52021204801F081
:101DE000A0F801283BD11E4801F070F8C4B21D488C
:101DF000007858B9402C2DD11B48007850BB0120E9
:101E00001849087000201949087023E01548007827
:101E100001280FD10D2C03D102201249087019E0BE
:101E2000134812490978445410480078401C0F495F
:101E300008700FE00B48007802280BD10A2C09D15A
:101E40000020084908700A49084A1278885401207D
:101E5000054908702021024801F045F800BF10BD77
:101E60000010014035000020340000203600002022
:101E7000CC04002010B520211E4801F052F80028A3
:101E800037D020211B4801F02EF81A4801F01EF827
:101E900004466F2C11D1002000F058F9012000F009
:101EA00055F9022000F052F913A0FEF7B1FA1AA278
:101EB00004215020FFF78BFE1BE0662C11D100207F
:101EC00000F030F9012000F02DF9022000F02AF98D
:101ED00012A0FEF79DFA19A204215020FFF777FE09
:101EE00007E017A0FEF794FA1BA204215020FFF789
:101EF0006EFE10BD00440040627430342D652063D6
:101F00006D6420697320617433325F6C65645F6F48
:101F10006E200D0A000000004F4E00006274303445
:101F20002D6520636D6420697320617433325F6CAA
:101F300065645F6F6666200D0A0000004F4646002C
:101F4000627430342D6520636D642069732065727E
:101F5000726F72200D0A00006572726F72000000CD
:101F600000BFFEE72DE9F04105462C46202116482A
:101F700000F0AEFB002622E0274607F08007802F06
:101F800004D14021104800F0A5FB03E040210E4899
:101F900000F09EFB6006040E032000F057FB20219A
:101FA000094800F097FB032000F050FB2021064871
:101FB00000F08EFB032000F049FB701CC6B2082E17
:101FC000DADBBDE8F08100000000024010B50446F5
:101FD000FFF7DEFB7820FFF7C5FFFFF76BFC002063
:101FE000FFF7C0FFFFF766FC2046FFF7BBFFFFF7D8
:101FF00061FCFFF719FC10BD10B50446FFF7C8FBE4
:102000007820FFF7AFFFFFF755FC4020FFF7AAFF4E
:10201000FFF750FC2046FFF7A5FFFFF74BFCFFF74B
:1020200003FC10BD03B401984100009850EAC120A0
:1020300018BF04204A0D18BF40F0010040F2FF72A3
:10204000B2EB515F08BF40F00200012808BF052035
:1020500002B0704730380A2801D2012070470020B2
:10206000704700BF704710B500F09AFA002000F0EA
:1020700031F8012000F02EF8022000F02BF80020AB
:1020800000F050F8012000F04DF8022000F04AF86E
:1020900000F002F810BD00001CB501214FF4401003
:1020A00000F0B2F9684600F01CFB01208DF8070033
:1020B00000208DF804008DF8060001200090022019
:1020C0008DF805006946024800F015FB1CBD0000B4
:1020D000000002401CB504460F4951F824000121BC
:1020E00000F092F9684600F0FCFA01208DF8070034
:1020F00000208DF8040001208DF80600074830F814
:102100001400009000208DF80500054951F82400C6
:10211000694600F0F0FA1CBD140000200C000020FD
:1021200000000020022800DD7047064931F8101039
:1021300031B1044931F81010034A52F8202091615E
:1021400000BFF1E70C00002000000020022800DDA5
:102150007047064931F8101031B1044931F81010B8
:10216000034A52F82020916200BFF1E70C000020E2
:102170000000002000B50346012000F021F80548CA
:10218000006863F3071003490860002000F018F8A6
:1021900000BD0000083802400349096860F38C2143
:1021A000014A11607047000008380240034909687D
:1021B00060F34F31014A1160704700000838024057
:1021C000012807D10749096821F030013031054A5B
:1021D000116005E00349096821F03001014A1160EE
:1021E00070470000A438024005282BD2DFE800F039
:1021F000030A11182100154A126861F30002134BFB
:102200001A6020E0114A126861F310420F4B1A6005
:1022100019E00E4A126861F318620C4B1A6012E062
:102220000A4A7032126861F30002084B70331A6078
:1022300009E0064A7432126861F30002034B7433FA
:102240001A6000E000BF00BF704700000038024085
:102250002DE9F04F87B004460020069005900490C9
:102260000390029081468246834600F075F9019002
:10227000019820B101281BD002285BD124E04348FB
:102280000068C0F3803038B140480068C0F30030C7
:1022900010B13F48206001E03E4820603B48001DEF
:1022A0000068C0F3024B206820FA0BF0206044E085
:1022B000384820603548001D0068C0F3C24B2068D4
:1022C00020FA0BF0206038E030489C380068C0F3FA
:1022D000805003902D489C380068C0F38810069009
:1022E0002A489C38006800F00F00059027489C3869
:1022F0000068C0F302402849085C0490039810B9B4
:102300002448029001E023480290DDE9041000FB1C
:1023100001FC06990298A0FB017001466246002369
:102320003846FDF7FEFF054602220023FDF7F9FFC0
:10233000206002E01748206000BF00BF13489838B3
:102340000068C0F30319154810F809A0206820FAA6
:102350000AF060600D4898380068C0F38229104880
:1023600010F809A0606820FA0AF0E0600748983881
:102370000068C0F342390B4810F809A0606820FAE1
:102380000AF0A06007B0BDE8F08F0000A03802405E
:10239000006CDC0200127A00A43A0008843A0008BB
:1023A000943A00089C3A000810B501460020094BF9
:1023B00003EB1142D2F8002801F01F040123A340CF
:1023C0001A4001F01F040123A3409A4200D000E00C
:1023D000012010BD0030024030B50024002500E08F
:1023E000641C1120FFF7E0FF012802D0B4F5405F24
:1023F000F6D31120FFF7D8FF012801D0002500E017
:102400000125284630BD000010B501290FD1104B21
:1024100003EB1042D2F8002800F01F040123A34070
:102420001A430B4C04EB1043C3F800280EE0084B92
:1024300003EB1042D2F8002800F01F040123A34050
:102440009A43034C04EB1043C3F8002810BD00006E
:102450000030024030B538B90F4C246824F4805461
:1024600004F580540C4D2C600B4C9C3C246860F3AC
:102470009654094D9C3D2C602C46246861F38E14C3
:102480002C602C46246862F303042C602C462468DC
:1024900063F312442C6030BDA038024000B5012027
:1024A000FFF78EFE2048006820F00100401C1E4906
:1024B000086000BF1C480068C0F340000028F9D045
:1024C00019480830006820F00300174908310860F7
:1024D00000BF154808300068C0F381000028F8D11B
:1024E00011480068114908400F4908604FF08040CA
:1024F0000D49083108600E48091F08600A48A030DD
:10250000006800F4A0400849A0310860084600684F
:1025100040F4702008604FF41F0003490C3108603C
:102520000020FFF74DFE00BD00380240FFFFF2FE25
:102530000230030000B503460120FFF741FE0548C5
:10254000006863F30100034908600020FFF738FECC
:1025500000BD00000838024002480068C0F3810056
:1025600070470000083802400146002021B10129CF
:1025700007D002290FD109E0084A126802F00300CF
:1025800009E0064A1268C2F3810004E0034A1268B7
:10259000C2F3011000BF00BF70470000683802405E
:1025A00010B5042000F0ECFB074800680749B0FBB9
:1025B000F1F007490860084600684FF47A71484313
:1025C0000449086010BD00003000002040420F00A8
:1025D0002000002024000020002131E032280ADD04
:1025E000194A126832235A434FF0E0235A61A0F18E
:1025F000320290B206E0144A126842434FF0E023E0
:102600005A61002000224FF0E0239A611A461269B5
:1026100042F001021A6100BF4FF0E022116901F09F
:1026200001021AB101F48032002AF5D04FF0E02205
:10263000126922F001024FF0E0231A6100229A6130
:102640000028CBD170470000240000200146002064
:10265000114A12684A434FF0E0235A6100229A61FE
:102660001A46126942F001021A6100BF4FF0E022DF
:10267000106900F001021AB100F48032002AF5D08E
:102680004FF0E022126922F001024FF0E0231A61BC
:1026900000229A61704700002000002070B50446B7
:1026A0000D4600BF8021094800F03BFC0028F9D00E
:1026B000A1B2064800F00EFC00BF4021034800F024
:1026C00030FC0028F9D0204670BD00000010014009
:1026D00081627047816170470AB1816100E0816267
:1026E00070474FF6FF7101600021817101714171E6
:1026F0000121C171704770B50A4600211488A3B248
:1027000033E003F001046CB304684E000325B540C8
:10271000AC43046094794D00AC4005682C430460E0
:10272000446801258D40AC434460446815798D4070
:102730002C43446084684E000325B540AC4384605C
:10274000D4794D00AC4085682C438460C4684E0049
:102750000325B540AC43C46054794D00AC40C56816
:102760002C43C4605B104C1CA1B2002BC9DC70BDB3
:102770000246002013690B408B4200D000E001208C
:102780007047F0B5002300244D07ED0E02FA05F363
:10279000CD105DB1456A4E07F70E0F26BE40B5431A
:1027A0004562456A45EA030444620AE0056A4E0749
:1027B000F70E0F26BE40B5430562056A45EA0304DD
:1027C0000462F0BD10B500F0F9F9FFF74CFC4FF4CE
:1027D000E13000F0E9FA00F021FBFFF7BDF8FEF769
:1027E00031FE08A0FDF714FE11A0FDF711FE1CA09C
:1027F000FDF70EFE27A0FDF70BFE30A0FDF708FE4B
:1028000010BD000061745F73746172745F6634326E
:102810003320626F61726420617433325F626F6172
:1028200072645F696E6974205B6F6B5D200D0A00D6
:1028300061745F73746172745F6634323320626FE7
:102840006172642073797374656D5F636C6F636B21
:102850005F636F6E666967205B6F6B5D200D0A00BA
:1028600061745F73746172745F6634323320626FB7
:10287000617264207573617274325F636F6E666932
:102880006775726174696F6E205B6F6B5D200D0AF6
:102890000000000061745F73746172745F663432AB
:1028A0003320626F617264204F4C45445F496E690A
:1028B00074205B6F6B5D200D0A00000061745F7314
:1028C000746172745F6634323320626F61726420A7
:1028D00041485431305F4750494F5F496E69742019
:1028E0005B6F6B5D200D0A002DED028BFFF76AFF19
:1028F0001FA0FDF78DFD24A0FDF78AFD2EA0FDF79A
:1029000087FD38A0FDF784FD0020FFF70BFC0120B8
:10291000FFF708FC0220FFF705FCFEF7E0FF00F0E0
:1029200089F824E0FEF7BEFDFEF796FE10EE104A91
:10293000204601F01FF841EC180B53EC182B35A082
:10294000FDF766FDFEF782FE10EE104A204601F00C
:1029500011F841EC180B53EC182B32A0FDF758FD81
:1029600008A0FDF755FD4FF47A70FFF735FED9E763
:1029700048617264776172655F496E6974205B6F4C
:102980006B5D200D0A00000061745F7374617274E6
:102990005F6634323320626F6172642074657374D1
:1029A000696E6720323032342D30392D3135205B5D
:1029B0006F6B5D200D0A000061745F737461727447
:1029C0005F6634323320626F6172642075736172A6
:1029D000742D7072696E7466205B6F6B5D200D0ADA
:1029E0000000000061745F73746172745F6634325A
:1029F0003320626F6172642075736172742D6D6F24
:102A000064756C652D627430342D65205B6F6B5D71
:102A1000200D0A00CEC2B6C8203D20252E32660DFC
:102A20000A000000CAAAB6C8203D20252E32660D35
:102A30000A00000010B50D2200210846FFF716F825
:102A40000E2200211020FFF711F80F220021202074
:102A5000FFF70CF8102200213020FFF707F81122B1
:102A600000214020FFF702F80AA200216020FFF7B2
:102A7000AEF80AA202210020FFF7A9F80BA2042158
:102A80000020FFF7A4F80CA206210020FFF78EF823
:102A900010BD0000425430340000000054696D65E0
:102AA0003A323032342E30392E3135004C45445FC5
:102AB00053746174653A0000415433324134323307
:102AC0002D4949432D4F4C45440000002DE9F04766
:102AD0000B4614464FF0000C00BF2C4A1268C2F39C
:102AE00002211D4626460A46C2F10709B9F1040F24
:102AF00002D94FF0040901E0C2F10709C84602F10A
:102B00000409B9F1070F02D24FF0000901E0A2F168
:102B100003094F464FF0010909FA08F9A9F1010923
:102B200009EA050909FA07F94FF0010A0AFA07FA52
:102B3000AAF1010A0AEA060A49EA0A09CC4601464C
:102B40006246002904DB15072E0E114D6E5407E076
:102B500015072F0E0D4D0C3501F00F06361FAF5522
:102B600000BF014600290DDB00BF00BF01F01F05BB
:102B70000122AA404D09AD0005F1E025C5F800216C
:102B800000BF00BF00BFBDE8F08700000CED00E013
:102B900000E400E000BF00F00702064B19684FF6A2
:102BA000FF031940044B0B4343EA0221014B196018
:102BB00000BF70470CED00E00000FA0510B5FFF70C
:102BC0006DFC4FF4AA702049086001211F48FFF7EF
:102BD0001BFC1F48006920F00300C01C1C49086151
:102BE00001210846FFF700FB00BFFFF7F5FB0028B7
:102BF000FBD001231A4648211846FFF72BFC012180
:102C00000220FFF7F1FA00BF1920FFF7CDFB0128E2
:102C1000FAD10020FFF7AEFA0020FFF7C7FA042030
:102C2000FFF7BAFA0120FFF7CBFA0220FFF782FC88
:102C300000BFFFF791FC0228FBD10020FFF7C0FA8C
:102C400000F008F810BD0000003C02401C004000ED
:102C5000007000402DE9F04F85B04FF00009CA46E2
:102C6000CB46002004900390029001900024FFF7CF
:102C700073FC0090009820B101281ED002285BD17F
:102C800028E039480068C0F3803040B13648006819
:102C9000C0F3003018B135483549086002E03548C6
:102CA000334908603048001D0068C0F302443048D2
:102CB0000068E0402E49086042E02E482C49086038
:102CC0002948001D0068C0F3C24408460068E0407F
:102CD000086035E024489C380068C0F380500490B8
:102CE00021489C380068C0F388191F489C38006848
:102CF00000F00F0A1C489C380068C0F302401E49CF
:102D000011F800B0049810B91A48039001E019486E
:102D100003900AFB0BFC0398A0FB09700146624676
:102D200000233846FDF7FDFA054602220023FDF791
:102D3000F8FA0F49086003E00E480D49086000BF2B
:102D400000BF094898380068C0F3031002900B498F
:102D50000298085C0190064800680199C84004493F
:102D6000086005B0BDE8F08FA0380240006CDC02BE
:102D70003000002000127A007E3A00086E3A000807
:102D8000042808D14FF0E021096941F004014FF017
:102D9000E022116107E04FF0E021096921F0040110
:102DA0004FF0E022116170471CB50446012118481C
:102DB000FFF72AFB01214FF44010FFF725FB68467F
:102DC000FFF78FFC01208DF8070000208DF804002C
:102DD00002208DF806000002009000208DF805000A
:102DE00069460C48FFF787FC072209210948FFF7CD
:102DF000C8FC00231A462146074800F09BF8012131
:102E0000054800F06DF90121034800F067F81CBD8A
:102E10000400440000000240001001401CB50121E4
:102E20002648FFF7F1FA01214FF44010FFF7ECFAC2
:102E300001214FF44010FFF7E7FA6846FFF751FC15
:102E400001208DF8070000208DF8040002208DF885
:102E500006000C20009001208DF8050069461848F6
:102E6000FFF749FC072202211548FFF78AFC0722D9
:102E700003211348FFF785FC0320FFF78BFE002298
:102E800011462620FFF722FE00231A464FF4165162
:102E90000C4800F04FF801210A4800F021F9012107
:102EA000084800F018F901220749064800F0F8F830
:102EB0000121044800F012F81CBD00001100400080
:102EC000000002400044004005000C000146486834
:102ED00080B27047C1F3080242607047C26861F374
:102EE0004D32C2607047B1F5006F03D14FF40062FC
:102EF000026215E0B1F5003F03D14FF400320262E7
:102F00000EE0B1F5801F03D14FF48012026207E09A
:102F100001F01F0212B10268426801E0CA43026078
:102F2000704702461068084008B101207047002031
:102F3000FCE700002DE9FF470446894690469A4683
:102F40006846FFF785F9504884421AD10020FFF700
:102F50000BFB06460EB9029D53E0012E01D1009DE8
:102F60004FE0032E02D14FF400454AE0474D484858
:102F70000068C0F30030002843D005EB4500450051
:102F80003FE04448844219D10120FFF7EDFA06469C
:102F90000EB9039D35E0012E01D1009D31E0032ED5
:102FA00002D14FF400452CE0384D39480068C0F399
:102FB0000030F8B105EB4500450022E03648844278
:102FC00019D10220FFF7D0FA06460EB9039D18E08A
:102FD000012E01D1009D14E0032E02D14FF40045D3
:102FE0000FE02A4D2A480068C0F3003010B105EB0D
:102FF0004500450005E02948844201D1029D00E0DA
:10300000039D05EB85004000B0FBF9F70A20B7FBF4
:10301000F0F100FB1170052803D20A20B7FBF0F78E
:1030200003E00A20B7FBF0F0471CA06867F30F002D
:10303000A060B8F1020F0AD1E06820F0805000F1E2
:103040008050E060E06820F48050E06015E0B8F166
:10305000000F08D1E06820F08050E060E06820F4C4
:103060008050E06009E0E06820F08050E060E068B7
:1030700020F4805000F58050E06020696AF30D3044
:103080002061BDE8FF8700000010014000127A00B7
:10309000A0380240004400400048004000140140B5
:1030A00030B5012A0BD100EB11431B6801F01F055D
:1030B0000124AC40234300EB114423600AE000EB01
:1030C00011431B6801F01F050124AC40A34300EB32
:1030D0001144236030BDC26861F38202C260704750
:1030E000C26861F3C302C2607047000010B50029D6
:1030F0000AD00878002807D005487844FDF78AFDF3
:10310000002801D0002010BD0248784410BD000006
:10311000221300001A13000021F00042A2F16052B5
:10312000B2F5801F01F0004328BFD2F17F6C0BD9AC
:103130005FEA001C43EAC20242EB507018BF7047BE
:1031400028BF20F001007047B2F5801FBCBF1846B1
:1031500070474FEA410C1CF5001F02D2084600F0F0
:103160007FBC70B500F0C8FA00000089FFF7F6BF19
:103170004FF00040A0F580007047000010B591EAC4
:10318000030F48BF83F0004300F11283841A71EBF0
:10319000030C05D2121943EB0C03001B61EB0C016D
:1031A000DFF824E14FEA1154A4EB135C1EEA430F4D
:1031B00018BF9EEA445F73D023EA0E03DCF1200EB1
:1031C00021EA045143F4801332D322FA0CFE10EBAF
:1031D0000E0023FA0CFE41EB0E01CCF1200E03FA97
:1031E0000EFE10EB0E0051F10001B1F5801FCCF185
:1031F000200E32D201EB045112FA0EF2BDE810405B
:1032000058BF7047401C38BF5FEA420218BF704782
:10321000002814BF20F0010041F100014FEA4103F2
:1032200013F5001F38BF7047A1F1C04100F0B2BADA
:10323000012A43EB0302ACF1200CDCF11F0E32BF7C
:103240004FF0000E23FA0CF310EB030041EB045196
:10325000B4EB115FD0D0A1EB045101F58011490806
:103260005FEA300001EB04510ED350F1000038BF8B
:1032700012FA0EFE08D1BDE81040C9E7401C38BF65
:103280005FEA4202CAD1C3E7BDE810404FEA4103FA
:1032900013F5001F38BF7047A1F1C04100F07ABAA2
:1032A0009EEA445F08D011EA5E0FBDE8104004BFFB
:1032B00001F0004100207047BDE8104070B500F0FB
:1032C0001BFA00BF64FBBE3E0000E0FF2DE9C041D9
:1032D00030B4DFF8A0C23CEA111418BF3CEA131462
:1032E00000F0EC8081EA03051CEA111444EAD5746D
:1032F00018BF1CEA131500F0C780A4EB05044FF0BB
:10330000004545EAC12145EAC32341EA505143EA59
:10331000525304F17F74994204F500344FEAC020FF
:103320004FEAC22208BF904200F09C804FEA13652A
:103330000FF24016765D4FEA134506FB05F7C7F11D
:10334000807706FB07F74FEAD737A7FB036876427B
:10335000C8F58038A7FB06CE38BFA8F1010807FBE7
:1033600008E64FF0000EA6FB028CE6FB03CEDCF174
:10337000000CCEF1004E38BFAEF1010EA6FB0C588A
:103380004FF000074FF00005E6FB0E87A1FB08C6D3
:10339000A0FB07CE16EB0E0645F10005E1FB076525
:1033A00015F1E04E7EBFA4F580345FEA46066D411C
:1033B00016F1800745F100054FEA17274FEA066628
:1033C00047EA0567A6F1DE46B6F1805F4FEA1525AC
:1033D0001FD9384624F0010C05EBC471BCF1FE6F17
:1033E00001EB0C1102D8F0BCBDE8008124425CBFA7
:1033F00001F5801E9EEAC47F02D4F0BCBDE80081C6
:10340000244238D4F0BCA1F1C041BDE8004100F035
:10341000C1B94FEAD22242EA43524FEAD323A7FB73
:1034200002864FEAD02040EA415007FB03661EEABD
:103430000E0F4FEAD12105FB026658BFA6EB0056DE
:10344000B6EB00564FEA520E4EEAC37E18EB0E0E54
:1034500056EB530EBDD518EB02085E417F1C55F1AB
:103460000005B6E74FF480154FF000074FF0000657
:103470004FF00008ADE7F0BC4FF0000001F1C04193
:1034800001F00041BDE8008111EA0C1F0CEA1315A0
:1034900000D00CE013EA0C1F00F025804FF0000074
:1034A000F0BC81EA030101F00041BDE80081F0BCFD
:1034B000BDE8004181EA030100F06CB9F0BCBDE851
:1034C000004170B500F018F9097EFC3E00F007B825
:1034D00081EA03014FF0000001F00041704781EAEA
:1034E000030100F057B9F0BCBDE800414FF0000007
:1034F00021497047FFFDFBF9F7F5F4F2F0EEEDEB33
:10350000E9E8E6E4E3E1E0DEDDDBDAD8D7D5D4D3E1
:10351000D1D0CFCDCCCBCAC8C7C6C5C4C2C1C0BF2D
:10352000BEBDBCBBBAB9B8B7B6B5B4B3B2B1B0AF33
:10353000AEADACABAAA9A8A8A7A6A5A4A3A3A2A117
:10354000A09F9F9E9D9C9C9B9A99999897979695D2
:1035500095949393929191908F8F8E8E8D8C8C8B6E
:103560008B8A8989888887878685858484838382F6
:10357000828181800000FF070000F87FB0FA80F3AD
:1035800010FA03F10AD0C3F11D0303F580634FEA7B
:1035900041504FEA035202EBD12170474FF0000037
:1035A00070470000DFF848C170B51CEA111E1EBF4D
:1035B0001CEA13159EEA0C0F95EA0C0F00F06F80C1
:1035C00081EA030423EA4C134EEAD47E21EA4C112B
:1035D00041F4801143F48013AE44A1FB024CA0FBE4
:1035E0000365AEF17F7E361955EB0C05A1FB034C4C
:1035F0004CF10003A0FB021C16EB0C06654153F1D5
:103600000003094218BF46F0010613F4007F0BD1F6
:103610004FEA03314FEA0530340341EA155140EADD
:1036200016506FF003020AE04FEAC3214FEAC520AB
:10363000F40241EA555140EA56506FF0020202EBA3
:103640002E4201EB025585EACE710AD05FEA440CA6
:1036500018BF24F0004450F1000041F1000120EABD
:10366000D47040F2FE7C624500D270BDA84214BF07
:103670004FF080444FF04044002E08BF0024BEF1BC
:10368000806FA8BFA1F1C041BDE8704080F2828088
:103690004FF0000001F1C04101F0004170479EEA87
:1036A0000C0F0CEA131518BF95EA0C0F06D04FF05B
:1036B000000081EA030E0EF0004170BD00F01CF81E
:1036C0008900013E00F007B800F009B84FEA430C4A
:1036D0005FEA5C5C08D081EA030100F05BB84FEA66
:1036E000410C5FEA5C5CF6D14FF000000149704785
:1036F0000000FF070000F87F0EF1020E2EF0030E0F
:103700005EF8046B364205D4012A43EB030515F538
:10371000001F12D8012841EB010C1CF5001F0CD82A
:103720000ED14FEAD17C15F5001F0CEB4C0C0CF1BF
:10373000020C08BF4CEBD37C04E04FF0080C01E016
:103740004FEAD37C0CEB4C0526FA05F606F007068B
:10375000B6F1040C06D20EEB860CBDE870404CF0BE
:10376000010C6047DFE80CF0090B02024FF000414A
:103770004FF00000A1F5002170BD19461046012848
:1037800051EB010418BFD4F5001484BF002001F0F0
:10379000004170BD0808A0F500114FEA31017047E3
:1037A00010B591EA030F48BF83F000433FF5EEAC3C
:1037B000841A71EB030C07D212198CF0004C43EB06
:1037C0000C03001B61EB0C01DFF8A4E14FEA11547C
:1037D000A4EB135C1EEA430F18BF9EEA445F00F09F
:1037E000B08023EA6E03524221EA0451C3EB6E0318
:1037F00038BF5B1EDCF1200E25D322FA0CFE10EB45
:103800000E0043FA0CFE41EB0E01CCF1200E03FA40
:103810000EFE10EB0E0051F10001CCF1200E29D468
:1038200012FA0EF201EB0451BDE8104058BF704788
:10383000401C1CBFB2F1004F704700280CBF491C50
:1038400020F00100704712EB020E43EB030218BF99
:103850004FF0010E4EEA4202ACF1200CDCF11E0EDC
:1038600054D943FA0CFE10EB0E0051F1FF31CCF1AC
:103870001E0ED5D50EF1010E12FA0EFE404141EB9F
:10388000010101EB445C5FEA5C5C10D910EBDE7077
:1038900001EB045138BFBEF1004FBDE8104018BF26
:1038A000704700280CBF491C20F00100704730D23F
:1038B0004FEAD42C11F5001124F400641BD0B1FAA6
:1038C00081F20B3AA41AA41ED2F12003914030FADF
:1038D00003F31943904001EBCC71002C01EB045130
:1038E000BDE81040A8BF704701F1C0414FF0000093
:1038F00001F000417047B0FA80F310FA03F100D1F3
:1039000010BDE41A173C4805C90AE4E701EB04516D
:1039100010BD491001EB0451BDE810404FEA3000E2
:1039200002E04FF0000170474A0008BF0042F8D0A3
:10393000B2F5001F28BF704701F000414FF00000B2
:1039400070479EEA445F07D011EA5E0FBDE8104061
:1039500004BF002100207047BDE8104070B5FFF79C
:10396000CBFE00BF40DFF63E83F0004110467047BB
:103970000000E0FF43004FEAD30C4FEA3C0C434009
:103980001FBF40070CF1605113F0FE4F70471CF051
:10399000006F03D100200CF0004170470CF0004391
:1039A00043EA507010B540EACC0000F00EF800BFBA
:1039B000000000924FEA0001FFF7ECBE4FF000411B
:1039C0004FF00000A1F5002170470EF1020E2EF01D
:1039D000030E5EF8044B244204D44FEA4102B2F1D4
:1039E0007F4F11D84FEA4003B3F17F4F0CD80ED16F
:1039F0004FEAD07CB2F17F4F0CEB4C0C0CF1020C77
:103A000008BF4CEBD17C04E04FF0080C01E04FEA1A
:103A1000D17C0CEB4C0324FA03F404F00704B4F15A
:103A2000040C06D20EEB840CBDE810404CF0010CE7
:103A30006047DFE80CF0070802024FF00040A0F5F5
:103A4000800010BD0846420018BFD2F1807288BFC6
:103A500000F0004010BD4FF04070E1EE100A7047DA
:103A6000FF2141EAD050C0057047FCF741BE00007D
:103A7000000000000000010203040607080901021B
:103A800004081020000000000000000001020304F0
:103A900006070809000000000102030400000000FE
:103AA00001020304010204081020200000000000AD
:103AB00000210000002F0000220000070007002363
:103AC00000147F147F142400242A7F2A1225006208
:103AD00064081323260036495522502700000503A9
:103AE00000002800001C22410029000041221C0087
:103AF0002A0014083E08142B0008083E08082C0071
:103B00000000A060002D0008080808082E000060D2
:103B10006000002F00201008040230003E5149458B
:103B20003E310000427F400032004261514946333D
:103B3000002141454B3134001814127F1035002705
:103B40004545453936003C4A49493037000171093D
:103B50000503380036494949363900064949291EC6
:103B60003A0000363600003B0000563600003C00AC
:103B700008142241003D0014141414143E000041A6
:103B80002214083F000201510906400032495951F0
:103B90003E41007C1211127C42007F494949364364
:103BA000003E4141412244007F4141221C45007FAB
:103BB0004949494146007F0909090147003E4149F9
:103BC000497A48007F0808087F490000417F41008A
:103BD0004A002040413F014B007F081422414C0025
:103BE0007F404040404D007F020C027F4E007F042A
:103BF00008107F4F003E4141413E50007F090909B6
:103C00000651003E4151215E52007F091929465359
:103C1000004649494931540001017F010155003FE7
:103C20004040403F56001F2040201F57003F403873
:103C3000403F5800631408146359000708700807D0
:103C40005A0061514945435B00007F4141005D00DE
:103C50000041417F005E0004020102045F00404019
:103C600040404060000001020400610020545454B0
:103C70007862007F484444386300384444442064F8
:103C800000384444487F650038545454186600088E
:103C90007E090102670018A4A4A47C68007F0804C0
:103CA0000478690000447D40006A004080847D0003
:103CB0006B007F102844006C0000417F40006D00C5
:103CC0007C041804786E007C080404786F00384483
:103CD0004444387000FC242424187100182424184B
:103CE000FC72007C08040408730048545454207487
:103CF00000043F44402075003C4040207C76001C7E
:103D00002040201C77003C4030403C780044281084
:103D1000284479001CA0A0A07C7A004464544C4440
:103D20007C1414141414142000000000000000007F
:103D3000000000000000000021000000F80000006A
:103D40000000000033300000002200100C06100CB0
:103D5000060000000000000000002340C07840C0C2
:103D6000784000043F04043F04040024007088FCF1
:103D700008300000001820FF211E000025F008F088
:103D800000E018000000211C031E211E002600F088
:103D90000888700000001E212324192721102710F5
:103DA000160E0000000000000000000000000028C7
:103DB000000000E018040200000000071820400086
:103DC0002900020418E0000000004020180700004D
:103DD000002A404080F0804040000202010F0102B2
:103DE00002002B000000F0000000000101011F0193
:103DF0000101002C000000000000000080B07000F5
:103E0000000000002D000000000000000000010183
:103E100001010101012E000000000000000000303F
:103E20003000000000002F00000000806018040037
:103E3000601806010000003000E010080810E000E3
:103E4000000F102020100F0031001010F8000000AB
:103E5000000020203F202000003200700808088861
:103E60007000003028242221300033003008888878
:103E70004830000018202020110E00340000C0201F
:103E800010F8000000070424243F24003500F8083F
:103E900088880808000019212020110E003600E053
:103EA000108888180000000F112020110E00370024
:103EB000380808C83808000000003F00000000383B
:103EC0000070880808887000001C222121221C0034
:103ED0003900E010080810E0000000312222110F24
:103EE000003A000000C0C0000000000000303000B8
:103EF00000003B0000008000000000000080600027
:103F00000000003C00008040201008000001020476
:103F1000081020003D404040404040400004040460
:103F200004040404003E000810204080000000202B
:103F30001008040201003F007048080808F0000063
:103F40000000303601000040C030C828E810E00012
:103F50000718272423140B00410000C038E000009C
:103F600000203C2302022738204208F88888887005
:103F70000000203F202020110E0043C03008080818
:103F800008380007182020201008004408F8080806
:103F90000810E000203F202020100F004508F8887E
:103FA00088E8081000203F2020232018004608F849
:103FB0008888E8081000203F20000300000047C068
:103FC0003008080838000007182020221E02004888
:103FD00008F808000008F808203F210101213F20CF
:103FE00049000808F8080800000020203F202000B1
:103FF000004A00000808F8080800C08080807F00A0
:1040000000004B08F888C028180800203F2001262F
:104010003820004C08F8080000000000203F202055
:10402000202030004D08F8F800F8F80800203F0084
:104030003F003F20004E08F830C00008F808203F3D
:10404000200007183F004FE01008080810E0000F9C
:1040500010202020100F005008F808080808F00071
:10406000203F21010101000051E01008080810E084
:10407000000F18242438504F005208F88888888888
:104080007000203F2000030C302053007088080887
:104090000838000038202121221C0054180808F894
:1040A000080818000000203F200000005508F8080C
:1040B000000008F808001F202020201F0056087864
:1040C000880000C83808000007380E01000057F8C3
:1040D0000800F80008F800033C0700073C030058FC
:1040E000081868808068180820302C03032C3020C2
:1040F000590838C800C83808000000203F200000D8
:10410000005A10080808C838080020382621202046
:1041100018005B000000FE020202000000007F4069
:104120004040005D00020202FE00000000404040EE
:104130007F0000005E000004020202040000000094
:1041400000000000005F0000000000000000808010
:1041500080808080808060000202040000000000F7
:1041600000000000000000610000808080800000EE
:104170000019242222223F206208F80080800000DB
:1041800000003F112020110E00630000008080809D
:104190000000000E1120202011006400000080802B
:1041A00088F800000E112020103F2065000080805C
:1041B00080800000001F22222222130066008080DF
:1041C000F0888888180020203F2020000067000029
:1041D000808080808000006B9494949360006808D5
:1041E000F8008080800000203F210000203F2069EF
:1041F00000809898000000000020203F2020000050
:104200006A000000809898000000C08080807F00D5
:10421000006B08F8000080808000203F24022D30D1
:1042200020006C000808F8000000000020203F205B
:104230002000006D8080808080808000203F2000F2
:104240003F20003F6E8080008080800000203F2162
:104250000000203F206F0000808080800000001F51
:10426000202020201F0070808000808000000080BF
:10427000FFA12020110E00710000008080808000CE
:10428000000E112020A0FF8072808080008080803E
:104290000020203F212000010073000080808080EA
:1042A0008000003324242424190074008080E080DE
:1042B0008000000000001F202000007580800000AA
:1042C00000808000001F202020103F20768080800A
:1042D000000080808000010E300806010077808099
:1042E0000080008080800F300C030C300F007800BD
:1042F000808000808080000020312E0E31200079E7
:10430000808080000080808080818E70180601008F
:104310007A00808080808080000021302C22213033
:10432000007B00000000807C020200000000003FD3
:1043300040407C00000000FF00000000000000FF83
:104340000000007D0002027C800000000040403F31
:10435000000000007E0006010102020404000000CB
:10436000000000000000000002400000000000A06B
:104370000000000005400000000000C80000000030
:104380000C4000000000409C0000000019400000AC
:104390000020BCBE0000000034400000BFC91B8EDE
:1043A00000000004B5400000504BCFD06607E2CFBC
:1043B000010000006C4100003E8251AADFEEA734EC
:1043C00001000000D9420000DCB5A0E23A301F979E
:1043D000FFFFFFFFB4450000FD25A0C8E9A3C14FC2
:1043E000FFFFFFFFFF3F0000000000800000000013
:1043F000FF3F00000000008000000000384400087B
:1044000000000020CC0400001C02000854460008F4
:10441000CC040020C4060000800200081C0000003C
:1044200043000000F8FFFFFF0C0000000E0000003A
:104430000F0000002E0000007005000C0240047008
:104440000B2000400080000003003004A101220185
:104450000553127A0E13F0100122FF050312F0002B
:1044600001130F040122FF0502110F1E1009404025
:10447000405F5555557504125F0C011121000C1158
:10448000200F094989790909090F201F200800FE1A
:1044900002424ACA4A030004114202FE20000E12E0
:1044A000FF40504C4340404F50505C40FFA013F839
:1044B000880122FF050213F8C0131F0801227F2084
:1044C00003109F80E233808201040913E2A2928AE2
:1044D00086828080020005140040807F190012103F
:1044E00000002020242424A4242420FF20222C2087
:1044F000203B000E10C07E40403F222220030C10C3
:104500002040A2040E111060020CC0021EE2020242
:1045100002E21E7E000E1104047C03808040201302
:104520000C132040A0259D10061F0424448406116E
:10453000010110601406080600003FA600071240A3
:10454000407001020C80168C84000911F2525A56F8
:104550005252F20280040E157E41300F2013498121
:104560007F010913200632FF610A144020117B42AB
:104570007F070911203500040A141008F714549419
:1045800014F40400040C1000011D13115599513F3F
:104590001101C0080E10FC96E584FC0008C8494AC9
:1045A000C808081E340A807F024C807F80601F0686
:1045B000064F7840000F1000C2BA8282FEA290FC23
:1045C0004B48F94A4881180620100846813E2804C5
:1045D000FF2222060510202E3C7C030409104048CF
:1045E00048487F48C84820040F10020602FF010116
:1045F00000020A1242827F02A07F0010BF030D1446
:10460000C003193C1805180601003D0711403FA0E2
:1046100019BD1007FEA3220022CCA30D12FE032C0D
:1046200007080601FF0001FE0300041104FF0280D9
:104630003D3C045F90088303051000180604448283
:104640007F01C10C0715432C1028468160032D946F
:044650000495DB00F2
:04000005080001E10D
:00000001FF
