:020000040800F2
:10000000000700202502000825030008FB02000865
:1000100021030008D50200089D030008000000002D
:10002000000000000000000000000000290300089C
:10003000F902000800000000270300082B03000855
:100040003F0200083F0200083F0200083F0200088C
:100050003F0200083F0200083F0200083F0200087C
:100060003F0200083F0200083F0200083F0200086C
:100070003F0200083F020008D9020008E902000818
:100080003F0200083F0200083F0200083F0200084C
:100090003F0200083F0200083F0200083F0200083C
:1000A0003F0200083F0200083F0200083F0200082C
:1000B0003F0200083F0200083F0200083F0200081C
:1000C0003F02000811030008010300083F02000876
:1000D0003F0200083F0200083F0200083F020008FC
:1000E0003F0200083F0200083F0200083F020008EC
:1000F0003F0200083F0200083F0200083F020008DC
:100100003F0200083F0200083F0200083F020008CB
:100110003F0200083F0200083F0200083F020008BB
:100120003F0200083F0200083F0200083F020008AB
:100130003F0200083F0200083F0200083F0200089B
:1001400000000000000000000000000000000000AF
:100150003F0200083F0200083F0200083F0200087B
:100160003F0200083F0200083F0200083F0200086B
:100170003F0200083F0200083F0200083F0200085B
:100180003F02000800F002F800F03CF80AA090E8F6
:10019000000C82448344AAF10107DA4501D100F042
:1001A00031F8AFF2090EBAE80F0013F0010F18BFD3
:1001B000FB1A43F0010318474023000060230000AE
:1001C000103A24BF78C878C1FAD8520724BF30C883
:1001D00030C144BF04680C60704700000023002455
:1001E00000250026103A28BF78C1FBD8520728BF47
:1001F00030C148BF0B6070471FB502F05BF91FBDEF
:1002000010B510BD00F033F81146FFF7F5FF01F00F
:100210003BFF00F051F803B4FFF7F2FF03BC00F01E
:10022000BFF800000948804709480047FEE7FEE79D
:10023000FEE7FEE7FEE7FEE7FEE7FEE7FEE7FEE796
:1002400004480549054A064B704700002D03000885
:1002500085010008000100200007002000030020A5
:10026000000300207047704770477047704775461D
:1002700000F02CF8AE4605006946534620F0070012
:10028000854618B020B5FFF7DBFFBDE820404FF0F2
:1002900000064FF000074FF000084FF0000B21F070
:1002A0000701AC46ACE8C009ACE8C009ACE8C0093D
:1002B000ACE8C0098D46704710B50446AFF3008026
:1002C0002046BDE81040FFF7A6BF00000048704779
:1002D0009C00002000BFFEE710B5024800F004FEBD
:1002E00010BD00006400002010B5024800F0FCFCC6
:1002F00010BD000064000020704700BFFEE7000052
:1003000010B5024800F0EDFE10BD000064000020B2
:1003100010B5024800F05BFF10BD00006400002033
:1003200000BFFEE770477047704770471848006885
:1003300040F47000164908601648006820F001007B
:10034000401C1449086000BF12480068C0F3400018
:100350000028F9D00F48406820F003000D4948609C
:1003600000BF0C484068C0F381000028F9D109485B
:100370000068094908400749086000204860086390
:100380004FF41F008860C803014980390860704736
:1003900088ED00E000100240FFFFF2FE00BFFEE724
:1003A00000BF704710B500F0D9FA002000F056F8F1
:1003B000012000F053F8022000F050F8002000F077
:1003C00075F8012000F072F8022000F06FF800F0DC
:1003D00001F810BD1CB501210B4800F0EBF968468F
:1003E00000F0C3FB01208DF8070000208DF8040009
:1003F0008DF806000120009028208DF80500694640
:10040000024800F0BDFB1CBD0200180000080140BE
:1004100010B50D48007801280DD100F017F850B143
:100420000020094908700A2000F0B4FA00F00EF824
:1004300038B1002010BD00F009F810B901200249C0
:1004400008700120F6E700005C00002010B50121D3
:10045000014800F0E9FB10BD000801401CB504464E
:100460000F4951F82400012100F0A4F9684600F07A
:100470007CFB01208DF8070000208DF8040010207F
:100480008DF80600074830F81400009004208DF81D
:100490000500054951F82400694600F071FB1CBDB8
:1004A000440000203C00002030000020022800DD35
:1004B0007047064931F8101031B1044931F8101075
:1004C000034A52F82020116100BFF1E73C000020F0
:1004D00030000020022800DD7047064931F8101076
:1004E00031B1044931F81010034A52F8202051610B
:1004F00000BFF1E73C00002030000020022800DDB2
:100500007047094931F8101059B1084951F82010C5
:10051000C968054A32F810205140044A52F8202098
:10052000D16000BFECE700003C000020300000205C
:1005300030B503460C46002106E0585C655CA842D5
:1005400001D0012030BD491C9142F6D30020F9E7CB
:100550000349496860F30711014A51607047000080
:10056000001002400349496860F30A21014A5160C2
:1005700070470000001002400349496860F3CD2134
:10058000014A51607047000000100240012807D165
:100590000749496D21F030013031054A516505E0C8
:1005A0000349496D21F03001014A5165704700004F
:1005B00000100240052827D2DFE800F0030A1118D6
:1005C0001F00134A126861F30002114B1A601CE00D
:1005D0000F4A126861F310420D4B1A6015E00C4A85
:1005E000126861F318620A4B1A600EE0084A126A38
:1005F00061F30002064B1A6207E0054A526A61F392
:100600000002034B5A6200E000BF00BF70470000C9
:10061000001002402DE9F04101460027002200258C
:1006200090460023002400F091F9064626B1012EE1
:1006300012D0022E43D112E03948406DC0F3402061
:1006400038B13748006BC0F3406010B135480860DE
:1006500001E03548086035E03348086032E0304852
:100660004068C0F300482E484068C0F383422C48DD
:100670004068C0F341750DB90F2A03D12801401C11
:10068000024400E0921CB8F1000F03D12748504308
:10069000086013E022484068C0F3404058B1204849
:1006A000406DC0F30137B81CDFF87CC0BCFBF0F034
:1006B0005043086002E01C485043086002E01A48BA
:1006C000086000BF00BF16484068C0F30313184815
:1006D000C45C0868E040486011484068C0F30223E9
:1006E0001448C45C4868E040C8600D484068C0F3E6
:1006F000C2231148C45C4868E040886008484068EC
:10070000C0F3007306484068C0F3813040EA8303B9
:100710000A48C45C8868B0FBF4F00861BDE8F08169
:1007200000100240006CDC0200127A0000093D005B
:10073000BE240008CE240008D6240008DE240008C9
:1007400010B501460020094B03EB1142126801F07D
:100750001F040123A3401A4001F01F040123A340FA
:100760009A4200D000E0012010BD000000100240BD
:100770000349496D60F30D31014A5165704700002E
:100780000010024030B50024002500E0641C112058
:10079000FFF7D6FF012802D0B4F5405FF6D3112051
:1007A000FFF7CEFF012801D0002500E001252846F3
:1007B00030BD000010B501290DD10E4B03EB1042E6
:1007C000126800F01F040123A3401A43094C04EBF4
:1007D00010431A600CE0074B03EB1042126800F064
:1007E0001F040123A3409A43024C04EB10431A60F8
:1007F00010BD00000010024010B501290DD10E4BB4
:1008000003EB1042126800F01F040123A3401A43B7
:10081000094C04EB10431A600CE0074B03EB104249
:10082000126800F01F040123A3409A43024C04EB1A
:1008300010431A6010BD00000010024010B568B9E6
:100840001C4B5B6823F480331A4C636023461B6B9C
:1008500023F0007303F10073236317E0154B5B680B
:1008600023F4803303F58033124C6360012805D1F3
:1008700023465B6823F40033636007E00D4B5B683D
:1008800023F4003303F500330A4C6360094B5B68C3
:1008900061F39543074C63600C09064B5B6864F396
:1008A0005E73044C636023465B6862F3DF736360CE
:1008B00010BD0000001002401348006820F0010045
:1008C000401C1149086000BF0F480068C0F3400099
:1008D0000028F9D00C48406820F003000A4948601D
:1008E00000BF09484068C0F381000028F9D10648DC
:1008F0000068064908400449086000204860086311
:100900004FF41F008860704700100240FFFFF2FEA6
:100910000D49496860F301010B4A516000BF00BFF7
:1009200000BF00BF00BF00BF00BF00BF00BF00BFCF
:1009300000BF00BF00BF00BF00BF00BF00BF00BFBF
:1009400000BF00BF7047000000100240024840682E
:10095000C0F38100704700000010024010B5042071
:1009600001F094FD074800680749B0FBF1F0074922
:100970000860084600684FF47A71484304490860EB
:1009800010BD00006000002040420F005000002019
:1009900054000020002131E032280ADD194A126893
:1009A00032235A434FF0E0235A61A0F1320290B251
:1009B00006E0144A126842434FF0E0235A610020D7
:1009C00000224FF0E0239A611A46126942F00102B8
:1009D0001A6100BF4FF0E022116901F001021AB163
:1009E00001F48032002AF5D04FF0E022126922F0A3
:1009F00001024FF0E0231A6100229A610028CBD156
:100A00007047000054000020026861F30002026099
:100A10007047002101604160018141810173417390
:100A20008173C1730174417470470000B0F1805F3D
:100A300004D920F07041034A116001E00249486086
:100A400070470000040402400000024001460020FC
:100A50000022B1F1805F02D9054B1A6801E0054B15
:100A60001A6802EA01030BB1012000E00020704780
:100A7000000402400000024002684BF6EF731A4087
:100A8000026002680B891A4302604B7C026863F3C0
:100A90000D320260CB7B026863F38B2202608B7B9A
:100AA000026863F3092202604B7B026863F3C7129A
:100AB00002600B7B026863F3861202600B7C0268A3
:100AC00063F3451202604A8942600A6882604A689C
:100AD000C26070471AB103680B43036002E0036809
:100AE0008B430360704700000021026822F001027E
:100AF00002600022026042608260C260014640F2F1
:100B0000FF420A40B2F5816F0DD2CAB2083A1423EF
:100B1000B2FBF3F293000F229A400D4B5B681A432D
:100B20000B4B5A6012E040F2FF420A40B2F5916F5F
:100B30000CD2CAB2083A1423B2FBF3F293000F228C
:100B40009A40044B1B681A43024B1A60704700001E
:100B5000000002400404024006E00020FFF7CEFC43
:100B60004FF4FA70FFF716FFF7E74FF6FF710160D9
:100B7000002181710171042141710121C17170470E
:100B8000F0B50A461588ABB29579032D01D1002442
:100B90001AE0957965B9557905F00F045579182D46
:100BA00001D1036110E05579282D0DD143610BE08F
:100BB000957905F00805167906F004063543D679CF
:100BC00006F0030645EA0604DDB2A5B1002110E0F7
:100BD00001258D401D405DB105688F000F26BE4088
:100BE000B543056005688E0004FA06F635430560D6
:100BF000491C0829ECD3FF2B15DD1B12002110E046
:100C000001258D401D405DB145688F000F26BE4017
:100C1000B543456045688E0004FA06F635434560E5
:100C2000491C0829ECD3F0BD0246002093680B4014
:100C30008B4200D000E0012070471AB901F0FE039A
:100C4000036102E041F0010303617047026861F350
:100C50008A220260704710B50446206801F0F2F85D
:100C6000204600F09BFB0121206800F035FA10BD02
:100C700001460869C0B27047016170472DE9F04133
:100C800004460D4616461F4600212846FFF7BCFEC7
:100C9000002202212846FFF71DFFA662E069A84254
:100CA00001D1102100E00021A18520681030606290
:100CB000E78504F124012846FFF7DEFE0122022128
:100CC0002846FFF707FF01212846FFF79DFEBDE8F4
:100CD000F081426861F3CB2242607047426861F361
:100CE0000C3242607047000010B50446784A216A11
:100CF000914201D1022159E0754A1432216A914290
:100D000001D1202152E0724A2832216A914201D158
:100D100049154BE06E4A3C32216A914202D14FF4B0
:100D2000005143E06A4A5032216A914202D14FF4A5
:100D300000313BE0664A6432216A914202D14FF4AD
:100D4000001133E0624A7832216A914201D189046C
:100D50002CE0604A216A914201D15F4926E05D4A58
:100D60001432216A914202D15B491E311EE0594A78
:100D70002832216A914201D1584917E0554A3C3244
:100D8000216A914201D1564910E0524A5032216AFB
:100D9000914201D1534909E04E4A6432216A91429D
:100DA00002D14FF0815101E04FF090510846FFF71A
:100DB0004DFE002873D000220221206AFFF78AFE30
:100DC000434A216A914201D1022159E0404A14323A
:100DD000216A914201D1202152E03D4A2832216A04
:100DE000914201D149154BE0394A3C32216A914286
:100DF00002D14FF4005143E0354A5032216A91420A
:100E000002D14FF400313BE0314A6432216A914211
:100E100002D14FF4001133E02D4A7832216A914219
:100E200001D189042CE02B4A216A914201D12A493F
:100E300026E0284A1432216A914202D126491E3105
:100E40001EE0244A2832216A914201D1234917E049
:100E5000204A3C32216A914201D1214910E01D4AC9
:100E60005032216A914201D11E4909E0194A643287
:100E7000216A914202D14FF0815101E04FF090512F
:100E80000846FFF7D3FD00212068FFF722FF00206E
:100E90002081E068052803D0072815D10EE015E071
:100EA0004FF48061206800F0B9F92089012802D050
:100EB000206801F082F80120606106E00122510201
:100EC000206800F05FFA00E000BF00BF10BD000026
:100ED0000800024008040240020000100002001056
:100EE000002000100000021010B50446744AE169A9
:100EF000914201D1022159E0714A1432E1699142D3
:100F000001D1202152E06E4A2832E169914201D19B
:100F100049154BE06A4A3C32E169914202D14FF4F3
:100F2000005143E0664A5032E169914202D14FF4E8
:100F300000313BE0624A6432E169914202D14FF4F0
:100F4000001133E05E4A7832E169914201D18904AF
:100F50002CE05C4AE169914201D15B4926E0594AA3
:100F60001432E169914202D157491E311EE0554ABF
:100F70002832E169914201D1544917E0514A3C328B
:100F8000E169914201D1524910E04E4A5032E16983
:100F9000914201D14F4909E04A4A6432E1699142E4
:100FA00002D14FF0815101E04FF090510846FFF718
:100FB0004DFD002873D000220221E069FFF78AFD71
:100FC0003F4AE169914201D1022159E03C4A143281
:100FD000E169914201D1202152E0394A2832E16988
:100FE000914201D149154BE0354A3C32E1699142C9
:100FF00002D14FF4005143E0314A5032E16991424D
:1010000002D14FF400313BE02D4A6432E169914254
:1010100002D14FF4001133E0294A7832E16991425C
:1010200001D189042CE0274AE169914201D1264986
:1010300026E0244A1432E169914202D122491E314C
:101040001EE0204A2832E169914201D11F4917E090
:101050001C4A3C32E169914201D11D4910E0194A14
:101060005032E169914201D11A4909E0154A6432CE
:10107000E169914202D14FF0815101E04FF090516E
:101080000846FFF7D3FC00212068FFF722FE00206E
:101090002081E068042803D006280DD106E00DE089
:1010A00001225102206800F06DF906E001221102D0
:1010B000206800F067F900E000BF00BF10BD00002D
:1010C0000800024008040240020000100002001064
:1010D0000020001000000210026861F300020260AC
:1010E000704710B504464FF48071206800F0AAF8EC
:1010F00030B14FF48071206800F090F81320207612
:101100004FF40071206800F09DF830B14FF4007189
:10111000206800F083F8132020764FF48061206867
:1011200000F090F8C0B14FF48061206800F076F8CC
:10113000E06806280CD100212068FFF787FD002217
:101140004FF40071206800F01DF90120606102E099
:101150001320207600BF00BF4FF40061206800F02C
:1011600071F830B14FF40061206800F057F8132097
:1011700020764FF48051206800F064F830B14FF4CD
:101180008051206800F04AF8132020764FF4804107
:10119000206800F057F830B14FF48041206800F02B
:1011A0003DF8132020764FF40041206800F04AF803
:1011B00030B14FF40041206800F030F81320207661
:1011C00000224FF48071206800F0DCF810BD10B5EB
:1011D0000446E06808281ED2DFE800F004080C107E
:1011E000141D1819204600F058FA15E0204600F0AA
:1011F000C5F911E0204600F083FE0DE0204600F026
:101200004FFE09E0204600F035FA05E000BF204619
:1012100000F0ABFE00E000BF00BF10BD01F45F4274
:10122000D24392B24261426902F0020202B1826983
:10123000426902F0100222B1026822F00102521C3F
:10124000026070470CB50246002001900090080F24
:10125000019021F07F41019810B95069009002E09F
:10126000090C906900900098084008B101200CBD5D
:101270000020FCE72DE9F04385B004468946154679
:101280000027B8460026206820F00100206068464C
:10129000FFF7C0F93648844202D03648844201D173
:1012A000039F03E03448844200D1029F3348B7FBD8
:1012B000F0F01FFA80F8606868F30700606030485B
:1012C00085421FD86800B7FBF0F086B2042E00DA22
:1012D0000426E06966F30B00E061E06920F4004059
:1012E000E06108F101003F2805DD206A20F03F00A1
:1012F0003F30206239E008F10100216A60F3050106
:10130000216232E0B9F1000F09D105EB4500B7FBCE
:10131000F0F086B2E06920F48040E0610CE005EB7B
:10132000C50000EB0510B7FBF0F086B2E06920F4D1
:10133000804000F58040E06106B90126E06966F36F
:101340000B00E061E06920F4004000F50040E0613E
:101350004FF4967008FB00F04FF47A7190FBF1F0B7
:10136000401C216A60F30501216205B0BDE8F083ED
:101370000054004000580040005C014040420F0013
:10138000A086010010B51AB143680B43436004E026
:101390004368CC43A4B22340436010BD1CB504464F
:1013A0003B492068884271D101213A48FFF702FA8F
:1013B00001213948FFF7FEF901213748FFF7FAF913
:1013C00004208DF8040018208DF8050008208DF801
:1013D000060002208DF807004002009069462F4861
:1013E000FFF7CEFB4FF40060009069462B48FFF7F3
:1013F000C7FB002211460E2000F01CFF0022114600
:101400000F2000F017FF00221146212000F012FFEC
:1014100000221146222000F00DFF01214FF4A01000
:10142000FFF7C8F9E069FFF75FFB206AFFF75CFB95
:101430001B48E0611A481430206204F12400FFF7D1
:10144000E8FA002130200155012131200155002109
:1014500032200155332001553420015535200155E6
:101460001021A18504F12401E069FFF705FB04F1D7
:101470002401206AFFF700FB0A4A00212068FFF7D9
:10148000F9FEA0220021206800F0D2FC1CBD000063
:101490000058004016001C0003001800000C01401A
:1014A00044000240A086010070B504460D46164671
:1014B00001212068FFF7CAFB206800F077FD334662
:1014C00000220121204600F091FD10B10D20207670
:1014D00070BD20688068C0F3C03028B9E9B201222D
:1014E0002068FFF7AAFB38E005F44072F02343EAD6
:1014F000E2112068FFF7C0FB334601220821204695
:1015000000F074FD10B10E202076E1E7E9B220680A
:10151000FFF7B2FB334601220221204600F066FDB0
:1015200010B10F202076D3E702212068FFF776FE66
:10153000206800F03BFD334600220121204600F0E8
:1015400055FD10B10D202076C2E705F44072F1235D
:1015500043EAE2112068FFF78FFB334601220221A4
:10156000204600F043FD10B10F202076B0E70020A8
:10157000AEE7026861F3CB220260704710B5044603
:1015800004212068FFF75EFE00283FD02089032851
:101590000ED100212068FFF759FB2068FFF768FB98
:1015A0006268511C616010702089401E208160E0DB
:1015B000208902281FD1206800F0FFFC2068FFF777
:1015C00057FB6268511C616010702089401E2081A9
:1015D0002068FFF74DFB6268511C61601070208924
:1015E000401E20810120606100224FF4E0612068EC
:1015F000FFF7C8FE3DE02068FFF73AFB6268511C28
:10160000616010702089401E208132E040212068F6
:10161000FFF718FE68B3208903280ADD2068FFF76A
:1016200027FB6268511C616010702089401E208178
:101630001FE02089032802D02089022806D1002239
:101640004FF480612068FFF79DFE12E02068FFF7ED
:101650000FFB01466268501C606011702089401EBB
:1016600020810120606100224FF4E0612068FFF7D3
:1016700089FE10BD10B5044604212068FFF7E2FD85
:1016800050B1206800F099FC00224FF400712068EE
:10169000FFF778FE0120606110BD10B5044680217F
:1016A0002068FFF7CFFDB8B1208958B901206061EB
:1016B00000224FF4E0612068FFF764FE206800F02C
:1016C0007CFC09E063685A1C626019782068FFF7A7
:1016D000D3FA2089401E208110BD70B504460D4606
:1016E0001646206800F062FC3346002201212046A5
:1016F00000F07CFC10B10D20207670BD2068806861
:10170000C0F3C03028B9E9B200222068FFF795FA8B
:1017100015E005F44072F02343EAE2112068FFF778
:10172000ABFA334601220821204600F05FFC10B1DD
:101730000E202076E1E7E9B22068FFF79DFA3346F4
:1017400001220221204600F051FC10B10F2020762A
:10175000D3E70020D1E72DE9F04104460F461546B6
:101760009846012F04D1E9B22068FFF785FA15E009
:10177000290A2068FFF780FA43460122802120468B
:1017800000F034FC06462EB1206800F016FC30460E
:10179000BDE8F081E9B22068FFF76EFA0020F7E7B4
:1017A0002DE9F04704468A4617469846DDE909695F
:1017B000089D65602681002020764B4600227B49EB
:1017C000204600F013FC10B10120BDE8F087002195
:1017D0002068FFF7CEFE01212068FFF737FA4A465E
:1017E00039462046FFF779FF20B1206800F0E5FB7D
:1017F0000220EAE702212068FFF710FD4B46012294
:101800008021204600F0F2FB20B1206800F0D5FBDB
:101810000320DAE74B46424651462046FFF79BFF3E
:1018200008B10420D1E74B4601228021204600F078
:10183000DDFB20B1206800F0C0FB0520C5E74A466B
:1018400039462046FFF730FE20B1206800F0B5FB96
:101850000620BAE7012E0BD100212068FFF7F6F928
:1018600002212068FFF7DAFC206800F0A6FB16E0F2
:10187000022E0CD101212068FFF77BFE0221206897
:10188000FFF7CCFC00212068FFF7E0F907E0012119
:101890002068FFF7DBF902212068FFF7BFFC7FE03B
:1018A000032E6ADC012E13D14B4600224021204634
:1018B00000F09CFB20B1206800F07FFB072084E74C
:1018C0002068FFF7D5F905F8010B701E86B267E0B6
:1018D000022E1DD14B4600220421204600F086FB3B
:1018E00020B1206800F069FB08206EE7206800F056
:1018F00064FB2068FFF7BCF905F8010B701E86B287
:101900002068FFF7B5F905F8010B701E86B247E0B5
:101910004B4600220421204600F068FB20B12068DD
:1019200000F04BFB092050E700212068FFF78EF9FB
:101930002068FFF79DF905F8010B701E86B24B4633
:1019400000220421204600F051FB20B1206800F065
:1019500034FB0A2039E7206800F02FFB2068FFF7EE
:1019600087F905F8010B701E86B22068FFF780F931
:1019700005F8010B701E86B212E04B460022402192
:10198000204600F033FB20B1206800F016FB0B204E
:101990001BE72068FFF76CF905F8010B701E86B293
:1019A000002E3FF77DAF00200FE70000000002107F
:1019B0002DE9F04704468A4617469846DDE9089522
:1019C0000A9E0520E06000206061C4F80490258133
:1019D00026612076334600223A49204600F006FB75
:1019E00010B10120BDE8F08700212068FFF7C1FD9C
:1019F00001212068FFF72AF900212068FFF769F923
:101A00002B464A462046216AFFF738F932463946C6
:101A10002046FFF762FE20B1206800F0CEFA0220D7
:101A2000E0E702212068FFF7F9FB3346012280211D
:101A3000204600F0DBFA20B1206800F0BEFA032057
:101A4000D0E73346424651462046FFF784FE08B1B0
:101A50000420C7E7334601228021204600F0C6FA61
:101A600020B1206800F0A9FA0520BBE732463946CC
:101A70002046FFF719FD20B1206800F09EFA0620ED
:101A8000B0E7012D0FD102212068FFF7C7FB00212D
:101A90002068FFF7DBF8206800F08FFA012120684A
:101AA000FFF717F90BE001212068FFF717F9012173
:101AB0002068FFF70EF902212068FFF7AFFB002036
:101AC00090E70000000002102DE9F0470446884628
:101AD00016461F46DDE9089A0A9D0120E0600020B5
:101AE0006061C4F80490A4F808A0256120762B4614
:101AF00000223B49204600F079FA10B10120BDE8F0
:101B0000F08700212068FFF734FD2A463146204641
:101B1000FFF7E3FD20B1206800F04FFA0220EEE766
:101B200002212068FFF77AFB2B4601228021204604
:101B300000F05CFA20B1206800F03FFA0320DEE7F5
:101B40002B463A4641462046FFF705FE08B10420E1
:101B5000D5E72B4601228021204600F047FA20B12C
:101B6000206800F02AFA0520C9E72A4631462046B7
:101B7000FFF79AFC20B1206800F01FFA0620BEE7AC
:101B8000208901280BD100212068FFF75FF802218E
:101B90002068FFF743FB206800F00FFA17E0208968
:101BA00002280CD101212068FFF7E3FC0221206804
:101BB000FFF734FB00212068FFF748F807E0012118
:101BC0002068FFF743F802212068FFF727FB012276
:101BD0004FF4E0612068FFF7D5FB00208FE700009D
:101BE000000002102DE9F04704468A461746984641
:101BF000DDE90969089D65602681002020764B4655
:101C000000222B49204600F0F1F910B10120BDE877
:101C1000F08700212068FFF7ACFC4A463946204691
:101C2000FFF75BFD20B1206800F0C7F90220EEE766
:101C300002212068FFF7F2FA4B460122802120465C
:101C400000F0D4F920B1206800F0B7F90320DEE7F6
:101C50004B46424651462046FFF77DFD08B1042021
:101C6000D5E712E04B4601228021204600F0BEF964
:101C700020B1206800F0A1F90520C8E715F8011B84
:101C80002068FEF7F9FF701E86B2002EEADC4B4694
:101C900001220421204600F0A9F920B1206800F0BB
:101CA0008CF90620B3E7206800F087F90020AEE742
:101CB000000002102DE9F04704468A4616461F46EA
:101CC000DDE908890A9D0420E06000206061C4F815
:101CD0000480A4F80890256120762B46002226492E
:101CE000204600F083F910B10120BDE8F087002103
:101CF0002068FFF73EFC00212068FEF7EAFF4B4614
:101D000042462046E169FEF7B9FF2A4631462046A1
:101D1000FFF7E3FC20B1206800F04FF90220E4E770
:101D200002212068FFF77AFA2B4601228021204603
:101D300000F05CF920B1206800F03FF90320D4E7FF
:101D40002B463A4651462046FFF705FD08B10420D0
:101D5000CBE72B4601228021204600F047F920B135
:101D6000206800F02AF90520BFE701212068FEF76E
:101D7000B0FF0020B9E70000000002102DE9F04795
:101D80000446884616461F46DDE9089A0A9D00204B
:101D9000E0606061C4F80490A4F808A02561207692
:101DA0002B4600222149204600F020F910B10120E5
:101DB000BDE8F08700212068FFF7DBFB2A463146AB
:101DC0002046FFF78AFC20B1206800F0F6F80220D8
:101DD000EEE702212068FFF721FA2B46012280213D
:101DE000204600F003F920B1206800F0E6F8032057
:101DF000DEE72B463A4641462046FFF7ACFC08B1E9
:101E00000420D5E72B4601228021204600F0EEF881
:101E100020B1206800F0D1F80520C9E701224FF475
:101E2000E0612068FFF7AEFA0020C1E70000021071
:101E3000836861F3CF338360836862F3090383604F
:101E40007047000010B504461148844208D10121B2
:101E50008012FEF7D1FC0021A012FEF7CDFC16E0A7
:101E60000C48844208D101218012FEF7C5FC0021F4
:101E7000A012FEF7C1FC0AE00748844207D1012105
:101E80000648FEF7B9FC00210448FEF7B5FC10BD7A
:101E90000054004000580040005C014017000C0056
:101EA00010B5044602212068FFF7CCF920B10221C9
:101EB0002068FFF7B3F922E040212068FFF7C2F95C
:101EC00060B12089D8B12068FEF7D2FE6268511C4B
:101ED000616010702089401E208110E01021206870
:101EE000FFF7B0F958B110212068FFF797F90120EA
:101EF000606100224FF4E0612068FFF743FA10BDF3
:101F000010B5044602212068FFF79CF920B1022198
:101F10002068FFF783F927E080212068FFF792F916
:101F200010B3208900B363685A1C62601978206876
:101F3000FEF7A2FE2089401E20812089A0B9002240
:101F40004FF4E0612068FFF71DFA236900224FF487
:101F50008061204600F04AF860614FF4806120689B
:101F6000FFF75CF90120606110BD10B50446022145
:101F70002068FFF767F918B102212068FFF74EF9D2
:101F800010212068FFF75EF978B110212068FFF773
:101F900045F900224FF400712068FFF7F3F90121A1
:101FA0002068FEF753FE0120606110BD016821F436
:101FB000807101F5807101607047016821F4007142
:101FC00001F5007101607047024605E0081EA1F1AD
:101FD000010101D11220704750690128F6D1107E0D
:101FE00008B1107EF7E70020F5E700002DE9F04189
:101FF00004460F4615461E46224887420FD107E089
:10200000301EA6F1010603D112202076BDE8F08132
:1020100039462068FFF716F90028F1D130E029E0B1
:1020200005F0010080B14FF480612068FFF70AF9E4
:1020300050B12068FFF7C1FF4FF480612068FFF7BF
:10204000EDF811202076E1E705F0020058B11021EB
:102050002068FFF7F7F830B110212068FFF7DEF8AD
:1020600010202076D2E7301EA6F1010602D1122000
:102070002076CBE739462068FFF7E4F80028CFD078
:102080000020C3E7000002100EB5032000F036F96F
:1020900000F048F9FEF786F95E485F490860084697
:1020A000FEF7D9FDB5E000BFFEF7B2F90028FBD17D
:1020B000401E0821594A0023CDE900210290A022A8
:1020C00001215548FFF78EFD041E02D02046FEF781
:1020D00043FD0520FEF75EFC4FF0FF300821504A1B
:1020E0000023CDE900210290A02201214A48FFF7F8
:1020F00057FB041E02D02046FEF72EFD4FF0FF30A6
:102100000821484A0023CDE900210290A0220121A4
:102110004148FFF733FE041E02D02046FEF71CFDA7
:102120004FF0FF313C48FFF74FFF10B12046FEF75C
:1021300013FD0520FEF72EFC4FF0FF3008213A4A30
:102140000023CDE900210290A02201213248FFF7AF
:10215000BBFC041E02D02046FEF7FEFC4FF0FF3110
:102160002D48FFF731FF10B12046FEF7F5FC4FF088
:10217000FF3008212D4A0023CDE900210290A02242
:1021800001212548FFF796FD041E02D02046FEF7E8
:10219000E3FC4FF0FF312048FFF716FF10B1204657
:1021A000FEF7DAFC0520FEF7F5FB4FF0FF300821C3
:1021B0001F4A0023CDE900210290A02201211648E8
:1021C000FFF7F6FB041E02D02046FEF7C5FC4FF0D9
:1021D000FF311148FFF7F8FE10B12046FEF7BCFCB6
:1021E00008220F490D48FEF7A3F978B908220E49D5
:1021F0000C48FEF79DF948B908220D490B48FEF737
:1022000097F918B90120FEF765F902E02046FEF7BC
:10221000A3FC48E7005800406400002000000020B4
:1022200018000020080000202000002010000020DE
:10223000280000202DE9F0470B4614464FF0000C13
:1022400000BF2C4A1268C2F302211D4626460A46E8
:10225000C2F10709B9F1040F02D94FF0040901E0F6
:10226000C2F10709C84602F10409B9F1070F02D209
:102270004FF0000901E0A2F103094F464FF00109B8
:1022800009FA08F9A9F1010909EA050909FA07F9A2
:102290004FF0010A0AFA07FAAAF1010A0AEA060A45
:1022A00049EA0A09CC4601466246002904DB1507C3
:1022B0002E0E114D6E5407E015072F0E0D4D0C35E7
:1022C00001F00F06361FAF5500BF014600290DDB98
:1022D00000BF00BF01F01F050122AA404D09AD005B
:1022E00005F1E025C5F8002100BF00BF00BFBDE833
:1022F000F08700000CED00E000E400E000BF00F01B
:102300000702064B19684FF6FF031940044B0B43B5
:1023100043EA0221014B196000BF70470CED00E059
:102320000000FA0510B5FEF7C7FA01210846FEF7CE
:1023300041F900BFFEF726FA0028FBD00122312127
:102340000220FEF77BFA0020FEF712FA012102209C
:10235000FEF730F900BF1920FEF7F2F90128FAD193
:102360000020FEF7F5F80420FEF706F90420FEF73A
:10237000F9F80120FEF70AF90220FEF7C9FA00BFBA
:10238000FEF7E4FA0228FBD10020FEF7FFF800F088
:1023900001F810BD2DE9F047002600240025002794
:1023A000A046A146FEF7D2FA8246BAF1000F06D047
:1023B000BAF1010F15D0BAF1020F46D115E02D4840
:1023C000406DC0F3402040B12A48006BC0F340602C
:1023D00018B129482949086002E0294827490860BE
:1023E00037E027482549086033E022484068C0F3B9
:1023F000004720484068C0F383441E484068C0F34B
:1024000041750DB90F2C03D12801401C044400E094
:10241000A41C27B91B4860431849086014E01548FC
:102420004068C0F3404058B11248406DC0F30136D7
:10243000B01C1349B1FBF0F060431049086003E0A1
:102440000F4860430D49086003E00D480B490860E0
:1024500000BF00BF07484068C0F303180A4810F8DF
:1024600008900648006820FA09F004490860BDE8B1
:10247000F087000000100240006CDC0260000020C9
:1024800000127A0000093D00E6240008042808D163
:102490004FF0E021096941F004014FF0E0221161A1
:1024A00007E04FF0E021096921F004014FF0E0223C
:1024B000116170474FF04070E1EE100A7047000064
:1024C00000000000000001020304060708090000E4
:1024D00000000102030400000000010203040204E2
:1024E0000608020C081000000000000000000102B5
:1024F0000304060708090000182500080000002052
:1025000064000000C00100087C2500086400002071
:102510009C060000DC010008010203040506070810
:102520001020304050607080112233445566778807
:10253000000000000000000000000000000000009B
:1025400000000000000000000014014000140140E1
:102550000014014000200040008000000500180029
:102560000500180005001800000000000000000031
:0C257000000000000100000000127A00D2
:040000050800018569
:00000001FF
