:020000040800F2
:10000000A0400020F90100085F1D0008F11300085E
:100010004F1D00084F110008CD1F00080000000010
:10002000000000000000000000000000151F000894
:100030009511000800000000611D0008171F00084E
:10004000130200081302000813020008130200083C
:10005000130200081302000813020008130200082C
:10006000130200081302000813020008130200081C
:10007000130200081302000813020008130200080C
:1000800013020008130200081302000813020008FC
:1000900013020008130200081302000813020008EC
:1000A00013020008130200081302000813020008DC
:1000B00013020008130200081302000813020008CC
:1000C00013020008130200081302000813020008BC
:1000D00013020008130200081302000813020008AC
:1000E000130200081302000813020008130200089C
:1000F00013020008130200080000000000000000C6
:1001000000000000000000000000000013020008D2
:10011000130200081302000813020008130200086B
:10012000130200081302000813020008130200085B
:100130001302000800000000000000001302000885
:10014000130200081302000813020008130200083B
:100150001302000813020008000000001302000848
:100160001302000813020008000000000000000055
:10017000000000000000000000000000000000007F
:100180000000000013020008130200081302000818
:10019000000000000000000000000000000000005F
:1001A000000000000000000000000000000000004F
:1001B0000000000000000000130200080000000022
:1001C000000000000000000000000000000000002F
:1001D0000000000000000000000000001302000802
:1001E000DFF810D000F0C4FD00480047ADFD000866
:1001F000AFF30080A0400020064880470648004733
:10020000FEE7FEE7FEE7FEE7FEE7FEE7FEE7FEE7C6
:10021000FEE7FEE7191F0008E10100080C49087815
:1002200020B1401E0870491C085C7047002107205F
:10023000ABBE7047064A1178022902D34FF0FF3057
:100240007047034B5B1C5854491C117070470000E9
:10025000840000202DE9F05F0546002092469B4671
:1002600088460646814640241BE0284641464746CC
:10027000224600F060F853465A46C01A914110D306
:1002800011461846224600F047F82D1A67EB010880
:100290004F4622460120002100F03EF817EB0009EE
:1002A0004E41201EA4F10104DFDC484631462A46B7
:1002B0004346BDE8F09F2DE9F0410024061B25468A
:1002C00071F1000605DA01240027D0EB070067EB87
:1002D0000101161E73F1000605DA0027D2EB0702B2
:1002E000012567EB0303FFF7B5FF86460E46174669
:1002F0009C46AC4204D00025D0EB050E65EB010610
:1003000024B10020D2EB000760EB030C70463146AD
:100310003A466346BDE8F081202A04DB203A00FA21
:1003200002F1002070479140C2F1200320FA03F34C
:10033000194390407047202A04DB203A21FA02F04A
:100340000021704721FA02F3D040C2F1200291400F
:10035000084319467047000000487047F439010807
:1003600010B50446FFF7F8FF0068005D00F00100DB
:1003700010BDA0F16101192900D820387047000094
:1003800000487047003A010840EA01039B0703D088
:1003900009E008C9121F08C0042AFAD203E011F8C4
:1003A000013B00F8013B521EF9D27047CAB2401E11
:1003B00010F8011F8A4202D00029F9D100207047AD
:1003C000421C10F8011B0029FBD1801A704710B5A0
:1003D000002200E0521C835C8C5CA34201D1002B04
:1003E000F8D1D8B2E1B2401A10BD30B504460020B1
:1003F000034600E05B1C934203D2E05CCD5C401BF3
:10040000F8D030BDFFF7E3BF034611F8012B00F829
:10041000012B002AF9D11846704730B50546002057
:10042000034600E05B1C934205D2EC5CC85C201ADA
:1004300001D1002CF6D130BD30B503461D783DB159
:100440000A4612F8014B1CB1AC42FAD15B1CF5E72D
:10045000181A30BD10B508E00A4602E0A34208D0E1
:10046000521C1378002BF9D1401C0478002CF3D1D6
:10047000002010BD07280FD2DFE800F00406080EA8
:100480000E0C0A0005A070470AA0704713A0704721
:100490001DA0704722A070472BA070474E6F2065AB
:1004A00072726F7220286572726E6F203D20302943
:1004B0000000000045444F4D202D2066756E63748A
:1004C000696F6E20617267756D656E74206F7574EB
:1004D000206F662072616E67650000004552414ED4
:1004E0004745202D2066756E6374696F6E207265B6
:1004F00073756C74206E6F742072657072657365AD
:100500006E7461626C650000454E4F4D454D202D67
:10051000206F7574206F66206D656D6F72790000B5
:1005200045494E56414C202D20696E76616C6964B8
:1005300020617267756D656E7420746F2066756ECC
:100540006374696F6E000000556E6B6E6F776E207E
:100550006572726F720000002DE9FE4F804681EADD
:100560000300C00F0C46009021F0004123F000452D
:10057000B8EB0200A94105D24046214690461C46F0
:100580000B46024623F00040104347D0270DC7F327
:100590000A00C3F30A510290401A019040286BDA16
:1005A000C3F3130040F4801B0098924620B100234F
:1005B000D2EB030A63EB0B0B01985946C0F14002E2
:1005C0005046FFF7A9FE06460D4650465946019A89
:1005D00000F015FA10EB08006141002487EA11527F
:1005E00084EAE7731A4340D0009A62B3019A012A61
:1005F0004FEA075215DC001B61EB02014FF000428D
:1006000002EA0752CDE90042001C41F58011324652
:100610002B4600F09BFA03B0BDE8F08F4046214620
:10062000F9E7001B61EB0201001C41F58013001883
:100630005B412018A2F5001747EB030140EAD57093
:10064000B6196D4111E06D084FEA360645EAC075EE
:100650004FEA0752001B61EB0201001C41F58011BB
:1006600049084FEA30000019514132462B4603B089
:10067000BDE8F04F00F05BBA009801224000002373
:10068000D0EB020263EBE073009821464FEAE0747E
:10069000B8EB000061EB0401E9E783F000435BE79E
:1006A00081F0004158E72DE9FE4F81EA030404F090
:1006B000004421F0004100944FF0000B23F0004370
:1006C00050EA01045ED052EA03045BD0C3F30A543B
:1006D000C1F30A552C44A4F2F3340194A0FB025454
:1006E000C1F3130141F48011C3F3130343F48013E6
:1006F00001FB024400FB034E840A970A44EA81543A
:1007000047EA8357A4FB076802958D0A05FB078516
:100710004FEA932C04FB0C542705029D4FEA065820
:1007200047EA1637B5EB08056EEB070C870E920EFD
:1007300047EA811742EA8312A7FB0201B6EB0B01DD
:1007400064EB00042B0D43EA0C335E1844EB1C50A1
:10075000DA465146E7FB0201C5F313044FEA0B33B7
:1007600043EA14534FEA0432019C43EA0603A4F11E
:100770000C040294009CCDE900B400F0E7F903B04A
:10078000BDE8F08F00200146F9E72DE9F04D81EA40
:10079000030404F0004B21F0004514464FF0000A1A
:1007A00023F0004150EA050220D054EA01021DD096
:1007B000C5F30A570246C5F31303C1F31300C1F38F
:1007C0000A5640F4801543F48013A7EB0608101B6B
:1007D000D64608F2FD3873EB050002D308F1010894
:1007E00001E092185B41B8F1000F03DA00200146E6
:1007F000BDE8F08D00204FF48011064684460EE0DF
:10080000171B73EB050705D3121B63EB05030643A8
:100810004CEA010C49084FEA300092185B4150EA5B
:100820000107EDD152EA030012D082EA040083EA04
:100830000501084305D0101BAB4106D2012200235D
:1008400006E000224FF0004302E06FF00102531077
:100850001AEB06004CEB085110EB0A0041EB0B01C0
:10086000BDE8F04D00F063B90EB5C10F80EAE0704D
:100870000844CA07002140F233438DE80E000A46BF
:100880000B4600F063F903B000BD3EB5CA17CB0FAD
:10089000002450405140C0186141DA0740F2334310
:1008A0000094CDE901232246234600F04FF903B01E
:1008B00030BD70B5C1F30A5201F000450024C1F308
:1008C000130140F2FF3341F480119A4202DA002012
:1008D000014670BD40F233439A42A2F2334203DC38
:1008E0005242FFF728FD01E0FFF716FD2C43F0D040
:1008F0000023D0EB030063EB010170BD30B5041E93
:1009000071F1000404DB4FF00044404264EB01014C
:10091000141E73F1000405DB1C464FF000435242E5
:1009200063EB04038B4208BF824230BD30B5041E26
:1009300071F1000404DB4FF00044404264EB01011C
:10094000141E73F1000405DB1C464FF000435242B5
:1009500063EB0403994208BF904230BD01F00043AD
:1009600030B421F0004150EA010206D00A0DA2F590
:100970006072C1F31301002A02DC30BC0020704712
:10098000440F44EAC104C100E01830BC00EBC2507F
:1009900000F096B8A0E8004FF0C040F804DB01B5C5
:1009A000AFF30080BDE8024001C10020704700F1B4
:1009B0002C080C4658F8040DAFF3008058F8040DCD
:1009C0008546200008BF012038E9F00018E9004FF3
:1009D000704730B50B46014600202022012409E073
:1009E00021FA02F59D4205D303FA02F5491B04FAE8
:1009F00002F52844151EA2F10102F1DC30BD202AC7
:100A000006DBCB17203A41FA02F043EAE07306E036
:100A100041FA02F3D040C2F1200291400843194646
:100A2000704700000FB4002300B589B00CA90091F5
:100A30000B996FF00042CB601E4B06931E4B079341
:100A40000423CDE901321D4A089202466B4600207C
:100A500000F034FA09B05DF814FB70B586B00646B4
:100A60004FF0FF300091CDE90101002015460C4602
:100A700004903246694604A8FFF7D4FF0246049862
:100A8000211825B108B1084600E0204628600498E6
:100A900000280DD0002A02DD0098884208D0081BEB
:100AA0000094CDE901043246694604A8FFF7BAFF75
:100AB00006B070BDF51000081311000861030008AE
:100AC0000029A8BF7047401C490008BF20F0010062
:100AD000704710B4B0FA80FC00FA0CF050EA010440
:100AE00004BF10BC704749B1CCF1200421FA04F4D2
:100AF00011FA0CF118BF012121430843A3EB0C01AB
:100B0000CB1D4FEA00614FEA102042BF002010BC0D
:100B1000704700EBC35010440029A4BF10BC7047BD
:100B2000401C490008BF20F0010010BC704710B500
:100B3000141E73F1000408DA401C41F10001921800
:100B40005B411A4301D120F0010010BD2DE9F04DA9
:100B500092469B4611B1B1FA81F202E0B0FA80F2FE
:100B600020329046FFF7D8FB04460F4640EA0A00C1
:100B700041EA0B0153465A46084313D0114653EA43
:100B8000010019D0C8F140025046FFF7D4FB0546DA
:100B90000E46504659464246FFF7BEFB084305D075
:100BA000012004E020463946BDE8F08D00200543D1
:100BB00046EAE0762C4337430A986305E40AA0EB43
:100BC00008000022FD0A44EA47540A3002D50020FA
:100BD0000146E9E7010510196941DDE908450019F9
:100BE0006941BDE8F04DA2E770B521F00043034331
:100BF0000CD0C1F30A550024D5EB040564EB0403C3
:100C0000D617AD1AB34102DB0020014670BD201893
:100C100041EB025170BD2DE9F04D00231A461B1A1D
:100C20008A4103DB00200146BDE8F08DC1F30A5282
:100C3000C1F3130141F480154FF0000BD10702D12D
:100C400000186D41521E0027044640F2FF1138463D
:100C500001EB620A3E468046024600204FF48011B6
:100C6000FFF769FBC2197141BB1846EB0100B4EBF9
:100C7000030C75EB000C04D3E41A65EB0005174672
:100C80000E46241908F101006D4180463428E3DD49
:100C9000F91946EB0600091BA84103D24FF0FF32B9
:100CA000134601E0002213461BEB070046EB0A51F6
:100CB000BDE8F04DFFF73BBF2DE9FE4FC3F30A57E8
:100CC00001F000450024C1F30A56C3F31303C1F336
:100CD000130143F4801312EB020AA64641F480117B
:100CE000009543EB030CA7F1010B16E0B0EB0A00F3
:100CF00061EB0C01071E71F1000707DA4FF00008E5
:100D0000D0EB080085F0004568EB0101171A73EB82
:100D10000107EBD3761E001849415E45F6DA50EA2A
:100D2000010209D0CDE900E5002213460296FFF743
:100D30000DFF03B0BDE8F08F20460099F9E7C1F33D
:100D40000A52C1F3130140F2FF3341F480119A4279
:100D500002DA00200146704740F233439A42A2F281
:100D6000334202DC5242FFF7E6BAFFF7D5BA000081
:100D7000064C074D06E0E06840F0010394E80700E8
:100D800098471034AC42F6D3FFF72EFA7C3F0108A7
:100D90009C3F01082DE9FF4F087883B09946FF2852
:100DA00005D0491C2D2804D00024002008E0002094
:100DB0000BE00124F9E700EB800003EB4000491C45
:100DC0000B78FF2BF7D104B1404200230293147833
:100DD00019461D462D2C01D02B2C04D1521C2D2C34
:100DE00013D000240294AA461478FF2C0FD00A25B1
:100DF000A3FB057801FB05814FF0000C03FB0C11F0
:100E0000521CE3194AEB0101EEE70124EAE78144B1
:100E100053EA010002D019F5C87F06DA03980021D1
:100E2000C0E9001107B0BDE8F08F0025AE4E2F4697
:100E3000DFF8B882184600F07DF9CDE90001B9F17C
:100E4000000002DAC9F1000400E004460023A74ACA
:100E50001AEB030B42EB045A12E0E00707D02A46D4
:100E6000334638464146FFF71EFC074688462A4669
:100E7000334610461946FFF716FC05460E46641029
:100E8000002CEAD1DDE90001B9F1000F5A465346C2
:100E900006DAFFF77AFC3A464346FFF776FC05E0B0
:100EA000FFF701FC3A464346FFF7FDFB029A0AB101
:100EB00081F00041039AC2E90001B3E72DE9FF4F39
:100EC0001F468DB0D7E901464FF0FF382E2045462A
:100ED0004FF000090B90B9696D1C0E988847396A6C
:100EE000824688470028F6D1BAF1FF3F0AD024F4A1
:100EF000D064002E11DDBAF12B0F08D0BAF12D0FFE
:100F00000BD102E0404611B08DE744F48064B9692A
:100F10006D1C0E9888478246761E6946600501D58D
:100F20002D2000E02B208DF8000001F1010B0DF1C8
:100F3000200809E0B9696D1C0E98884782460F9811
:100F400044F40074761E0560002E02DDBAF1300F05
:100F5000F0D00B998A453ED144F0800406E00F9909
:100F6000681CA9F1010944F400740860B9696D1C9A
:100F7000761E0E98884782463028F0D02BE00B99D9
:100F80008A4505D1200603D444F08004761E18E07B
:100F9000504602F0FDF908B30DF11301761E44F43A
:100FA00000748B4508D2AAF130000BF8010B200623
:100FB00007D5A9F1010003E0200602D409F10100E0
:100FC0008146A00502D50F99681C0860B9696D1C9F
:100FD0000E9888478246002ED1DC53E0002E51DD6A
:100FE000BAF1650F02D0BAF1450F4BD1A00549D532
:100FF000B9696D1C24F44074761E0E9888478246A9
:10100000002E0CDD2B2804D0BAF12D0F07D144F4AB
:101010008074B9696D1C0E9888478246761EE0057B
:1010200001D52D2100E02B2108F8011BCDF82C80E3
:1010300021E00DF12901761E44F4007488450CD29C
:10104000AAF1300010F0FF0088F8000002D10B99DF
:10105000884509D908F1010806E0E00501D52448D2
:1010600001E042F20F708146B9696D1C0E98884705
:1010700082460F980560002E04DD504602F088F984
:101080000028D6D1F9690E988847FF208BF8000018
:1010900088F800000020069007904B466A4608A991
:1010A00006A8FFF777FEA00502D46FF001002AE73B
:1010B00014F0240F0AD0E00714D1DDE906123868D5
:1010C000031D3B600068C0E900120BE0DDE906018A
:1010D000FFF744FC0146E00704D13868021D3A607E
:1010E0000068016028460EE7000014400000F03F51
:1010F000F1D8FFFF426842B1016811F8013B23B10A
:10110000521EC0E90012184670470121C160881EB6
:10111000704742685AB1C368016843B983688B421B
:1011200005D0491E521CC0E90012002070474FF044
:10113000FF3070470EB540F2334202920022CDE9F3
:1011400000221346FFF702FD03B000BD704700BF49
:10115000FEE7000010B50EF0F3FB00BF0348016886
:1011600003A000F025FB00BF10BD00001C00002004
:101170001B5B303B33326D5B25735D206C75615FAB
:1011800072756E205B6F6B5D200D0A1B5B306D0D01
:101190000A0000007047704710B54FF47A7004F0F1
:1011A00009FB094809490268022090470648074997
:1011B00002680320904704480449026804209047CD
:1011C00002200349087010BD80000020751500083A
:1011D0003000002010B54FF4FA7004F0EBFA094823
:1011E000094902680220904706480849026803201E
:1011F00090470448054902680420904703200449A9
:10120000087010BD800000201D160008CD150008D4
:101210003000002010B54FF4FA7004F0CBFA094802
:1012200009490268022090470648084902680320DD
:101230009047044804490268042090470420044968
:10124000087010BD80000020CD1500081D16000894
:101250003000002010B54FF4FA7004F0ABFA0948E2
:10126000094902680220904706480749026803209E
:101270009047044805490268042090470520044926
:10128000087010BD80000020CD1500081D16000854
:101290003000002010B54FF4FA7004F08BFA0948C2
:1012A000094902680220904706480749026803205E
:1012B00090470448044902680420904701200349EC
:1012C000087010BD800000201D16000830000020AE
:1012D0002DE9F04F87B004468846256902AF2846BD
:1012E00011F0F4FC8146C7F8009099F8040040F032
:1012F0004000B860022202A920460AF003FD06461B
:10130000002E59D0307A00F00F00062854D194F8FE
:1013100074A095F83F90002084F8740085F83F0091
:10132000E06896E80E1080E80E10E16801F1100008
:1013300002A991E80E1080E80E10E0682030E0600D
:101340006069408C40F4807061694884002000909E
:10135000E0682038216A431A00221949204607F024
:10136000BAFD07466069408C20F48070616948844A
:1013700084F874A085F83F90EFB1B8F1000F1AD04F
:10138000022F14D1E06810F8080C00F00F000428B8
:1013900004D1E06850F8100C103000E009A083463A
:1013A0005A460BA120460AF0FEF8052700BF394631
:1013B000204607F09DFF00BF07B0BDE8F08F00009A
:1013C000535900086E6F206D657373616765000087
:1013D0006572726F7220696E205F5F6763206D6552
:1013E00074616D6574686F6420282573290000009E
:1013F00000BFFEE710B500BF1848016818A000F054
:10140000D7F900BF00BF1548016822A000F0D0F94D
:1014100000BF00BF114801682AA000F0C9F900BF51
:1014200000BF0E48016832A000F0C2F900BF00BF43
:101430000A48016838A000F0BBF900BF00BF0748A8
:10144000016840A000F0B4F900BF00BF0348016884
:10145000474800F0ADF900BF10BD00001C0000209F
:101460001B5B303B33346D5B25735D20617433321D
:10147000663432332D626F617264207465737469EF
:101480006E67205B6F6B5D21200D0A201B5B306D4A
:101490000D0A00001B5B303B33346D5B25735D2010
:1014A00053797374656D5F636C6F636B5F636F6EAD
:1014B000666967205B6F6B5D200D0A1B5B306D0DED
:1014C0000A0000001B5B303B33346D5B25735D20ED
:1014D000617433325F626F6172645F696E69742038
:1014E0005B6F6B5D200D0A1B5B306D0D0A00000009
:1014F0001B5B303B33346D5B25735D20756172740B
:10150000315F696E6974205B6F6B5D200D0A1B5B38
:10151000306D0D0A000000001B5B303B33346D5B07
:1015200025735D205065726970686572616C5F49F2
:101530006E6974205B6F6B5D200D0A1B5B306D0D57
:101540000A0000001B5B303B33346D5B25735D206C
:10155000496E666F726D6174696F6E5F4465627526
:1015600067205B6F6B5D200D0A1B5B306D0D0A0001
:10157000AC3A010810B50446022C04D0032C08D064
:10158000042C12D10BE04FF400510B4805F0E8FD9C
:101590000FE04FF40051084805F0E2FD09E04FF478
:1015A0000051054805F0DCFD03E0044988688047E8
:1015B00000BF00BF10BD0000000C02401000002062
:1015C00070B505460C462846A04770BD10B50446C8
:1015D000022C04D0032C09D0042C15D10DE00022DC
:1015E0004FF400510B4805F0BDFD11E000224FF40F
:1015F0008041084805F0B6FD0AE000224FF40041A2
:10160000044805F0AFFD03E003498868804700BF48
:1016100000BF10BD000C02401000002010B50446B1
:10162000022C04D0032C08D0042C12D10BE0012290
:1016300051030B4805F096FD0FE001229103084885
:1016400005F090FD09E00122D103054805F08AFD6F
:1016500003E004498868804700BF00BF10BD000058
:10166000000C02401000002070B52DED048B0446E4
:101670000D46B0EE408AF0EE608A1D48211E75EBE3
:10168000000004DB4FF400106142A84122DA9FED14
:10169000190B53EC102B51EC180BFFF747F903D83B
:1016A0000120BDEC048B70BD9FED140B53EC102B8F
:1016B00051EC180BFFF73AF90AD851EC180BFFF769
:1016C000F8F8001BA94101DB0120EAE70020E8E768
:1016D0000020E6E720462946FFF7D7F853EC182B01
:1016E000FFF70CF901D80120DBE70020D9E7000063
:1016F0000000E0FF000000000000E04300000000E8
:101700000000E0C32DE9F0412DED028B05460C46AB
:10171000A86813281BD1D5E90067A06813280BD14E
:10172000D4E90010891BB84104DB0120BDEC028B19
:10173000BDE8F0810020F9E794ED001BB0EE410A0E
:10174000F0EE610A30463946FFF78EFFEEE795ED81
:10175000000BB0EE408AF0EE608AA068032810D13A
:1017600094ED001BB0EE410AF0EE610A53EC102B31
:1017700051EC180BFFF7C2F801D80120D6E7002082
:10178000D4E753EC182B51EC180BFFF7B7F801D046
:101790000020CBE7B0EE480AF0EE680AD4E9002159
:1017A000104600F015F808B90120BFE70020BDE79A
:1017B0000FB408B503A80090044A00990298126873
:1017C00090470020009001B05DF814FB7C000020E1
:1017D00070B52DED048B04460D46B0EE408AF0EE58
:1017E000608A1D48211E75EB000004DB4FF40010D9
:1017F0006142A84123DA9FED190B53EC102B51ECF9
:10180000180BFFF793F803D80120BDEC048B70BDD3
:101810009FED140B53EC102B51EC180BFFF786F8CF
:101820000BD251EC180BFFF744F8201A75EB0100AE
:1018300001DA0120E9E70020E7E70020E5E720469C
:101840002946FFF722F853EC182BFFF757F801D27F
:101850000120DAE70020D8E70000E0FF00000000E8
:101860000000E043000000000000E0C32DE9F0416B
:101870002DED028B05460C46A86813281CD1D5E92E
:101880000067A06813280CD1D4E90001301A77EB67
:10189000010004DA0120BDEC028BBDE8F0810020DC
:1018A000F9E794ED001BB0EE410AF0EE610A304614
:1018B0003946FFF78DFFEEE795ED000BB0EE408A5D
:1018C000F0EE608AA068032810D194ED001BB0EE02
:1018D000410AF0EE610A53EC102B51EC180BFFF7A4
:1018E0000DF801D20120D6E70020D4E753EC182BE5
:1018F00051EC180BFFF702F801D00020CBE7B0EE57
:10190000480AF0EE680AD4E900211046FFF7ACFE61
:1019100008B90120BFE70020BDE7000070B504460C
:101920000D4616463246294660680DF0EFF918B1AB
:1019300002A1204604F082F870BD00007472756E3A
:10194000636174656400000038B50446012269468D
:101950002046FFF7E3FF9DF8000038BD70B506464E
:101960000C46304600F038F90546681CB0F1804F4F
:1019700003D3306809F078FC00E000BFAB00002220
:101980001146306809F03EFC20636561AA003046CC
:10199000216BFFF7C3FF70BD2DE9F05F80460E4657
:1019A000404600F019F90746781CB0F1805F04D377
:1019B000D8F8000009F058FC00E000BF3B0100220D
:1019C0001146D8F8000009F01DFCF06237610025CF
:1019D00005E00020F16A01EB051188606D1CBD4235
:1019E000F7DB00254EE0F06A00EB05144046FFF7F8
:1019F000ABFF8346BBF1040F32D009DCBBF1000F13
:101A00000DD0BBF1010F0DD0BBF1030F37D113E0A7
:101A1000BBF1130F1AD0BBF1140F30D121E000201D
:101A2000A0602DE0A1464046FFF78EFFC9F80000F8
:101A30000120C9F8080023E0A146404600F0DFF885
:101A400089ED000B0320C9F8080019E0A1464046C3
:101A500000F0CBF8C9E900011320C9F808000FE035
:101A600000BFA146404600F00AF98246C9F800A02E
:101A70009AF8040040F04000C9F8080000E000BFF8
:101A800000BF6D1CBD42AEDBBDE8F09F2DE9F0410B
:101A900007460D46384600F09FF80646701CB0F128
:101AA000804F03D3386809F0DFFB00E000BFB300CC
:101AB00000221146386809F0A5FBA863AE61B200A8
:101AC0003846A96BFFF72AFF384600F085F806462E
:101AD000701C2649884203D9386809F0C5FB00E02C
:101AE00000BF06EB46018B0000221146386809F062
:101AF00089FBE8632E62002406E0002004EB440228
:101B0000E96B41F82200641CB442F6DB00241AE0C1
:101B1000384600F0B4F804EB4402E96B41F82200C7
:101B2000384600F059F804EB4402E96B01EB8201FE
:101B30004860384600F050F804EB4402E96B01EBD2
:101B400082018860641CB442E2DB384600F044F84D
:101B50000646002406E0384600F091F8296C41F86A
:101B60003400641CB442F6DBBDE8F08155555515D0
:101B700070B506460C461546304600F080F8A06465
:101B8000A06C00B9A564304600F026F860623046CB
:101B900000F022F8A0623046FFF7D6FEA071304672
:101BA000FFF7D2FEE0713046FFF7CEFE20722146ED
:101BB0003046FFF7D3FE21463046FFF7EDFE2146C3
:101BC000304600F08DF82146304600F022F82146DC
:101BD0003046FFF75BFF70BD38B504460422694606
:101BE0002046FFF79BFE009838BD1CB5044608222E
:101BF00069462046FFF792FEDDE900011CBD1CB5D9
:101C00000446082269462046FFF788FE9DED000B3A
:101C10001CBD2DE9F04107460D463846FFF7DCFFB5
:101C20000646701CB0F1804F03D3386809F01CFBE6
:101C300000E000BFB30000221146386809F0E2FA64
:101C40006863EE61002404E00020696B41F8240021
:101C5000641CB442F8DB00240DE0386807F0F1FCA6
:101C6000696B41F82400686B50F824103846AA6C60
:101C7000FFF77EFF641CB442EFDBBDE8F08130B5B6
:101C80008BB004462046FFF75FFE0A900A98FF28B3
:101C900004D104220AA92046FFF740FE0A9810B991
:101CA00000200BB030BD0A98401E0A9028280AD8A0
:101CB000694620460A9AFFF731FE206869460A9A6B
:101CC00009F0E5FEEDE720680A9909F033FE0546C4
:101CD00005F1100120460A9AFFF720FE2846E0E7AA
:101CE0002DE9F04107460D463846FFF775FF0646D9
:101CF000701CB0F1005F03D3386809F0B5FA00E05A
:101D000000BFF30000221146386809F07BFA28640E
:101D1000EE60002404E00020296C41F83400641CCB
:101D2000B442F8DB00240EE03846FFF70DFE296CC4
:101D300001EBC40108713846FFF706FE296C01EB80
:101D4000C4014871641CB442EEDBBDE8F08100BF01
:101D5000FEE710B502F08AF802F09CF810BD70475B
:101D6000704710B510F09CFA03F008FD4FF4E13015
:101D700010F072FF10BD000010B52348007806284F
:101D80003BD2DFE800F03A030E19242F1E494868C1
:101D9000804700BF1D4801681DA0FFF709FD00BF77
:101DA0002FE019498868804700BF1848016825A0BE
:101DB000FFF7FEFC00BF24E01349C868804700BF5E
:101DC000124801682CA0FFF7F3FC00BF19E00E4990
:101DD0000869804700BF0D48016834A0FFF7E8FCA0
:101DE00000BF0EE008494869804700BF0748016806
:101DF0003BA0FFF7DDFC00BF03E0012002490870B3
:101E000000BF00BF10BD0000300000200C0000200B
:101E10001B5B303B33326D5B25735D205354415F58
:101E20004D616368696E652E46756E5F535441312E
:101E30002829205B6F6B5D200D0A1B5B306D0D0A3E
:101E4000000000001B5B303B33326D5B25735D206F
:101E50005354415F4D616368696E652E46756E5FD0
:101E6000535441322829205B6F6B5D200D0A1B5BA8
:101E7000306D0D0A000000001B5B303B33326D5BA0
:101E800025735D205354415F4D616368696E652E13
:101E900046756E5F535441332829205B6F6B5D207C
:101EA0000D0A1B5B306D0D0A000000001B5B303B10
:101EB00033326D5B25735D205354415F4D61636820
:101EC000696E652E46756E5F535441342829205B38
:101ED0006F6B5D200D0A1B5B306D0D0A000000006A
:101EE0001B5B303B33326D5B25735D205354415F88
:101EF0004D616368696E652E46756E5F535441355A
:101F00002829205B6F6B5D200D0A1B5B306D0D0A6D
:101F1000000000007047704710B52848006840F482
:101F2000700026490860012003F018FA2448006870
:101F300020F00100401C2249086000BF20480068D2
:101F4000C0F340000028F9D01D480830006820F098
:101F500003001B490831086000BF194808300068B9
:101F6000C0F381000028F8D11548006815490840E1
:101F7000134908604FF08040114908310860124849
:101F8000091F08600E48A030006800F4A0400C490A
:101F9000A03108600846006840F4702008604FF4E3
:101FA0001F0007490C310860002003F0D7F94FF0FB
:101FB000006002498039086010BD000088ED00E033
:101FC00000380240FFFFF2FE0230030000BFFEE7D0
:101FD0000FB4024610B504A9034B039801F0E0F9D1
:101FE00010BC5DF814FB0000C96500080FB47CB597
:101FF0000C0009AD01D0611E00E00021CDE9000117
:10200000064B6A462946089801F0CAF9002C02D00E
:10201000009A002111707CBC5DF814FBA73A0008FF
:10202000014B024A01F0BCB9C965000870000020EC
:1020300003B401984100009850EAC12018BF042061
:102040004A0D18BF40F0010040F2FF72B2EB515F41
:1020500008BF40F00200012808BF052002B0704709
:10206000004870479000002030B528B1144C031F81
:10207000002021680A4605E0084630BD9A4203D890
:1020800010465268002AF9D1002800D041680BD0D0
:102090000468A3EB0005A54204D11B681C44034659
:1020A000046002E0436000E023603AB11C68D51A86
:1020B000A54203D115682C441C6052685A6030BD9B
:1020C00094000020000000002DE9F0412DED020BEE
:1020D0009FED3D0B2DED028B9FED3D8BDDE9025415
:1020E000C4F30A50A0F2FF36142E37DA002E18DAA5
:1020F00053EC102B9DED020B51EC100BFEF72CFA5C
:1021000053EC182BFEF712FC57D2002CA4BF00246E
:10211000254652DA24F00040284318BF2E4C4CD0FC
:102120001AE02E4820FA06F704EA070028431FD0D9
:1021300053EC102B9DED020B51EC100BFEF70CFA3B
:1021400053EC182BFEF7F2FB37D2002C03DA4FF4D6
:102150008010F0400444BC4300252EE0332E07DC01
:10216000A6F114004FF0FF3121FA00F73D4206D1ED
:102170009DED020BBDEC028B02B0BDE8F08153EC8B
:10218000102B9DED020B51EC100BFEF789FA53EC6E
:10219000182BFEF7CBFB10D2002C0DDA142E08BF43
:1021A000641C09D0C6F13400012101FA00F0284472
:1021B000A84238BF641C0546BD43CDE902549DEDDD
:1021C000020BD7E7000000009C7500883CE4377ED6
:1021D00000000000000000000000F0BFFFFF0F0043
:1021E00010B52DED040B86B09DED060B10EE100A18
:1021F00010EE901A8DED000B002818BF0120084347
:1022000020F00040C0F17F6000F1E040C00F21D11C
:102210009DED080B10EE101A10EE900A8DED000BDC
:10222000002918BF0121084320F00040C0F17F6061
:1022300000F1E040C00F0DD129490798B1EB400FE4
:1022400004BF0698002842D00998400004BF0898AF
:1022500000283CD09DED080B53EC102B9DED060B98
:1022600051EC100BFEF728FDCDE902019DED020BAC
:1022700040F2FF7110EE900A8DED000B31EA105024
:1022800021D00798039900F0004001F000418842F6
:1022900019D09DED080B8DED040B9DED020B8DED1E
:1022A000000B10EE900A059961F31E0005909DED5C
:1022B000041B9DED020B51EC110B53EC102BFEF7A0
:1022C000EFF9CDE902019DED020B0AB010BD01202E
:1022D00000F096FF0AB0BDE8104000F051BF0000CA
:1022E0000000E0FF0000000031B504462DED020BB8
:1022F0000023019A00982360194B22F00041994273
:1023000028DA084326D0B1F5801FA8BF206811DA6B
:102310009FED150B53EC102B9DED000B51EC100BAA
:10232000FEF7C1F9CDE900010A466FF0350021F052
:10233000004120600E4B6FF31E5203EB2151084405
:10234000206042F0FF5040F0005001909DED000BE6
:1023500003B030BD9DED000B03B030BD00000000A8
:102360000000F07F0000000000000000000050436B
:1023700002FCFFFF000000002DE9F04D2DED040BE5
:102380002DED0E8B96B0DDE92550279CDDF890A051
:1023900025F0004624F00048BAF1000F14BF0121D7
:1023A000002101EB4502FC4953184A1093422AD3FD
:1023B000002814BF0123002303EB44030B44F74917
:1023C0008B4220D358EA00019FEDF59B76D0DFF8D1
:1023D000D8B35D4503D1BAF1000F05D188E0BAF159
:1023E000000F08BF002100D0012101EB450111F5CC
:1023F000001F08D8002814BF0121002101EB44016F
:1024000011F5001F0BD99DED261B9DED240B16B079
:10241000BDEC0E8B04B0BDE8F04D00F0A5BE00276A
:10242000002DBCBFE149884521DAE1498845A8BFB4
:1024300002271CDAC3451ADCDE4901EB28511429B6
:1024400008DDC1F1340220FA02F101FA02F28242FF
:102450000DD108E058B9C1F1140228FA02F101FACD
:1024600002F2424503D101F00101C1F1020756EA2F
:102470000A0124D1002C22DA002D18BF022F01D02E
:10248000012F0AD0022000F0BBFE16B0BDEC0E8B6F
:1024900004B0BDE8F04D00F04FBE022000F0B0FEE9
:1024A00000F04AFE51EC100B81F0004141EC100BA2
:1024B00016B0BDEC0E8B04B0BDE8F08D18E09FEDBA
:1024C000BEAB9FEDBF8B002871D1B848804522D1AB
:1024D00005F1804010F5801008BFBAF1000F07D059
:1024E000B3450ADC002CA8BF9DED260BE0DA0DE019
:1024F000B0EE490AF0EE690ADAE7002C06DA9DED43
:10250000260B51EC100B81F000416FE0AE4878448F
:1025100090ED000BCCE7D8454DD1002C48DA2EB118
:1025200086423AD1BAF1000F42D126E0BAF1000F4B
:1025300013D0022000F064FE00F032FE8DED020B9D
:102540009DED240B8DED000B10EE900A039961F3C5
:102550001E0003909DED020BAAE78DED02AB9DEDF1
:10256000240B1AEE901A10EE900A8DED000B61F319
:102570001E0003909DED020B9AE78DED028B9DED01
:10258000240B18EE901A10EE900A8DED000B61F3FB
:102590001E0003909DED020B8AE709DA9DED240BE6
:1025A00051EC190B53EC102BFEF7EFF81EE020E076
:1025B0009DED240B7CE786421BDAB4F1804F0DD0F1
:1025C000A4F10050B0F1FF5013D1002D11DB9DEDAF
:1025D000240B51EC100B0FF0E9FB07E09DED240BF1
:1025E00053EC102B51EC100B00F0C2BC41EC100B63
:1025F0005EE79DED240B51EC100B03F0F7FBBAF1F5
:10260000000FCDE90E0142D19FED710B46B3A6F14B
:10261000E040B0F17F600CD05E4538D1002D00DA8B
:10262000A7B3022F0CBF01204FF0FF30FEF71CF9BB
:10263000DCE7002D01DD002C0DDA002D01DD002C82
:102640001FDB002D16DA002C14DB012F08BF9FEDD5
:10265000620B3FF42DAFB0EE4A0AF0EE6A0A27E7AC
:10266000022F18BF002D0CD0012F0AD1002DFFF62C
:102670001FAF06E0002DB8BF002C08DA012F3FF491
:1026800017AFB0EE480AF0EE680A11E71BE0012030
:1026900000EBE57050EA070115D0791EB0EE498ACB
:1026A000F0EE698A084308BF9FED4D8B4E48002528
:1026B000804570DD4D494E48884514DDB0420DDB44
:1026C000002C19DB2FE0012000F09AFD16B0BDECC4
:1026D0000E8B04B0BDE8F04D00F052BDB34502DCF6
:1026E000002C09DC1FE0864202DA002C1BDA03E032
:1026F0005E452BDD002C16DD022000F081FD00F090
:102700004FFD8DED020B53EC1A2B51EC180BFDF71E
:10271000CAFFCDE900010399019861F31E000390FF
:102720009DED020BC4E6022000F06AFD00F048FDBA
:1027300010EE901A18EE900A8DED020B8DED008BC5
:1027400061F31E0003909DED020BB1E69DED0E0BB3
:1027500053EC192B51EC100BFDF79FFF9FED260B4F
:10276000CDE9080153EC102B9DED080B51EC100B3B
:10277000FDF799FF9FED221B53EC112BFDF790FF06
:102780009DED081B53EC112BFDF78DFF9FED1E1BDC
:1027900053EC112B3CE08CE0FFFF1F00FFFF0F000C
:1027A000000000000000F03F0000F03F0000F07F5C
:1027B0000000404301FCFFFF000000000000F07F2C
:1027C0000000000000000000E6140100000000000E
:1027D0000000000000000080000000000000F0FF8A
:1027E000000000000000F0BF0000E0410000F043E6
:1027F000FFFFEF3F00000000000000000000D03F9E
:10280000555555555555D53F000000000000E03F97
:10281000FDF746FF9DED080B41EC1A0B53EC102B16
:1028200051EC100BFDF73FFF53EC1A2BFDF73BFF6C
:1028300041EC1A0B9FEDFE0B53EC102B9DED080B9A
:1028400051EC100BFDF72FFF41EC1B0B9FEDFA0B2A
:1028500051EC1A0B53EC102BFDF725FF41EC1A0B32
:102860009FEDF70B53EC102B9DED080B51EC100B6B
:10287000FDF719FF53EC1A2BFDF70FFF41EC1A0B74
:1028800051EC1B0B53EC1A2BFDF766FE0690CDE9BD
:1028900006519DED060B53EC1B2B51EC100BFDF775
:1028A000FCFE53EC1A2BFDF7FBFE41EC100B00F085
:1028B000A1B90020B6F5801F0EDA9FEDE30B53ECB3
:1028C000102B9DED0E0B51EC100BFDF7ECFECDE93E
:1028D0000E016FF034000E4600EB2650A0F2FF37D9
:1028E000C6F31300DA4940F07F6646F0405688424E
:1028F000D8BF002408DDD7498142C8BF012403DCCA
:102900000024A6F580167F1CD348784400EBC40051
:102910000F9690ED00CB9DED0E0B53EC1C2B51EC64
:10292000100BFDF7BAFE9DED0E0B41EC1B0B53ECAB
:102930001C2B51EC100BFDF70FFE41EC100B51EC72
:10294000190B53EC102BFDF720FF41EC1D0B51EC44
:102950001B0B53EC1D2BFDF7A6FE41EC1A0BBF48D9
:102960008DED10AB7844109590ED000B4FF00050BA
:1029700040EA660000EB84408DED080B00F5002076
:1029800009909DED080B53EC1C2B51EC100BFDF73F
:1029900084FE9DED0E1B53EC112BFDF781FE41ECE7
:1029A000100B53EC102B9DED100B51EC100BFDF7A1
:1029B0007AFE9DED080B41EC1C0B53EC102B9DEDAA
:1029C000100B51EC100BFDF76EFE53EC1B2BFDF7BB
:1029D00067FE53EC1C2BFDF760FE53EC1D2BFDF73F
:1029E00062FE41EC1C0B53EC1A2B51EC1A0BFDF759
:1029F0005AFE41EC1B0B9A480621B0EE4B0AF0EE52
:102A00006B0A784400F0F4FAB0EE401AF0EE601A67
:102A1000B0EE41DAF0EE61DA53EC1B2B51EC1B0BFC
:102A2000FDF741FE53EC1D2BFDF73DFE9DED100B18
:102A300041EC1B0B53EC1A2B51EC100BFDF78CFDEA
:102A400053EC1C2BFDF72FFE53EC1B2BFDF784FDE5
:102A50009DED100B41EC1B0B53EC102B51EC100BAC
:102A6000FDF721FE41EC1D0B9FED7FEB53EC1E2B80
:102A7000FDF772FD53EC1B2BFDF76EFD0890CDE9C1
:102A800008519DED080B53EC1E2B51EC100BFDF77C
:102A900004FE53EC1D2BFDF700FE53EC1B2BFDF742
:102AA000FFFD9DED080B41EC1D0B53EC102B9DED34
:102AB000100B51EC100BFDF7F6FD41EC1B0B53EC2A
:102AC0001A2B51EC1D0BFDF7EEFD9DED080B41ECB3
:102AD0001A0B53EC102B51EC1C0BFDF7E4FD53ECDF
:102AE0001A2BFDF739FD41EC1A0B51EC1B0B53EC83
:102AF0001A2BFDF731FD0C90CDE90C519DED0C0B1F
:102B000053EC1B2B51EC100BFDF7C7FD53EC1A2BAC
:102B1000FDF7C6FD41EC1B0B9FED550B53EC102B45
:102B20009DED0C0B51EC100BFDF7BDFD41EC1A0BAC
:102B30009FED510B51EC1B0B53EC102BFDF7B3FD2C
:102B400041EC1B0B9FED4E0B53EC102B9DED0C0B32
:102B500051EC100BFDF7A7FD53EC1B2BFDF7FCFC14
:102B600041EC100B4848784400EBC40090ED001B8A
:102B700051EC100B53EC112BFDF7EEFC41EC1B0B51
:102B80003846FDF771FECDE9080153EC1B2B51ECE3
:102B90001A0BFDF7E1FC41EC100B3C48784400EBCC
:102BA000C40090ED00CB51EC100B53EC1C2BFDF747
:102BB000D3FC9DED081B53EC112BFDF7CDFC0690CB
:102BC000CDE906519DED080B53EC102B9DED060B46
:102BD00051EC100BFDF761FD53EC1C2BFDF75DFD77
:102BE00053EC1A2BFDF759FD53EC1B2BFDF758FD49
:102BF00041EC100B9DED261B53EC102B8DED001BB3
:102C000000959DED260B51EC100BFDF74CFD9DED55
:102C1000000B41EC1A0B53EC102B9DED260B51ECE5
:102C2000100BFDF73AFD9DED061B53EC112B2FE029
:102C3000000000604715F73FFE822B654715F73F00
:102C400044DF5DF80BAE543E00000000000040433E
:102C50008E9803007AB60B00DA0F01009010010085
:102C6000120F0100000000000000000000000840FA
:102C7000000000E009C7EE3FFD033ADC09C7EE3F64
:102C8000F5015B14E02F3EBE9E0D0100580D0100C2
:102C9000FDF709FD53EC1A2BFDF75EFC9DED060BCD
:102CA00041EC1A0B53EC102B9DED000B51EC100B6B
:102CB000FDF7F9FCCDE90C019DED0C0B51EC1A0B65
:102CC00053EC102BFDF748FCCDE902010C46AA4954
:102CD0008C422FDB611A084318D19DED0C0B53EC8D
:102CE000102B9DED020B51EC100BFDF7D6FC41ECC7
:102CF0001B0B9FEDA30B51EC1A0B53EC102BFDF7A4
:102D00002BFC53EC1B2BFDF711FE2DD2022000F003
:102D100077FA00F045FA10EE901A18EE900A8DED51
:102D2000020B8DED008B61F31E0003909DED020BF5
:102D3000FFF7BEBB944A24F00041914214D393495B
:102D4000214408437FF4EFAC9DED0C0B53EC102BAA
:102D50009DED020B51EC100BFDF79FFC53EC1A2B71
:102D6000FDF7E4FD7FF6DFAC24F000408849894A96
:102D7000002601EB205182422BDA481C4FF48011CF
:102D800021FA00F02044844AC0F30A517A44A1F2A7
:102D9000FF3192ED000B814A8DED080BCA4020EA0D
:102DA0000202C0F3130040F48010C1F1140120FAB4
:102DB00001F60992002CB8BF76429DED080B53EC4A
:102DC000102B9DED0C0B51EC100BFDF766FCCDE9C3
:102DD0000C019DED0C0B51EC1A0B53EC102BFDF775
:102DE000BBFB9FED6F0B0890CDE9085153EC102B06
:102DF0009DED080B51EC100BFDF755FC41EC1B0B46
:102E00009FED690B53EC102B9DED080B51EC100B53
:102E1000FDF749FC9DED0C0B41EC1C0B53EC102B0A
:102E20009DED080B51EC100BFDF737FC53EC1A2B02
:102E3000FDF736FC9FED5E1B53EC112BFDF733FCC9
:102E400053EC1C2BFDF788FB41EC1A0B51EC1B0BD0
:102E500053EC1A2BFDF780FBCDE902019DED020B2F
:102E600053EC1B2B51EC100BFDF717FC53EC1A2BFA
:102E7000FDF716FC9DED020B41EC1A0B53EC102BE9
:102E800051EC100BFDF70FFCCDE908014A489DED10
:102E9000080B0521784400F0ABF89DED081B51ECC0
:102EA000100B53EC112BFDF7FEFB9DED021B53ECB9
:102EB000112BFDF7F5FBCDE906019DED020B53EC5F
:102EC0001A2B51EC100BFDF7EEFB53EC1A2BFDF710
:102ED00043FB9FED3B0B41EC1A0B53EC102B9DED8C
:102EE000060B51EC100BFDF7D8FB9DED060B41ECEA
:102EF0001B0B53EC102B9DED020B51EC100BFDF74F
:102F0000D2FB53EC1B2BFDF740FC53EC1A2BFDF7C7
:102F1000C4FB9DED021B53EC112BFDF7BEFB53ECE4
:102F2000192BFDF7BDFBCDE9020101EB06500115A0
:102F30000029C8BF039015DC9DED020B324651EC11
:102F4000100BFDF751FEFFF773F8042808BF00F0DF
:102F500037F932469DED020B51EC100BFDF744FEA4
:102F6000CDE902019DED020B51EC180B53EC102B37
:102F7000FDF799FBFFF73ABB00009040000000000E
:102F8000FE822B654715973C00CC904000346F3F84
:102F900001FCFFFF0000E03F680C0100FFFF0F0095
:102FA00000000000432EE63F396CA80C615C20BE97
:102FB000EF39FAFE422EE63FB00A010000000000A1
:102FC000000000000000004000B583B09FED060B3C
:102FD0000A4601468DED000B6846FDF73EFD9DED6E
:102FE000000B03B000BD0000000000000000000066
:102FF00070B504462DED028B4D1E00EBC500B0EE02
:10300000408AF0EE608A90ED000B35F0060017D094
:1030100053EC182B51EC100BFDF745FB41EC100B5A
:103020006D1E04EBC50090ED001B51EC100B53EC32
:10303000112BFDF791FA41EC100B35F00600E7D1AA
:10304000022D36D0042D1CD0062D1CBFBDEC028BEA
:1030500070BD53EC182B51EC100BFDF724FB94EDD5
:103060000A1B53EC112BFDF777FA53EC182BFDF7E5
:103070001AFB94ED081B53EC112BFDF76DFA41EC94
:10308000100B53EC182B51EC100BFDF70CFB94EDCF
:10309000061B53EC112BFDF75FFA53EC182BFDF7D1
:1030A00002FB94ED040B53EC102BFDF755FA41ECA9
:1030B000100B53EC182B51EC100BFDF7F4FA94EDB8
:1030C000021B53EC112BFDF747FA53EC182BFDF7BD
:1030D000EAFA94ED001B53EC112BFDF73DFABDEC21
:1030E000028B41EC100B70BD2DE9F04782460F4C6E
:1030F00010480D4E0E4F001B4FF0000820F0070542
:103100004FF0010900221146504604F0E7F900286B
:1031100002D1306810B10020BDE8F0873C60C4E9FE
:103120000058C6F80090EDE798000020A4000020A9
:1031300094000020A02000209FED070B10B553EC59
:10314000102B9FED070B51EC100BFDF71EFB41EC14
:10315000100B10BD00000000000000000000000087
:10316000000000000000F03F10B553EC112B51ECB3
:10317000100BFDF7F1F941EC100B10BD0000000041
:103180009FED050B10B553EC102B51EC100BFDF718
:10319000FCFA41EC100B10BD000000000000000024
:1031A0009FED050B10B553EC102B51EC100BFDF7F8
:1031B0007AFA41EC100B10BD000000000000007016
:1031C0009FED050B10B553EC102B51EC100BFDF7D8
:1031D0006AFA41EC100B10BD000000000000001066
:1031E00002E008C8121F08C1002AFAD170477047D0
:1031F000002001E001C1121F002AFBD1704700002E
:103200000149086070470000900000202DE9FF5F31
:1032100082B00021DDE90430020DDDF840B0034347
:1032200018D044F61050A2F2FF3242431514119800
:1032300001281FD0A5EB0B00401C5FEA000A4FF0ED
:1032400000064E4FDFF83891B046504615D5CAF10A
:10325000000413E0119801244AA3012801D16FEA68
:103260000B010298119AC0E90031C0E9024206B090
:10327000BDE8F09FCBF10000DFE704460021404AA3
:10328000491842EB0450CDE9001012E0E00707D0E6
:1032900032463B4640464946FDF705FA8046894698
:1032A00032463B4610461946FDF7FDF906460F46E5
:1032B0006410002CEAD1DDE90401DDE90023BAF154
:1032C000000F06DAFDF7EFF942464B46FDF7EBF942
:1032D00005E0FDF75AFA42464B46FDF756FA04461A
:1032E0000E460022284BFDF721FB03D84FF0FF309C
:1032F000014607E00022254B20463146FDF72CF918
:10330000FDF71DFD102409E0002C0ADB0A22002332
:10331000FCF7A0FF039B30321A55641E50EA0102ED
:10332000F2D1641C039AC4F111031444119A012AC6
:1033300003D0012208430DD10AE0084304D0002045
:103340004FF0110B119072E7A3EB0B056D1E0DE012
:103350005B4504DD4FF0000205F1010504E003DAEE
:103360004FF00002A5F10105002AECD00298119956
:10337000C0E90231C0E9004579E7000000001440CF
:103380000000F03F300000000000F0430000E03F8C
:1033900030380A2801D20120704700207047000011
:1033A0002DE9FF4F95B09A46884606460025EEE186
:1033B000252877D100242746F94A0121039400E00B
:1033C000044316F8013F203B01FA03F01042F7D105
:1033D00030782A2811D06FF02F033078A0F1300216
:1033E000092A16D8039A44F0020402EB820203EB86
:1033F00042021044761C0390EFE758F8042B039226
:10340000002A03DA504244F40054039044F00204CA
:10341000761C30782E2816D116F8010F44F00404DB
:103420002A280DD06FF02F023078A0F13003092B3D
:1034300009D807EB870302EB4303C718761CF3E7B1
:1034400058F8047B761C30786C280FD006DC4C28AA
:1034500017D068280DD06A2814D104E0742810D041
:103460007A280FD10DE044F400140AE044F48014EB
:1034700001E044F440147278824202D104F58014D1
:10348000761C761C307866280BD013DC582877D051
:1034900009DC002875D04528F6D04628F4D0472806
:1034A0001AD193E118E0632835D0642879D06528D3
:1034B00012D18BE1702873D008DC6728F1D069281D
:1034C0006FD06E280DD06F2806D1ACE073282CD0B9
:1034D000752874D0782853D05246179990476D1CA0
:1034E00054E1C4F30250022809D003280DD0D8F8C3
:1034F000001004280DD00D6008F1040846E1D8F84A
:103500000010EA17C1E90052F6E7D8F800100D8064
:10351000F2E70D70F0E718F8041B8DF8001000209A
:103520008DF80100EB46012003E058F804BB4FF092
:10353000FF3061074FF0000102D40DE009F10101F5
:103540008946B9420FDA8145F8DB1BF809100029DA
:10355000F4D108E009F1010189468142FADB1BF848
:1035600009100029F6D103985346A0EB090721461C
:103570003846179A00F080FA284400EB090507E066
:1035800044E008E10DE01BF8010B52461799904703
:10359000B9F10109F7D2534621463846179AF2E0AD
:1035A00039E00A21C4F302524FF0000B0091022AC5
:1035B00006D058F8040BC117032A09D00AE023E00B
:1035C00008F1070020F00702F2E80201904605E04A
:1035D00000B2C117042A01D140B2C117002906DA8E
:1035E0000A460021404261EB02012D2202E0220541
:1035F00004D52B228DF80420012203E0E20701D03C
:103600002022F7E7914657E00A2100E010214FF011
:10361000000B00910BE010214FF0000B44F004046C
:103620000827009103E008204FF0000B0090C4F33E
:103630000252022A05D058F8040B0021032A08D0B0
:1036400008E008F1070020F00702F2E802019046C6
:1036500003E080B2042A00D1C0B24FF00009220773
:103660002AD53278702A07D0DDF800C08CF0100C13
:103670005CEA0B0C05D00EE040228DF804200122FC
:1036800008E050EA010306D030238DF804308DF8AD
:10369000052002229146009B83F0080353EA0B03A6
:1036A0000AD150EA010201D1620705D530228DF816
:1036B00004204FF001097F1E3278582A04D039A225
:1036C0000C920CAA02920BE03BA2F9E75B46009A2F
:1036D000FCF7C0FD0C9B9B5C029A521E0292137079
:1036E00050EA0102F2D1029804A9081A00F1200B55
:1036F000600702D524F4803400E001275F4502DD35
:10370000A7EB0B0000E0002000EB0B0100900398FA
:103710004944401A0390E00306D453462146179AC1
:10372000039800F0A9F90544002706E001A85246D5
:10373000C05D179990476D1C7F1C4F45F6DBE00379
:103740000CD553462146179A039800F095F9054485
:1037500004E030205246179990476D1C0099481E8E
:1037600000900029F5DC08E00298029952460078A2
:10377000491C0291179990476D1CBBF10001ABF1F8
:10378000010BF1DC5BE100F065F90544761C307853
:1037900000287FF40DAE19B02846BDE8F08F000078
:1037A0000928010030313233343536373839616217
:1037B00063646566000000003031323334353637DB
:1037C000383941424344454600000000600700D4B8
:1037D000062708F1070020F00700F0E802238046E2
:1037E00003F0004C5FEA0C0001D097A009E020052F
:1037F00001D596A005E0E00701D095A001E0AFF269
:103800004C001390307823F0004365280CD006DC80
:10381000452809D046281DD047287FD13BE066289F
:1038200018D067287AD136E00021112F01DB112052
:1038300000E0781CCDE9000104A90CA8FFF7E6FC24
:10384000DDE90D010C9A4FF0000B07F10109109210
:1038500000914EE04FF000400097CDE9011004A91F
:103860000CA8FFF7D3FCDDE90D020C9B0F994FF07C
:10387000000B91461093009211B9791C00EB0109DD
:10388000B7EB090003D4C0F1FF3B07F10109A9EB35
:103890000700019042E0012F00DA01270021112FDB
:1038A00001DD112000E03846CDE9000104A90CA893
:1038B000FFF7ACFCDDE90D010C9A00914FF0000B15
:1038C000B946109221070FD4009A4A4503DA91466F
:1038D00001E0A9F10109B9F1010F05DD109AA9F183
:1038E0000101515C3029F4D0B84202DA10F1040F22
:1038F00003DA0121CDE9011010E0002803DC834444
:10390000A9EB000102E0411C494500DD8946A0EB1E
:103910000B00401C01904FF000400290200705D49E
:103920000198484502DB4FF0FF30019000208DF8F0
:103930004B0002980DF14B07B0F1004F25D002204B
:103940000C902B200D90029800280CDA4042029037
:103950002D200D9007E00A210298FDF73AF830314A
:10396000029007F8011D0C99481E0C900029F2DC0A
:1039700002980028EFD1791E0D980870307800F079
:10398000200040F0450007F8020D11A8C01BC01D23
:1039900002901398007800B1012000EB0901019812
:1039A00001EBE071029801440398401A401E039015
:1039B000E00306D453462146179A039800F05CF8BA
:1039C00005441398007818B15246179990476D1C1A
:1039D000E00323D553462146179A039800F04CF88C
:1039E00005441BE0BBF1000F07DB0098584504DDE0
:1039F0001098179910F80B0001E0179930205246E3
:103A0000904701980BF1010B401E05F10105019053
:103A100004D12E205246179990476D1CB9F1000130
:103A2000A9F10109DEDC05E017F8010B52461799F0
:103A300090476D1C0299481E02900029F4DC534601
:103A40002146179A03989EE62D0000002B000000E7
:103A5000200000002DE9F041044600251E461746CF
:103A6000880404D405E039462020B0476D1C641E4C
:103A7000F9D52846BDE8F0812DE9F041044600253E
:103A80001E469046C80301D5302700E02027880451
:103A900004D505E041463846B0476D1C641EF9D593
:103AA0002846BDE8F0814A68002A06D00A68531CFF
:103AB0000B6010704868401E486070472DE9FC5F3D
:103AC00006468A461746B068D0F834B03468B06805
:103AD0005246016C584606F02FFA8046D8F8080086
:103AE00013281AD1D8F80050F069A84215DDE06A11
:103AF00000EB0510007A00F03F00397A01F03F0139
:103B000088420AD1E06A00EB05113A46002008F02D
:103B100073FB10B12846BDE8FC9FD4F81090F569FE
:103B20004046E917C0E9005113218160681C2169F2
:103B300081420CDA1CA06FF07C41CDE9001010230B
:103B400004F110025846E16A07F016FBE06207E054
:103B50000022484609F10109E36A03EB0010826084
:103B600020694845F4DCE16A01EB051097E80E1086
:103B700080E80E10F069401CF061387A00F04000D7
:103B800070B1607900F0040050B13868407900F0FD
:103B9000030028B1214658463A6804F089FF00E046
:103BA00000BF2846B7E70000636F6E7374616E74E0
:103BB000730000002DE9FC470746D7F834903D6BB1
:103BC0002C68286AE16988421EDBD4F81C80286AC8
:103BD000401CE16988420BDD19A01C49CDE90010A9
:103BE000042304F11C024846616B07F0C5FA6063C8
:103BF00006E00022404608F10108636B43F82020EC
:103C0000E0694045F5DC00BF484605F01AFD064670
:103C10002A6A511C2962616B41F82200607900F028
:103C2000040048B1707900F0030028B13246214603
:103C3000484604F03DFF00E000BF3046BDE8FC8789
:103C400066756E6374696F6E73000000FFFF03009A
:103C50002DE9F04706460F4690461D46D6F83090AF
:103C6000A7EB080428780D2802D028780E280FD159
:103C7000641C002C00DA002422462946484606F03F
:103C80003AFE012C18DD611E484606F08BFD13E05C
:103C9000287818B12946484606F015FB002C0BDDA4
:103CA00099F82CA02146484606F07CFD2246514654
:103CB000484606F019FC00BFB84508DD306B90F8A7
:103CC0002C00A8EB0701401A316B81F82C00BDE8ED
:103CD000F0872DE9F04703460C46A579DF68A7EB8E
:103CE0000216D868002114E0DF6807F1100CC3F851
:103CF0000CC006EB011ADAE900C8DAE9029AC7E952
:103D000000C8C7E9029A002706EB011CCCF808702E
:103D1000491CA94201DA9142E6DB09E04FF0000CB0
:103D2000D3F80C8008F11007DF60C8F808C0491C00
:103D3000A942F3DBBDE8F08770B506460C46356B4B
:103D400095F82A00204485F82A0008E095F82A0012
:103D5000011B284603F0CCF829694160641E002C41
:103D6000F4D170BD10B50246906813280ED1D2E987
:103D7000000100242346241A8B4106DA4FF0004448
:103D80000023241A8B4100D310BD00BF0020FBE7A5
:103D9000F0B58FB004460D461646287A082802DB97
:103DA000287A0A2803DD2AA120460AF017FF2C21D1
:103DB00020460EF0E2FBE0B1009502A920460EF08D
:103DC000ABF99DF808000A2804D002AA294620462B
:103DD00000F0B2FC626BB2F86E20911920A3C822E9
:103DE000206B00F06CFD721C69462046FFF7D0FF87
:103DF0001EE03D21204600F0C2FD08A9204601F04A
:103E00002AFF0746B74206D008AB3A46314620465D
:103E1000FFF71EFF0BE008A9206B06F049FD08AA7A
:103E200005F10801206B06F096FD0FB0F0BD00BF54
:103E3000206B90F82C00421E072108A803F0B2FA6C
:103E400008AA05F10801206B06F085FD00BFECE72C
:103E500073796E746178206572726F720000000071
:103E600043206C6576656C730000000010B500207F
:103E700000F02EF8012000F02BF8022000F028F8C6
:103E8000002000F04DF8012000F04AF8022000F078
:103E900047F810BD1CB501214FF4401001F082FB22
:103EA000684603F064F901208DF8070000208DF8C2
:103EB00004008DF806000120009002208DF8050016
:103EC0006946024803F05DF91CBD00000000024095
:103ED0001CB504460F4951F82400012101F062FB92
:103EE000684603F044F901208DF8070000208DF8A2
:103EF000040001208DF80600074830F814000090F7
:103F000000208DF80500054951F82400694603F0AA
:103F100038F91CBD5C00002054000020480000203F
:103F2000022800DD7047064931F8101031B104490C
:103F300031F81010034A52F82020916100BFF1E7D8
:103F400054000020480000202DE9F04705462C6968
:103F5000D4F85090082084F83D0000202061687952
:103F600000F0030018B1294620460DF04BF930202F
:103F7000005D00F0400040B1A06A407900F003000D
:103F800018B12046A16A0DF03DF920460CF012F858
:103F900020460DF072FA20460CF052FC2669C4F857
:103FA0004C9020460CF04CFC00202061204601F093
:103FB00008F900222046616D00F04CFD00222046E9
:103FC000E16D00F047FD676DD4F85C802069064420
:103FD000002120460DF011FC0120E06620460BF088
:103FE000D9FF20460CF02CFC00202061204601F077
:103FF000E8F800222046A16D00F006FD00222046D0
:10400000E16D00F001FD3A462046616D00F022FDB1
:1040100042462046E16D00F01DFD204607F06BFC96
:1040200094F83C0080F0030084F83C0020690644CA
:104030003046BDE8F08700002DE9F0410446069FB8
:10404000207A00F03F00062814D0262834D12568B5
:10405000012902DBA879884202DA0020BDE8F0815C
:10406000481E05F1100606EB0010106003B11D603C
:1040700012A0F3E72568D5F80CC0012903DBDCF8B2
:104080000C00884201DA0020E8E7481E05F110081C
:1040900058F82000006810601FB1481E58F8200032
:1040A0003860481EDCF8408058F830600EB904A033
:1040B000D4E706F11000D1E70020CFE700000000B0
:1040C000282A6E6F206E616D652900002DE9F0478A
:1040D00080460F4614461D46089E4FF001095CE0DD
:1040E00038786C2813D006DC4C284FD0532809D0E0
:1040F00066284DD14BE06E283BD074282FD0752810
:1041000046D112E02946204602F0E0FB43E046B1EA
:1041100096F8220000F0020018B1304601F00EFBC4
:1041200001E04FF0FF30606135E00DB9002000E0A4
:10413000A87984F8200015B12879262806D1012015
:1041400084F82200002084F8210007E0E868C079A4
:1041500084F82200E868807984F821001BE026B109
:1041600096F8220000F0200000E0002084F82300F0
:1041700011E0221D3146404602F00EFEA060A0680C
:1041800018B909A0A0600020606004E000BF02E050
:104190004FF0000900BF00BF7F1C387800289FD176
:1041A0004846BDE8F0870000000000002DE9F84314
:1041B00004460F4690464146204607F033FC06462B
:1041C000B868452802D00025002009E0314638684B
:1041D00005F0E8FC0546A86808B1012000E00020D1
:1041E00040B1E06895E80E1080E80E10E0681030ED
:1041F000E06012E0E068314601600A7942F0400276
:104200008260E0681030E0600095E068A0F1100383
:104210001A46394620460AF0D9F8E06810F8080C2A
:1042200000F00F00BDE8F88370B506460C46254641
:104230003046D5E900120DF063FB70BD2DE9F8435F
:1042400004460E4690464146204607F0EBFB0746E3
:10425000B068452802D0002500202AE039463068A1
:1042600005F0A0FC0546A86808B9002021E0E06838
:1042700010F8080C00F0400080B13068407900F080
:10428000040058B1E06850F8100C407900F00300C9
:1042900020B12046316804F025FC00E000BFE06852
:1042A00050F8101DD0E90123C06885E80E00E860D1
:1042B000012018B1E0681038E06016E0E068394687
:1042C00001600A7942F040028260E0681030E060EC
:1042D0000095E068A0F12003A0F1100231462046CD
:1042E0000AF0F8F8E0682038E060BDE8F8830000E4
:1042F0002DE9F04704460F46904600200546064645
:1043000081462DA12046FCF797F8044420782D28FB
:1043100003D1641C4FF0010903E020782B2800D161
:10432000641CFCF719F800682178405C00F0380044
:1043300010B90020BDE8F08700BFFCF70DF8006859
:104340002178405C202802D12078303803E02078A2
:10435000FCF70FF837388246BA4501DB0020E9E761
:10436000FB172946A1FB070C06FB07C205FB03222E
:10437000034613EB0A0542EBEA7604F10104FBF76E
:10438000EBFF00682178405C00F038000028D4D1B1
:1043900009A12046FCF750F80444B9F1000F05D0FC
:1043A00000200146401B61EB060101E02846314632
:1043B000C8E900012046BDE7200C0A0D090B0000EA
:1043C0007FB50446256B00226946284601F0CCFAE9
:1043D00020460DF022FE284603F00BFC7FBD02466E
:1043E0001069B0F5837F0FD006DCB0F5827F09D06D
:1043F000A0F2051068B906E0A0F2151038B10C283B
:1044000007D102E000BF00BF00BF0120704708468F
:10441000FCE70020FAE70000F0B591B004460F4633
:1044200015461E462046FFF7C5FB059005984662D7
:1044300001AA05A920460CF089F82821204600F0A1
:104440009EFA45B1042212A120460BF0D3FE0121B1
:104450002046FFF771FC20460CF000F92921204688
:1044600000F08DFA20460DF0D8FD6068059988624D
:10447000334640F20912D11E204600F0A1F9394618
:10448000204600F07DFC204600F018FB11B0F0BD86
:1044900073656C66000000007FB505460C466846F3
:1044A0000460012181606A4669462846FFF706FBE1
:1044B00004B070BDF8B504460CA1606B07F0B2FA09
:1044C0000646206B00690090606C00F11801002323
:1044D000324620460BF0A0FE0546606C806900EB7A
:1044E0000511204601F048FDF8BD000062726561CB
:1044F0006B00000070B50446256903E000212046EA
:10450000FCF7E6FE286E0028F8D170BD70B50546B0
:104510000C4600266069001D6061A06890F82200CA
:1045200000F0020060B1A068406910F8040C00F0CF
:104530003F00252804D1608C40F0200060840426D0
:104540004FF0FF323146284604F06EFC6069001FD0
:10455000606170BD70B504460D462069A84203D065
:104560002946204601F086FA70BD000010B52DEDF9
:10457000028B044630A0411C31A2204600F0AEF967
:104580002046FDF7E1F901462FA00278303A2FA02E
:104590000078303802EB0010814203D02CA1204675
:1045A00001F04CFA2046FDF7CFF918B12DA12046B5
:1045B00001F044FA30A233A1204600F08FF933A273
:1045C0000421204601F01EFC31A20421204601F006
:1045D00019FC31A20421204601F014FC31A208216B
:1045E000204601F00FFC32A20821204601F00AFC0F
:1045F0002046FDF7FAFA45F278635840084303D0A5
:104600002EA1204601F01AFA2046FDF7F8FAB0EE86
:10461000408AF0EE608A9FED2F0B53EC102B51EC8B
:10462000180BFCF76BF903D02CA1204601F006FA19
:10463000BDEC028B10BD00001B4C7561000000003A
:104640006E6F742061000000330000003500000030
:1046500076657273696F6E206D69736D61746368DE
:1046600020696E00666F726D6174206D69736D6193
:1046700074636820696E0000636F72727570746590
:104680006400000019930D0A1A0A0000696E740094
:1046900073697A655F740000496E73747275637430
:1046A000696F6E006C75615F496E74656765720055
:1046B0006C75615F4E756D6265720000656E646950
:1046C000616E6E657373206D69736D6174636820CC
:1046D000696E00000000000000287740666C6F6182
:1046E0007420666F726D6174206D69736D6174639F
:1046F0006820696E000000002DE9F04105460C4677
:1047000094F83E00012815D0E668D4E90710C217D6
:1047100000EB9272B1EBA20F06DA276A07EBD770B3
:104720004110284607F0EFF9E168891B60690844E9
:10473000606100BFBDE8F0812DE9F84F07460C46E7
:104740001546D7F8308098F82C604FF000091CE02F
:10475000207A0A2818D1E07C2978884208D1A07CE8
:10476000A968884204D14FF001090821E174A674B8
:104770002878082808D1B4F91000A968884203D124
:104780004FF0010931B221822468002CE0D1B9F147
:10479000000F13D02878082801D1002000E0052060
:1047A000824600200090324651464046AB6805F0F4
:1047B0006FFC0121404605F0F5FF00BFBDE8F88F12
:1047C0002DE9F84F04460F4616461D463946204649
:1047D0000DF0D3FEE8B96068A84204D139462046FE
:1047E00001F048F915E0314620460AF001FA814609
:1047F000394620460AF0FCF9824600954B4652465F
:1048000005A1606B06F0CFFE8046414620460AF0C7
:10481000E5F9BDE8F88F00002573206578706563C1
:104820007465642028746F20636C6F736520257332
:10483000206174206C696E652025642900000000E9
:1048400070B504460D462068A84212D1A06B0168DD
:10485000481EA26B106031B1A06B4168481CA26B6E
:104860005060087802E0A06B0AF030FA2060012066
:1048700070BD0020FCE770B504460D46297820681D
:10488000884203D069782068884216D12046216882
:104890000CF04AFFA06B0168481EA26B106031B19A
:1048A000A06B4168481CA26B5060087802E0A06BC6
:1048B0000AF00CFA2060012070BD0020FCE72DE911
:1048C000F04107460D4614461E46A54204DD324619
:1048D0002146384601F0EAF8BDE8F081FEB507460A
:1048E0000D4616462846FBF76BFD044622466946F0
:1048F0003846FDF713F8224669462846FBF775FD52
:1049000018B13146384601F099F8FEBD70B506463B
:104910000C46154674B129782046FBF747FD48B987
:1049200023462A4604A1304606F03DFE03213046C8
:1049300004F0DEFC70BD0000617474656D7074205D
:10494000746F206C6F61642061202573206368752B
:104950006E6B20286D6F646520697320272573278F
:104960002900000070B504460D4620460DF06BFB93
:10497000064632462946204600F0B5FA70BD70B5AD
:1049800004460D4629462046FFF7E4FD20460AF07E
:10499000DAF870BD2DE9F04104460D461746E0688F
:1049A000466817E0286800EB06100068B84210D18E
:1049B000296801EB06118B68A16807F11002486BAA
:1049C00007A106F0F0FD80464146A0680CF00BFF01
:1049D00000BF761C6868B042E4DCBDE8F0810000EE
:1049E0006C6162656C202725732720616C7265619C
:1049F000647920646566696E6564206F6E206C69F9
:104A00006E652025640000002DE9F04780460C46C5
:104A100017461BE02646F27901209040316901EBF0
:104A2000401935690FE0A86838B105F1100140461A
:104A300002F01BFE08B10020A860A86810B9284643
:104A40000CF04CFD20354D45EDD3E469BC42E1D17D
:104A5000BDE8F0872DE9F05F82460D46904629E0DB
:104A60002E46F27901209040316901EB401B00276E
:104A70000BE0F06800EB07194946504602F0F5FDDF
:104A800010B10020C9F808007F1CB068B842F0D807
:104A900034690CE0A06848B12146504602F0E5FDBB
:104AA00020B10020A06020460CF018FD20345C45A9
:104AB000F0D3ED694545D3D1BDE8F09F2DE9F04134
:104AC0000646776B356B2C6800221146284605F0A8
:104AD00076FE284603F08DF82869401CB0F1804F1F
:104AE00003D3384606F0C0FB00E000BF286983000E
:104AF000606982003846216B06F084FB20632869D8
:104B000060612869401CB0F1804F03D3384606F03D
:104B1000ABFB00E000BF28698300A0698200384633
:104B2000A16B06F06FFBA0632869A061E869401CD7
:104B3000B0F1805F03D3384606F096FB00E000BF7B
:104B4000E8690301206902013846E16A06F05AFB70
:104B5000E062E8692061286A401CB0F1804F03D30D
:104B6000384606F081FB00E000BF286A8300E06958
:104B700082003846616B06F045FB6063286AE0619D
:104B8000B5F9280000EB40008300206A00EB4000EC
:104B900082003846E16B06F035FBE063B5F928008A
:104BA000206295F82B00C300E068C2003846216CF3
:104BB00006F028FB206495F82B00E06068683063FD
:104BC0003869C068002803DD384604F05FF800BF8C
:104BD000BDE8F08170B5044625692046216A04F0DD
:104BE00027FC204603F0DCFFD5F8800000B100BFB1
:104BF0002069006A8200206900238169204606F04E
:104C000001FB204601F0CEFD211F00234FF44E7220
:104C1000D5E90060B04770BD2DE9FC5F07468846C6
:104C20009146386B0190786C00F10C04206800EB21
:104C30000816307B99F80C10884216DA317B0198FF
:104C400002F056F9D0F800A00AF110000090316887
:104C500001F11002B36813A1786B06F0A4FC83463F
:104C6000594638460CF0BFFD00BFD9F804207168E2
:104C7000019805F0B1FC45460BE0206800EB0511FA
:104C80000246681C02EB001C9CE80D10A1E80D1008
:104C90006D1C6068401EA842EFDC6068401E6060CA
:104CA000BDE8FC9F3C676F746F2025733E206174E4
:104CB000206C696E65202564206A756D70732069AB
:104CC0006E746F207468652073636F7065206F6603
:104CD000206C6F63616C20272573270070B5054633
:104CE0000C46207800B970BD2146284605F0EBFA45
:104CF00000202070606A322808D1D4E90823A06916
:104D00008168284605F092FD0020606200BFEAE756
:104D1000F8B507460C4615461E46384605F002FB18
:104D20002B46224603213846009605F0B1F9F8BD1E
:104D30002DE9F84F06460F4614461D46DDF828803B
:104D40002946304605F046FA81462146304605F0B0
:104D500041FA82462A462146304601F093FC5346EA
:104D6000002239463046CDF8009005F091F9A06058
:104D70000C2020704146304605F0CDFABDE8F88F92
:104D80002DE9F04104460D46206B4668306A431E0B
:104D900000222C21304605F08EF907463A460C21B8
:104DA000284602F0FFFA2946304605F08CFABDE8A5
:104DB000F0812DE9F84F81460D4614461F462078B4
:104DC000042803D1A06840F4807000E0A068804609
:104DD0003946484605F0FEF906463A462146484619
:104DE00001F050FC102D04D0112D0BD0122D18D134
:104DF00009E0434600221F214846009600F00FF9C3
:104E0000A0601BE000BF05F10F0000F0FF0A334671
:104E1000012251464846CDF8008000F000F9A0601C
:104E20000CE005F1120000F0FF0A43460122514652
:104E30004846009600F0F3F8A06000BF00BF0B20CA
:104E40002070BDE8F88F70B505460C462E2040EA6C
:104E50008411284605F0DCF870BD38B505460C46CF
:104E60002146284605F075F920780D282CD2DFE878
:104E700000F02B070E080B0C0D172B2B2B11160017
:104E800000BF0220207020E000BF00BF00BF032051
:104E900020701AE0214628460BF05FF915E000BFAC
:104EA0002146284600F0C0FC2146284601F0DFFBE1
:104EB0000020009002461B212846A36805F0E8F870
:104EC000A0600C20207000E000BF00BF6069216975
:104ED00061612061284661690CF00CFB284621695C
:104EE0000CF008FB38BD2DE9F04104460D4616468E
:104EF0003146206B05F072FD07463A4604212846EC
:104F000002F050FABDE8F0812DE9F84306460F465D
:104F100014461D462146304605F0A4F98046214638
:104F2000304601F0A4FB002043460246394600907B
:104F3000304605F0ADF8A0600C20207029463046C0
:104F400005F0E9F9BDE8F8832DE9F04786B004469D
:104F50000D4615B12879262806D10020E168886021
:104F6000E0681030E06025E0E868D0F838A020461E
:104F700004F030FE8146E0684946016045228260C7
:104F8000E0681030E06002A8012101608160002625
:104F90000BE002A800905AF82600C31707463A46CD
:104FA0004946204604F0E0FF761CE8688069B0427C
:104FB000EFDC00BF06B0BDE8F087F0B502460B4657
:104FC000002400260020002501210CE052F8257065
:104FD0003FB152F825703C44B4EB510F01D908465B
:104FE00026466D1C490019B11F68B7EB510FEDD86B
:104FF0001E60F0BD10B586B004466946204600F03C
:1050000044FE9DF80000012802D103208DF8000025
:105010006946206B05F0B5F9059806B010BD2DE97D
:10502000F84304460D4616461F46DDF820803B46F1
:10503000324629462046CDF8008005F029F8204662
:1050400005F03CFABDE8F883F0B52DED028B8FB08A
:1050500005460E4614461F460AA920460DF09DFA45
:1050600050B106A938460DF098FA28B106AA0AA947
:1050700030460DF0DBFF20B900200FB0BDEC028BF5
:10508000F0BD02A80090A96806AB0AAA486B314699
:1050900006F006F90498132806D106202070DDE9F1
:1050A0000201C4E902011CE09DED020BB0EE408A52
:1050B000F0EE608A53EC182B51EC180BFBF71EFC3A
:1050C00008D19FED090B53EC102B51EC180BFBF79B
:1050D00015FC01D10020D0E70520207084ED028B63
:1050E00000BF0120C9E70000000000000000000030
:1050F0002DE9F0418CB004460F46256BD4F80480AE
:105100000020034602460B210090284604F0C0FF11
:10511000064600200B9009900A90089732460C2111
:10512000384602F03FF90022114602A802F03AF98F
:105130003946206B05F0C7F87B212046FFF71FFC9E
:1051400000BF20697D2800D113E002A92846FFF79F
:10515000C5FD02A9204600F075FE2C2120460DF069
:105160000CFA0028EDD13B2120460DF006FA00286C
:10517000E7D100BF43467B227D212046FFF720FB7D
:1051800002A9284602F008FD0A9806F0F3F92968FA
:10519000096B51F8261060F3DF512868006B40F866
:1051A0002610099806F0E6F92968096B51F82610CF
:1051B00060F396312868006B40F826100CB0BDE80B
:1051C000F0812DE9F041044600BFA76D0020A065E5
:1051D000002609E0EF69294620460DF066FA18B16D
:1051E00020460BF02DFB01263D1EF3D1002EECD105
:1051F000BDE8F0812DE9F04105460C4617464FF019
:10520000000800BFA5EB041000680079042804D151
:10521000A5EB04100068C07903E0A5EB041000685A
:10522000C06806463246A5EB04131B6803F1100163
:1052300007EB0800FBF7A8F8B044601E041EE1DC91
:10524000BDE8F08130B50A46C568AD1A2D11046A73
:1052500004EB0514C460436A07E0046A1D68AD1AD4
:105260002D1104EB05141C609B68002BF5D14169DE
:105270001AE0046A4D68AD1A2D1104EB05144C6058
:10528000046A0D68AD1A2D1104EB05140C6091F839
:10529000224004F0020434B1046A0D69AD1A2D11E4
:1052A00004EB05140C6189680029E2D130BD2DE9B9
:1052B000F04107460C463846FEF754FD054655B109
:1052C000284606F0B3F804EB80063068401C3060D6
:1052D0000120BDE8F0810020FBE72DE9F047814681
:1052E0000E461746984606F1110A52463946484678
:1052F00003F0A2FC05462C46C4F808800020A071EB
:10530000002104F1100081552046BDE8F08700001F
:1053100000B50346012000F021F80548006863F35A
:10532000071003490860002000F018F800BD0000D5
:10533000083802400349096860F38C21014A116072
:1053400070470000083802400349096860F34F3194
:10535000014A11607047000008380240012807D157
:105360000749096821F030013031054A116005E034
:105370000349096821F03001014A116070470000BB
:10538000A438024005282BD2DFE800F0030A1118E8
:105390002100154A126861F30002134B1A6020E0E5
:1053A000114A126861F310420F4B1A6019E00E4A5D
:1053B000126861F318620C4B1A6012E00A4A7032EC
:1053C000126861F30002084B70331A6009E0064A64
:1053D0007432126861F30002034B74331A6000E008
:1053E00000BF00BF70470000003802402DE9F04FB9
:1053F00087B0044600200690059004900390029028
:1054000081468246834600F075F90190019820B1EB
:1054100001281BD002285BD124E043480068C0F378
:10542000803038B140480068C0F3003010B13F48C8
:10543000206001E03E4820603B48001D0068C0F34A
:10544000024B206820FA0BF0206044E038482060CE
:105450003548001D0068C0F3C24B206820FA0BF0ED
:10546000206038E030489C380068C0F380500390DA
:105470002D489C380068C0F3881006902A489C3854
:10548000006800F00F00059027489C380068C0F3C2
:1054900002402849085C0490039810B924480290FF
:1054A00001E023480290DDE9041000FB01FC0699AD
:1054B0000298A0FB01700146624600233846FAF7C5
:1054C000C9FE054602220023FAF7C4FE206002E06E
:1054D0001748206000BF00BF134898380068C0F329
:1054E0000319154810F809A0206820FA0AF0606036
:1054F0000D4898380068C0F38229104810F809A0B8
:10550000606820FA0AF0E060074898380068C0F345
:1055100042390B4810F809A0606820FA0AF0A06030
:1055200007B0BDE8F08F0000A0380240006CDC023C
:1055300000127A00AA3201088A3201089A32010860
:10554000A232010810B501460020094B03EB1142BD
:10555000D2F8002801F01F040123A3401A4001F0F3
:105560001F040123A3409A4200D000E0012010BD97
:105570000030024030B50024002500E0641C1120FA
:10558000FFF7E0FF012802D0B4F5405FF6D3112009
:10559000FFF7D8FF012801D0002500E001252846AB
:1055A00030BD000010B501290FD1104B03EB1042A4
:1055B000D2F8002800F01F040123A3401A430B4C2B
:1055C00004EB1043C3F800280EE0084B03EB104235
:1055D000D2F8002800F01F040123A3409A43034C93
:1055E00004EB1043C3F8002810BD00000030024057
:1055F00030B538B90F4C246824F4805404F5805435
:105600000C4D2C600B4C9C3C246860F39654094D67
:105610009C3D2C602C46246861F38E142C602C4633
:10562000246862F303042C602C46246863F312445C
:105630002C6030BDA038024000B50120FFF78EFE7F
:105640002048006820F00100401C1E49086000BF8F
:105650001C480068C0F340000028F9D01948083001
:10566000006820F0030017490831086000BF1548A2
:1056700008300068C0F381000028F8D111480068A4
:10568000114908400F4908604FF080400D4908312A
:1056900008600E48091F08600A48A030006800F43E
:1056A000A0400849A03108600846006840F4702016
:1056B00008604FF41F0003490C3108600020FFF719
:1056C0004DFE00BD00380240FFFFF2FE0230030035
:1056D00000B503460120FFF741FE0548006863F36B
:1056E0000100034908600020FFF738FE00BD0000FC
:1056F0000838024002480068C0F38100704700008B
:10570000083802400146002021B1012907D00229B2
:105710000FD109E0084A126802F0030009E0064AC6
:105720001268C2F3810004E0034A1268C2F3011058
:1057300000BF00BF704700006838024010B5044643
:1057400020680068C068806B48B1204600F00AF805
:1057500021680968C968896B51F8200010BD4FF0B5
:10576000FF30FBE701460A6848691268D268126B8D
:10577000801A0122C2EBA0007047000010B504207F
:105780000CF070FE074800680749B0FBF1F00749CC
:105790000860084600684FF47A714843044908607D
:1057A00010BD00007800002040420F00680000207B
:1057B0006C000020002131E032280ADD194A12680D
:1057C00032235A434FF0E0235A61A0F1320290B2E3
:1057D00006E0144A126842434FF0E0235A61002069
:1057E00000224FF0E0239A611A46126942F001024A
:1057F0001A6100BF4FF0E022116901F001021AB1F5
:1058000001F48032002AF5D04FF0E022126922F034
:1058100001024FF0E0231A6100229A610028CBD1E7
:10582000704700006C00002070B504460D462878D3
:1058300007280AD00121204604F0B4FF94F82C0078
:10584000421E2946204600F001F870BD2DE9F843BC
:1058500006460C4615462146304604F07AFC207870
:105860000D2857D2DFE800F056070E0D1D23334AEE
:1058700056565656400001222946304604F034FE62
:105880004AE000BF002000902078022801D10120CA
:1058900000E0002003462A460321304604F0F8FBCE
:1058A0003AE029463046A26804F014FC34E094ED56
:1058B000021BB0EE410AF0EE610A304604F05CFED5
:1058C00007463A462946304604F004FC24E0D4E971
:1058D00002733A46304604F0DCFD81464A462946CA
:1058E000304604F0F7FB17E03168096BA26801EB62
:1058F0008200016865F38D1101600DE0A068A84287
:1059000007D0002000902A4601463046A36804F0E4
:10591000BFFB01E0BDE8F88300BFA5600720207051
:1059200000BFF7E738B5044620690090FF23204602
:105930002269A1690AF0DEFE4FF0FF30A06138BD98
:1059400070B504460D461646204609F067FC401E19
:1059500070BD70B504460D46E068A0F1200100223C
:10596000204603F012FA70BD8A7390F82A300B7348
:1059700083685B6CDB694B6083685B6C1B698B6065
:1059800000234B73C3680B60C160704770B5044659
:10599000656B35F86E0F401C288035F86E1903A32F
:1059A000C822206BFEF78BFF70BD000043206C65A2
:1059B00076656C730000000070B505462C69022006
:1059C00084F83D00012204F1400128460CF004FC5B
:1059D000606470BD2DE9F84306460C461546FCF799
:1059E0003FFBD0F800904846FAF744FD07460022F6
:1059F000294630460AF0F0F800F1010843462246F5
:105A000009A13046009709F037FE4FF0FF322946D2
:105A1000304609F06DFF6FF0010130460AF024F8BE
:105A20000720BDE8F883000063616E6E6F74202567
:105A3000732025733A2025730000000070B50446DA
:105A40000D462B4604A1A268206805F0ACFD032199
:105A5000206803F04DFC70BD25733A20257320703B
:105A60007265636F6D70696C6564206368756E6BD9
:105A7000000000002DE9F04104460D46294620466D
:105A800009F0B6F807463A4605A1606B05F08BFDB4
:105A900006463146204609F0A1F8BDE8F081000035
:105AA0002573206578706563746564002DE9F84F8F
:105AB00004460D469046A068D0F834902068476AA6
:105AC0000FB90BA004E03A460DA1484605F06BFD66
:105AD00082462B4642460FA14846CDF800A005F06D
:105AE00062FD06463146A06809F078F8BDE8F88FF7
:105AF0006D61696E2066756E6374696F6E0000007B
:105B000066756E6374696F6E206174206C696E6572
:105B100020256400746F6F206D616E7920257320DD
:105B2000286C696D69742069732025642920696E69
:105B30002025730070B504460D461646EDB9206861
:105B4000401CA0B1204621680BF0EEFDA06B01685F
:105B5000481EA26B106031B1A06B4168481CA26B5B
:105B60005060087802E0A06B09F0B0F8206040F2C5
:105B700025123146204602F07BF870BD30B587B063
:105B800004466946204600F080F86946206B04F020
:105B90009AFB029D284607B030BD2DE9F84F064616
:105BA0000C4615462A4621463046FFF74FFE207820
:105BB0000B2805D104F110013046A26804F0A7FAC1
:105BC000D4E9040188423DD04FF0FF37B846304653
:105BD00021690AF0A9FA20B9304661690AF0A4FAED
:105BE000E0B120780B2802D14FF0FF3002E03046C0
:105BF00004F064FC81460123002229463046FFF769
:105C000087F807460023012229463046FFF780F82F
:105C100080464946304604F0F3FC00BF304604F0AD
:105C200081FB824600972B465246304661690AF056
:105C300061FDCDF800802B465246304621690AF0BE
:105C400059FD00BF4FF0FF3020616061A560072063
:105C50002070BDE8F88F70B504460E460125314628
:105C6000204600F012F808E03146206B04F02BFBD0
:105C70003146204600F009F86D1C2C2120460CF01E
:105C80007CFC0028F0D1284670BD70B504460D4656
:105C90000022294620460CF0E3F970BD30B589B0EA
:105CA0000446256B02A920460CF036FA20693D28EF
:105CB00002D020692C2807D10020009001226946DB
:105CC0002046FEF765F815E09DF808000D2803D082
:105CD00009A1204608F082FF2868016B049851F85A
:105CE00020000949084040F480412868026B04986C
:105CF00042F8201009B030BD73796E746178206568
:105D000072726F7200000000FF3F80FF70B50646A0
:105D10000C4625463046D5E9001203F036F870BD32
:105D200070B504460E462569214620460CF075F8EC
:105D30002946204601F03DFB204605F041FE204665
:105D400006F00AF8204608F097FE012085F83F008B
:105D5000002009F0EDFFC5F8800070BD2DE9FC4181
:105D600080460D462C4620680168481E2268106057
:105D700031B120684168481C22685060087802E010
:105D8000206808F0A3FF074612A00078B8420BD1A4
:105D900012A24046616BFEF7B9FD4046A26B216836
:105DA00006F0A0F806460FE00EA24046616BFEF733
:105DB000ADFDA06BCDE9000704F11003221D4046A4
:105DC000216808F03BFF06463146404603F0EAFBF7
:105DD000BDE8FC811B4C75610000000062696E61CA
:105DE00072790000746578740000000082B0CDE91B
:105DF000000121F0004001909DED000B02B051EC3C
:105E0000100B70472DE9F04104460D46164620461A
:105E1000FBF79AFDA84209D0324605A1206805F09B
:105E2000C2FB074639462046FFF708FEBDE8F08171
:105E300025732073697A65206D69736D6174636879
:105E400020696E0070B504460D4620695B2811D0AC
:105E5000B0F5927F13D1204608F036FE3D2804D0DD
:105E60002946204601F028FF03E0294620460BF092
:105E700039FA09E0294620460BF034FA04E02946B5
:105E8000204601F019FF00BF00BF70BD70B586B09D
:105E900004460D46266B2946304604F005FA204696
:105EA00008F051FE69462046FEF75CFD6A46294629
:105EB000304604F09AFA06B070BD02468A4202DA11
:105EC0004FF0FF3070471046FCE7000070B5054604
:105ED0000E46144634B14FF0FF31284609F00CFF4E
:105EE000052801D0002070BD284609F0E8FB38E005
:105EF0006FF00101284609F0FFFE04282CD1421F53
:105F00003146284609F034FC30B16FF001012846D3
:105F100009F0AAFD0120E6E7621E31462846FFF798
:105F2000D5FFC8B14FF0FF325100284609F0E0FC20
:105F30006FF00101284609F097FD0EA1284609F0EF
:105F4000CEFB0122D11E284609F0D2FC03212846AF
:105F500008F08CFF0120C6E76FF00101284609F028
:105F600083FD6FF00101284609F0C0FA0028BFD177
:105F700000BFB8E72E0000002DE9F04105460E46AF
:105F8000686C00F10C07286BC06884680DE0386805
:105F900000EB041000683168884205D13246214682
:105FA0002846FEF739FE00E0641C7868A042EEDC6B
:105FB000BDE8F0812DE9F04781460E461446A06801
:105FC00010B90020BDE8F0872046FDF7CBFE07465C
:105FD00027B1B068B84201D33846F3E721463046CE
:105FE00009F02AFF054600BF224605F110010020F6
:105FF00006F002F950B9A8690A280ED1207A00F0FB
:10600000400050B128692168884206D13069281AB9
:106010004711781CB1680844D4E7D5F81C80B8F162
:10602000000F04D103A1484603F0F2FBDCE705EBC7
:106030004815D9E7696E76616C6964206B657920D3
:10604000746F20276E657874270000002DE9F047F3
:1060500004468A46206BD0F80C80656CE86800EB3B
:106060000A19D8F8047023E0A86900EB0716306815
:10607000D9F8001088421AD199F80C00317B884277
:106080000DDD98F80D0020B9E869D8F804108842B1
:1060900005DD327BD9F80410206B04F084FA324617
:1060A00051462046FEF7B8FD0120BDE8F0877F1C71
:1060B000E869B842D8DC0020F7E700E00068016832
:1060C0000029FBD1704700002DE9FC5F814688461E
:1060D00014464FF0FF3001904FF0000A00255BE0BE
:1060E000D9F8300050F8257007F03F0BC7F387163A
:1060F000BBF1240F28D006DCBBF1040F0AD0BBF1A2
:106100001E0F39D129E0BBF1250F1ED0BBF1290F9D
:1061100032D110E040F2FF1000EAD7500090A642C2
:1061200008DC00983044A04204DB51462846FFF7C3
:10613000C4FE01902EE0B01C844204DB5146284688
:10614000FFF7BBFE019025E000BFB44204DB5146DF
:106150002846FFF7B2FE01901CE0124A02EA97328D
:10616000114BD11A6A1C5018854204DA404502DCF2
:10617000504500DD82460DE00C4810F80B0000F0A1
:10618000400030B1B44204D151462846FFF795FE95
:10619000019000BF00BF6D1C4545A1DB0198BDE823
:1061A000FC9F0000FFFF0300FFFF0100D037010844
:1061B00070B506460C46154664B1012C0AD0002184
:1061C000304609F011FA6FF00101304609F0ABFAE0
:1061D000022070BD304609F021F8401BF9E70000AD
:1061E0002DE9F04104460D4617462068006B00EB90
:1061F0008508681C3E1A301E01DB014600E0414262
:10620000B1F5003F03DB07A1A06808F0E7FC6FF4DD
:1062100000303118D8F8000061F39F30C8F8000052
:10622000BDE8F081636F6E74726F6C207374727569
:10623000637475726520746F6F206C6F6E670000F9
:106240002DE9F04F85B006460C4617461D46DDF891
:106250003880D6F830A003213046FDF76DFD40F2BE
:1062600003113046FEF78BFBB8F1000F06D0264B2A
:1062700022462821504603F01EFF02E0504604F05B
:106280001DF98146002201A95046FFF76DFB294602
:106290003046FDF751FD2946504604F083FA30465A
:1062A000FEF78EF8504601F0A4FC4946504604F033
:1062B000A7F9B8F1000F07D0134B2246272150460B
:1062C00003F0F9FE834611E00023224629215046BF
:1062D000009503F0DDFE3946504604F01CF80A4BE9
:1062E000A21C2A21504603F0E6FE834609F1010272
:1062F0005946504604F070F93946504604F00BF800
:1063000005B0BDE8F08F0000FEFF01002DE9FC4163
:1063100006460F4614461D46DDF820800020C8F8CA
:10632000000000210846611A75EB000001DA022026
:1063300000E0012002463946304608F0E1FAC0BBD1
:10634000B068032805D196ED000B8DED000B012000
:1063500003E06946304608F055FB10B90020BDE85F
:10636000FC819DED000B53EC102B9FED130B51ECBA
:10637000100BFAF7C3FA0ED24FF0FF314808C7E905
:10638000001000210846611A75EB000010DA0120A8
:10639000C8F800000CE000214FF00040C7E90010F1
:1063A0000846611A75EB000002DB0120C8F8000006
:1063B00000BF0120D3E70000000000000000000043
:1063C0002DE9F04788B004468846256B042695F8E9
:1063D0002C900F2220A1204609F00CFF0B2222A1B5
:1063E000204609F007FF0D2222A1204609F002FFF6
:1063F0004146204609F0C6FE08E020460BF023FE89
:1064000082465146204609F0BDFE761C2C212046CE
:106410000CF0B3F80028F0D14FF486712046FEF757
:10642000AEFA676802A92046FFF715FC824602AB68
:10643000524603212046FDF70BFC0321284603F0BA
:10644000BBFD0020F31E3A46494600902046FFF768
:10645000F7FE08B0BDE8F08728666F722067656EAA
:10646000657261746F72290028666F72207374619F
:106470007465290028666F7220636F6E74726F6C8A
:10648000290000002DE9F84305460E4617462C6BFF
:1064900094F82C800B2221A1284609F0ABFE0B2298
:1064A00021A1284609F0A6FE0A2222A1284609F0C9
:1064B000A1FE3146284609F065FE3D212846FEF73B
:1064C0005EFA2846FFF75AFB2C212846FEF757FABA
:1064D0002846FFF753FB2C2128460CF04EF818B144
:1064E0002846FFF74BFB0FE001220023204603F074
:1064F000D0FF814694F82C104A46204603F0EAFD6E
:106500000121204604F04EF9012003463A46414657
:1065100000902846FFF794FEBDE8F88328666F7266
:1065200020696E646578290028666F72206C696D39
:106530006974290028666F722073746570290000E1
:106540002DE9FF4104460D46266B0122694630467F
:10655000FFF70AFA204608F0F6FA20460BF073FD22
:10656000074620692C280BD03D2803D0B0F5867F44
:106570000CD106E02A4639462046FFF783FF0AE0A1
:1065800000BF39462046FFF71BFF04E008A1204664
:1065900008F024FB00BF00BF2B464FF48472911E0D
:1065A0002046FEF70DF9304601F023FBBDE8FF81E0
:1065B000273D27206F722027696E27206578706538
:1065C000637465640000000070B504460D4600BFAA
:1065D000802109480CF04FFC0028F9D0A1B20648F0
:1065E0000CF040FC00BF402103480CF044FC0028A4
:1065F000F9D0204670BD0000001001402DE9F047A1
:106600009046044601FB084599460E46074606E0BB
:106610004846F9F703FE411C06D004F8010BAC42D2
:10662000F6D14046BDE8F087E01BB0FBF6F0F9E795
:106630002DE9F04107460C46002509E004F1100061
:1066400050F825601EB13146384602F06CFB6D1CD7
:10665000A079A842F2DCA079401E800000F114026B
:1066600000232146384604F0CDFDBDE8F08170B529
:1066700005460C462078072803D12846A16800F07B
:1066800083F870BD2DE9F04180460C461546207810
:10669000072801D1A06801E04FF0FF3006462878B6
:1066A000072801D1A86801E04FF0FF300746BE423D
:1066B00008DD3146404600F067F83946404600F0B4
:1066C00063F807E03946404600F05EF83146404640
:1066D00000F05AF8BDE8F08170B505460C46207907
:1066E00008282AD008DC042835D0052820D0062820
:1066F0000ED0072845D125E0092804D0142837D02A
:1067000026283ED109E02146284602F0F1FE39E074
:1067100021462846FFF78CFF34E0A079401E000197
:1067200000F1200200232146284604F06BFD29E0F9
:106730002146284603F070F924E02146284602F05D
:106740003EFE1FE0E06800F11802002321462846C3
:1067500004F058FD16E02146284605F0B9F9E07925
:1067600000F1110200232146284604F04BFD09E008
:10677000E06800F1110200232146284604F042FDA2
:1067800000E000BF00BF70BD01F480724AB990F80C
:106790002A208A4205DC90F82C20521E80F82C20FA
:1067A00000BF704710B50446206A00B910BD04F15F
:1067B00034006061204602F0EEFD206E02010023ED
:1067C0002046216A04F01EFD00BFEFE72DE9F047E7
:1067D00088B004460E461746D4F830802069282831
:1067E00005D07B281ED0A0F2251048BB1FE0204614
:1067F00008F0A9F92069292803D100208DF80800A4
:1068000009E002A92046FFF726FA4FF0FF3202A95D
:10681000404604F070F83B46282229212046FDF727
:10682000CFFF12E002A92046FEF762FC0DE002A9AC
:106830002046A269FEF757FB204608F084F904E0E1
:106840001BA1204608F0CAF900BF00BFB5689DF83B
:1068500008000D2803D09DF808000E2802D14FF043
:10686000FF390BE09DF8080018B102A9404603F07B
:106870002AFD98F82C10681CA1EB0009022009F1F0
:1068800001032A4624210090404603F001FC824681
:1068900052460D21304600F085FD3946404603F052
:1068A0003AFD681C88F82C0008B0BDE8F0870000AD
:1068B00066756E6374696F6E20617267756D656E63
:1068C00074732065787065637465640070B5044600
:1068D0000D4615B12879262808D111A020614FF066
:1068E000FF30A061E06110A0E06012E0E868816C18
:1068F00011B1816C103100E00CA12161416AA161EC
:10690000816AE161A16909B909A100E00AA1E16018
:1069100000BF3C2204F12400216904F095FD70BD04
:106920003D5B435D00000000430000003D3F000070
:106930006D61696E000000004C75610070B5044621
:106940000D460026294620460BF045F903E029466E
:106950002046FFF79BFA20692E28F8D020693A28B4
:1069600004D1012629462046FFF790FA304670BD33
:106970002DE9F04707460D4614464FF0000A2868F7
:106980000068D0F80C802846FEF7ECFE8146D8F867
:10699000300050F8296095F8220000F0040020B182
:1069A00033A0206033A0BDE8F08706F03F00801FD1
:1069B000242851D2DFE800F02021245025501F2840
:1069C000292A2B2C2D2E2F303132333B3E5041447F
:1069D00050474A4D505012135050501B00BF234691
:1069E000C6F387124946404600F092FADBE723A03F
:1069F000206022A0D7E700BF00BF4FF0000A2DE0C3
:106A000000BF4FF0010A29E000BF00BF00BF00BF78
:106A100000BF00BF00BF00BF00BF00BF00BF06F047
:106A20003F01A1F10D00811D01F0FF0A16E04FF0BA
:106A3000120A13E04FF0130A10E04FF0040A0DE0C1
:106A40004FF0160A0AE04FF0050A07E04FF0140A6B
:106A500004E04FF0150A01E00020A4E700BF386908
:106A6000883050F82A001030206008A09BE7000012
:106A70003F000000686F6F6B00000000666F7220BF
:106A80006974657261746F72000000006D657461F5
:106A90006D6574686F64000070B58CB004460D4677
:106AA000204608F050F806A92046FFF747FF0646A3
:106AB0002B46324669462046FDF7AEFC6A4606A9DB
:106AC000206B03F048FF2946206B03F024FC0CB038
:106AD00070BD2DE9F04102FB01051F461646044634
:106AE00004E014F8010B3946FFF76EFDAC42F8D113
:106AF0003046BDE8F0810000F8B505460E46144664
:106B00001CA20221284604F087F80121284608F03B
:106B10000AFE00200346012201460090284608F0A4
:106B20003DF94FF0FF31284609F0E6F838B96FF02B
:106B30000101284608F098FF00202060F8BD4FF0C2
:106B4000FF31284608F097FB18B911A1284604F038
:106B50009BF80522911F284608F0B0F96FF001015B
:106B6000284608F081FF22460521284609F034F81E
:106B7000E4E70000746F6F206D616E79206E6573BD
:106B80007465642066756E6374696F6E73000000CF
:106B90007265616465722066756E6374696F6E20DC
:106BA0006D7573742072657475726E2061207374D4
:106BB00072696E67000000002DE9F04107460D463E
:106BC00016462C462068002804DD2068306000202E
:106BD00020600FE06068002000BF10B10020BDE819
:106BE000F0814FF40072012104F108006368FFF79F
:106BF00005FD306004F10800F1E710B504460B46CE
:106C00001946486808B9002010BD48681060002087
:106C100048600868F8E701467E294AD016DC2F292B
:106C20003FD00ADCA1F1250009285BD2DFE800F0A3
:106C3000353D5A5A5A332F5A31003C2945D03E2906
:106C400048D05E292BD07C294CD130E040F21B1279
:106C5000881A914240D011DC40F21712A1EB0200D9
:106C6000914220D005DCA1F2011080B30F2839D168
:106C700036E0012823D0032834D124E0012827D08E
:106C800002281ED0032816D004282BD115E000209E
:106C900070470120FCE70220FAE70320F8E7042010
:106CA000F6E70520F4E70620F2E70720F0E70820E2
:106CB000EEE70920ECE70A20EAE70B20E8E70C20E2
:106CC000E6E71020E4E70D20E2E70E20E0E705E02C
:106CD0000F20DDE71120DBE71220D9E71320D7E7EB
:106CE0001420D5E71520D3E7F9F798BAF0B5034695
:106CF0000D4616465A6C0AB3DF681C6C00211AE078
:106D000004EBC100007928B104EBC100407906EB27
:106D1000001005E004EBC100407955F82000006840
:106D2000844602F1100050F821000068604501D04F
:106D30000020F0BD491CB942E2DB00BF1046F8E775
:106D40000246D168536F002901DC00207047C8203B
:106D500091FBF0F0411C6FF0004090FBF3F0884293
:106D600002DD01FB03F001E06FF000400146084640
:106D7000ECE70146486960B107E04869203848619E
:106D80004869806908B948697047D1E90420904290
:106D9000F3D80020F8E7000070B506460C4615460B
:106DA0000CB9002070BD608C00F4807018B10BA08D
:106DB00028600CA0F6E794F8220000F0200058B9F3
:106DC000A06890F8220000F0020028B12A46304660
:106DD000A168FFF7CDFDE5E70020E3E75F5F6763AC
:106DE000000000006D6574616D6574686F6400007B
:106DF00070B506460D462946304609F01DF8044692
:106E000000BF2A4604F11001002005F0F5F908B191
:106E1000204670BDE16909B90248FAE704EB411464
:106E2000EFE700000036010810B50446204621684F
:106E30000AF07AFCA06B0168481EA26B106031B1A9
:106E4000A06B4168481CA26B5060087802E0A06B00
:106E500007F03CFF20602068401C064A105C00F0F0
:106E6000100105A22046FEF765FE206804F072FBC3
:106E700010BD000068340108686578616465636965
:106E80006D616C20646967697420657870656374EE
:106E90006564000010B502461068006B50F82100D0
:106EA000064C04EA90306410031B581C10B94FF0D4
:106EB000FF3010BD481C1844FBE70000FFFF030033
:106EC00010B503461868006B00EB810201290ADB4C
:106ED00012F8040C00F03F00044C205C00F080002D
:106EE00008B1101F10BD1046FCE70000D0370108A4
:106EF00010B502469068406C0068546A0C4430F942
:106F000014301068C06B03EB430400EB840010BD29
:106F10002DE9FF4F81B0064689461F464A46039930
:106F2000491C304602F01AFB3860386818B14AA094
:106F300005B0BDE8F08F49463046039AFFF7C4F824
:106F40000546681C002874D0306B50F8254004F0CA
:106F50003F08B8F10D0F79D2DFE808F0074A4B7807
:106F600078401718787878786E0040F2FF1000EAC1
:106F7000D45AC4F38710824506DA3B465246294666
:106F80003046FFF7C5FFD3E761E000BFC4F38830A8
:106F9000009040F2FF1000EAD45AB8F1070F06D172
:106FA0002A460AF10101304602F0D8FA03E05146C0
:106FB00030460BF04BFF83463B4629463046009A4D
:106FC00000F0CEFBBBF1000F06D025A15846F9F723
:106FD000FEF908B924A0ABE725A0A9E740F2FF100D
:106FE00000EAD45130460BF031FF386022A09FE711
:106FF00000BFB8F1010F03D1214800EA943007E047
:10700000681C326B52F820006FF07C4202EA90104C
:107010000146F06A00EB0110007A00F00F0004282E
:1070200009D1F06A00EB011000681030386015A03B
:107030007EE70EE00AE00AE0C4F3883A3B46524697
:107040002946304600F08CFB11A071E700BF00BF5D
:1070500000BF00206CE700006C6F63616C000000F3
:107060005F454E5600000000676C6F62616C000067
:107070006669656C64000000757076616C7565000A
:10708000FFFF0300636F6E7374616E740000000095
:107090006D6574686F640000014623290CD02D29AA
:1070A00006D07E2906D0A1F20F1038B90220704711
:1070B0000020FCE70120FAE70320F8E70420F6E7C8
:1070C0002DE9F04106460F469046306805680024D9
:1070D00010E005F1100050F824000068B84208D113
:1070E0002146E8680BF0B2FEC8F8000004A0BDE835
:1070F000F081641CA879A042EBDC0020F7E70000D7
:10710000757076616C7565002DE9F84304460D468F
:1071100067684FF4857120460BF02FFA20B12046A6
:107120000AF091FF804607E0204607F00CFD0AA117
:10713000606B04F077FC80460095606C00F10C01F8
:107140003B464246204609F067F80646314620464F
:10715000FEF77CFFBDE8F883627265616B0000009A
:10716000C16270470AB1816100E0816270474FF6E9
:10717000FF71016000218171017141710121C171B3
:10718000704770B50A4600211488A3B233E003F0BB
:1071900001046CB304684E000325B540AC430460A1
:1071A00094794D00AC4005682C4304604468012587
:1071B0008D40AC434460446815798D402C43446055
:1071C00084684E000325B540AC438460D4794D00FB
:1071D000AC4085682C438460C4684E000325B540EC
:1071E000AC43C46054794D00AC40C5682C43C460C6
:1071F0005B104C1CA1B2002BC9DC70BDF0B50023A4
:1072000000244D07ED0E02FA05F3CD105DB1456A7D
:107210004E07F70E0F26BE40B5434562456A45EA64
:10722000030444620AE0056A4E07F70E0F26BE40CB
:10723000B5430562056A45EA03040462F0BD70B512
:1072400005460C4626683146284601F0B3FD70BD60
:10725000F8B504460D46266B4FF0FF3000906946A6
:1072600020460BF024F903E0694620460BF01FF995
:1072700040F2051120698842F6D0491E20460BF0E5
:107280007CF910B12046FDF79BF82B4640F20B121B
:10729000511F2046FDF794FA3046009903F0B0F9EB
:1072A000F8BD000070B504462568A06B0168481E53
:1072B000A26B106031B1A06B4168481CA26B50609A
:1072C000087802E0A06B07F001FD206020680A2822
:1072D00002D020680D2813D12068A84210D0A06BDE
:1072E0000168481EA26B106031B1A06B4168481C58
:1072F000A26B5060087802E0A06B07F0E7FC20600A
:107300006068401C6FF000416060884204D1002238
:1073100002A1204600F0ACFC70BD00006368756EF1
:107320006B2068617320746F6F206D616E79206CC3
:10733000696E65730000000030B50246536900298C
:1073400009DD186800EB0114D068A04201D8134889
:1073500030BD2046FCE71248814203DDD06800EBD7
:107360000110F5E70E48814202D110692830EFE79D
:107370000B48411A18688068162801D10748E7E7CA
:1073800018680468A079884205DB481E04F11005DE
:1073900005EB0010DCE70148DAE7000000360108E1
:1073A000D8B9F0FF4FF0FF33036143610170826091
:1073B00070472DE9F04186B004460E46204602F0A3
:1073C00009FC054606F12800294601604522826035
:1073D00000230222204602F01FFD02A82146016080
:1073E000482282600122002329460090204602F0B4
:1073F000BBFD02AF204602F0EDFB8046C7F80080DF
:107400004520B86002A802220023294600902046A9
:1074100002F0AAFD06B0BDE8F0812DE9FC478146E7
:10742000884614461D46DDE90A67B8F10E0F52D2B0
:10743000DFE808F0070C101751511F272C31363D9B
:10744000464BA01945EB0701BDE8FC87A01B65EB87
:107450000701F9E7A4FB060105FB061104FB071170
:10746000F2E722462B464846CDE9006707F072F95D
:10747000EAE722462B464846CDE9006704F068FE5D
:10748000E2E704EA060005EA0701DDE744EA060050
:1074900045EA0701D8E784EA060085EA0701D3E751
:1074A00032463B462046294607F000FACCE7002347
:1074B000724263EB07032046294607F0F7F9C3E75A
:1074C0000021081B61EB0501BEE74FF0FF3184EAA4
:1074D00001006940B8E700200146B5E72DE9F04119
:1074E0000B3020F00706104D19E02068B04215D38C
:1074F000B0420AD9871B201DD4F80480F8F744FF56
:10750000A019C0E90078286004E060682860201DA8
:10751000F8F73AFF201D2660BDE8F081251D2C6894
:10752000002CE2D10020F7E7940000202DE9F0477D
:1075300081468A461646D9F8105031465046AA6B05
:1075400004F01BFA0746286A401E3840A96901EB7F
:107550008008D8F800401AE0E079B04216D13246EF
:1075600004F110015046F8F740FF78B9607980F0D7
:10757000030095F83C1081F00301084018B96079C8
:1075800080F0030060712046BDE8F087E468002CBD
:10759000E2D1D5E9071081420EDB286AB0F1804FB5
:1075A0000ADA286A4100484604F0ADFA286A401E0B
:1075B0003840A96901EB80083B4604223146484621
:1075C000FDF78BFE04463246514604F11000F8F7F1
:1075D000DBFEE671D8F80000E060C8F80040E8691A
:1075E000401CE8612046CFE770B504460D462946A9
:1075F000204607F02AFE28B105A22946204603F0BE
:10760000FFF904E00322294620460AF03FFF70BD3F
:107610006E756D62657220686173206E6F20696E91
:10762000746567657220726570726573656E7461EA
:1076300074696F6E0000000070B506460221304686
:1076400003F088FA441C41F1000522462B463046DF
:1076500008F02BF822462B460121304607F00CFD9E
:1076600008B9012070BD0220FCE770B505460C4644
:10767000207A00F0400008B9002070BD207A00F0A8
:107680000F0004280AD12068407900F0030018B1E7
:107690002846216809F0B6FD0020EEE72068407911
:1076A00000F00300E9E710B502461069081A03115B
:1076B000002B0CDB14695068001BB3EB201F06DAAB
:1076C000106900EB0310884201D1012010BD002099
:1076D000FCE70146086800782D2804D10868401CA2
:1076E000086001207047086800782B2802D10868DC
:1076F000401C08600020F5E7F8B504460D46164624
:1077000028780C281BD12068006BA96850F82170DC
:1077100007F03F001B2811D12069401E20610EB9DF
:10772000012000E00020009040F2FF1000EAD75254
:10773000002322212046FDF772FCF8BD00BF294638
:107740002046FEF771F829462046FEF790FF009686
:10775000FF2223212046AB68FDF761FCEDE7000026
:107760002DE9F0410646884614461D4604F4807013
:1077700078B124F48072F16A01EB0210017A01F011
:107780000F01042904D1016810312960BDE8F0819E
:107790000CE02B46224641463046FFF7B9FB074630
:1077A0001FB13878632800D1F0E700BF01A028603E
:1077B00000BFEBE73F0000002DE9F04106460D4613
:1077C00017461C462CB92846FAF74EFC0020BDE8A7
:1077D000F0812146284609F0DFFCF8E710B52DEDD1
:1077E000048B82B0B0EE408AF0EE608A01A8B0EE61
:1077F000480AF0EE680AFAF777FDB0EE409AF0EE2C
:10780000609A9FED180B53EC102B51EC190BF8F705
:107810004AFF41EC180B9FED150B53EC102B51EC6C
:10782000180BF9F783F80FD89FED120B53EC102BC0
:1078300051EC180BF9F762F806D251EC180BF9F776
:1078400038F80446012020B9002002B0BDEC048BBA
:1078500010BD01980119B1F1004F01D20846F4E7BB
:10786000C843F2E7000000000000E0410000000013
:107870000000E0C3000000000000E0432DE9F043F9
:10788000B3B00546894620A12846F8F7E3FD064631
:107890001EB1307840F0200000E0002007466E2F37
:1078A00003D1002033B0BDE8F0833A46494628466C
:1078B00000F02EF804462CBB2E212846F8F776FD62
:1078C00080462846F8F77CFDC82802D8B8F1000F9A
:1078D00001D10020E6E729466846F8F795FDF8F75C
:1078E0004FFD00680078A8EB05010DF801003A464D
:1078F0004946684600F00CF8044614B16846201A60
:10790000441900BF2046CDE72E78586E4E00000087
:10791000F8B504460D461646782E04D16946204631
:10792000FBF752FB03E069462046FBF74DFB85ED74
:10793000000B0098A04201D10020F8BD02E00098A1
:10794000401C009000980078401C0649085C00F03C
:1079500008000028F3D10098007808B90098ECE7F7
:107960000020EAE7683401082DE9F35F0F460021A3
:107970000C460D464FF0010802E00098401C0090B4
:1079800000980078401C4A49085C00F00800002874
:10799000F3D16846FFF79DFE064600980078302830
:1079A0002CD100984078782803D000984078582847
:1079B00024D10098801C009015E00099087803F00D
:1079C000C9FD10234FF0000AA446ACFB032B05FBB6
:1079D00003B304FB0A33841843EBE075D0460098E8
:1079E00000F1010000900098007800F1010030499A
:1079F000085C00F010000028DFD136E02BE0009892
:107A00000078A0F130014FF0CC321009A21A75EBCA
:107A100000000BD34FF0CC321009121BA84102D347
:107A2000F01D884202DA0020BDE8FC9F4FF00A0CEE
:107A30004FF000092346A3FB0C0A05FB0CA204FB34
:107A4000092384461CEB010443EBE175C84600980A
:107A500000F1010000900098007800F10100144945
:107A6000085C00F002000028C9D102E00098401C28
:107A7000009000980078401C0D49085C00F0080058
:107A80000028F3D1B8F1000F02D10098007808B1B6
:107A90000020C9E72EB100200146001B61EB050163
:107AA00001E020462946C7E900010098BCE7000034
:107AB000683401082DE9F05F05460E4605F110090E
:107AC0002879042801D1E87900E0E868074606F142
:107AD00010083079042801D1F07900E0F06882467E
:107AE00000BF41464846F8F78DFC8346BBF1000FC6
:107AF00002D05846BDE8F09F4846F8F761FC0446BE
:107B0000544505D1BC4201D00120F3E70020F1E744
:107B1000BC4202D14FF0FF30ECE7641CA1443F1B94
:107B2000A044AAEB040A00BFDBE72DE9F84F0446A6
:107B30000E461746D4F83080606C00F118053246C6
:107B400029464046FCF726FF4FF490712046FCF78B
:107B500016FF404602F0E6FB82463B463246294687
:107B60000090204608F058FB814620460AF010F9A4
:107B700000212046FCF733FC30B1D8F80C00007B24
:107B8000296801EB09110873286800EB09112046E8
:107B9000FEF7F2F9BDE8F88F70B505460C46606A4D
:107BA00000B970BD20780D2802D020780E2811D1A0
:107BB0004FF0FF322146284602F09DFE226AA0695E
:107BC0004FF0FF338168284602F030FE206A401EE5
:107BD00020620CE0207818B12146284602F073FBA1
:107BE000D4E90823A0698168284602F01FFE00BF7F
:107BF000D7E72DE9F0410546EC68AE68206878B11A
:107C0000607B68B1284602F059FC0746227B394662
:107C1000284602F0C8FC3946284602F0F1FC00BFB5
:107C2000A07B10B13046FCF745FC2068E860217B62
:107C3000284609F071FC95F82A0085F82C00616847
:107C4000706CC161206820B12146284608F0D8F93F
:107C50000CE0A168706C0069814207DA706CC06842
:107C6000A26800EB021130460BF0AAF8BDE8F081E3
:107C70002DE9F04104460E46154631466368A26C74
:107C8000606B01F0FDFC064655B1294620460AF01E
:107C900073FF07463B46324604A1606B03F083FC4A
:107CA0000321606B01F024FBBDE8F0812573206E99
:107CB000656172202573000070B505460C462146AB
:107CC0002846FDF7E2FF216A06A36FF00042286B09
:107CD000FCF7F5FD206A401C2062606A401C60626F
:107CE00070BD00006974656D7320696E206120634A
:107CF0006F6E7374727563746F72000070B50446B2
:107D00000E460020E16B486000BF2068322878D022
:107D10001FDC222876D011DC0B283DD007DCB0F127
:107D2000FF3F70D0092836D00A286DD12CE00C28EE
:107D300030D00D2829D02028F7D12AE027380B2869
:107D400062D2DFE800F0EE61616161613BEDECEB76
:107D5000EA00392872D008DCA0F133000628EFD2FF
:107D6000DFE800F0EFEEEDECEBEA3E2867D006DC52
:107D70003A2874D03C2873D03D28D6D199E05B28AE
:107D80007FD07E28D1D11BE100BF2046FFF78AFAC1
:107D9000E7E100BF00BF00BFA06B0168481EA26BF7
:107DA000106031B1A06B4168481CA26B506008782C
:107DB00002E0A06B06F08AFF2060D2E1A06B0168B0
:107DC000481EA26B106031B1A06B4168481CA26BC9
:107DD0005060087802E0A06B06F078FF2060206811
:107DE0002D2801D02D2070BDA06B0168481EA26B0C
:107DF000106051B1A06B4168481CA26B50600878BC
:107E000006E051E112E15BE15DE1A06B06F05EFF8F
:107E1000206020685B2814D1204609F063FF0546E6
:107E20000020E16B4860002D0ADB2A460021204635
:107E300008F010FE0020E16B486092E13BE181E038
:107E400000BF13E0A06B0168481EA26B106049B12F
:107E5000A06B4168481CA26B5060087805E0CAE03E
:107E600042E00EE0A06B06F031FF206020680A2897
:107E700006D020680D2803D02068401C0028E1D1DE
:107E80006FE1204609F02EFF0546002D07DB2A464C
:107E90003146204608F0DEFD40F22510A3E7681CBD
:107EA00028B140F22512AFA12046FFF7E1FE5B208A
:107EB00099E7A06B0168481EA26B106031B1A06BFE
:107EC0004168481CA26B5060087802E0A06B06F085
:107ED000FDFE20603D212046FCF7B2FC10B14FF4BE
:107EE0008D7080E73D207EE7A06B0168481EA26B85
:107EF000106031B1A06B4168481CA26B50600878DB
:107F000002E0A06B06F0E2FE20603D212046FCF777
:107F100097FC38B14FF48E7065E7C4E0C2E034E0FE
:107F20008DE084E03C212046FCF78AFC10B14FF440
:107F30008F7058E73C2056E7BCE0BAE0B8E0B6E006
:107F4000B4E0B2E0A06B0168481EA26B106031B1D2
:107F5000A06B4168481CA26B5060087802E0A06BDF
:107F600006F0B4FE20603D212046FCF769FC10B10C
:107F700040F21B1037E73E212046FCF761FC10B1B0
:107F800040F21F102FE73E202DE7A06B0168481E2E
:107F9000A26B106031B1A06B4168481CA26B5060AD
:107FA000087802E0A06B06F091FE20602F212046A9
:107FB000FCF746FC10B140F2171014E72F2012E72F
:107FC000A06B0168481EA26B106031B1A06B4168C4
:107FD000481CA26B5060087802E0A06B06F076FEA9
:107FE00020603D212046FCF72BFC10B140F21D1013
:107FF000F9E67E20F7E6A06B0168481EA26B1060D0
:1080000031B1A06B4168481CA26B5060087802E057
:10801000A06B06F05BFE20603A212046FCF710FCC6
:1080200010B14FF49070DEE63A20DCE600BF324635
:108030002046216808F070FE40F22510D3E6204665
:10804000216809F071FBA06B0168481EA26B1060EB
:1080500031B1A06B4168481CA26B5060087802E007
:10806000A06B06F033FE20602E212046FCF7E8FBD3
:1080700050B12E212046FCF7E3FB10B140F219105D
:10808000B1E64FF48C70AEE62068401C3D49085CB8
:1080900000F0020008B92E20A5E63146204608F07F
:1080A0009FFDA0E600BF00BF00BF00BF00BF00BF34
:1080B00000BF00BF00BF3146204608F091FD92E6A8
:1080C00040F221108FE62068401C2E49085C00F029
:1080D000010070B300BF2046216809F025FBA06BAA
:1080E0000168481EA26B106031B1A06B4168481C4A
:1080F000A26B5060087802E0A06B06F0E7FD2060FC
:108100002068401C1F49085C00F003000028E2D1F1
:10811000E06B06C8204606F0E1FC0546356028798C
:10812000042807D1A879002804DDA87900F580701B
:1081300059E602E04FF4927055E62568A06B01689D
:10814000481EA26B106031B1A06B4168481CA26B45
:108150005060087802E0A06B06F0B8FD2060284669
:1081600041E6D2E5696E76616C6964206C6F6E677A
:1081700020737472696E672064656C696D697465DB
:10818000720000006834010870B506460D461446BA
:108190008DB974B12146304607F0C5FA0122D11ECF
:1081A000304607F080FC20B96FF00101304607F03F
:1081B0005BFC012070BD304607F081FA0122D11E20
:1081C000304607F095FB0220F4E770B586B0044610
:1081D000256B204609F037FF06463146204607F05A
:1081E000D1FF01212046FBF7A7FD0022694620466A
:1081F0006368FCF711F928460299FEF779FE2969B0
:10820000416006B070BDF0B587B00646002500BFDE
:10821000304609F018FF07463946304607F0B2FFEE
:108220006D1C2C2130460AF0A8F90028F0D13D2120
:1082300030460AF0A2F928B169463046FDF70BFD39
:10824000044603E000208DF8000000246B4622461F
:1082500029463046FBF7FCFC29463046FBF76CFD0F
:1082600007B0F0BD10B504460121204607F07EFCA2
:1082700018B1204606F0D2FF10BD0121204602F0C1
:1082800051FC4FF0FF320121204607F031FB6FF027
:108290000101204607F0E8FB05A1204607F01FFA80
:1082A0000121204607F0E0FB204600F099F8E3E7C3
:1082B000617373657274696F6E206661696C656461
:1082C000210000002DE9F0412DED088B07462A4BD7
:1082D0002AA20121384602F065FC2A4951F82050B3
:1082E000002213460221384602F0EEFD06463246D1
:1082F0002946384606F02AFE0446032D04D0052DF3
:108300002CD0092D31D12AE000220421384606F074
:108310001DFE80464046F8F7A7FA41EC1B0B9FED87
:108320001A0B53EC102BF8F730FA41EC190B2046DE
:10833000F8F79AFA41EC1A0B53EC192BF8F70CF9F1
:1083400041EC180BB0EE480AF0EE680A384607F028
:10835000BDF90120BDEC088BBDE8F08100BF2146CE
:10836000384607F041F90120F4E72246E317384682
:1083700007F09BF90120EDE708340108636F6C6C8E
:10838000656374002C340108000000000000904078
:1083900038B5044600231A460121204602F0A9FD03
:1083A00005460121204607F05FFB002229462046B2
:1083B00002F0C6FC18B1204606F0C1FD38BD0748E2
:1083C00000235A1E19460090204606F0E7FC0022C2
:1083D00011462046FDF7B4FAF0E7000041590008C5
:1083E00070B50546012200230221284602F06CFDEB
:1083F00004460121284607F037FB0121284607F0F3
:108400007BFC04280DD1002C0BDD2146284602F010
:108410008BFE0121284607F086F90221284606F046
:1084200025FD284606F08BFD70BD000010B5044602
:108430000121204602F076FB0121204606F0A2FE33
:1084400020B9204607F03BF9012010BD03A201210D
:10845000204602F033FC0120F7E700005F5F6D6506
:1084600074617461626C650010B504460121204698
:1084700002F058FB00220749204607F0C1F801210D
:10848000204607F050F900221346204607F00DF968
:10849000032010BD397600082DE9FC47074601AAE4
:1084A0000121384607F098FB0546002320A203214E
:1084B000384602F01EFD06460421384607F01CFC33
:1084C000401C08B1042000E0002080467DB100235C
:1084D0002A460221384602F00CFD81464B460096A2
:1084E00029463846019A02F015FC044618E000239C
:1084F00010A20221384602F0FCFC8146062201212E
:10850000384602F0B1FB0521384607F0ADFA4B467C
:1085100000220A493846009606F036FF044600BF9E
:10852000424621463846FFF72FFEBDE8FC87000093
:10853000627400003D286C6F61642900F96A0008CC
:108540002DE9F041044600231A460121204602F09D
:10855000D0FC074600231A460221204602F0C9FC3F
:1085600080460321204607F0C7FB401C08B10320CA
:1085700000E00020054642463946204602F0E0FB76
:1085800006462A4631462046FFF7FEFDBDE8F0814B
:1085900010B5044605220121204602F065FB0221A8
:1085A000204607F061FA0121204606F09FFF08B13E
:1085B000022010BD204607F082F80120F9E70000F4
:1085C00010B50446034B002203A1204607F0E7FF45
:1085D00010BD0000918500085F5F706169727300D3
:1085E0007CB504460121204602F09CFA0121204678
:1085F00006F0FAFF01221146204607F079F92046DD
:1086000006F00CFE861E084800210B464A1ECDE9E6
:1086100000103146204606F085FF05460022294617
:108620002046FDF7C5FD7CBDB16100082DE9FC4188
:108630000646304606F0F2FD074623A1304606F016
:1086400008FD012432E04FF0FF31304607F06BF8AF
:108650002146304607F067F8002003460122114604
:108660000090304606F09AFB01AA4FF0FF313046E9
:1086700007F0B2FA05462DB916A1304602F004FB08
:10868000BDE8FC81012C05DD1D4B012211461DA01A
:10869000FEF71FFA1A4B01212846019AFEF719FA34
:1086A0006FF00101304607F0DFF9641CBC42CADDFF
:1086B000134B0122114614A0FEF70BFA10480020BC
:1086C00000BF0020DCE70000746F737472696E678E
:1086D0000000000027746F737472696E6727206D45
:1086E0007573742072657475726E20612073747274
:1086F000696E6720746F20277072696E742700009E
:1087000070000020090000000A00000070B5044657
:108710000121204602F006FA0221204602F002FA68
:1087200002220121204607F023F80546294620466B
:1087300006F05AFF012070BD10B504460522012144
:10874000204602F091FA0221204602F0EBF90221C4
:10875000204607F089F90121204607F029F8012079
:1087600010BD00002DE9F04105460121284607F023
:10877000C3FA0446052C06D0042C04D008A201211B
:10878000284602F03DF90121284607F054F800235D
:1087900006463246284606F088FF0120BDE8F081F3
:1087A0007461626C65206F7220737472696E6720E9
:1087B00065787065637465640000000010B5044658
:1087C00005220121204602F04FFA0221204602F044
:1087D000A9F90321204602F0A5F90321204607F05C
:1087E00043F90121204607F049F8012010BD00009F
:1087F0002DE9F0410746384606F010FD04460121F8
:10880000384607F079FA042811D1002201213846B0
:1088100007F0E2F90078232809D1601EC317054646
:108820002A46384606F041FF0120BDE8F0810121CB
:10883000384602F08FF905460E4600210846691AAF
:1088400076EB000003DA651946EBE47605E0E01705
:10885000611BB04101DAE6172546691E76F100007A
:1088600004DA03A20121384602F0CAF8601BDCE7F3
:10887000696E646578206F7574206F662072616E12
:108880006765000070B505460221284607F034FAF6
:10889000044605220121284602F0E6F934B1052CF0
:1088A00004D00DA20221284602F0AAF810A201214C
:1088B000284602F003FA20B110A1284602F0E4F99C
:1088C00070BD0221284607F0CFF80121284607F0A5
:1088D00070F80120F4E700006E696C206F7220745C
:1088E00061626C6520657870656374656400000082
:1088F0005F5F6D6574617461626C650063616E6E6B
:108900006F74206368616E676520612070726F7498
:108910006563746564206D6574617461626C650083
:10892000FEB507460221384607F0E6F9002821DCAB
:108930000121384602F0F6F80121384607F0DCF94B
:10894000032805D10121384607F08EF80120FEBD2D
:1089500002AA0121384607F03FF904464CB12146EE
:10896000384607F0F4F80299491C884201D10120E9
:10897000EDE732E00021009101910221384602F03A
:10898000E9F804460D4604220121384602F06CF94C
:1089900002AA0121384607F01FF90646A11E75F10B
:1089A000000004DB0020D4F12401A84104DA0DA268
:1089B0000221384602F024F86A4621463046FBF789
:1089C00097FC02993144884206D13846DDE90023FC
:1089D00006F06BFE0120BAE700BF384606F06FFED6
:1089E0000120B4E762617365206F7574206F6620A3
:1089F00072616E676500000010B5044601212046D3
:108A000002F090F800220121204602F0C3FA012072
:108A100010BD000070B505460121284607F06CF92D
:108A20000446601C20B908A20121284601F0E8FF95
:108A30002146284607F074F906463146284606F0D6
:108A40004EFE012070BD000076616C756520657872
:108A500070656374656400007CB50446204606F0CA
:108A6000DDFB064606220221204602F0FDF8012128
:108A7000204606F0B9FD0121204606F054FE0222F0
:108A80000321204606F034FF08480221CDE90010FA
:108A9000B11E0223DA1E204606F044FD05460222DE
:108AA00029462046FDF784FB7CBD0000B16100082B
:108AB0002DE9F04106460C461746356995F83D000C
:108AC000012804DC3946284608F09CFB08E0607960
:108AD00020F0070095F83C1001F003010843607195
:108AE000BDE8F08102694B7903F0FB034B71136D14
:108AF000CB61116570472DE9F04180460C46164662
:108B0000D8F81050607900F0080078B90EB900204C
:108B10000BE0B07900F0040008B1002005E09020DF
:108B200042590221304603F0D6F808B9BDE8F08179
:108B300095F83D00022814DB95F83D00052810DC6F
:108B4000607920F0070095F83C1001F0030108431C
:108B50006071686CA04204D14046696C09F091FBD9
:108B6000686405F1400700E03F683868A042FBD127
:108B700020683860A86C2060AC64607940F0080020
:108B8000607100BF00BFD1E7024610694B7903F066
:108B9000FC034B710B680364436E0B6041667047C6
:108BA00070B505462C690121204608F026FE2846AE
:108BB000FBF7A0FC032084F83C00002084F83E0072
:108BC000421E04F14801284609F006FB4FF0FF322F
:108BD00004F14001284609F0FFFA4FF0FF3204F19A
:108BE0006401284609F0F8FA70BD70B505460E46D6
:108BF0002C6916B1012084F83E0094F83D0001284C
:108C000002DC2846FCF7D8FE8021284600F02EF82A
:108C10006FF08001284600F029F84021284600F036
:108C200025F88021284600F021F8002084F83E0035
:108C3000204608F0ADFE70BD2DE9F04107460D4617
:108C400090463E6905F00F0243460021384602F087
:108C5000D9FA044696F83C0000F0030060712571D3
:108C6000306C206034642046BDE8F08170B5044665
:108C70000D46266902E0204608F03AFF96F83D10BE
:108C80000120884028400028F5D070BD2DE9F04132
:108C9000064634692046FEF753F8054694F83F002F
:108CA00028B91549204600F09CFBBDE8F08100BFC3
:108CB000304608F01DFF0746ED1B15F5C86F03DDB4
:108CC00094F83D000728F3D194F83D00072803D11C
:108CD000204608F05DFE0CE0606F95FBF0F0C821C7
:108CE00000FB01F52946204600F07BFB304608F0EA
:108CF00003FD00BFD9E7000080C1FFFF2DE9F0416F
:108D000004460D4626692868076896F83D00012844
:108D100007DC787900F0030018B13946304608F0D6
:108D200071FABDE8F08170B505460C466068401EDA
:108D30006060606850B904F108002168814205D183
:108D4000002318222146284602F05CFA70BD70B557
:108D500004460D461646B4F86E00401C80B2A4F8D6
:108D60006E00C82802DB204609F08CF832462946FE
:108D7000204600F015F910B9204603F079FBB4F84D
:108D80006E00401EA4F86E0070BD70B504460D461E
:108D90001646B4F86C00401CA4F86C003246294614
:108DA0002046FFF7D4FFB4F86C00401EA4F86C0016
:108DB00070BD00002DE9F04104460E46276E1548AF
:108DC000874204DD0621204600F092FA20E0216A65
:108DD000E068401A06EB201000F105087D000D4800
:108DE000854200DD0546454500DA4546094885428D
:108DF00009DD0849C831204600F01FFA06A12046C7
:108E000000F006FD03E02946204600F016FA00BFF8
:108E1000BDE8F08140420F00737461636B206F7690
:108E20006572666C6F7700002DE9F0479AB00446D2
:108E30000E461746D4F85880B8F1000F36D094F893
:108E4000740098B36569216AE068A0EB010968685D
:108E5000216AA0EB010A019606971995E168E0697D
:108E6000401A1421B1EB201F03DB2046FFF7A2FFBD
:108E700000E000BFE06800F5A0706860002084F8A2
:108E80007400688C40F00400688401A92046C04743
:108E9000012084F87400206A50446860206A4844C5
:108EA000E060688C20F00400688400BF1AB0BDE860
:108EB000F08710B50446E168E069401A0121B1EB82
:108EC000201F03DB2046FFF775FF00E000BFE068CE
:108ED0001030E06010BD2DE9FF4F83B00446884696
:108EE0001E46DDF84090D4F814A094F874B0B4F89D
:108EF0006C000290E06D0190C4F85C904146204601
:108F0000059A00F07FF90546ADB1206A8719394608
:108F1000204600F08DFA3A462946204608F0B0FC7B
:108F2000C4F814A084F874B00298A4F86C00204629
:108F300000F0B0F900BF0198E065284607B0BDE831
:108F4000F08F2DE9F84F04460D4616469846B5F9C0
:108F5000209094F8700000F00600A0B194F8700022
:108F600000F0020060B1206AA6EB000A4FF0FF3269
:108F700001212046FFF758FF206A00EB0A0600BFD8
:108F8000A8684069A0612F68A868606143463A46B6
:108F900031462046CDF8009007F05AF8BDE8F88F2A
:108FA0002DE9FC5F04460D469146287A00F03F000B
:108FB000062854D0162805D0262873D12868C06802
:108FC000019002E02868019000BFE168E069401A62
:108FD0001421B1EB201F12DB206AA5EB00082069E9
:108FE000C068002803DD2046FFF750FE00BF1421B3
:108FF0002046FFF7DFFE206A00EB080500E000BF17
:109000006069C06810B16069C06802E0204600F085
:10901000AEF9064660610FFA89F030843560E06889
:1090200000F5A07070600020708494F8700000F06B
:10903000010028B14FF0FF3200212046FFF7F4FE77
:109040002046019988470746E068A0EB07123B4697
:1090500031462046FFF775FF0120BDE8FC9F2868D8
:10906000D0F80C80E068401B0121C1EB201A98F871
:1090700008B0E168E069401ABBEB201F13DB206AEF
:10908000281A00902069C068002803DD2046FFF7F9
:10909000FDFD00BF59462046FFF78CFE216A00986F
:1090A0000D1801E03DE000BF98F8070030B15246CE
:1090B00041462046FAF70DFE07460EE007E0002184
:1090C000E26802F11000E06091600AF1010A98F88C
:1090D00006005045F3DC05F110076069C06810B167
:1090E0006069C06802E0204600F041F90646606110
:1090F0000FFA89F030843560376107EB0B10706030
:10910000E060D8F8301071610220708494F870002B
:1091100000F0010018B131462046FBF7F7F90020B6
:109120009BE7E168E069401A0121B1EB201F10DBE9
:10913000206A2F1A2069C068002803DD2046FFF747
:10914000A5FD00BF01212046FFF734FE206AC519A6
:1091500000E000BF2946204609F0DCFC4A462946CB
:109160002046FFF71DFF78E72DE9F04190B0044657
:109170000D4616461F46B4F86C00401CA4F86C005F
:1091800001950F960E9700200590002107910891F8
:109190000A910B910D9102900491E06D0090216A6B
:1091A000E068431A01AA16492046FFF794FE80465C
:1091B00000232046049A029902F024F8029000212C
:1091C00004910798420000232046059902F01AF8FE
:1091D0000A98020100232046089902F013F80D981E
:1091E0000201002320460B9902F00CF8B4F86C0041
:1091F000401EA4F86C00404610B0BDE8F0810000AD
:109200005D5D0008F0B5ADB004460D461646B4F8F5
:109210006E7000202A90206B0090C4F830D002A815
:10922000F7F7B8FB10B931462046A84700982063ED
:10923000A4F86E702A982DB0F0BD2DE9F0410446D7
:109240000D46276A266E681CB0F1805F03D3204666
:1092500002F00AF800E000BF2B01206E0201204658
:10926000216A01F0CFFF206205E00020216A01EBB6
:1092700006118860761CAE42F7DB2566206A00EB9B
:1092800005105038E06139462046FBF7DBFFBDE8AA
:10929000F081000070B50546284608F011FE04462E
:1092A0002046E11704EB517104EBE10101F10A06DC
:1092B0000E48864200DD06460C49286E884203DDD2
:1092C000284600F068F802E0284600F09AF80748BF
:1092D000401F844207DC286EB04204DD3146284638
:1092E000FFF7ABFF00E000BF70BD000040420F0081
:1092F0002DE9F04104460E46206B40B1206BC0F8CA
:10930000A860216B01F108000121F7F750FB2569E6
:109310002672E86F006B98B1E96FC86800F1100120
:10932000EA6FD160E16851F8102DD1E90137C968C1
:1093300080E88C00C1603146E86FFFF7D9FF13E089
:10934000A86F78B131462046E26808F099FA606962
:109350004068E168884202D26169E068486020465E
:10936000A96F8847AFF3008000BFBDE8F08170B5FA
:109370000446242300221146204601F043FF0546FF
:109380006069C5606069A8600020E860E088401CF2
:10939000E080284670BD70B504466569EE6800201F
:1093A000E86009E0EE68002324222946204601F007
:1093B00029FFE088401EE080351EF3D170BD70B5F6
:1093C00005460C46261F2046216A00F031F820464B
:1093D000FDF7E8F900237C223146284601F012FF10
:1093E00070BD10B5D0E902341A196FF00043D31ADA
:1093F0008B4202DD6FF00043D11A531A8360C160C3
:1094000010BD70B505466C690BE000232422284688
:10941000E16801F0F7FEE888401EE880E660B4608D
:109420003446E06818B1E068C668002EEDD170BD22
:109430002DE9F04105460E4621E0A06868626068AB
:1094400030B9002318222146284601F0DBFE16E041
:1094500004F1080027688ECF80E88E002060206825
:10946000007A00F0400048B104F108002168814210
:1094700004D121462846FFF741FC00E000BF686A9E
:1094800018B16C6A2068B042D7D2BDE8F0812DE9EE
:10949000F04104460E4604F1240708E0D8F8000025
:1094A000B04202D14046BDE8F08108F108073868B3
:1094B00028B1D7F80080D8F80000B042EED21823C7
:1094C00000221146204601F09DFE054600206860FE
:1094D0003868A8600121E9603D602E60E06AA04222
:1094E00004D12069806EE062206984662846DAE74C
:1094F00070B505460C466069820000232846216B42
:1095000001F080FEE069820000232846616B01F0D3
:1095100079FE2069020100232846E16A01F072FE0B
:10952000A069820000232846A16B01F06BFE206A2F
:1095300000EB4000820000232846E16B01F062FE50
:10954000E068C20000232846216C01F05BFE002386
:1095500050222146284601F055FE70BD30B5034625
:109560000C46002111E001EB4105D86B00EB8500B2
:109570008068904208DD641E34B901EB4105D86B68
:1095800050F82500103030BD491C186A884207DDAC
:1095900001EB4105D86B00EB850040689042E2DDAD
:1095A0000020F0E72DE9F04107460D46002613E0C4
:1095B000182300221146384601F024FE04460120FB
:1095C000606004F10800206000202168886005F1D7
:1095D000100040F82640761CA879B042E8DCBDE8CF
:1095E000F0812DE9F04107460C46601E000100F1B4
:1095F000200226213846FFF71FFB05462E46B47190
:109600003046BDE8F0812DE9F04107460C46601E6A
:10961000800000F1140206213846FFF70DFB0646D4
:1096200035460020E860AC7104E0002105F110002F
:1096300040F82410201EA4F10104F6D12846BDE80C
:10964000F08170B50646502209213046FFF7F4FA42
:10965000044625460020E86228616863E8612863C3
:1096600068646861A863A8612864E860A871E8710B
:109670002872E86328626862A862A864284670BD00
:10968000F0B591B006460D4614461F4634B13C2253
:1096900004F1100102A801F0D7FE05E03F208DF88B
:1096A000080000208DF809003B4602AA03A13046BD
:1096B000009501F078FF11B0F0BD000025733A2548
:1096C000643A20257300000070B506460C46154626
:1096D000207A00F00F00042804D0207A00F00F0058
:1096E000032800D12C4603A22146304600F06EF933
:1096F00070BD0000636F6E636174656E61746500B8
:1097000070B50446E06DF0B1E16D206A4518E0687F
:10971000E16851F8102DD1E90136C96880E84C00A4
:10972000C160E168A1F1100095E84E0080E84E00AC
:10973000E0681030E060E068A0F1200101222046DE
:10974000FFF723FB00BF02212046FFF7D1FD70BDCC
:109750002DE9FC4107460C4615461E46A068032825
:1097600005D194ED000B8DED000B012003E069465F
:10977000204605F047F900B92546324629463846C5
:1097800000F024F9BDE8FC812DE9F04105460E46C4
:1097900014463146284602F0FBFA07462146284681
:1097A00002F0F6FA804641463846F6F710FE28B930
:1097B0003A4606A1284600F02BF805E043463A4613
:1097C0000BA1284600F024F8BDE8F08161747465AF
:1097D0006D707420746F20636F6D7061726520749A
:1097E000776F2025732076616C756573000000002B
:1097F000617474656D707420746F20636F6D706137
:109800007265202573207769746820257300000035
:109810000FB4F8B5044665692069C068002803DD07
:109820002046FFF733FA00BF08A800902046009AB0
:10983000079901F0C9FE06460020009095F8220025
:1098400000F0020060B12846FBF778FF0746286861
:109850000068C0683B463146826C2046FFF710FF27
:109860002046FFF74DFFF8BC5DF814FB2DE9FC41E5
:1098700006460C461546A068132805D1D4E9000118
:10988000CDE90001012004E000226946204605F0F0
:1098900037F800B925462946304609F023FC07462B
:1098A0003A4603A13046FFF7B3FFBDE8FC81000054
:1098B0006E756D626572257320686173206E6F200E
:1098C000696E746567657220726570726573656E26
:1098D000746174696F6E00002DE9F0470446656994
:1098E00094F87070A06E401EA06620B907F00800C2
:1098F00008B1012000E000208046B8F1000F02D03E
:10990000606EA06604E007F0040008B9BDE8F087C7
:1099100095F8220000F0400020B1688C20F0400053
:109920006884F3E7B8F1000F05D04FF0FF32032150
:109930002046FFF779FA07F0040070B32868006842
:10994000C6686869316B401A0121C1EBA009B06B90
:1099500018B1B06B50F8290001E04FF0FF3082469B
:10996000B9F1000F13D06869A16988420FD9B06BB3
:1099700048B1A069316B401A0121C1EBA000B16B65
:1099800051F8200001E04FF0FF30504504D052461E
:1099900002212046FFF748FA00BF6869A061207ADB
:1099A000012811D1B8F1000F00D0A0666869001F2E
:1099B0006861688C40F040006884E0681038286076
:1099C00001212046FFF794FC00BF9FE72DE9F843F3
:1099D00004460D4616462946204602F0D9F980462F
:1099E0002946204609F07EFB07464346324603A13E
:1099F00000902046FFF70CFFBDE8F88361747465A2
:109A00006D707420746F202573206120257320767B
:109A1000616C75652573000070B505460C4660697C
:109A200040B1E37901209840420100232846216992
:109A300001F0E8FBA068020100232846E16801F07C
:109A4000E1FB002320222146284601F0DBFB70BD0C
:109A50002DE9FC4105460C46207A00F03F0098B104
:109A6000032813D0042802D013281CD105E028466F
:109A7000216800F075F8BDE8FC81D4E90063324646
:109A8000284600F017F8F6E70948F4E7002269468F
:109A9000204604F035FF28B12846DDE9002300F018
:109AA00009F8E8E700BF21462846FDF7A1F9E2E7FB
:109AB0000036010870B50146561E63F1000488683F
:109AC000301A74F1000404D2CC68501E04EB00106C
:109AD00070BDCE790120B040401E10400D6905EBED
:109AE000401400BFA069132807D1D4E904055040F1
:109AF0005D40284301D12046EAE7E06900B902E071
:109B000004EB4014EEE700BF0048E1E7003601082F
:109B100070B50546AC68C4B1601EE96801EB001081
:109B2000806890B900200BE0021951084A1EEB68CA
:109B300003EB021292680AB90C4600E0084600BF27
:109B4000211A0129F0D8002170BD686910B90021DF
:109B50002046F9E722460023284609F0D4F8F3E727
:109B600030B502460B46D5790120A840401E9C68BE
:109B70000440106900EB441100BF01F11004A0681B
:109B8000442804D12068984201D1084630BDCD69EF
:109B90000DB90348FAE701EB451100BFEDE70000FE
:109BA000003601087FB505460C462079042805D10A
:109BB00021462846FFF7D4FF04B070BD6846214611
:109BC00001600A7942F04002826069462846FDF74A
:109BD0000FF9F1E770B50646202205213046FFF760
:109BE0002BF805462C460020A061FF20A071002024
:109BF000E060A06000222146304607F081FE20464A
:109C000070BD00002DE9F04387B0814688461546B7
:109C1000A86820B94FA14846FFF7FAFD29E0A868D7
:109C2000032826D100226946284604F069FE40B187
:109C300002A8DDE90012C0E900121321816002AD23
:109C400016E095ED002BB0EE420AF0EE620A95EDBB
:109C5000002BB0EE421AF0EE621A53EC102B51ECCE
:109C6000110BF6F74BFE03D03FA14846FFF7D0FD9E
:109C700000BF2946404606F0DFF80446A06818B940
:109C8000D8F81400002845D14046FDF772F8064682
:109C900066B92A464146484607F0BEFB2A46414679
:109CA000484600F049F907B0BDE8F08304F110011F
:109CB000404606F0C1F80746A7421CD002E0F8690A
:109CC00007EB4017F86907EB4010A042F7D1F01BF3
:109CD0004111F961202221463046F6F755FBE06933
:109CE00030B1A11BF06900EB6111F1610021E1616C
:109CF0000020A0600DE0E06930B1E06904EB4010A5
:109D0000801B4111F16100E000BF301B4111E16196
:109D1000344600BF04F110002946D1E90023C0E910
:109D200000238A688260287A00F0400070B198F8B9
:109D3000050000F0040048B12868407900F00300F5
:109D400020B141464846FEF7CDFE00E000BF204668
:109D5000A9E700007461626C6520696E6465782013
:109D60006973206E696C00007461626C6520696EB5
:109D7000646578206973204E614E00002DE9F04142
:109D800007460D461646324629463846FCF712F974
:109D9000044617E0E86800EB0410806888B130469C
:109DA000611C0022C0E90012132181601030E968B3
:109DB00001EB041C9CE80E1080E80E100120BDE8A9
:109DC000F081641CA868A042E4D8A868241A1BE0AB
:109DD000286900EB44108068A8B13046296901EB7E
:109DE000441CDCE90423DCE9061CC0E9021CC0E9D0
:109DF00000231030296901EB441C9CE80E1080E818
:109E00000E100120DBE7641CE97901208840A042A4
:109E1000DEDC0020D3E700002DE9FF4F83B00C46C5
:109E20001546A768606908B9002002E0E1790120C1
:109E300088408146D4F810A0BD4204D92A46214664
:109E4000039807F0FAFC01940698029001AA2E49A3
:109E50000398FFF7D7F940B13A462146039807F037
:109E6000ECFC04210398FFF743FABD4224D2A5601D
:109E70002E460FE0E06800EB0610806848B1E0680D
:109E800000EB0610721C002321460090039800F09E
:109E90006BF8761CBE42EDD3681CB0F1805F03D333
:109EA000039801F0E1F900E000BF2B013A01E168FD
:109EB000039801F0A7F9E060A9F1010813E00AEBAB
:109EC000481BDBF8080060B10BF110022146039833
:109ED00000F032F8009000989BE80E10A0E80E10F9
:109EE00000BFA8F10108B8F1000FE8DAB9F1000FDE
:109EF00006DD4FEA491200235146039801F082F92A
:109F000007B0BDE8F08F0000294200082DE9F041BC
:109F100005460C461646606908B9002002E0E17962
:109F20000120884007463B46324621462846FFF737
:109F300073FFBDE8F08100002DE9F04107460C46B3
:109F4000154629462046FFF783FD0646054886420A
:109F500002D03046BDE8F0812A4621463846FFF758
:109F600051FEF7E7003601082DE9FF4781460F460D
:109F700015461E46DDF830A02A4633463846FFF720
:109F800099FD80460B48804501D044460BE0684669
:109F9000C0E90056132181606A4639464846FFF7FA
:109FA00031FE044600BF9AE80F0084E80F00BDE8C8
:109FB000FF8700000036010870B504460E4694F88D
:109FC0002C0085192068007AA84207DAFF2D03DBF0
:109FD00003A1A06804F002FE21680D7270BD0000AC
:109FE00066756E6374696F6E206F7220657870722B
:109FF000657373696F6E206E6565647320746F6F2F
:10A00000206D616E79207265676973746572730083
:10A010007CB504460E4625682046FBF783FC206984
:10A02000401C696988420DDD17A06FF00041CDE941
:10A030000010296BA2680423506B05F1140201F093
:10A040009BF82863286B216940F821602069401C37
:10A05000A96988420DDD0CA06FF00041CDE9001028
:10A06000A96BA2680423506B05F1180201F084F873
:10A07000A863A0688068A96B226941F82200206962
:10A08000411C21617CBD00006F70636F64657300CB
:10A090002DE9F04107460C4615461E46DDF81880AE
:10A0A00044EA851040EAC65040EA88313846FFF756
:10A0B000AFFFBDE8F0812DE9F04107460C4615469B
:10A0C0001E4644EA851040EA86313846FFF7A0FF75
:10A0D000BDE8F0812DE9F04106460D461446B4F581
:10A0E000802F07DA23462A4601213046FFF7E3FF97
:10A0F000BDE8F08100232A4602213046FFF7DBFF4E
:10A10000074621463046FAF79EFE3846F0E72DE92D
:10A11000F04107460C461546681C08B9BDE8F081B9
:10A120002068401C08B9256011E0D4F8008000E0E8
:10A13000B04641463846FCF7ADFE0646401C0028B6
:10A14000F6D12A4641463846FCF74AF800BF00BF20
:10A15000E4E7F8B506460C4620780838072836D2DA
:10A16000DFE800F00407133535302F00072020709A
:10A170002EE000200090024605213046A368FFF73C
:10A1800087FFA0600C20207022E0B4F90810304650
:10A19000FCF7FAFAE07A082805D1A17A3046FCF7F4
:10A1A000F3FA072500E00625B4F908000090A37A29
:10A1B000002229463046FFF76BFFA0600C2020707C
:10A1C00006E000BF2146304600F072FB00E000BF11
:10A1D00000BFF8BD2DE9F04105460C462146284652
:10A1E00000F088F82078072835D2DFE800F0341036
:10A1F000040A281D150001212846FAF74DF9A06030
:10A200001EE000212846FAF747F9A06018E028462A
:10A2100006F0A2F8A06013E0D4E9026332462846B3
:10A2200000F037F9A0600BE094ED021BB0EE410A9C
:10A23000F0EE610A284600F09FF9A06000E000BF40
:10A2400004202070A068FF2804DCA06840F480701F
:10A25000BDE8F08100E000BF00BF2146284600F0C5
:10A2600001F8F5E770B505460C4621462846FFF78C
:10A2700070FF2078072811D1D4E90401884201D168
:10A28000A06870BD95F82A10A068884206DB2146B8
:10A290002846A268FBF781FCA068F2E72146284621
:10A2A00000F011F8A068ECE770B505460C46207880
:10A2B000092803D1D4E90401884203D02146284665
:10A2C000FFF7D0FF70BD70B504460D462946204605
:10A2D000FFF73FFF29462046FCF7C9F90121204638
:10A2E00000F060FA94F82C00421E29462046FBF745
:10A2F00054FC70BD70B505460C46D4E90401884293
:10A3000004D021462846FFF7ADFF03E0214628464A
:10A31000FFF71FFF70BD0268936B0269521E43F87E
:10A32000221070470146086948610869704770B596
:10A3300006460C4621463046FFF70BFF20780128E1
:10A3400005D0032804D00B2805D1A5680AE000BF7A
:10A350004FF0FF3506E0012221463046FDF7CCF9EB
:10A36000054600BF00BF2A4604F110013046FFF742
:10A37000CEFE3046616900F043F94FF0FF30606176
:10A3800070BD70B506460C4621463046FFF7E1FE2B
:10A390002078801E0A2812D2DFE800F00E110B0C84
:10A3A0000D11111111052146304605F0D6FEA568A4
:10A3B0000CE000BF00BF00BF4FF0FF3506E00022F9
:10A3C00021463046FDF798F9054600BF00BF2A46F2
:10A3D00004F114013046FFF79AFE3046216900F07F
:10A3E0000FF94FF0FF30206170BD70B506460C4686
:10A3F0001546217AA17229463046FFF7EBFE00B2DE
:10A4000020812078092801D1092100E00821E1728A
:10A410000A20207070BD70B506460C461546152CF6
:10A4200030D2DFE804F01A1B1C1F201D1E2122233E
:10A430002425152F2F2F2F2F2F0B100029463046A4
:10A44000FFF79FFF23E029463046FFF770FF1EE02D
:10A4500029463046FFF737FF19E000BF00BF00BFB5
:10A4600000BF00BF00BF00BF00BF00BF00BF00BFF4
:10A470000021284608F091F818B929463046FFF720
:10A48000A9FE04E029463046FFF7A4FE00BF00BF46
:10A4900070BD70B588B0064614461D4604A8046019
:10A4A000022181606846C0E90045132181606A4647
:10A4B00004A93046F9F702FB08B070BD38B5044670
:10A4C000A5694FF0FF30A061064B00221E212046F7
:10A4D000FFF7F1FD00902A4669462046FFF717FE78
:10A4E000009838BDFEFF01002DE9F84306460C46F2
:10A4F0001746E019A0F10108D6E90401884231DDD0
:10A500003068016B3069401E01EB8005287800F04F
:10A510003F00042826D12A88C2F3871040F2FF1397
:10A520002A6803EAD2521118A04202DC4A1C944263
:10A5300005DD844215DC08F10102904211DCA042E5
:10A5400000DA0446414500DD88462A6864F38D122E
:10A550002A60A8EB04032A6863F3DF522A60BDE88F
:10A56000F88300BF00207B1E224604210090304665
:10A57000FFF78EFD00BFF2E710B52DED028B84B022
:10A580000446B0EE408AF0EE608A684680ED008BAB
:10A59000032181606A4669462046F9F78FFA04B0C4
:10A5A000BDEC028B10BD70B505460C461646761CF8
:10A5B0000EE02868006B50F8240066F38D102968BF
:10A5C000096B41F8240021462846FCF763FC044649
:10A5D000601C0028EDD170BDF8B505460E46144646
:10A5E0002869A04204D13146284600F009F806E067
:10A5F000FF23224631462846009406F07BF8F8BD3A
:10A6000070B505460C462846FFF78CFE224605F13C
:10A6100018012846FFF77BFD70BD2DE9F84307467A
:10A620000E4615461C46DDF82080152E7BD2DFE84D
:10A6300006F05D5E5F6263606164656667682B7BE0
:10A640007C7D7E7F800B1B0021463846FFF781FD15
:10A6500004F1140138466A69FFF759FD18222146B2
:10A660002846F5F791FE6CE021463846FFF771FD6C
:10A6700004F1100138462A69FFF749FD18222146E6
:10A680002846F5F781FE5CE021463846FFF732FEAA
:10A6900020780C281DD13868006BA16810F82100C3
:10A6A00000F03F001D2814D129463846FBF7DFFF94
:10A6B00029893868006BA26850F8220061F3DF50E6
:10A6C0003968096B41F822000C202870A068A86046
:10A6D0000BE021463846FFF7F6FD23462A461D21AA
:10A6E0003846CDF80080FAF723FB2AE000BF00BF10
:10A6F00000BF00BF00BF00BF00BF00BF00BF00BF62
:10A7000000BF23462A4631463846FAF79DFC48B931
:10A7100006F10D00C1B223462A463846CDF8008026
:10A72000FAF706FB0DE00BE000BF00BF00BF00BF63
:10A7300000BF23462A4631463846FAF73AFB00E086
:10A7400000BF00BFBDE8F8832DE9F04106460C4686
:10A7500015461F4634B1012C05D0022C16D0032C0F
:10A7600019D10AE000BF0E4B2A4604F10C01304615
:10A77000FAF76AFC00B10FE000BF04F11900C1B2A2
:10A780003B462A463046FAF7BFFB05E029463046ED
:10A79000FAF763FB00E000BF00BFBDE8F0810000F6
:10A7A0005034010870B504460D4629462046FFF78F
:10A7B00003FC94F82C00284484F82C0070BDF8B5F4
:10A7C00006460C46154600206B1C224626210090AA
:10A7D0003046FFF75DFCF8BD2DE9F84305460C4611
:10A7E000164621462846FFF73DFDA7682146284624
:10A7F000FBF73DFF95F82C00A06007202070022198
:10A800002846FFF7CFFF31462846FFF7E3FC804696
:10A8100000903B460C212846A268FFF739FC3146E0
:10A820002846FBF724FFBDE8F88300002DE9F84334
:10A8300005460E4617469846781E322190FBF1F0E9
:10A84000441C08F1010008B9002000E040468146A0
:10A85000B4F5007F07DA4B4632462B212846009498
:10A86000FFF716FC13E0B4F1806F0CDA00204B46C2
:10A8700032462B2100902846FFF70AFC2146284645
:10A88000FAF7E1FA03E004A1A86804F0A7F9701C44
:10A8900085F82C00BDE8F883636F6E73747275637E
:10A8A000746F7220746F6F206C6F6E670000000011
:10A8B00010B50A780D2A0AD107220A700268126BB5
:10A8C0008B6832F82320C2F387128A6012E00A787C
:10A8D0000E2A0FD10268126B8B6852F82320C2F344
:10A8E000160242F0807203681B6B8C6843F82420C8
:10A8F0000C220A7010BD2DE9F04105460C461746A2
:10A9000020780D280CD1781C2968096BA26851F8B1
:10A91000221060F396312868006B40F8221018E08E
:10A9200020780E2814D12868006BA16800EB8106FE
:10A93000781C316860F3DF51316095F82C10306875
:10A9400061F38D10306001212846FFF72BFF00E0F6
:10A9500000BFBDE8F0812DE9F84307460C461546D7
:10A960002078082804D009280DD00A282ED118E014
:10A9700029463846FBF77BFE29463846A268FBF796
:10A980000CF9BDE8F88329463846FFF76BFC06460C
:10A9900000200090324609213846A368FFF778FB73
:10A9A00015E0E07A082801D10A2000E0082080465E
:10A9B00029463846FFF70EFC06460096B4F90830E3
:10A9C000A27A41463846FFF763FB00E000BF00BFB4
:10A9D00029463846FBF74BFE00BFD2E77FB5054658
:10A9E0000C466846214601600A7942F040028260C6
:10A9F0006A4669462846F9F761F804B070BD000060
:10AA000070B59AB006460C46154601AA002130469C
:10AA100004F0E8FB38B92B46224618A1304600F076
:10AA200033F91AB070BD01AA1AA1304604F064FBD4
:10AA300019A10398F5F7CBFC40B9641E34B92B4635
:10AA400017A13046029A00F01FF9EAE7029860B9B0
:10AA500001A9304605F096FF28B10022511E30466C
:10AA600005F0BAF800E016A002900095224615A164
:10AA70003046029B00F008F9D3E7000062616420D1
:10AA8000617267756D656E742023256420282573B7
:10AA9000290000006E0000006D6574686F6400009E
:10AAA00063616C6C696E672027257327206F6E20A9
:10AAB0006261642073656C6620282573290000009C
:10AAC0003F00000062616420617267756D656E749D
:10AAD0002023256420746F202725732720282573C1
:10AAE00029000000F8B504460D46164629462046C2
:10AAF00004F03CF9054632462946204600F0DEF8CF
:10AB000008B90020F8BD2946204604F00CFE0020BC
:10AB10000346012211460090204604F03FF901202F
:10AB2000F0E7000070B504460D462946204605F0C2
:10AB3000E3F8401C20B903A229462046FFF760FF36
:10AB400070BD000076616C75652065787065637412
:10AB500065640000F8B506460F466A463946304639
:10AB600005F017F804460D46009818B939463046E6
:10AB7000FCF73AFD20462946F8BD2DE9F04105468F
:10AB80000E4617463A463146284605F025F8044653
:10AB900024B904223146284607F078FC2046BDE857
:10ABA000F08100002DE9F0478046894616461D4693
:10ABB00036B1002332464946404600F09AF904E097
:10ABC000002249464046FFF7D8FF0746002409E027
:10ABD00055F824003946F5F7FAFB10B92046BDE8D0
:10ABE000F087641C55F824000028F1D13A4605A1ED
:10ABF000404604F041FD8246524649464046FFF732
:10AC0000FFFEECE7696E76616C6964206F707469B1
:10AC10006F6E20272573270070B505460E46144633
:10AC20003146284604F0E8F850B92CB1224605A177
:10AC3000284600F029F803E007A1284600F024F890
:10AC400070BD0000737461636B206F766572666C13
:10AC50006F77202825732900737461636B206F76EA
:10AC60006572666C6F77000070B505460E46144637
:10AC70003146284605F040F8A04204D0224631462D
:10AC8000284607F003FC70BD0FB438B5044606A88B
:10AC900000900121204600F047FA2046009A0599CD
:10ACA00004F053FD002000900221204604F0DEF85D
:10ACB000204604F044F938BC5DF814FB2DE9F0415E
:10ACC00006460F4614463946304604F05BFA10B982
:10ACD0000020BDE8F0812146304604F000FD6FF011
:10ACE0000101304604F064FD05462DB96FF0020104
:10ACF000304604F0B9FE0AE04FF0FF325100304612
:10AD000004F0F6FD6FF00101304604F0ADFE284678
:10AD1000DFE700002DE9FE4306460C4615461F46B8
:10AD2000DDF82880019402953B4601AA034930468C
:10AD3000CDF8008004F028FBBDE8FE83FB6B000823
:10AD40002DE9F047ADF5047D81460C461646484690
:10AD500004F064FA00F1010834B93BA1484604F05C
:10AD6000BEFC3B48039014E022463AA1484604F05A
:10AD700083FC39A12046002000BF0390039840B90E
:10AD8000424636A14846FAF725FE0DF5047DBDE89A
:10AD9000F08701A902A806F0E0FF28B10A21029A73
:10ADA000501C029004A881542EA00078019988427A
:10ADB00012D18CB12DA12046039A002000BF039030
:10ADC000039828B942462AA14846FAF703FEDCE771
:10ADD00001A902A806F0C1FF0198401C30B10198FA
:10ADE000C1B2029A501C029004A881540022511E44
:10ADF000484604F0F1FE8246534602AA1E494846E0
:10AE0000009604F0C1FA07460398002000BF0546EB
:10AE100014B103984FF0FF304DB14146484604F05D
:10AE200023FE424615A14846FAF7D4FDADE74FF0A0
:10AE3000FF324146484604F05BFD6FF00101484691
:10AE400004F012FE3846A0E73D737464696E00009A
:10AE50008800002040257300720000006F70656E4E
:10AE6000000000001B4C75610000000072620000D1
:10AE700072656F70656E0000B96B00087265616481
:10AE800000000000F8B505460C462046F5F798FA94
:10AE90000646002023463246214600902846FFF70A
:10AEA00039FFF8BD10B50021054804F0B3FA044697
:10AEB0001CB10449204603F06BFF204610BD000082
:10AEC000B9770008010601082DE9F04106460F4652
:10AED00014461D463946304604F00EFF002803DCB8
:10AEE00020462946BDE8F08139463046FFF732FE5C
:10AEF000F8E72DE9F04106460F4615461C4639464F
:10AF0000304604F0F9FE00280ADC34B11DB12846B1
:10AF1000F5F756FA00E0002020602846BDE8F081F1
:10AF2000224639463046FFF728FEF7E72DE9F04183
:10AF300007460D46144612A221463846FFF76CFE1E
:10AF400014E0002604E06142384604F0ECFB761C75
:10AF5000A642F8DB22463846696804F051FBA01C83
:10AF6000414238462A6804F013FD08352868002855
:10AF7000E7D1C4F1FF31384604F076FDBDE8F08139
:10AF8000746F6F206D616E7920757076616C756578
:10AF9000730000002DE9F0472DED028B05460E46AB
:10AFA00091464AA231462846FFF79CFD58B14FF022
:10AFB000FF31284604F05FF900287CD146A12846DD
:10AFC000FFF762FE77E03146284604F095FE002840
:10AFD0003BD001282BD0032802D004283AD121E00D
:10AFE0003146284604F022F960B100223146284655
:10AFF00004F0CFFD07463A460B4640A1284604F030
:10B000003BFB0EE000223146284604F01FFEB0EE66
:10B01000408AF0EE608A53EC182B39A1284604F0E0
:10B020002BFB47E03146284604F07DFB42E03146E9
:10B03000284604F09BFD08B132A000E033A004468E
:10B040002146284604F04BFB34E032A1284604F0A8
:10B0500046FB2FE030A231462846FFF72FFE04467C
:10B06000042C05D10022411F284604F0B5FD08E05C
:10B070003146284604F040FE80464146284604F00A
:10B080004FFE07463146284604F008FE80464346F8
:10B090003A4623A1284604F0EFFA54B14FF0FF32AC
:10B0A0005100284604F024FC6FF00101284604F00A
:10B0B000DBFC00BF00BF4A464FF0FF31284604F0DA
:10B0C0008BFDBDEC028BBDE8F08700005F5F746F05
:10B0D000737472696E670000275F5F746F737472B8
:10B0E000696E6727206D7573742072657475726E52
:10B0F000206120737472696E6700000025490000AA
:10B1000025660000747275650000000066616C734E
:10B11000650000006E696C005F5F6E616D65000028
:10B1200025733A202570000030B599B004460D46CD
:10B130006A462946204604F055F878B16A460AA1C5
:10B14000204603F0D9FF0598002807DD09AA07A1CA
:10B150002046059B04F090FA19B030BD05A12046A9
:10B1600004F08AFA00BFF7E7536C000025733A2514
:10B17000643A2000000000002DE9F05F8046894617
:10B1800014461F46DDE90A6A06EBD6722168B1EB68
:10B19000620F0ADB2068B04205DB3346524612A13B
:10B1A0004046FEF735FB354604E020684500042D97
:10B1B00000DA04254FF0FF30B0FBF7F1681C814244
:10B1C00003D2404600F050F800E000BF05FB07F353
:10B1D000206800FB07F24946404600F013F883461A
:10B1E00025605846BDE8F09F746F6F206D616E79E1
:10B1F00020257320286C696D69742069732025648B
:10B20000290000002DE9F0470746884691461E4672
:10B210003C69B8F1000F01D0484600E000208246AA
:10B2200033464A464146D4E900C0E04705469DB949
:10B2300096B1D4F8800050B101213846FDF7D5FC15
:10B2400033464A464146D4E900C0E04705461DB9A9
:10B2500004213846FEF74CF8E0683044A0EB0A00C1
:10B26000E0602846BDE8F08710B5044602A12046FC
:10B27000FEF7CEFA10BD00006D656D6F727920612A
:10B280006C6C6F636174696F6E206572726F723A75
:10B2900020626C6F636B20746F6F206269670000BF
:10B2A0002DE9F04F87B08346894615461E46109C0F
:10B2B000A9F104000A2868D2DFE800F03C3B6705EA
:10B2C00006070809670A00BF00BF00BF00BF00BF34
:10B2D000A868132805D1D5E90001CDE904010120B2
:10B2E00004E0002204A9284603F00AFB00B3B0687A
:10B2F000132805D1D6E90001CDE90201012004E0BF
:10B30000002202A9304603F0FBFA88B12746DDE9A6
:10B310000201CDE9000149465846DDE90423FCF766
:10B320007CF8C7E900011320B86007B0BDE8F08FD2
:10B330006EE000BFA868032805D195ED000B8DEDE8
:10B34000040B012003E004A9284603F05BFBD8B1FD
:10B35000B068032805D196ED000B8DED020B01209E
:10B3600003E002A9304603F04DFB68B127469DED8E
:10B37000021B9DED040B4946584604F0FFFF87ED84
:10B38000000B0320B860D0E742E0A868132814D16E
:10B39000B068132811D1A246D6E90001CDE9000119
:10B3A000D5E900733A4649465846FCF736F8CAE9EB
:10B3B00000011320CAF80800B7E7A868032805D1E0
:10B3C00095ED000B8DED040B012003E004A9284648
:10B3D00003F018FBD8B1B068032805D196ED000B37
:10B3E0008DED020B012003E002A9304603F00AFBB9
:10B3F00068B127469DED021B9DED040B494658465A
:10B4000004F0BCFF87ED000B0320B8608DE700BFA0
:10B4100000BF4846801DC0B22346324629460090F0
:10B42000584600F0E9FC00BF7FE70000014600221B
:10B43000491E01E00832090AFF29FBD80148405C97
:10B4400010447047103601082DE9F04106460F46BA
:10B4500015463846F4F7B4FF044638783D2811D134
:10B46000AC4205D82246791C3046F4F78DFF57E0F0
:10B470006A1E791C3046F4F787FF681E06440020D8
:10B4800030704DE03878402816D1AC4205D82246BD
:10B49000791C3046F4F778FF42E022A00188318021
:10B4A0008078B070F61CED1E2A46781C2044411BA3
:10B4B0003046F4F769FF33E00A213846F4F776FFA7
:10B4C000804619A00168316041687160007A30726D
:10B4D00009360F3DAC4209D2B8F1000F06D1224621
:10B4E00039463046F4F750FF264413E0B8F1000F18
:10B4F00001D0A8EB0704AC4200D92C4622463946BD
:10B500003046F4F741FF264406A001883180807858
:10B51000B070F61C07A0018831808078B07000BF41
:10B52000BDE8F0812E2E2E005B737472696E672069
:10B5300022000000225D00000146082901DA0846C9
:10B54000704701F0070008300122C2EBE102904091
:10B55000F6E700000146064A481C105C00F00200B5
:10B5600010B1A1F13000704741F020005738FAE7E0
:10B570006834010801460022082901D208467047B4
:10B5800003E001F10F000109121D8029F9D202E048
:10B59000481C4108521C1029FAD2A1F10800531C82
:10B5A00040EAC300EBE70FB438B5044606A80090A4
:10B5B0002046009A059900F007F805460020009003
:10B5C000284638BC5DF814FB2DE9F74386B00446E5
:10B5D0000E46002700BF25213046F4F7E7FE05465A
:10B5E00005B9AEE0AA1B3146204605F01DFA687881
:10B5F00064283DD008DC25286FD0492844D0552840
:10B600006CD063286BD118E066284ED0702868D0C3
:10B610007328F7D1089850F8048B0890B8F1000F00
:10B6200001D10FF264184046F4F7CAFE81464A463B
:10B630004146204605F0F8F97FE0089810F8041B11
:10B640000890C8B2059052499DF81400401C085C4F
:10B6500000F0040028B1012205A9204605F0E4F914
:10B6600005E09DF814204BA12046FFF79CFF64E005
:10B67000E06808990968089A121D0892CA17C0E97B
:10B680000012132181601EE0E0680899C91D21F0B5
:10B6900007010A46089109685268089B0833089315
:10B6A000C0E90012132181600DE0E0680899C91D0E
:10B6B00021F007010891B1EC020B089180ED000B1D
:10B6C0000321816000BF2046FDF7F3FBE068A0F195
:10B6D0001001204600F0A2F82FE022E012E026E060
:10B6E000FFE7089850F8048B089043462BA21821D6
:10B6F0006846F6F77BFC81464A466946204605F0D7
:10B7000093F91AE0089802C8089004A800F0D4F849
:10B71000804606A8A0EB08014246204605F084F9C1
:10B720000BE001221EA1204605F07EF905E06A78B3
:10B730001CA12046FEF76CF800BF00BFBF1CAE1C6A
:10B7400049E700BFE168E069401A0121B1EB201F21
:10B7500003DB2046FDF72EFB00E000BF3046F4F788
:10B760002FFE05462A463146204605F05DF9002F9A
:10B7700003DD791C204600F0FBFBE06850F8100C5C
:10B78000103009B0BDE8F083286E756C6C2900009C
:10B79000683401083C5C25643E0000002570000010
:10B7A00025000000696E76616C6964206F707469B1
:10B7B0006F6E2027252525632720746F20276C7541
:10B7C000615F7075736866737472696E67270000D5
:10B7D0007FB505460C4602A92846FCF7C5F8061EAB
:10B7E00007D02046DDE90212C0E900121321816072
:10B7F00010E069462846FCF741F8061E07D02046AF
:10B800009DED000B80ED000B0321816002E0002024
:10B8100004B070BD701B401CFAE700002DE9F04138
:10B8200090B080460C46A06813280AD1D4E90001E4
:10B830001AA2CDE90001322103A8F6F7D7FB05468D
:10B840001CE094ED000B8DED000B16A2322103A835
:10B85000F6F7CCFB054615A103A8F4F7EDFD03A907
:10B86000085C58B9F4F78CFD0068027828466D1C16
:10B8700003A90A54302228466D1C0A5426462A463B
:10B8800003A9404600F003F907463760387940F0D5
:10B890004000B06010B0BDE8F0810000256C6C6421
:10B8A00000000000252E3134670000002D303132B9
:10B8B000333435363738390070B5024601238029D4
:10B8C00001D2D17115E03F2000BF01F03F0444F0E8
:10B8D00080061C465B1CC4F1080416558909400803
:10B8E0008142F2D8C44341EA4404C3F108055455E7
:10B8F00000BF184670BD10B50246002017E00021B9
:10B9000012E002F5867303EBC00353F821305B7934
:10B9100003F003033BB102F5867303EBC003D2F8D7
:10B92000844043F82140491C0229EADB401C3528A9
:10B93000E5DB10BD70B504460D462069142229468A
:10B94000836B2046F9F7C9FC0646F560304670BDAA
:10B9500070B504460D46E668AC420AD0E868B042CD
:10B9600009D1324605F1100104F11000F4F73DFD54
:10B9700008B9012070BD0020FCE770B5034682EADB
:10B980000100012505EB511407E0450105EB900688
:10B990004D1E5D5D35446840091BA142F5D270BD66
:10B9A00010B50446A07940B904F11000D4E9022191
:10B9B000FFF7E3FFA0600120A071A06810BD0000A8
:10B9C0002DE9F04107463C698021384600F09BF89C
:10B9D00011220FA1384600F05AF8C4F88400384606
:10B9E000D4F88410FDF7D0F800250DE0002608E01B
:10B9F00004F5867000EBC500D4F8841040F82610DA
:10BA0000761C022EF4DB6D1C352DEFDBBDE8F081DA
:10BA10006E6F7420656E6F756768206D656D6F72EF
:10BA2000790000002DE9F04707460E463520B6FBA9
:10BA3000F0F100FB1168386900F5867000EBC8056D
:10BA400000240CE055F8240000F110013046F4F712
:10BA5000BEFC18B955F82400BDE8F087641C022C20
:10BA6000F0DB012405E0601E55F8200045F82400B5
:10BA7000641E002CF7DC3046F4F7A2FC81464A46EF
:10BA80003146384600F003F828602868E4E72DE9DD
:10BA9000F04106460F461446282C06D82246394661
:10BAA0003046FBF743FDBDE8F08114F1110F02D3DE
:10BAB0003046FFF7D9FB21463046FFF73BFF0546EE
:10BAC0002246394605F11000F4F75EFC2846EAE705
:10BAD00030B503460A461C6904F11800946885686D
:10BAE0006D1E2C40056805EB840102E00C6804F132
:10BAF0000C010C689442F9D10C68E4680C6044684D
:10BB0000641E446030BD2DE9F04107460D4638699A
:10BB100000F11804A068A84219DA681CB0F1804F3F
:10BB200003D33846FFF7A0FB00E000BFAB00A068DE
:10BB3000820038462168FFF765FB2060A66804E0B4
:10BB40000020216841F82600761CAE42F8DB002672
:10BB500019E0216851F826000021226842F82610D9
:10BB60000EE0C268A5F1010C836803EA0C012368AA
:10BB700053F82130C360236843F82100104600BF0A
:10BB80000028EED1761CA068B042E2DCA068A84292
:10BB900010DD681CB0F1804F03D33846FFF764FB1B
:10BBA00000E000BFAB00A068820038462168FFF7C4
:10BBB00029FB2060A560BDE8F0812DE9F05F044617
:10BBC000884691469A46DDE90A67206AA6EB000B93
:10BBD000E568284698E80E1080E80E10103099E8C5
:10BBE0000E1080E80E1010309AE80E1080E80E104B
:10BBF000E0683030E06047B9E06800F11001E160D2
:10BC000096E80E1080E80E1000BF606990F82200E0
:10BC100000F0020028B13A4629462046FDF797F881
:10BC200004E03A4629462046FDF7AFF86FB1206A96
:10BC300000EB0B063046E1681039E16091E80C102A
:10BC4000C96880E80C10C16000BFBDE8F09F2DE915
:10BC5000FC4780460E4614461F46DDF828904A46AB
:10BC60003146404600F04EF80546A86828B94A46D5
:10BC70002146404600F046F80546A86810B9002065
:10BC8000BDE8FC870120234632462946CDE90070F5
:10BC90004046FFF792FF0120F2E7F8B504460E4652
:10BCA00017461D4600953A4631462046E368FFF7A1
:10BCB000CEFF10B94FF0FF30F8BDE068806840B1AA
:10BCC000E0688068012802D1E068006808B10120BE
:10BCD000F2E70020F0E72DE9F04104460D46164654
:10BCE00031462046FDF73CFF0746B86840B9A079C9
:10BCF0000121A940C9B20843A0710020BDE8F0812C
:10BD00003846FBE72DE9F04106460C461746207AF7
:10BD100000F00F00052802D0072806D102E02068B5
:10BD200085690AE02068856807E03069E830217A93
:10BD300001F00F0150F8215000BF00BF45B130693C
:10BD4000883050F827102846FDF70AFFBDE8F0813B
:10BD50000048FBE70036010870B50546002411E0F5
:10BD60000A4850F824102846FFF75CFE29698831FC
:10BD700041F824002869883050F824102846FCF740
:10BD800003FF641C182CEBDB70BD00008838010831
:10BD90002DE9F04107460C46A068452802D12068ED
:10BDA000856935B9A068472817D120688068051EC5
:10BDB00013D00EA13846FFF735FE8046414628468F
:10BDC000FDF7CEFE0646307A00F00F00042803D1BE
:10BDD00030681030BDE8F08100BF207A00F00F001D
:10BDE000401C044951F82000F4E700005F5F6E61D9
:10BDF0006D6500005C3801082DE9FC4107460C46E2
:10BE000015469846089E43462A46214638460096DF
:10BE1000FFF71DFF002846D1A6F10D000A283AD2EF
:10BE2000DFE800F00B0C0D0E0F39103939052A46EA
:10BE300021463846FDF748FC00BF00BF00BF00BFE9
:10BE400000BF00BFA068032805D194ED000B8DED65
:10BE5000000B012003E06946204602F0D3FD98B1B3
:10BE6000A868032805D195ED000B8DED000B01208E
:10BE700003E06946284602F0C5FD28B12A4621465E
:10BE80003846FDF7F3FC05E008A32A46214638466C
:10BE9000FDF75EFC00BF0DA32A4621463846FDF79C
:10BEA00057FC00BF00BFBDE8FC81000070657266F2
:10BEB0006F726D2062697477697365206F70657247
:10BEC0006174696F6E206F6E0000000070657266AD
:10BED0006F726D2061726974686D65746963206F3B
:10BEE0006E0000002DE9FE4306460F4614462078FA
:10BEF000402802D020783D2802D1601C029008E042
:10BF0000207815A10978884202D115A0029000E09E
:10BF10000294009601976846F8F728FB6846F5F703
:10BF200013FD804641463046FDF76DFB0546F0683F
:10BF300029460160462282603046FCF7BAFF30464F
:10BF4000FDF77FFBE86000226846E968F5F710FE20
:10BF50002846BDE8FE8300001B4C75610000000010
:10BF600062696E61727920737472696E6700000095
:10BF70002DE9F0478AB08046894600BFD8F80C40CA
:10BF80000225A4F12000007A00F00F00042806D05A
:10BF9000A4F12000007A00F00F00032814D1A4F1CE
:10BFA0001000007A00F00F00042818D0A4F110004F
:10BFB000007A00F00F00032806D1A4F110014046DA
:10BFC000FFF72CFC012050B91620A4F12003A4F1A6
:10BFD0001002194600904046FFF70EFF9BE0A4F1C7
:10BFE00010008068442818D154F8100CC079A0B90A
:10BFF000A4F12000007A00F00F000428EED0A4F194
:10C000002000007A00F00F00032805D1A4F12001E0
:10C010004046FFF703FC7EE07DE0A4F1200080684D
:10C0200044280ED154F8200CC07950B9A4F1200056
:10C03000A4F1100191E84C00C96880E84C00C1608F
:10C0400069E054F8100C0079042803D154F8100C5E
:10C05000C07902E054F8100CC068074601251CE0C6
:10C06000A4EB051050F8100C0079042805D1A4EBBE
:10C07000051050F8100CC07904E0A4EB051050F83E
:10C08000100CC0688246C7F1FF30504503D82AA182
:10C090004046FDF7BDFB57446D1C4D4519DAA4EB36
:10C0A000051010F8080C00F00F000428D8D0A4EBFD
:10C0B000051010F8080C00F00F00032809D1A4EBBC
:10C0C0000510A0F110014046FFF7A8FB0120002851
:10C0D000C6D1282F0BD86A4629462046F9F78AF898
:10C0E0003A4669464046FFF7D2FC06460AE0394622
:10C0F0004046FFF71FFC064606F11002294620467F
:10C10000F9F778F8A4EB0510314601600A7942F09E
:10C110004002826000BF681EA9EB0009D8F80C102D
:10C12000A1EB0010C8F80C00B9F1010F3FF726AFE2
:10C130000AB0BDE8F0870000737472696E67206C06
:10C14000656E677468206F766572666C6F77000045
:10C150002DE9F047824616461F46DDE90845621C78
:10C1600045F100000021D2F1010281410FD30021ED
:10C1700084EA01006940084303D118A15046FDF745
:10C1800047FB0021881B61EB0701BDE8F0872246D1
:10C190002B4630463946F4F78EF88046894686EAC3
:10C1A000040387EA05004FF0000CB3EB0C0170EBC1
:10C1B0000C000FDA22462B4630463946F4F77BF85E
:10C1C00000214A404B401A4304D00123B8EB030836
:10C1D00069F1000940464946D7E70000617474657B
:10C1E0006D707420746F206469766964652062796B
:10C1F000207A65726F0000002DE9FF4106460C466B
:10C200001546207A00F03F00297A01F03F0188426C
:10C210003AD0207A00F00F00297A01F00F0188420D
:10C2200004D1207A00F00F00032803D0002004B0CE
:10C23000BDE8F081A068132805D1D4E90001CDE95B
:10C240000201012004E0002202A9204602F058FB6E
:10C25000C0B1A868132805D1D5E90001CDE90001D6
:10C26000012004E000226946284602F049FB48B15B
:10C27000DDE90032DDE9021059405040014301D1AF
:10C280000120D4E70020D2E7207A00F03F00052803
:10C2900070D006DC05286ED2DFE800F00C31391AC8
:10C2A0004900072850D0132806D0142847D0162854
:10C2B00061D134E00120BAE7D4E90010D5E90023C8
:10C2C00051405840014301D10120B0E70020AEE7C2
:10C2D00095ED002BB0EE420AF0EE620A94ED002BD1
:10C2E000B0EE421AF0EE621A53EC102B51EC110B27
:10C2F000F4F704FB01D1012099E7002097E72068BB
:10C300002968884201D1012091E700208FE7206849
:10C310002968884201D1012089E7002087E7206849
:10C320002968884201D1012081E700207FE7206849
:10C330002968884201D1012079E7002077E7296840
:10C340002068FFF705FB72E720682968884201D161
:10C3500001206CE70EB9002069E72068806808B901
:10C36000002011E020688068807900F0200018B17A
:10C37000002009E021E057E03169D1F89C202168D4
:10C3800088680521FFF7A7FC0746AFB928688068D1
:10C3900008B900200FE028688068807900F020004C
:10C3A00008B1002007E03169D1F89C20296888682D
:10C3B0000521FFF790FC07463EE020682968884287
:10C3C00001D1012033E70EB9002030E720688069F1
:10C3D00008B900200FE020688069807900F0200013
:10C3E00008B1002007E03169D1F89C2021688869F4
:10C3F0000521FFF770FC0746AFB92868806908B9C6
:10C4000000200FE028688069807900F0200008B1E2
:10C41000002007E03169D1F89C202968886905214E
:10C42000FFF759FC074607E020682968884201D1D8
:10C430000120FCE60020FAE600BF0FB90020F6E676
:10C440000121F0682B462246CDE9000139463046ED
:10C45000FFF7B3FBF068806840B1F068806801289E
:10C4600002D1F068006808B10120E0E60020DEE6B5
:10C4700031B596B01698406914901498408C40F0ED
:10C4800008011498418400BF149800680068139054
:10C490001398C068C16A129114980169119100BF84
:10C4A00014984269111D416110681090169890F817
:10C4B000700000F00C0028B11698FDF70DFA1498E2
:10C4C00000691190DDE91010C1F3871100EB011034
:10C4D0000F90109800F03F002F2881F07187DFE85F
:10C4E00010F02F003E0053006D0082009500A70061
:10C4F000F1003901B201DB014C028A02E2026C0355
:10C50000F703EE062F0885049E07F0045605BB05C9
:10C51000200685069508E1081409340946099D0995
:10C52000BB091C0A7D0ADE0A270B830BAF0B280C04
:10C530005B0C130DC30D0B0E230EC70E030F6E0FF6
:10C540000F980E9040F2FF11109801EAD051119807
:10C5500000EB01140E981ECC1EC001F031BFFA4949
:10C56000109801EA9031129800EB01100E900F988C
:10C570000D90DDE90D01D1E901240B68C968C0E91E
:10C5800001240360C160E8E714984269111D41610C
:10C590006FF07C41106801EA9011129800EB0110D5
:10C5A0000E900F980D90DDE90D01D1E90042D1E91F
:10C5B0000231C0E90042C0E90231CEE70F980E9087
:10C5C00040F2FF11109801EAD0510E98016001214C
:10C5D0000E9881601098C0F3883018B114984169A2
:10C5E000091D4161B9E740F2FF11109801EAD050EE
:10C5F0000E9000BF00220F9800F110010F91826091
:10C600000E98411E0E910028F4D1A6E740F2FF11CA
:10C61000109801EAD0500E900F980D90139810309A
:10C620000E9950F8210004680D981ECC1EC094E7A6
:10C6300040F2FF11109801EAD0511398103050F8D1
:10C64000210000680E901098800B00F4807030B1CB
:10C650001098C0F38731129800EB011005E0DDE976
:10C660001010C1F3883100EB01100D900E98806816
:10C67000452802D000200C900CE00E9800680B902A
:10C680000D99FDF7E5F90C900C98806808B1012030
:10C6900000E0002050B10F980B90DDE90B0191E80C
:10C6A0001C00C96880E81C00C1600AE00C9800907A
:10C6B000DDE90E130D9A169801F088FE14980169B1
:10C6C00011914AE740F2FF11109801EAD0511198F8
:10C6D00000EB01100E901098800B00F4807030B1C8
:10C6E0001098C0F38731129800EB011005E0DDE9E6
:10C6F0001010C1F3883100EB01100D900E98806886
:10C70000452802D000200C900CE00E9800680B9099
:10C710000D99FDF79DF90C900C98806808B10120E7
:10C7200000E0002050B10F980B90DDE90B0191E87B
:10C730001C00C96880E81C00C1600AE00C980090E9
:10C74000DDE90E130D9A169801F040FE1498016968
:10C75000119102E71098C0F38710810013981030F0
:10C76000405800680E904FF48071109801EAD05044
:10C7700040B1FF21109801EAD050C1B2129800EBED
:10C78000011007E040F2FF11109801EAD051119812
:10C7900000EB01100D901098800B00F4807030B108
:10C7A0001098C0F38731129800EB011005E0DDE925
:10C7B0001010C1F3883100EB01100C900E988068C6
:10C7C000452802D000200B9030E00E9800680A90B7
:10C7D0000D99FDF73DF90B900B98806808B9002082
:10C7E00024E00C98007A00F0400098B10E980068A0
:10C7F000407900F0040068B10C980068407900F0BE
:10C80000030038B10E98006801460A901698FCF7AC
:10C8100069F900E000BFDDE90B01D1E90043D1E98E
:10C820000221C0E90043C0E90221012050B90B9860
:10C830000090DDE90C320E99169801F04BFE149829
:10C840000169119189E640F2FF11109801EAD05177
:10C850001398103050F821000E900E9800680D903B
:10C860000F990D98D1E90034D1E90221C0E90034D3
:10C87000C0E902210E980068007A00F0400048B13B
:10C880000E9850F8081B814204D10E991698FCF7B7
:10C8900035FA00E000BF60E64FF48071109801EABD
:10C8A000D05040B1FF21109801EAD050C1B2129887
:10C8B00000EB011007E040F2FF11109801EAD0519F
:10C8C000119800EB01100E901098800B00F480700E
:10C8D00030B11098C0F38731129800EB011005E0D9
:10C8E000DDE91010C1F3883100EB01100D900F98B5
:10C8F0008068452802D000200C9031E00F98006835
:10C900000B900E99FDF7A4F80C900C98806808B96C
:10C91000002025E00D98007A00F04000B0B10F989B
:10C920000068407900F0040080B10D9800684079FB
:10C9300000F0030050B10F98006801460B90169864
:10C94000FCF7D0F803E00000FFFF030000BFDDE9C3
:10C950000C0191E81C00C96880E81C00C16001203E
:10C9600050B90C980090DDE90D320F99169801F03E
:10C97000B1FD149801691191EFE540F2FF11109893
:10C9800001EAD0500E901098C0F388300D901698A0
:10C99000FDF720F90C900F980B900C980A90DDE9A8
:10C9A0000A01086045210B9881600E9808B90D981E
:10C9B00068B10D98FEF7C0FD0B900E98FEF7BCFD18
:10C9C0000A900246DDE90B311698FDF725FA169814
:10C9D0000069C06800280DDD0F9810301699C860F6
:10C9E0001698FCF753F9149841681698C16014988A
:10C9F00000691190B1E540F2FF11109801EAD051A1
:10CA0000119800EB01100D901098800B00F48070CD
:10CA100030B11098C0F38731129800EB011005E097
:10CA2000DDE91010C1F3883100EB01100C900C9877
:10CA300000680B900F9810300A900D990A98D1E970
:10CA40000042D1E90231C0E90042C0E902310D984B
:10CA50008068452802D000200E900CE00D980068F8
:10CA60000A900B99FDF79EF80E900E98806808B119
:10CA7000012000E0002050B10F980A900E990A980A
:10CA800091E81C00C96880E81C00C1600AE00E98AB
:10CA900000900F9BDDE90C21169801F097FC14988B
:10CAA0000169119159E54FF48071109801EAD05055
:10CAB00040B1FF21109801EAD050C1B2129800EBAA
:10CAC000011007E040F2FF11109801EAD0511198CF
:10CAD00000EB01100E901098800B00F4807030B1C4
:10CAE0001098C0F38731129800EB011005E0DDE9E2
:10CAF0001010C1F3883100EB01100D900E98806882
:10CB000013281AD10D988068132816D10E9803C8DF
:10CB1000CDE906010D9803C8CDE904010F980390F3
:10CB200004A90EC907985B1840EB02010398C0E9FD
:10CB300000311321039881603EE00E98806803283D
:10CB400006D10E9890ED000B8DED0A0B012003E04D
:10CB50000AA90E9801F056FF18B30D9880680328B3
:10CB600006D10D9890ED000B8DED080B012003E030
:10CB700008A90D9801F046FF98B10F9807909DED18
:10CB8000080B53EC102B9DED0A0B51EC100BF3F737
:10CB9000E3FC0A460146079806C003210798816016
:10CBA0000AE006200090DDE90E130D9A1698FFF7B3
:10CBB00023F9149800691190CFE44FF48071109814
:10CBC00001EAD05040B1FF21109801EAD050C1B223
:10CBD000129800EB011007E040F2FF11109801EAF3
:10CBE000D051119800EB01100E901098800B00F4BA
:10CBF000807030B11098C0F38731129800EB0110AB
:10CC000005E0DDE91010C1F3883100EB01100D9053
:10CC10000E98806813281BD10D988068132817D1AF
:10CC20000E9803C8CDE906010D9803C8CDE90401AB
:10CC30000F980390DDE90513049A07989A1A60EBA0
:10CC400001010398C0E900211321039881603EE0AF
:10CC50000E988068032806D10E9890ED000B8DED9C
:10CC60000A0B012003E00AA90E9801F0CBFE18B3CD
:10CC70000D988068032806D10D9890ED000B8DED7E
:10CC8000080B012003E008A90D9801F0BBFE98B144
:10CC90000F9807909DED080B53EC102B9DED0A0BA0
:10CCA00051EC100BF3F7F9FC0A460146079806C051
:10CCB0000321079881600AE007200090DDE90E1348
:10CCC0000D9A1698FFF798F814980169119144E4A9
:10CCD0004FF48071109801EAD05040B1FF211098B4
:10CCE00001EAD050C1B2129800EB011007E040F207
:10CCF000FF11109801EAD051119800EB01100E902D
:10CD00001098800B00F4807030B11098C0F3873118
:10CD1000129800EB011005E0DDE91010C1F3883135
:10CD200000EB01100D900E98806813281ED10D980D
:10CD3000806813281AD10E9903C9CDE906010D9810
:10CD400003C8CDE904010F980390DDE90421DDE972
:10CD50000603A0FB024503FB025200FB01210398DE
:10CD6000C0E900411321039881603EE00E9880687D
:10CD7000032806D10E9890ED000B8DED0A0B0120D3
:10CD800003E00AA90E9801F03DFE18B30D988068E3
:10CD9000032806D10D9890ED000B8DED080B0120B6
:10CDA00003E008A90D9801F02DFE98B10F980790A7
:10CDB0009DED080B53EC102B9DED0A0B51EC100B65
:10CDC000F3F771FC0A460146079806C0032107984D
:10CDD00081600AE008200090DDE90E130D9A169894
:10CDE000FFF70AF81498006911900EE44FF480716F
:10CDF000109801EAD05040B1FF21109801EAD050BC
:10CE0000C1B2129800EB011007E040F2FF11109838
:10CE100001EAD051119800EB01100E901098800B90
:10CE200000F4807030B11098C0F38731129800EB95
:10CE3000011005E0DDE91010C1F3883100EB0110AD
:10CE40000D900E988068032806D10E9890ED000B87
:10CE50008DED0A0B012003E00AA90E9801F0D2FD26
:10CE600018B30D988068032806D10D9890ED000B3B
:10CE70008DED080B012003E008A90D9801F0C2FD1B
:10CE800098B10F9807909DED080B53EC102B9DED7A
:10CE90000A0B51EC100BF3F778FC0A460146079891
:10CEA00006C00321079881600AE00B200090DDE9AD
:10CEB0000E130D9A1698FEF79FFF149801691191B1
:10CEC00047E44FF48071109801EAD05040B1FF213F
:10CED000109801EAD050C1B2129800EB011007E09F
:10CEE00040F2FF11109801EAD051119800EB0110A7
:10CEF0000E901098800B00F4807030B11098C0F341
:10CF00008731129800EB011005E0DDE91010C1F344
:10CF1000883100EB01100D900E988068132805D120
:10CF20000E9903C9CDE90A01012004E000220AA9F3
:10CF30000E9801F0E5FCF0B10D988068132805D13A
:10CF40000D9905C9CDE90802012004E0002208A9D5
:10CF50000D9801F0D5FC70B10F980790DDE909320A
:10CF6000089802400B9919400798C0E90021132145
:10CF7000079881600AE00D200090DDE90E130D9AFC
:10CF80001698FEF739FF1498016911915AE44FF48D
:10CF90008071109801EAD05040B1FF21109801EA49
:10CFA000D050C1B2129800EB011007E040F2FF111F
:10CFB000109801EAD051119800EB01100E901098D2
:10CFC000800B00F4807030B11098C0F38731129854
:10CFD00000EB011005E0DDE91010C1F3883100EB32
:10CFE00001100D900E988068132805D10E9903C981
:10CFF000CDE90A01012004E000220AA90E9801F0FF
:10D000007FFCE8B10D988068132805D10D9903C9FC
:10D01000CDE90801012004E0002208A90D9801F0E3
:10D020006FFC68B10F980790DDE90830DDE90A125E
:10D0300019430243079806C01321079881600AE04C
:10D040000E200090DDE90E130D9A1698FEF7D4FE1F
:10D050001498016911911EE44FF48071109801EA4F
:10D06000D05040B1FF21109801EAD050C1B21298BF
:10D0700000EB011007E040F2FF11109801EAD051D7
:10D08000119800EB01100E901098800B00F4807046
:10D0900030B11098C0F38731129800EB011005E011
:10D0A000DDE91010C1F3883100EB01100D900E98EE
:10D0B0008068132805D10E9903C9CDE90A01012022
:10D0C00004E000220AA90E9801F01AFCE8B10D98BC
:10D0D0008068132805D10D9803C8CDE90801012007
:10D0E00004E0002208A90D9801F00AFC68B10F982D
:10D0F0000790DDE90830DDE90A12594042400798FF
:10D1000006C01321079881600AE00F200090DDE936
:10D110000E130D9A1698FEF76FFE14980069119081
:10D120002AE44FF48071109801EAD05040B1FF21F9
:10D13000109801EAD050C1B2129800EB011007E03C
:10D1400040F2FF11109801EAD051119800EB011044
:10D150000E901098800B00F4807030B11098C0F3DE
:10D160008731129800EB011005E0DDE91010C1F3E2
:10D17000883100EB01100D900E988068132805D1BE
:10D180000E9903C9CDE90A01012004E000220AA991
:10D190000E9801F0B5FBE8B10D988068132805D111
:10D1A0000D9803C8CDE90801012004E0002208A978
:10D1B0000D9801F0A5FB68B10F980790DDE90823F1
:10D1C000DDE90A0101F072FB079A03C213210798F7
:10D1D00081600AE010200090DDE90E130D9A169888
:10D1E000FEF70AFE1498016911915BE44FF4807117
:10D1F000109801EAD05040B1FF21109801EAD050B8
:10D20000C1B2129800EB011007E040F2FF11109834
:10D2100001EAD051119800EB01100E901098800B8C
:10D2200000F4807030B11098C0F38731129800EB91
:10D23000011005E0DDE91010C1F3883100EB0110A9
:10D240000D900E988068132805D10E9903C9CDE979
:10D250000A01012004E000220AA90E9801F050FB07
:10D2600008B30D988068132805D10D9903C9CDE93D
:10D270000801012004E0002208A90D9801F040FBFC
:10D2800088B10F9807900023DDE908104A4263EB4C
:10D290000003DDE90A0101F009FB079A03C213212B
:10D2A000079881600AE011200090DDE90E130D9AC5
:10D2B0001698FEF7A1FD1498006911907CE44FF4D4
:10D2C0008071109801EAD05040B1FF21109801EA16
:10D2D000D050C1B2129800EB011007E040F2FF11EC
:10D2E000109801EAD051119800EB01100E9010989F
:10D2F000800B00F4807030B11098C0F38731129821
:10D3000000EB011005E0DDE91010C1F3883100EBFE
:10D3100001100D900E98806813281CD10D9880681C
:10D32000132818D10E9803C8CDE906010D9903C939
:10D33000CDE904010F980390DDE90401CDE9000176
:10D34000DDE90623169801F005FA039A03C21321BA
:10D350000398816062E00E988068032806D10E98D9
:10D3600090ED000B8DED0A0B012003E00AA90E9849
:10D3700001F048FBE8B30D988068032806D10D98AA
:10D3800090ED000B8DED080B012003E008A90D982E
:10D3900001F038FB68B39DED081B9DED0A0BF4F717
:10D3A0001FFF8DED060B9DED080B53EC102B9DED33
:10D3B000060B51EC100BF3F776F99FEDFE0B53ECD7
:10D3C000102BCDE904019DED040B51EC100BF3F78C
:10D3D00095FA0BD29DED080B53EC102B9DED060B2F
:10D3E00051EC100BF3F7B8F8CDE906010F98059052
:10D3F00000E008E09DED060B059880ED000B032191
:10D40000059881600AE009200090DDE90E130D9A6D
:10D410001698FEF7F1FC14980169119157E44FF446
:10D420008071109801EAD05040B1FF21109801EAB4
:10D43000D050C1B2129800EB011007E040F2FF118A
:10D44000109801EAD051119800EB01100E9010983D
:10D45000800B00F4807030B11098C0F387311298BF
:10D4600000EB011005E0DDE91010C1F3883100EB9D
:10D4700001100D900E98806813281CD10D988068BB
:10D48000132818D10E9803C8CDE906010D9803C8DA
:10D49000CDE904010F980390DDE90401CDE9000115
:10D4A000DDE906231698FEF753FE039A03C2132103
:10D4B0000398816043E00E988068032806D10E9897
:10D4C00090ED000B8DED0A0B012003E00AA90E98E8
:10D4D00001F098FA40B30D988068032806D10D98A2
:10D4E00090ED000B8DED080B012003E008A90D98CD
:10D4F00001F088FAC0B10F9807909DED080B53EC2E
:10D50000102B9DED0A0B51EC100BF3F73EF9CDE912
:10D5100004019DED040BF4F7D7FD079880ED000B97
:10D520000321079881600AE00C200090DDE90E13CA
:10D530000D9A1698FEF760FC14980069119054E457
:10D540004FF48071109801EAD05040B1FF2110983B
:10D5500001EAD050C1B2129800EB011007E040F28E
:10D56000FF11109801EAD051119800EB01100E90B4
:10D570001098800B00F4807030B11098C0F38731A0
:10D58000129800EB011005E0DDE91010C1F38831BD
:10D5900000EB01100D900E988068032806D10E98BC
:10D5A00090ED000B8DED0A0B012003E00AA90E9807
:10D5B00001F028FAF0B10D988068032806D10D9883
:10D5C00090ED000B8DED080B012003E008A90D98EC
:10D5D00001F018FA70B10F9807909DED081B9DEDB2
:10D5E0000A0BF4F7C9FE079880ED000B032107989A
:10D5F00081600AE00A200090DDE90E130D9A16986A
:10D60000FEF7FAFB14980069119059E440F2FF11FB
:10D61000109801EAD051119800EB01100E900E986D
:10D620008068132812D10E9903C9CDE90A010F9819
:10D6300009900023DDE90A219A1A63EB0101099898
:10D64000C0E900211321099881602AE00E988068C2
:10D65000032806D10E9890ED000B8DED0C0B0120E8
:10D6600003E00CA90E9801F0CDF978B10F980B905A
:10D670009DED0C0B51EC100B81F000410A46014668
:10D680000B9806C003210B9881600AE012200090DD
:10D69000DDE90E2311461698FEF7AEFB14980069DB
:10D6A00011900DE440F2FF11109801EAD051119849
:10D6B00000EB01100E900E988068132805D10E988B
:10D6C00003C8CDE90C01012004E000220CA90E984A
:10D6D00001F016F968B10F980B904FF0FF33DDE9B8
:10D6E0000C0258405A400B9905C113210B988160D8
:10D6F0000AE013200090DDE90E2311461698FEF78C
:10D700007BFB14980069119040E440F2FF111098DF
:10D7100001EAD051119800EB01100E900E9880682C
:10D7200030B10E988068012804D10E98006808B9BD
:10D73000012000E000200D900F980C90DDE90C1006
:10D74000086001210C98816020E440F2FF111098DC
:10D7500001EAD051119800EB011002460E900F998A
:10D76000169801F03DF81498006911900EE440F20B
:10D77000FF11109801EAD0500E901098C0F3883035
:10D780000D900D99119800EB011010301699C8609A
:10D79000DDE90D01401A401C01460B901698FEF77A
:10D7A000E7FB149801691191DDE91010C1F38711AD
:10D7B00004E00000000000000000000000EB011089
:10D7C0000F900E99119800EB01100C900F980B9090
:10D7D000DDE90B0191E81C00C96880E81C00C1600C
:10D7E00016980069C068002813DD0C990F988842CC
:10D7F00002D30F98103000E00C981699C860169864
:10D80000FBF744FA149841681698C16014980069AF
:10D810001190149841681698C1601CE41098C0F3E8
:10D8200087100E900E9850B1149801690E9801EB74
:10D830000010103801460D901698FBF7F9FD14986A
:10D840004169FB4A109802EA90305210801A01EBAD
:10D8500080011498416163E44FF48071109801EAEB
:10D86000D05040B1FF21109801EAD050C1B21298B7
:10D8700000EB011007E040F2FF11109801EAD051CF
:10D88000119800EB01100E901098800B00F480703E
:10D8900030B11098C0F38731129800EB011005E009
:10D8A000DDE91010C1F3883100EB01100D90DDE9C6
:10D8B0000D211698FEF7A0FC1099C1F3871188423C
:10D8C00004D014984169091D416122E0149840690F
:10D8D000006810901098C0F387100C900C9850B10D
:10D8E000149801690C9801EB0010103801460B9058
:10D8F0001698FBF79DFD14984169CD4A109802EAED
:10D9000090305210801A401C01EB80011498416144
:10D9100000BF14980069119067E41098800B00F420
:10D92000807030B11098C0F38731129800EB01106D
:10D9300005E0DDE91010C1F3883100EB01100E9015
:10D940004FF48071109801EAD05040B1FF21109837
:10D9500001EAD050C1B2129800EB011007E040F28A
:10D96000FF11109801EAD051119800EB01100D90B1
:10D9700001460E9A169800F0B9FE1099C1F387116E
:10D98000884204D014984169091D416122E014982D
:10D990004069006810901098C0F387100E900E98A0
:10D9A00050B1149801690E9801EB0010103801462F
:10D9B0000D901698FBF73CFD149841699C4A10980D
:10D9C00002EA90305210801A401C01EB800114983A
:10D9D000416100BF14980069119006E41098800B13
:10D9E00000F4807030B11098C0F38731129800EBCA
:10D9F000011005E0DDE91010C1F3883100EB0110E2
:10DA00000E904FF48071109801EAD05040B1FF2180
:10DA1000109801EAD050C1B2129800EB011007E053
:10DA200040F2FF11109801EAD051119800EB01105B
:10DA30000D9001460E9A169800F006FE1099C1F35B
:10DA40008711884204D014984169091D416122E080
:10DA500014984069006810901098C0F387100E90D9
:10DA60000E9850B1149801690E9801EB001010380F
:10DA700001460D901698FBF7DBFC149841696C4A3F
:10DA8000109802EA90305210801A401C01EB80017D
:10DA90001498416100BF1498006911900EE4109829
:10DAA000C0F3883068B10F98806830B10F988068F3
:10DAB000012804D10F98006808B901200EE0002069
:10DAC0000CE00F98806840B10F988068012802D15F
:10DAD0000F98006808B1012000E0002020B11498E0
:10DAE0004169091D416122E0149840690068109065
:10DAF0001098C0F387100E900E9850B114980169D9
:10DB00000E9801EB0010103801460D901698FBF7A7
:10DB10008FFC14984169464A109802EA90305210DE
:10DB2000801A401C01EB80011498416100BF9AE209
:10DB300040F2FF11109801EAD051119800EB01104A
:10DB40000E901098C0F3883068B10E98806830B19C
:10DB50000E988068012804D10E98006808B9012049
:10DB60000EE000200CE00E98806840B10E988068AE
:10DB7000012802D10E98006808B1012000E00020C1
:10DB800020B114984169091D41612CE00F980D9056
:10DB9000DDE90D0191E81C00C96880E81C00C16046
:10DBA00014984069006810901098C0F387100D9089
:10DBB0000D9850B1149801690D9801EB00101038C0
:10DBC00001460C901698FBF733FC14984169184AEB
:10DBD000109802EA90305210801A401C01EB80012C
:10DBE0001498416100BFEBE340F2FF11109801EA85
:10DBF000D0500E901098C0F38830401E0D900E98B3
:10DC000028B1DDE90E1000EB01111698C1600D9AE4
:10DC10000F991698FBF7C4F960B10D98002803DB43
:10DC2000149841681698C16014980069119006E034
:10DC3000FFFF0300169840691490FEF725BCBFE370
:10DC400040F2FF11109801EAD0500E900E9828B1C2
:10DC5000DDE90E1000EB01111698C1604FF0FF32A4
:10DC60000F991698FBF79CF918B114980069119058
:10DC70005EE0169840690D900D9881680C910D98A2
:10DC800001680B910C9800680A900D9801690B9837
:10DC90000068C068807901EB001009901398C06893
:10DCA000C069002806DD0C980069014607901698A7
:10DCB000FBF7BEFB002008900EE008990A9800EBE5
:10DCC0000110079008990B9800EB011407981ECCDF
:10DCD0001EC00898401C089008990B9800EB011191
:10DCE00009988142E9D30D9801690B98081A01112E
:10DCF0000A9800EB01110C9801611698C1680B9805
:10DD0000081A01110A9800EB01111698C1600C98CD
:10DD100041600D9841690C9841610C98408C40F02D
:10DD200020010C98418416990C984861149084E75E
:10DD300046E340F2FF11109801EAD0500E9013987C
:10DD4000C068C069002803DD11991698FBF770FBC5
:10DD50000E9810B10E98401E04E01698C1680F98F6
:10DD6000081A001103460D900F9A14991698FBF7A4
:10DD7000E8F80E90149890F8220000F0080008B11E
:10DD800017B030BD1698406914900E9818B11498C9
:10DD900041681698C16050E70F98806813284ED1EB
:10DDA0000F98416A006ACDE90C010F98D0E9003262
:10DDB000DDE90C0118185141CDE90A010F984169BC
:10DDC0000069CDE908010023DDE90C219A1A73EB03
:10DDD00001000ADADDE90A31DDE90820D21A8841BA
:10DDE00001DB01200BE0002009E0DDE90823DDE98B
:10DDF0000A10891A984101DB012000E00020E8B1F7
:10DE000014984169F84A109802EA90305210801A2A
:10DE100001EB8001149841610F980790DDE90A0237
:10DE2000079905C10F9830300790079ADDE90A106D
:10DE3000C2E9001013210798816000BF63E00F98CA
:10DE400090ED080B8DED0C0B0F9890ED000B8DED08
:10DE5000060B9DED0C0B53EC102B9DED060B51ECBE
:10DE6000100BF2F779FBCDE90A010F9890ED040B46
:10DE70008DED080B9DED0C0B53EC102B9FEDDB0B88
:10DE800051EC100BF2F73AFD0ED29DED080B53EC5E
:10DE9000102B9DED0A0B51EC100BF2F72FFD01D862
:10DEA00001200FE000200DE09DED0A0B53EC102B3C
:10DEB0009DED080B51EC100BF2F720FD01D801206D
:10DEC00000E00020F0B114984169C74A109802EAB6
:10DED00090305210801A01EB8001149841610F9824
:10DEE00007909DED0A0B079880ED000B0F983030DE
:10DEF00007909DED0A0B079880ED000B0321079812
:10DF0000816000BF00BF5BE20F980E900F98103049
:10DF10000D900F9820300C900E988068132832D105
:10DF20000C98806813282ED109A800900C9803C87B
:10DF300002460B46CDE906010AA90D98F8F7E6F965
:10DF400008B3099810B10020014601E00E9903C9F9
:10DF5000CDE906010D980590DDE90A12059806C085
:10DF60001321059881600E9805900C980CC8DDE986
:10DF70000601821A61EB03010598C0E90021132113
:10DF80000598816063E00D988068032806D10D989C
:10DF900090ED000B8DED040B012003E004A90D981A
:10DFA00000F030FD18B993A11698FBF731FC0D98DD
:10DFB00001909DED040B019880ED000B0321019869
:10DFC00081600C988068032806D10C9890ED000BB6
:10DFD0008DED020B012003E002A90C9800F012FD68
:10DFE00018B98CA11698FBF713FC0C9801909DEDC5
:10DFF000020B019880ED000B0321019881600E98BF
:10E000008068032806D10E9890ED000B8DED060B6D
:10E01000012003E006A90E9800F0F4FC18B984A1D1
:10E020001698FBF7F5FB0E9801909DED020B53EC53
:10E03000102B9DED060B51EC100BF2F72EFB0A4650
:10E040000146019806C003210198816000BF149821
:10E050004169654A109802EA90305210801A01EB2B
:10E06000800114984161ABE10F9830300E900E980A
:10E0700020300D900D990F98D0E90834D0E90A208E
:10E08000C1E90034C1E902200E9810300D900F99BB
:10E090000D98D1E905340A69C96980E81C00C1609E
:10E0A0000E980D900F990D98D1E90042D1E90231F7
:10E0B000C0E90042C0E902310E9830301699C860BC
:10E0C0001098C0F388320E991698FAF740FE14980B
:10E0D00000691190149841681698C16014984269BB
:10E0E000111D416110681090DDE91010C1F3871116
:10E0F00000EB01100F9000E000BF0F98806990B115
:10E100000F980E900F9800F110011EC91EC01498B0
:10E110004169354A109802EA90305210801A01EB9A
:10E120008001149841614BE140F2FF11109801EA1F
:10E13000D0500E901098C0F388300D900E9838B9DA
:10E140001698C1680F98081A0121C1EB20100E9093
:10E150000D9848B914984269111D41616FF07C41D6
:10E16000106801EA90100D900F9800680B900D98C0
:10E17000401E00EBC00101EB00110E9800EB4100C6
:10E180000C900B9881680C98814204D2DDE90B1247
:10E190001698FBF7BBFE63E0DDE90E1000EB011003
:10E1A0000A900A9800900C98411E024600230C9198
:10E1B00009900B991698FBF7D7FE0A98007A00F0A1
:10E1C000400078B10B98407900F0040050B10A98F3
:10E1D0000068407900F0030020B10B991698FAF717
:10E1E00081FC3AE038E00000FFFF0300000000007F
:10E1F0000000000027666F7227206C696D6974202B
:10E200006D7573742062652061206E756D62657234
:10E210000000000027666F72272073746570206D00
:10E220007573742062652061206E756D6265720081
:10E2300027666F722720696E697469616C20766148
:10E240006C7565206D7573742062652061206E7534
:10E250006D6265720000000000BF0E98401E0E90B7
:10E260000E98002898DC149841681698C160A7E0C1
:10E270001398C068416B544A109802EA903051F8E4
:10E2800020000E9013991031119A0E98F8F72EFD78
:10E290000D900D9848B90F980090139A1032119B69
:10E2A0000E99169802F028FB0AE00F980C900D9832
:10E2B0000B90DDE90B01086046210C98816000BFDE
:10E2C00016980069C06800280DDD0F981030169967
:10E2D000C8601698FAF7DAFC149841681698C1607D
:10E2E0001498016911916BE040F2FF11109801EA56
:10E2F000D050401E0E901398C0688179149802681F
:10E300001198801AC1EB2010401E0C900C98002828
:10E3100001DA00200C900E9800281FDA0C980E905D
:10E320001698C169C068091A0C98B0EB211F04DB6C
:10E330000C991698FAF73EFD00E000BF14980069AA
:10E340001190DDE91010C1F3871100EB01100F905F
:10E350000C990F9800EB01111698C16000200D90E8
:10E3600016E00D990F9800EB01100B9011990C9885
:10E37000A1EB00110D9801EB00140B98D4E90132C8
:10E380002168E468C0E902240AC00D98401C0D9081
:10E39000DDE90D01884203DADDE90C108842E0DB9B
:10E3A00008E000220D990F9800EB011082600D9893
:10E3B000401C0D90DDE90D018842F2DB00E000BF5A
:10E3C00000BFFEF76DB80000FFFF03002DE9FC471A
:10E3D00081460C4617461E46DDF828804FF0000A9D
:10E3E00057E0B8F1000F0DD1002221464846FDF755
:10E3F00089FC0546A86808BB2AA221464846FBF7C7
:10E40000E5FA1BE02068806908B9002010E0206868
:10E410008069807900F0010008B1002008E0D9F897
:10E420001010D1F88820216888690021FDF753FC7D
:10E4300005461DB90020B060BDE8FC87287A00F0D1
:10E440000F00062809D101203B4622462946CDE986
:10E4500000604846FDF7B1FBEEE72C46A068452872
:10E4600003D04FF0000800200AE039462068FBF78F
:10E47000EFFA8046D8F8080008B1012000E000203B
:10E4800028B1304698E80E1080E80E10D4E70AF163
:10E49000010ABAF5FA6FA4DB04A14846FBF7B8F904
:10E4A00000BFC9E7696E646578000000275F5F6997
:10E4B0006E6465782720636861696E20746F6F20D1
:10E4C0006C6F6E673B20706F737369626C65206C54
:10E4D0006F6F70002DE9FC5F82460D4691461C4629
:10E4E000DDF830804FF0000B88E0B8F1000F3AD033
:10E4F0002F68B86908B900200EE0B869807900F08B
:10E50000020008B1002007E0DAF81010D1F88C20E2
:10E510000121B869FDF7DFFB06461EBB3C4880457C
:10E5200005D14A4639465046FBF76CFB804694E8D5
:10E530000F0088E80F000020B871207A00F040003A
:10E5400068B1787900F0040048B12068407900F0A3
:10E55000030020B139465046FAF7C4FA00E000BF84
:10E56000BDE8FC9F0CE0012229465046FDF7CAFB9E
:10E570000646806820B927A229465046FBF726FAAE
:10E58000307A00F00F00062809D100204B462A46B9
:10E590003146CDE900405046FDF70FFBE0E7354638
:10E5A000A868452803D04FF00008002022E0494623
:10E5B0002868FBF74DFA8046D8F8080008B9002013
:10E5C00018E0207A00F0400070B12868407900F02F
:10E5D000040048B12068407900F0030020B15046A3
:10E5E0002968FAF77FFA00E000BF94E80F0088E896
:10E5F0000F00012000B1B3E70BF1010BBBF5FA6F7F
:10E60000FFF673AF05A15046FBF702F900BFA7E77D
:10E6100000360108696E646578000000275F5F6E50
:10E620006577696E6465782720636861696E207418
:10E630006F6F206C6F6E673B20706F737369626CD5
:10E6400065206C6F6F7000002DE9F04105460C46A7
:10E650001646207A00F00F0003280AD1307A00F025
:10E660000F00032805D131462046F3F74BF8BDE8EB
:10E67000F081207A00F00F0004280ED1307A00F0EB
:10E680000F00042809D131682068F9F713FA00282F
:10E6900001DC0120EBE70020E9E7152332462146A3
:10E6A0002846FDF7FAFA071E01DB3846DFE76869FE
:10E6B000408C40F08000696948841423224631462A
:10E6C0002846FDF7EAFA07466869408C80F080002A
:10E6D00069694884002F04DA324621462846FBF750
:10E6E00053F80FB90120C2E70020C0E72DE9F0413F
:10E6F00006460C461546207A00F00F0003280AD182
:10E70000287A00F00F00032805D129462046F3F7A8
:10E71000ADF8BDE8F081207A00F00F0004280AD19E
:10E72000287A00F00F00042805D129682068F9F73D
:10E73000C1F9C00FEDE714232A4621463046FDF704
:10E74000ACFA071E04DA2A4621463046FBF71CF8CD
:10E750003846DEE72DE9F047824690469946DDE9E6
:10E760000845621C45F100010020D2F101028841F8
:10E770000DD3002184EA01006940084303D111A1AF
:10E780005046FBF745F800200146BDE8F0872246D9
:10E790002B4640464946F1F78EFD16461F4600219E
:10E7A00086EA01007940084309D088EA040089EA32
:10E7B00005010023C01A994101DA36196F4130462C
:10E7C0003946E2E7617474656D707420746F20706F
:10E7D0006572666F726D20276E2525302700000058
:10E7E0002DE9FC4780460C461546287A00F03F008C
:10E7F000042826D0052802D0142834D12AE02F6816
:10E80000B86908B900200EE0B869807900F01000FE
:10E8100008B1002007E0D8F81010D1F898200421A2
:10E82000B869FDF758FA064606B12AE0A14638460F
:10E83000FBF76EF9C9E900011320C9F80800BDE82B
:10E84000FC8720462968C9790022C0E900121321FB
:10E850008160F4E720462968C9680022C0E90012F7
:10E8600013218160EBE7042229464046FDF74AFA6E
:10E870000646B06820B909A229464046FBF7A6F82B
:10E8800000BF00BF01202B462A463146CDE900409B
:10E890004046FDF792F900BFD1E70000676574209C
:10E8A0006C656E677468206F660000002DE9F041AA
:10E8B00006460F4614461D4600210846611A75EBB0
:10E8C00000000FDA6FF03F018811091BA84103DB3C
:10E8D00000200146BDE8F081624230463946F1F73A
:10E8E0002AFDF7E74021611A75F1000002DB0020E4
:10E8F0000146EFE7224630463946F1F70DFDE9E7DC
:10E9000070B52DED048B84B004460D46164600BF4D
:10E91000A068032845D194ED000BB0EE409AF0EECC
:10E92000609AB0EE490AF0EE690AF3F7CDFBB0EE5B
:10E93000408AF0EE608A53EC182B51EC190BF1F77A
:10E94000DDFF11D026B9002004B0BDEC048B70BDF2
:10E95000012E09DD9FED250B53EC102B51EC180B0C
:10E96000F1F7FAFD41EC180B9FED220B53EC102B45
:10E9700051EC180BF1F7DAFF11D89FED200B53EC97
:10E98000102B51EC180BF1F7B9FF08D251EC180B12
:10E99000F1F78FFFC5E90001012000B1D4E70020A5
:10E9A000D2E7A068132805D1D4E90001C5E9000128
:10E9B0000120C9E7207A00F00F00042814D1216853
:10E9C00001F110006946FCF703FF01462068007959
:10E9D000042802D12068C07901E02068C068401C8A
:10E9E000814201D16C4693E70020ADE700000000B2
:10E9F0000000F03F000000000000E0C30000000045
:10EA00000000E0437FB504460D46A068132809D1F5
:10EA1000D4E900211046F1F738FFC5E900010120D3
:10EA200004B070BD207A00F00F00042821D12168C5
:10EA300001F110006946FCF7CBFE01462068007921
:10EA4000042802D12068C07901E02068C068401C19
:10EA500081420ED10298132805D1DDE9002110462C
:10EA6000F1F713FF01E0DDE90001C5E90001012034
:10EA7000D6E70020D4E700002DE9F0410646042245
:10EA80000EA13046FDF703F8074639463046FAF73F
:10EA90007BF800240DE00B4850F824103046FCF7BA
:10EAA000C1FF054629463046FAF76EF8601CA8718A
:10EAB000641C162CEFDBBDE8F08100005F454E566C
:10EAC000000000006C35010810B5044604F128016F
:10EAD0002046F9F713F92062206A10BD2DE9F047AE
:10EAE0000746884691467C6B4A4641462046FCF7DD
:10EAF000CEFF0646E06800F11002E2603146016098
:10EB00000A7942F040028260E068A0F110022046DB
:10EB1000396CFBF711FA0546A86860B9284601214F
:10EB2000016081602069C068002803DD2046FAF793
:10EB3000ADF800BF01E028460669E0681038E060E3
:10EB40003046BDE8F08710B504466068A06040F22A
:10EB50002111206A884209D004F120000FC8103426
:10EB60000FC4203C40F22110206205E004F118019E
:10EB70002046F9F7C3F8206110BD00002DE9F041EF
:10EB800005460C4616461F46DDF818800020206119
:10EB90006563C4F8008040F221102062A663002063
:10EBA000206301206060A060A764042209A12846B8
:10EBB000FCF76DFFE064E36B9A6819682023606BD3
:10EBC000FCF720FBE16B08602020E16B8860BDE86A
:10EBD000F08100005F454E560000000070B504460D
:10EBE0000D46294620462269F9F742F870BD00001B
:10EBF00070B505460C46B4F5807F05DC22460AA1B7
:10EC0000686BFCF7D0FC70BDA4F20110084951F804
:10EC10002060B4F5907F05DC324606A1686BFCF7F6
:10EC2000C2FCF0E73046EEE727256327000000002E
:10EC30006C35010827257327000000002DE9F047F7
:10EC4000A2B004460F4690461D46DDE92A9A0121EE
:10EC50002046FAF7D8FC0646E068314601604622B5
:10EC600082602046FAF725F92046FAF7B3FF1E9096
:10EC7000E0681E990160452282602046FAF719F982
:10EC80002046FAF7DEFCF060029049462046FCF789
:10EC9000C9FE02998864CDF874801F950021E9614E
:10ECA00029616960CDF800A002983A460EA9836CEC
:10ECB0002046FFF763FF02A90EA801F097F8E0686D
:10ECC0001038E060304622B0BDE8F087F8B5044661
:10ECD00026696A463046D4E90231984705460DB1A7
:10ECE000009810B94FF0FF30F8BD0098401E20602A
:10ECF00065606168481C60600878F5E710B50861D8
:10ED00008A60CB6000240C604C6010BD2DE9F0419E
:10ED100004460F46154624E0206868B92046FFF7F0
:10ED2000D5FF401C10B92846BDE8F0812068401C82
:10ED300020606068401E60602068A84201D32846B9
:10ED400000E020680646324638466168F1F71CFB51
:10ED50002068801B20606068304460603744AD1BD1
:10ED600000BF002DD8D10020DEE7000002460029B8
:10ED700002DC0648814201DC084670475369D068CE
:10ED80001B68C01A01EB2010F7E70000D8B9F0FFAC
:10ED900002461369986F1369996770472DE9F04728
:10EDA00004460D4617461E46DDF82080681CE168C3
:10EDB000A1EB0019B8F1000F0DD0B4F86C0050B9F8
:10EDC0006069C0F81080606986613A46494620460D
:10EDD000F9F7BDFF04E03A4649462046F9F7D5FF6A
:10EDE000781C38B960694068E168884202D261697C
:10EDF000E0684860BDE8F0872DE9F34104466669A4
:10EE0000E168E069401A0199B1EB201F01DA0125A0
:10EE100017E0216AE068401A052101EB201711492B
:10EE20000198081AB84201DA002509E001AA0E4942
:10EE30002046FAF7E7F908B9012000E0002005466E
:10EE400000BF5DB1E068019900EB01107168884274
:10EE500004D9E068019900EB011070602846BDE814
:10EE6000FC81000040420F003F7200082DE9F04194
:10EE700004460D46022D04DB29462046FDF778F8AE
:10EE800010E07DB9E66800220BA12046FCF7FFFDEB
:10EE900007463760387940F04000B060E0681030D5
:10EEA000E06000BF2069C068002803DD2046F9F754
:10EEB000EDFE00BFBDE8F081000000002DE9F0414B
:10EEC00005468846164641462846F8F735FA044670
:10EED00031462846F8F730FA0746384694E80E10CF
:10EEE00080E80E100E48864218DA207A00F04000C2
:10EEF00098B1686900680068407900F0040060B16A
:10EF00002068407900F0030038B122686869006821
:10EF100001682846F9F7CCFD00E000BFBDE8F081AC
:10EF2000D8B9F0FF70B5044600220121204600F058
:10EF300030FE85B22846F6F73DFC012070BD10B5C5
:10EF400004462046FAF7DCFB002010BD2DE9F0470F
:10EF500006460F4615464FF0000934690A2F5DD268
:10EF6000DFE807F0050911161C224E525C590020FB
:10EF700084F83F0055E000212046FAF732FA0120DC
:10EF800084F83F004DE000213046F9F72EFE48E0BE
:10EF9000D4E9020108444FEA902942E02089A1897E
:10EFA0000844C0F309093CE04FF0010894F83FA081
:10EFB000012084F83F003DB91C492046FAF711FAB8
:10EFC0003046F9F763FE0FE0E06800EB8528414624
:10EFD0002046FAF706FA3069C068002803DD30469B
:10EFE000F9F754FE00BF00BF84F83FA0B8F1000F4E
:10EFF00005DD94F83D00072801D14FF0010910E02C
:10F00000D4F8709025670CE0D4F87490282D00DABD
:10F010002825656705E094F83F9002E04FF0FF393E
:10F0200000BF00BF4846BDE8F0870000C0F9FFFF01
:10F030002DE9F04104460D46164629462046F8F7CC
:10F040007BF90746324639462046F5F7AFF8BDE86A
:10F05000F0812DE9F04104460D462069866A0222BE
:10F0600000233046FAF726FD07462A463946204651
:10F07000F5F79CF8BDE8F0812DE9F8430446894690
:10F0800016461F4649462046F8F756F98046D8F8F6
:10F090000800452802D0002500200BE032463B4600
:10F0A000D8F80000FAF706FD0546A86808B1012067
:10F0B00000E0002040B1E06895E80E1080E80E10F6
:10F0C000E0681030E06010E0E068C0E900671321FC
:10F0D0008160E0681030E0600095E068A0F1100306
:10F0E0001A4641462046FFF771F9E06810F8080C0F
:10F0F00000F00F00BDE8F8832DE9F84F04460E46F6
:10F100009046204603F059F830783E2808D1002771
:10F11000E068A0F11005761CE0681038E06003E0BC
:10F12000D8F860703D6800BF287A00F01F000628FC
:10F1300001D1286800E0002082465346424631460D
:10F1400020460097F4F7C2FF814666213046F1F76A
:10F150002DF940B1E06895E80E1080E80E10E068E7
:10F160001030E06000BF204603F027F84C21304605
:10F17000F1F71CF918B151462046F5F7E5FE48466F
:10F18000BDE8F88F2DE9F04105460F464FF0000825
:10F1900039462846F8F7D0F80646307A00F00F00D6
:10F1A000052802D0072806D102E0306884690AE009
:10F1B0003068846807E02869E830317A01F00F018F
:10F1C00050F8214000BF00BF4CB1E8682146016003
:10F1D00045228260E8681030E8604FF00108404640
:10F1E000BDE8F08130B503461546002901DA00205C
:10F1F00030BD5A6901E0491E9268002903DD03F120
:10F2000034008242F7D131B903F13400824202D096
:10F2100001242A6600E000242046E9E70146CA6886
:10F22000486900681030101A0011704770B5044624
:10F230000D4629462046F8F77FF80646B0681328A1
:10F2400001D1012070BD0020FCE77CB505460E46CB
:10F2500031462846F8F770F80446A068032805D11F
:10F2600094ED000B8DED000B01207CBD694620461E
:10F27000FFF7C8FBF9E770B505460E46314628464C
:10F28000F8F75AF80446207A00F00F00042804D05A
:10F29000207A00F00F00032801D1012070BD00206A
:10F2A000FCE7000010B5044600224FF400510C4862
:10F2B000F7F758FF00224FF480410948F7F752FF53
:10F2C00000224FF400410648F7F74CFF00BF054805
:10F2D000016805A0F2F76CFA00BF012010BD000024
:10F2E000000C0240080000201B5B303B33316D5B9B
:10F2F00025735D20436F6D706F6E656E743A206C80
:10F3000075615F6C65645F6F6666205B6F6B5D2027
:10F310000D0A1B5B306D0D0A0000000010B504469D
:10F32000012251030A48F7F71DFF01229103084803
:10F33000F7F718FF0122D1030548F7F713FF00BFC5
:10F340000448016804A0F2F733FA00BF012010BDA1
:10F35000000C0240080000201B5B303B33316D5B2A
:10F3600025735D20436F6D706F6E656E743A206C0F
:10F3700075615F6C65645F6F6E205B6F6B5D200D08
:10F380000A1B5B306D0D0A002DE9F04F85B0054674
:10F39000884691461E4606B91DA64B46424669461A
:10F3A0002846FFF7ABFC3246694628460E9BF9F724
:10F3B000DBFE07463FBBE86850F8104CA0790128F7
:10F3C00020DB2869D0F828A0022200235046FAF753
:10F3D00071FB8346216908689BE80E1080E80E10D7
:10F3E00020690068007A00F0400048B1206950F8B8
:10F3F000081B814204D128462169F9F77FFC00E00F
:10F4000000BF00BF00BF384605B0BDE8F08F000068
:10F410003F0000002DE9F047074688464FF44E7341
:10F42000082200214046B8478146B9F1000F02D1B9
:10F430000020BDE8F08709F1040509F180040020EF
:10F44000286008202871012084F83C0094F83C00D2
:10F4500000F0030068712146284601F0A1F92760F9
:10F46000C4F80480E567284600F06CFDA063002026
:10F4700084F83F0060610021E1612162A0612163A5
:10F48000A067C4F88000072084F83D00002084F8BD
:10F490003E0060662066A064206460642065E064CD
:10F4A000E065A0656065A0664FF44E70A060002026
:10F4B000E060E066C82020676067002605E0002164
:10F4C00004F1E80040F82610761C092EF7DB002234
:10F4D00005492846F9F796FE18B12846F5F77AFB54
:10F4E00000252846A5E70000215D00082DE9F04130
:10F4F00004460E4631462046F7F71EFF0746E068F1
:10F50000A0F1100220463968FAF738FC05461DB113
:10F51000E0681030E06002E0E0681038E060284603
:10F52000BDE8F0812DE9FE4F04468A46174698460D
:10F53000DDF834B0B8F1000F01D1002607E04146F4
:10F540002046F7F7F9FE0546206A2E1A00BF0AF199
:10F550000100E168A1EB00100190BBF1000F03D0A6
:10F56000B4F86C0000280BDD029700960198216A20
:10F57000431A01AA1B492046F9F7ADFC814624E055
:10F580006569C5F810B00C98A8610198216A401A05
:10F59000E861E16D6961E665688C20F0010094F82E
:10F5A000741008436884688C40F0100068843A4600
:10F5B00020460199F9F7CBFB688C20F01000688495
:10F5C0006869E0654FF0000900BF781C38B96069D0
:10F5D0004068E168884202D26169E0684860484654
:10F5E000BDE8FE8F0D5D0008C26809B1012300E08F
:10F5F0000023136001239360C2681032C260704719
:10F600002DE9F04104460F4615463DB9E068076014
:10F6100016218160E0681030E0602BE0294620462A
:10F62000F9F7DFFF0646F760E068A0EB0510E06041
:10F630000BE006F1100101EB0510E16801EB051C80
:10F640009CE80E1080E80E1000BF281EA5F10105F1
:10F65000EFD1E0683146016066228260E0681030D8
:10F66000E0602069C068002803DD2046F9F70EFB42
:10F6700000BF00BFBDE8F0810FB438B5044606A84E
:10F6800000902046009A0599FBF79EFF0546002052
:10F6900000902069C068002803DD2046F9F7F6FADB
:10F6A00000BF284638BC5DF814FB10B5C168C1E93D
:10F6B000002313248C60C1681031C16010BD00218B
:10F6C000C2689160C1681031C1607047C16881ED46
:10F6D000000B03228A60C1681031C160704770B5A9
:10F6E00004460E461EB90020E16888600EE03146EF
:10F6F0002046FCF797F90546E068294601600A793B
:10F7000042F04002826005F1100600BFE068103050
:10F71000E0602069C068002803DD2046F9F7B6FAEA
:10F7200000BF304670BD70B504460D46E6682946F8
:10F730002046F7F701FE90E80E00C06886E80E004C
:10F74000F060E0681030E06070BDF7B504460D462B
:10F7500029462046029AFBF737FF06462069C06813
:10F76000002803DD2046F9F791FA00BF3046FEBDC0
:10F770002DE9F04107468846144641463846F7F7DA
:10F78000DBFD054621463846F7F7D6FD0646074815
:10F79000854208D0864206D0324629460020FCF732
:10F7A0002BFDBDE8F0810020FBE7000000360108DA
:10F7B0002DE9F04104460D4629462046F7F7BCFDE9
:10F7C0000646E068A0F11007E268A2F11001306877
:10F7D000FAF73EF990E80E00C06887E80E00F8607E
:10F7E000E06810F8080C00F00F00BDE8F0812DE98A
:10F7F000F04704460F4615461E4639462046F7F7A1
:10F800009BFD8046D4F80C902A463346D8F8000079
:10F81000FAF750F990E80E00C06889E80E00C9F8C0
:10F820000C00E0681030E060E06810F8080C00F0B0
:10F830000F00BDE8F08770B505460E4631462846F4
:10F84000F7F77AFD0446207A00F03F00042806D03E
:10F8500005280DD0072808D014280DD102E0206813
:10F86000C07970BD2068C068FBE72068C068F8E711
:10F870002068FAF74DF9F4E70020F2E72DE9F041AE
:10F8800004460E4631462046F7F756FD0546E06829
:10F89000A0F1200220462968FAF74EFB0746E068EF
:10F8A00050F8101DD0E90123C06887E80E00F86009
:10F8B000002029688871E06810F8080C00F040000A
:10F8C00080B12868407900F0040058B1E06850F831
:10F8D000100C407900F0030020B120462968F9F7A8
:10F8E00001F900E000BFE0682038E060BDE8F08189
:10F8F0002DE9F047054689461446E868A0F110074F
:10F9000049462846F7F718FD0646002C02DBA7EB10
:10F91000041002E0A6EB041010388046424631463F
:10F92000284601F0D0FE3A4608F11001284601F0C1
:10F93000CAFE3A463146284601F0C5FEBDE8F087CA
:10F940001CB5FBF7AFFA0F4908600846006800F0E5
:10F95000F9F900220C490B480068FBF7E7FA0B495C
:10F9600008480068FBF78EFA48B90020009003466B
:10F97000421E0146019003480068FFF7D3FD00BF17
:10F98000FEE700000400002054320108F0310108B5
:10F990002DE9F04104460D46164629462046F7F764
:10F9A000CBFC0746324639462046F4F747FCBDE813
:10F9B000F0812DE9F04106460F4639463046F7F70B
:10F9C000BBFC0446F06850F8080C08B9002502E0BA
:10F9D000F06850F8105C207A00F00F00052802D083
:10F9E000072832D118E020688561A5B120684079E8
:10F9F00000F0040048B1687900F0030028B12A46FD
:10FA000030462168F9F754F800E000BF2A46304636
:10FA10002168F9F770F820E020688560A5B12068BA
:10FA2000407900F0040048B1687900F0030028B183
:10FA30002A4630462168F9F73BF800E000BF2A4625
:10FA400030462168F9F757F807E03069E830217A45
:10FA500001F00F0140F8215000BF00BFF0681038DE
:10FA6000F0600120BDE8F08130B543691A680029D3
:10FA700013DB05E00024C56805F11003C360AC602A
:10FA800002F1100303EB0113C4689C42F2D302F1AC
:10FA9000100303EB0113C36004E04B1CC46804EBC8
:10FAA0000313C36030BD2DE9FF4104460F461546E0
:10FAB000002003900290019039462046F7F73CFC65
:10FAC000804601A802AB03AA294600904046F4F7FD
:10FAD000B3FA0646002E36D0E0681038E06003988E
:10FAE000D4F80CC09CE80E1080E80E100298B8B153
:10FAF000E068007A00F0400088B10298407900F098
:10FB0000040060B1E0680068407900F0030030B1A3
:10FB1000E068026820460299F8F7CAFF13E012E095
:10FB2000019880B101980068007A00F0400048B167
:10FB3000019850F8081B814204D120460199F9F739
:10FB4000DDF800E000BF304604B0BDE8F08170B5DC
:10FB500004460D462846E168FBF73AFE06461EB10C
:10FB6000E0681030E06000BF304670BD70B50546FB
:10FB70000E4631462846F7F7DFFB0446A06830B151
:10FB8000A068012801D1206808B1012070BD0020C3
:10FB9000FCE72DE9FC4107468846144641463846B5
:10FBA000F7F7CAFB0546A868132805D1D5E9000177
:10FBB000CDE90001012004E0002269462846FEF755
:10FBC0009FFE064616B900200090019004B1266001
:10FBD000DDE90001BDE8FC812DE9F04106460F4654
:10FBE000154639463046F7F7A7FB0446207A00F061
:10FBF0000F0004281CD0207A00F00F00032805D045
:10FC00000DB1002028600020BDE8F081214630467B
:10FC1000FBF704FE3069C068002803DD3046F9F7C1
:10FC200035F800BF39463046F7F786FB044600BF7B
:10FC30004DB120680079042802D12068C07901E024
:10FC40002068C068286020681030DDE72DE9FC419D
:10FC500007468846144641463846F7F76DFB054689
:10FC6000A868032805D195ED000B8DED000B012050
:10FC700003E069462846FEF7C5FE06461EB99FED1D
:10FC8000050B8DED000B04B126609DED000BBDE86A
:10FC9000FC810000000000000000000070B5054677
:10FCA0000E4631462846F7F747FB0446207A00F017
:10FCB0003F00072818D006DC022818D0052809D0F4
:10FCC000062816D108E008280CD0162808D02628C7
:10FCD0000FD103E0206870BD2068FCE72068FAE7D8
:10FCE0002068F8E72068F6E720681830F3E7206816
:10FCF000F1E70020EFE7000070B505460E463146FB
:10FD00002846F7F719FB04460448844203D0207ABA
:10FD100000F00F0070BD4FF0FF30FBE70036010828
:10FD20000246024B481C53F8200070475C3801081B
:10FD3000014609B9024870470869D0F88000FAE71F
:10FD40003833010810B50446022200230F4920462B
:10FD5000FFF74DFD00220E492046FBF7E7F84FF074
:10FD6000FF312046FFF7DFFC0AA26FF001012046B9
:10FD7000FFF70EFE08A12046FFF7B1FC08A26FF0C6
:10FD800001012046FFF704FE012010BDD8B9F0FFA5
:10FD9000403301085F4700004C756120352E330069
:10FDA0005F56455253494F4E000000000B494868CA
:10FDB00080470A490868804708498868804707499A
:10FDC000C868804700BF064801680648F1F7F0FCA4
:10FDD00000BF02E0044908688047FBE720000020DC
:10FDE00000000020383A01081000002030B58BB028
:10FDF00005460C4606AA2146284600F0A7FB01202E
:10FE00002168C871002208216846F7F7CBFA6A46D4
:10FE10002046E96C00F03CFA2846FEF794FE28469E
:10FE200002F0FBF840F221112846F4F793FB284634
:10FE3000F4F744FE0BB030BD70B504460D46287A89
:10FE400000F03F0004282FD006DC012843D0022810
:10FE50004BD0032867D110E0132804D014282ED0EB
:10FE6000162860D150E0E27901209040401E2968B8
:10FE70000140206900EB411070BD95ED001BB0EE14
:10FE8000410AF0EE610AF7F7A9FC0146E279012088
:10FE90009040401E40F0010091FBF0F200FB121078
:10FEA000216901EB4010E7E72868E27981680120C9
:10FEB0009040401E0140206900EB4110DCE72868BB
:10FEC000FBF76EFDE27901219140491E084021694E
:10FED00001EB4010D0E7E27901209040401E2968F4
:10FEE0000140206900EB4110C6E7E2790120904013
:10FEF000401E40F001002968B1FBF0F200FB121037
:10FF0000216901EB4010B7E7E27901209040401EE3
:10FF100040F001002968B1FBF0F200FB12102169EA
:10FF200001EB4010A8E7E27901209040401E40F02C
:10FF300001002968B1FBF0F200FB1210216901EB0E
:10FF4000401099E730B585B00546002002F022FB4D
:10FF500000900024284601A921440860241D684619
:10FF600001A921440860241D084801A92144086012
:10FF7000241D074801A921440860241D214601A829
:10FF8000009AFBF7FAFC05B030BD0000003601080E
:10FF900015F4000870B505462C6E08E0607900F095
:10FFA000030018B12146284601F02CF92468002CE2
:10FFB000F4D170BD70B50546002414E005F1E800E9
:10FFC00050F8240070B105F1E80050F824004079A1
:10FFD00000F0030030B105F1E80050F82410284685
:10FFE00001F010F9641C092CE8DB70BD0246D068F2
:10FFF00000E00068037B8B42FBDC01234373704706
:020000040801F1
:100000002DE9F04106460C46A568B068406C00F149
:100010000C0817E0D8F8000000EB0517387B217BAF
:10002000884208DD607B20B1227B30467968FAF790
:10003000BAFA207B38732946B068F6F707F800B99A
:100040006D1C00BFD8F80400A842E3DCBDE8F081D5
:100050002DE9F0430646079CB4F1FF3F10D014B1E0
:10006000012C24D100E056E003B92E49104691E856
:10007000A010D1F80C8080E8A010C0F80C804AE0F5
:1000800000250CE002EB051001EB0517D7E900C8CD
:10009000D7E90297C0E900C8C0E902976D1C9D42EC
:1000A000F0DB02EB0310F0600020BDE8F0839C421F
:1000B00014DC00200FE002EB001501EB0019D9E978
:1000C00001C8D9F80070D9F80C90C5E901C8C5F885
:1000D0000C902F60401CA042EDDB1BE000200FE0E5
:1000E00002EB001501EB0019D9E901C8D9F800703D
:1000F000D9F80C90C5E901C8C5F80C902F60401CD8
:100100009842EDDB04E0002502EB0017BD60401CC7
:10011000A042F8DB00BF00BF02EB0410F06001203A
:10012000C3E700000036010870B505460C460FE035
:1001300021462846F6F7C4FE066806F03F0023284D
:1001400001D0012070BD21462846F6F7A3FE0446E3
:10015000601C0028ECD100BFF4E770B506460D46E0
:100160003046A968F6F7ACFE04462088C0F3871035
:1001700008B9012100E00021206861F38D102060A2
:1001800070BD00002DE9FC4105460F462E6B6C6CDE
:100190003946284601F0F2F880466068401C726AD1
:1001A000811A10A3C8223046F4F789FB6068801CCE
:1001B000A16888420CDD0BA06FF00041CDE9001072
:1001C0002168022304F10802686BFAF7D5FF20606A
:1001D0000FFA88F16268501C6060206820F81210E5
:1001E000BDE8FC816C6F63616C207661726961624D
:1001F0006C6573002DE9F04104460D461646324603
:1002000029462046FEF76AFC074639462046FFF796
:10021000B9FFBDE8F08100002DE9FC4706460C4619
:1002200017469846DDF828906568681CA1688142E9
:100230000CDA13A047F6FF71CDE9001021681023F6
:1002400004F10802706BFAF797FF2060206800EB5A
:1002500005100760206800EB0510C0F80880306BBF
:1002600090F82A00216801EB05110873206800EB63
:100270000510C0F80490681C60602846BDE8FC8743
:100280006C6162656C732F676F746F7300000000A0
:100290002DE9FC4104460E4617462568D5F80C802A
:1002A00094F82B00411C29A3FF222046F4F707FBFA
:1002B00094F82B00401CE96888420CDD23A0FF2144
:1002C000CDE90010296CA2680823506B05F10C02DF
:1002D000FAF752FF286406E00022404608F10108C0
:1002E0002B6C43F83020E8684045F5DC3878082866
:1002F00001D1012000E00020296C14F82B2F01EB24
:10030000C2010871387A2278296C01EBC201487168
:10031000286C14F82B1940F83160687900F004005B
:1003200050B1707900F0030030B1A1683246486BDB
:100330002946F8F7BDFB00E000BF14F82B0F217829
:10034000491C04F82B19BDE8FC810000757076612A
:100350006C7565730000000010B588B0044600207D
:10036000029004A8A268116C0160452282606A466E
:1003700004A92046F3F7A2FB08B010BD70B52DED1F
:10038000088B05460C46B0EE409AF0EE609AB0EE4F
:10039000418AF0EE618A0D2C7AD2DFE804F0071270
:1003A0001B4E2D24387979797979470053EC182B35
:1003B00051EC190BF0F7D0F841EC100BBDEC088BA9
:1003C00070BD53EC182B51EC190BF0F766F941ECAA
:1003D000100BF3E753EC182B51EC190BF0F763F902
:1003E00041EC100BEAE753EC182B51EC190BF0F72A
:1003F000CCF941EC100BE1E7B0EE481AF0EE681AC8
:10040000B0EE490AF0EE690AF1F7B6FFD6E753EC11
:10041000182B51EC190BF0F7B8F941EC1A0BB0EEB0
:100420004A0AF0EE6A0AF1F74FFEC7E751EC190BE2
:1004300081F0004141EC100BC0E7B0EE481AF0EE3D
:10044000681AB0EE490AF0EE690AF1F7C9FEB0EE9B
:1004500040AAF0EE60AA53EC182B51EC1A0BF0F7FF
:1004600022F941EC1B0B9FED0C0B53EC102BF0F71A
:1004700045FA07D253EC182B51EC1A0BF0F76CF835
:1004800041EC1A0BB0EE4A0AF0EE6A0A96E7FFE773
:100490009FED010B92E7000000000000000000004B
:1004A0002DE9F04102460C460027012300210125D9
:1004B00021E000202E46D2F808C0B44503D2966849
:1004C000B34200D919E00CE0A3F1010CD2F80C8082
:1004D00008EB0C1CDCF808C0BCF1000F00D0401C7D
:1004E0005B1CB342F0D954F821C0844444F821C0C5
:1004F0000744491C6D001F29DBDD00BF3846BDE8FD
:10050000F0812DE9F04704468A461546002600276B
:10051000E179012000FA01F80DE0206900EB4819AB
:10052000D9F8080030B1514609F11000F4F7BFFEC8
:100530000744761C00BFB8F10000A8F10108ECD117
:100540002868384428603046BDE8F0872DE9F0413E
:1005500005460C461646286B6060A5602C6300209B
:1005600020616061401EA061002084F82C00E061E1
:10057000206284F82B00208584F82A00686C40688B
:1005800060620020E0602768A86CB86402203872BE
:10059000002231462046F5F7E7F9BDE8F081F8B5CD
:1005A00007460C4615461E4601213846FAF7BAFAA8
:1005B000224601213846FAF781FB98B900223146DC
:1005C0003846FFF71DF801213846FFF7ACF82DB18A
:1005D000002213463846FFF768F80FE03846FFF769
:1005E0006EF80BE001213846FFF79DF80020034626
:1005F0000322012100903846FEF7D0FB0320F8BD0E
:1006000070B504460022511E2046FFF7E5FA054664
:100610002A4604A11048F1F7DBFC0F48002000BF78
:10062000002070BD50414E49433A20756E70726F84
:10063000746563746564206572726F7220696E20E0
:1006400063616C6C20746F204C75612041504920AF
:10065000282573290A0000008C0000202DE9F041B4
:100660000446256B2E6800270020F0712069292898
:1006700024D000BF2069A0F2191058B10B280FD167
:10068000204601F0E0FC804641462046FFF77AFD17
:100690007F1C0AE02046FEF756FA0120F07104E0C4
:1006A0000DA12046FEF79AFA00BF00BFF07928B9E5
:1006B0002C21204601F061FF0028DBD1394620467D
:1006C000F3F73AFB95F82A00B07195F82A102846FE
:1006D000FAF768F8BDE8F0813C6E616D653E206F09
:1006E0007220272E2E2E272065787065637465642E
:1006F000000000002DE9F04706460C4617461D464F
:10070000DDF8208017E021463046F6F7C3FB81462E
:100710002A462146304600F013F828B13A462146D1
:100720003046F5F75DFD04E0424621463046F5F7D8
:1007300057FD4C4600BF601C0028E4D1BDE8F0879F
:100740002DE9F04106460F46154639463046F6F784
:10075000B7FB0446207800F03F00232802D0002099
:10076000BDE8F081FF2D0BD040F2FF11206801EAB7
:10077000D050A84204D0206865F38D1020600DE0B1
:1007800040F2FF11206801EAD050222141EA801096
:100790002168C1F3883140EA813020600120DFE721
:1007A0000161002202624261C2800266C06202638D
:1007B000A0F86E20826502674266012280F87420EC
:1007C000426E8266002242620122A0F86C20002262
:1007D0000272C2657047000070B504460D4620697C
:1007E000282803D0B0F5927F18D112E06668204621
:1007F000FEF7A9F929462046F5F747FA334628229D
:1008000029212046F3F7DCFF2946206BF9F7A1FCEC
:1008100070BD2946204601F0DEF9F9E703A1204624
:10082000FEF7DCF900BF00BF00BFF1E7756E657829
:100830007065637465642073796D626F6C0000008D
:1008400010B5044602E0204600F004F8E06C0028F1
:10085000F9D110BD2DE9F0410546EC6C607940F00E
:10086000040060712079082825D004DC052807D011
:10087000062839D10DE009282DD0262834D111E0E1
:100880002746F869E8643946284602F061F80646CA
:100890002CE02746B868E8643946284601F0C9FECE
:1008A000064623E02746B868E8643946284601F042
:1008B00099FE06461AE02746B86AE864286DB862D1
:1008C0002F65607900F0FB0060713946284602F020
:1008D000A6F806460AE02746F86CE864394628463A
:1008E00001F053FF064601E0BDE8F08100BF286932
:1008F0003044286100BFF7E72DE9FF5F0E469146BF
:100900009A460E9FD6F80CB0D6F84080594600980B
:10091000F8F779FE0546EE60384629460160462222
:100920008260002425E008EBC400007960B108EB88
:10093000C40040790AEB00110098F8F7A8FD05F112
:10094000100141F8240008E008EBC400407959F890
:10095000201005F1100040F8241005F1100050F8A7
:1009600024004068401C05F1100151F82410486033
:10097000641C5C45D7DB707900F0040000B9756435
:10098000BDE8FF9F2DE9F04107460D463846FEF7CA
:1009900045FC04462A461FA13846FEF7ADFB1EA2C1
:1009A0001F493846FEF744FB0222611C3846F5F722
:1009B0008DFA40B30022511E3846FFF70DF9064666
:1009C000032218A13046EFF728FD70B9F11C384614
:1009D000FEF785FE4FF0FF3251003846FEF788FFE4
:1009E0006FF001013846FFF73FF8621C4FF0FF310E
:1009F0003846FEF763FA6FF002013846FFF734F825
:100A00000120BDE8F08121463846FFF72DF800208F
:100A1000F7E70000660000005F4C4F41444544008A
:100A2000D8B9F0FF5F472E002DE9F04104460F468C
:100A30009046E568424639462046FBF728F80646C8
:100A40002E60307940F04000A8602046F8F731FA77
:100A5000BDE8F0812DE9F04704460D46164667686B
:100A60002046216800F060FEA06B0168481EA26B62
:100A7000106031B1A06B4168481CA26B50600878CF
:100A800002E0A06BFEF722F9206020680A2802D05D
:100A900020680D2802D12046F6F704FC00BF20682C
:100AA000B0F1FF3F06D00A2833D00D2832D05D28A0
:100AB0003CD112E00DB13BA000E03CA080463B469B
:100AC00042463CA1606BFAF76EFD814640F221126E
:100AD00049462046F7F7CCF851E0204601F002F9EC
:100AE000B04215D12046216800F01EFEA06B0168BF
:100AF000481EA26B106031B1A06B4168481CA26B0C
:100B00005060087802E0A06BFEF7E0F8206037E064
:100B100035E000BF0A21204600F006FE2046F6F729
:100B2000C1FB15B90020E16B486028E0ADB120465B
:100B3000216800F0F9FDA06B0168481EA26B1060EF
:100B400031B1A06B4168481CA26B5060087802E08C
:100B5000A06BFEF7BBF8206010E0A06B0168481E98
:100B6000A26B106031B1A06B4168481CA26B506051
:100B7000087802E0A06BFEF7A9F8206000BF8EE7BE
:100B800075B1E06B4368B01C4FF0020C0CFB1032E7
:100B9000E06B0368B01C19182046FDF79FFF286022
:100BA000BDE8F087737472696E670000636F6D6DE6
:100BB000656E7400756E66696E6973686564206C35
:100BC0006F6E6720257320287374617274696E6775
:100BD000206174206C696E65202564290000000086
:100BE0002DE9FF4104460D4641A6276820462168AD
:100BF00000F09AFDA06B0168481EA26B106031B135
:100C0000A06B4168481CA26B5060087802E0A06BA2
:100C1000FEF75CF82060302F05D136A12046F3F7AF
:100C20002AFE00B134A600BF31462046F3F723FE6A
:100C300018B132A12046F3F71EFE2068401C30494F
:100C4000085C00F01000A8B12046216800F06CFD9F
:100C5000A06B0168481EA26B106031B1A06B4168A7
:100C6000481CA26B5060087802E0A06BFEF72EF8DB
:100C70002060D9E720682E2815D12046216800F091
:100C800053FDA06B0168481EA26B106031B1A06BD0
:100C90004168481CA26B5060087802E0A06BFEF728
:100CA00015F82060C0E700BF00BF0021204600F01B
:100CB0003BFDE16B08686946FAF78AFD28B94FF4F5
:100CC000917210A12046F6F7D3FF0298132808D19D
:100CD000DDE90001C5E9000140F2231004B0BDE8E0
:100CE000F0819DED000B85ED000B4FF49170F5E761
:100CF0004565000078580000507000002D2B000062
:100D0000683401086D616C666F726D6564206E7584
:100D10006D626572000000002DE9F04104460E4648
:100D200017462046216800F0FFFCA06B0168481EB2
:100D3000A26B106031B1A06B4168481CA26B50607F
:100D4000087802E0A06BFDF7C1FF2060F4E02068A6
:100D5000B0F1FF3F06D00A280BD00D280AD05C283E
:100D60007CD10EE040F2211286A12046F6F780FFEA
:100D7000E1E000BF40F2251282A12046F6F778FF9D
:100D8000D9E02046216800F0CFFCA06B0168481E26
:100D9000A26B106031B1A06B4168481CA26B50601F
:100DA000087802E0A06BFDF791FF206020686628BC
:100DB00024D013DC27283CD009DCB0F1FF3F3AD027
:100DC0000A282ED00D282DD0222872D130E05C28A0
:100DD0002DD061280ED062286BD10DE06E380D2821
:100DE00067D2DFE800F00D6666660F66111A1366BB
:100DF0001566290007256BE0082569E00C2567E0EA
:100E00000A2565E00D2563E0092561E00B255FE01B
:100E1000204600F01BF905465AE0204602F0EFF8A4
:100E200072E000BF2046F6F73DFA0A2562E000BFF7
:100E300000BF25684CE067E0E06B4068401EE16B56
:100E40004860A06B0168481EA26B106039B1A06BAE
:100E50004168481CA26B5060087803E055E0A06B25
:100E6000FDF734FF20601AE020680A2802D02068CD
:100E70000D2803D12046F6F715FA10E0A06B0168A3
:100E8000481EA26B106031B1A06B4168481CA26B78
:100E90005060087802E0A06BFDF718FF2060206822
:100EA000401C3D49085C00F008000028DCD12BE024
:100EB000FFE72068401C384A105C00F0020137A2AE
:100EC0002046F4F737FE204600F074F8054611E09E
:100ED000A06B0168481EA26B106031B1A06B416825
:100EE000481CA26B5060087802E0A06BFDF7EEFE94
:100EF000206000BFE06B4068401EE16B48602946FF
:100F0000204600F011FC00BF15E02046216800F0EB
:100F10000BFCA06B0168481EA26B106031B1A06B86
:100F20004168481CA26B5060087802E0A06BFDF796
:100F3000CDFE206000BF00BF2068B0427FF407AF45
:100F40002046216800F0F0FBA06B0168481EA26BF0
:100F5000106031B1A06B4168481CA26B50600878EA
:100F600002E0A06BFDF7B2FE2060E06B4068821EDD
:100F7000E06B0068411C2046FDF7B0FD3860BDE81D
:100F8000F0810000756E66696E6973686564207330
:100F90007472696E6700000068340108696E7661DA
:100FA0006C69642065736361706520736571756534
:100FB0006E63650070B50446002600251BE00A211B
:100FC000206801FB0600A0F130062046216800F0F1
:100FD000ABFBA06B0168481EA26B106031B1A06B27
:100FE0004168481CA26B5060087802E0A06BFDF7D6
:100FF0006DFE20606D1C032D07DA2068401C0B4934
:10100000085C00F002000028D9D1FF2E01DC01208D
:1010100000E00020014606A22046F4F78BFDE06BBD
:101020004068401BE16B4860304670BD6834010881
:10103000646563696D616C206573636170652074BC
:101040006F6F206C617267650000000070B5044628
:101050002046F5F7E9FE05462046F5F7E5FE00EBEC
:101060000515E06B4068801EE16B4860284670BD46
:1010700070B5044604262046216800F055FBA06B9D
:101080000168481EA26B106031B1A06B4168481C1A
:10109000A26B5060087802E0A06BFDF717FE20609D
:1010A00020687B2801D1012000E0002001462DA20C
:1010B0002046F4F73FFD2046F5F7B6FE054610E062
:1010C000761C2068FAF746FA00EB0515B5F5881F7F
:1010D00001D2012000E00020014625A22046F4F7BD
:1010E00029FD2046216800F01FFBA06B0168481E07
:1010F000A26B106031B1A06B4168481CA26B5060BC
:10110000087802E0A06BFDF7E1FD20602068401C3C
:101110001D49085C00F010000028D1D120687D280E
:1011200001D1012000E00020014618A22046F4F77A
:1011300001FDA06B0168481EA26B106031B1A06B6D
:101140004168481CA26B5060087802E0A06BFDF774
:10115000BDFD2060E06B4068801BE16B4860284665
:1011600070BD00006D697373696E6720277B27006F
:101170005554462D382076616C756520746F6F204C
:101180006C61726765000000683401086D697373F3
:10119000696E6720277D27002DE9F04704008A4605
:1011A00016D054F8047CD4F800903E1F564500D960
:1011B00056462046F0F758FF0546884632462146F7
:1011C0005046F6F78BF940B1C0F80090BDE8F087C3
:1011D000BDE8F0470846F1F787BF44E9017955B10A
:1011E00029686A18211F8A4202D9611B091F2960D8
:1011F000C5F80480EAE7024AC2F80080E6E700008A
:10120000940000207FB505460C4600BF607900F0D1
:10121000FC0060712079082858D008DC04280DD023
:1012200005284FD0062845D0072857D11AE00928AD
:1012300050D014280CD0262850D13FE0607940F0DF
:1012400004006071E079113029690844286146E0A2
:10125000607940F0040060712969E0681130084449
:1012600028613CE0A06840B1A068407900F003002C
:1012700018B12846A168FFF7C5FF607940F0040067
:1012800060712969E0681830084428616846214681
:10129000D1E90423C0E900238A798260029800F032
:1012A000400030B10098407900F0030008B1009C84
:1012B000ACE714E0E86CA060EC6410E0E86CA060BF
:1012C000EC640CE0E86CE061EC6408E0E86CA062BF
:1012D000EC6404E0E86CE064EC6400E000BF00BF94
:1012E0007FBD00002DE9F0438FB005460C462E6B04
:1012F000286B90F82C702869B0F5927F0BD119A358
:101300006FF000423046E169F3F7D9FA08A92846A0
:10131000F3F728FB03E008A9284601F056FFE0692F
:10132000401CE0613D212846F3F729FB08A930461F
:10133000F8F750FF814602A92846F4F7A6FC02A957
:101340003046F8F747FF80460090A0694B460A21D7
:1013500082683046F8F79CFE86F82C700FB0BDE826
:10136000F08300006974656D7320696E20612063ED
:101370006F6E7374727563746F7200002DE9FC41B7
:1013800006460F46356B2C68D4F82080B5F9280046
:10139000401C216A88420CDD1BA047F6FF71CDE995
:1013A0000010E16B0C2304F12002706BF9F7E4FEEE
:1013B000E06308E00022404608F1010800EB40002D
:1013C000E36B43F82020206A4045F3DCB5F9281090
:1013D00001EB4101E06B40F82170607900F00400FE
:1013E00048B1787900F0030028B13A462146706B85
:1013F000F7F75EFB00E000BFB5F9280081B2491C99
:1014000009B22985BDE8FC816C6F63616C2076614F
:10141000726961626C6573002DE9F043A1B080468A
:101420000E461746002403E000204DF82400641CFB
:101430001F2CF9DD69463046FFF732F82090209DD9
:1014400020AA69463046FFF75CF8054469463846ED
:10145000F3F72DFF2099084420906D1C20A96846C1
:10146000F3F7ABFD814620982B1A4A463146404699
:10147000F8F7D2FC21B0BDE8F0832DE9F041064633
:1014800006F1680725E0607900F0070020B9606A7E
:1014900010B104F12C071CE0E06A3860E462656A70
:1014A00014E0E86888B12868007A00F0400050B184
:1014B00028680068407900F0030020B128680168BE
:1014C0003046FFF79FFE0021E960AD68002DE8D1AE
:1014D00000BF3C68002CD6D1BDE8F081017E01F050
:1014E000400131B10169497901F0030109B10A22D2
:1014F0008261704770B505460C4609E0FF2221461F
:101500002846FFF71DF921462846F5F7C3FC044697
:10151000601C0028F2D170BD70B504460D46A0686D
:10152000406C406894F82A10491B401AA168496C25
:1015300048600BE094F82A00401EC0B284F82A00EC
:1015400001462046F5F7D4FC2169816094F82A0011
:10155000A842EFDC70BD2DE9F04188B004460D468D
:10156000276B3846F8F7DEFE8046012204A938468C
:10157000F4F7FAF9002269463846F4F7F5F92046FF
:10158000FDF7E1FA204600F048FD2B4640F211122B
:10159000111D2046F3F714F92046F3F72BFD0646FC
:1015A0009DF80D0028B19DF80C2031463846F8F71B
:1015B000FAFF3846F6F71DFB424631463846F9F742
:1015C0000BF83846F6F715FB08B0BDE8F08110B50A
:1015D000044600202065E064A065E0656065E06F7A
:1015E000407900F0030018B12046E16FFFF70AFED2
:1015F0003020005D00F0400040B1A06A407900F06A
:10160000030018B12046A16AFFF7FCFD2046FEF753
:10161000D1FC2046FEF7BEFC10BDF0B587B00746F2
:101620003E6B01213846F2F7DAFE10B938693B28E3
:1016300002D1002425463BE069463846F4F70BFB0F
:1016400005469DF800000D2803D09DF800000E28E7
:101650001FD14FF0FF3269463046F9F74CF99DF83B
:1016600000000D2810D1012D0ED13068006B0299B9
:1016700050F8210020F03F0040F025003168096B50
:10168000029A41F8220000BF96F82A404FF0FF3539
:101690000EE0012D05D169463046F8F7E3FD04461A
:1016A00006E069463046F8F70EFE96F82A4000BF7D
:1016B0002A4621463046F9F782F83B21384600F0A9
:1016C0005CFF07B0F0BD2DE9FF41034610E068461E
:1016D00091E8F00080E8F000084692E8F00080E829
:1016E000F00010469DE8F00080E8F0001031103A5C
:1016F0009142ECD3BDE8FF8170B506463469002500
:1017000004E001213046EFF7E3FD6D1C206E10B1BF
:10171000E06EA842F5D8206E08B9002001E0E06E26
:101720004000E066284670BD2DE9F04106460F46B0
:10173000F46B6068401CA168884214D96FF00041C6
:10174000A068884204D300220AA13046F6F790FA36
:10175000A06845002B46A2682168706BF9F752FD1E
:101760002060A56000BF6268501C606020688754DC
:10177000BDE8F0816C65786963616C20656C656DAE
:10178000656E7420746F6F206C6F6E6700000000D0
:1017900010B502460B461068046C002106E054F8B0
:1017A0003100984201D1084610BD491C92F82B0027
:1017B0008842F4DC4FF0FF30F6E770B505460E4680
:1017C00095F82A00441E09E021462846F5F790FBCB
:1017D0000068B04201D1204670BD641E002CF3DACF
:1017E0004FF0FF30F8E770B504460D460020206149
:1017F00029462046FDF7F2F970BD2DE9F041054676
:101800000E4605F1480705F16000F4F756FC8046E6
:101810000EE0607900F0030010B90EB9274607E02A
:1018200020683860D8F800002060C8F80040A04662
:101830003C68002CEDD1BDE8F0812DE9F041074670
:101840000C461546681CB0F1805F03D33846F9F7A3
:101850000BFD00E000BF2B01A06802013846E168E3
:10186000F9F7D0FCE060A66805E00020E16801EB34
:1018700006118860761CAE42F7D3A560BDE8F08102
:101880002DE9F04105460E461446042E02D0062EE0
:1018900019D109E020462A69D2F8841001600A793A
:1018A00042F04002826019E0274617220EA1284626
:1018B000FAF7EDF88046C7F8008098F8040040F089
:1018C0004000B8600AE02046E96851F8102DD1E9DF
:1018D0000137C96880E88C00C16000BF00BF04F117
:1018E0001000E860BDE8F0816572726F7220696E69
:1018F000206572726F722068616E646C696E670039
:101900002DE9F04180460C4615462DB91B48206153
:101910000020E07160612FE02846F9F787FD074657
:101920001E2F03DD16A14046F7F772FF012000FAD3
:1019300007F5681CB0F1006F03D34046F9F794FC3B
:1019400000E000BF6B01002211464046F9F75AFC47
:101950002061002608E0216901EB46100022C261E7
:10196000826100218160761CAE42F4DBE771206960
:1019700000EB4510606100BFBDE8F0813038010820
:101980007461626C65206F766572666C6F770000BB
:101990002DE9F041044664216069B0FBF1F66FF077
:1019A000004090FBF6F0216F884202DD206F70430B
:1019B00001E06FF000400746D4E902010844C51B6E
:1019C00029462046F7F70DFDBDE8F081F8B504463D
:1019D0000D462069B0F58A7F34D009DC7B2856D0CB
:1019E000A0F20710A0B3022856D007285ED123E04A
:1019F000A0F2191068B3092804D00A280CD00C28CA
:101A000054D113E0002205212846F5F7CBFC94EDD4
:101A1000060B85ED020B4EE0002206212846F5F765
:101A2000C1FCD4E90601C5E9020144E0294620468B
:101A3000A269F3F758FA3EE0002201212846F5F7A3
:101A4000B1FC38E0002202212846F5F7ABFC32E079
:101A500000E005E0002203212846F5F7A3FC2AE078
:101A6000266B3068C07918B916A12046FDF7B6F884
:101A70000020012302462D2100903046F8F708FB94
:101A800007463A460E212846F5F78CFC13E0294616
:101A90002046F3F72DFBF8BD2046FDF754F8002251
:101AA000294620466368F2F7B7FCF4E7294620464A
:101AB00000F032FBEFE700BF2046FDF744F800BF1F
:101AC000E9E7000063616E6E6F742075736520270F
:101AD0002E2E2E27206F7574736964652061207621
:101AE00061726172672066756E6374696F6E000063
:101AF00070B505462C6994F83D00082869D2DFE8E6
:101B000000F00F1B2B333B425604206A80002061FB
:101B10002046FFF75CFD002084F83D00206970BD81
:101B2000002020612046FEF795FEE06C10B90120F0
:101B300084F83D002069F2E72046FEF781FE284642
:101B4000F2F702FA06462846F3F736FFD4E9020117
:101B5000084460613046E2E704F14803032221466D
:101B6000284600F06CFBDAE704F16003042221460A
:101B7000284600F064FBD2E70023052221462846D0
:101B800000F05DFBCBE7E06F407920F0070094F8B0
:101B90003C1001F003010843E16F487121462846DB
:101BA000F2F7AAFD062084F83D000020B7E7206E7A
:101BB00050B194F83E00012806D02846FFF79CFD5E
:101BC000064606EB8600AAE7072084F83D000020C1
:101BD000A5E70020A3E7F0B587B004460D462046F0
:101BE00000F031FA0746266B01232A463946304673
:101BF00000F015F8287880B901232A463046E16CB8
