:020000040800F2
:1000000000C000201D130008C1080008C308000834
:10001000C5080008C7080008C9080008000000005B
:10002000000000000000000000000000CB080008F5
:10003000CD08000800000000CF080008D108000823
:1000400065130008651300086513000865130008B0
:1000500065130008651300086513000865130008A0
:100060006513000865130008651300086513000890
:100070006513000865130008651300086513000880
:100080006513000865130008651300086513000870
:100090006513000865130008651300086513000860
:1000A0006513000865130008651300086513000850
:1000B0006513000865130008651300086513000840
:1000C0006513000865130008651300086513000830
:1000D0006513000865130008651300086513000820
:1000E0006513000865130008651300086513000810
:1000F0006513000865130008000000000000000000
:10010000000000000000000000000000651300086F
:1001100065130008651300086513000865130008DF
:1001200065130008651300086513000865130008CF
:1001300065130008000000000000000065130008BF
:1001400065130008651300086513000865130008AF
:10015000651300086513000800000000651300081F
:10016000651300086513000800000000000000008F
:10017000000000000000000000000000000000007F
:1001800000000000651300086513000865130008EF
:10019000000000000000000000000000000000005F
:1001A000000000000000000000000000000000004F
:1001B00000000000000000006513000800000000BF
:1001C000000000000000000000000000000000002F
:1001D000000000000000000000000000651300089F
:1002000010B5054C237833B9044B13B10448AFF350
:1002100000800123237010BD64080020000000004E
:100220006C2F000808B5034B1BB103490348AFF31B
:10023000008008BD00000000680800206C2F000846
:1002400053B94AB9002908BF00281CBF4FF0FF313D
:100250004FF0FF3000F074B9ADF1080C6DE904CE39
:1002600000F006F8DDF804E0DDE9022304B0704791
:100270002DE9F047089E0D4604468846002B4DD1D7
:100280008A42944668D9B2FA82F252B101FA02F374
:10029000C2F1200120FA01F10CFA02FC41EA030844
:1002A00094404FEA1C45210CB8FBF5FE1FFA8CF771
:1002B00005FB1E8341EA03430EFB07F199420BD96C
:1002C0001CEB03030EF1FF3080F01E81994240F2D7
:1002D0001B81AEF1020E63445B1AA4B2B3FBF5F0CE
:1002E00005FB103344EA034400FB07F7A7420AD991
:1002F0001CEB040400F1FF3380F00881A74240F2B8
:10030000058164440238E41B40EA0E4000211EB11E
:10031000D4400023C6E90043BDE8F0878B4208D9EA
:10032000002E00F0EE800021C6E900050846BDE879
:10033000F087B3FA83F100294AD1AB4202D382425B
:1003400000F2F980841A65EB030301209846002E21
:10035000E2D0C6E90048DFE702B9FFDEB2FA82F276
:10036000002A40F09180A1EB0C054FEA1C471FFAD0
:100370008CFE0121B5FBF7F307FB1350250C45EA72
:1003800000450EFB03F0A84208D91CEB050503F15C
:10039000FF3802D2A84200F2CB8043462D1AA4B205
:1003A000B5FBF7F007FB105544EA05440EFB00FED1
:1003B000A64508D91CEB040400F1FF3502D2A6457E
:1003C00000F2BB802846A4EB0E0440EA03409EE7FF
:1003D000C1F120078B4022FA07FC4CEA030C20FAFB
:1003E00007F405FA01F31C43FD404FEA1C4900FAEB
:1003F00001F3B5FBF9F8200C1FFA8CFE09FB185528
:1004000040EA054508FB0EF0A84202FA01F20BD9BA
:100410001CEB050508F1FF3A80F08880A84240F205
:100420008580A8F1020865442D1AA4B2B5FBF9F045
:1004300009FB105544EA054500FB0EFEAE4508D900
:100440001CEB050500F1FF346CD2AE456AD90238C9
:10045000654440EA0840A0FB0294A5EB0E05A542C6
:10046000C846A64656D353D05EB1B3EB080265EB3F
:100470000E0505FA07F722FA01F3CD401F43C6E93E
:1004800000750021BDE8F087C2F1200320FA03F1D6
:100490000CFA02FC25FA03F395400D434FEA1C4782
:1004A0001FFA8CFEB3FBF7F107FB11302B0C43EA6C
:1004B000004301FB0EF0984204FA02F408D91CEB49
:1004C000030301F1FF382FD298422DD9023963443A
:1004D0001B1AADB2B3FBF7F007FB103345EA034537
:1004E00000FB0EF3AB4208D91CEB050500F1FF3809
:1004F00016D2AB4214D902386544ED1A40EA0141E4
:1005000038E73146304607E78646E5E61846FAE61C
:100510004B45A9D2B9EB020864EB0C0E0138A3E7F6
:100520004046EAE7204694E74146D1E7D0467BE7DC
:10053000023B654432E7084609E76444023842E773
:10054000704700BF00000000000000000000000035
:10055000000000000000000000000000000000009B
:10056000000000000000000000000000000000008B
:10057000000000000000000000000000000000007B
:1005800090F800F06DE9024520F007016FF0000CD3
:1005900010F0070491F820F040F049804FF000047B
:1005A0006FF00700D1E9002391F840F000F1080056
:1005B00082FA4CF2A4FA8CF283FA4CF3A2FA8CF38E
:1005C0004BBBD1E9022382FA4CF200F10800A4FAF5
:1005D0008CF283FA4CF3A2FA8CF3E3B9D1E9042349
:1005E00082FA4CF200F10800A4FA8CF283FA4CF380
:1005F000A2FA8CF37BB9D1E9062301F1200182FA3A
:100600004CF200F10800A4FA8CF283FA4CF3A2FA3F
:100610008CF3002BC6D0002A04BF04301A4612BA4D
:10062000B2FA82F2FDE8024500EBD2007047D1E950
:10063000002304F00305C4F100004FEAC50514F0DF
:10064000040F91F840F00CFA05F562EA05021CBFB0
:1006500063EA050362464FF00004A9E700000000CA
:1006600001F0FF01102A2BDB10F0070F08D010F863
:10067000013B013A8B422DD010F0070F42B3F6D167
:10068000F0B441EA012141EA014122F007047FF080
:1006900000070023F0E80256083C85EA010586EAD7
:1006A000010685FA47F5A3FA87F586FA47F6A5FA13
:1006B00087F68EB9EED1F0BC01F0FF0102F007021F
:1006C00032B110F8013B013A83EA010313B1F8D1CA
:1006D0000020704701387047002D06BF35460338AB
:1006E000073815F0010F07D1013015F4807F02BFE4
:1006F000013015F4C03F0130F0BC0138704700BF35
:10070000844641EA000313F003036DD1403A41D31C
:1007100051F8043B40F8043B51F8043B40F8043BDB
:1007200051F8043B40F8043B51F8043B40F8043BCB
:1007300051F8043B40F8043B51F8043B40F8043BBB
:1007400051F8043B40F8043B51F8043B40F8043BAB
:1007500051F8043B40F8043B51F8043B40F8043B9B
:1007600051F8043B40F8043B51F8043B40F8043B8B
:1007700051F8043B40F8043B51F8043B40F8043B7B
:1007800051F8043B40F8043B51F8043B40F8043B6B
:10079000403ABDD2303211D351F8043B40F8043B0B
:1007A00051F8043B40F8043B51F8043B40F8043B4B
:1007B00051F8043B40F8043B103AEDD20C3205D31B
:1007C00051F8043B40F8043B043AF9D2043208D013
:1007D000D2071CBF11F8013B00F8013B01D30B8885
:1007E00003806046704700BF082A13D38B078DD063
:1007F00010F003038AD0C3F10403D21ADB071CBF35
:1008000011F8013B00F8013B80D331F8023B20F89E
:10081000023B7BE7043AD9D3013A11F8013B00F8D7
:10082000013BF9D20B7803704B7843708B7883705F
:100830006046704708B500F0FFFA1E4B4FF4AA72ED
:100840001A6001211C4800F08CFA1C4A136943F01D
:10085000030313610121084600F0A2FA00F06EFACA
:100860000028FBD001231A464821184600F048FB17
:100870000121022000F094FA192000F04DFA01281D
:10088000FAD1002000F014FB002000F0B9FA042097
:1008900000F0AEFA012000F0BBFA022000F050FB9D
:1008A00000F05EFB0228FBD1002000F0B1FA00F05E
:1008B000B5F908BD003C02401C004000007000403B
:1008C0007047FEE7FEE7FEE7FEE7704770477047B8
:1008D000704708B5FFF7AEFF00F014F94FF4E130B0
:1008E00000F044F808BD000008B5FFF7F2FF0B4820
:1008F00000F0FEFD0A4800F0FBFD0A4800F0F8FD9C
:10090000094800F0F5FD002000F0D0F8074800F09D
:10091000EFFD4FF47A7000F00DF9F4E7842F000832
:100920009C2F0008CC2F0008003000084030000841
:1009300070B50C461646002511E080210A4800F0EB
:10094000E5FC0028F9D014F8011B074800F0DAFC98
:100950004021054800F0DAFC0028F9D00135B54205
:10096000EBDB304670BD00BF00100140F0B583B036
:1009700007461F4B1868002302221946806800F0C2
:10098000BFFD01211B4800F0ECF901214FF440109C
:1009900000F0E7F9684600F0BAFB01268DF8076021
:1009A00000248DF8044002238DF806304FF40073C4
:1009B00000938DF80540104D6946284600F060FB15
:1009C00007220921284600F0ACFBA5F57045234617
:1009D00022463946284600F0D3FB3146284600F02F
:1009E0008CFC3146284600F083FC03B0F0BD00BF0C
:1009F00024000020040044000000024000B583B041
:100A000001214FF4401000F0ACF9684600F07FFB84
:100A100001238DF8073000228DF804208DF8062080
:100A2000009302238DF805306946034800F028FB47
:100A300003B05DF804FB00BF0000024010B582B0B7
:100A4000044601210E4B53F8200000F08AF9684655
:100A500000F05DFB01228DF8072000238DF80430A3
:100A60008DF80620074A32F8142000928DF80530E0
:100A70006946054B53F8240000F002FB02B010BD9C
:100A8000000000200C00002014000020022807D8DD
:100A9000044B33F810301BB1034A52F82020936105
:100AA000704700BF0C00002014000020022807D867
:100AB000044B33F810301BB1034A52F82020D362A4
:100AC000704700BF0C0000201400002008B504206F
:100AD00000F045FB074B1B68074AA2FB03239B0C56
:100AE000064A136013684FF47A7202FB03F3044A58
:100AF000136008BD2000002083DE1B438408002013
:100B00008008002008B5FFF7E1FF0020FFF796FFFF
:100B10000120FFF793FF0220FFF790FF0020FFF76F
:100B2000B5FF0120FFF7B2FF0220FFF7AFFFFFF78D
:100B300065FF08BD1EE0174B1B6803FB00F04FF07C
:100B4000E023586100204FF0E02300229A611A69E7
:100B500042F001021A614FF0E0231B6903F0011318
:100B6000012BF8D04FF0E0231A6922F001021A613C
:100B700000229A6160B13228DDD9064B1B6832220F
:100B800002FB03F34FF0E0225361323880B2DAE720
:100B9000704700BF8008002008B5012000F038F938
:100BA0001B4A136843F001031360194B1B6813F0D1
:100BB000020FFAD0164B9A686FF301029A60144B39
:100BC0009B6813F00C0FFAD1114B1A6822F0867251
:100BD00022F480321A604FF080429A600D4A5A60C7
:100BE000D3F8A02002F4A042C3F8A020D3F8A0209C
:100BF00042F47022C3F8A0204FF41F02DA600020F4
:100C000000F006F9044B4FF000629A6008BD00BF87
:100C1000003802400230030000ED00E010B500F0A3
:100C20009FF901282DD0022836D018B1344B354A0F
:100C30001A601BE0344BD3F8A03013F4804F09D076
:100C4000314BD3F8A03013F4805F03D02C4B2F4AE4
:100C50001A6002E02A4B2B4A1A602B4BD3F8A420CF
:100C6000C2F3024226490B68D3400B60264B9B68B7
:100C7000C3F30313264AD15C214A1368CB401360A7
:100C800010BD1F491F4B0B601F4AD2F8A420C2F3AE
:100C9000C242D3400B60E9E71B4B5A685968C1F365
:100CA000881C5A6802F00F025B68C3F302431949BB
:100CB00011F803E04FEA4C11B1EB0C0064EB0404B3
:100CC000A30143EA90638101091A63EB0403DB008B
:100CD00043EA5173C90011EB0C0C43F100035902B4
:100CE0000EFB02F200234FEA4C2041EADC51FFF7F1
:100CF000A7FA400840EAC170014B1860B6E700BF90
:100D00002000002000127A0000380240006CDC0253
:100D10007030000868300008030C03F1804303F5CD
:100D20000E331A6800F01F00012303FA00F030EAC6
:100D3000020301D0002070470120704710B5002445
:100D40001120FFF7E9FF012804D0B4F5405F01D27C
:100D50000134F5E71120FFF7DFFF012800D0002064
:100D600010BD01290ED0030C03F1804303F50E33AF
:100D70001A6800F01F00012101FA00F022EA0000C9
:100D800018607047030C03F1804303F50E331A68B3
:100D900000F01F0001FA00F01043186070470000D7
:100DA000042821D8DFE800F003090F151B000F4BC2
:100DB0001A6861F300021A6070470C4B1A6861F3FD
:100DC00010421A607047094B1A6861F318621A6082
:100DD0007047064B1A6F61F300021A677047034BA6
:100DE0005A6F61F300025A67704700BF0038024033
:100DF000024B9A6860F38C229A6070470038024078
:100E0000024B9A6860F34F329A6070470038024094
:100E1000012807D0074BD3F8A4206FF30512C3F8BD
:100E2000A4207047034AD2F8A43043F03003C2F83C
:100E3000A43070470038024008B50120FFF7E8FFF2
:100E4000194A136843F001031360174B1B6813F032
:100E5000020FFAD0144B9A686FF301029A60124B9A
:100E60009B6813F00C0FFAD10F4B1A6822F08672B0
:100E700022F480321A604FF080429A600B4A5A6026
:100E8000D3F8A02002F4A042C3F8A020D3F8A020F9
:100E900042F47022C3F8A0204FF41F02DA60002051
:100EA000FFF7B6FF08BD00BF003802400230030064
:100EB00010B504460120FFF7ABFF044B9A6864F3BA
:100EC00007129A600020FFF7A3FF10BD0038024010
:100ED000012809D002280CD008B100207047074B28
:100EE000986E00F003007047044B986EC0F38100C9
:100EF0007047024B986EC0F30110704700380240F3
:100F000010B4844630B90D4CD4F8A00040F48050A1
:100F1000C4F8A000094844686CF3965444604468DF
:100F200061F38E144460416862F3030141604268DA
:100F300063F31242426010BC704700BF00380240A9
:100F400010B504460120FFF763FF044B9A6864F371
:100F500001029A600020FFF75BFF10BD00380240DD
:100F6000024B9868C0F38100704700BF0038024010
:100F700038B50446FFF7F4FF012837D002283FD0E8
:100F800010B1384B236018E0374BD3F8A03013F47E
:100F9000804F08D0344BD3F8A03013F4805F02D0D8
:100FA000324B236001E02F4B23602F4BD3F8A4205A
:100FB000C2F302422368D34023602B4A9368C3F3F1
:100FC00003132B49C95C2368CB4063609168C1F36C
:100FD00082212848415C23FA01F1E1609268C2F362
:100FE000423225498A5CD340A36038BD1D4B236043
:100FF0001D4AD2F8A420C2F3C242D3402360DCE7EA
:10100000194B5A685968C1F3881C5A6802F00F02DC
:101010005B68C3F30243194911F803E04FEA4C112E
:10102000B1EB0C0065EB0505AB0143EA9063810170
:10103000091A63EB0503DB0043EA5173C90011EBA6
:101040000C0C43F1000359020EFB02F200234FEA9D
:101050004C2041EADC51FFF7F3F8400840EAC17048
:101060002060AAE700127A0000380240006CDC021F
:101070009830000880300008883000089030000860
:1010800030B50C88002302E0640801339BB2002CC9
:101090003CD014F0010FF7D005684FEA430C03224F
:1010A00002FA0CF225EA02050560056891F806E0EF
:1010B0000EFA0CFE45EA0E05056045684FF0010E7C
:1010C0000EFA03FE25EA0E054560456891F804E036
:1010D0000EFA03FE45EA0E054560856825EA02051D
:1010E0008560856891F807E00EFA0CFE45EA0E056A
:1010F0008560C56825EA0202C260C26891F805E011
:101100000EFA0CFC42EA0C02C260BDE730BD4FF69D
:10111000FF73036000238371037143710123C37163
:10112000704701F007039B009A40C9080BD0416A41
:101130004FF00F0C0CFA03F321EA03034362436AF6
:101140001A4342627047016A4FF00F0C0CFA03F326
:1011500021EA03030362036A1A4302627047042808
:1011600006D04FF0E022136923F0040313617047A7
:101170004FF0E022136943F004031361704700004D
:101180002DE9F04184B00546884616461F4668465C
:10119000FFF7EEFE4E4B9D422ED04E4B9D423FD070
:1011A0004D4B9D4250D04D4B9D4261D0039C04EB72
:1011B00084046400B4FBF8F1494BA3FB0123DB0872
:1011C00003EB8303A1EB4303042B62D8444BA3FB43
:1011D0000131C90889B2AB6861F30F03AB60022E1D
:1011E0005DD0002E6AD1EB686FF31C73EB60EB6887
:1011F0006FF30C33EB605AE00020FFF769FE08B98B
:10120000029CD4E7012809D0032833D0354BD3F80A
:10121000A03013F4805F30D1334CC8E7009CC6E7A0
:101220000120FFF755FE08B9039CC0E7012809D04B
:10123000032824D02B4BD3F8A03013F4805F21D1A6
:10124000294CB4E7009CB2E70220FFF741FE08B941
:10125000039CACE7012809D0032815D0214BD3F813
:10126000A03013F4805F12D11F4CA0E7009C9EE7D2
:10127000029C9CE74FF4004499E71C4C97E74FF41D
:10128000004494E7194C92E74FF400448FE7174C61
:101290008DE7134BA3FB0131C90801319AE7EB68D5
:1012A00043F08053EB60EB686FF30C33EB602B691A
:1012B00067F30D332B6104B0BDE8F081EB686FF389
:1012C0001C73EB60EB6843F48053EB60EFE700BF07
:1012D000001001400044004000480040001401405C
:1012E000CDCCCCCC0038024000127A00006CDC027D
:1012F000C36861F34D33C3607047C36861F3C303D0
:10130000C3607047C1F308014160704703680B4236
:1013100001D001207047002070470000002103E049
:101320000B4B5B58435004310A480B4B42189A420E
:10133000F6D30A4A02E0002342F8043B084B9A42E3
:10134000F9D3FFF729FC00F00FF8FFF7CDFA70474B
:10135000C430000800000020640800206408002059
:10136000D4080020FEE7000070B50D4E0D4D761B31
:10137000B61006D0002455F8043B01349847A64225
:10138000F9D1094E094D761B01F0F0FDB61006D0DB
:10139000002455F8043B01349847A642F9D170BDAA
:1013A000B8300008B8300008C0300008B830000875
:1013B000830730B548D0541E002A3FD0CAB2034636
:1013C00001E0013C3AD303F8012B9D07F9D1032C2E
:1013D0002DD9CDB245EA05250F2C45EA054536D96C
:1013E000A4F1100222F00F0C03F1200EE6444FEAA4
:1013F000121C03F1100242E9045542E90255103271
:101400007245F8D10CF1010214F00C0F03EB02123B
:1014100004F00F0C13D0ACF1040323F003030433E6
:10142000134442F8045B9342FBD10CF003042CB14B
:10143000CAB21C4403F8012B9C42FBD130BD644668
:101440001346002CF4D1F9E703461446BFE71A46C9
:10145000A446E0E770B5054688B008460C46FFF79D
:101460008FF8224EAA6B059001214318CDE9066141
:1014700004A8022104940393AC680190029122B362
:10148000636E13F0010FB4F90C309AB201D19805D4
:1014900025D5910406D4626E43F4005322F4005221
:1014A000A3816266284601AA214600F0D3FB636E41
:1014B000002814BF4FF0FF350A25DA0702D4A389AC
:1014C0009B0506D5284608B070BD284600F0C4F933
:1014D000D6E7A06D00F05CFD284608B070BDA06D99
:1014E00000F054FDB4F90C309AB2D2E7AC300008E9
:1014F000024B01461868FFF7ADBF00BF2400002073
:101500002DE9F043694CD4F8008083B004460E46C0
:1015100017461D46B8F1000F03D0D8F83830002B1D
:1015200077D0022F05D0012F00F2AC80002DC0F241
:10153000A980636EDA0752D52146404600F058F97B
:10154000216B41B104F14003994202D0404600F0C2
:101550007BFA00232363B4F90CC000231CF0800F36
:10156000A361636064D12CF44A6C2CF0030C022F4D
:10157000A4F80CC06AD001AB6A462146404600F090
:1015800079FDA3891843A081002D2FD0002E2ED0E5
:10159000D8F83830002B38D0009B2660AB42B4F925
:1015A0000C301CBF43F40063A381012F04BF43F040
:1015B0000103A3819AB213F00803C4E904652CD097
:1015C000D1075DD56D42A561656E002315F001055B
:1015D000A36027D00025284603B0BDE8F083A38987
:1015E0009B05A9D4A06D00F0D1FCA5E7009D28467D
:1015F00000F070FD0646002847D0A38943F0800321
:10160000A381D8F83830002BC6D1404600F024F929
:10161000C2E7404600F020F983E7A360656E15F04D
:101620000105D7D1930524D5284603B0BDE8F08342
:101630002169404600F008FAB4F90CC02CF44A6C59
:101640002CF0030C022FA4F80CC094D1002500222A
:1016500004F14303A2600122C4E904322360636EF3
:101660004CF0020CD807A4F80CC0DDD41CF4007FA9
:10167000DAD1A06D00F08CFC284603B0BDE8F08301
:10168000A560CBE74FF0FF35CEE7DDF80090A94528
:1016900004D0484600F01EFD064620B9B4F90CC03F
:1016A0004FF0FF35D3E74D46A7E700BF24000020E9
:1016B000024B13B1024800F005B87047000000006B
:1016C0007D190008002301461A46184601F006BBA2
:1016D000B1F90C20F8B50C461107074642D46368EF
:1016E00042F40062002BA28159DDA56A002D54D07E
:1016F00000233E683B6093B212F4805253D1E169FB
:1017000001233846A847421C63D0A389A56A5B071A
:1017100005D56368C01A236B0BB1E36BC01AE1698E
:10172000024600233846A847411C3ED13B68002BA7
:101730003BD01D2B01D0162B52D1A38922692260E8
:1017400023F4006300216160A381216B3E6021B31B
:1017500004F14003994202D0384600F075F90020A8
:101760002063F8BD2669C6B193B2256826609A0742
:101770000CBF63690023AD1BA3600CE0D4F824C048
:10178000E1692B4632463846E047B0F1000CA5EB44
:101790000C05664416DD002DF0DC0020F8BDE36B7F
:1017A000002BA2DCF9E7206DB1E7B4F90C30226917
:1017B000226023F40063A3810022DB046260C4D5AD
:1017C0002065C2E7A38943F040034FF0FF30A381B7
:1017D000F8BD3B68002B98D01D2B06D0162B04D0EB
:1017E000A38943F04003A381F8BD3E60D5E700BF65
:1017F00038B50C46054608B1836BA3B1B4F90C00AB
:10180000B8B1636EDB0701D4810515D528462146A2
:10181000FFF75EFF636EDA07054602D4A3899B05D6
:101820000ED5284638BD00F017F8B4F90C00002892
:10183000E7D10546284638BDA06D00F0A7FBE5E7D7
:10184000A06D00F0A5FB284638BD00BF014900F09F
:1018500075BB00BF8D2D00082DE9F0478246394841
:1018600000F094FBDAF83840002C66D1DAF8045026
:10187000354ACAF83C200323CAE9B843DFF8CC90C4
:10188000DFF8CC80334F344E04230AF53B72CAF89C
:10189000E8222146C5E90243C5E90044C5E90444FC
:1018A0006C660822AC6105F15C00FFF781FDC5E9BB
:1018B0000759C5E90987EE6205F1580000F062FB9F
:1018C000DAF80850254BEB602146C5E90044C5E92C
:1018D00004446C66AC60AC61082205F15C00FFF763
:1018E00067FDC5E90759C5E90987EE6205F15800AA
:1018F00000F048FBDAF80C50194BEB602146C5E9C3
:101900000044C5E904446C66AC60AC61082205F192
:101910005C00FFF74DFD05F15800C5E90759C5E921
:101920000A76C5F8248000F02DFB0123CAF8383070
:101930000448BDE8F04700F02BBBBDE8F047014884
:1019400000F026BB940800204D180008512B000819
:10195000752B0008B52B0008D52B000809000100E5
:1019600012000200014800F011BB00BF90080020E7
:10197000014800F00DBB00BF9008002038B5084BAF
:10198000084D5B1B9C1007D0043B1D44013C55F8DF
:1019900004399847002CF9D1BDE8384001F0ECBA81
:1019A000C4300008C0300008F8B5244F0C46064685
:1019B00000F0C4FEBA685568C4F57E630F3325F0A5
:1019C00003052B4423F47F6323F00F03A3F5805416
:1019D000B4F5805F07DB0021304601F0A7F8BB6853
:1019E0002B44984204D0304600F0AEFE0020F8BDF3
:1019F0006142304601F09AF801300DD0104ABB68C0
:101A00002D1B45F001055D60136830461B1B1360FC
:101A100000F09AFE0120F8BD0021304601F086F862
:101A2000BA68831A0F2BDEDD43F001035360054BC8
:101A300003491B68C01A0860D5E700BF54040020A2
:101A4000980800205C080020002961D0F8B50C46F9
:101A5000064600F073FE54F8042C7B4FA4F10805F1
:101A600022F0010105EB010CB868DCF80430604598
:101A700023F0030300F08B80D207CCF8043032D47B
:101A800054F8082CAD1A1144AA6807F108008242E4
:101A90006AD00CEB0304D4F804E0EC68D4601EF0C8
:101AA000010FA26000F0978041F001036B60CCF859
:101AB0000010B1F5007F35D27A68CB0848090121C2
:101AC000013381401143796007EBC30257F83310AB
:101AD000083AC5E9021247F83350CD603046BDE8F8
:101AE000F84000F031BE0CEB03025268D00710D46E
:101AF000194407F10800DCF80830834273D0DCF8A1
:101B00000C20DA60936041F001036B606950D0E70C
:101B1000704741F00103B1F5007F44F8043CCCF874
:101B20000010C9D3B1F5206F4FEA512348D28B0979
:101B300003F1390003F13802C300F818FB580838E4
:101B4000984259D05A6822F003028A4202D99B680F
:101B50009842F7D1D868C5E902308560DD6030462B
:101B6000BDE8F84000F0F0BD0CEB03025268D2076C
:101B700063D40B44DCE90212CA60916043F00102B5
:101B80006A603046EB50BDE8F84000F0DDBD0B4424
:101B9000D10707D454F8082CAD1A1344D5E9021222
:101BA000CA60916043F001026A60284ABD60126811
:101BB0009A4293D8264B30461968FFF7F5FE8DE719
:101BC000142B0AD9542B1FD80B0B03F16F0003F110
:101BD0006E02C300B1E719448DE703F15C0003F125
:101BE0005B02C300A9E741F00103C7E90455C5E959
:101BF00002006B60695071E779689210012404FA61
:101C000002F20A437A60A6E7B3F5AA7F06D8CB0BA7
:101C100003F1780003F17702C3008EE740F25452DB
:101C2000934206D88B0C03F17D0003F17C02C300C4
:101C300083E74FF47E737E227FE741F001036B6000
:101C4000CCF800104AE700BF5404002060080020D0
:101C5000C80800209368002B00F081802DE9F04F28
:101C6000B1F90C300C461907804683B0174698B27C
:101C700023D523690BB310F002033D682BD04FF03E
:101C8000000ADFF8B4B256465E453346524628BFD6
:101C90005B464046002E4FD0E169D4F824C0E047AF
:101CA000002852DDBB681B1A8244361ABB60002B29
:101CB000EAD1002003B0BDE8F08F2146404600F095
:101CC000A3FF002840F03481B4F90C303D6898B28D
:101CD00010F00203D3D110F0010942D14E463EB3B9
:101CE0008205D4F808B040F18180B3455A4600F22D
:101CF000B18010F4906F40F0BE8020680192494698
:101D000000F0A0FCA3682168019AA3EB0B030A442E
:101D1000B246A36022600026B868A0EB0A00D14456
:101D2000B8600028C5D0B4F90C0080B2002ED7D11D
:101D3000D5E900960835D2E7D5E900A60835A3E72E
:101D400021464046FFF754FD80B3B4F90C3043F010
:101D500040034FF0FF30A38103B0BDE8F08F0020B7
:101D600070471E46AA46994618461D4656B388B384
:101D70004A46D4E904132068B24228BF324688425A
:101D800005D9A16803EB010B5A4500F3A7809342E4
:101D900064DCE169D4F824C02A464046E047B0F14B
:101DA000000BD2DDB9EB0B09CAD00120BB68A3EB55
:101DB0000B035D44A6EB0B06BB60002B3FF479AF31
:101DC000002ED4D10AF1080353E902569A4608338B
:101DD000002EF9D032460A212846FEF741FC0028A1
:101DE00000F09D800130A0EB0509C1E72068236960
:101DF000984217D86369B34214D86FF00042B242D8
:101E000028BF3246E16992FBF3F2D4F824C002FB0A
:101E100003F340464A46E047B0F1000A95DDA6EBE1
:101E20000A0679E7B345DA4628BFB2465246494624
:101E300000F008FCA3682268A3EB0A035244A360E5
:101E40002260002BEBD121464046FFF7D1FC002851
:101E5000E5D07AE72068B34632464FE7294601923B
:101E600000F0F0FB019AA3689B1AA3602368134457
:101E70002360934696E723682169A3EB010B63690E
:101E800003EB430A0AEBDA7A0BF101034FEA6A0A21
:101E900033445345524684BF9A46524643052CD597
:101EA0001146404600F01EF900283BD05A462169F1
:101EB0000190FEF725FCA289019B22F4906242F07A
:101EC0008002A28103EB0B002361AAEB0B03C4F891
:101ED00014A0A3602060B34632460FE729465A4655
:101EE00000F0B0FB23685B44236021464046FFF7C7
:101EF0007FFC00283FF456AF27E7404600F02AFC5D
:101F000003460028DED121694046FFF79DFDB4F964
:101F10000C300C2223F08003C8F8002017E7721C55
:101F2000914626E70C22B4F90C30C8F800200EE7E1
:101F30004FF0FF30BEE600BF00FCFF7F2DE9F84305
:101F40000746884600F538764FF00009D6E9015477
:101F5000013D11D4A389012B05F1FF3508D9B4F94E
:101F60000E300133214603D03846C04749EA000904
:101F70006B1C04F16804EDD13668002EE6D14846AA
:101F8000BDE8F883704700BF704700BF704700BFCF
:101F9000704700BF2DE9F0418B890C46990796B038
:101FA00008D504F143030122C4E90432236016B0CA
:101FB000BDE8F081B4F90E100029064627DB6A4619
:101FC00000F04AFF002821DB019D05F47045A5F5CE
:101FD0000055B5FA85F54FF480686D094FF4006738
:101FE0004146304600F07EF8B4F90C30F0B1204A9A
:101FF000F26343F08003C4F81480A3812060206161
:1020000035BB3B43A38116B0BDE8F081A38913F033
:10201000800519D04FF040084146304600F062F884
:102020000025B4F90C302F460028E0D19A05BED423
:1020300023F0030304F1430243F002030121C4E946
:102040000421A3812260B2E74FF480682F46C7E7DE
:10205000B4F90E10304600F015FF10B9B4F90C3089
:10206000CFE7A38923F0030343F001031BB2C8E7C2
:102070004D18000870B50C46B1F90E10002996B045
:1020800015461E4614DB6A4600F0E6FE00280FDB0C
:10209000019A02F47042A2F50052B2FA82F24FF4B1
:1020A000806352094FF4006032602B6016B070BD3F
:1020B000B4F90C10002311F08000336004D04022EA
:1020C00018462A6016B070BD4FF480632B6016B0BE
:1020D00070BD00BF024B0146186800F003B800BF96
:1020E000240000202DE9F04F01F10B06162E83B0DD
:1020F000044624D8102900F2BA8000F01FFB1026F5
:1021000018220220B54F3A44A2F1080153688B42CD
:1021100000F0BA805A68D96822F003021A449D6818
:10212000E9608D60516841F001012046516003F182
:10213000080500F009FB284603B0BDE8F08F36F033
:10214000070600F19480B14200F2918000F0F6FAA7
:10215000B6F5FC7FC0F09A81730A00F08F80042BE3
:1021600000F26F81B30903F1390003F1380CC300A9
:102170009A4F3B44A3F108055B689D4206D10CE0F1
:10218000002980F22781DB689D4206D05A6822F040
:102190000302911B0F29F3DD60463D69DFF840C261
:1021A00065457CD06A6822F00302931B0F2B00F375
:1021B0007B81002BC7E904CC80F26C81B2F5007FF3
:1021C00080F01A81D308796801334FEA521E012248
:1021D00002FA0EF20A4357F833E0C5F808E007EBBD
:1021E000C3010839E9607A6047F83350CEF80C50E3
:1021F000831001219940914257D8114206D120F015
:1022000003004900114200F10400FAD007EBC009B5
:102210004D468646D5F80C80454508D11DE1002B7A
:1022200080F22481D8F80C80454500F01681D8F85A
:10223000042022F00302931B0F2BF0DD2046D8E987
:10224000025408EB060146F00106C8F80460EC6091
:10225000A56043F00104C7E90411C1E902CC4C6058
:1022600048F8023000F070FA08F1080502E00C238B
:1022700023600025284603B0BDE8F08F4FF40073BB
:1022800040204FF03F0C73E7D3689A4208BF0230FA
:102290007FF440AF3D69DFF848C1654582D17A6877
:1022A0008310012199409142A7D9BD686B6823F042
:1022B00003094E4503D8A9EB06030F2B7ADCDFF8A0
:1022C00024B1494BDBF800201B680132334405EB95
:1022D000090A00F0338103F580530F3323F47F683C
:1022E00028F00F084146204600F020FC411C024621
:1022F00000F0F380824500F2EE803C4B19684144C7
:102300001960084600F04E81DBF80010019301319E
:102310001BBFA2EB0A0A5044CBF80020186012F051
:10232000070B00F01781CBF108010A44CBF580516F
:1023300090440831A1EB0801C1F30B0A5146204635
:10234000009200F0F3FB421CDDE9002300F04F8116
:10235000801A00EB0A081968BA6048F0010051447D
:10236000BD425060196000F02981B9F10F0F40F2B1
:1023700027816868A9F10C0C2CF0070C00F0010013
:1023800040EA0C0068604FF0050E05EB0C00BCF154
:102390000F0FC0E901EE00F2328150681546144B70
:1023A0001A688A4238BF1960124B1A688A4238BFCD
:1023B000196094E0AA1943F0010346F001066E602B
:1023C0002046BA60536000F0BFF90835284603B0D4
:1023D000BDE8F08FD9681A44A1E600BF540400207C
:1023E0005C0400205C080020C80800209808002039
:1023F000C0080020C4080020B2F5206F4FEA522325
:1024000063D3142B00F2B78003F15C01C9005B3386
:1024100007EB010E7958AEF1080E8E4500F0918061
:102420004B6823F00303934202D989688E45F7D1A4
:10243000D1F80CE07A68C5E9021ECEF80850CD60EC
:10244000D6E6142B59D9542B00F29D80330B03F19F
:102450006F0003F16E0CC3008AE60EF1010E1EF050
:10246000030F05F108057FF4D5AE51E0424445461F
:102470005368D8F80C1043F00103536055F8083F37
:102480002046D9608B6000F05FF9F3E6F00806F1B2
:10249000080237E62A442046536843F0010353609C
:1024A000083500F051F9E5E6A919204646F0010685
:1024B00043F001046E60C7E90411C1E902CC4C602D
:1024C000AB5000F041F90835D4E6930903F1390126
:1024D000C90038339CE7BD425FD0BD68686820F012
:1024E00003084645A8EB060302D80F2B3FF762AF5F
:1024F000204600F029F90025BCE603F15C0003F159
:102500005B0CC30034E659F808394B4540F096801F
:1025100010F0030F00F1FF30F5D17B6823EA0103CF
:102520007B60490099423FF6C0AE19B9BDE649004B
:102530000EF1040E1942FAD0704667E603F1100856
:10254000D0E69A104FF001087B6808FA02F21A43AD
:102550007A6070E702EB08014942C1F30B0A514669
:102560002046009200F0E2FA431CDDE900237FF4EC
:10257000EFAEDA46EFE6542B25D8130B03F16F01CB
:10258000C9006E3344E7B3F5AA7F25D8F30B03F1F6
:10259000780003F1770CC300EAE5294B1868404442
:1025A0001860B1E6CAF30B0CBCF1000F7FF4ACAEBF
:1025B000BD68C84448F001006860F0E61546EEE6E4
:1025C0000123536094E7B3F5AA7F23D8D30B03F11B
:1025D0007801C90077331BE740F25452934223D865
:1025E000B30C03F17D0003F17C0CC300C0E5ABF13B
:1025F000080BD844A8EB02084FF0000AABE605F13F
:10260000080120460093FFF71FFABD68009B686829
:102610001968C4E640F254518B420BD8930C03F175
:102620007D01C9007C33F3E64FF47E737F204FF0C9
:102630007E0C9DE54FF47E717E23E9E67B6870E7B2
:102640009808002088420DD98B1883420AD900EBE4
:10265000020CBAB1624613F801CD02F801CD9942DD
:10266000F9D170470F2A0ED8034602F1FF3C4AB158
:102670000CF1010C013B8C4411F8012B03F8012FE4
:102680006145F9D1704740EA01039B0750D1A2F19F
:10269000100370B501F1200C23F00F0501F1100EAD
:1026A00000F11004AC441B095EF8105C44F8105CA7
:1026B0005EF80C5C44F80C5C5EF8085C44F8085C5E
:1026C0005EF8045C44F8045C0EF1100EE64504F17B
:1026D0001004E9D1013312F00C0F01EB031102F0E9
:1026E0000F0400EB031327D0043C24F003064FEA49
:1026F000940C1E441C1F8E465EF8045B44F8045F75
:10270000B442F9D10CF1010402F0030203EB84039B
:1027100001EB840102F1FF3C4AB10CF1010C013BD9
:102720008C4411F8012B03F8012F6145F9D170BDDC
:1027300002F1FF3C03469BE72246EBE70148FFF727
:1027400025BC00BF8C0800200148FFF721BC00BF5A
:102750008C0800202DE9F84F1746002900F09880DA
:1027600007F10B0580460C46FFF7E8FF162D5DD8F4
:1027700010252A46AF425ED854F8041C21F0030607
:102780009642A4F1080962DABC4BD3F808C009EB01
:102790000600844500F09780D0F804C02CF00103B7
:1027A00003445B68DB0768D42CF0030C06EB0C03D6
:1027B000934247DACB0710D454F8083CA9EB030A3C
:1027C000DAF8043023F003018C44B444944580F2D9
:1027D00011817318934280F2E88039464046FFF732
:1027E00081FC0746E0B154F8043C23F001034B445C
:1027F000A0F10802934200F0D280321F242A00F296
:10280000F580132A00F2AC80034622461168196055
:102810005168596092689A6021464046FFF714F962
:102820004046FFF791FF3846BDE8F88F25F00705D1
:10283000002D2A469EDA0C23C8F8003000273846BF
:10284000BDE8F88F1E46D0E90223D3609A60731B5F
:102850000F2B22D8D9F8043003F0010333434E4440
:10286000C9F80430736843F001037360404627469B
:10287000FFF76AFF3846BDE8F88FC907ADD454F8B2
:10288000083CA9EB030ADAF8041021F00301A0E7E1
:10289000BDE8F84F1146FFF725BCD9F8041001F048
:1028A00001012943C9F8041009EB05014E4443F026
:1028B00001034B60736843F00103083173604046C5
:1028C000FFF7C2F8D2E7DCF8040020F0030B06EBB8
:1028D0000B0C05F1100084454DDAC9073FF57DAFBB
:1028E00054F8081CA9EB010ADAF8041021F00301DE
:1028F0008B44B34458453FF76CAF5746DAF80C1099
:1029000057F8080F321F242AC160886000F2DB806C
:10291000132A40F2D6802168CAF808106168CAF804
:102920000C101B2A00F2DF8008340AF11002216823
:10293000116061685160A16891600AEB0501ABEB21
:10294000050242F0010299604A60DAF8043003F0AF
:1029500001031D434046CAF80450FFF7F5FE6EE739
:1029600023680360636843601B2A68D804F1080287
:1029700000F108034AE709EB05029A60ACEB050396
:1029800043F00103536054F8043C03F001031D437A
:10299000404644F8045CFFF7D7FE27464FE750F85F
:1029A000043C23F003031E4451E75746DAF80C10A9
:1029B00057F8080F321F242AC16088604CD8132AA8
:1029C00048D92168CAF808106168CAF80C101B2A97
:1029D00056D808340AF110021E4623681360636853
:1029E0005360A3689360D1463C4630E72146FFF729
:1029F00029FE11E7D0E902135746CB60996057F8DA
:102A0000081FDAF80C30CB60321F242A99602DD8C9
:102A1000132A29D92368CAF808306368CAF80C3029
:102A20001B2A42D808340AF1100322681A6062682F
:102A30005A60A2689A606646D1463C4607E7A3689A
:102A40008360E368C360242A26D004F1100200F1F9
:102A50001003DBE63A46BFE7214638461E46D1461C
:102A6000FFF7F0FD3C46F2E63B46DEE721463846FE
:102A70006646D146FFF7E6FD3C46E8E654040020F2
:102A8000A168CAF81010E168CAF81410242A20D0EE
:102A900010340AF118029FE72369036161694161FB
:102AA00004F1180200F11803B0E6A368CAF8103068
:102AB000E368CAF81430242A21D010340AF118032C
:102AC000B3E73A4633E721463846FFF7BBFD164BDE
:102AD00033E72269CAF818206269CAF81C20183442
:102AE0000AF1200278E7A168CAF81010E168CAF874
:102AF0001410242A0DD010340AF1180217E72369A4
:102B0000CAF818306369CAF81C3018340AF1200377
:102B10008BE72269CAF818206269CAF81C201834A9
:102B20000AF1200203E700BF5404002038B5074D26
:102B30000022044608462A6000F00AFA431C00D02E
:102B400038BD2B68002BFBD0236038BDCC0800209B
:102B500010B50C46B1F90E1000F0BCF9002803DBEB
:102B6000236D0344236510BDA38923F48053A381FF
:102B700010BD00BF2DE9F0410C46B1F90C101F4605
:102B8000CB05054616460BD421F48051A1813B4666
:102B9000B4F90E1032462846BDE8F04100F01EB8E8
:102BA000B4F90E100223002200F07EF9B4F90C10E3
:102BB000EAE700BF10B50C46B1F90E1000F074F949
:102BC000A389421C0EBF23F4805343F48053206535
:102BD000A38110BDB1F90E1000F0C6B838B50C468F
:102BE000084D8446114620461A4600232B60644651
:102BF000FDF79EFE431C00D038BD2B68002BFBD098
:102C0000236038BDCC08002038B5334B1B6805461F
:102C10000C460BB19A6B12B3B4F90C3018079AB288
:102C200025D5216900292DD012F0010007D0002000
:102C3000A06060694042A06139B1002038BD9507AD
:102C400058BF6069A0600029F7D1120658BF084636
:102C5000F4D543F04003A3814FF0FF3038BD184650
:102C6000FEF7FAFDB4F90C3018079AB2D9D4D106A0
:102C70002AD5520714D4216943F00803A3819AB2DC
:102C80000029D1D102F42070B0F5007FCCD02146CC
:102C90002846FFF77FF9B4F90C3021699AB2C3E7EF
:102CA000216B51B104F14002914204D02846FEF755
:102CB000CBFEB4F90C300022226321690022C4E962
:102CC000001223F02403D7E7092243F040032A60CF
:102CD0004FF0FF30A38138BD240000202DE9F047DC
:102CE000DFF87CA00646DAF8000098460F469146C9
:102CF000FFF74CF91B4B1B68D3F8484124B36568B8
:102D00001F2D26DC5EB96B1C0235DAF8000063600B
:102D100044F82570FFF73CF90020BDE8F08704EB8C
:102D200085010123C1F88890D4F88821AB401A436B
:102D3000022EC4F88821C1F80881E4D1D4F88C218E
:102D40001343C4F88C31DEE703F5A674C3F8484199
:102D5000D5E7DAF80000FFF71BF94FF0FF30DCE7AA
:102D600050040020A830000838B5074D0022044662
:102D700008462A6000F0C4F8431C00D038BD2B6818
:102D8000002BFBD0236038BDCC08002070B5002993
:102D90004BD006460C4610B1836B002B48D0636EB7
:102DA000D80734D5B4F90C30002B3ED0214630463C
:102DB000FEF78EFCE36A054633B1E1693046984779
:102DC0000028B8BF4FF0FF35A3891A063BD4216B0A
:102DD00041B104F14003994202D03046FEF734FE7F
:102DE00000232363616C21B13046FEF72DFE0023E2
:102DF0006364FEF7B7FD636E0022DB07A28127D56F
:102E0000A06DFFF7C1F8FEF7B3FD284670BDA3899A
:102E10009905CBD4A06DFFF7B9F8B4F90C30002BAD
:102E2000C4D1656E15F0010508D00025284670BD97
:102E3000FEF712FD636ED807B4D4E8E7A06DFFF784
:102E4000A7F8284670BD21693046FEF7FDFDBEE7B4
:102E5000A06DFFF79DF8D3E770B50C46084D03460B
:102E60000026204611461C462E6000F051F8431CF7
:102E700000D070BD2B68002BFBD0236070BD00BF5D
:102E8000CC08002038B5074D0022044608462A60C9
:102E900000F046F8431C00D038BD2B68002BFBD057
:102EA000236038BDCC08002038B50C46084D844658
:102EB000114620461A4600232B60644600F038F87D
:102EC000431C00D038BD2B68002BFBD0236038BDDD
:102ED000CC08002038B50C46084D844611462046E3
:102EE0001A4600232B60644600F02AF8431C00D0E9
:102EF00038BD2B68002BFBD0236038BDCC080020E8
:102F0000024B58221A604FF0FF307047CC08002067
:102F1000024B58221A604FF0FF307047CC08002057
:102F2000024B58221A600020704700BFCC080020D6
:102F3000024B58221A604FF0FF307047CC08002037
:102F4000024B58221A604FF0FF307047CC08002027
:102F5000044A05491368002B08BF0B46184410604B
:102F600018467047D0080020D8080020F8B500BFE8
:102F7000F8BC08BC9E467047F8B500BFF8BC08BC5A
:042F80009E467047B2
:102F840048617264776172655F496E6974205B6F32
:102F94006B5D200D0000000061745F7374617274D6
:102FA4005F663432336120626F61726420746573CA
:102FB40074696E6720323032342D30382D3230202F
:102FC4005B6F6B5D0D00000061745F7374617274FC
:102FD4005F663432336120626F61726420627920EB
:102FE400636F646572656E642074656D706C617482
:102FF40065205B6F6B5D200D0000000061745F73E2
:10300400746172745F663432336120626F6172641A
:1030140020636C696F6E2D61726D6763632D636DE0
:10302400616B652D70796F63642074656D706C617C
:103034007465205B6F6B5D200D00000061745F732D
:10304400746172745F663432332020617433325F8A
:103054006C65645F746F67676C65205B6F6B5D2084
:103064000D00000001020408102000000000000010
:103074000000000001020304060708090000000024
:103084000102030400000000010203040102040819
:1030940010200000000000000000000001020304F2
:0C30A40006070809280000200A000000B0
:0830B000C0D1FF7F0100000008
:0830B800B11600082502000812
:0430C0000102000801
:1030C4000300300003003000030030000020004003
:1030D40000800000000C0240000C0240000C024082
:1030E40000127A00280000200000000014030020D1
:1030F4007C030020E4030020000000000000000026
:1031040000000000000000000000000000000000BB
:1031140000000000000000000000000000000000AB
:10312400000000000000000000000000000000009B
:10313400000000000000000000000000000000008B
:10314400000000000000000000000000000000007B
:10315400000000000000000000000000000000006B
:10316400000000000000000000000000000000005B
:10317400000000000000000000000000000000004B
:10318400000000000000000000000000000000003B
:1031940001000000000000000E33CDAB34126DE6D8
:1031A400ECDE05000B000000000000000000000041
:1031B400000000000000000000000000000000000B
:1031C40000000000000000000000000000000000FB
:1031D40000000000000000000000000000000000EB
:1031E40000000000000000000000000000000000DB
:10351400880800200000000000000000540400207F
:10352400540400205C0400205C0400206404002097
:10353400640400206C0400206C0400207404002047
:10354400740400207C0400207C04002084040020F7
:10355400840400208C0400208C04002094040020A7
:10356400940400209C0400209C040020A404002057
:10357400A4040020AC040020AC040020B404002007
:10358400B4040020BC040020BC040020C4040020B7
:10359400C4040020CC040020CC040020D404002067
:1035A400D4040020DC040020DC040020E404002017
:1035B400E4040020EC040020EC040020F4040020C7
:1035C400F4040020FC040020FC0400200405002076
:1035D400040500200C0500200C0500201405002023
:1035E400140500201C0500201C05002024050020D3
:1035F400240500202C0500202C0500203405002083
:10360400340500203C0500203C0500204405002032
:10361400440500204C0500204C05002054050020E2
:10362400540500205C0500205C0500206405002092
:10363400640500206C0500206C0500207405002042
:10364400740500207C0500207C05002084050020F2
:10365400840500208C0500208C05002094050020A2
:10366400940500209C0500209C050020A405002052
:10367400A4050020AC050020AC050020B405002002
:10368400B4050020BC050020BC050020C4050020B2
:10369400C4050020CC050020CC050020D405002062
:1036A400D4050020DC050020DC050020E405002012
:1036B400E4050020EC050020EC050020F4050020C2
:1036C400F4050020FC050020FC0500200406002071
:1036D400040600200C0600200C060020140600201E
:1036E400140600201C0600201C06002024060020CE
:1036F400240600202C0600202C060020340600207E
:10370400340600203C0600203C060020440600202D
:10371400440600204C0600204C06002054060020DD
:10372400540600205C0600205C060020640600208D
:10373400640600206C0600206C060020740600203D
:10374400740600207C0600207C06002084060020ED
:10375400840600208C0600208C060020940600209D
:10376400940600209C0600209C060020A40600204D
:10377400A4060020AC060020AC060020B4060020FD
:10378400B4060020BC060020BC060020C4060020AD
:10379400C4060020CC060020CC060020D40600205D
:1037A400D4060020DC060020DC060020E40600200D
:1037B400E4060020EC060020EC060020F4060020BD
:1037C400F4060020FC060020FC060020040700206C
:1037D400040700200C0700200C0700201407002019
:1037E400140700201C0700201C07002024070020C9
:1037F400240700202C0700202C0700203407002079
:10380400340700203C0700203C0700204407002028
:10381400440700204C0700204C07002054070020D8
:10382400540700205C0700205C0700206407002088
:10383400640700206C0700206C0700207407002038
:10384400740700207C0700207C07002084070020E8
:10385400840700208C0700208C0700209407002098
:10386400940700209C0700209C070020A407002048
:10387400A4070020AC070020AC070020B4070020F8
:10388400B4070020BC070020BC070020C4070020A8
:10389400C4070020CC070020CC070020D407002058
:1038A400D4070020DC070020DC070020E407002008
:1038B400E4070020EC070020EC070020F4070020B8
:1038C400F4070020FC070020FC0700200408002067
:1038D400040800200C0800200C0800201408002014
:1038E400140800201C0800201C08002024080020C4
:1038F400240800202C0800202C0800203408002074
:10390400340800203C0800203C0800204408002023
:10391400440800204C0800204C080020FFFFFFFF53
:04392400000002009D
:040000050800131DBF
:00000001FF
