:020000040800F2
:10000000F808002095020008B31B0008AB1B00088D
:10001000AF1B0008A51B0008551C000800000000CD
:10002000000000000000000000000000B71B0008F6
:10003000A91B000800000000B51B0008B91B000840
:10004000AF020008AF020008AF020008AF020008CC
:10005000AF020008AF020008AF020008AF020008BC
:10006000AF020008AF020008AF020008AF020008AC
:10007000AF020008AF020008AF020008AF0200089C
:10008000AF020008AF020008AF020008AF0200088C
:10009000AF020008AF020008AF020008AF0200087C
:1000A000AF020008AF020008AF020008AF0200086C
:1000B000AF020008AF020008AF020008AF0200085C
:1000C000AF020008AF020008AF020008AF0200084C
:1000D000AF020008AF0200082D1C0008AF020008A4
:1000E000AF020008AF020008AF020008AF0200082C
:1000F000AF020008AF020008AF020008AF0200081C
:10010000AF020008AF020008AF020008AF0200080B
:10011000AF020008AF020008AF020008AF020008FB
:10012000AF020008AF020008AF020008AF020008EB
:10013000AF020008AF020008AF020008AF020008DB
:1001400000000000000000000000000000000000AF
:10015000AF020008AF020008AF020008AF020008BB
:10016000AF020008AF020008AF020008AF020008AB
:10017000AF020008AF020008AF020008AF0200089B
:10018000AF02000800F002F800F075F80AA090E84D
:10019000000C82448344AAF10107DA4501D100F042
:1001A0006AF8AFF2090EBAE80F0013F0010F18BF9A
:1001B000FB1A43F00103184768330000883300003E
:1001C000103A24BF78C878C1FAD8520724BF30C883
:1001D00030C144BF04680C60704700000023002455
:1001E00000250026103A28BF78C1FBD8520728BF47
:1001F00030C148BF0B607047662903F02D80652928
:1002000003F02A80672903F02780612903F0268004
:10021000692900F0E380642900F0E080752900F08E
:10022000DD806F2900F07481782900F099810368DE
:10023000DB0928BF41F08001632900F05C87732946
:1002400000F06187E32900F07F87002070471FB529
:1002500002F0FDFF00F0ACFF04000020002102F0DE
:1002600069FF401C60600020002102F04DFFE0604B
:100270001FBD10B510BD01F09FF81146FFF7E7FF55
:1002800002F0B0FD01F0BDF803B4FFF7F2FF03BCCC
:1002900001F001FD0948804709480047FEE7FEE7F5
:1002A000FEE7FEE7FEE7FEE7FEE7FEE7FEE7FEE726
:1002B00004480549054A064B70470000BD1B00086D
:1002C00085010008F8020020F8080020F80400204A
:1002D000F8040020704700000FB4044910B503AAC9
:1002E000029800F015FF10BC5DF814FB30000020F0
:1002F0000FB41CB5074B06AA7B44694600900598CD
:1003000000F0D7FE0020694600F0E6FE1CBC5DF858
:1003100014FB0000DD0D000070B50446856900681F
:10032000C10601D5302600E02026C00707D070BDE9
:10033000D4E9012130469047206A401C20626D1E9E
:10034000F6D570BD70B5044685690078C00707D141
:1003500070BDD4E9012120209047206A401C206212
:100360006D1EF6D570BD09684A0501D540B27047CB
:10037000C905FCD500B2704709684A0501D5C0B26D
:100380007047C905FCD580B2704770B50C4605466C
:10039000012A05D02878800600D5EA69002302E00A
:1003A000012305E05B1C934202D2E05C0028F9D1F6
:1003B000A869E618C01AA861286A18442862284665
:1003C000FFF7AAFF04E0D5E9012114F8010B9047DB
:1003D000B442F8D32846FFF7B5FF70BD2DE9F041D0
:1003E0000646002410687529314616A510D0FFF77F
:1003F000BAFF002802DA404213A507E031688A07F5
:1004000001D512A502E0490704D511A5012401E098
:10041000FFF7B2FF00210A2206F1240709E0B0FB32
:10042000F2FCB0FBF2F302FB1C00303078541846AB
:10043000491C0028F3D123462A463046BDE8F04146
:1004400000F04CBA000000002D0000002B0000005E
:10045000200000002DE9FF5F15468A460446DFF8BC
:10046000AC80F8440027D8E900103E46CDE90010E2
:1004700010E03AF816106A4602A800F071FE411C1E
:1004800007D02178890603D5E269391891420DD841
:100490000744761C2078800602D5E069B84205DD65
:1004A000AE42E6DB3AF816000028E2D1A069C01B94
:1004B000A0612046FFF730FFD8E90010CDE9001019
:1004C000002017E03AF818106A4602A800F048FE2B
:1004D000B0F1FF3F81460BD000250DF1080B05E080
:1004E000D4E901211BF8050090476D1C4D45F7D359
:1004F00008F10100B0428046E4DB206A3844206203
:100500002046FFF71FFFBDE8FF9F0000522E0000AE
:1005100070B5044621461068FFF72EFF002104F154
:10052000240505E000F007023032C0086A54491C77
:100530000028F7D12068002307A2050707D5800609
:1005400000D421B1E069012304A2401EE0612046ED
:10055000BDE8704000F0C2B90000000030000000AB
:1005600070B504460D4621461068FFF705FF218847
:10057000090502D50F4A7A4402E00E4A7A440E3247
:10058000002104F1240305E000F00F060009965D48
:100590005E54491C0028F7D120780023000704D5B9
:1005A000702D02D009B1022311322046BDE87040FF
:1005B00000F094B9462D00002DE9F05F894604460D
:1005C0004FF0000ADFF874B1FB44C0F820A02046C9
:1005D000E1688847002874D0252806D0D4E9012195
:1005E0009047206A401C2062F1E700265F462046C3
:1005F000E16888472028054607DB312D05D27819A8
:1006000010F8200C08B10643F1E7B00701D526F039
:100610000406C4F81CA00027C4F818A02A2D09D08D
:10062000284601F031FB38B304EB8708303DC8F8A9
:10063000185019E059F8041B204604EB8702916119
:10064000E1688847012F054618D1E069002820DAC3
:1006500026F020061DE0D8F8180000EB800005EB1E
:1006600040003038C8F818002046E1688847054641
:1006700001F00AFB0028EED1012F0AD02E2D08D15F
:100680002046E16888477F1C0546022F46F0200679
:10069000C4DBA069002803DA404246F00106A061ED
:1006A000F00701D026F010066C2D0BD0682D09D074
:1006B0004C2D39D06A2D35D0742D35D07A2D33D0CC
:1006C00016E038E0E1682F4620468847B8420546E4
:1006D00009D16C2F26D04FF48060E1680643204694
:1006E0008847054604E06C2F1AD04FF4807006430B
:1006F0000DB3A5F14100192802D8203546F4006653
:100700004A462946204626604E46FFF775FD80B1D1
:1007100001280BD0F61D26F0070000F1080956E766
:100720004020E4E78020D8E70020D6E706F104095E
:100730004DE7284652E7206ABDE8F09F1C2D0000D7
:1007400030B505460B462A4613F8014B12F8010B4B
:1007500008B1A042F8D01CB1002802D06D1CF1E70E
:10076000284630BD10B5431C02E010F8011B71B1E2
:100770008107FAD14FF0013202C88C1A8C4314EA77
:10078000C211F9D0C01A0A0603D0C01E10BDC01A8B
:1007900010BD0A0401D0801E10BD0902FCD0401E0D
:1007A00010BD10B5203AC0F00B80B1E81850203AC7
:1007B000A0E81850B1E81850A0E81850BFF4F5AF01
:1007C0005FEA027C24BFB1E81850A0E8185044BF8B
:1007D00018C918C0BDE810405FEA827C24BF51F8F8
:1007E000043B40F8043B08BF7047D20728BF31F8EC
:1007F000023B48BF11F8012B28BF20F8023B48BF3D
:1008000000F8012B70474FF0000200B513469446E4
:100810009646203922BFA0E80C50A0E80C50B1F158
:100820002001BFF4F7AF090728BFA0E80C5048BF6C
:100830000CC05DF804EB890028BF40F8042B08BF0A
:10084000704748BF20F8022B11F0804F18BF00F806
:10085000012B70474FF0013C50F8042B51F8043B3A
:100860009A4221D1A2EB0C03934313EACC1317D184
:1008700050F8042B51F8043B9A4215D1A2EB0C031B
:10088000934313EACC130BD150F8042B51F8043BDB
:100890009A4209D1A2EB0C03934313EACC13DBD0A9
:1008A0004FF00000704700BFD01A01BAB1FA81F1D1
:1008B00001F0180122FA01F0CB40C1F12001DBB2B6
:1008C000C0B2C01A2CFA01F3D11A914311EAC31134
:1008D000E6D1704770477047704770472DE9F04781
:1008E0000D4699469246044600F1240801688806A0
:1008F00004D5E06921F01001216000E00120A84248
:1009000001DD471B00E00027A1697A1902EB09000D
:10091000081AA0612078C00602D42046FFF7FCFC2C
:10092000002608E0D4E901211AF806009047206A61
:10093000401C761C20624E45F4DB2078C0060AD5A8
:100940002046FFF7E9FC06E0D4E90121302090477A
:10095000206A401C2062381EA7F10107F4DC07E082
:10096000D4E9012118F805009047206A401C206254
:10097000281EA5F10105F3DC2046FFF7E3FC2078F3
:10098000000602D50220BDE8F0870120FBE7704792
:100990002DE9FF4F0C461E464FF0FF378BB0D2E9D2
:1009A0000001DDF860800A908A46C1F30A5505B956
:1009B0003D46002108464FF00000BAF1000F00F458
:1009C000400005DA00EB80004FF4400101EA5000DE
:1009D0004FEA9059B9F1010F00DDB9460A9850EA83
:1009E0004A000ED044F61050A5F2FF3545432F14AF
:1009F000B8F1000F1ED07542291E1EDDC9F100029C
:100A00001CE0B8F1010F4FF0000001D0302103E0ED
:100A1000F24305E02154401CB042FBDB304600228B
:100A2000002121540B99C1F80880C1E900200FB0C2
:100A3000BDE8F08FBD1B6D1CDEE74A4600DA694257
:100A400006A800F03FFC06AB93E8070003AB83E881
:100A5000070050460A9900F0DDFC8DE80700A0F57C
:100A600000501F3800900398002D0ADD42F21F014C
:100A70004A460844002303A90390684600F046FF55
:100A800009E0A0F500504A461F38002303A903904F
:100A9000684600F050FF8DE807000004000C03D00A
:100AA0004FF0FF30410800E01046B8F1000F03D0CE
:100AB0000022009215461EE0751E05D400F07CFB56
:100AC000303262556D1EF9D5B3460122084302D07B
:100AD00000227F1C04E02078302801D100227F1EF4
:100AE000002A099784D01DE0112D07DA00F064FB7D
:100AF000303262556D1C50EA0102F5D1084302D034
:100B00000098C8B10EE00021681E05E0235C625C1D
:100B100063542254401E491C8142F7DBAB46A81B9C
:100B2000401E0990002004F80B000B98099AC0F8A9
:100B30000880C0E9002B7AE711264FF0000857E73C
:100B40002DE9F04F88460446D21D22F0070191B0EE
:100B5000D1E90001CDE90A0101F07EF802460B98C7
:100B6000C00F01D02D2007E02068810701D52B2080
:100B700002E0202101EAC000032A099001D0072ADF
:100B800005DB03464146204600F05CFB0BE1207884
:100B9000800601D5E06900E00620B8F1650F8146C6
:100BA00006D0B8F1660F18D0B8F1670F70D131E0F8
:100BB0000020B9F1110F009001DB112301E009F1D0
:100BC00001030AAA01A90CA8FFF7E2FEDDE90C70F7
:100BD000002609F10105834647E001204B460090BD
:100BE0004FF000470AAA01A90CA8FFF7D1FEDDE9E2
:100BF0000DB00C995D46002610B909F101000D18E1
:100C0000B9EB050003D4C0F1FF3609F10105A5EBEE
:100C100009002BE0B9F1010F01DA4FF001090020C2
:100C2000B9F1110F0090484601DD112300E00346A1
:100C30000AAA01A90CA8FFF7ABFEDDE90C704D462E
:100C400000268346207800070AD4AB4500DA5D46CB
:100C500001A8012D04DD411911F8011C302907D02C
:100C60004F4502DA17F1040F04DA012082460FE043
:100C70006D1EEEE7002F02DCED1B3E4403E0781C06
:100C8000A84200DD7D1CB81B00F1010A4FF00047AF
:100C90002078000703D4AA4501DB4FF0FF3A00217A
:100CA000B7F1004F0DF143088DF8431024D0022016
:100CB0002B23002F01DA7F422D230A21021EA0F1EF
:100CC000010000DC5FB197FBF1FC97FBF1F201FB47
:100CD0001C7C17460CF1300C08F801CDEEE7A8F1AA
:100CE000010003702188090501D5452100E0652137
:100CF000A0F1010800F8011C09980FA9A1EB080751
:100D0000FF1D00B10120411901EBEA70A1693844CF
:100D1000081A401EA0612078C00602D42046FFF7C2
:100D2000FBFA099828B1D4E901219047206A401CB8
:100D300020622078C00622D52046FFF7EDFA1EE09B
:100D4000002E04DBB34502DD01A8805D00E0302009
:100D5000D4E901219047206A401C2062761CAAF148
:100D600001005FEA000A0AD100F022FAC0680168B7
:100D7000405CD4E901219047206A401C2062281E73
:100D8000A5F10105DCDC07E0D4E9012118F8010B2D
:100D90009047206A401C2062381EA7F10107F3DC4F
:100DA0002046FFF7CFFA032011B041E62DE9F04FBE
:100DB00004460D46D21D22F0070089B0D0E9009705
:100DC0004846394600F048FF0246F80F01D02D236F
:100DD00007E02068810701D52B2302E0202101EAEA
:100DE000C0038DF820300BB1012000E00020032A61
:100DF000824601D0072A04DB2946204600F022FA69
:100E00003FE12078800601D40D2500E0E569C7F3B5
:100E10000A560D2D49DA00214FEA175B08464FF0BC
:100E20000000002F00F4400007DA00EB80004FF4D0
:100E3000400100EBD07001EA60008115012901DD5D
:100E40004FF0FF3100224FEA850CBCF1180F06D39A
:100E50001346ACF118004FF08052C24003E04FF44B
:100E6000801323FA0CF30CF10C0CBCF1200F04D30B
:100E7000ACF1200C09FA0CF001E007FA0CF00029A3
:100E80004FF0004801DD18B90FE00ED140450CD3FA
:100E900019EB02095F4121B9404502D19F4329EA7C
:100EA0000209BBEB175F00D0761C2088000502D535
:100EB0007B48784402E07A487844193808AA3023FD
:100EC00002F80A30037C0AF10101002E0AF1020A3D
:100ED00053546A4602DC4FF0300101E04FF031011B
:100EE0004FF001088DF8001002D0A6F2FF3603E0A3
:100EF00059EA470100D06B4E002D02DC217809072A
:100F000004D54FF002082E218DF80110C4460021AF
:100F10000BE0C7F303433F01C35C491C6D1E02F89D
:100F20000830052908F1010801DA002DF1DC002163
:100F30000CE000EB1973491C1B786D1E082902F8A0
:100F400008304FEA091908F1010801DA002DF0DC38
:100F500021688B0602D516E0A8F10108E04505DD01
:100F600002EB080313F8013C302BF5D0B8F1000F69
:100F700009DD02EB080313F8013C2E2B03D109070E
:100F800001D4A8F10108002D05DD3E2102F808106A
:100F90006D1E08F10108407C002E02F8080008F1DF
:100FA000010804DA2D20764202F8080002E02B2026
:100FB00002F808000A214FF47A70864208F101080D
:100FC0000BDB96FBF0F3303302F8083096FBF0F3BE
:100FD00008F1010800FB136601E0642E0CDB6420BD
:100FE00096FBF0F3303302F8083096FBF0F308F18B
:100FF000010800FB136601E00A2E06DB96FBF1F008
:10100000303002F8080008F1010896FBF1F001FB0E
:101010001060303002F80800A16908F1010808EBFF
:10102000050202EB0A00081AA0612078C00602D46B
:101030002046FFF771F9216A08AE01EB0A00206231
:1010400004E0D4E9012116F8010B9047BAF1010A36
:10105000F7D22078C00602D52046FFF75DF96E462C
:1010600009E016F8010B3E280FD0D4E90121904782
:10107000206A401C2062B8F10108F2D22046FFF736
:1010800061F909B00320BDE8F08F206A284420628E
:1010900003E0D4E90121302090476D1EEBD3F8E73F
:1010A0005624000002FCFFFF01694A1C0261087817
:1010B000704700B58FB0CDE9013100210591054998
:1010C0007944CDE9031011466846FFF775FA0FB071
:1010D00000BD0000E5FFFFFF0A6802F8010B0A608F
:1010E000704710B5436913B1AFF3008001E0FFF71B
:1010F0004CF9012010BD127800F124010A70002281
:101100004A700122EDE711684FF0FF32E9E7000075
:10111000074B70B50D467B44FFF7CBFF04462846CE
:1011200000F042F910B14FF0FF3070BD204670BDA5
:10113000971B000010B5436913B1AFF3008001E0C5
:10114000FFF788F9012010BD128800F12401828484
:101150000022C2840122EDE711684FF0FF32E9E777
:1011600070B516460C46054600F01AF8036893F869
:101170000101012806D0FF2C0FD8185D68B10120AD
:101180002C7070BDD3F807013246214603F20713D5
:1011900003442846BDE8704018474FF0FF3070BD4B
:1011A00010B500F005F8001D10BD00BF891F00003C
:1011B00000487047B402002030B5B0F10A024FEA8F
:1011C000900E71F100034EEA817EB0EB0E0061EBF0
:1011D00091014FEA101E4EEA017E10EB0E0041EB2A
:1011E00011114FEA102E4EEA016E10EB0E0041EB8A
:1011F00011214FEA104E4EEA014E10EB0E0041EB6A
:101200001141401841F100014FEAD00040EA41701D
:101210004FEAD10110EB80054FEA810444EA907453
:1012200044EB01046D1944EB0404521BA3414FF03D
:10123000000348BF0A3200D530BD401C41F1000117
:1012400030BD00002DE9F0411F4604460326016829
:10125000072A01F4006004DB08B116A505E016A515
:1012600003E008B115A500E015A521F010002060ED
:10127000A069C01EA0610FB1401EA0612046FFF70B
:101280004BF84FB1D4E9012138469047206A401C01
:101290002062C01C206206E0206AFAE7D4E901213E
:1012A00015F8010B9047761EF8D22046FFF74AF852
:1012B000BDE8F0814E414E006E616E00494E460021
:1012C000696E66002DE9F047814616468AB03548BA
:1012D00078440DC88DE80D0032487844801C03AC7A
:1012E0000DC884E80D0041F69B300844372190FB7F
:1012F000F1F290FBF1F5A5F1800501FB12041B3C16
:1013000002D56442012000E00020DFF898A080466A
:101310000027FA44AAF1BE0A0EE0E0070AD03246DE
:10132000684607EB470101230AEB810100F003FB4C
:101330008DE8070064107F1C002CEED1194F7F440C
:10134000AE3F19E0E80715D007EB04100DF1180ABD
:1013500090E80E008AE80E00C068F04201D19819AA
:1013600008903246012306A903A800F0E4FA03AB73
:1013700083E807006D10641C002DE3D14FF00103DA
:1013800032466946B8F1000F03A802D000F0BEFA59
:1013900001E000F0D0FAC9E90001C9F808200AB05C
:1013A000BDE8F087C8200000007B00F08000704797
:1013B00000487047940200207546FFF7F9FFAE46DB
:1013C00005006946534620F00700854618B020B551
:1013D000FEF76EFFBDE820404FF000064FF000071B
:1013E0004FF000084FF0000B21F00701AC46ACE8CD
:1013F000C009ACE8C009ACE8C009ACE8C0098D463A
:10140000704710B50446AFF300802046BDE8104099
:10141000FEF73ABF5FEA400C08BF91F0000F4FEAB9
:101420008C234FEAC12243EA51514FEA1C5018BFA6
:1014300000F5F0404FEA300018BF41F000415FEA8C
:101440006C5C00F02980BCF1FF3F08BF40F0804099
:101450007047130C06BF12044FF0100C4FF0000C35
:10146000130E04BF12020CF1080C130F04BF12017B
:101470000CF1040C930F04BF92000CF1020CD30F7B
:1014800004BF52000CF1010C11464FF00002A0F114
:101490001F00A0EB0C00704711F0004F08BF704711
:1014A00031F000413FF4D5AF0B0C06BF09044FF0FB
:1014B000100C4FF0000C0B0E04BF09020CF1080CCD
:1014C0000B0F04BF09010CF1040C8B0F04BF890042
:1014D0000CF1020CCB0F04BF49000CF1010CCCF154
:1014E0002003A0EB0C0022FA03F302FA0CF241EA0B
:1014F000030100F10100704720F07F4C80EA0300F7
:1015000023F07F47ACEB070303F57C5300F000406A
:1015100003F1FF032DE980494FEA154B09B44FEA67
:10152000144325EA0B4E24EA03480FF2042606EB87
:10153000132749083E785FEA320203FB0667C7F5C6
:10154000000707FB06F64FEA54374FEAD64606F186
:10155000020607FB066CCCF1005C4FEA1C472CEA44
:10156000074C07FB06F40CFB06F504EB15464FEAA7
:10157000961634BF00204FF000404FEAD13706FBEB
:1015800007FC4FEA1C4C0CFB0BF7D21B03FB0CF7C0
:1015900061EB07010CFB0EF7B0EB074072EB174253
:1015A0000CFB08F734BFA2EB0742B2EB074261EB3A
:1015B00017414FEA0C444FEA910706FB07FC4FEA3C
:1015C0001C4C0CFB0BF7B0EBC74072EB573203FB24
:1015D0000CF734BFA2EBC742B2EBC74261EB573105
:1015E0000CFB0EF7B0EBC70072EB57720CFB08F761
:1015F00034BFA2EBC702B2EBC70261EB5771039F86
:101600004FEA816141EA921104EBCC044FEAD137F1
:101610004FEA826206FB07FC42EA90124FEA8060C2
:101620004FEA1C4C0CFB0BF7D21B03FB0CF761EBD6
:1016300007010CFB0EF7B0EB074072EB17420CFBF7
:1016400008F734BFA2EB0742B2EB074261EB174148
:101650004FEA8C554FEA910704EB9C2406FB07FCEC
:101660004FEA1C4C0CFB0BF7B0EBC74072EB573248
:1016700003FB0CF734BFA2EBC742B2EBC74261EBEE
:1016800057310CFB0EF7B0EBC70072EB57720CFB37
:1016900008F734BFA2EBC702B2EBC70261EB577188
:1016A00015EB4C254FEA816141EA92114FEA8262C3
:1016B0004FEAD13742EA901206FB07FC44F10004DE
:1016C0004FEA80604FEA1C4C0CFB0BF7D21B03FB6C
:1016D0000CF761EB07010CFB0EF7B0EB074072EB68
:1016E00017420CFB08F734BFA2EB0742B2EB0742EC
:1016F00061EB174115EB1C154FEA813141EA92412C
:101700004FEA823242EA90424FEA80304FEA0C764A
:1017100044F1000448EA03434EEA0B484FF0000E40
:10172000B2EB080C71EB030724BF624639464EEB5F
:101730000E0E4FF0000B0018524149414BEB0B0BC2
:10174000B2EB080C71EB03077BF1000B24BF624680
:1017500039464EEB0E0E4FF0000B00185241494136
:101760004BEB0B0BB2EB080C71EB03077BF1000B9F
:1017700024BF624639464EEB0E0E51EA020718BFEF
:1017800046F0010616EB0E7655F1000254F1000109
:1017900003D5BDE88901BDE80088BDE88901BDE841
:1017A0000048B619524141EB0101A3F10103704712
:1017B00080807F7E7D7C7B7A79787776767574738E
:1017C000727171706F6E6E6D6C6C6B6A6A6968684D
:1017D000676666656464636362616160605F5F5EE3
:1017E0005E5D5D5C5C5B5B5A5A5959585857575659
:1017F00056555555545453535252525151505050BE
:101800004F4F4F4E4E4D4D4D4C4C4C4B4B4B4A4A0F
:101810004A49494948484847474747464646454553
:10182000454444444443434343424242424141418C
:10183000002B9C4630D477002BD01CB54FEA3707DD
:1018400003B44FF010004FF01001BAF1000F06D0B2
:10185000BCF1000FDCBF40F0080040F008014FF081
:1018600000000FBCBDE810400BF1010BBBF1010FF4
:1018700008BF5FEA170722BF12F1010211F101014F
:101880004FF0004143F1000300F0004043EA000044
:101890007047F9D35708D0E746EA064613F1400FE0
:1018A0004FEA16461FDD13F1200FDFBF16430A462D
:1018B000002120335B42BED0C3F1200746EA064632
:1018C00002FA07F74FEA164646EA0706C3F1200771
:1018D00022FA03F201FA07F721FA03F14FF00003AD
:1018E00042EA0702A7E746EA020646EA06464FEA48
:1018F000164646EA0106BCBF46EA0646360C4FF0DD
:1019000000034FF000024FF0000194E72DE9804CF6
:101910009A46934670B491E8380007C831EA400C03
:1019200048BF34EA430C03D5FFF7E6FDFFF780FF1D
:10193000F0BCBDE8008C2DE9804C9A46934670B40B
:1019400091E8380007C810F0804F08BF13F0804FAF
:1019500003D100F005F8FFF76BFFF0BCBDE8008C89
:1019600020F07F4780EA030023F07F4C07EB0C0355
:10197000A3F57C5300F00040A3F1FE0392F0000FAA
:1019800000F0B38095F0000F00F077802DE9014959
:101990004FEA11404FEA144621EA004800FB06FCDA
:1019A00024EA064708FB06F607FB08F800FB07F7E2
:1019B00018EB06484CEB164C4FEA124B18EB074855
:1019C0004FEA15464CEB174022EA0B4E0BFB06FC88
:1019D00025EA06470EFB06F607FB0EFE0BFB07F794
:1019E0001EEB064E4CEB164C4FF000061EEB074E5E
:1019F0004CEB174B18EB0B0840F1000018EB0E0BEB
:101A000058EB000840F100008F1A4FF000013CBF76
:101A1000C943661B14BFB5EB040C00213CBFC9438E
:101A2000F61B4FEA17444EEA8E0E27EA04454FEAAA
:101A30001C4704FB07622CEA074C05FB07F70CFB6D
:101A400005F604FB0CFC16EB074642EB174216EBBF
:101A50000C4642EB1C421BEB060658EB02024141CE
:101A600046EA9E0601D5BDE80189B619524141EB0F
:101A70000101A3F10103BDE801894FEA14454FEAD2
:101A8000114724EA054621EA074C05FB07F406FB4B
:101A900007F70CFB06F105FB0CFC11EB074144EBCF
:101AA00017444FEA124711EB0C4144EB1C4422EA65
:101AB000074C05FB07F206FB07F70CFB06F605FBD8
:101AC0000CFC16EB074642EB174216EB0C4642EBBA
:101AD0001C456A1854F1000148BF7047B6195241BD
:101AE00041EB0101A3F10103704795F0000F37D0DE
:101AF0004FEA11424FEA144721EA024624EA074C12
:101B000002FB07F106FB07F70CFB06F402FB0CFCDB
:101B100014EB074441EB17414FEA154714EB0C4413
:101B200041EB1C4125EA074C02FB07F506FB07F7D2
:101B30000CFB06F602FB0CFC16EB074645EB1745C3
:101B400016EB0C4645EB1C42121951F1000148BF3F
:101B50007047B619524141EB0101A3F101037047EF
:101B60004FEA14454FEA114724EA054621EA074C9B
:101B700005FB07F106FB07F70CFB06F24FF000062A
:101B800005FB0CFC12EB074241EB174112EB0C4238
:101B900051EB1C4148BF7047921841EB0101A3F182
:101BA0000103704700BFFEE7704700BFFEE700BFBC
:101BB000FEE770477047704770470000184800689C
:101BC00040F47000164908601648006820F00100D3
:101BD000401C1449086000BF12480068C0F3400070
:101BE0000028F9D00F48406820F003000D494860F4
:101BF00000BF0C484068C0F381000028F9D10948B3
:101C000000680949084007490860002048600863E7
:101C10004FF41F008860C80301498039086070478D
:101C200088ED00E000100240FFFFF2FE10B500203A
:101C300006490860002404E00549085D00F0B4FD91
:101C4000641C024800688442F6D310BD04000020E2
:101C50006000002000BFFEE703B401984100009837
:101C600050EAC12018BF04204A0D18BF40F00100FF
:101C700040F2FF72B2EB515F08BF40F00200012852
:101C800008BF052002B0704730380A2801D2012071
:101C900070470020704700BF704710B500F054FA3D
:101CA000002000F031F8012000F02EF8022000F0B2
:101CB0002BF8002000F050F8012000F04DF8022031
:101CC00000F04AF800F002F810BD00001CB5012138
:101CD0000B4800F087F9684601F004F801208DF800
:101CE000070000208DF804008DF806000120009008
:101CF00028208DF805006946024800F0FEFF1CBD53
:101D000002001800000801401CB504460F4951F8B4
:101D10002400012100F066F9684600F0E3FF01208D
:101D20008DF8070000208DF8040010208DF80600C3
:101D3000074830F81400009004208DF8050005498C
:101D400051F82400694600F0D8FF1CBD1C0000209B
:101D50001400002008000020022800DD704706491A
:101D600031F8101031B1044931F81010034A52F81B
:101D70002020116100BFF1E71400002008000020BE
:101D80000349496860F30711014A51607047000038
:101D9000001002400349496860F30A21014A51607A
:101DA00070470000001002400349496860F3CD21EC
:101DB000014A51607047000000100240012807D11D
:101DC0000749496D21F030013031054A516505E080
:101DD0000349496D21F03001014A51657047000007
:101DE00000100240052827D2DFE800F0030A11188E
:101DF0001F00134A126861F30002114B1A601CE0C5
:101E00000F4A126861F310420D4B1A6015E00C4A3C
:101E1000126861F318620A4B1A600EE0084A126AEF
:101E200061F30002064B1A6207E0054A526A61F349
:101E30000002034B5A6200E000BF00BF7047000081
:101E4000001002402DE9F041014600270022002544
:101E500090460023002400F06FF9064626B1012EBB
:101E600012D0022E43D112E03948406DC0F3402019
:101E700038B13748006BC0F3406010B13548086096
:101E800001E03548086035E03348086032E030480A
:101E90004068C0F300482E484068C0F383422C4895
:101EA0004068C0F341750DB90F2A03D12801401CC9
:101EB000024400E0921CB8F1000F03D127485043C0
:101EC000086013E022484068C0F3404058B1204801
:101ED000406DC0F30137B81CDFF87CC0BCFBF0F0EC
:101EE0005043086002E01C485043086002E01A4872
:101EF000086000BF00BF16484068C0F303131848CD
:101F0000C45C0868E040486011484068C0F30223A0
:101F10001448C45C4868E040C8600D484068C0F39D
:101F2000C2231148C45C4868E040886008484068A3
:101F3000C0F3007306484068C0F3813040EA830371
:101F40000A48C45C8868B0FBF4F00861BDE8F08121
:101F500000100240006CDC0200127A0000093D0013
:101F60007C3200088C320008943200089C32000851
:101F700010B501460020094B03EB1142126801F035
:101F80001F040123A3401A4001F01F040123A340B2
:101F90009A4200D000E0012010BD00000010024075
:101FA0000349496D60F30D31014A516570470000E6
:101FB0000010024030B50024002500E0641C112010
:101FC000FFF7D6FF012802D0B4F5405FF6D3112009
:101FD000FFF7CEFF012801D0002500E001252846AB
:101FE00030BD000010B501290DD10E4B03EB10429E
:101FF000126800F01F040123A3401A43094C04EBAC
:1020000010431A600CE0074B03EB1042126800F01B
:102010001F040123A3409A43024C04EB10431A60AF
:1020200010BD00000010024010B568B91C4B5B6881
:1020300023F480331A4C636023461B6B23F0007338
:1020400003F10073236317E0154B5B6823F48033BF
:1020500003F58033124C6360012805D123465B6889
:1020600023F40033636007E00D4B5B6823F4003317
:1020700003F500330A4C6360094B5B6861F39543D9
:10208000074C63600C09064B5B6864F35E73044C99
:10209000636023465B6862F3DF73636010BD00001A
:1020A000001002401348006820F00100401C114954
:1020B000086000BF0F480068C0F340000028F9D056
:1020C0000C48406820F003000A49486000BF0948F6
:1020D0004068C0F381000028F9D10648006806492D
:1020E0000840044908600020486008634FF41F005E
:1020F0008860704700100240FFFFF2FE0D494968FA
:1021000060F301010B4A516000BF00BF00BF00BF78
:1021100000BF00BF00BF00BF00BF00BF00BF00BFC7
:1021200000BF00BF00BF00BF00BF00BF00BF00BFB7
:10213000704700000010024002484068C0F3810070
:10214000704700000010024010B5042000F036FF78
:10215000074800680749B0FBF1F0074908600846E6
:1021600000684FF47A7148430449086010BD0000CC
:102170003800002040420F00280000202C000020E2
:1021800007B50B480078082810DA0948007800EBFA
:102190004000084901EB80009DE80E000EC0044895
:1021A0000078401C0249087001200EBD0020FCE7A9
:1021B0003C000020600100202DE9F04105460E465C
:1021C0000024A0462C46346008F10108002713E0E3
:1021D0000CA12046FEF7B4FA044654B1002020704A
:1021E000641C781C46F8204008F1010000F0FF084C
:1021F00000E003E0781CC7B2032FE9DB00BF4046D4
:10220000BDE8F0812000000010B5002004490880DE
:102210000449088011210448FEF7F5FA10BD0000BA
:102220003E00002040000020C00100202DE9F843BE
:10223000074689465F200090002F74D0AFF213004C
:1022400055490860002422E004EB4400534911F88A
:102250003000D0B104EB440001EBC000007D0C283D
:1022600001DA0C2005E004EB44004C4901EBC0000E
:10227000007D0646002506E001216846484A1268AE
:102280009047681CC5B2B542F6DB601CC4B2082C8E
:10229000DADB022143A0424A1268904700243BE067
:1022A00004EB44003D4911F8300098B304EB4400BE
:1022B00001EBC000007D0C2801DA0C2005E004EBE6
:1022C0004400364901EBC000007D064604EB4401A2
:1022D000324A02EBC100FEF745FA1FFA80F804EB20
:1022E00044012E4A02EBC10041462D4A1268904734
:1022F00004EB4401294A02EBC100FEF733FAC5B2F0
:1023000006E0012128A0264A12689047681CC5B241
:10231000B542F6DB601CC4B2082CC1DB022121A04F
:102320001F4A12689047012120A01D4A1268904759
:1023300000242BE004EB4400184911F8300018B3D6
:1023400004EB440001EBC000007D0C2801DA0C20F6
:1023500005E004EB4400114901EBC000007D064696
:1023600004EB4402DFF834C00CEBC202537D04EBF3
:1023700044020CEBC202116904EB44020CEBC202F2
:10238000507B324600F0ACF9601CC4B2082CD1DBA3
:102390004FF0FF30BDE8F88350000020D40100204A
:1023A000580000200D0A0000200000000D00000071
:1023B0003EB504461048046000F04CFC00F03EFCC2
:1023C00000200E4908600E4AD2E900109268CDE95B
:1023D000010200919DE80700FFF7D2FE002007E010
:1023E000002100EB4002074B03F83210411CC8B239
:1023F0000828F5DB3EBD0000580000204C000020FE
:10240000A4320008D40100202DE9FC470027002554
:1024100000200090019080467B4800887B49098815
:10242000884275D17848008804B209E0601E784976
:10243000085C202802D1601E47187F1C601E04B271
:10244000002CF3DC07B9724F6F48008820B1694651
:10245000384600F01FF98046B8F1000F03D0B8F1FC
:10246000010F56D12EE06A48007850BB022169A0C6
:10247000694A12689047002412E004EB4401674A5D
:1024800052F82100FEF76EF986B204EB4402634B6A
:1024900053F82210E0B2324600F0C6F8601C04B2D5
:1024A0005F4800788442E8DB02215AA05A4A126849
:1024B000904700F0C3FB544801885548564A1268BB
:1024C00090479EE09DF8000000EB4000534951F812
:1024D000205019E028783978884213D028784C4960
:1024E000494A1288885448480088401C4649088058
:1024F00046480088401C4549088001212846464A34
:10250000126890476D1C7F1C28780028E2D178E083
:1025100078E044480078002842D142480078401CC6
:10252000404908704FF0000900263846FEF71AF9B6
:1025300000F0FF094E469DF8000000EB40003749CF
:1025400051F8205028E001240DE0A85D1DF804108A
:1025500001EB4101314A52F82110895D884200D0D7
:1025600003E0601C04B24445EFDB00BF444511D1D9
:10257000A85D2749885588190121274A1268904784
:1025800021480088401C2049088020480088401CC1
:102590001E490880701CC6B2A85D0028D3D12FE068
:1025A00000202049087002211AA01B4A1268904797
:1025B000002416E01DF8041001EB4101174A52F8FF
:1025C0002100FEF7CFF886B21DF8042002EB42028C
:1025D000124B53F82210E0B2324600F025F8601C8E
:1025E00004B24445E6DB02210AA00B4A1268904778
:1025F00000F024FB044801880548074A1268904708
:1026000000BF00BFBDE8FC873E0000204000002066
:10261000C00100200D0A00005800002060010020C9
:102620003C0000205400002070B505460E461446BC
:1026300015B9002013490880502C22DC114800886D
:102640002044502805DA214630460F4A1268904748
:102650000CE000200B49088002210CA00A4A1268F5
:10266000904721463046084A12689047054800883E
:102670002044401C03490880012105A0024A126839
:10268000904770BD5C000020580000200D0A00003B
:10269000200000002DE9F04106460F464FF00008EB
:1026A0000025002410E004EB44010B4A52F82100FD
:1026B0003146FEF745F88046B8F1000F02D07C5550
:1026C000681CC5B2601CC4B2044800788442EADBCE
:1026D0002846BDE8F0810000600100203C00002099
:1026E0002DE9F0472DED028B92B005460C461646BB
:1026F0001F46402102A8FEF786F8224903C9CDE90A
:10270000000115B1012D2BD114E0A0460A2F05D1EF
:1027100032461DA16846FDF7EBFD04E0B21E1CA188
:102720006846FDF7E5FD694602A8D8F80020FDF7E8
:10273000DFFD16E0A146324618A16846FDF7D8FD38
:1027400099ED000A10EE101A084600F00FFD41EC5A
:10275000180B53EC182B694602A8FDF7C9FD00E0E1
:1027600000BF00BF02A8FDF7FDFF1FFA80FA514627
:1027700002A80C4A1268904712B0BDEC028BBDE86B
:10278000F0870000B032000825252D256464000084
:10279000307825252D2564580000000025252D259D
:1027A000646600005800002031B59DF80000D4494F
:1027B000D44A12788854D448007800287ED0D14872
:1027C0000078401CCF4908700120D0490870CD48DE
:1027D000007803283DD1CA4800781B2817D1C84883
:1027E00040785B2813D1C648807844280FD1C84868
:1027F000008800280BDD0121C6A0C74A1268904757
:10280000C3480088401EC249088000F037FABC481F
:1028100000781B281CD1BA4840785B28FAD1B84808
:1028200080784328F6D1BA480088BC490988884294
:102830000EDABB49B64A128888180121B64A1268D6
:102840009047B3480088401CB149088000F016FA50
:1028500055E1AC4800780428FAD1A94800781B2833
:10286000F6D1A74840785B28F2D1A5488078332874
:10287000EED1A348C0787E28EAD1A5480088A749B0
:1028800009888842E4DAA248048804E0A449601C6C
:10289000085C0855641CA1480088401EA042F5DC75
:1028A00020219E480088401E9D4A11549B4A128850
:1028B000974B1B88D21A521C91B200E01BE0984A39
:1028C000934B1B88D018944A12689047904804880C
:1028D00005E001218FA0904A12689047641C8F4840
:1028E00000888442F5DB8D480088401E8B490880B3
:1028F00000F0C4F903E19DF800000A2817D006DCB7
:10290000032809D008282BD009287DD198E00D286C
:1029100018D01B28F9D187E00020824908600221E5
:1029200081A07D4A1268904700F088F9E6E075487A
:10293000007820B979480188794800F0FBF800F068
:102940009DF9DBE075480188754800F0F3F86D48A3
:102950000078401C6B49087001206C490870CDE07C
:102960006E48008800285EDD0020704908706848C5
:1029700000886A490988884215D103216CA0664AFB
:1029800012689047002165480088401E644A11542F
:1029900062480088401E614908805D480088401EEA
:1029A0005B4908803FE05A48048805E05C48015DC7
:1029B000601E5B4A1154641C584800888442F5DB51
:1029C00056480088401E5549088051480088401EDE
:1029D0004F49088020205249504A128888540121CA
:1029E0004CA04D4A126890474C4A1288484B1B88AD
:1029F000D21A521C91B24A4A454B1B88D018464AFB
:102A000012689047002406E01DE0012141A0424ADF
:102A100012689047641C414800883D490988401A63
:102A2000401CA042F1DC69E00120374908703548BC
:102A30000078401C334908700120344908705DE07B
:102A4000FFF7E2FC5AE035480088102855DA0020EC
:102A5000364908702E48008830490988884214D1C8
:102A60009DF800102D4802880088401C2B4B1880D0
:102A70002B48815426480088401C254908800121A4
:102A80006846254A1268904737E02448048804E0E5
:102A9000601E2349085C0855641E1D480088844256
:102AA000F6DC1E480088401C1C4908809DF8001078
:102AB0001B48174A12888154184A1288144B1B88E5
:102AC000D21A91B20246124B1B88D018124A1268D1
:102AD00090470F480088401C0D490880002405E0FD
:102AE00001210CA00C4A12689047641C0B48008816
:102AF00007490988401AA042F2DC00BF00BF38BD78
:102B0000420000204700002048000020490000202B
:102B10004000002008000000580000203E00002077
:102B2000C0010020500000200D0A000054000020C9
:102B3000082008002DE9FF4106460D46002400202C
:102B4000009001900290039069463046FFF734FBF5
:102B5000074600BF40E004EB44022E4B53F822002E
:102B60000099FDF777FE70B902212BA02B4A12685D
:102B7000904704EB4400274901EB800069468268D6
:102B8000384690472CE026A00099FDF763FE10BB65
:102B900004EB44021F4B53F822000199FDF75AFE43
:102BA000C8B902211CA01D4A1268904704EB4401D9
:102BB000184A02EB81014868FDF7D4FD1FFA80F83E
:102BC00004EB4401134A02EB810148684146134A71
:102BD0001268904704E0641C124800788442BADB13
:102BE00000BF02210CA00D4A126890470D480078E2
:102BF000844206D1002D04DD13210BA0074A126880
:102C0000904700F01BF800F039F8FFF7FDFABDE837
:102C1000FF810000600100200D0A00005800002024
:102C20006D616E003C000020436F6D6D616E64202D
:102C30006E6F7420666F756E640D0A0010B5022108
:102C400002A0034A1268904710BD00003E3E0000FB
:102C50005800002000B5D3B04FF4A472054901A874
:102C6000FDF79FFD4FF4A37101A8034A1268904736
:102C700053B000BDC43300085800002000200749AD
:102C800008700749087007480021016001710020A1
:102C90000549087005490870704700004900002088
:102CA0004A00002042000020470000204800002089
:102CB00070B504460D4600BF8021094800F0D1F9E7
:102CC0000028F9D0A1B2064800F0C2F900BF4021A7
:102CD000034800F0C6F90028F9D0204670BD000076
:102CE000003801404FF6FF710160002181710171D0
:102CF000042141710121C1717047F0B50A46158860
:102D0000ABB29579032D01D100241AE0957965B90C
:102D1000557905F00F045579182D01D1036110E0A4
:102D20005579282D0DD143610BE0957905F0080503
:102D3000167906F004063543D67906F0030645EA0F
:102D40000604DDB2A5B1002110E001258D401D4033
:102D50005DB105688F000F26BE40B543056005686C
:102D60008E0004FA06F635430560491C0829ECD3A9
:102D7000FF2B15DD1B12002110E001258D401D40A9
:102D80005DB145688F000F26BE40B543456045687C
:102D90008E0004FA06F635434560491C0829ECD339
:102DA000F0BD000070B506460D4608A02968FDF785
:102DB00093FA012406E055F82420214605A0FDF7EA
:102DC0008BFA641CB442F6DB002070BD636D643A7C
:102DD00025730A00706172616D2025643A25730ABB
:102DE000000000000EB500F035F8FEF756FF4FF476
:102DF000E13000F0F7F8064A07CA8DE807000548F9
:102E0000FFF7D6FA9DE80700FFF7BAF900BFFEE723
:102E100060320008192E000870B504460D460026E1
:102E200013E000BF80210A4800F01BF90028F9D008
:102E300014F8011B064800F00BF900BF40210448BC
:102E400000F00FF90028F9D0761CAE42E9DB70BD26
:102E50000038014010B5FFF725F901210846FEF7BB
:102E6000C1FF00BFFFF7A6F80028FBD001223121E7
:102E70000220FFF7D9F80020FFF792F80121022085
:102E8000FEF7B0FF00BF1920FFF772F80128FAD152
:102E90000020FEF775FF0420FEF786FF0420FEF7F2
:102EA00079FF0120FEF78AFF0220FFF727F900BF14
:102EB000FFF742F90228FBD10020FEF77FFF00F068
:102EC00001F810BD2DE9F047002600240025002759
:102ED000A046A146FFF730F98246BAF1000F06D0AE
:102EE000BAF1010F15D0BAF1020F46D115E02D4805
:102EF000406DC0F3402040B12A48006BC0F34060F1
:102F000018B129482949086002E029482749086082
:102F100037E027482549086033E022484068C0F37D
:102F2000004720484068C0F383441E484068C0F30F
:102F300041750DB90F2C03D12801401C044400E059
:102F4000A41C27B91B4860431849086014E01548C1
:102F50004068C0F3404058B11248406DC0F301369C
:102F6000B01C1349B1FBF0F060431049086003E066
:102F70000F4860430D49086003E00D480B490860A5
:102F800000BF00BF07484068C0F303180A4810F8A4
:102F900008900648006820FA09F004490860BDE876
:102FA000F087000000100240006CDC0238000020B6
:102FB00000127A0000093D006C320008042808D194
:102FC0004FF0E021096941F004014FF0E022116166
:102FD00007E04FF0E021096921F004014FF0E02201
:102FE000116170471CB5044601211648FEF7FAFF2F
:102FF000012114480C38FEF7F5FF6846FFF772FE12
:1030000001208DF8070000208DF8040008208DF8BD
:1030100006008001009004208DF8050069460A48EA
:10302000FFF76BFE00231A462146084800F022F8FD
:103030000121064800F062F80121044800F00CF874
:103040001CBD00000E0018000008014000380140BF
:10305000C1F3080242607047C26861F34D32C2603A
:10306000704702461068084008B1012070470020F0
:10307000FCE700002DE9F04385B004460F4690467A
:1030800099466846FEF7DEFE1848844208D0184884
:10309000844205D01748844202D01748844201D1A7
:1030A000029E00E0039E06EB86004000B0FBF7F5B1
:1030B0000A20B5FBF0F100FB1150052803D20A20CD
:1030C000B5FBF0F503E00A20B5FBF0F0451CA06865
:1030D00065F30F00A060E06868F30C30E0602069E1
:1030E00069F30D30206105B0BDE8F0830038014080
:1030F000006001400064014000680140C26861F363
:10310000C302C2607047000010B500290AD00878D9
:10311000002807D005487844FDF79CFB002801D023
:10312000002010BD0248784410BD00002A040000B1
:103130002204000010B500290AD00878002807D022
:1031400005487844FDF786FB002801D0002010BD1B
:103150000248784410BD00001A0400001204000068
:103160000808A0F500114FEA3101704743004FEA0B
:10317000D30C4FEA3C0C43401FBF40070CF1605199
:1031800013F0FE4F70471CF0006F03D100200CF0CD
:10319000004170470CF0004343EA507010B540EA1C
:1031A000CC0000F00EF800BF000000924FEA0001D2
:1031B000FFF7D6BF4FF000414FF00000A1F500210E
:1031C00070470EF1020E2EF0030E5EF8044B2442FF
:1031D00004D44FEA4102B2F17F4F11D84FEA4003C5
:1031E000B3F17F4F0CD80ED14FEAD07CB2F17F4FB4
:1031F0000CEB4C0C0CF1020C08BF4CEBD17C04E046
:103200004FF0080C01E04FEAD17C0CEB4C0324FAA0
:1032100003F404F00704B4F1040C06D20EEB840CA2
:10322000BDE810404CF0010C6047DFE80CF00708E7
:1032300002024FF00040A0F5800010BD0846420099
:1032400018BFD2F1807288BF00F0004010BD4FF06F
:103250004070E1EE100A7047FDF772BCFDF7A6BDA5
:10326000B4330008B8330008A52D000800000000A2
:103270000000000001020304060708090000000026
:103280000000000001020304060708090000000016
:103290000102030400000000010203040204060806
:1032A000020C08100C350008103500082D2200080B
:1032B000253136640000000000000000000000001E
:1032C000303132333435363738394142434445465C
:1032D0004030580030313233343536373839616256
:1032E0006364656640307800040000080000000058
:1032F0000000000200010000103031323334353656
:103300003738396162636465667870003031323312
:103310003435363738394142434445465850000029
:1033200002400000000000A0000000000540000076
:10333000000000C8000000000C4000000000409C9D
:1033400000000000194000000020BCBE000000008A
:1033500034400000BFC91B8E00000004B5400000CF
:10336000504BCFD06607E2CF010000006C41000057
:103370003E8251AADFEEA73401000000D9420000CE
:10338000DCB5A0E23A301F97FFFFFFFFB445000015
:10339000FD25A0C8E9A3C14FFFFFFFFFFF3F0000CD
:1033A0000000008000000000FF3F000000000080DF
:1033B000000000006C65640073696D706C652064CA
:1033C000656D6F000A0D0A0D20202020202020208E
:1033D0002020202020202020202020202020205FAE
:1033E0005F5F5F20205F20202020202020202020E1
:1033F0005F205F200A0D2020205F5F5F20205F5F3D
:10340000205F205F5F5F205F2020205F2F205F5FB5
:103410005F7C7C207C5F5F2020205F5F5F7C207C66
:10342000207C0A0D20202F205F205C2F205F602051
:103430002F205F5F7C207C207C205C5F5F5F205CB6
:103440007C20275F205C202F205F205C207C207C5C
:103450000A0D207C20205F5F2F20285F7C205C5F8E
:103460005F205C207C5F7C207C5F5F5F29207C206C
:103470007C207C207C20205F5F2F207C207C0A0D1C
:1034800020205C5F5F5F7C5C5F5F2C5F7C5F5F5FC9
:103490002F5C5F5F2C207C5F5F5F5F2F7C5F7C20F9
:1034A0007C5F7C5C5F5F5F7C5F7C5F7C0A0D2020C3
:1034B0002020202020202020202020202020207CB0
:1034C0005F5F5F2F20202020202020202020202030
:1034D000202020202020202020200A0D0A0D20203E
:1034E00068747470733A2F2F67697465652E636F03
:1034F0006D2F677A626B65792F65617379536865A3
:103500006C6C2E6769740A0D0A0D000076617200FA
:103510007661726961626C6520766965770000008A
:103520006C3600080000002060000000C0010008A8
:10353000CC3600086000002098080000DC0100087C
:103540001C00000043000000F8FFFFFF0C0000001B
:103550000E0000000F0000002E000000100100000F
:1035600043000000F8FFFFFF004040404040404063
:103570004040414141414140404040404040404046
:1035800040404040404040404005020202020202EA
:103590000202020202020202022020202020202039
:1035A000202020020202020202029090909090904D
:1035B000101010101010101010101010101010100B
:1035C000101010100202020202028888888888887F
:1035D000080808080808080808080808080808086B
:1035E0000808080802020202400000000000000073
:1035F00000000000000000000000000000000000CB
:1036000000000000000000000000000000000000BA
:1036100000000000000000000000000000000000AA
:10362000000000000000000000000000000000009A
:10363000000000000000000000000000000000008A
:10364000000000000000000000000000000000007A
:10365000000000000000000000000000000000006A
:10366000000000000000000000000000000000005A
:10367000000000000014014000140140001401404B
:103680000020004000800000050018000500180020
:10369000050018000000000000000000000000000D
:1036A0000100000000127A0000000000000000008D
:1036B000000000000000000000000000000000000A
:0C36C000000000000000000000000000FE
:040000050800018569
:00000001FF
