:020000040800F2
:1000000098560020650200081108000887030008C0
:100010000D0800086F070008A50E0008000000008A
:10002000000000000000000000000000AF0D00080C
:100030007307000800000000D3020008B10D00089B
:100040007F0200087F0200087F0200087F0200088C
:100050007F0200087F0200087F0200087F0200087C
:100060007F0200087F0200087F0200087F0200086C
:100070007F0200087F0200087F0200087F0200085C
:100080007F0200087F0200087F0200087F0200084C
:100090007F0200087F0200087F0200087F0200083C
:1000A0007F0200087F0200087F0200087F0200082C
:1000B0007F0200087F0200087F0200087F0200081C
:1000C0007F0200087F0200087F0200087F0200080C
:1000D0007F0200087F0200087F0200087F020008FC
:1000E0007F0200087F0200087F0200087F020008EC
:1000F0007F0200087F0200087F0200087F020008DC
:100100007F0200087F0200087F0200087F020008CB
:100110007F0200087F0200087F0200087F020008BB
:100120007F0200087F0200087F0200087F020008AB
:100130007F0200087F0200087F0200087F0200089B
:1001400000000000000000000000000000000000AF
:100150007F0200087F0200087F0200087F0200087B
:100160007F0200087F0200087F0200087F0200086B
:100170007F0200087F0200087F0200087F0200085B
:100180007F02000800F002F800F05CF80AA090E896
:10019000000C82448344AAF10107DA4501D100F042
:1001A00051F8AFF2090EBAE80F0013F0010F18BFB3
:1001B000FB1A43F001031847FC7900001C7A000089
:1001C0000A444FF0000C10F8013B13F0070408BF7D
:1001D00010F8014B1D1108BF10F8015B641E05D01B
:1001E00010F8016B641E01F8016BF9D113F0080FD0
:1001F0001EBF10F8014BAD1C0C1B09D16D1E58BF62
:1002000001F801CBFAD505E014F8016B01F8016B98
:100210006D1EF9D59142D6D370470000002300240B
:1002200000250026103A28BF78C1FBD8520728BF06
:1002300030C148BF0B6070471FB506F030FB1FBDD3
:1002400010B510BD00F04CFA1146FFF7F5FF00F0B5
:1002500089FA00F07EFA03B4FFF7F2FF03BC00F066
:1002600095FF00000948804709480047FEE7FEE780
:10027000FEE7FEE7FEE7FEE7FEE7FEE7FEE7FEE756
:1002800004480549054A064B70470000B90D0008AF
:100290008501000898160020985600209836002006
:1002A00098360020EFF3108072B6704780F3108804
:1002B0007047434A1368012B04D04FF001031360C9
:1002C000404A1060404A116040484FF08051016040
:1002D0007047EFF3108272B63948016851B34FF09E
:1002E000000101603748016891B1EFF309811EF008
:1002F000100F08BF21ED108B21E9F00F4FF0000423
:100300001EF0100F08BF012441F8044D0068016081
:100310002D490968096808C9B1E8F00F002B18BF1A
:10032000B1EC108B81F309884EF0100E002B18BF32
:100330002EF0100E82F310884EF0040E7047224902
:100340000860EFF3148222F0040282F314881D493E
:100350004FF0000008601A494FF0010008601C4887
:100360004FF47F01D0F8002041EA020101601748F4
:100370004FF08051016017480068006880F30888DA
:1003800061B662B670471EF0040F0CBFEFF3088031
:10039000EFF3098020E9F00F40F804ED40F804ED98
:1003A0001EF0040F0CBF80F3088880F3098800B5A5
:1003B00003F0C6F95DF804EB4EF0040E7047000040
:1003C0008C050020840500208805002004ED00E055
:1003D00020ED00E008ED00E0704700000FB4044994
:1003E00010B503AA029800F049F910BC5DF814FB9F
:1003F0003000002040EA0103024630B59B0710D1CF
:100400004FF0013400E008C208C91D1B9D4315EAE6
:10041000C41FF8D013F0FF0102F8011B0DD01B0A16
:10042000F8E711F8013B002B02F8013B05D011F869
:10043000013B002B02F8013BF3D130BD10B5431C4A
:1004400002E010F8011B71B18107FAD14FF00132BF
:1004500002C88C1A8C4314EAC211F9D0C01A0A06D9
:1004600003D0C01E10BDC01A10BD0A0401D0801EEA
:1004700010BD0902FCD0401E10BD40EA010370B55A
:100480009B072ED14FF00136042A2AD308C810C981
:100490009D1B9D43121F15EAC61517D0D8B2E1B2B5
:1004A000401A50EA056110D198B2A1B2401A50EA40
:1004B00005410AD123F07F4024F07F41401A50EAE1
:1004C000052102D1180EA0EB146070BDA342DBD051
:1004D00018BA21BA884201D9012070BD4FF0FF300F
:1004E00070BD0AB9002070BD10F8013B11F8014B36
:1004F00063B1A3420AD1521E08D010F8013B11F893
:10050000014B1BB1A34201D1521EEDD1181B70BD8E
:10051000421E12F8013F002BFBD111F8013B002BCA
:1005200002F8013BF9D1704710B5203AC0F00B80BA
:10053000B1E81850203AA0E81850B1E81850A0E8E7
:100540001850BFF4F5AF5FEA027C24BFB1E8185041
:10055000A0E8185044BF18C918C0BDE810405FEAB1
:10056000827C24BF51F8043B40F8043B08BF70472D
:10057000D20728BF31F8023B48BF11F8012B28BF32
:1005800020F8023B48BF00F8012B70474FF00002F3
:100590000429C0F0128010F0030C00F01B80CCF195
:1005A000040CBCF1020F18BF00F8012BA8BF20F803
:1005B000022BA1EB0C0100F00DB85FEAC17C24BF57
:1005C00000F8012B00F8012B48BF00F8012B704701
:1005D0004FF0000200B5134694469646203922BFDC
:1005E000A0E80C50A0E80C50B1F12001BFF4F7AF27
:1005F000090728BFA0E80C5048BF0CC05DF804EB09
:10060000890028BF40F8042B08BF704748BF20F876
:10061000022B11F0804F18BF00F8012B704710B566
:10062000044610F0030F08BF11F0030F40F01580CF
:100630004FF0013E121FC0F20E8051F8043BA3EBB5
:100640000E0C2CEA030C1CEACE1C08BF40F8043B3D
:10065000F0D0A1F1040102F10402521E08DB11F8EE
:10066000013B002B00F8013BF7D11146FFF78EFF4D
:10067000204610BD7047704770477047074B70B5F4
:100680000D467B4400F011F80446284600F020F89F
:1006900010B14FF0FF3070BD204670BDC71600008E
:1006A00001694A1C02610878704700B58FB0CDE936
:1006B00001310021059105497944CDE90310114626
:1006C000684600F032F80FB000BD0000E5FFFFFF04
:1006D000007B00F08000704700487047381600200B
:1006E0007546FFF7F9FFAE4605006946534620F010
:1006F0000700854618B020B5FFF7C2FDBDE82040D1
:100700004FF000064FF000074FF000084FF0000BCD
:1007100021F00701AC46ACE8C009ACE8C009ACE880
:10072000C009ACE8C0098D4670472DE9F041064686
:100730000024D6E90170F5688046304603E0414662
:10074000B847641C3046A8470028F8D12046BDE8C9
:10075000F08110B50446AFF300802046BDE810409C
:10076000FFF779BD10B504F0B1FF002010BD00BF48
:10077000FEE7704710B520210D4801F003FB032070
:1007800001F01EF840210A4801F0FCFA032001F0B4
:1007900017F84021064801F0F3FA032001F010F8A1
:1007A0002021034801F0ECFA032001F009F810BD04
:1007B0000008014010B520210A4801F0E3FA0320A7
:1007C00000F0FEFF4021074801F0DAFA032000F0B4
:1007D000F7FF4021034801F0D5FA032000F0F0FFB5
:1007E00010BD00000008014010B52021064801F0AE
:1007F000C9FA032000F0E4FF2021034801F0C0FA09
:10080000032000F0DDFF10BD0008014000BFFEE73F
:10081000704770B5002418E004F1B000002100F02A
:10082000BAFA0021084600F0B6FA0021102000F0C4
:10083000B2FA002505E00121002000F0ACFA681CA6
:10084000C5B2802DF7DB601CC4B2082CE4DB70BDA0
:100850001CB501210C4800F0E5FE684601F094FA51
:1008600001208DF8070000208DF8040010208DF87D
:1008700006006020009004208DF8050069460348BA
:1008800001F08DFA1CBD00000200180000080140B4
:1008900010B5FFF7DDFF0021AE2000F07CFA00214B
:1008A000084600F078FA0021102000F074FA0021C8
:1008B000402000F070FA0021B02000F06CFA002116
:1008C000812000F068FA0021FF2000F064FA002186
:1008D000A12000F060FA0021A62000F05CFA0021BF
:1008E000A82000F058FA00213F2000F054FA00211F
:1008F000C82000F050FA0021D32000F04CFA00216B
:10090000084600F048FA0021D52000F044FA002102
:10091000802000F040FA0021D82000F03CFA0021AD
:10092000052000F038FA0021D92000F034FA002127
:10093000F12000F030FA0021DA2000F02CFA00213A
:10094000122000F028FA0021DB2000F024FA002118
:10095000302000F020FA00218D2000F01CFA002148
:10096000142000F018FA0021AF2000F014FAFFF76D
:1009700050FF0021084600F001F810BD70B5044694
:100980000D4605F1B000002100F005FA102141EA02
:100990001410002100F0FFF904F00F00002100F016
:1009A000FAF970BD2DE9F05F07468A46154698466C
:1009B0004FF05B0B4FF0000928E000241CE0287882
:1009C000C4EBC401134A515C884213D151463846E6
:1009D000FFF7D4FF00260AE0C4EBC4010D4A11441E
:1009E000491C885D012100F0D6F9701CC6B2062EA4
:1009F000F2DB03E0601CC4B25C45E0DB00BF6D1CB1
:100A0000B81DC7B209F1010000F0FF09C145D4DBF0
:100A1000BDE8F09FA86800082DE9F04180460E4629
:100A20001546002731464046FFF7A8FF00240AE09C
:100A3000124A02EB8511085D012100F0ACF9781C27
:100A4000C7B2601CC4B2102CF2DB701CC1B24046AD
:100A5000FFF794FF00240CE06900491C074A02EBF1
:100A60004111085D012100F096F9781CC7B2601CA5
:100A7000C4B2102CF0DBBDE8F0810000380000208B
:100A80002DE9F0470746884616464FF05B090024DB
:100A90001BE0C4EBC4000F49085CB04213D14146CF
:100AA0003846FFF76BFF00250AE0C4EBC401094A92
:100AB0001144491C485D012100F06DF9681CC5B264
:100AC000062DF2DB03E0601CC4B24C45E1DB00BF45
:100AD000BDE8F087A86800082DE9F04780460E467B
:100AE00017464FF05E0900252FE005EB0510194968
:100AF000085CB84227D131464046FFF73FFF00244B
:100B00000AE005EB0511134A1144491C085D012157
:100B100000F041F9601CC4B2082CF2DB701CC1B2B9
:100B20004046FFF72BFF08240AE005EB0511094AB0
:100B30001144491C085D012100F02DF9601CC4B26C
:100B4000102CF2DB03E0681CC5B24D45CDDB00BFC5
:100B5000BDE8F087256B00082DE9F0432DED088BEB
:100B600085B007468946B0EE408A1446984600256F
:100B70000026B5EEC08AF1EE10FA0BD29FED660AA0
:100B800030EE480AB0EE408A2D2249463846FFF73B
:100B900077FF04E02B2249463846FFF771FF09E052
:100BA000052C03DD14B1601EC4B203E0A8F10100FE
:100BB00000F0FF0804EB08000728F1DCBCEEC80ACF
:100BC00010EE105A00EE105AB8EE400A38EE400A05
:100BD00010EE101A084605F0F1FD41EC1B0B9FEDDD
:100BE0004F0B53EC102B05F02BFB41EC1A0B9FED38
:100BF0004D0B53EC102B05F0F9FB41EC190B05F0F4
:100C0000C7FB064642F21070B5FBF0F00A21B0FBBC
:100C1000F1F201FB120030308DF80C004FF47A70C5
:100C2000B5FBF0F0B0FBF1F201FB120030308DF8B3
:100C30000D006420B5FBF0F0B0FBF1F201FB1200F7
:100C400030308DF80E000A20B5FBF0F0B0FBF1F269
:100C500001FB120030308DF80F000A20B5FBF0F1D7
:100C600000FB115030308DF8100042F21070B6FBCE
:100C7000F0F00A21B0FBF1F201FB120030308DF8E8
:100C800004004FF47A70B6FBF0F0B0FBF1F201FB18
:100C9000120030308DF805006420B6FBF0F0B0FB98
:100CA000F1F201FB120030308DF806000A20B6FB8D
:100CB000F0F0B0FBF1F201FB120030308DF80700CC
:100CC0000A20B6FBF0F100FB116030308DF808000F
:100CD000C4F1050103ABCA18B91DC8B22346494681
:100CE000FFF760FE611C01EB410107EB4101C8B257
:100CF0002E224946FFF7C4FEA11C01EB410107EB80
:100D00004101C8B2434601AA4946FFF74BFE05B070
:100D1000BDEC088BBDE8F08300000000F168E388BB
:100D2000B5F8D43E00000000006AF84070B50546F2
:100D30000E46144607E0227831462846FFF7A0FE0B
:100D4000641CA81DC5B220780028F4D170BD2DE91F
:100D5000F04106460F461446002517E0207880280B
:100D60000ADA227806EBC501C8B23946FFF7B4FEAD
:100D7000641C681CC5B209E0227806EBC501C8B244
:100D80003946FFF749FEA41CA81CC5B220780028EC
:100D9000E4D1BDE8F08170B504460D461DB1E0B266
:100DA00000F0CCF802E0E0B200F0B2F870BD70479D
:100DB00010B503F0EDF910BD1848006840F470005C
:100DC000164908601648006820F00100401C1449CC
:100DD000086000BF12480068C0F340000028F9D046
:100DE0000F48406820F003000D49486000BF0C48E0
:100DF0004068C0F381000028F9D10948006809491A
:100E00000840074908600020486008634FF41F004D
:100E10008860C803014980390860704788ED00E0A8
:100E200000100240FFFFF2FE1CB50A2003214FF420
:100E300080730022CDE90010104911A003F019FDC4
:100E4000124908600846006818B10846006803F0B7
:100E5000D3FE642002210B020022CDE900100C49D0
:100E60000CA003F006FD0E4908600846006818B1A2
:100E70000846006803F0C0FE1CBD00005D1F0008AE
:100E80004C45445468726561640000000000002015
:100E9000352F00084F4C45442D546872656164003D
:100EA0000400002000BFFEE72DE9F04105462C4676
:100EB0002021164800F064FF002622E0274607F0B4
:100EC0008007802F04D14021104800F05BFF03E031
:100ED00040210E4800F054FF6006040E032000F08D
:100EE0006FFC2021094800F04DFF032000F068FC52
:100EF0002021064800F044FF032000F061FC701C34
:100F0000C6B2082EDADBBDE8F0810000000801401F
:100F100010B50446FFF72EFC7820FFF7C5FFFFF75A
:100F200063FC0020FFF7C0FFFFF75EFC2046FFF7E1
:100F3000BBFFFFF759FCFFF73DFC10BD10B50446A1
:100F4000FFF718FC7820FFF7AFFFFFF74DFC4020BC
:100F5000FFF7AAFFFFF748FC2046FFF7A5FFFFF7C2
:100F600043FCFFF727FC10BD014609B9002070477C
:100F7000C8B220B1C8B20E4A105C401CF7E701F4B9
:100F80007F4028B10A48C1F30722805C0930EEE7B0
:100F900001F47F0028B10648C1F30742805C11309C
:100FA000E5E7034800EB116000781930DFE7000047
:100FB000BC73000803490868884201D001207047CB
:100FC0000020FCE7700500202DE9F04389B00546BC
:100FD0008946174600242DB94FF49B721C491DA069
:100FE00002F084F92FB940F2371219491AA002F021
:100FF0007DF900E0641C285D202804D0285D0928C4
:1010000001D04C45F6D324B94FF0FF3009B0BDE80C
:10101000F0832146284601F09DFE064616B94FF0A2
:10102000FF30F3E7202101A8FFF7D2FA01AA4946D1
:10103000284601F0F9FE8046B8F1000F02D14FF0CA
:10104000FF30E3E701A94046B04738600020DDE704
:10105000F8770008636D640072657470000000002A
:101060002DE9FC5F04468B4616461F46DDE90C9AC7
:10107000DDE90E5804F11C004060006000BFA6626C
:10108000E762C4F83090C4F834A02321D4E90C02FC
:1010900002F0EBFED4E90C3C63441A1F134BD4E975
:1010A0000A0102F063FC6062202D04DB96221049E5
:1010B00010A002F01BF93834A57165710020A06002
:1010C000C4F81480C4F81880206020712065606521
:1010D000383C00902346104A2146019004F1540008
:1010E00004F002F80020BDE8FC9F0000D148000891
:1010F000D77500087072696F72697479203C20524C
:10110000545F5448524541445F5052494F524954EC
:10111000595F4D4158000000494D00082DE9F04746
:1011200004460E4617469846DDF8209084F8119044
:10113000607C20F0010060746662A762002020637A
:10114000C4F82C80002506E004F11C0101EBC50069
:1011500002F0C6FC6D1C012DF6DBBDE8F08710B572
:101160000246002001460EE002F11C0303EBC10021
:10117000D0E900436360D0E9003423604060006040
:1011800000BF481C01460129EEDB10BD00BF7047BF
:1011900010B500F0F9FA002000F030F8012000F05E
:1011A0002DF8022000F02AF8002000F04FF801206E
:1011B00000F04CF8022000F049F800F001F810BDF2
:1011C0001CB501210B4800F02DFA684600F0DCFD4B
:1011D00001208DF8070000208DF804008DF806002E
:1011E0000120009028208DF805006946024800F093
:1011F000D6FD1CBD02001800000801401CB50446C5
:101200000F4951F82400012100F00CFA684600F063
:10121000BBFD01208DF8070000208DF80400102090
:101220008DF80600074830F81400009004208DF86F
:101230000500054951F82400694600F0B0FD1CBDC9
:101240001C0000201400002008000020022800DDFF
:101250007047064931F8101031B1044931F81010C7
:10126000034A52F82020116100BFF1E7140000206A
:1012700008000020022800DD7047094931F81010ED
:1012800059B1084951F82010C968054A32F81020B0
:101290005140044A52F82020D16000BFECE7000022
:1012A000140000200800002010B520A002F0FAFB76
:1012B0002148017821A002F0F5FB1F48007800F0DA
:1012C000010010B123A002F0EDFB1B48007800F0F4
:1012D000020010B122A002F0E5FB1748007800F0F0
:1012E000040010B121A002F0DDFB1348007800F0EB
:1012F000080010B121A002F0D5FB0F48007800F0E3
:10130000100010B120A002F0CDFB0B48007800F0D7
:10131000800030B108480F3001681DA002F0C2FB08
:1013200002E01FA002F0BEFB10BD0000627573203A
:101330006661756C743A0A0029ED00E05343425F20
:10134000434653525F424653523A30782530325822
:101350002000000049425553455252200000000031
:10136000505245434953455252200000494D505276
:10137000454349534552522000000000554E5354F6
:101380004B4552522000000053544B45525220000E
:101390005343422D3E424641523A253038580A00C6
:1013A0000A00000070B504460D4600F0B7FF0020AB
:1013B00070BD70B504460D4601F0B2F9002070BD55
:1013C0000349496860F30711014A51607047000002
:1013D000001002400349496860F30A21014A516044
:1013E00070470000001002400349496860F3CD21B6
:1013F000014A51607047000000100240012807D1E7
:101400000749496D21F030013031054A516505E049
:101410000349496D21F03001014A516570470000D0
:1014200000100240052827D2DFE800F0030A111857
:101430001F00134A126861F30002114B1A601CE08E
:101440000F4A126861F310420D4B1A6015E00C4A06
:10145000126861F318620A4B1A600EE0084A126AB9
:1014600061F30002064B1A6207E0054A526A61F313
:101470000002034B5A6200E000BF00BF704700004B
:10148000001002402DE9F04101460027002200250E
:1014900090460023002400F06FF9064626B1012E85
:1014A00012D0022E43D112E03948406DC0F34020E3
:1014B00038B13748006BC0F3406010B13548086060
:1014C00001E03548086035E03348086032E03048D4
:1014D0004068C0F300482E484068C0F383422C485F
:1014E0004068C0F341750DB90F2A03D12801401C93
:1014F000024400E0921CB8F1000F03D1274850438A
:10150000086013E022484068C0F3404058B12048CA
:10151000406DC0F30137B81CDFF87CC0BCFBF0F0B5
:101520005043086002E01C485043086002E01A483B
:10153000086000BF00BF16484068C0F30313184896
:10154000C45C0868E040486011484068C0F302236A
:101550001448C45C4868E040C8600D484068C0F367
:10156000C2231148C45C4868E0408860084840686D
:10157000C0F3007306484068C0F3813040EA83033B
:101580000A48C45C8868B0FBF4F00861BDE8F081EB
:1015900000100240006CDC0200127A0000093D00DD
:1015A00073710008837100088B7100089371000843
:1015B00010B501460020094B03EB1142126801F0FF
:1015C0001F040123A3401A4001F01F040123A3407C
:1015D0009A4200D000E0012010BD0000001002403F
:1015E0000349496D60F30D31014A516570470000B0
:1015F0000010024030B50024002500E0641C1120DA
:10160000FFF7D6FF012802D0B4F5405FF6D31120D2
:10161000FFF7CEFF012801D0002500E00125284674
:1016200030BD000010B501290DD10E4B03EB104267
:10163000126800F01F040123A3401A43094C04EB75
:1016400010431A600CE0074B03EB1042126800F0E5
:101650001F040123A3409A43024C04EB10431A6079
:1016600010BD00000010024010B568B91C4B5B684B
:1016700023F480331A4C636023461B6B23F0007302
:1016800003F10073236317E0154B5B6823F4803389
:1016900003F58033124C6360012805D123465B6853
:1016A00023F40033636007E00D4B5B6823F40033E1
:1016B00003F500330A4C6360094B5B6861F39543A3
:1016C000074C63600C09064B5B6864F35E73044C63
:1016D000636023465B6862F3DF73636010BD0000E4
:1016E000001002401348006820F00100401C11491E
:1016F000086000BF0F480068C0F340000028F9D020
:101700000C48406820F003000A49486000BF0948BF
:101710004068C0F381000028F9D1064800680649F6
:101720000840044908600020486008634FF41F0027
:101730008860704700100240FFFFF2FE0D494968C3
:1017400060F301010B4A516000BF00BF00BF00BF42
:1017500000BF00BF00BF00BF00BF00BF00BF00BF91
:1017600000BF00BF00BF00BF00BF00BF00BF00BF81
:10177000704700000010024002484068C0F381003A
:10178000704700000010024010B5042004F0C0F8BB
:10179000074800680749B0FBF1F0074908600846B0
:1017A00000684FF47A7148430449086010BD000096
:1017B000C404002040420F00280000202C0000201C
:1017C00001460020114A12684A434FF0E0235A6153
:1017D00000229A611A46126942F001021A6100BFA2
:1017E0004FF0E022106900F001021AB100F48032DB
:1017F000002AF5D04FF0E022126922F001024FF0EA
:10180000E0231A6100229A6170470000280000203E
:1018100010B51448006890F82900C0F3400020B9C2
:10182000002011490870084610BD1048006838B102
:1018300080220E4801680C48FEF7F1FE0A48F3E7E3
:1018400001F0F0FA20B10AA10748FEF7D3FD03E04A
:1018500009A10548FEF7CEFD09A10348FEF758FE91
:101860000148E1E7A405002024110020A80500207C
:101870006D7368200000000066696E7368200000C8
:101880003E00000010B501F011FF10BD10B5044678
:101890000948006820B9A322084909A001F026FDE3
:1018A0000548006890F8290064F34100024909687E
:1018B00081F8290010BD0000A40500201C78000854
:1018C0007368656C6C20213D2052545F4E554C4C22
:1018D00000000000024A1060024A116070470000D8
:1018E00094050020980500207CB50025174918486C
:1018F000FFF7F0FF8021012001F032FD154908605B
:101900000846006820B914A002F0CCF8681E7CBD1F
:101910000A2015214FF400730022CDE9001014496C
:1019200014A002F0A6FF044600231A4613A109489A
:10193000006802F0F9FC0120FFF7A8FF1CB115B9FF
:10194000204603F059F90020E1E70000B47B0008CD
:10195000C47A0008A40500206E6F206D656D6F725B
:101960007920666F72207368656C6C0A0000000055
:1019700085190008747368656C6C00007368727870
:1019800000000000E948006890F8290020F00100FC
:10199000401CE649096881F82900FFF739FF054630
:1019A00002F080F8C1E1FFF76DFF0446002C00DA79
:1019B000BBE11B2C05D10120DC49096881F8280016
:1019C000B3E1DA48006890F8280001280DD15B2CBB
:1019D00005D10220D549096881F82800A5E1002039
:1019E000D249096881F8280045E0D048006890F89D
:1019F000280002283FD10020CC49096881F828003E
:101A0000412C00D191E1422C00D18EE1442C11D126
:101A1000C6480068B0F87C0058B1C5A002F042F892
:101A2000C2480068B0F87C00401EC0490968A1F8AF
:101A30007C007AE1432C1ED1BC480068B0F87C00E1
:101A4000BA490968B1F87A10884213DAB7480068D1
:101A5000B0F87C20B54800682A30815CB5A002F05F
:101A600021F8B2480068B0F87C00401CAF49096812
:101A7000A1F87C0059E10CB1FF2C00D155E1092CF3
:101A80001FD1002503E0AAA002F00CF86D1CA748A6
:101A90000068B0F87C00A842F5DCA44800682A3051
:101AA00003F02AFEA14800682A30FEF7C7FC80B286
:101AB0009E490968A1F87A009C490968A1F87C0050
:101AC00033E17F2C01D0082C6ED198480068B0F823
:101AD0007C0000B929E195480068B0F87A00401E02
:101AE00092490968A1F87A0090480068B0F87C0033
:101AF000401E8E490968A1F87C008C480068B0F847
:101B00007A008A490968B1F87C1088423FDD874B2A
:101B10001B68B3F87A30854E3668B6F87C609A1B3D
:101B2000824B1B68B3F87C305B1C804E36682A36CB
:101B300099197E4B1B68B3F87C607C4B1B682A3379
:101B4000F01802F071F9002278480068B0F87A10B5
:101B5000764800682A30425474480068B0F87C2007
:101B6000724800682A30111873A001F09BFF6F487B
:101B70000068B0F87C5003E06DA001F093FF6D1C8D
:101B80006A480068B0F87A00A842F5DA0BE06CA069
:101B900001F088FF002165480068B0F87A206348AA
:101BA00000682A308154C0E00D2C01D00A2C2BD1C2
:101BB00001F038F9012812D15C48006890F829003A
:101BC00000F0010010B15FA001F06CFF5748006801
:101BD000B0F87A10554800682A3001F085F8FFF710
:101BE00017FE054601F05EFF5021504800682A307C
:101BF000FEF7CCFC00204D490968A1F87A004B495A
:101C00000968A1F87C0090E048480068B0F87A00C4
:101C1000502804DB002045490968A1F87A004348B0
:101C20000068B0F87C0041490968B1F87A10884230
:101C300045DA3E4B1B68B3F87A303C4E3668B6F84E
:101C40007C609A1B394B1B68B3F87C60374B1B6870
:101C50002A33F118354B1B68B3F87C305B1C334ECC
:101C600036682A36981902F0DFF830480068B0F874
:101C70007C202E4800682A3084542C48006890F854
:101C8000290000F0010050B128480068B0F87C201D
:101C9000264800682A3011182BA001F003FF2348C2
:101CA0000068B0F87C5003E021A001F0FBFE6D1C41
:101CB0001E480068B0F87A00A842F5DC12E01B4824
:101CC0000068B0F87A20194800682A308454174810
:101CD000006890F8290000F0010018B1214615A015
:101CE00001F0E0FE002411480068B0F87A00401CC2
:101CF0000E490968A1F87A000C480068B0F87C0029
:101D0000401C0A490968A1F87C0008480068B0F83E
:101D10007A00502808DB002004490968A1F87A00FD
:101D200002490968A1F87C0000BF3CE6A405002038
:101D3000080000002563000008257320200800002B
:101D4000082008000A0000002573000070B5044652
:101D50000D4600BF8021094804F01CFA0028F9D084
:101D6000A1B2064804F004FA00BF4021034804F081
:101D700011FA0028F9D0204670BD0000003801405B
:101D800041617047016170474FF6FF7101600021AA
:101D900081710171042141710121C1717047F0B558
:101DA0000A461588ABB29579032D01D100241AE0BB
:101DB000957965B9557905F00F045579182D01D13C
:101DC000036110E05579282D0DD143610BE0957921
:101DD00005F00805167906F004063543D67906F0B5
:101DE000030645EA0604DDB2A5B1002110E0012595
:101DF0008D401D405DB105688F000F26BE40B54384
:101E0000056005688E0004FA06F635430560491C36
:101E10000829ECD3FF2B15DD1B12002110E0012552
:101E20008D401D405DB145688F000F26BE40B54313
:101E3000456045688E0004FA06F635434560491C46
:101E40000829ECD3F0BD00001CB5052019214FF482
:101E500000730022CDE90010104911A002F009FD25
:101E6000114908600846006818B10846006802F089
:101E7000C3FE052018214FF400730022CDE90010A5
:101E80000A490BA002F0F5FC0B49086008460068FF
:101E900018B10846006802F0AFFE1CBD8159000869
:101EA0007468726561643100B8050020315B000818
:101EB0007468726561643200BC05002010B5144876
:101EC000006800F0020010B112A001F0EBFD104814
:101ED000006800F0804088B10D48C01E007808B14D
:101EE000FFF7E2F90A48001F007808B100F038FE59
:101EF0000748801E008808B104F0C2F80448006852
:101F000000F0004010B109A001F0CCFD10BD0000B0
:101F10002CED00E06661696C656420766563746F22
:101F2000722066657463680A00000000646562756B
:101F300067206576656E740A0000000010B502A087
:101F400001F0B0FD002010BD48656C6C6F2052544C
:101F50002D546872656164210A00000006E00220C9
:101F6000FFF788F94FF47A7002F0B2FDF7E700004E
:101F700010B50CA001F096FD0F4804680CE0022299
:101F80000EA12068FEF779FA00B904E00CA02168E0
:101F900001F088FD00BF08340A4800688442EED38F
:101FA000002010BD2D2D46756E6374696F6E204C38
:101FB0006973743A0A000000940500205F5F000016
:101FC00025730A00980500202DE9F04F8FB00027F7
:101FD0000FF2C009082302AA04210AA800F096F80B
:101FE0004FF010084A4641462CA001F05BFD4046E8
:101FF00000F092FF32A001F055FD00BF0AA938465B
:1020000000F099F8074600253BE002A850F82500AB
:10201000A0F11406FEF746F98346307C20F08000DC
:102020009DF83010884203D05846FEF73FF927E06C
:102030005846FEF73BF9344604F11C0001F07FFDE1
:10204000A8B904F11C0001F082FD8246606A2346B3
:1020500010224146CDE9000A21A001F023FD04F140
:102060001C0003F065FB15A001F01CFD07E0606A91
:1020700023461022414600901FA001F013FD00BF2F
:102080006D1C0E98A842C0DC002FB7D100200FB005
:10209000BDE8F08F6576656E74000000252D2A2E50
:1020A0007320202020202073657420202020737549
:1020B0007370656E64207468726561640A00000064
:1020C00020202D2D2D2D2D2D2D2D2D2D202D2D2D67
:1020D0002D2D2D2D2D2D2D2D2D2D2D0A0000000007
:1020E000252D2A2E2A732020307825303878202577
:1020F0003033643A00000000252D2A2E2A73202058
:1021000030782530387820300A0000002DE9F0477B
:1021100004460D4616461F46284601F09DFF81469F
:1021200009F10408C4F8008025726660E7600020A9
:102130002061BDE8F0872DE9F84F07460C464FF0C7
:10214000000A00202061E06808B1207A10B9002060
:10215000BDE8F88FD4F800801FB945464FF0010A5A
:1021600000E03D46FEF79EF80090BAF1000F0ED158
:10217000A5F1140B9BF8100020F08000217A884212
:1021800004D00098FEF792F80020E1E700BF002697
:10219000D4F804900BE02D68454501D1002507E0F7
:1021A000761C49F8045BE068B04200D100E0F2E739
:1021B00000BF0098FEF77AF826612846C8E70000BD
:1021C0002DE9F04F91B000270FF2D409082304AA9B
:1021D00005210CA8FFF79AFF4FF010084A46414628
:1021E00031A001F05FFC404600F096FE37A001F000
:1021F00059FC00BF0CA93846FFF79DFF0746002594
:1022000045E004A850F82500A0F11406FEF74AF8AE
:102210008346307C20F080009DF83810884203D03F
:102220005846FEF743F831E05846FEF73FF834468B
:1022300004F11C0001F083FCB8B904F11C0001F0AA
:1022400086FC8246208D618D23461022CDE9010A4D
:102250000091414624A001F025FC04F11C0003F08C
:1022600067FA27A001F01EFC0FE004F11C0001F04A
:102270006EFC8246208D618D23461022CDE9010A35
:10228000009141461FA001F00DFC00BF6D1C10988D
:10229000A842B6DC002FADD1002011B0BDE8F08F10
:1022A0006D61696C626F7800252D2A2E7320656E32
:1022B0007472792073697A652073757370656E64C2
:1022C000207468726561640A00000000202D2D2DC5
:1022D0002D20202D2D2D2D202D2D2D2D2D2D2D2D55
:1022E0002D2D2D2D2D2D0A00252D2A2E2A7320254A
:1022F0003034642020253034642025643A00000006
:102300000A000000252D2A2E2A732025303464204F
:1023100020253034642025640A00000010B50848E8
:10232000016808A001F0BEFB0B4801680BA001F09A
:10233000B9FB0F4801680FA001F0B4FB10BD00000D
:10234000E4040020746F74616C206D656D6F7279A8
:102350003A2025640A000000E804002075736564D3
:10236000206D656D6F7279203A2025640A000000A7
:10237000EC0400206D6178696D756D20616C6C6F87
:102380006361746564206D656D6F72793A202564B0
:102390000A0000002DE9F04F8FB000270FF2CC09A2
:1023A000082302AA06210AA8FFF7B0FE4FF0100882
:1023B0004A46414630A001F075FB404600F0ACFDB6
:1023C00034A001F06FFB00BF0AA93846FFF7B3FE47
:1023D0000746002541E002A850F82500A0F11406A8
:1023E000FDF760FF8346307C20F080009DF83010C0
:1023F000884203D05846FDF759FF2DE05846FDF7B7
:1024000055FF344604F11C0001F099FBA8B904F112
:102410001C0001F09CFB8246A08D23461022414601
:10242000CDE9000A21A001F03DFB04F11C0003F0FE
:102430007FF923A001F036FB0DE004F11C0001F050
:1024400086FB8246A08D234610224146CDE9000A34
:102450001CA001F027FB00BF6D1C0E98A842BADC3F
:10246000002FB1D100200FB0BDE8F08F6D73677100
:102470007565756500000000252D2A2E7320656E98
:102480007472792073757370656E642074687265F8
:1024900061640A00202D2D2D2D20202D2D2D2D2D78
:1024A0002D2D2D2D2D2D2D2D2D0A0000252D2A2EE3
:1024B0002A732025303464202025643A000000006F
:1024C0000A000000252D2A2E2A732025303464208E
:1024D0002025640A000000002DE9F04F91B000278C
:1024E0000FF2A009082304AA03210CA8FFF70EFE8F
:1024F0004FF010084A46414624A001F0D3FA404666
:1025000000F00AFD2AA001F0CDFA00BF0CA9384660
:10251000FFF711FE074600262AE004A850F826001F
:10252000A0F11404FDF7BEFE8346207C20F080005D
:102530009DF83810884203D05846FDF7B7FE16E0E4
:102540005846FDF7B3FE254605F11C0001F0FFFAE1
:10255000824695F827001022A96A2B46CDE9020A87
:10256000CDE9002141461AA001F09CFA00BF761C7B
:102570001098B042D1DC002FC8D1002011B0BDE8C6
:10258000F08F00006D75746578000000252D2A2EEF
:10259000732020206F776E65722020686F6C642036
:1025A00073757370656E64207468726561640A0087
:1025B000202D2D2D2D2D2D2D2D202D2D2D2D202D72
:1025C0002D2D2D2D2D2D2D2D2D2D2D2D2D0A0000B8
:1025D000252D2A2E2A7320252D382E2A73202530CA
:1025E00034642025640A00002DE9F04F8FB00027E5
:1025F0000FF2CC09082302AA02210AA8FFF786FDE0
:102600004FF010084A46414630A001F04BFA4046D0
:1026100000F082FC34A001F045FA00BF0AA9384658
:10262000FFF789FD0746002541E002A850F8250084
:10263000A0F11406FDF736FE8346307C20F08000C2
:102640009DF83010884203D05846FDF72FFE2DE04C
:102650005846FDF72BFE344604F11C0001F06FFADA
:10266000A8B904F11C0001F072FA8246A08C23463E
:1026700010224146CDE9000A21A001F013FA04F12D
:102680001C0003F055F817A001F00CFA0DE004F15E
:102690001C0001F05CFA8246A08C234610224146C1
:1026A000CDE9000A1AA001F0FDF900BF6D1C0E98DB
:1026B000A842BADC002FB1D100200FB0BDE8F08FE6
:1026C00073656D6170686F7265000000252D2A2E9C
:1026D00073207620202073757370656E6420746893
:1026E000726561640A000000202D2D2D202D2D2DF6
:1026F0002D2D2D2D2D2D2D2D2D2D2D0A00000000E1
:10270000252D2A2E2A7320253033642025643A0093
:10271000252D2A2E2A7320253033642025640A00B3
:102720002DE9F04FB5B04FF000090FF21C1B082344
:1027300027AA01212FA8FFF7E9FC4FF0100A5A46FB
:102740005146434801F0AEF9504600F0E5FB41A088
:1027500001F0A8F900BF2FA94846FFF7ECFC81461D
:102760004FF0000865E027A850F82800A0F11405F4
:10277000FDF798FD3490287C20F080009DF8C4106F
:10278000884203D03498FDF791FD50E0902229460D
:1027900003A8FDF7C9FE3498FDF788FD2C4694F890
:1027A0003D0023461022514600903AA001F07AF9EC
:1027B00094F83C0000F00F06012E03D138A001F080
:1027C00071F915E0022E03D138A001F06BF90FE08A
:1027D0001EB939A001F066F90AE0042E03D139A030
:1027E00001F060F904E0032E02D139A001F05AF99A
:1027F000276B00E07F1C38782328FBD0D4E90C102D
:10280000791A401A64214843616BB0FBF1F00290E1
:10281000A16B206DCDE90001636A206BC01A636B68
:10282000C1181A462DA0029B01F03CF900BF08F127
:1028300001083398404596DCB9F1000F8BD1002098
:1028400035B0BDE8F08F0000746872656164000007
:102850006C7A0008202D2D2D20202D2D2D2D2D2D95
:102860002D202D2D2D2D2D2D2D2D2D2D202D2D2DB2
:102870002D2D2D2D2D2D2D20202D2D2D2D2D2D20AF
:10288000202D2D2D2D2D2D2D2D2D2D202D2D2D0AB5
:1028900000000000252D2A2E2A73202533642000F5
:1028A0002072656164792020000000002073757338
:1028B00070656E640000000020696E69742020203D
:1028C0000000000020636C6F736520200000000092
:1028D0002072756E6E696E670000000020307825EA
:1028E0003038782030782530387820202020253066
:1028F0003264252520202030782530387820253076
:1029000033640A002DE9F04790B000270FF2B409B4
:10291000082303AA0A210BA8FFF7F8FB4FF01008C1
:102920004A46414629A001F0BDF8404600F0F4FABD
:1029300030A001F0B7F800BF0BA93846FFF7FBFB4A
:10294000074600262DE003A850F82600A0F1140445
:10295000FDF7A8FC8246207C20F080009DF8341012
:10296000884203D05046FDF7A1FC19E05046FDF720
:102970009DFC2546D5E90B012B461022CDE900012F
:10298000414625A001F08EF8687C00F0010018B1E6
:1029900027A001F087F802E028A001F083F800BF2B
:1029A000761C0F98B042CEDC002FC5D102F074FA2D
:1029B0000446214625A001F075F8002010B0BDE8BE
:1029C000F087000074696D6572000000252D2A2EC5
:1029D000732020706572696F6469632020207469B8
:1029E0006D656F757420202020202020666C616743
:1029F0000A000000202D2D2D2D2D2D2D2D2D2D20CB
:102A00002D2D2D2D2D2D2D2D2D2D202D2D2D2D2D03
:102A10002D2D2D2D2D2D0A00252D2A2E2A73203007
:102A2000782530387820307825303878200000003C
:102A30006163746976617465640A0000646561634A
:102A4000746976617465640A0000000063757272CF
:102A5000656E74207469636B3A3078253038780A73
:102A600000000000FDF714FFFEF7DEF90BA0FDF7F4
:102A7000B5FC10A0FDF7B2FC19A0FDF7AFFC23A038
:102A8000FDF7ACFC2CA0FDF7A9FC06E00020FEF74A
:102A9000F1FB4FF47A7002F01BF8F7E748617264BB
:102AA000776172655F496E6974205B6F6B5D200DA5
:102AB0000A00000061745F73746172745F61343086
:102AC000336120626F6172642074657374696E672C
:102AD00020323032342D30332D30310D0A000000D9
:102AE00061745F73746172745F613430336120624A
:102AF0006F617264206D6F64756C6520736F6674AE
:102B0000696963206F6C6564200D0A0061745F73EE
:102B1000746172745F613430336120626F6172641A
:102B20002072746F732072742D74687265616420F2
:102B30006E616E6F200D0A0072742D74687265618B
:102B400064206E616E6F205B6F6B5D200D0A00006C
:102B500010B5044600F024FCFFF784FF10BD000010
:102B600010B51CA000F09EFF1F4801781FA000F0C8
:102B700099FF1D48007800F0010010B121A000F07D
:102B800091FF1948007800F0020010B120A000F079
:102B900089FF1548007800F0080010B11FA000F070
:102BA00081FF1148007800F0100010B11EA000F065
:102BB00079FF0D48007800F0800030B10A480C30F1
:102BC00001681CA000F06EFF02E01EA000F06AFF8A
:102BD00010BD00006D656D206D616E6167652066DA
:102BE00061756C743A0A000028ED00E05343425FBF
:102BF000434653525F4D4653523A3078253032584F
:102C0000200000004941434356494F4C200000003A
:102C10004441434356494F4C200000004D554E530C
:102C2000544B4552522000004D53544B45525220B4
:102C3000000000005343422D3E4D4D41523A253095
:102C400038580A000A0000002DE9F04781460026A6
:102C5000002799F8000028B90021084600F0A8F8DC
:102C6000BDE8F0871B48046827E006221AA1206807
:102C7000FDF703FC00B11FE0206800F1060848469C
:102C8000FDF7DCFB8246524641464846FDF7F5FB20
:102C900088B926B947463846FDF7D0FB0646414677
:102CA000384602F070FD0546B54200DA2E46414630
:102CB0000BA000F0F7FE00BF08340A480068844209
:102CC000D3D327B132463946484601F0BEFC00BF97
:102CD000C6E70000940500205F5F636D645F00003D
:102CE00025730A009805002038B504460D4601E01A
:102CF000641C6D1E20782028FAD020780928F7D08F
:102D00000DB9002038BD6A4629462046FEF75CF919
:102D100008B90098F6E7204600E0401C0178202919
:102D200002D001780029F8D100210170214603A0CA
:102D300000F0B8FE4FF0FF30E4E7000025733A20C2
:102D4000636F6D6D616E64206E6F7420666F756E5B
:102D5000642E0A002DE9F04106460D460027104872
:102D6000046815E006220FA12068FDF786FB00B17C
:102D70000DE02168881D2A463146FDF77EFB28B903
:102D8000A81D2168085C08B9676805E000BF083421
:102D9000064800688442E5D300BF3846BDE8F081AC
:102DA000940500205F5F636D645F0000980500205C
:102DB00070B505460E460EA000F074FE1348046878
:102DC0000DE0062212A12068FDF757FB00B105E0D7
:102DD0002068811D10A000F065FE00BF08340F4878
:102DE00000688442EDD30EA000F05CFE002070BDB0
:102DF00052542D546872656164207368656C6C2050
:102E0000636F6D6D616E64733A0A00009405002073
:102E10005F5F636D645F00002573200098050020EC
:102E20000A000000012070472DE9F04782460E4657
:102E3000904654460025002755E003E0002020700E
:102E4000641C6D1C2078202802D02078092801D12C
:102E5000B542F3D3082F12D326A000F023FE4FF083
:102E6000000906E058F829102AA000F01BFE09F11D
:102E70000109B945F6D326A000F014FE35E0B542AD
:102E800000D332E0207822281CD1641C6D1C48F845
:102E900027407F1C09E020785C2804D16078222834
:102EA00001D1641C6D1C641C6D1C2078222801D08B
:102EB000B542F0D3B54200D317E000202070641C67
:102EC0006D1C10E048F827407F1C01E0641C6D1C5D
:102ED0002078202804D02078092801D0B542F5D3E5
:102EE000B54200D301E0B542A7D300BF3846BDE8E4
:102EF000F0870000546F6F206D616E7920617267FA
:102F0000732021205765206F6E6C79205573653AC8
:102F10000A0000002573200010B5044602E004A05A
:102F200000F0C0FD201EA4F10104F8D110BD000086
:102F30002D000000412200210846FDF7CDFD1FA213
:102F400000211020FDF703FF20A202210020FDF741
:102F5000FEFE03231A469FED210A04212020FDF7DF
:102F6000FBFD1FA205212020FDF7E0FE0D2206211A
:102F70000020FDF751FD0E2206211020FDF74CFD2B
:102F80000F2206212020FDF747FD102206213020C8
:102F9000FDF742FD112206214020FDF73DFD13A261
:102FA00006215020FDF7C2FE06E00120FEF762F97F
:102FB0004FF47A7001F08CFDF7E700004154333292
:102FC0002D52542D546872656164000054696D651A
:102FD0003A323032342E30332E30310079E9F64235
:102FE00042793A436F646572456E6400736F66742C
:102FF000202D69696300000070B50446264800680A
:10300000844204D29422254925A000F06FF92C486F
:103010000068844204D3952220492AA000F066F972
:10302000608820B196221D4931A000F05FF91A494D
:10303000606809684518AC4215D0688898B920487E
:10304000006885420FD02E480068A84201D12C4864
:1030500004606868606010480068201A0E4A696859
:103060001268114488600C49A06809684618A64295
:1030700011D0708878B922480068A04201D1204858
:1030800006606068706004480068301A024A61682F
:1030900012681144886070BDD8040020E7740008ED
:1030A0002872745F75696E74385F74202A296D65A3
:1030B0006D203E3D20686561705F70747200000095
:1030C000DC0400202872745F75696E74385F7420A8
:1030D0002A296D656D203C202872745F75696E74B5
:1030E000385F74202A29686561705F656E6400002E
:1030F0006D656D2D3E75736564203D3D203000008B
:10310000E00400202DE9F04F86B00D469C46DDE935
:10311000106401960F9B04F04008B8F1000F02D034
:10312000DFF8708101E0DFF87081CDF8008004F0F5
:103130001008B8F1000F01D024F0010404F00108D8
:10314000B8F1000F02D04FF0300801E04FF0200836
:10315000C246002704F00208B8F1000F11D0002A7F
:1031600002DA2D2752420CE004F00408B8F1000FF7
:1031700001D02B2705E004F00808B8F1000F00D0BB
:103180002027002142B94FF0300B8846491C0DF131
:10319000080909F808B01DE01AE0E146B9F10A0F84
:1031A00008D14FF00A0BB2FBFBFE0BFB1E28B2FB53
:1031B000FBF202E002F00F08120900BFDDF80090F8
:1031C00019F808B08846491C0DF1080909F808B03B
:1031D000002AE2D1B14200DD0E469B1B04F011082B
:1031E000B8F1000F10D117B1002B00DD5B1E06E017
:1031F000A84203D24FF0200880F80080401CB3F1B1
:103200000008A3F10103F3DC27B1A84200D2077044
:103210005B1E401C04F01008B8F1000F0AD104E056
:10322000A84201D280F800A0401CB3F10008A3F12D
:103230000103F5DC06E0A84203D24FF0300880F825
:103240000080401CB046761E8845F4DC08E0A842A9
:1032500005D20DF1080818F8018080F80080401CA4
:10326000B1F10008A1F1010104DDDDF80480B8F13D
:10327000000FECD106E0A84203D24FF0200880F8FE
:103280000080401CB3F10008A3F10103F3DC06B099
:10329000BDE8F08FCD740008BC7400081CB5142084
:1032A0000A214FF480730022CDE90010074908A0DD
:1032B00001F0DFFA044624B9C322074907A000F051
:1032C00015F8204601F098FC1CBD0000512B0008A9
:1032D0006D61696E000000009B71000874696420D4
:1032E000213D2052545F4E554C4C0000F8B5044629
:1032F0000D461646002000900A48006858B933462B
:103300002A46214608A000F0CDFB00BF9DF8000032
:103310000028FBD005E0324629462046014B1B68B9
:103320009847F8BDD40400202825732920617373C1
:10333000657274696F6E206661696C656420617482
:103340002066756E6374696F6E3A25732C206C6904
:103350006E65206E756D6265723A2564200A000004
:1033600070B504460D4604FB05F000F00DFC064662
:103370002EB104FB05F20021304600F076FD304608
:1033800070BD000010B5044C02E020688047241D89
:1033900002488442F9D310BDB47A0008B87A000814
:1033A00010B5044C02E020688047241D0248844286
:1033B000F9D310BDB87A0008C07A000810B5FCF740
:1033C00071FF044604480088401C00B2024908808E
:1033D0002046FCF76BFF10BD6005002010B5FCF720
:1033E00061FF04460C480088401E00B20A4908806C
:1033F0000846B0F9000000280ADC002008802046BA
:10340000FCF754FF0548006828B100F0C9FE02E04F
:103410002046FCF74BFF10BD60050020640500202E
:1034200070B5054605B970BD00BFFCF73BFF064609
:1034300000F0D6FA48B13B493BA000F033FB4FF413
:103440000772384942A0FFF751FF3046FCF72EFFC4
:1034500000BF05F0030028B140F21E2231493DA013
:10346000FFF744FF48480068854203D34748006897
:10347000854205D340F21F222A494548FFF736FF0F
:1034800041480068854203D340480068854202D322
:1034900000BF00BFC7E7A5F10C0400BF00BF4FF09D
:1034A000FF313C4800F0B4FF608818B12088B0F5C7
:1034B000F55F08D038A000F0F5FA2388628821462D
:1034C0003CA000F0EFFA608828B940F23E2215498E
:1034D00044A0FFF70BFF2088B0F5F55F05D040F260
:1034E0003F22104942A0FFF701FF002060804FF407
:1034F000F550208045480068844201D2434804606A
:10350000214960680968611A401A41490968081A26
:103510003F4908602046FFF76FFD1E4800F03AFF64
:1035200000BF80E71B75000846756E6374696F6E97
:103530005B25735D207368616C6C206E6F74206214
:1035400065207573656420696E204953520A000036
:103550003000000028282872745F75696E74333259
:103560005F7429726D656D292026202852545F41B1
:103570004C49474E5F53495A45202D203129292077
:103580003D3D203000000000D8040020DC04002075
:1035900084790008FC0F0020746F20667265652036
:1035A0006120626164206461746120626C6F636B8E
:1035B0003A0A00006D656D3A203078253038782C55
:1035C000207573656420666C61673A2025642C2041
:1035D0006D6167696320636F64653A2030782530D8
:1035E00034780A006D656D2D3E75736564000000CA
:1035F0006D656D2D3E6D61676963203D3D204845D9
:1036000041505F4D4147494300000000E004002065
:10361000E804002000487047EC050020004870478F
:10362000EC0D002070B502F0BEF8FDF7B1FD4FF4CF
:10363000E13002F0EFFCFDF72BF9194800684FF478
:103640007A72B0FBF2F1481EB0F1807F00D31BE02C
:10365000481E4FF0E022506150170F22002804DB73
:1036600013071C0E0F4B1C5406E013071D0E0E4BC8
:1036700000F00F04241F1D5500BF00204FF0E02272
:1036800090610720106100BFFFF77CFEFFF7C6FFC7
:103690000446FFF7BFFF0546214600F0F1FF70BD6D
:1036A000C404002000E400E018ED00E010B54FF085
:1036B000FF3420210D4802F06DFD40B10B4802F0AF
:1036C00053FD04462021094802F05BFD0BE0082170
:1036D000064802F05FFD18B10821044802F051FDD0
:1036E0000A2001F0F5F9E0B210BD000000380140F9
:1036F00010B50446FFF762FE19E020780A280AD1C7
:103700000D210E4802F034FD00BF80210B4802F06D
:1037100041FD0028F9D014F8011B084802F028FDEB
:1037200000BF8021054802F035FD0028F9D020783F
:103730000028E2D1FFF752FE10BD00000038014022
:103740002DE9F041054605F128062C1D3348006897
:1037500040B1304631490968884707460FB9BDE88E
:10376000F08100BF2EA0216C00F09CF930A0616AAE
:1037700000F098F932A0A16A00F094F934A0E16A4F
:1037800000F090F936A0216B00F08CF938A0616848
:1037900000F088F93AA0A16800F084F93CA0E16843
:1037A00000F080F93EA0216900F07CF940A0616939
:1037B00000F078F942A0A16900F074F944A0E16931
:1037C00000F070F946A0216A00F06CF948A0616B26
:1037D00000F068F94AA0A16B00F064F94CA0E16B1D
:1037E00000F060F9287800F0040048B101F0BCF95D
:1037F000074639464AA000F055F9FEF791FF02E06E
:103800004FA000F04FF9287800F0100010B953A035
:1038100000F048F9FEF752FB00BFFEE790050020DC
:103820007073723A203078253038780A0000000032
:103830007230303A203078253038780A00000000A5
:103840007230313A203078253038780A0000000094
:103850007230323A203078253038780A0000000083
:103860007230333A203078253038780A0000000072
:103870007230343A203078253038780A0000000061
:103880007230353A203078253038780A0000000050
:103890007230363A203078253038780A000000003F
:1038A0007230373A203078253038780A000000002E
:1038B0007230383A203078253038780A000000001D
:1038C0007230393A203078253038780A000000000C
:1038D0007231303A203078253038780A0000000004
:1038E0007231313A203078253038780A00000000F3
:1038F0007231323A203078253038780A00000000E2
:10390000206C723A203078253038780A00000000A8
:103910002070633A203078253038780A00000000A3
:1039200068617264206661756C74206F6E207468C3
:10393000726561643A2025730D0A0D0A00000000CB
:1039400068617264206661756C74206F6E206861B6
:103950006E646C65720D0A0D0A0000004650552019
:10396000616374697665210D0A000000F0B50446B4
:103970000D461646301D20F007004438014600224F
:1039800003E00D4F41F82270521C112AF9D34D6209
:103990004FF0000CC1F828C0C1F82CC0C1F830C0ED
:1039A000C1F834C08B63CC634FF0807CC1F840C059
:1039B00000270F60F0BD0000EFBEADDE10B500BF08
:1039C00000BFFCF76FFC044604480078401C034924
:1039D00008702046FCF76AFC10BD0000CC040020F3
:1039E0000148007870470000CC04002010B500BFEB
:1039F00000BFFCF757FC044604480078401E03490A
:103A000008702046FCF752FC10BD0000CC040020DA
:103A100070B504462068A0F11C0500BF00BF284611
:103A200001F060F8002070BD2DE9F04105460C461C
:103A30009046204601F042F9B8F1000F03D0B8F1EA
:103A4000010F23D105E004F11C01284600F060F8C5
:103A50001CE02E680FE0A6F11C0794F83D0097F8D3
:103A60003D10884206DA04F11C0107F11C0000F049
:103A70004FF802E03668AE42EDD100BFAE4204D14D
:103A800004F11C01284600F043F800BF00BF0020ED
:103A9000BDE8F08110B5044604F11C0000F01AF8EE
:103AA000002010BD0FB438B505A800907F2108484C
:103AB000009B049A01F06AFC04467F2C00D97F2405
:103AC0000348FFF715FE0020009038BC5DF814FB9A
:103AD0007C0F0020406000607047406000607047CD
:103AE0004060006070470268516002680A600160CF
:103AF000486070470268516002680A60016048606F
:103B000070470268516002680A600160486070474F
:103B10004268116042684A6041600860704701462F
:103B20000868884201D1012070470020FCE7014667
:103B30000868884201D1012070470020FCE7014657
:103B40000868884201D1012070470020FCE7014647
:103B500000200A4601E01268401C13688B42FAD12B
:103B60007047D0E900215160D0E900121160406037
:103B700000607047D0E900215160D0E90012116067
:103B800040600060704700002DE9F047054615B918
:103B90000020BDE8F08700BFFCF784FB8146FFF7FB
:103BA0001FFF48B1754976A0FFF77CFF40F20B126A
:103BB00072497DA0FFF79AFB4846FCF777FB00BFF0
:103BC000E81C20F00300A84201D000BF01E000BFC4
:103BD00000BFE81C20F0030574480068854203D943
:103BE00000BF00BF0020D4E70C2D00D20C254FF001
:103BF000FF316F4800F00CFC6E4800686E490968A0
:103C0000461AB0E06C4800688419608800287BD1AF
:103C100006F10C006168081AA84275D306F10C0081
:103C20006168091A05F11800814230D306F10C00D1
:103C300000EB05086048006800EB08074FF4F550FA
:103C400038800020788060687860BE60C4F80480A6
:103C5000012060805548796800680C30814205D0A9
:103C60005549786809680844C0F8088053480168D5
:103C700005F10C0008445149086051480068096882
:103C8000884219D24D4800684D49086014E001206F
:103C90006080494960680968611A401A47490968A3
:103CA000084446490860464800680968884203D2CB
:103CB00042480068424908604FF4F55020803D4872
:103CC0000068844224D107E03A48006840683A49D5
:103CD000096808443749086036480068408828B1B8
:103CE00034480068374909688842EDD13148006896
:103CF0003449096888420BD02E480068408838B1A2
:103D000040F275121D4900E029E02FA0FFF7EEFAFE
:103D1000274800F03FFB04F10C00284429490968BA
:103D2000884205D940F2791214493148FFF7DEFA8A
:103D300004F0030028B14FF4BD7210492D48FFF77D
:103D4000D5FA04F0030028B140F27B120B492AA0F7
:103D5000FFF7CCFA00BF00BF04F10C0019E71648CA
:103D600000683044466811480068401BB0423FF686
:103D700049AF0F4800F00EFB00200AE70675000867
:103D800046756E6374696F6E5B25735D2073686141
:103D90006C6C206E6F742062652075736564206999
:103DA0006E204953520A000030000000E404002055
:103DB000FC0F0020E0040020D8040020E8040020CC
:103DC000EC040020DC04002028286C667265652065
:103DD0003D3D20686561705F656E6429207C7C20B4
:103DE00028216C667265652D3E757365642929000E
:103DF000E07900083879000828282872745F75690E
:103E00006E7433325F74296D656D29202620285227
:103E1000545F414C49474E5F53495A45202D20314C
:103E20002929203D3D20300070B50C46014623462F
:103E30008B4210D29D188D420DD91144134405E0D8
:103E40005D1E2B462E784D1E29462E70151EA2F1A2
:103E50000102F5D108E003E013F8015B01F8015B12
:103E6000151EA2F10102F7D170BDF0B50C46054652
:103E7000E6B2042A15D300F0030797B9014646EAD3
:103E8000062343EA034304E008C108C108C108C18E
:103E9000103A102AF8D201E008C1121F042AFBD2FE
:103EA0000D4601E005F8016B171EA2F10102F9D1E0
:103EB000F0BD00002DE9F04706460F4600BFFCF7B5
:103EC000F1F98146FFF78CFD48B11D491DA0FFF7B0
:103ED000E9FD4FF4AC721A4924A0FFF707FA4846EF
:103EE000FCF7E4F900BF304600F0B6F805462DB9FE
:103EF0004FF4AE7212491EA0FFF7F8F9E868FFF719
:103F000043FE044614B90020BDE8F0870021204696
:103F1000EA68FFF7AAFF2674002060741022394671
:103F2000204600F092FBFCF7BDF9804604F1140135
:103F3000281DFFF7D8FD4046FCF7B8F92046E3E717
:103F40004375000846756E6374696F6E5B25735D1B
:103F5000207368616C6C206E6F74206265207573CD
:103F6000656420696E204953520A00003000000049
:103F7000696E666F726D6174696F6E20213D2052AB
:103F8000545F4E554C4C000070B504462CB94FF4AC
:103F9000CB720F490FA0FFF7A9F9207C00F0800039
:103FA00028B140F297120A490FA0FFF79FF90020AD
:103FB0002074FCF777F9054604F11400FFF7D1FDF2
:103FC0002846FCF773F92046FFF72AFA70BD000077
:103FD000567500086F626A65637420213D20525453
:103FE0005F4E554C4C00000021286F626A65637477
:103FF0002D3E7479706520262052545F4F626A65A9
:1040000063745F436C6173735F5374617469632994
:104010000000000070B504462CB940F23512084982
:1040200008A0FFF763F900202074FCF73BF9054670
:1040300004F11400FFF795FD2846FCF737F970BD31
:10404000327500086F626A65637420213D20525406
:104050005F4E554C4C000000024600210AE0074824
:1040600000EB01100078904203D1044800EB0110EE
:104070007047491C0729F2DB0020F9E7F004002013
:1040800010B504462CB940F2CB12044904A0FFF746
:104090002DF9207C20F0800010BD00008175000803
:1040A0006F626A65637420213D2052545F4E554C07
:1040B0004C0000002DE9F04704460E4690460027CC
:1040C0003046FFF7C9FF054625B9FB22164917A060
:1040D000FFF70CF9FFF772F96F680AE0A7F114090E
:1040E000A14505D140F209120F4916A0FFF7FEF8CD
:1040F0003F68281D8742F1D1FFF770F946F0800034
:10410000207410224146204600F09FFAFCF7CAF8BE
:10411000824604F11401281DFFF7E5FC5046FCF728
:10412000C5F8BDE8F087000023750008696E666F6A
:10413000726D6174696F6E20213D2052545F4E553F
:104140004C4C00006F626A20213D206F626A6563FB
:104150007400000010B504462CB94FF4DC72064917
:1041600006A0FFF7C3F8207C00F0800008B1012012
:1041700010BD0020FCE70000677500086F626A65EB
:10418000637420213D2052545F4E554C4C0000007A
:1041900010B5FFF713FC00F085FEFFF727FC10BDFC
:1041A0002DE9F041FCF77EF807461A48008858BB15
:1041B00019480068FCF7D8FE461E184850F836002B
:1041C000A0F11C041648006884421CD015490E70EA
:1041D00013480568046000BF00BF1348007850B959
:1041E00004F1240105F12400FCF763F83846FCF7DC
:1041F0005DF8BDE8F08100BF00BF04F1240105F1C6
:104200002400FCF756F800BF3846FCF74FF800BF13
:10421000EFE70000600500206C050020241000205E
:104220006405002068050020CC04002070B5044619
:104230002CB94FF49172144914A0FFF757F8FCF70A
:1042400031F8054614F83C0F20F00F0040F0010053
:10425000207062783C3C124B03EBC20004F11C015D
:104260004268116042684A604160086000BF00BF58
:1042700000BF0C49206C096808430A4908602846B9
:10428000FCF714F870BD0000A3750008746872652F
:10429000616420213D2052545F4E554C4C0000007B
:1042A000241000206C05002070B504462CB94FF492
:1042B000A872154915A0FFF719F8FBF7F3FF05469B
:1042C00000BF00BF04F11C00D0E900215160D0E91B
:1042D000001211604060006000BF94F83D10104A69
:1042E00002EBC1000168814201D1012100E00021FF
:1042F00029B10C48216C006888430A4908602846A7
:10430000FBF7D4FF70BD0000BD75000874687265CE
:10431000616420213D2052545F4E554C4C000000FA
:10432000241000206C0500202DE9F04104460E46C3
:1043300015461F4624B9CA220C490DA0FEF7D6FF28
:10434000B5F5803F04D3CB2208490DA0FEF7CEFF80
:10435000324602212046FFF7ADFE2046FFF79AFBCA
:10436000A58467740020BDE8F0810000C5710008D5
:1043700073656D20213D2052545F4E554C4C00001A
:1043800076616C7565203C203078313030303055A6
:104390000000000070B504462CB940F2B512164971
:1043A00016A0FEF7A3FF2046FFF76AFE022805D0FD
:1043B0004FF4DB7210491548FEF798FF0025FBF714
:1043C00071FF064600BF00BF04F11C00FFF7A7FB0A
:1043D00028B904F11C00FFF71BFB012502E0A08CAB
:1043E000401CA0843046FBF761FF012D01D1FFF78F
:1043F000D7FE002070BD00000772000873656D20B5
:10440000213D2052545F4E554C4C0000F07800087E
:104410002DE9F34105462DB94FF4A4723B493CA068
:10442000FEF764FF2846FFF72BFE022805D040F276
:10443000491236493A48FEF759FFFBF733FF064663
:1044400000BF00BFA88C002806DDA88C401EA884F1
:104450003046FBF72BFF57E0019830B93046FBF7A9
:1044600025FF6FF00100BDE8FC8100BFFBF71AFFDC
:10447000074600F079FB48B924492AA0FFF712FB50
:1044800040F26912214935A0FEF730FF00BFFBF76B
:1044900009FF8046FFF7A4FA48B11C4930A0FFF796
:1044A00001FB40F2691219492CA0FEF71FFF40469C
:1044B000FBF7FCFE00BF3846FBF7F8FE00BF00F03C
:1044C00053FB04460020A06300BF00BF6A7C214666
:1044D00005F11C00FFF7A8FA019800280BDD00BFCA
:1044E00000BF01AA002104F1540000F037FD04F1DF
:1044F000540000F023FE3046FBF7D8FEFFF750FED5
:10450000A06B08B1A06BAEE70020ACE7FB71000820
:1045100073656D20213D2052545F4E554C4C000078
:10452000F078000846756E6374696F6E5B25735D85
:10453000207368616C6C206E6F74206265207573E7
:104540006564206265666F72652073636865647573
:104550006C65722073746172740A00003000000090
:1045600046756E6374696F6E5B25735D2073686159
:104570006C6C206E6F7420626520757365642069B1
:104580006E204953520A000008B509A0FFF78AFAC5
:104590000AA0FFF787FA12A0032301221946009010
:1045A00012A0FFF77FFA19A0FFF77CFA08BD000000
:1045B0000A205C207C202F0A000000002D2052548D
:1045C000202D2020202020546872656164204F70C7
:1045D00065726174696E672053797374656D0A0042
:1045E0004D6172202031203230323400202F207C67
:1045F000205C202020202025642E25642E25642088
:104600006275696C642025730A0000002032303026
:1046100036202D203230313920436F70797269672E
:1046200068742062792072742D74687265616420E8
:104630007465616D0A00000001460A4600E0521CE4
:1046400010780028FBD1501A704770B50346A2B10C
:1046500018460C4600BF14F8016B00F8016B3EB918
:1046600002E0002500F8015B551E2A1EF9D102E088
:10467000551E2A1EEFD100BF00BF184670BD0000B6
:104680002DE9F04705460E46E81C20F0030726F00A
:10469000030800BFFBF706FE8146FFF7A1F940B112
:1046A0002A492BA0FFF7FEF9C522284932A0FEF7C0
:1046B0001DFE4846FBF7FAFD00BFB8F1180F09D9F7
:1046C000A8F11800B84205D3A8EB070018382B4909
:1046D000086006E03246294629A0FFF7E3F9BDE865
:1046E000F0873648076000BF00BF04684FF4F550FC
:1046F0002080224800680C3060600020A06060804C
:104700002E496068096808442D4908604FF4F55047
:104710000968088001202A4909684880174800680C
:104720000C30274909684860144800680C30244957
:10473000096888600023012222A12448FFF7F4FDC4
:104740001E4800682249086000BFC8E7F2740008EC
:1047500046756E6374696F6E5B25735D2073686167
:104760006C6C206E6F7420626520757365642069BF
:104770006E204953520A000030000000E40400207B
:104780006D656D20696E69742C206572726F722080
:10479000626567696E206164647265737320307846
:1047A00025782C20616E6420656E642061646472DB
:1047B00065737320307825780A000000D804002043
:1047C000DC0400206865617000000000FC0F002020
:1047D000E004002010B500200C49088000BF00BF95
:1047E000002405E00A4901EBC400FFF776F9641CD8
:1047F000202CF7DB1F2007490870002006490860BD
:10480000064908600648FFF768F910BD60050020FA
:104810002410002068050020640500206C0500209D
:104820007005002070B508480068FCF79DFB451E28
:10483000064850F83500A0F11C040548046004F156
:104840002400FBF77CFD70BD6C05002024100020C7
:104850006405002010B5002405E0044901EBC40004
:10486000FFF73EF9641C002CF7D010BD780500203E
:1048700070472DE9FF5F06460F4690461D46DDE96D
:104880000EAB31460120FFF715FB8146B9F1000F51
:1048900003D1002004B0BDE8F09F2846FFF774F96B
:1048A000044624B94846FFF76FFB0020F2E7434671
:1048B0003A46314648468DE8300CFCF7D1FB484675
:1048C000E8E710B50446204600F054F910BD00009A
:1048D00070B513480468FBF7E5FC05462046FFF772
:1048E000E3FC042084F83C0004F1540000F092FB47
:1048F0002046FFF72FFC012806D1D4F8880018B90C
:104900002046FFF787FB04E004F11C010548FFF790
:10491000F1F82846FBF7CAFCFFF742FC70BD000027
:10492000640500207005002001E000F001F8FCE7BC
:1049300070B550E000BFFBF7B5FC0646FFF750F836
:1049400040B1284928A0FFF7ADF89922254930A0A9
:10495000FEF7CCFC3046FBF7A9FC00BFFBF7A2FC3E
:104960000546FCF727FB40B32A480068A0F11C0469
:1049700004F11C00D0E900215160D0E9001211605F
:104980004060006000BFFEF719FDD4F8880018B140
:104990002046D4F8881088472046FFF7DBFB012823
:1049A00008D12046FFF736FBFEF718FD2846FBF737
:1049B0007DFC70BDFEF712FD03E02846FBF776FC98
:1049C000F7E72846FBF772FC206BFEF729FD20462F
:1049D000FFF7DAFA00BFFCF7EDFA0028AAD100BF12
:1049E000E7E70000AF71000846756E6374696F6E8B
:1049F0005B25735D207368616C6C206E6F74206240
:104A000065207573656420696E204953520A000061
:104A100030000000700500201FB520201F21C200BB
:104A2000074BCDE90032CDE902100023054A06A16B
:104A3000074800F00FF8064800F0DEF81FBD000040
:104A40007C0E0020294900087469646C6500000030
:104A5000EC0D00202DE9FF5F04460D4617469846F1
:104A60000EAE96E8400E24B9E6220D490DA0FEF7E1
:104A70003DFC26B9E7220A490FA0FEF737FC2A467B
:104A800001212046FFF716FB43463A4629462046B9
:104A90008DE8400EFCF7E4FA04B0BDE8F09F00009A
:104AA000E775000874687265616420213D205254E6
:104AB0005F4E554C4C000000737461636B5F737400
:104AC00061727420213D2052545F4E554C4C0000C1
:104AD00070B50446204600F0C3F90546284600F0AC
:104AE00049F870BD70B504462CB940F2B52217499B
:104AF00017A0FEF7FBFB2046FFF7C2FA012805D0FE
:104B000040F2B62211491748FEF7F0FB00BF00BF84
:104B100094F83C0000F00F00022804D000BF00BF52
:104B20004FF0FF3070BDFBF7BDFB054604F11C00E4
:104B3000FFF720F804F1540000F0D4FB2846FBF7FF
:104B4000B5FB2046FFF772FB0020EBE75E7600081E
:104B500074687265616420213D2052545F4E554C4B
:104B60004C000000287A00080148006870470000E7
:104B70006405002031B5FBF795FB0546164804682F
:104B80002CB94FF4FB72154915A0FEF7AFFB204678
:104B9000FFF776FA012805D040F2F7120F491548C1
:104BA000FEF7A4FB204600F089F86A46002104F1D4
:104BB000540000F0D3F904F1540000F0BFFA284685
:104BC000FBF774FBFFF7ECFAA06B801C08B9002020
:104BD000A063002038BD0000640500202A7600088C
:104BE00074687265616420213D2052545F4E554CBB
:104BF0004C000000287A000810B504462CB94FF488
:104C00008672194919A0FEF771FB94F83C0000F078
:104C10000F0028B140F20D12134919A0FEF766FBF0
:104C20002046FFF72DFA012805D04FF487720E4970
:104C30002148FEF75BFB94F83E0084F83D0094F8B1
:104C40003D1001208840206400BF00BF022084F88E
:104C50003C002046FFF746FFFFF786FF08B1FFF74D
:104C60009FFA002010BD0000F67500087468726598
:104C7000616420213D2052545F4E554C4C00000091
:104C8000287468726561642D3E73746174202620F7
:104C900052545F5448524541445F535441545F4D10
:104CA00041534B29203D3D2052545F5448524541C9
:104CB000445F494E49540000287A000870B5044604
:104CC0002CB940F28A22194919A0FEF70FFB2046A1
:104CD000FFF7D6F9012805D040F28B221349194875
:104CE000FEF704FB00BF00BF94F83C0000F00F008B
:104CF000012804D000BF00BF4FF0FF3070BDFBF7AC
:104D0000D1FA054694F83C0020F00F0040F0020074
:104D100084F83C002046FFF7C7FA04F1540000F085
:104D2000E1FA2846FBF7C2FA0020E7E74C760008D4
:104D300074687265616420213D2052545F4E554C69
:104D40004C000000287A000870B505462C462CB9A6
:104D500040F2E222134914A0FEF7C8FA94F83C008E
:104D600000F00F00022805D040F2E3220D4913A005
:104D7000FEF7BCFA2046FFF783F9012805D04FF46F
:104D8000397208491C48FEF7B1FA6FF00100A063C0
:104D900004F11C00FEF7EEFE2046FFF747FAFFF78E
:104DA000FFF970BD6F760008746872656164202138
:104DB0003D2052545F4E554C4C00000028746872E0
:104DC0006561642D3E7374617420262052545F54D3
:104DD00048524541445F535441545F4D41534B2920
:104DE000203D3D2052545F5448524541445F535545
:104DF0005350454E44000000287A000870B5FBF778
:104E000051FA05461448046894F83C0000F00F007D
:104E100001281CD1D4E90710814218D004F11C00EC
:104E2000FEF7A8FE94F83D200C4B03EBC20004F102
:104E30001C014268116042684A604160086000BF1E
:104E40002846FBF733FAFFF7ABF9002070BD284680
:104E5000FBF72CFA0020F9E764050020241000205D
:104E60000146002902DA4FF0FF3014E04FF47A7265
:104E700091FBF2F24FF47A7302FB03F01A4691FBB6
:104E8000F2F302FB13124FF47A735A4302F2E73241
:104E900092FBF3F21044704701480068704700002D
:104EA000C804002010B50A480068401C0849086082
:104EB000FFF75AFE0446206D401E2065206D18B98C
:104EC000E06C2065FFF79AFF00F004F810BD0000C9
:104ED000C804002070B500BF00BFFFF7DDFF054626
:104EE000FBF7E0F906462AE01B480068A0F11C0425
:104EF000206B281A6FF0004188421FD22046FCF731
:104F00002EF9D4E909108847FFF7C6FF054600BF10
:104F100000BF607C00F0020058B1607C00F001002E
:104F200038B1607C20F001006074204600F006F982
:104F300005E0607C20F00100607400E004E00648B9
:104F4000FEF7F5FD0028CFD000BF3046FBF7AEF9E5
:104F500000BF00BF70BD00007805002070B504469A
:104F60000E4615462CB94FF4E772154915A0FEF709
:104F7000BDF92046FFF784F80A2805D040F2CF1289
:104F80000F4915A0FEF7B2F94EB1012E04D0022E42
:104F900008D0032E10D10AE0E06A28600CE02868EF
:104FA000E06209E0607C20F00200607404E0607C54
:104FB00040F00200607400BF00BF002070BD000020
:104FC000DB76000874696D657220213D2052545FC4
:104FD0004E554C4C0000000072745F6F626A65634E
:104FE000745F6765745F74797065282674696D6590
:104FF000722D3E706172656E7429203D3D205254C1
:105000005F4F626A6563745F436C6173735F546979
:105010006D65720070B5044624B9CF22124913A001
:10502000FEF764F92046FFF72BF80A2804D0D022B7
:105030000D4913A0FEF75AF92046FFF78BF820B967
:10504000D12209491DA0FEF751F9FBF72BF90546BE
:105050002046FCF784F82846FBF728F92046FEF79F
:10506000D9FF002070BD00009E76000874696D6550
:105070007220213D2052545F4E554C4C00000000E0
:1050800072745F6F626A6563745F6765745F747979
:105090007065282674696D65722D3E706172656E4B
:1050A0007429203D3D2052545F4F626A6563745FEE
:1050B000436C6173735F54696D65720072745F6FE6
:1050C000626A6563745F69735F73797374656D6F2A
:1050D000626A656374282674696D65722D3E70611D
:1050E00072656E74290000002DE9F84304460D46F0
:1050F00016461F46DDE9088924B9BA2209490AA0E3
:10510000FEF7F4F82A460A212046FEF7D3FF43466D
:105110003A4631462046CDF80090FBF7FFFFBDE848
:10512000F88300009076000874696D657220213D57
:105130002052545F4E554C4C000000002DE9F843BE
:1051400005462DB94FF49972464947A0FEF7CEF8AF
:105150002846FEF795FF0A2805D040F23312414950
:1051600046A0FEF7C3F8FBF79DF880462846FBF7FC
:10517000F6FF687C20F0010068744046FBF796F863
:105180006FF00041E86A884205D340F24312354986
:1051900049A0FEF7ABF8FFF77FFEE96A08442863F1
:1051A000FBF780F880464D4E009600242AE019E077
:1051B0005DF8242011681C2202EBC402881A026BDD
:1051C0002B6BD21A00D108E0026B2B6BD21A6FF056
:1051D00000439A4200D20CE000BF5DF82400006852
:1051E0004DF824005DF8240006EBC40149688842AC
:1051F000DED100BF2CB15DF824000830611C4DF8F1
:105200002100641C002CD2D035480068401C344971
:1052100008600846076805F11C010098FEF771FC5C
:10522000022412E007F0030060B9C4F1010305F1A4
:105230001C0202EBC301C4F101025DF82200FEF77B
:1052400060FC00E003E0BF08641C012CEAD900BF49
:10525000687C40F0010068744046FBF727F80020A6
:10526000BDE8F883BE76000874696D657220213D43
:105270002052545F4E554C4C0000000072745F6F1A
:10528000626A6563745F6765745F74797065282608
:1052900074696D65722D3E706172656E7429203D72
:1052A0003D2052545F4F626A6563745F436C617363
:1052B000735F54696D65720074696D65722D3E6926
:1052C0006E69745F7469636B203C2052545F54496B
:1052D000434B5F4D4158202F2032000078050020BD
:1052E0008005002070B504462CB940F2AB1212497B
:1052F00012A0FDF7FBFF2046FEF7C2FE0A2805D0EC
:105300004FF4D6720C4912A0FDF7F0FF607C00F05C
:10531000010010B94FF0FF3070BDFAF7C3FF05462A
:105320002046FBF71CFF2846FAF7C0FF607C20F000
:10533000010060740020EFE7CD76000874696D65A8
:105340007220213D2052545F4E554C4C000000000D
:1053500072745F6F626A6563745F6765745F7479A6
:105360007065282674696D65722D3E706172656E78
:105370007429203D3D2052545F4F626A6563745F1B
:10538000436C6173735F54696D6572002DE9FF4F63
:1053900089B0804644460A9808EB0006464504D288
:1053A0004FF0FF36A6EB08000A906FE10B980078EB
:1053B000252806D0B44202D20B9800782070641CD5
:1053C00061E1002526E00B98401C0B900B980078BB
:1053D0002D2802D145F010051CE00B9800782B28F1
:1053E00002D145F0040515E00B980078202802D181
:1053F00045F008050EE00B980078232802D145F00F
:10540000200507E00B980078302802D145F001050F
:1054100000E000E0D7E700BF4FF0FF370B980078BF
:1054200030380A2804D20BA800F09AF907460EE09B
:105430000B9800782A280AD10B98401C0B900C98E6
:1054400080C80C90002F02DA7F4245F010054FF023
:10545000FF390B9800782E281CD10B98401C0B901C
:105460000B98007830380A2804D20BA800F078F99D
:1054700081460AE00B9800782A2806D10B98401C38
:105480000B900C9850F8049B0C90B9F1000F01DAC6
:105490004FF00009002004900B980078682803D092
:1054A0000B9800786C2805D10B98007804900B9825
:1054B000401C0B900A2005900B9800786F2875D03F
:1054C0000CDC632813D004DC252870D058286FD159
:1054D0008DE064286DD06928F9D18FE070286AD0FA
:1054E000732825D0752878D07828F0D182E005F08F
:1054F000100040B904E0B44201D220202070641CA6
:10550000781E071EF7DC0C9810F8041B0C90C8B22C
:105510000790B44201D207982070641C04E0B442A2
:1055200001D220202070641C781E071EF7DCAAE040
:105530000C98006806900C98001D0C90069808B90D
:105540005CA006900698FFF777F88346B9F1000F44
:1055500002DDCB4500DDCB4605F0100048B904E084
:10556000B44201D220202070641C38467F1E58456A
:10557000F6DC002008900BE0B44202D206980078D6
:105580002070641C0698401C06900898401C0890E7
:1055900008985845F0DB04E0B44201D22020207086
:1055A000641C38467F1E5845F6DC6CE01CE015E0B4
:1055B00028E022E0FFE7781C10B9082745F0010534
:1055C000CDE9007902950C9804C8102331460C905F
:1055D0002046FDF797FD044655E012E0B44201D2A3
:1055E00025202070641C4EE0082005901DE045F049
:1055F000400500BF1020059017E000BF45F00205F0
:1056000000BF12E0B44201D225202070641C0B9828
:10561000007830B1B44202D20B9800782070641C3C
:1056200002E00B98401E0B902DE000BF04986C2800
:1056300007D10C9850F804AB0C9005F00200B8B1FB
:1056400016E0049868280BD10C9830F8041B1FFA58
:1056500081FA0C9005F0020050B10FFA8AFA07E0C7
:105660000C9850F804AB0C9005F0020000B100BF9C
:10567000CDE900790295524631462046059BFDF75B
:1056800041FD044600BF0B98401C0B900B9800781E
:1056900000287FF48BAE0A9838B1B44202D20020C1
:1056A000207002E0002006F8010CA4EB08000DB009
:1056B000BDE8F08F284E554C4C2900000020704763
:1056C00000207047002070470020704710B5FAF79F
:1056D000E9FDFDF7A7FFFEF757FFFFF7BBF8FFF760
:1056E00079F8FDF7DBFDFFF7C3F8FFF795F9FFF752
:1056F00099F8002010BD000070B5044609A0FEF71F
:10570000D1F9FDF78FFB012802D12046FDF79CFA65
:10571000FCF77EF805462246294603A0FEF7C2F9AB
:1057200070BD00000A000000257325730000000012
:1057300070B5044625680CE0A5F11C06314606A0AC
:10574000FEF7B0F92868A04202D004A0FEF7AAF93B
:105750002D68A542F0D170BD257300002F00000018
:105760000146002009E00B685A1C0A601A7800EB19
:10577000800302EB4302A2F130000A681278303A4B
:105780000A2AF0D3704710B503461A4601E0521CAE
:10579000491C107828B1087818B110780C78A0420C
:1057A000F5D0D01A10BD10B5FBF79CFF01210846BB
:1057B000FBF738FE00BFFBF71DFF0028FBD00122DE
:1057C00031210220FBF750FF0020FBF709FF0121E8
:1057D0000220FBF727FE00BF1920FBF7E9FE012896
:1057E000FAD10020FBF7ECFD0420FBF7FDFD0420BF
:1057F000FBF7F0FD0120FBF701FE0220FBF79EFF07
:1058000000BFFBF7B9FF0228FBD10020FBF7F6FD34
:1058100000F002F810BD00002DE9F047002600243A
:1058200000250027A046A146FBF7A6FF8246BAF155
:10583000000F06D0BAF1010F15D0BAF1020F46D110
:1058400015E02D48406DC0F3402040B12A48006B60
:10585000C0F3406018B129482949086002E029488E
:105860002749086037E027482549086033E0224887
:105870004068C0F3004720484068C0F383441E4896
:105880004068C0F341750DB90F2C03D12801401CAD
:10589000044400E0A41C27B91B4860431849086071
:1058A00014E015484068C0F3404058B11248406DBC
:1058B000C0F30136B01C1349B1FBF0F0604310494E
:1058C000086003E00F4860430D49086003E00D489D
:1058D0000B49086000BF00BF07484068C0F30318C9
:1058E0000A4810F808900648006820FA09F00449B0
:1058F0000860BDE8F087000000100240006CDC0288
:10590000C404002000127A0000093D006371000801
:10591000042808D14FF0E021096941F004014FF05B
:10592000E022116107E04FF0E021096921F0040154
:105930004FF0E0221161704770B50546002400BFAA
:1059400005E02146641C05A0FEF7ACF8641C142C8D
:10595000F7D307A0FEF7A6F870BD00007468726563
:1059600061643120636F756E743A2025640A00000B
:105970007468726561643120657869740A0000009A
:1059800070B5054600200C490860084601680BA068
:10599000FEF788F8002405E007480068401C064927
:1059A0000860641C09488442F6DB0348016808A0CB
:1059B000FEF778F870BD0000C005002073686172C2
:1059C000655F766172203D2025640A00A086010093
:1059D0000D0A73686172655F766172203D202564EF
:1059E0000A00000070B50546002408E040F6B83013
:1059F000FEF767FF214603A0FEF754F8641C042C51
:105A0000F4D370BD636F756E74203D2025640A0069
:105A100070B50546002416E02146641C0BA0FEF775
:105A200041F84FF47A70FEF74CFF022C0BD10CA01A
:105A3000FEF738F80F480068FFF740F9FEF7B0FBB3
:105A40000DA0FEF72FF80A2CE6D370BD74687265BE
:105A5000616420636F756E743A2025640A0000004B
:105A6000746872656164312073757370656E640A61
:105A700000000000C8050020746872656164312070
:105A8000726573756D65640A00000000002404E00F
:105A90002146641C01A0FEF705F8F9E774687265F9
:105AA000616420636F756E743A2025640A000000FB
:105AB00070B506460025002400BF07E0FFF79EF9F9
:105AC00029466D1C03A0FDF7EDFF641C0A2CF5DBD5
:105AD00070BD0000746872656164313A20636F754F
:105AE0006E74203D2025640A0000000070B5054654
:105AF000002400BF04E0214604A0FDF7D3FF641C8E
:105B00000A2CF8D306A0FDF7CDFF70BD746872654E
:105B100061643220636F756E743A2025640A000058
:105B20007468726561643220657869740A000000E7
:105B300010B504464FF47A70FEF7C3FE02480068C1
:105B4000401C0149086010BDC005002070B5064624
:105B500000240CE0FFF7A0F905464FF47A70FEF739
:105B6000B0FE29466D1C03A0FDF79CFF641C0A2CA7
:105B7000F0D370BD7469636B203D2025640A00007A
:105B800010B5044641F28830FEF79BFE03480068DA
:105B9000FEF7A8FF0A20FEF794FE10BDC8050020FE
:105BA00010B504464FF4FA60FEF78BFE0248006819
:105BB000FFF784F810BD0000D005002070B5064640
:105BC0000025002400BF07E029466D1C04A0FDF756
:105BD00069FFFFF713F9641C0A2CF5DB70BD0000A8
:105BE000746872656164323A20636F756E74203D2B
:105BF0002025640A0000000005462C4613E0FAF751
:105C000051FB0646084800682044074908603046B2
:105C1000FAF74CFB04482146026804A0FDF742FF56
:105C20002046FEF74EFEEAE7E00500207468726544
:105C300061645B25645D277320636F756E746572A4
:105C40002069732025640A001CB5052010214B0132
:105C50000022CDE90010114911A0FEF70AFE1449F7
:105C600008600846006818B108460068FEF7C4FFDF
:105C7000052011214FF400730022CDE900100D49D9
:105C80000DA0FEF7F6FD104908600846006818B13F
:105C900008460068FEF7B0FF1CBD0000E55900088B
:105CA000746872656164315F677261620000000050
:105CB000B00500204D5B0008746872656164325F56
:105CC0006772616200000000B40500201CB5052069
:105CD00010214B010022CDE90010114911A0FEF75F
:105CE000C8FD144908600846006818B108460068F5
:105CF000FEF782FF05200F214FF400730022CDE94B
:105D000000100D490DA0FEF7B4FD104908600846CB
:105D1000006818B108460068FEF76EFF1CBD000061
:105D2000115A0008746872656164315F7265737539
:105D30006D650000C8050020815B0008746872650D
:105D40006164325F726573756D650000CC0500207B
:105D50001FB5052013214FF400730022CDE9001078
:105D6000104911A0FEF785FD134908600846006838
:105D700018B108460068FEF73FFF052012214FF4D6
:105D800080620E4BCDE90032CDE9021000230C4AAF
:105D90000CA11048FEF75EFE0E48FEF72DFF002016
:105DA00004B010BD395900086372656174655F689D
:105DB0007265616431000000AC050020A81100206C
:105DC000ED5A0008696E69745F74687265616432C7
:105DD00000000000A81500201CB505200F214FF47D
:105DE00000730022CDE90010104911A0FEF741FD1B
:105DF000124908600846006818B108460068FEF7B6
:105E0000FBFE05200E214FF400730022CDE90010A7
:105E10000B490CA0FEF72DFD0D49086008460068EF
:105E200018B108460068FEF7E7FE1CBD8D5A000851
:105E300073757370656E645F74310000D005002067
:105E4000A15B000873757370656E645F7432000047
:105E5000D40500201CB5052018214FF400730A2238
:105E6000CDE90010104911A0FEF703FD11490860AB
:105E70000846006818B108460068FEF7BDFE052018
:105E800019214FF400731422CDE9001006490AA02D
:105E9000FEF7EFFC0A4908600846006818B108469A
:105EA0000068FEF7A9FE1CBDF95B00087468726506
:105EB00061643100D8050020746872656164320045
:105EC000DC0500201CB5052012214FF400730022D0
:105ED000CDE90010104911A0FEF7CBFC1349086072
:105EE0000846006818B108460068FEF785FE0520E0
:105EF00012214FF400730022CDE900100C490DA0CF
:105F0000FEF7B7FC0F4908600846006818B108465C
:105F10000068FEF771FE1CBDB15A00087468726516
:105F20006164315F7969656C64000000E4050020FC
:105F3000BD5B0008746872656164325F7969656C85
:105F400064000000E805002070B5054600242E46D8
:105F50000FE00520B4FBF0F100FB114040B92346EF
:105F60003246314603A0FDF79DFDC82C00D970BD17
:105F7000641CEEE7746872656164202564206973AF
:105F80002072756E6E696E67202C7468726561642C
:105F900020256420636F756E74203D2025640A00FF
:105FA0001CB50A2014214FF480630122CDE90010B2
:105FB0000D490EA0FEF75DFC044614B12046FEF725
:105FC0001BFE052014214FF480630222CDE900104E
:105FD00005490BA0FEF74DFC044614B12046FEF720
:105FE0000BFE00201CBD0000495F000874696D6550
:105FF0006C6963655F7468726561643100000000FC
:1060000074696D656C6963655F746872656164323B
:10601000000000001CB5044601211648FBF702FBF6
:10602000012114480C38FBF7FDFA6846FBF7ACFE7B
:1060300001208DF8070000208DF8040008208DF85D
:1060400006008001009004208DF8050069460A488A
:10605000FBF7A5FE00231A462146084800F0A2F8E7
:106060000121064800F0E2F80121044800F084F81C
:106070001CBD00000E00180000080140003801405F
:1060800010B51EA0FDF70EFD2048018820A0FDF7E9
:1060900009FD1E48008800F0010010B122A0FDF7A4
:1060A00001FD1A48008800F0020010B121A0FDF7A0
:1060B000F9FC1648008800F0040010B120A0FDF79C
:1060C000F1FC1248008800F0080010B11EA0FDF796
:1060D000E9FC0E48008800F4807010B11CA0FDF7A8
:1060E000E1FC0A48008800F4007010B11BA0FDF725
:1060F000D9FC05A0FDF7D6FC10BD000075736167E3
:1061000065206661756C743A0A0000002AED00E0B3
:106110005343425F434653525F554653523A307899
:106120002530325820000000554E444546494E5314
:1061300054522000494E565354415445200000000B
:10614000494E5650432000004E4F4350200000005F
:10615000554E414C49474E45442000004449564263
:10616000595A45524F2000000146486880B2704796
:10617000C1F3080242607047C26861F34D32C260E9
:10618000704701F01F0212B10268426801E0CA4381
:106190000260704702461068084008B1012070474D
:1061A0000020FCE72DE9F04385B004460F469046F9
:1061B00099466846FBF766F91848844208D01848A3
:1061C000844205D01748844202D01748844201D146
:1061D000029E00E0039E06EB86004000B0FBF7F550
:1061E0000A20B5FBF0F100FB1150052803D20A206C
:1061F000B5FBF0F503E00A20B5FBF0F0451CA06804
:1062000065F30F00A060E06868F30C30E06020697F
:1062100069F30D30206105B0BDE8F083003801401E
:10622000006001400064014000680140C26861F301
:10623000C302C260704710B5FEF7A6F9002010BD7A
:1062400010B591EA030F48BF83F0004300F1D481F9
:10625000841A71EB030C05D2121943EB0C03001BDB
:1062600061EB0C01DFF824E14FEA1154A4EB135C5D
:106270001EEA430F18BF9EEA445F73D023EA0E0361
:10628000DCF1200E21EA045143F4801332D322FAC8
:106290000CFE10EB0E0023FA0CFE41EB0E01CCF1CC
:1062A000200E03FA0EFE10EB0E0051F10001B1F5C5
:1062B000801FCCF1200E32D201EB045112FA0EF203
:1062C000BDE8104058BF7047401C38BF5FEA42022B
:1062D00018BF7047002814BF20F0010041F10001F1
:1062E0004FEA410313F5001F38BF7047A1F1C041C9
:1062F00000F074B9012A43EB0302ACF1200CDCF18D
:106300001F0E32BF4FF0000E23FA0CF310EB030008
:1063100041EB0451B4EB115FD0D0A1EB045101F576
:10632000801149085FEA300001EB04510ED350F1AF
:10633000000038BF12FA0EFE08D1BDE81040C9E7D0
:10634000401C38BF5FEA4202CAD1C3E7BDE8104033
:106350004FEA410313F5001F38BF7047A1F1C04158
:1063600000F03CB99EEA445F08D011EA5E0FBDE838
:10637000104004BF01F0004100207047BDE810400C
:1063800070B500F0DDF800BF64FBBE3E0000E0FF2A
:106390004FEA1153A3F58063D3F11E03A8BFD3F1D5
:1063A000200C08DB4FF0004242EAC12252EA505270
:1063B00032FA03F0704709420BD4102BC4BF0020FF
:1063C000704703F5787CBCF1FF3F05D04FF0FF30FC
:1063D00070474FF00000704770B500F0B1F800BF93
:1063E0004992248000207047F0E70000DFF848C1A0
:1063F00070B51CEA111E1EBF1CEA13159EEA0C0F95
:1064000095EA0C0F00F06F8081EA030423EA4C1335
:106410004EEAD47E21EA4C1141F4801143F48013FA
:10642000AE44A1FB024CA0FB0365AEF17F7E3619A2
:1064300055EB0C05A1FB034C4CF10003A0FB021C27
:1064400016EB0C06654153F10003094218BF46F0F4
:10645000010613F4007F0BD14FEA03314FEA0530F8
:10646000340341EA155140EA16506FF003020AE086
:106470004FEAC3214FEAC520F40241EA555140EAF0
:1064800056506FF0020202EB2E4201EB025585EAF4
:10649000CE710AD05FEA440C18BF24F0004450F1DA
:1064A000000041F1000120EAD47040F2FE7C624518
:1064B00000D270BDA84214BF4FF080444FF040445A
:1064C000002E08BF0024BEF1806FA8BFA1F1C0411B
:1064D000BDE8704080F282804FF0000001F1C041C1
:1064E00001F0004170479EEA0C0F0CEA131518BF2B
:1064F00095EA0C0F06D04FF0000081EA030E0EF073
:10650000004170BD00F01CF88900013E00F007B8A2
:1065100000F009B84FEA430C5FEA5C5C08D081EAFE
:10652000030100F05BB84FEA410C5FEA5C5CF6D116
:106530004FF00000014970470000FF070000F87F9E
:106540000EF1020E2EF0030E5EF8046B364205D4F7
:10655000012A43EB030515F5001F12D8012841EB72
:10656000010C1CF5001F0CD80ED14FEAD17C15F59B
:10657000001F0CEB4C0C0CF1020C08BF4CEBD37C55
:1065800004E04FF0080C01E04FEAD37C0CEB4C0523
:1065900026FA05F606F00706B6F1040C06D20EEB55
:1065A000860CBDE870404CF0010C6047DFE80CF051
:1065B000090B02024FF000414FF00000A1F500214D
:1065C00070BD19461046012851EB010418BFD4F5DF
:1065D000001484BF002001F0004170BD0808A0F540
:1065E00000114FEA3101704710B591EA030F48BF1F
:1065F00083F000433FF52CAE841A71EB030C07D2F5
:1066000012198CF0004C43EB0C03001B61EB0C01E6
:10661000DFF8A4E14FEA1154A4EB135C1EEA430F28
:1066200018BF9EEA445F00F0B08023EA6E03524236
:1066300021EA0451C3EB6E0338BF5B1EDCF1200E70
:1066400025D322FA0CFE10EB0E0043FA0CFE41EBB0
:106650000E01CCF1200E03FA0EFE10EB0E0051F1EC
:106660000001CCF1200E29D412FA0EF201EB0451F4
:10667000BDE8104058BF7047401C1CBFB2F1004F2E
:10668000704700280CBF491C20F00100704712EB36
:10669000020E43EB030218BF4FF0010E4EEA420216
:1066A000ACF1200CDCF11E0E54D943FA0CFE10EBB9
:1066B0000E0051F1FF31CCF11E0ED5D50EF1010EB9
:1066C00012FA0EFE404141EB010101EB445C5FEA2E
:1066D0005C5C10D910EBDE7001EB045138BFBEF1E9
:1066E000004FBDE8104018BF704700280CBF491C80
:1066F00020F00100704730D24FEAD42C11F5001180
:1067000024F400641BD0B1FA81F20B3AA41AA41E3F
:10671000D2F12003914030FA03F31943904001EB8A
:10672000CC71002C01EB0451BDE81040A8BF7047AC
:1067300001F1C0414FF0000001F000417047B0FA94
:1067400080F310FA03F100D110BDE41A173C48059C
:10675000C90AE4E701EB045110BD491001EB0451F3
:10676000BDE810404FEA300002E04FF000017047F2
:106770004A0008BF0042F8D0B2F5001F28BF70479A
:1067800001F000414FF0000070479EEA445F07D0DF
:1067900011EA5E0FBDE8104004BF002100207047E1
:1067A000BDE8104070B5FFF7CBFE00BF40DFF63EFE
:1067B00083F00041104670470000E0FF43004FEABD
:1067C000D30C4FEA3C0C43401FBF40070CF1605113
:1067D00013F0FE4F70471CF0006F03D100200CF047
:1067E000004170470CF0004343EA507010B540EA96
:1067F000CC0000F00EF800BF000000924FEA00014C
:10680000FFF7ECBE4FF000414FF00000A1F5002172
:1068100070470EF1020E2EF0030E5EF8044B244278
:1068200004D44FEA4102B2F17F4F11D84FEA40033E
:10683000B3F17F4F0CD80ED14FEAD07CB2F17F4F2D
:106840000CEB4C0C0CF1020C08BF4CEBD17C04E0BF
:106850004FF0080C01E04FEAD17C0CEB4C0324FA1A
:1068600003F404F00704B4F1040C06D20EEB840C1C
:10687000BDE810404CF0010C6047DFE80CF0070861
:1068800002024FF00040A0F5800010BD0846420013
:1068900018BFD2F1807288BF00F0004010BD4FF0E9
:1068A0004070E1EE100A7047200000000000002157
:1068B0000000002F00002200000700070023001442
:1068C0007F147F142400242A7F2A12250062640882
:1068D00013232600364955225027000005030000E7
:1068E0002800001C22410029000041221C002A002F
:1068F00014083E08142B0008083E08082C0000006D
:10690000A060002D0008080808082E000060600044
:10691000002F00201008040230003E5149453E314E
:106920000000427F4000320042615149463300215D
:1069300041454B3134001814127F1035002745456E
:10694000453936003C4A4949303700017109050391
:10695000380036494949363900064949291E3A0066
:1069600000363600003B0000563600003C0008149C
:106970002241003D0014141414143E00004122145E
:10698000083F0002015109064000324959513E4179
:10699000007C1211127C42007F4949493643003E77
:1069A0004141412244007F4141221C45007F494929
:1069B000494146007F0909090147003E4149497A9A
:1069C00048007F0808087F490000417F41004A00D5
:1069D0002040413F014B007F081422414C007F4082
:1069E0004040404D007F020C027F4E007F040810A3
:1069F0007F4F003E4141413E50007F090909065149
:106A0000003E4151215E52007F091929465300463C
:106A100049494931540001017F010155003F40407F
:106A2000403F56001F2040201F57003F4038403F46
:106A300058006314081463590007087008075A00C7
:106A400061514945435B00007F4141005D000041C9
:106A5000417F005E0004020102045F0040404040AC
:106A60004060000001020400610020545454786228
:106A7000007F48444438630038444444206400386C
:106A80004444487F650038545454186600087E0911
:106A90000102670018A4A4A47C68007F080404789D
:106AA000690000447D40006A004080847D006B00E6
:106AB0007F102844006C0000417F40006D007C0482
:106AC0001804786E007C080404786F00384444444D
:106AD000387000FC24242418710018242418FC7237
:106AE000007C0804040873004854545420740004C3
:106AF0003F44402075003C4040207C76001C2040F4
:106B0000201C77003C4030403C780044281028444A
:106B100079001CA0A0A07C7A004464544C447C14EE
:106B200014141414142000000000000000000000E1
:106B300000000000000021000000F800000000003C
:106B4000000033300000002200100C06100C06007C
:106B500000000000000000002340C07840C07840E2
:106B600000043F04043F04040024007088FC083043
:106B70000000001820FF211E000025F008F000E0B2
:106B800018000000211C031E211E002600F00888AA
:106B9000700000001E212324192721102710160E33
:106BA00000000000000000000000000000280000BD
:106BB00000E018040200000000071820400029002F
:106BC000020418E000000000402018070000002A1E
:106BD000404080F0804040000202010F01020200AC
:106BE0002B000000F0000000000101011F01010165
:106BF000002C000000000000000080B070000000C9
:106C000000002D0000000000000000000101010153
:106C10000101012E000000000000000000303000E3
:106C2000000000002F0000000080601804006018C1
:106C300006010000003000E010080810E000000F1E
:106C4000102020100F0031001010F800000000008C
:106C500020203F20200000320070080808887000C3
:106C60000030282422213000330030088888483042
:106C7000000018202020110E00340000C02010F861
:106C8000000000070424243F24003500F808888809
:106C90000808000019212020110E003600E010889D
:106CA00088180000000F112020110E00370038084E
:106CB00008C83808000000003F00000000380070DD
:106CC000880808887000001C222121221C0039003D
:106CD000E010080810E0000000312222110F003AF5
:106CE000000000C0C00000000000003030000000C4
:106CF0003B000000800000000000008060000000F9
:106D0000003C000080402010080000010204081030
:106D100020003D4040404040404000040404040442
:106D20000404003E000810204080000000201008ED
:106D3000040201003F007048080808F0000000004D
:106D4000303601000040C030C828E810E0000718C5
:106D5000272423140B00410000C038E0000000206D
:106D60003C2302022738204208F8888888700000F7
:106D7000203F202020110E0043C0300808080838AA
:106D80000007182020201008004408F80808081000
:106D9000E000203F202020100F004508F88888E8F8
:106DA000081000203F2020232018004608F888887B
:106DB000E8081000203F20000300000047C0300812
:106DC000080838000007182020221E02004808F892
:106DD00008000008F808203F210101213F20490058
:106DE0000808F8080800000020203F202000004A82
:106DF00000000808F8080800C08080807F000000BC
:106E00004B08F888C028180800203F2001263820A9
:106E1000004C08F8080000000000203F202020203F
:106E200030004D08F8F800F8F80800203F003F0057
:106E30003F20004E08F830C00008F808203F20002E
:106E400007183F004FE01008080810E0000F10205E
:106E50002020100F005008F808080808F000203F14
:106E600021010101000051E01008080810E0000FA6
:106E700018242438504F005208F8888888887000F9
:106E8000203F2000030C3020530070880808083889
:106E9000000038202121221C0054180808F8080896
:106EA00018000000203F200000005508F8080000EE
:106EB00008F808001F202020201F005608788800AE
:106EC00000C83808000007380E01000057F8080015
:106ED000F80008F800033C0700073C0300580818B6
:106EE00068808068180820302C03032C3020590853
:106EF00038C800C83808000000203F200000005AB1
:106F000010080808C838080020382621202018005A
:106F10005B000000FE020202000000007F404040D3
:106F2000005D00020202FE000000004040407F00C1
:106F300000005E00000402020204000000000000E5
:106F40000000005F000000000000000080808080E2
:106F500080808080600002020400000000000000C9
:106F600000000000006100008080808000000019A7
:106F7000242222223F206208F800808000000000C6
:106F80003F112020110E006300000080808000006F
:106F9000000E11202020110064000000808088F87D
:106FA00000000E112020103F2065000080808080AE
:106FB0000000001F22222222130066008080F08839
:106FC0008888180020203F20200000670000808073
:106FD00080808000006B9494949360006808F800AF
:106FE0008080800000203F210000203F2069008039
:106FF0009898000000000020203F202000006A0038
:107000000000809898000000C08080807F00006BA6
:1070100008F8000080808000203F24022D302000EE
:107020006C000808F8000000000020203F2020002D
:10703000006D8080808080808000203F20003F2085
:10704000003F6E8080008080800000203F21000093
:10705000203F206F0000808080800000001F2020E3
:1070600020201F0070808000808000000080FFA131
:107070002020110E00710000008080808000000E32
:10708000112020A0FF8072808080008080800020FE
:10709000203F21200001007300008080808080005C
:1070A000003324242424190074008080E0808000B0
:1070B000000000001F20200000758080000000807C
:1070C0008000001F202020103F207680808000005C
:1070D00080808000010E30080601007780800080EB
:1070E000008080800F300C030C300F00780080800F
:1070F00000808080000020312E0E312000798080B9
:1071000080000080808080818E70180601007A00E7
:10711000808080808080000021302C222130007B04
:1071200000000000807C020200000000003F4040A0
:107130007C00000000FF00000000000000FF0000D5
:10714000007D0002027C800000000040403F000003
:1071500000007E000601010202040400000000009D
:10716000000000000000000000000001020304060F
:1071700007080900000000000000000102030406E7
:1071800007080900000000010203040000000001DC
:1071900002030402040608020C081072745F617096
:1071A000706C69636174696F6E5F696E6974007297
:1071B000745F7468726561645F69646C655F65784B
:1071C000637574650072745F73656D5F696E697471
:1071D0000072745F73656D5F6465746163680072EB
:1071E000745F73656D5F6372656174650072745F6F
:1071F00073656D5F64656C6574650072745F73655B
:107200006D5F74616B650072745F73656D5F72654D
:107210006C656173650072745F73656D5F636F6E3B
:1072200074726F6C0072745F6D757465785F696EEF
:1072300069740072745F6D757465785F64657461FC
:1072400063680072745F6D757465785F6372656101
:1072500074650072745F6D757465785F64656C65E4
:1072600074650072745F6D757465785F74616B65C9
:107270000072745F6D757465785F72656C656173BB
:10728000650072745F6D757465785F636F6E74729C
:107290006F6C0072745F6576656E745F696E697499
:1072A0000072745F6576656E745F646574616368AF
:1072B0000072745F6576656E745F63726561746594
:1072C0000072745F6576656E745F64656C65746585
:1072D0000072745F6576656E745F73656E640072CC
:1072E000745F6576656E745F726563760072745F55
:1072F0006576656E745F636F6E74726F6C00727426
:107300005F6D625F696E69740072745F6D625F6465
:1073100065746163680072745F6D625F637265615A
:1073200074650072745F6D625F64656C657465009E
:1073300072745F6D625F73656E645F77616974001C
:1073400072745F6D625F726563760072745F6D6206
:107350005F636F6E74726F6C0072745F6D715F69E2
:107360006E69740072745F6D715F646574616368E7
:107370000072745F6D715F63726561746500727431
:107380005F6D715F64656C6574650072745F6D71CB
:107390005F73656E640072745F6D715F75726765AF
:1073A0006E740072745F6D715F72656376007274E3
:1073B0005F6D715F636F6E74726F6C00000001002F
:1073C00002000100030001000200010004000100AE
:1073D000020001000300010002000100050001009D
:1073E000020001000300010002000100040001008E
:1073F000020001000300010002000100060001007C
:10740000020001000300010002000100040001006D
:10741000020001000300010002000100050001005C
:10742000020001000300010002000100040001004D
:10743000020001000300010002000100070001003A
:10744000020001000300010002000100040001002D
:10745000020001000300010002000100050001001C
:10746000020001000300010002000100040001000D
:1074700002000100030001000200010006000100FB
:1074800002000100030001000200010004000100ED
:1074900002000100030001000200010005000100DC
:1074A00002000100030001000200010004000100CD
:1074B00002000100030001000200010030313233FC
:1074C000343536373839616263646566003031328D
:1074D00033343536373839414243444546006C69C8
:1074E00073745F6D656D00706C75675F686F6C6558
:1074F000730072745F73797374656D5F6865617032
:107500005F696E69740072745F6D616C6C6F6300AB
:1075100072745F7265616C6C6F630072745F667227
:1075200065650072745F6F626A6563745F696E6936
:10753000740072745F6F626A6563745F646574611E
:1075400063680072745F6F626A6563745F616C6C1C
:107550006F636174650072745F6F626A6563745F04
:1075600064656C6574650072745F6F626A656374EC
:107570005F69735F73797374656D6F626A65637455
:107580000072745F6F626A6563745F6765745F74CD
:107590007970650072745F6F626A6563745F6669B3
:1075A0006E640072745F7363686564756C655F69AF
:1075B0006E736572745F7468726561640072745F83
:1075C0007363686564756C655F72656D6F76655F22
:1075D000746872656164005F72745F74687265617B
:1075E000645F696E69740072745F74687265616467
:1075F0005F696E69740072745F7468726561645F5C
:10760000737461727475700072745F74687265610E
:10761000645F6465746163680072745F7468726546
:1076200061645F64656C6574650072745F74687230
:107630006561645F736C6565700072745F74687215
:107640006561645F636F6E74726F6C0072745F74F7
:1076500068726561645F73757370656E64007274DF
:107660005F7468726561645F726573756D650072E1
:10767000745F7468726561645F74696D656F757459
:107680000072745F7468726561645F66696E64003D
:1076900072745F74696D65725F696E69740072748B
:1076A0005F74696D65725F646574616368007274AC
:1076B0005F74696D65725F64656C65746500727492
:1076C0005F74696D65725F73746172740072745F68
:1076D00074696D65725F73746F700072745F746942
:1076E0006D65725F636F6E74726F6C0068656C6C51
:1076F0006F0076657273696F6E005F5F636D645FC4
:1077000076657273696F6E006C6973745F7468720A
:10771000656164005F5F636D645F6C6973745F745F
:107720006872656164006C6973745F73656D005F96
:107730005F636D645F6C6973745F73656D006C6922
:1077400073745F6576656E74005F5F636D645F6C14
:107750006973745F6576656E74006C6973745F6DD0
:1077600075746578005F5F636D645F6C6973745FE7
:107770006D75746578006C6973745F6D61696C62B6
:107780006F78005F5F636D645F6C6973745F6D61D8
:10779000696C626F78006C6973745F6D7367717583
:1077A000657565005F5F636D645F6C6973745F6DC1
:1077B00073677175657565006C6973745F74696D65
:1077C0006572005F5F636D645F6C6973745F746999
:1077D0006D6572006C697374005F5F636D645F68F0
:1077E000656C70005F5F636D645F7073005F5F6303
:1077F0006D645F66726565005F6D73685F6578656F
:10780000635F636D640066696E73685F6765745F6C
:1078100070726F6D70745F6D6F64650066696E7312
:10782000685F7365745F70726F6D70745F6D6F64A5
:10783000650066696E73685F7365745F6563686F22
:107840000066696E73685F6765745F6563686F0083
:107850005F5F636D645F7468726561645F73616DBF
:10786000706C65005F5F636D645F7468726561640E
:107870005F67726162005F5F636D645F6772616220
:107880005F637269746963616C005F5F636D645FFD
:107890007468726561645F726573756D65005F5FC2
:1078A000636D645F7468726561645F73757370653E
:1078B0006E64005F5F636D645F7468726561645FCE
:1078C00073796E005F5F636D645F74687265616495
:1078D0005F7969656C64005F5F636D645F74696D97
:1078E00065736C6963655F73616D706C6500000042
:1078F00072745F6F626A6563745F6765745F7479E1
:107900007065282673656D2D3E706172656E742EEC
:10791000706172656E7429203D3D2052545F4F6244
:107920006A6563745F436C6173735F53656D617007
:10793000686F7265000000002872745F75696E746C
:1079400033325F7429282872745F75696E74385FEA
:1079500074202A296D656D202B2053495A454F46C6
:107960005F5354525543545F4D454D2920252052B5
:10797000545F414C49474E5F53495A45203D3D2095
:10798000300000002872745F75696E74385F74206F
:107990002A29726D656D203E3D202872745F7569DD
:1079A0006E74385F74202A29686561705F70747224
:1079B000202626202872745F75696E74385F7420E3
:1079C0002A29726D656D203C202872745F75696E7E
:1079D00074385F74202A29686561705F656E640081
:1079E0002872745F75696E7433325F74296D656DCA
:1079F000202B2053495A454F465F53545255435408
:107A00005F4D454D202B2073697A65203C3D202831
:107A100072745F75696E7433325F74296865617062
:107A20005F656E640000000072745F6F626A656378
:107A3000745F6765745F74797065282872745F6F0E
:107A4000626A6563745F7429746872656164292071
:107A50003D3D2052545F4F626A6563745F436C61C1
:107A600073735F546872656164000000252D2A2ECF
:107A700073207072692020737461747573202020E4
:107A800020202073702020202020737461636B20DD
:107A900073697A65206D61782075736564206C6503
:107AA0006674207469636B20206572726F720A00BD
:107AB000C9560008C1560008BD560008E91800085C
:107AC000C5560008DE7400081D230008EC76000887
:107AD0003D1F0008F276000837620008FA760008B9
:107AE000376200080877000821270008147700088B
:107AF0002127000826770008E92500082F770008CD
:107B0000E92500083E770008C91F000849770008EA
:107B1000C91F00085A770008D924000865770008B3
:107B2000D924000876770008C1210008837700086F
:107B3000C12100089677000895230008A477000863
:107B400095230008B877000805290008C3770008C6
:107B500005290008D4770008711F0008D9770008AC
:107B6000B12D0008E4770008B3130008ED77000892
:107B7000A513000850780008515D000864780008DB
:107B8000495C000876780008491E00088A780008D9
:107B9000CD5C00089E780008D95D0008B378000825
:107BA000555E0008C4780008C55E0008D778000854
:107BB000A15F0008D47B000800000020EC05000055
:107BC000C0010008387E0008EC050020AC50000021
:107BD0001C020008917C14014004122012402280F3
:107BE00012057A1804C152011BF010012AFF050288
:107BF00015F01B0F04012AFF0502130F180940405E
:107C0000405F55555575041A5F0C091121080C1178
:107C1000200F094989790909090F201F112FFE0238
:107C2000424ACA4A0304134202FE000E14FF4050A7
:107C30004C4340404F50505C40FF1BF888012AFFE6
:107C4000050215F81B1F08012A7F200B109F80E2F8
:107C50003B808201000916E2A2928A86828080041B
:107C60001840807F0810102020242424A4242420DD
:107C7000FF20222C20203B080E10C07E40403F22D7
:107C80002220030C102040A2000E131060020CC032
:107C9000021EE2020202E21E080E1104047C0380AE
:107CA000804020130C132040A01A04011E1F04243E
:107CB00044840619010910602308062B3F40010D7A
:107CC000127001020C80128C080B11FE02F2525A43
:107CD000565252F20260080D107E41300F201349B7
:107CE000817F010913E0613AFF6102134049194A9B
:107CF0007F070911221980080B100CC01008F71417
:107D0000549414F4BF1980137C03000B11011D134C
:107D1000115599513F11011780FC96E584FC00082C
:107D20001208C8494AC80808200A807F024C807F90
:107D300080601F0D113F40407860180804041F0444
:107D40002444840619010910A03B08063A190105CC
:107D5000127001020C080E10C2BA8282FEA290FCC0
:107D60004B48F94A48812720100846817F000811B6
:107D7000FF22223F222220001011403C10FF101051
:107D8000404848487F48C8484017020602FF0101A2
:107D9000000912020A1242827F02022A10011943CC
:107DA00019010214F0178040201806010613204024
:107DB00080403F172424A4FEA3221B22CCA301143D
:107DC00015080601FF2B0104010B11FF0280397D0C
:107DD0001F9008888888FF040211080010190444C5
:107DE000827F01808040432C102846818019E42145
:107DF0000329127A292F13F4042A20043290299A95
:107E00001304052A2004322832031A140C29042AE8
:107E10002C1C29EC190C2904292032051A340C29B0
:107E200004323832061A440C2904323C320A1A54FD
:087E30000C2904028F3400004C
:040000050800018569
:00000001FF
