:020000040000FA
:1000000040BA704740BA704740BA704740BA70472C
:1000100040BA704740BA704740BA704740BA70471C
:1000200040BA704740BA7047C0BA7047C0BA70470C
:10003000C0BA7047C0BA7047C0BA7047C0BA7047FC
:10004000C0BA7047C0BA7047C0BA7047C0BA7047EC
:100050004FEA3000704700004FEA30007047000060
:100060004FEA3000704700004FEA30007047000050
:100070004FEA3000704700004FEA30007047000040
:100080004FEA3000704700004FEA30007047000030
:100090004FEA3000704700004FEA30007047000020
:1000A0002DE9FC470025DFF8848000F180441746E5
:1000B0000E4601954FF4006AC8442846009515E0A5
:1000C00004EBC02119485246484400F07AFE5146DC
:1000D00040460095009A825CBA421DD1009A521C9B
:1000E00000928A42F6DB0198401C0190B0EBD62FBB
:1000F000E6D3700518D00198C6F30A0604EBC021B8
:100100000A483246484400F05CFE404629460095C5
:1001100008E0415CB94202D00120BDE8FC870099AB
:10012000491C00918E42F4D80020F6E70800000038
:1001300010B500F0E7FD002010BD10B500F18040C3
:1001400000F0F0FD002010BD08B50020009000F088
:100150002DF800F015FF00F0B5F8002008BD0000F4
:10016000F8B50C46002100F1804516464FF4807723
:10017000084600910AE000BF05EB002106EB0020D5
:100180003A4600F0EBFD0098401C0090B0EB142FB5
:10019000F2D314F0FF0F07D00098E2B205EB002174
:1001A00006EB002000F0DAFD0020F8BD12480168DF
:1001B00041F4700101601148016841F001010160E2
:1001C00001688907FCD5416821F00301416041685D
:1001D00011F00C0FFBD10168094A114001600021A8
:1001E000416001634FF41F01816003494FF00060DB
:1001F000803908607047000088ED00E00010024080
:10020000FFFFF2FE002070472DE9FC470D4600215C
:10021000DFF8ACA000F18044174601914FF400666E
:10022000CA4488460846009120E000BF04EBC02184
:1002300023483246484400F0C4FD5046CDF80080C3
:1002400000990B46425C019903EBC121795C8A421B
:1002500005D00199E01800EBC120BDE8FC87591CCE
:100260000091B142ECDB0198401C0190B0EBD52F1E
:10027000DCD3680520D00198C5F30A0604EBC02141
:100280000F483246484400F09CFD50464146CDF8A8
:1002900000800FE0415CDDE9002302EBC322BA5C81
:1002A000914204D00098204400EBC320D5E7009988
:1002B000491C00918E42EDD8A4F180446019CCE72E
:1002C000080000002DE9FC410121264800F082FAD7
:1002D00001214FF4C01000F07DFA0121224800F006
:1002E0001FFC684600F057FB01258DF807500024DD
:1002F0008DF8044010262803DFF870808DF8066022
:10030000042700908DF805706946404600F090FB88
:100310008DF807508DF8044068038DF80660009052
:100320008DF805706946404600F082FBA8030090F6
:100330008DF8064018208DF805006946404600F00B
:1003400077FB8DF807508DF80440E8038DF80660C0
:1003500000908DF805706946404600F069FBBDE8E5
:10036000FC8100000300180002031030000C014063
:100370000020401C0528FCD3704700002DE9F04107
:100380000024114E25464FF4804877146006040E71
:100390004146304600F0A3FB012801D1641CE4B2C1
:1003A0003946304600F0F0FAFFF7E2FF39463046B2
:1003B00000F0E8FAFFF7DCFF6D1CEDB2082DE5D385
:1003C0002046BDE8F0810000000C01402DE9F0411D
:1003D000124F002405464FF400487E14280641467B
:1003E000384602D500F0D0FA01E000F0CBFAFFF772
:1003F000BFFF3146384600F0C7FA6806050EFFF722
:10040000B7FF3146384600F0BDFA641CE4B2082C50
:10041000E4D3BDE8F041FFF7ABBF0000000C0140A2
:1004200005494A6860F38F324A608208486862F37F
:100430001C704860704700000010024002494A6882
:1004400060F307124A6070470010024002494A6890
:1004500060F30A224A6070470010024002494A686D
:1004600060F3CD224A607047001002400549012820
:10047000486D03D020F030004865704740F03000F0
:10048000FAE700000010024002490A6A60F31042D5
:100490000A6270470010024002490A6B60F31F7243
:1004A0000A6370470010024002490A6D60F310426F
:1004B0000A6570470010024002490A6860F3D3429F
:1004C0000A6070470010024005494A6860F31A62EA
:1004D0004A60C208086B62F310400863704700006E
:1004E000001002400F4A052810D2DFE800F0030791
:1004F0000B101500106861F3000006E0106861F34E
:10050000104002E0106861F3186010607047106AD4
:1005100061F3000010627047506A61F3000050629E
:10052000704700000010024030B5014600F0FEF9AF
:1005300002002F4C2F4804D0012A0AD0022A08D1E9
:1005400009E0426D920504D5026B920101D52A4A59
:1005500023E00C6022E04268C2F300454268436831
:10056000C2F38342C3F341737BB90F2A0DD0921CAF
:100570007DB143689B030ED5436DC3F301339B1CD0
:10058000B4FBF3F353430B6008E002EB0312521C7D
:10059000EEE71A4B00E0164B5A430A604268184BCC
:1005A000C2F303127B449B5C0A68DA404A604368EA
:1005B000134CC3F302237C442A3CE35C22FA03F38A
:1005C000CB6043680834C3F3C223E35CDA408A603B
:1005D00043684068C3F30073C0F3813040EA83008E
:1005E00004F10803185CB2FBF0F0086130BD0000B4
:1005F00000127A0000100240006CDC0200093D008D
:10060000640A0000194B1A49C21A98420DD009DC3D
:10061000A0F5002008280FD2DFE800F00F13171B09
:100620001F0E0E23921E052A06D8486A40F08070DD
:100630004862486AC001FCD47047886840F4803042
:1006400012E0886840F400300EE0886840F48020B2
:100650000AE0886840F4002006E0886840F48010D2
:1006600002E0886840F400008860704718002400A9
:10067000001002400146002001F01F0301229A40B1
:10068000034B03EB114109688A4300D101207047F5
:100690000010024002490A6860F392420A60704703
:1006A0000010024002494A6D60F30D324A657047FE
:1006B0000010024030B500244FF4405500E0641CA7
:1006C0001120FFF7D7FF012801D0AC42F7D311204A
:1006D000FFF7D0FF012800D0002030BD07490A6B8A
:1006E00022F0FF025A320A630A6860F30F220A609E
:1006F000086B20F0FF000863704700000010024004
:1007000002490A6860F387020A60704700100240DD
:1007100002490A6B60F359620A6370470010024095
:1007200000B503460120FFF7F3FF0348416D63F373
:100730004921416500BD000000100240044A012922
:10074000916802D08143916070470143FBE700004C
:1007500000100240024600201949A2F50022082A92
:100760000CD2DFE802F0040C141A200B0B268A6866
:10077000D20703D08968C90506E0012070478A685E
:100780009207FBD5896889050029F6DB70478A68DE
:100790005207FBD589684905F6E78A681207F5D53F
:1007A00089680905F0E78A68D206EFD58968C90427
:1007B000EAE78A681206E9D509680903E4E7000058
:1007C0000010024002490A6A60F382020A6270471E
:1007D0000010024010B5074C00F01F0301229A40A0
:1007E00004EB10400129016802D09143016010BD63
:1007F0001143FBE70010024010B5074C00F01F0347
:1008000001229A4004EB10400129016802D0914373
:10081000016010BD1143FBE70010024010B5074C0A
:1008200000F01F0301229A4004EB104001290168E7
:1008300002D09143016010BD1143FBE7001002405C
:1008400010B5134BB8B15C6844F480345C60012887
:10085000586819D040F400305860586861F39540EA
:1008600058605868090961F35E705860586862F30F
:10087000DF70586010BD586820F480305860186BE5
:1008800040F000701863E8E720F40030E4E700006F
:10089000001002400D48016841F00101016001684B
:1008A0008907FCD5416821F003014160416811F0DE
:1008B0000C0FFBD10168064A114001600021416024
:1008C00001634FF41F018160704700000010024077
:1008D000FFFFF2FE02490A6A60F3CF320A627047F4
:1008E0000010024002490A6A60F309220A62704756
:1008F000001002400C494A6860F301024A6000BFE0
:1009000000BF00BF00BF00BF00BF00BF00BF00BFEF
:1009100000BF00BF00BF00BF00BF00BF00BF00BFDF
:1009200000BF00BF00BF704700100240024840688F
:10093000C0F38100704700000010024005494A687A
:1009400060F397524A608208486862F3DB6048604F
:10095000704700000010024010B50446012801D184
:10096000FFF7DEFE0248416D64F30821416510BDCA
:10097000001002400249CA6D60F30002CA65704768
:100980000010024041617047016170470AB1016186
:100990007047416170474FF6FF710160002181711E
:1009A0000171042141710121C1717047044A13682A
:1009B00003F0800343EA0010084310607047000012
:1009C0000000014002490A6860F3C7120A607047DC
:1009D000000001408A07130F10B50F229A408C08BF
:1009E000124900FA03F00CD0012C11D0022C16D0C1
:1009F000032C05D14B6993434B614A6902434A6119
:100A000010BD8B6893438B608A6802438A6010BD77
:100A1000CB689343CB60CA680243CA6010BD0B69C0
:100A200093430B610A6902430A6110BD0000014053
:100A3000F0B50A8893B28A79032A43D0F2B30C79CD
:100A4000C97902F0080204F00404224301F0030112
:100A500052EA010213F0FF0F4FF001054FF00F04AF
:100A600015D0002105FA01F61E420DD0D0F800C0C5
:100A70008F0004FA07F62CEA060CC0F800C00668DE
:100A800002FA07F73E430660491C0829EAD3FF2B08
:100A900017D91E0A5FF0000105FA01F333420BD0AB
:100AA00047688B0004FA03FC27EA0C074760476895
:100AB00002FA03F31F434760491C00E004E00829E1
:100AC000EAD3F0BD0022C5E7497901F00F021829E9
:100AD00003D02829BED14361BCE70361BAE70246CF
:100AE00000209268914300D101207047806880B255
:100AF000704710B54FF4402401212046FFF77CFEDB
:100B00002046BDE810400021FFF776BE02460020D7
:100B1000D2680A4200D001207047C06880B2704796
:100B200030B50D4AC0F3072402EB1063C0F307424F
:100B3000C5B2C4F12000841A4FF0FF30A040E0405D
:100B4000D0401C68904084431C60002902D095402E
:100B50002C431C6030BD00000000014041F4803295
:100B6000826181618261816980697047002AC26BFC
:100B700001D00A4300E08A43C2637047C1607047F6
:100B8000154910B5884202D10121144C1AE01449CC
:100B9000884203D1114C0121641C13E011498842A1
:100BA00003D10E4C0121A41C0CE00F49884203D153
:100BB0000A4C0121E41C05E00C4988420BD1074C8A
:100BC0000121241D2046FFF717FE2046BDE81040F6
:100BD0000021FFF711BE10BD0008014002000C000B
:100BE000000C0140001001400014014000180140B9
:100BF00000280DDB00F01F02012191404009800018
:100C000000F1E020C0F88011BFF34F8FBFF36F8F6A
:100C10007047000070B51D4B1B68C3F30224C4F17C
:100C20000706042E00D90426231D072B01D2002419
:100C300000E0E41E012303FA06F56D1E0D40A540F9
:100C400003FA04F1491E11400D43002807DB00BFE1
:100C500000F1E0214FEA051281F8002407E000F0DE
:100C60000F0202F1E0224FEA051182F8141D0BDB9E
:100C700000F01F014FEA50104FEA800000F1E02021
:100C800003FA01F3C0F8003170BD00000CED00E084
:100C9000044A0029116801D0014300E0814311603A
:100CA0007047000010ED00E0064900F007020868F8
:100CB0004FF6FF03184040EA0220034A1043086041
:100CC000704700000CED00E00000FA05BFF34F8F05
:100CD00005480168054A01F4E06111430160BFF372
:100CE0004F8F00BFFDE700000CED00E00400FA05A7
:100CF000024A1140014302480160704780FFFF1F14
:100D000008ED00E010B500F09AF8002000F07AF845
:100D1000C720FFF75BFB012000F074F8BDE810402E
:100D200000F07CB810B5044600F089F8002000F00F
:100D300069F82020FFF74AFBC4F30740FFF746FBA2
:100D4000C4F30720FFF742FBE0B2FFF73FFB0120AF
:100D500000F058F8BDE8104000F060B870B51646D5
:100D60000D46044600F06BF8002000F04BF802201E
:100D7000FFF72CFBC5F30740FFF728FBC5F307205F
:100D8000FFF724FBE8B2FFF721FB002505E000BFD9
:100D900014F8010BFFF71AFB6D1CB542F8D30120C4
:100DA00000F030F800F03AF8002000F02BF80420B2
:100DB000FFF70CFB012000F025F8BDE8704000F0C3
:100DC0002DB870B5054616460C46002000F01AF8FE
:100DD0000320FFF7FBFAC4F30740FFF7F7FAC4F369
:100DE0000720FFF7F3FAE0B2FFF7F0FA03E0FFF7AE
:100DF000C5FA05F8010B761EF9D2BDE87040012056
:100E0000AFF30080044A00284FF48051104601D00F
:100E1000FFF7BABDFFF7B6BD000C014010B50020CA
:100E2000FFF7F0FF0520FFF7D1FA00BFFFF7A6FAA2
:100E3000C007FBD1BDE810400120FFF7E3BF10B5AC
:100E40000020FFF7DFFF0620FFF7C0FABDE81040E3
:100E50000120FFF7D7BF000010B5FFF71BFD0121F0
:100E60000846FFF73FFB00BFFFF724FC0028FBD03C
:100E700001223B210220FFF7E3FC0020FFF712FCD8
:100E800001210220FFF72EFB1920FFF7F3FB0128B9
:100E9000FAD10020FFF7D2FA0420FFF7DFFA04208E
:100EA000FFF7D4FA0120FFF7E1FA0220FFF722FD55
:100EB000FFF73CFD0228FBD10020FFF7D7FABDE881
:100EC000104000F001B8000070B5FFF72FFD224A76
:100ED0001F4C20494A4420B101280AD0022808D1D9
:100EE00009E0486D800504D5086B800101D51B48D9
:100EF00023E0146022E04868C0F3004548684B686E
:100F0000C0F38340C3F341737BB90F280DD0801C1D
:100F10007DB14B689B030ED54B6DC3F301339B1C16
:100F2000B4FBF3F34343136008E000EB0310401CF1
:100F3000EEE70B4B00E0064B584310604868094948
:100F4000C0F303107944085C1168C140116070BDA2
:100F500000127A000010024004000000006CDC0265
:100F600000093D00D40000004FF0E021042808698A
:100F700003D020F004000861704740F00400FAE755
:100F800010B5FFF787FC01210420FFF7ABFA184CDE
:100F90002046FFF76FFB0128FAD101210020FFF75F
:100FA000A1FA0120FFF766FB0128FAD100221121E6
:100FB0001046FFF745FC01210220FFF793FA1920A4
:100FC000FFF758FB0128FAD10020FFF737FA042079
:100FD000FFF744FA0420FFF739FA0220FFF78AFCF2
:100FE000FFF7A4FC0228FBD1BDE81040FFF76CBF5F
:100FF00001002400000000000102030400000000C2
:101000000102030402040608020C0810000000009C
:1010100000000000010203040607080900000000A8
:101020000000000001020304060708090000000098
:0410300000127A0030
:020000040000FA
:1010340001014154333246343033415F5350495FE8
:101044003235513132380000000000000000000049
:10105400000000000000000000000000000000008C
:10106400000000000000000000000000000000007C
:10107400000000000000000000000000000000006C
:10108400000000000000000000000000000000005C
:10109400000000000000000000000000000000004C
:1010A400000000000000000000000000000000003C
:1010B40000000500000000C0000000010010000056
:1010C40000000000FF00000070170000701700000F
:1010D4000010000000000000FFFFFFFFFFFFFFFF04
:1010E40000000000000000000000000000000000FC
:1010F40000000000000000000000000000000000EC
:1011040000000000000000000000000000000000DB
:1011140000000000000000000000000000000000CB
:0400000500000000F7
:00000001FF
